{
  "_format": "hh-sol-artifact-1",
  "contractName": "DeFiProtocol",
  "sourceName": "contracts/DeFiProtocol.sol",
  "abi": [
    {
      "inputs": [
        {
          "internalType": "address",
          "name": "_trustEngine",
          "type": "address"
        }
      ],
      "stateMutability": "nonpayable",
      "type": "constructor"
    },
    {
      "anonymous": false,
      "inputs": [
        {
          "indexed": true,
          "internalType": "address",
          "name": "previousOwner",
          "type": "address"
        },
        {
          "indexed": true,
          "internalType": "address",
          "name": "newOwner",
          "type": "address"
        }
      ],
      "name": "OwnershipTransferred",
      "type": "event"
    },
    {
      "anonymous": false,
      "inputs": [
        {
          "indexed": true,
          "internalType": "address",
          "name": "pool",
          "type": "address"
        },
        {
          "indexed": false,
          "internalType": "uint256",
          "name": "trustMultiplier",
          "type": "uint256"
        }
      ],
      "name": "PoolCreated",
      "type": "event"
    },
    {
      "anonymous": false,
      "inputs": [
        {
          "indexed": true,
          "internalType": "address",
          "name": "user",
          "type": "address"
        },
        {
          "indexed": true,
          "internalType": "address",
          "name": "pool",
          "type": "address"
        },
        {
          "indexed": false,
          "internalType": "uint256",
          "name": "amount",
          "type": "uint256"
        }
      ],
      "name": "RewardsClaimed",
      "type": "event"
    },
    {
      "anonymous": false,
      "inputs": [
        {
          "indexed": true,
          "internalType": "address",
          "name": "user",
          "type": "address"
        },
        {
          "indexed": true,
          "internalType": "address",
          "name": "pool",
          "type": "address"
        },
        {
          "indexed": false,
          "internalType": "uint256",
          "name": "amount",
          "type": "uint256"
        },
        {
          "indexed": false,
          "internalType": "uint256",
          "name": "trustScore",
          "type": "uint256"
        }
      ],
      "name": "Staked",
      "type": "event"
    },
    {
      "anonymous": false,
      "inputs": [
        {
          "indexed": true,
          "internalType": "address",
          "name": "user",
          "type": "address"
        },
        {
          "indexed": true,
          "internalType": "address",
          "name": "pool",
          "type": "address"
        },
        {
          "indexed": false,
          "internalType": "uint256",
          "name": "amount",
          "type": "uint256"
        },
        {
          "indexed": false,
          "internalType": "uint256",
          "name": "rewards",
          "type": "uint256"
        }
      ],
      "name": "Unstaked",
      "type": "event"
    },
    {
      "inputs": [],
      "name": "BASIS_POINTS",
      "outputs": [
        {
          "internalType": "uint256",
          "name": "",
          "type": "uint256"
        }
      ],
      "stateMutability": "view",
      "type": "function"
    },
    {
      "inputs": [
        {
          "internalType": "address",
          "name": "",
          "type": "address"
        }
      ],
      "name": "activePools",
      "outputs": [
        {
          "internalType": "bool",
          "name": "",
          "type": "bool"
        }
      ],
      "stateMutability": "view",
      "type": "function"
    },
    {
      "inputs": [
        {
          "internalType": "address",
          "name": "pool",
          "type": "address"
        }
      ],
      "name": "claimRewards",
      "outputs": [],
      "stateMutability": "nonpayable",
      "type": "function"
    },
    {
      "inputs": [
        {
          "internalType": "address",
          "name": "token",
          "type": "address"
        },
        {
          "internalType": "uint256",
          "name": "rewardsPerBlock",
          "type": "uint256"
        },
        {
          "internalType": "uint256",
          "name": "trustMultiplier",
          "type": "uint256"
        }
      ],
      "name": "createPool",
      "outputs": [],
      "stateMutability": "nonpayable",
      "type": "function"
    },
    {
      "inputs": [
        {
          "internalType": "address",
          "name": "token",
          "type": "address"
        }
      ],
      "name": "emergencyWithdraw",
      "outputs": [],
      "stateMutability": "nonpayable",
      "type": "function"
    },
    {
      "inputs": [
        {
          "internalType": "address",
          "name": "user",
          "type": "address"
        },
        {
          "internalType": "address",
          "name": "pool",
          "type": "address"
        }
      ],
      "name": "getPendingRewards",
      "outputs": [
        {
          "internalType": "uint256",
          "name": "",
          "type": "uint256"
        }
      ],
      "stateMutability": "view",
      "type": "function"
    },
    {
      "inputs": [
        {
          "internalType": "address",
          "name": "user",
          "type": "address"
        }
      ],
      "name": "getUserTotalStaked",
      "outputs": [
        {
          "internalType": "uint256",
          "name": "total",
          "type": "uint256"
        }
      ],
      "stateMutability": "view",
      "type": "function"
    },
    {
      "inputs": [],
      "name": "owner",
      "outputs": [
        {
          "internalType": "address",
          "name": "",
          "type": "address"
        }
      ],
      "stateMutability": "view",
      "type": "function"
    },
    {
      "inputs": [
        {
          "internalType": "address",
          "name": "",
          "type": "address"
        }
      ],
      "name": "poolAccRewardsPerShare",
      "outputs": [
        {
          "internalType": "uint256",
          "name": "",
          "type": "uint256"
        }
      ],
      "stateMutability": "view",
      "type": "function"
    },
    {
      "inputs": [
        {
          "internalType": "address",
          "name": "",
          "type": "address"
        }
      ],
      "name": "poolLastUpdateBlock",
      "outputs": [
        {
          "internalType": "uint256",
          "name": "",
          "type": "uint256"
        }
      ],
      "stateMutability": "view",
      "type": "function"
    },
    {
      "inputs": [
        {
          "internalType": "address",
          "name": "",
          "type": "address"
        }
      ],
      "name": "poolRewardsPerBlock",
      "outputs": [
        {
          "internalType": "uint256",
          "name": "",
          "type": "uint256"
        }
      ],
      "stateMutability": "view",
      "type": "function"
    },
    {
      "inputs": [
        {
          "internalType": "address",
          "name": "",
          "type": "address"
        }
      ],
      "name": "poolTotalStaked",
      "outputs": [
        {
          "internalType": "uint256",
          "name": "",
          "type": "uint256"
        }
      ],
      "stateMutability": "view",
      "type": "function"
    },
    {
      "inputs": [
        {
          "internalType": "address",
          "name": "",
          "type": "address"
        }
      ],
      "name": "poolTrustMultiplier",
      "outputs": [
        {
          "internalType": "uint256",
          "name": "",
          "type": "uint256"
        }
      ],
      "stateMutability": "view",
      "type": "function"
    },
    {
      "inputs": [],
      "name": "protocolFee",
      "outputs": [
        {
          "internalType": "uint256",
          "name": "",
          "type": "uint256"
        }
      ],
      "stateMutability": "view",
      "type": "function"
    },
    {
      "inputs": [],
      "name": "renounceOwnership",
      "outputs": [],
      "stateMutability": "nonpayable",
      "type": "function"
    },
    {
      "inputs": [
        {
          "internalType": "address",
          "name": "pool",
          "type": "address"
        },
        {
          "internalType": "uint256",
          "name": "amount",
          "type": "uint256"
        }
      ],
      "name": "stake",
      "outputs": [],
      "stateMutability": "nonpayable",
      "type": "function"
    },
    {
      "inputs": [],
      "name": "totalValueLocked",
      "outputs": [
        {
          "internalType": "uint256",
          "name": "",
          "type": "uint256"
        }
      ],
      "stateMutability": "view",
      "type": "function"
    },
    {
      "inputs": [
        {
          "internalType": "address",
          "name": "newOwner",
          "type": "address"
        }
      ],
      "name": "transferOwnership",
      "outputs": [],
      "stateMutability": "nonpayable",
      "type": "function"
    },
    {
      "inputs": [],
      "name": "trustEngine",
      "outputs": [
        {
          "internalType": "contract TrustEngine",
          "name": "",
          "type": "address"
        }
      ],
      "stateMutability": "view",
      "type": "function"
    },
    {
      "inputs": [
        {
          "internalType": "address",
          "name": "pool",
          "type": "address"
        },
        {
          "internalType": "uint256",
          "name": "amount",
          "type": "uint256"
        }
      ],
      "name": "unstake",
      "outputs": [],
      "stateMutability": "nonpayable",
      "type": "function"
    },
    {
      "inputs": [
        {
          "internalType": "address",
          "name": "",
          "type": "address"
        },
        {
          "internalType": "address",
          "name": "",
          "type": "address"
        }
      ],
      "name": "userRewardDebt",
      "outputs": [
        {
          "internalType": "uint256",
          "name": "",
          "type": "uint256"
        }
      ],
      "stateMutability": "view",
      "type": "function"
    },
    {
      "inputs": [
        {
          "internalType": "address",
          "name": "",
          "type": "address"
        },
        {
          "internalType": "address",
          "name": "",
          "type": "address"
        }
      ],
      "name": "userStakedAmount",
      "outputs": [
        {
          "internalType": "uint256",
          "name": "",
          "type": "uint256"
        }
      ],
      "stateMutability": "view",
      "type": "function"
    },
    {
      "inputs": [
        {
          "internalType": "address",
          "name": "",
          "type": "address"
        },
        {
          "internalType": "address",
          "name": "",
          "type": "address"
        }
      ],
      "name": "userTrustScore",
      "outputs": [
        {
          "internalType": "uint256",
          "name": "",
          "type": "uint256"
        }
      ],
      "stateMutability": "view",
      "type": "function"
    }
  ],
  "bytecode": "0x6080346100b157601f61155c38819003918201601f19168301916001600160401b038311848410176100b6578084926020946040528339810103126100b157516001600160a01b0390818116908190036100b157600160005560015460018060a01b0319903382821617600155604051933391167f8be0079c531659141344cd1fd0a4f28419497f9722a3daafe3b4186f6b6457e0600080a36019600455600254161760025561148f90816100cd8239f35b600080fd5b634e487b7160e01b600052604160045260246000fdfe6080604081815260048036101561001557600080fd5b600092833560e01c9081630a6dcb0214610de9575080631ada6c0814610db15780631d030ac914610d6857806329a8f81914610d2a578063328b071b14610cf257806349d638f714610cba5780636e2f169614610c94578381636ff1c9bc14610b7f57508063715018a614610b1f57806377aa980d14610af65780637a27db5714610ac15780638302fe1114610a78578063846c565814610a2f5780638da5cb5b14610a06578063adc9772e1461076b578063b039ddf614610656578063b0e21e8a14610639578063c2a672e0146103b0578063db85a48114610378578063e1f1c4a71461035b578063ec18154e14610338578063ef5cfb8c146101f05763f2fde38b1461012257600080fd5b346101ec5760203660031901126101ec5761013b610e1d565b90610144610e4e565b6001600160a01b0391821692831561019a575050600154826bffffffffffffffffffffffff60a01b821617600155167f8be0079c531659141344cd1fd0a4f28419497f9722a3daafe3b4186f6b6457e08380a380f35b906020608492519162461bcd60e51b8352820152602660248201527f4f776e61626c653a206e6577206f776e657220697320746865207a65726f206160448201526564647265737360d01b6064820152fd5b8280fd5b5090346101ec576020806003193601126103345761020c610e1d565b610214610f42565b338552600b82528285206001600160a01b03821680875290835283862054909490156102fe5750906102667f9310ccfcb8de723f578a9e4282ea9f521f05ae40dc08f3068dfad528a65ee3c7926111c2565b338552600b81528285208486528152600a6102ee8487205460098452670de0b6b3a76400006102cb6102b98261029f8a8d205486610fc8565b04338c52600c8852898c208b8d528852898c205490610fbb565b92898b5260098752888b205490610fc8565b04338952600c8552868920888a528552868920556102e83361133b565b90610fc8565b0492519283523392a36001815580f35b835162461bcd60e51b8152908101839052601060248201526f139bc81cdd185ad9481a5b881c1bdbdb60821b6044820152606490fd5b8380fd5b5050346103575781600319360112610357576020906003549051908152f35b5080fd5b505034610357578160031936011261035757602090516127108152f35b5050346103575760203660031901126103575760209181906001600160a01b036103a0610e1d565b1681526008845220549051908152f35b509190346103575780600319360112610357576103cb610e1d565b90602435906103d8610f42565b6103e3821515610ea6565b338452602094600b86528185209360018060a01b0381169485875287528383872054106105f7576104f69596338852600b8152838820868952815284848920549360098352610435868b2054946111c2565b89938a87821515806105ee575b610576575b9161048e91670de0b6b3a76400009361046287899a9b610fbb565b91338152600b89528d82822090825289522055338d52600b86528c8b8a822091528652888d2054610fc8565b04338b52600c8452868b20898c528452868b2055600683526104b382878c2054610fbb565b888b5260068452868b20556104ca82600354610fbb565b600355855163a9059cbb60e01b8152339181019182526020820192909252909788918291604090910190565b03818a895af195861561056c577f06cc7e90b4f2b554a9614b0caa84f909f3498c820ae47c731f490c28c07f7d3b94959661053f575b5082519485528401523392a36001815580f35b61055e90823d8411610565575b6105568183610ef2565b810190610f2a565b503861052c565b503d61054c565b83513d89823e3d90fd5b670de0b6b3a7640000610589848a610fc8565b04338352600c87528183208c845287528b8284205482116105ac575b5050610447565b87985091610462876105e061048e9694670de0b6b3a76400009896338752600c8d528587209087528c528486205490610fbb565b9a505050919350918b6105a5565b50871515610442565b5085606492519162461bcd60e51b8352820152601a60248201527f496e73756666696369656e74207374616b656420616d6f756e740000000000006044820152fd5b50346101ec57826003193601126101ec5760209250549051908152f35b5090346101ec5760603660031901126101ec57610671610e1d565b9060243560443592610681610e4e565b6001600160a01b03169384156107385781156106f55750916020917f641e49906554552c8c33d7e09e02d1270590f405bc1da0c7b99a9c2808abdd059385875260058452818720600160ff198254161790556007845281872055600a8352818187205560088352438187205551908152a280f35b606490602084519162461bcd60e51b8352820152601960248201527f496e76616c696420726577617264732070657220626c6f636b000000000000006044820152fd5b606490602084519162461bcd60e51b8352820152600d60248201526c24b73b30b634b2103a37b5b2b760991b6044820152fd5b50346101ec57816003193601126101ec57610784610e1d565b9160243590610791610f42565b61079c821515610ea6565b6001600160a01b038416808652600560209081528287205491949160ff16156109d4576107c8336113e4565b9160148310610993578351906323b872dd60e01b8252339082015230602482015284604482015281816064818b8a5af1801561098957966108a5917f6c86f3fd5118b3aa8bb4f389a617046de0a3d3d477de1a1673d227f802f616dc96979861096c575b50338952600b8352848920888a52835261084e87868b2054806108f857610f98565b338a52600b8452858a20898b528452858a2055338952600d8352848920888a52835283858a20556006835261088687868b2054610f98565b888a5260068452858a205561089d87600354610f98565b6003556111c2565b338752600b81528287208688528152670de0b6b3a76400006108d28489205460098452858a205490610fc8565b04338852600c825283882087895282528388205582519485528401523392a36001815580f35b600986528a8c898082205480610912575b50505050610f98565b610925670de0b6b3a76400009186610fc8565b0491338152600c8a528181208482528a52818120548311610947575b91610909565b61096293338252600c8b528282209082528a52205490610fbb565b508a38898e610941565b61098290843d8611610565576105568183610ef2565b503861082c565b84513d8a823e3d90fd5b60649184519162461bcd60e51b8352820152601860248201527f496e73756666696369656e742074727573742073636f726500000000000000006044820152fd5b606492519162461bcd60e51b8352820152600f60248201526e506f6f6c206e6f742061637469766560881b6044820152fd5b50503461035757816003193601126103575760015490516001600160a01b039091168152602090f35b50503461035757806003193601126103575780602092610a4d610e1d565b610a55610e38565b6001600160a01b039182168352600d865283832091168252845220549051908152f35b50503461035757806003193601126103575780602092610a96610e1d565b610a9e610e38565b6001600160a01b039182168352600b865283832091168252845220549051908152f35b505034610357578060031936011261035757602090610aef610ae1610e1d565b610ae9610e38565b90610ffb565b9051908152f35b50503461035757816003193601126103575760025490516001600160a01b039091168152602090f35b8334610b7c5780600319360112610b7c57610b38610e4e565b600180546001600160a01b0319811690915581906001600160a01b03167f8be0079c531659141344cd1fd0a4f28419497f9722a3daafe3b4186f6b6457e08280a380f35b80fd5b8281853461035757602092836003193601126101ec57610b9d610e1d565b90610ba6610e4e565b82516370a0823160e01b81523081830152916001600160a01b0390811691908684602481865afa938415610c8a579087949392918794610c51575b50600154865163a9059cbb60e01b815291166001600160a01b031691810191825260208201939093529194859283919082906040015b03925af1908115610c485750610c2b578280f35b81610c4192903d10610565576105568183610ef2565b5081808280f35b513d85823e3d90fd5b8581969295503d8311610c83575b610c698183610ef2565b81010312610c7f57925186939092610c17610be1565b8580fd5b503d610c5f565b85513d88823e3d90fd5b5050346103575760203660031901126103575790602091610cb3610e1d565b5051908152f35b5050346103575760203660031901126103575760209181906001600160a01b03610ce2610e1d565b1681526009845220549051908152f35b5050346103575760203660031901126103575760209181906001600160a01b03610d1a610e1d565b168152600a845220549051908152f35b5050346103575760203660031901126103575760209160ff9082906001600160a01b03610d55610e1d565b1681526005855220541690519015158152f35b50503461035757806003193601126103575780602092610d86610e1d565b610d8e610e38565b6001600160a01b039182168352600c865283832091168252845220549051908152f35b5050346103575760203660031901126103575760209181906001600160a01b03610dd9610e1d565b1681526006845220549051908152f35b849084346101ec5760203660031901126101ec576020926001600160a01b03610e10610e1d565b1681526007845220548152f35b600435906001600160a01b0382168203610e3357565b600080fd5b602435906001600160a01b0382168203610e3357565b6001546001600160a01b03163303610e6257565b606460405162461bcd60e51b815260206004820152602060248201527f4f776e61626c653a2063616c6c6572206973206e6f7420746865206f776e65726044820152fd5b15610ead57565b60405162461bcd60e51b815260206004820152601760248201527f416d6f756e74206d75737420626520706f7369746976650000000000000000006044820152606490fd5b90601f8019910116810190811067ffffffffffffffff821117610f1457604052565b634e487b7160e01b600052604160045260246000fd5b90816020910312610e3357518015158103610e335790565b600260005414610f53576002600055565b60405162461bcd60e51b815260206004820152601f60248201527f5265656e7472616e637947756172643a207265656e7472616e742063616c6c006044820152606490fd5b91908201809211610fa557565b634e487b7160e01b600052601160045260246000fd5b91908203918211610fa557565b81810292918115918404141715610fa557565b8115610fe5570490565b634e487b7160e01b600052601260045260246000fd5b9060018060a01b039182811692600090848252602091600b8352604091828220951694858252835281812054156111b957858152600b8352818120858252835281812054946009845282822054600885526110598484205443610fbb565b828452600686528484205490801515806111b0575b611111575b505091600a979593916110a3979593829681151580611108575b6110a7575b5050505050506102e891925061133b565b0490565b670de0b6b3a7640000916110ba91610fc8565b0493878352600c815283832082845281528383205485116110dc575b80611092565b6102e896506110fb95978352600c815283832091835252205490610fbb565b90508138808080806110d6565b5080151561108d565b600787528585205461112291610fc8565b7812725dd1d243aba0e75fe645cc4873f9e65afe688c928e1f21811115806111a7575b1561107357670de0b6b3a764000090818102918183041490151715611193576110a39896949261117e600a9b9997959361118493610fdb565b90610f98565b91939597819395979950611073565b634e487b7160e01b85526011600452602485fd5b50811515611145565b5081151561106e565b94505050505090565b60018060a01b03166000908082526020600881526040916111e68385205443610fbb565b81855260068352838520549080151580611332575b1561132757600784528486205461121191610fc8565b7812725dd1d243aba0e75fe645cc4873f9e65afe688c928e1f2181116112e357670de0b6b3a7640000908181029181830414901517156112cf579061125591610fdb565b81855260098352838520548119811161128b57600893929161127691610f98565b81865260098352848620555b84525243912055565b845162461bcd60e51b815260048101859052601c60248201527f416363756d756c617465642072657761726473206f766572666c6f77000000006044820152606490fd5b634e487b7160e01b86526011600452602486fd5b845162461bcd60e51b815260048101859052601c60248201527f526577617264732063616c63756c6174696f6e206f766572666c6f77000000006044820152606490fd5b505090600891611282565b508115156111fb565b600254604051635e09eea160e01b81526001600160a01b0392831660048201529160209183916024918391165afa600091816113b1575b5061137d5750600a90565b600a810290808204600a1490151715610fa55760649004600a8101809111610fa557600a8110156113ae5750600a90565b90565b90916020823d82116113dc575b816113cb60209383610ef2565b81010312610b7c5750519038611372565b3d91506113be565b600254604051635e09eea160e01b81526001600160a01b0392831660048201529160209183916024918391165afa60009181611426575b506113ae5750603290565b90916020823d8211611451575b8161144060209383610ef2565b81010312610b7c575051903861141b565b3d915061143356fea26469706673582212207e2149d1249a41a0914baa96130fa2a46db3d50af9f99269b14dca7d9efe6fa564736f6c63430008130033",
  "linkReferences": {},
  "deployedLinkReferences": {}
}