{
  "_format": "hh-sol-artifact-1",
  "contractName": "Bridge",
  "sourceName": "contracts/Bridge.sol",
  "abi": [
    {
      "inputs": [
        {
          "internalType": "address",
          "name": "_trustEngine",
          "type": "address"
        }
      ],
      "stateMutability": "nonpayable",
      "type": "constructor"
    },
    {
      "anonymous": false,
      "inputs": [
        {
          "indexed": true,
          "internalType": "address",
          "name": "previousOwner",
          "type": "address"
        },
        {
          "indexed": true,
          "internalType": "address",
          "name": "newOwner",
          "type": "address"
        }
      ],
      "name": "OwnershipTransferred",
      "type": "event"
    },
    {
      "anonymous": false,
      "inputs": [
        {
          "indexed": true,
          "internalType": "bytes32",
          "name": "transferId",
          "type": "bytes32"
        },
        {
          "indexed": true,
          "internalType": "address",
          "name": "recipient",
          "type": "address"
        },
        {
          "indexed": false,
          "internalType": "uint256",
          "name": "amount",
          "type": "uint256"
        }
      ],
      "name": "TransferCompleted",
      "type": "event"
    },
    {
      "anonymous": false,
      "inputs": [
        {
          "indexed": true,
          "internalType": "bytes32",
          "name": "transferId",
          "type": "bytes32"
        },
        {
          "indexed": true,
          "internalType": "address",
          "name": "sender",
          "type": "address"
        },
        {
          "indexed": true,
          "internalType": "address",
          "name": "recipient",
          "type": "address"
        },
        {
          "indexed": false,
          "internalType": "uint256",
          "name": "amount",
          "type": "uint256"
        },
        {
          "indexed": false,
          "internalType": "uint256",
          "name": "sourceChainId",
          "type": "uint256"
        },
        {
          "indexed": false,
          "internalType": "uint256",
          "name": "targetChainId",
          "type": "uint256"
        }
      ],
      "name": "TransferInitiated",
      "type": "event"
    },
    {
      "anonymous": false,
      "inputs": [
        {
          "indexed": true,
          "internalType": "bytes32",
          "name": "transferId",
          "type": "bytes32"
        },
        {
          "indexed": true,
          "internalType": "address",
          "name": "validator",
          "type": "address"
        },
        {
          "indexed": false,
          "internalType": "uint256",
          "name": "trustScore",
          "type": "uint256"
        }
      ],
      "name": "TransferValidated",
      "type": "event"
    },
    {
      "anonymous": false,
      "inputs": [
        {
          "indexed": true,
          "internalType": "address",
          "name": "validator",
          "type": "address"
        },
        {
          "indexed": false,
          "internalType": "uint256",
          "name": "trustScore",
          "type": "uint256"
        }
      ],
      "name": "ValidatorAdded",
      "type": "event"
    },
    {
      "anonymous": false,
      "inputs": [
        {
          "indexed": true,
          "internalType": "address",
          "name": "validator",
          "type": "address"
        }
      ],
      "name": "ValidatorRemoved",
      "type": "event"
    },
    {
      "inputs": [
        {
          "internalType": "address",
          "name": "validator",
          "type": "address"
        }
      ],
      "name": "addValidator",
      "outputs": [],
      "stateMutability": "nonpayable",
      "type": "function"
    },
    {
      "inputs": [
        {
          "internalType": "bytes32",
          "name": "transferId",
          "type": "bytes32"
        },
        {
          "internalType": "address",
          "name": "recipient",
          "type": "address"
        },
        {
          "internalType": "uint256",
          "name": "amount",
          "type": "uint256"
        }
      ],
      "name": "completeTransfer",
      "outputs": [],
      "stateMutability": "nonpayable",
      "type": "function"
    },
    {
      "inputs": [
        {
          "internalType": "address",
          "name": "validator",
          "type": "address"
        }
      ],
      "name": "getValidatorTrustScore",
      "outputs": [
        {
          "internalType": "uint256",
          "name": "",
          "type": "uint256"
        }
      ],
      "stateMutability": "view",
      "type": "function"
    },
    {
      "inputs": [
        {
          "internalType": "address",
          "name": "recipient",
          "type": "address"
        },
        {
          "internalType": "uint256",
          "name": "amount",
          "type": "uint256"
        },
        {
          "internalType": "uint256",
          "name": "targetChainId",
          "type": "uint256"
        }
      ],
      "name": "initiateTransfer",
      "outputs": [],
      "stateMutability": "nonpayable",
      "type": "function"
    },
    {
      "inputs": [
        {
          "internalType": "bytes32",
          "name": "transferId",
          "type": "bytes32"
        }
      ],
      "name": "isTransferProcessed",
      "outputs": [
        {
          "internalType": "bool",
          "name": "",
          "type": "bool"
        }
      ],
      "stateMutability": "view",
      "type": "function"
    },
    {
      "inputs": [
        {
          "internalType": "address",
          "name": "validator",
          "type": "address"
        }
      ],
      "name": "isValidator",
      "outputs": [
        {
          "internalType": "bool",
          "name": "",
          "type": "bool"
        }
      ],
      "stateMutability": "view",
      "type": "function"
    },
    {
      "inputs": [],
      "name": "minValidatorTrustScore",
      "outputs": [
        {
          "internalType": "uint256",
          "name": "",
          "type": "uint256"
        }
      ],
      "stateMutability": "view",
      "type": "function"
    },
    {
      "inputs": [],
      "name": "owner",
      "outputs": [
        {
          "internalType": "address",
          "name": "",
          "type": "address"
        }
      ],
      "stateMutability": "view",
      "type": "function"
    },
    {
      "inputs": [
        {
          "internalType": "bytes32",
          "name": "",
          "type": "bytes32"
        }
      ],
      "name": "processedTransfers",
      "outputs": [
        {
          "internalType": "bool",
          "name": "",
          "type": "bool"
        }
      ],
      "stateMutability": "view",
      "type": "function"
    },
    {
      "inputs": [
        {
          "internalType": "address",
          "name": "validator",
          "type": "address"
        }
      ],
      "name": "removeValidator",
      "outputs": [],
      "stateMutability": "nonpayable",
      "type": "function"
    },
    {
      "inputs": [],
      "name": "renounceOwnership",
      "outputs": [],
      "stateMutability": "nonpayable",
      "type": "function"
    },
    {
      "inputs": [],
      "name": "requiredValidations",
      "outputs": [
        {
          "internalType": "uint256",
          "name": "",
          "type": "uint256"
        }
      ],
      "stateMutability": "view",
      "type": "function"
    },
    {
      "inputs": [
        {
          "internalType": "uint256",
          "name": "newScore",
          "type": "uint256"
        }
      ],
      "name": "setMinValidatorTrustScore",
      "outputs": [],
      "stateMutability": "nonpayable",
      "type": "function"
    },
    {
      "inputs": [
        {
          "internalType": "uint256",
          "name": "newCount",
          "type": "uint256"
        }
      ],
      "name": "setRequiredValidations",
      "outputs": [],
      "stateMutability": "nonpayable",
      "type": "function"
    },
    {
      "inputs": [],
      "name": "transferCount",
      "outputs": [
        {
          "internalType": "uint256",
          "name": "",
          "type": "uint256"
        }
      ],
      "stateMutability": "view",
      "type": "function"
    },
    {
      "inputs": [
        {
          "internalType": "address",
          "name": "newOwner",
          "type": "address"
        }
      ],
      "name": "transferOwnership",
      "outputs": [],
      "stateMutability": "nonpayable",
      "type": "function"
    },
    {
      "inputs": [],
      "name": "trustEngine",
      "outputs": [
        {
          "internalType": "contract TrustEngine",
          "name": "",
          "type": "address"
        }
      ],
      "stateMutability": "view",
      "type": "function"
    },
    {
      "inputs": [
        {
          "internalType": "bytes32",
          "name": "transferId",
          "type": "bytes32"
        },
        {
          "internalType": "address",
          "name": "sender",
          "type": "address"
        },
        {
          "internalType": "address",
          "name": "recipient",
          "type": "address"
        },
        {
          "internalType": "uint256",
          "name": "amount",
          "type": "uint256"
        },
        {
          "internalType": "uint256",
          "name": "sourceChainId",
          "type": "uint256"
        },
        {
          "internalType": "uint256",
          "name": "targetChainId",
          "type": "uint256"
        }
      ],
      "name": "validateTransfer",
      "outputs": [],
      "stateMutability": "nonpayable",
      "type": "function"
    },
    {
      "inputs": [
        {
          "internalType": "address",
          "name": "",
          "type": "address"
        }
      ],
      "name": "validatorTrustScores",
      "outputs": [
        {
          "internalType": "uint256",
          "name": "",
          "type": "uint256"
        }
      ],
      "stateMutability": "view",
      "type": "function"
    },
    {
      "inputs": [
        {
          "internalType": "address",
          "name": "",
          "type": "address"
        }
      ],
      "name": "validators",
      "outputs": [
        {
          "internalType": "bool",
          "name": "",
          "type": "bool"
        }
      ],
      "stateMutability": "view",
      "type": "function"
    }
  ],
  "bytecode": "0x6080346100b657601f610f2a38819003918201601f19168301916001600160401b038311848410176100bb578084926020946040528339810103126100b657516001600160a01b0390818116908190036100b657600160005560015460018060a01b0319903382821617600155604051933391167f8be0079c531659141344cd1fd0a4f28419497f9722a3daafe3b4186f6b6457e0600080a3603260065560036007556002541617600255610e5890816100d28239f35b600080fd5b634e487b7160e01b600052604160045260246000fdfe6080604081815260048036101561001557600080fd5b600092833560e01c9081630d17162014610c48575080630de1e2b414610c2957806316ed263914610bb05780633841f2ee146107825780633f90c27f14610acc5783816340a141ff14610a49575080634d238c8e146108ad5780635ce65b1d1461088b578063715018a61461082b57806377aa980d146108025780637b338e9a146107e35780638da5cb5b146107ba578063d67aa98414610782578063dd910d7514610756578063e3d33fc914610733578063e943382f1461043a578063f2fde38b14610374578063f624bcf21461016b578063fa52c7d8146101405763facd743b1461010157600080fd5b3461013c57602036600319011261013c5760209260ff918391906001600160a01b0361012b610c73565b168252855220541690519015158152f35b8280fd5b503461013c57602036600319011261013c5760209260ff918391906001600160a01b0361012b610c73565b50903461013c5760c036600319011261013c57813590610189610c8e565b604435936001600160a01b039291838616860361037057602495338852602080958482526101bc60ff878c205416610d98565b878a52600382526101d360ff878c20541615610dd6565b600254168551988980926329afd35360e01b825233888301525afa968715610366578897610333575b5060065487106102e557835191858301916001600160601b0319809260601b16835260601b1660348301526064356048830152608435606883015260a43560888301526088825260c082019282841067ffffffffffffffff8511176102d25750828452815190208503610298575050907f76e9ba26e6ae45258e118ef69759fe40c05cad1c4ba0aabb62fa86a38a6309e591519384523393a380f35b9074092dcecc2d8d2c840e8e4c2dce6cccae440d0c2e6d605b1b6101046064938662461bcd60e51b855260c4820152601560e48201520152fd5b634e487b7160e01b895260419052602488fd5b835162461bcd60e51b8152808401869052602260248201527f496e73756666696369656e742076616c696461746f722074727573742073636f604482015261726560f01b6064820152608490fd5b9096508481813d831161035f575b61034b8183610cfc565b8101031261035b575195386101fc565b8780fd5b503d610341565b84513d8a823e3d90fd5b8680fd5b503461013c57602036600319011261013c5761038e610c73565b90610397610ca4565b6001600160a01b039182169283156103e8575050600154826001600160601b0360a01b821617600155167f8be0079c531659141344cd1fd0a4f28419497f9722a3daafe3b4186f6b6457e08380a380f35b906020608492519162461bcd60e51b8352820152602660248201527f4f776e61626c653a206e6577206f776e657220697320746865207a65726f206160448201526564647265737360d01b6064820152fd5b503461013c57606036600319011261013c57610454610c73565b60249283359160449081359260028854146106f357600288556001600160a01b03828116979088156106be57861561067d5746861461063c576002541693825180956329afd35360e01b8252338a830152818460209889935afa908115610632578b91610600575b5060146104ca911015610d34565b868351916323b872dd60e01b8352338a840152308484015282015284816064818d335af180156105f6576105c9575b5060085460001981146105b757600101806008558251948501933360601b85526001600160601b03199060601b16603486015286604886015246606886015285608886015260a885015260a8845260e084019684881067ffffffffffffffff8911176105a65750509085610120939252815190209385524661010082015201527f1f5173ee3c846c5ec1973a14f3d9176b4204cc73f6be7ecdc3bf3588adc592cd60603393a46001815580f35b634e487b7160e01b8a526041905288fd5b50634e487b7160e01b89526011875288fd5b6105e890853d87116105ef575b6105e08183610cfc565b810190610d80565b50386104f9565b503d6105d6565b83513d8c823e3d90fd5b90508581813d831161062b575b6106178183610cfc565b81010312610627575160146104bc565b8a80fd5b503d61060d565b84513d8d823e3d90fd5b825162461bcd60e51b81526020818a0152601d818401527f43616e6e6f74207472616e7366657220746f2073616d6520636861696e00000081870152606490fd5b825162461bcd60e51b81526020818a01526017818401527f416d6f756e74206d75737420626520706f73697469766500000000000000000081870152606490fd5b825162461bcd60e51b81526020818a015260118184015270125b9d985b1a59081c9958da5c1a595b9d607a1b81870152606490fd5b5162461bcd60e51b8152602081870152601f818801527f5265656e7472616e637947756172643a207265656e7472616e742063616c6c0081840152606490fd5b5050346107525781600319360112610752576020906008549051908152f35b5080fd5b503461013c57602036600319011261013c578160209360ff923581526003855220541690519015158152f35b5050346107525760203660031901126107525760209181906001600160a01b036107aa610c73565b1681526005845220549051908152f35b50503461075257816003193601126107525760015490516001600160a01b039091168152602090f35b5050346107525781600319360112610752576020906006549051908152f35b50503461075257816003193601126107525760025490516001600160a01b039091168152602090f35b8334610888578060031936011261088857610844610ca4565b600180546001600160a01b0319811690915581906001600160a01b03167f8be0079c531659141344cd1fd0a4f28419497f9722a3daafe3b4186f6b6457e08280a380f35b80fd5b838234610752576020366003190112610752576108a6610ca4565b3560065580f35b503461013c5760209081600319360112610a45576108c9610c73565b926108d2610ca4565b6001600160a01b03938416938415610a0f5784865282845260ff82872054166109d75790836024949392600254168251958680926329afd35360e01b825289878301525afa9182156109cd57869261097a575b7f9000b209805850a65058f21361a9978cb30f1413ed555553ab52a59b440b5d999450610956600654841015610d34565b8587528352808620600160ff1982541617905560058352818187205551908152a280f35b91508284813d83116109c6575b6109918183610cfc565b810103126109c2577f9000b209805850a65058f21361a9978cb30f1413ed555553ab52a59b440b5d99935191610925565b8580fd5b503d610987565b81513d88823e3d90fd5b5091606492519162461bcd60e51b8352820152601360248201527220b63932b0b23c9030903b30b634b230ba37b960691b6044820152fd5b5091606492519162461bcd60e51b8352820152601160248201527024b73b30b634b2103b30b634b230ba37b960791b6044820152fd5b8380fd5b8281853461075257602036600319011261075257610a65610c73565b610a6d610ca4565b60018060a01b03169283835280602052610a8c60ff8385205416610d98565b83835260205280822060ff19815416905560056020528120557fe1434e25d6611e0db941968fdc97811c982ac1602e951637d206f5fdda9dd8f18280a280f35b503461013c57606036600319011261013c578035610ae8610c8e565b92604435610af4610ca4565b82865260209160038352610b0e60ff828920541615610dd6565b83875260038352808720805460ff19166001179055805163a9059cbb60e01b81526001600160a01b039096169486018590526024860182905282866044818a335af1958615610ba6577f6d4791343e7d975dfa9cb401539061386ebe3d9d27e130b252cbf975ab5a7c52949596610b89575b5051908152a380f35b610b9f90843d86116105ef576105e08183610cfc565b5038610b80565b81513d89823e3d90fd5b503461013c57602036600319011261013c57803591610bcd610ca4565b8215610bdb57505060075580f35b906020608492519162461bcd60e51b8352820152602260248201527f4d7573742072657175697265206174206c6561737420312076616c696461746960448201526137b760f11b6064820152fd5b5050346107525781600319360112610752576020906007549051908152f35b9291905034610a45576020366003190112610a45573583526003602090815292205460ff1615158152f35b600435906001600160a01b0382168203610c8957565b600080fd5b602435906001600160a01b0382168203610c8957565b6001546001600160a01b03163303610cb857565b606460405162461bcd60e51b815260206004820152602060248201527f4f776e61626c653a2063616c6c6572206973206e6f7420746865206f776e65726044820152fd5b90601f8019910116810190811067ffffffffffffffff821117610d1e57604052565b634e487b7160e01b600052604160045260246000fd5b15610d3b57565b60405162461bcd60e51b815260206004820152601860248201527f496e73756666696369656e742074727573742073636f726500000000000000006044820152606490fd5b90816020910312610c8957518015158103610c895790565b15610d9f57565b60405162461bcd60e51b815260206004820152600f60248201526e2737ba1030903b30b634b230ba37b960891b6044820152606490fd5b15610ddd57565b60405162461bcd60e51b815260206004820152601a60248201527f5472616e7366657220616c72656164792070726f6365737365640000000000006044820152606490fdfea2646970667358221220de71d518cfd2d50e7d09bdea34ea74b7ab3d61ab1989da55bb4238b943d6fee964736f6c63430008130033",
  "linkReferences": {},
  "deployedLinkReferences": {}
}