{
  "_format": "hh-sol-artifact-1",
  "contractName": "Governance",
  "sourceName": "contracts/Governance.sol",
  "abi": [
    {
      "inputs": [
        {
          "internalType": "address",
          "name": "_trustEngine",
          "type": "address"
        }
      ],
      "stateMutability": "nonpayable",
      "type": "constructor"
    },
    {
      "anonymous": false,
      "inputs": [
        {
          "indexed": true,
          "internalType": "address",
          "name": "previousOwner",
          "type": "address"
        },
        {
          "indexed": true,
          "internalType": "address",
          "name": "newOwner",
          "type": "address"
        }
      ],
      "name": "OwnershipTransferred",
      "type": "event"
    },
    {
      "anonymous": false,
      "inputs": [
        {
          "indexed": true,
          "internalType": "uint256",
          "name": "proposalId",
          "type": "uint256"
        },
        {
          "indexed": true,
          "internalType": "address",
          "name": "proposer",
          "type": "address"
        },
        {
          "indexed": false,
          "internalType": "string",
          "name": "title",
          "type": "string"
        }
      ],
      "name": "ProposalCreated",
      "type": "event"
    },
    {
      "anonymous": false,
      "inputs": [
        {
          "indexed": true,
          "internalType": "uint256",
          "name": "proposalId",
          "type": "uint256"
        }
      ],
      "name": "ProposalExecuted",
      "type": "event"
    },
    {
      "anonymous": false,
      "inputs": [
        {
          "indexed": true,
          "internalType": "uint256",
          "name": "proposalId",
          "type": "uint256"
        },
        {
          "indexed": true,
          "internalType": "address",
          "name": "voter",
          "type": "address"
        },
        {
          "indexed": false,
          "internalType": "bool",
          "name": "support",
          "type": "bool"
        },
        {
          "indexed": false,
          "internalType": "uint256",
          "name": "weight",
          "type": "uint256"
        }
      ],
      "name": "VoteCast",
      "type": "event"
    },
    {
      "inputs": [],
      "name": "QUORUM",
      "outputs": [
        {
          "internalType": "uint256",
          "name": "",
          "type": "uint256"
        }
      ],
      "stateMutability": "view",
      "type": "function"
    },
    {
      "inputs": [],
      "name": "VOTING_PERIOD",
      "outputs": [
        {
          "internalType": "uint256",
          "name": "",
          "type": "uint256"
        }
      ],
      "stateMutability": "view",
      "type": "function"
    },
    {
      "inputs": [
        {
          "internalType": "string",
          "name": "title",
          "type": "string"
        }
      ],
      "name": "createProposal",
      "outputs": [],
      "stateMutability": "nonpayable",
      "type": "function"
    },
    {
      "inputs": [
        {
          "internalType": "uint256",
          "name": "proposalId",
          "type": "uint256"
        }
      ],
      "name": "executeProposal",
      "outputs": [],
      "stateMutability": "nonpayable",
      "type": "function"
    },
    {
      "inputs": [
        {
          "internalType": "uint256",
          "name": "proposalId",
          "type": "uint256"
        }
      ],
      "name": "getProposal",
      "outputs": [
        {
          "internalType": "address",
          "name": "proposer",
          "type": "address"
        },
        {
          "internalType": "string",
          "name": "title",
          "type": "string"
        },
        {
          "internalType": "uint256",
          "name": "startTime",
          "type": "uint256"
        },
        {
          "internalType": "uint256",
          "name": "endTime",
          "type": "uint256"
        },
        {
          "internalType": "uint256",
          "name": "forVotes",
          "type": "uint256"
        },
        {
          "internalType": "uint256",
          "name": "againstVotes",
          "type": "uint256"
        },
        {
          "internalType": "bool",
          "name": "executed",
          "type": "bool"
        },
        {
          "internalType": "bool",
          "name": "canceled",
          "type": "bool"
        }
      ],
      "stateMutability": "view",
      "type": "function"
    },
    {
      "inputs": [
        {
          "internalType": "uint256",
          "name": "proposalId",
          "type": "uint256"
        },
        {
          "internalType": "address",
          "name": "user",
          "type": "address"
        }
      ],
      "name": "getUserVote",
      "outputs": [
        {
          "internalType": "bool",
          "name": "support",
          "type": "bool"
        }
      ],
      "stateMutability": "view",
      "type": "function"
    },
    {
      "inputs": [
        {
          "internalType": "uint256",
          "name": "proposalId",
          "type": "uint256"
        },
        {
          "internalType": "address",
          "name": "user",
          "type": "address"
        }
      ],
      "name": "hasUserVoted",
      "outputs": [
        {
          "internalType": "bool",
          "name": "",
          "type": "bool"
        }
      ],
      "stateMutability": "view",
      "type": "function"
    },
    {
      "inputs": [
        {
          "internalType": "uint256",
          "name": "",
          "type": "uint256"
        },
        {
          "internalType": "address",
          "name": "",
          "type": "address"
        }
      ],
      "name": "hasVoted",
      "outputs": [
        {
          "internalType": "bool",
          "name": "",
          "type": "bool"
        }
      ],
      "stateMutability": "view",
      "type": "function"
    },
    {
      "inputs": [],
      "name": "owner",
      "outputs": [
        {
          "internalType": "address",
          "name": "",
          "type": "address"
        }
      ],
      "stateMutability": "view",
      "type": "function"
    },
    {
      "inputs": [
        {
          "internalType": "uint256",
          "name": "",
          "type": "uint256"
        }
      ],
      "name": "proposalAgainstVotes",
      "outputs": [
        {
          "internalType": "uint256",
          "name": "",
          "type": "uint256"
        }
      ],
      "stateMutability": "view",
      "type": "function"
    },
    {
      "inputs": [
        {
          "internalType": "uint256",
          "name": "",
          "type": "uint256"
        }
      ],
      "name": "proposalCanceled",
      "outputs": [
        {
          "internalType": "bool",
          "name": "",
          "type": "bool"
        }
      ],
      "stateMutability": "view",
      "type": "function"
    },
    {
      "inputs": [],
      "name": "proposalCount",
      "outputs": [
        {
          "internalType": "uint256",
          "name": "",
          "type": "uint256"
        }
      ],
      "stateMutability": "view",
      "type": "function"
    },
    {
      "inputs": [
        {
          "internalType": "uint256",
          "name": "",
          "type": "uint256"
        }
      ],
      "name": "proposalEndTime",
      "outputs": [
        {
          "internalType": "uint256",
          "name": "",
          "type": "uint256"
        }
      ],
      "stateMutability": "view",
      "type": "function"
    },
    {
      "inputs": [
        {
          "internalType": "uint256",
          "name": "",
          "type": "uint256"
        }
      ],
      "name": "proposalExecuted",
      "outputs": [
        {
          "internalType": "bool",
          "name": "",
          "type": "bool"
        }
      ],
      "stateMutability": "view",
      "type": "function"
    },
    {
      "inputs": [
        {
          "internalType": "uint256",
          "name": "",
          "type": "uint256"
        }
      ],
      "name": "proposalForVotes",
      "outputs": [
        {
          "internalType": "uint256",
          "name": "",
          "type": "uint256"
        }
      ],
      "stateMutability": "view",
      "type": "function"
    },
    {
      "inputs": [
        {
          "internalType": "uint256",
          "name": "",
          "type": "uint256"
        }
      ],
      "name": "proposalProposer",
      "outputs": [
        {
          "internalType": "address",
          "name": "",
          "type": "address"
        }
      ],
      "stateMutability": "view",
      "type": "function"
    },
    {
      "inputs": [
        {
          "internalType": "uint256",
          "name": "",
          "type": "uint256"
        }
      ],
      "name": "proposalStartTime",
      "outputs": [
        {
          "internalType": "uint256",
          "name": "",
          "type": "uint256"
        }
      ],
      "stateMutability": "view",
      "type": "function"
    },
    {
      "inputs": [
        {
          "internalType": "uint256",
          "name": "",
          "type": "uint256"
        }
      ],
      "name": "proposalTitle",
      "outputs": [
        {
          "internalType": "string",
          "name": "",
          "type": "string"
        }
      ],
      "stateMutability": "view",
      "type": "function"
    },
    {
      "inputs": [],
      "name": "renounceOwnership",
      "outputs": [],
      "stateMutability": "nonpayable",
      "type": "function"
    },
    {
      "inputs": [
        {
          "internalType": "address",
          "name": "newOwner",
          "type": "address"
        }
      ],
      "name": "transferOwnership",
      "outputs": [],
      "stateMutability": "nonpayable",
      "type": "function"
    },
    {
      "inputs": [],
      "name": "trustEngine",
      "outputs": [
        {
          "internalType": "contract TrustEngine",
          "name": "",
          "type": "address"
        }
      ],
      "stateMutability": "view",
      "type": "function"
    },
    {
      "inputs": [
        {
          "internalType": "uint256",
          "name": "proposalId",
          "type": "uint256"
        },
        {
          "internalType": "bool",
          "name": "support",
          "type": "bool"
        }
      ],
      "name": "vote",
      "outputs": [],
      "stateMutability": "nonpayable",
      "type": "function"
    },
    {
      "inputs": [
        {
          "internalType": "uint256",
          "name": "",
          "type": "uint256"
        },
        {
          "internalType": "address",
          "name": "",
          "type": "address"
        }
      ],
      "name": "voteSupport",
      "outputs": [
        {
          "internalType": "bool",
          "name": "",
          "type": "bool"
        }
      ],
      "stateMutability": "view",
      "type": "function"
    }
  ],
  "bytecode": "0x6080346100ac57601f61114138819003918201601f19168301916001600160401b038311848410176100b1578084926020946040528339810103126100ac57516001600160a01b0390818116908190036100ac57600160005560015460018060a01b0319903382821617600155604051933391167f8be0079c531659141344cd1fd0a4f28419497f9722a3daafe3b4186f6b6457e0600080a3600254161760025561107990816100c88239f35b600080fd5b634e487b7160e01b600052604160045260246000fdfe608060408181526004908136101561001657600080fd5b600092833560e01c90816303c7881a14610d2d575080630d61b51914610bc2578063103616e814610b955780631328323b14610b4e578063143489d014610b1b5780632e80d9b614610afe57806336bb004714610abe57806343859632146101f657806349c2a1a6146107a45780636e18113c14610777578063715018a61461071a57806377aa980d146106f15780638da5cb5b146106c857806394616451146106a0578063a7e2286014610678578063b1610d7e1461065a578063c7f758a814610587578063c8bb4dd51461055f578063c9d27afe14610288578063d00a9f0614610260578063da35c6641461023d578063dc296ae1146101f65763f2fde38b1461012157600080fd5b346101f25760203660031901126101f2576001600160a01b038235818116939192908490036101ee57610152610f3d565b831561019c575050600154826bffffffffffffffffffffffff60a01b821617600155167f8be0079c531659141344cd1fd0a4f28419497f9722a3daafe3b4186f6b6457e08380a380f35b906020608492519162461bcd60e51b8352820152602660248201527f4f776e61626c653a206e6577206f776e657220697320746865207a65726f206160448201526564647265737360d01b6064820152fd5b8480fd5b8280fd5b5090346101f257816003193601126101f2578160209360ff92610217610dca565b90358252600b86528282206001600160a01b039091168252855220549151911615158152f35b83823461025c578160031936011261025c57602090600d549051908152f35b5080fd5b5090346101f25760203660031901126101f25760209282913581526006845220549051908152f35b50346101f257806003193601126101f25781359060249081358015159485820361044d5784151580610553575b6102be90611004565b8487526020906005825283882054421061051e57858852600682528388205442116104ef578588526009825260ff848920541615806104dd575b1561049257858852600b8252838820338952825260ff84892054166104625760025484516329afd35360e01b815233928101929092529094829186919082906001600160a01b03165afa918215610458578792610405575b7fcbdf6214089cba887ecbf35a0b6a734589959c9763342c756bb2a80ca2bc9f6e94506103806014841015610f95565b858852600b8252838820338952825283882060ff1990600182825416179055868952600c8352848920338a5283528489209081541660ff89161790556000146103e957848752600781528287206103d8838254610fe1565b90555b82519586528501523393a380f35b848752600881528287206103fe838254610fe1565b90556103db565b91508084813d8311610451575b61041c8183610e1f565b8101031261044d577fcbdf6214089cba887ecbf35a0b6a734589959c9763342c756bb2a80ca2bc9f6e935191610350565b8680fd5b503d610412565b83513d89823e3d90fd5b600d8560649386519362461bcd60e51b85528401528201526c105b1c9958591e481d9bdd1959609a1b6044820152fd5b60228560849386519362461bcd60e51b85528401528201527f50726f706f73616c20616c72656164792065786563757465642f63616e63656c604482015261195960f21b6064820152fd5b50600a825260ff8489205416156102f8565b600c8560649386519362461bcd60e51b85528401528201526b159bdd1a5b99c8195b99195960a21b6044820152fd5b60128560649386519362461bcd60e51b855284015282015271159bdd1a5b99c81b9bdd081cdd185c9d195960721b6044820152fd5b50600d548511156102b5565b5090346101f25760203660031901126101f25760209282913581526007845220549051908152f35b50346101f25760209283600319360112610657578235908115158061064b575b6105b090611004565b8181526003855260018060a01b0383822054169385526105d1838220610e57565b918152600585528281205460068652838220546007875284832054906008885285842054926009895261062660ff8881818920541697600a8d522054169688519a8b9a8b5261010080918c01528a0190610efd565b968801526060870152608086015260a0850152151560c0840152151560e08301520390f35b50600d548211156105a7565b80fd5b83823461025c578160031936011261025c57602090516203f4808152f35b5090346101f25760203660031901126101f25760209282913581526008845220549051908152f35b5090346101f25760203660031901126101f25760209282913581526005845220549051908152f35b83823461025c578160031936011261025c5760015490516001600160a01b039091168152602090f35b83823461025c578160031936011261025c5760025490516001600160a01b039091168152602090f35b8334610657578060031936011261065757610733610f3d565b600180546001600160a01b0319811690915581906001600160a01b03167f8be0079c531659141344cd1fd0a4f28419497f9722a3daafe3b4186f6b6457e08280a380f35b5090346101f25760203660031901126101f2578160209360ff92358152600a855220541690519015158152f35b5090346101f25760209182600319360112610aba5781359067ffffffffffffffff92838311610ab65736602384011215610ab65782810135848111610aa35782519387601f19916107fc8984601f8701160188610e1f565b838752602493368582840101116101f25780858b9301838a013787010152845115610a715760025484516329afd35360e01b815233858201529088908290859082906001600160a01b03165afa908115610a67578991610a35575b50601e610865911015610f95565b600d5460001996878214610a235760018092019788600d55888b5260038a52868b20336bffffffffffffffffffffffff60a01b825416179055858a52868b20938851928311610a11576108b88554610de5565b601f81116109c9575b508a90601f84116001146109685750829383918d9461095d575b501b9260031b1c19161790555b8487526005865242838820556203f48042019182421161094c57505083865260068552818620555183815233937f7585f467599d0f008985f231af99293be388626ac16ca59505c2f8f88969cd639282916109469190830190610efd565b0390a380f35b634e487b7160e01b88526011905286fd5b8a01519350386108db565b858d528b8d20929190849081168e8e888e5b8484106109b0575050505010610998575b505050811b0190556108e8565b8901519060f88460031b161c1916905538808061098b565b86015188559096019593840193879350018e888e61097a565b858d528b8d20601f850160051c8101918d8610610a07575b601f0160051c019085908e5b8382106109fc575050506108c1565b81550185908e6109ed565b90915081906109e1565b634e487b7160e01b8c5260418752858cfd5b634e487b7160e01b8a5260118552838afd5b90508781813d8311610a60575b610a4c8183610e1f565b81010312610a5c5751601e610857565b8880fd5b503d610a42565b85513d8b823e3d90fd5b50600e9086606494519362461bcd60e51b85528401528201526d151a5d1b19481c995c5d5a5c995960921b6044820152fd5b634e487b7160e01b875260418252602487fd5b8580fd5b8380fd5b5090346101f25760203660031901126101f25781610afa9382610ae79335825260205220610e57565b9051918291602083526020830190610efd565b0390f35b83823461025c578160031936011261025c57602090516103e88152f35b5090346101f25760203660031901126101f25735825260036020908152918190205490516001600160a01b039091168152f35b5090346101f257816003193601126101f2578160209360ff92610b6f610dca565b90358252600c86528282206001600160a01b039091168252855220549151911615158152f35b5090346101f25760203660031901126101f2578160209360ff923581526009855220541690519015158152f35b50346101f257602080600319360112610aba57823592610be0610f3d565b83151580610d21575b610bf290611004565b8385526006825282852054421115610ced578385526009825260ff8386205416610cac57838552600782526103e8610c3584872054600885528588205490610fe1565b10610c765750828452600990528220805460ff191660011790557f712ae1383f79ac853f8d882153778e0260ef8f03b504e2866e0593e04d2b291f8280a280f35b915162461bcd60e51b8152918201526012602482015271145d5bdc9d5b481b9bdd081c995858da195960721b6044820152606490fd5b915162461bcd60e51b815291820152601960248201527f50726f706f73616c20616c7265616479206578656375746564000000000000006044820152606490fd5b915162461bcd60e51b815291820152601060248201526f159bdd1a5b99c81b9bdd08195b99195960821b6044820152606490fd5b50600d54841115610be9565b8491503461025c578260031936011261025c578335610d4a610dca565b91818452602095600b87528585209360018060a01b031693848652875260ff868620541615610d9557505091839160ff938252600c8652828220908252855220541690519015158152f35b62461bcd60e51b825281018690526012602482015271155cd95c881a185cc81b9bdd081d9bdd195960721b6044820152606490fd5b602435906001600160a01b0382168203610de057565b600080fd5b90600182811c92168015610e15575b6020831014610dff57565b634e487b7160e01b600052602260045260246000fd5b91607f1691610df4565b90601f8019910116810190811067ffffffffffffffff821117610e4157604052565b634e487b7160e01b600052604160045260246000fd5b9060405191826000825492610e6b84610de5565b908184526001948581169081600014610eda5750600114610e97575b5050610e9592500383610e1f565b565b9093915060005260209081600020936000915b818310610ec2575050610e9593508201013880610e87565b85548884018501529485019487945091830191610eaa565b915050610e9594506020925060ff191682840152151560051b8201013880610e87565b919082519283825260005b848110610f29575050826000602080949584010152601f8019910116010190565b602081830181015184830182015201610f08565b6001546001600160a01b03163303610f5157565b606460405162461bcd60e51b815260206004820152602060248201527f4f776e61626c653a2063616c6c6572206973206e6f7420746865206f776e65726044820152fd5b15610f9c57565b60405162461bcd60e51b815260206004820152601860248201527f496e73756666696369656e742074727573742073636f726500000000000000006044820152606490fd5b91908201809211610fee57565b634e487b7160e01b600052601160045260246000fd5b1561100b57565b60405162461bcd60e51b815260206004820152601060248201526f125b9d985b1a59081c1c9bdc1bdcd85b60821b6044820152606490fdfea264697066735822122072503201357815cc6d785685b226a2f672135f8d3df9ee59121b946d63e5a4ac64736f6c63430008130033",
  "linkReferences": {},
  "deployedLinkReferences": {}
}