{"contracts/ZippyTrustContract.sol":{"ZippyTrustContract":{"abi":[{"inputs":[],"stateMutability":"nonpayable","type":"constructor"},{"anonymous":false,"inputs":[{"indexed":true,"internalType":"address","name":"wallet","type":"address"},{"indexed":true,"internalType":"string","name":"fieldName","type":"string"},{"indexed":false,"internalType":"uint256","name":"value","type":"uint256"}],"name":"CustomFieldValueSet","type":"event"},{"anonymous":false,"inputs":[{"indexed":true,"internalType":"address","name":"previousOwner","type":"address"},{"indexed":true,"internalType":"address","name":"newOwner","type":"address"}],"name":"OwnershipTransferred","type":"event"},{"anonymous":false,"inputs":[{"indexed":true,"internalType":"address","name":"delegator","type":"address"},{"indexed":true,"internalType":"address","name":"delegate","type":"address"},{"indexed":false,"internalType":"uint256","name":"amount","type":"uint256"}],"name":"TrustDelegated","type":"event"},{"anonymous":false,"inputs":[{"indexed":true,"internalType":"address","name":"delegator","type":"address"},{"indexed":true,"internalType":"address","name":"delegate","type":"address"}],"name":"TrustDelegationRevoked","type":"event"},{"anonymous":false,"inputs":[{"indexed":true,"internalType":"string","name":"fieldName","type":"string"},{"indexed":false,"internalType":"uint8","name":"dataType","type":"uint8"},{"indexed":false,"internalType":"uint256","name":"weight","type":"uint256"}],"name":"TrustFieldCreated","type":"event"},{"anonymous":false,"inputs":[{"indexed":true,"internalType":"string","name":"fieldName","type":"string"},{"indexed":false,"internalType":"uint256","name":"newWeight","type":"uint256"}],"name":"TrustFieldUpdated","type":"event"},{"anonymous":false,"inputs":[{"indexed":true,"internalType":"address","name":"wallet","type":"address"},{"indexed":false,"internalType":"uint256","name":"newScore","type":"uint256"},{"indexed":false,"internalType":"uint256","name":"timestamp","type":"uint256"}],"name":"TrustScoreUpdated","type":"event"},{"inputs":[],"name":"BASE_SCORE_MULTIPLIER","outputs":[{"internalType":"uint256","name":"","type":"uint256"}],"stateMutability":"view","type":"function"},{"inputs":[],"name":"MAX_TRUST_SCORE","outputs":[{"internalType":"uint256","name":"","type":"uint256"}],"stateMutability":"view","type":"function"},{"inputs":[],"name":"MIN_TRUST_SCORE","outputs":[{"internalType":"uint256","name":"","type":"uint256"}],"stateMutability":"view","type":"function"},{"inputs":[{"internalType":"address","name":"updater","type":"address"}],"name":"addAuthorizedUpdater","outputs":[],"stateMutability":"nonpayable","type":"function"},{"inputs":[{"internalType":"address","name":"","type":"address"}],"name":"authorizedUpdaters","outputs":[{"internalType":"bool","name":"","type":"bool"}],"stateMutability":"view","type":"function"},{"inputs":[{"internalType":"string","name":"name","type":"string"},{"internalType":"uint8","name":"dataType","type":"uint8"},{"internalType":"uint256","name":"weight","type":"uint256"},{"internalType":"uint8","name":"dataSource","type":"uint8"},{"internalType":"uint8","name":"updateFrequency","type":"uint8"}],"name":"createTrustField","outputs":[],"stateMutability":"nonpayable","type":"function"},{"inputs":[{"internalType":"address","name":"","type":"address"},{"internalType":"string","name":"","type":"string"}],"name":"customFieldValues","outputs":[{"internalType":"uint256","name":"","type":"uint256"}],"stateMutability":"view","type":"function"},{"inputs":[{"internalType":"address","name":"delegate","type":"address"},{"internalType":"uint256","name":"amount","type":"uint256"}],"name":"delegateTrust","outputs":[],"stateMutability":"nonpayable","type":"function"},{"inputs":[{"internalType":"address","name":"","type":"address"},{"internalType":"address","name":"","type":"address"}],"name":"delegatedAmounts","outputs":[{"internalType":"uint256","name":"","type":"uint256"}],"stateMutability":"view","type":"function"},{"inputs":[],"name":"delegationCooldownPeriod","outputs":[{"internalType":"uint256","name":"","type":"uint256"}],"stateMutability":"view","type":"function"},{"inputs":[{"internalType":"uint256","name":"","type":"uint256"}],"name":"fieldNames","outputs":[{"internalType":"string","name":"","type":"string"}],"stateMutability":"view","type":"function"},{"inputs":[{"internalType":"address","name":"wallet","type":"address"},{"internalType":"string","name":"fieldName","type":"string"}],"name":"getCustomFieldValue","outputs":[{"internalType":"uint256","name":"","type":"uint256"}],"stateMutability":"view","type":"function"},{"inputs":[{"internalType":"address","name":"delegator","type":"address"}],"name":"getDelegations","outputs":[{"components":[{"internalType":"address","name":"delegator","type":"address"},{"internalType":"address","name":"delegate","type":"address"},{"internalType":"uint256","name":"amount","type":"uint256"},{"internalType":"uint256","name":"timestamp","type":"uint256"},{"internalType":"bool","name":"isActive","type":"bool"}],"internalType":"struct ZippyTrustContract.TrustDelegation[]","name":"","type":"tuple[]"}],"stateMutability":"view","type":"function"},{"inputs":[],"name":"getFieldNames","outputs":[{"internalType":"string[]","name":"","type":"string[]"}],"stateMutability":"view","type":"function"},{"inputs":[{"internalType":"string","name":"name","type":"string"}],"name":"getTrustField","outputs":[{"components":[{"internalType":"string","name":"name","type":"string"},{"internalType":"uint8","name":"dataType","type":"uint8"},{"internalType":"uint256","name":"weight","type":"uint256"},{"internalType":"uint8","name":"dataSource","type":"uint8"},{"internalType":"uint8","name":"updateFrequency","type":"uint8"},{"internalType":"bool","name":"isActive","type":"bool"},{"internalType":"uint256","name":"createdAt","type":"uint256"}],"internalType":"struct ZippyTrustContract.TrustField","name":"","type":"tuple"}],"stateMutability":"view","type":"function"},{"inputs":[{"internalType":"address","name":"wallet","type":"address"}],"name":"getTrustScore","outputs":[{"components":[{"internalType":"uint256","name":"score","type":"uint256"},{"internalType":"uint256","name":"transactionSuccess","type":"uint256"},{"internalType":"uint256","name":"validatorUptime","type":"uint256"},{"internalType":"uint256","name":"stakingReliability","type":"uint256"},{"internalType":"uint256","name":"networkParticipation","type":"uint256"},{"internalType":"uint256","name":"governanceVoting","type":"uint256"},{"internalType":"uint256","name":"socialReputation","type":"uint256"},{"internalType":"uint256","name":"communityVoting","type":"uint256"},{"internalType":"uint256","name":"liquidityProvision","type":"uint256"},{"internalType":"uint256","name":"collateralStaking","type":"uint256"},{"internalType":"uint256","name":"crossChainActivity","type":"uint256"},{"internalType":"uint256","name":"lastUpdated","type":"uint256"},{"internalType":"bool","name":"isActive","type":"bool"}],"internalType":"struct ZippyTrustContract.TrustScore","name":"","type":"tuple"}],"stateMutability":"view","type":"function"},{"inputs":[],"name":"getTrustedWalletsCount","outputs":[{"internalType":"uint256","name":"","type":"uint256"}],"stateMutability":"view","type":"function"},{"inputs":[{"internalType":"address","name":"","type":"address"}],"name":"lastScoreUpdate","outputs":[{"internalType":"uint256","name":"","type":"uint256"}],"stateMutability":"view","type":"function"},{"inputs":[],"name":"minimumStakeForValidation","outputs":[{"internalType":"uint256","name":"","type":"uint256"}],"stateMutability":"view","type":"function"},{"inputs":[],"name":"owner","outputs":[{"internalType":"address","name":"","type":"address"}],"stateMutability":"view","type":"function"},{"inputs":[],"name":"pause","outputs":[],"stateMutability":"nonpayable","type":"function"},{"inputs":[{"internalType":"address","name":"updater","type":"address"}],"name":"removeAuthorizedUpdater","outputs":[],"stateMutability":"nonpayable","type":"function"},{"inputs":[],"name":"renounceOwnership","outputs":[],"stateMutability":"nonpayable","type":"function"},{"inputs":[{"internalType":"address","name":"delegate","type":"address"}],"name":"revokeTrustDelegation","outputs":[],"stateMutability":"nonpayable","type":"function"},{"inputs":[],"name":"scoreUpdateCooldown","outputs":[{"internalType":"uint256","name":"","type":"uint256"}],"stateMutability":"view","type":"function"},{"inputs":[{"internalType":"address","name":"wallet","type":"address"},{"internalType":"string","name":"fieldName","type":"string"},{"internalType":"uint256","name":"value","type":"uint256"}],"name":"setCustomFieldValue","outputs":[],"stateMutability":"nonpayable","type":"function"},{"inputs":[{"internalType":"address","name":"newOwner","type":"address"}],"name":"transferOwnership","outputs":[],"stateMutability":"nonpayable","type":"function"},{"inputs":[{"internalType":"address","name":"","type":"address"},{"internalType":"uint256","name":"","type":"uint256"}],"name":"trustDelegations","outputs":[{"internalType":"address","name":"delegator","type":"address"},{"internalType":"address","name":"delegate","type":"address"},{"internalType":"uint256","name":"amount","type":"uint256"},{"internalType":"uint256","name":"timestamp","type":"uint256"},{"internalType":"bool","name":"isActive","type":"bool"}],"stateMutability":"view","type":"function"},{"inputs":[{"internalType":"string","name":"","type":"string"}],"name":"trustFields","outputs":[{"internalType":"string","name":"name","type":"string"},{"internalType":"uint8","name":"dataType","type":"uint8"},{"internalType":"uint256","name":"weight","type":"uint256"},{"internalType":"uint8","name":"dataSource","type":"uint8"},{"internalType":"uint8","name":"updateFrequency","type":"uint8"},{"internalType":"bool","name":"isActive","type":"bool"},{"internalType":"uint256","name":"createdAt","type":"uint256"}],"stateMutability":"view","type":"function"},{"inputs":[{"internalType":"address","name":"","type":"address"}],"name":"trustScores","outputs":[{"internalType":"uint256","name":"score","type":"uint256"},{"internalType":"uint256","name":"transactionSuccess","type":"uint256"},{"internalType":"uint256","name":"validatorUptime","type":"uint256"},{"internalType":"uint256","name":"stakingReliability","type":"uint256"},{"internalType":"uint256","name":"networkParticipation","type":"uint256"},{"internalType":"uint256","name":"governanceVoting","type":"uint256"},{"internalType":"uint256","name":"socialReputation","type":"uint256"},{"internalType":"uint256","name":"communityVoting","type":"uint256"},{"internalType":"uint256","name":"liquidityProvision","type":"uint256"},{"internalType":"uint256","name":"collateralStaking","type":"uint256"},{"internalType":"uint256","name":"crossChainActivity","type":"uint256"},{"internalType":"uint256","name":"lastUpdated","type":"uint256"},{"internalType":"bool","name":"isActive","type":"bool"}],"stateMutability":"view","type":"function"},{"inputs":[{"internalType":"uint256","name":"","type":"uint256"}],"name":"trustedWallets","outputs":[{"internalType":"address","name":"","type":"address"}],"stateMutability":"view","type":"function"},{"inputs":[{"internalType":"string","name":"fieldName","type":"string"},{"internalType":"uint256","name":"newWeight","type":"uint256"}],"name":"updateTrustFieldWeight","outputs":[],"stateMutability":"nonpayable","type":"function"},{"inputs":[{"internalType":"address","name":"wallet","type":"address"},{"internalType":"uint256","name":"transactionSuccess","type":"uint256"},{"internalType":"uint256","name":"validatorUptime","type":"uint256"},{"internalType":"uint256","name":"stakingReliability","type":"uint256"},{"internalType":"uint256","name":"networkParticipation","type":"uint256"},{"internalType":"uint256","name":"governanceVoting","type":"uint256"},{"internalType":"uint256","name":"socialReputation","type":"uint256"},{"internalType":"uint256","name":"communityVoting","type":"uint256"},{"internalType":"uint256","name":"liquidityProvision","type":"uint256"},{"internalType":"uint256","name":"collateralStaking","type":"uint256"},{"internalType":"uint256","name":"crossChainActivity","type":"uint256"}],"name":"updateTrustScore","outputs":[],"stateMutability":"nonpayable","type":"function"}],"evm":{"bytecode":{"linkReferences":{},"object":"60806040523462000d0c5760008054336001600160a01b0319821681178355916001600160a01b03909116907f8be0079c531659141344cd1fd0a4f28419497f9722a3daafe3b4186f6b6457e09080a360018055683635c9adc5dea0000060095562093a80600a55610e10600b5533600052600c6020526040600020600160ff19825416179055620000b96200009462000d31565b60128152717472616e73616374696f6e5375636365737360701b602082015262000ecc565b620000e9620000c762000d31565b600f81526e76616c696461746f72557074696d6560881b602082015262000ecc565b620000f362000d31565b60128152717374616b696e6752656c696162696c69747960701b602082015260ff600360405160208162000128818762000d51565b84815203019020015460101c1662000cc7576200014462000d11565b81815260006020820152608260408201526000606082015260016080820152600160a08201524260c0820152600460c060405160208162000186818862000d51565b6003815203019020926200019c81518562000d7e565b6001840160ff60208301511660ff198254161790556040810151600285015560ff606082015116600385015460808301519161ff0062ff000060a0860151151560101b169360081b169162ffffff191617171760038501550151910155600754906801000000000000000082101562000cb157600182018060075582101562000c9b576200023a816200024793600760005260206000200162000d7e565b6040519182809262000d51565b0390206000805160206200312f833981519152604080516000815260826020820152a26200027462000d31565b601481527f6e6574776f726b50617274696369706174696f6e000000000000000000000000602082015260ff6003604051602081620002b4818762000d51565b84815203019020015460101c1662000cc757620002d062000d11565b81815260006020820152607860408201526000606082015260006080820152600160a08201524260c0820152600460c060405160208162000312818862000d51565b6003815203019020926200032881518562000d7e565b6001840160ff60208301511660ff19825416179055604081015160028501556003840160ff60608301511681549061ff00608085015160081b169062ff000060a0860151151560101b169262ffffff191617171790550151910155600754906801000000000000000082101562000cb157600182018060075582101562000c9b576200023a81620003c493600760005260206000200162000d7e565b0390206000805160206200312f833981519152604080516000815260786020820152a2620003f162000d31565b601081526f676f7665726e616e6365566f74696e6760801b602082015260ff600360405160208162000424818762000d51565b84815203019020015460101c1662000cc7576200044062000d11565b81815260006020820152606460408201526000606082015260026080820152600160a08201524260c0820152600460c060405160208162000482818862000d51565b6003815203019020926200049881518562000d7e565b6001840160ff60208301511660ff19825416179055604081015160028501556003840160ff60608301511681549061ff00608085015160081b169062ff000060a0860151151560101b169262ffffff191617171790550151910155600754906801000000000000000082101562000cb157600182018060075582101562000c9b576200023a816200053493600760005260206000200162000d7e565b0390206000805160206200312f833981519152604080516000815260646020820152a26200056162000d31565b601081526f39b7b1b4b0b62932b83aba30ba34b7b760811b602082015260ff600360405160208162000594818762000d51565b84815203019020015460101c1662000cc757620005b062000d11565b81815260006020820152605a60408201526001606082015260026080820152600160a08201524260c0820152600460c0604051602081620005f2818862000d51565b6003815203019020926200060881518562000d7e565b6001840160ff60208301511660ff19825416179055604081015160028501556003840160ff60608301511681549061ff00608085015160081b169062ff000060a0860151151560101b169262ffffff191617171790550151910155600754906801000000000000000082101562000cb157600182018060075582101562000c9b576200023a81620006a493600760005260206000200162000d7e565b0390206000805160206200312f8339815191526040805160008152605a6020820152a2620006d162000d31565b600f81526e636f6d6d756e697479566f74696e6760881b602082015260ff600360405160208162000703818762000d51565b84815203019020015460101c1662000cc7576200071f62000d11565b81815260006020820152605060408201526001606082015260026080820152600160a08201524260c0820152600460c060405160208162000761818862000d51565b6003815203019020926200077781518562000d7e565b6001840160ff60208301511660ff19825416179055604081015160028501556003840160ff60608301511681549061ff00608085015160081b169062ff000060a0860151151560101b169262ffffff191617171790550151910155600754906801000000000000000082101562000cb157600182018060075582101562000c9b576200023a816200081393600760005260206000200162000d7e565b0390206000805160206200312f833981519152604080516000815260506020820152a26200084062000d31565b60128152713634b8bab4b234ba3ca83937bb34b9b4b7b760711b602082015260ff600360405160208162000875818762000d51565b84815203019020015460101c1662000cc7576200089162000d11565b81815260006020820152604660408201526000606082015260016080820152600160a08201524260c0820152600460c0604051602081620008d3818862000d51565b600381520301902092620008e981518562000d7e565b6001840160ff60208301511660ff19825416179055604081015160028501556003840160ff60608301511681549061ff00608085015160081b169062ff000060a0860151151560101b169262ffffff191617171790550151910155600754906801000000000000000082101562000cb157600182018060075582101562000c9b576200023a816200098593600760005260206000200162000d7e565b0390206000805160206200312f833981519152604080516000815260466020820152a2620009b262000d31565b6011815270636f6c6c61746572616c5374616b696e6760781b602082015260ff6003604051602081620009e6818762000d51565b84815203019020015460101c1662000cc75762000a0262000d11565b81815260006020820152603c60408201526000606082015260016080820152600160a08201524260c0820152600460c060405160208162000a44818862000d51565b60038152030190209262000a5a81518562000d7e565b6001840160ff60208301511660ff19825416179055604081015160028501556003840160ff60608301511681549061ff00608085015160081b169062ff000060a0860151151560101b169262ffffff191617171790550151910155600754906801000000000000000082101562000cb157600182018060075582101562000c9b576200023a8162000af693600760005260206000200162000d7e565b0390206000805160206200312f8339815191526040805160008152603c6020820152a262000b2362000d31565b601281527163726f7373436861696e416374697669747960701b602082015260ff600360405160208162000b58818762000d51565b84815203019020015460101c1662000cc75762000b7462000d11565b81815260006020820152603260408201526000606082015260016080820152600160a08201524260c0820152600460c060405160208162000bb6818862000d51565b60038152030190209262000bcc81518562000d7e565b6001840160ff60208301511660ff19825416179055604081015160028501556003840160ff60608301511681549061ff00608085015160081b169062ff000060a0860151151560101b169262ffffff191617171790550151910155600754906801000000000000000082101562000cb157600182018060075582101562000c9b576200023a8162000c6893600760005260206000200162000d7e565b0390206000805160206200312f833981519152604080516000815260326020820152a260405161205e9081620010d18239f35b634e487b7160e01b600052603260045260246000fd5b634e487b7160e01b600052604160045260246000fd5b60405162461bcd60e51b815260206004820152601460248201527f4669656c6420616c7265616479206578697374730000000000000000000000006044820152606490fd5b600080fd5b6040519060e082016001600160401b0381118382101762000cb157604052565b60408051919082016001600160401b0381118382101762000cb157604052565b9081519160005b83811062000d6a575050016000815290565b806020809284010151818501520162000d58565b81519091906001600160401b03811162000cb157825460019283821691841c821562000ec3575b6020928382101462000ead57601f811162000e5f575b5081601f841160011462000df8575092829391839260009462000dec575b50501b916000199060031b1c1916179055565b01519250388062000dd9565b919083601f1981168760005284600020946000905b8883831062000e44575050501062000e2a575b505050811b019055565b015160001960f88460031b161c1916905538808062000e20565b85870151885590960195948501948793509081019062000e0d565b8560005282600020601f850160051c81019184861062000ea2575b601f0160051c019085905b82811062000e9557505062000dbb565b6000815501859062000e85565b909150819062000e7a565b634e487b7160e01b600052602260045260246000fd5b607f1662000da5565b8051156200108b57604080519160ff60038462000eea818562000d51565b828152602096879103019020015460101c16620010475762000f0b62000d11565b9080825283820191600484600094858152818401609681526060850191878352608086019188835260a08701916001835262000f6a62000f598d8b60c08c0199428b52519283809262000d51565b600381520301902098518962000d7e565b60ff6001890191511660ff1982541617905551600287015560ff6003870193511662ff000061ff008554945160081b169251151560101b169262ffffff191617171790555191015560075468010000000000000000811015620010335760018101806007558110156200101f57620010108262001004859460969460076000805160206200312f8339815191529998528987200162000d7e565b84519182809262000d51565b039020948351928352820152a2565b634e487b7160e01b83526032600452602483fd5b634e487b7160e01b83526041600452602483fd5b815162461bcd60e51b815260048101849052601460248201527f4669656c6420616c7265616479206578697374730000000000000000000000006044820152606490fd5b60405162461bcd60e51b815260206004820152601a60248201527f4669656c64206e616d652063616e6e6f7420626520656d7074790000000000006044820152606490fdfe608080604052600436101561001357600080fd5b60003560e01c908163057e709c146119ba5750806312df0fc4146118f55780632588b449146115d857806331cc13ba146114ab57806332412d82146111e457806335dbb0b7146105b05780634da267ab14610e05578063501a4a0a14610ce1578063552a2cb614610cc35780635e09eea114610b1a5780635fbe2121146109c1578063603cda091461097f578063715018a61461092657806372de66be1461090857806374c8d377146106de5780637dc01bfa146108ea5780638456cb59146108cf5780638c9b9fdc1461088a5780638da5cb5b146108615780638ff29cfe1461082257806399d45a46146106e3578063aeeb12d5146106de578063b2d3dd6614610679578063b566a04714610624578063ca8b052f146105ea578063cfcd9031146105b0578063e04a8b7e146104ef578063e0b3d01914610428578063e1c95d1f1461033f578063e67355d1146102b8578063f0b6d59214610276578063f2fde38b146101ad5763f46978aa1461018a57600080fd5b346101a85760003660031901126101a8576020600954604051908152f35b600080fd5b346101a85760203660031901126101a8576101c66119d4565b6101ce611d00565b6001600160a01b0390811690811561022257600054826bffffffffffffffffffffffff60a01b821617600055167f8be0079c531659141344cd1fd0a4f28419497f9722a3daafe3b4186f6b6457e0600080a3005b60405162461bcd60e51b815260206004820152602660248201527f4f776e61626c653a206e6577206f776e657220697320746865207a65726f206160448201526564647265737360d01b6064820152608490fd5b346101a85760203660031901126101a8576004356008548110156101a85761029f602091611ba7565b905460405160039290921b1c6001600160a01b03168152f35b346101a85760403660031901126101a8576102d16119d4565b6024359060018060a01b038091166000526005602052604060002080548310156101a85760a09261030191611ce4565b50818154169160018201541690600281015460ff60046003840154930154169260405194855260208501526040840152606083015215156080820152f35b346101a85760003660031901126101a85760075461035c81611fc0565b9061036a6040519283611a3c565b808252602090818301908160076000527fa66cc928b5edb82af9bd49922954155ab7b0942694bea4ce44661d9a8736c6886000915b8383106104065750505050604051918083019381845251809452604083019360408160051b85010192916000955b8287106103da5785850386f35b9091929382806103f6600193603f198a82030186528851611b35565b96019201960195929190926103cd565b6001868192610417859a999a611c18565b81520192019201919095949561039f565b346101a85760403660031901126101a8576004356001600160401b0381116101a857610458903690600401611a5d565b7f6e6773452fcd29178821dc7591bb185d1421455b332412ef6af88d447a4323e760206104e56024359361048a611d00565b8460026104d4856040516104c360ff60038851938581818c01966104af81838a611b12565b810184815203019020015460101c16611f22565b604051809381928851928391611b12565b810160038152030190200155611e67565b92604051908152a2005b346101a85760203660031901126101a8576004356001600160401b0381116101a85761053a602061052761057e933690600401611a5d565b8160405193828580945193849201611b12565b8101600381520301902061054d81611c18565b9060ff6001820154169060ff600282015491600460038201549101549260405196879660e0885260e0880190611b35565b94602087015260408601528181166060860152818160081c16608086015260101c16151560a084015260c08301520390f35b346101a85760206105e16105c336611ab3565b6001600160a01b039091166000908152600484526040902090611cbe565b54604051908152f35b346101a85760203660031901126101a8576001600160a01b0361060b6119d4565b16600052600d6020526020604060002054604051908152f35b346101a85760403660031901126101a85761063d6119d4565b6001600160a01b0360243581811692908390036101a8571660005260066020526040600020906000526020526020604060002054604051908152f35b346101a85760203660031901126101a8576004356007548110156101a8576106a090611b5a565b6106c8576106b06106c491611c18565b604051918291602083526020830190611b35565b0390f35b634e487b7160e01b600052600060045260246000fd5b611af5565b346101a8576020806003193601126101a8576004356001600160401b0381116101a8578161071861075e923690600401611a5d565b600060c0604051610728816119ea565b6060815282858201528260408201528260608201528260808201528260a082015201528160405193828580945193849201611b12565b810160038152030190209060405191610776836119ea565b61077f81611c18565b835260ff80600183015416918385019283526002810154916040860192835260038201549181606088018185168152600460808a0193838760081c1685528360a08c019760101c161515875201549560c08a01968752826107f48a60e06040519d8e9d8e5251918d01526101008c0190611b35565b98511660408a015251606089015251166080870152511660a085015251151560c08401525160e08301520390f35b346101a85760203660031901126101a8576001600160a01b036108436119d4565b16600052600c602052602060ff604060002054166040519015158152f35b346101a85760003660031901126101a8576000546040516001600160a01b039091168152602090f35b346101a85760203660031901126101a8576108a36119d4565b6108ab611d00565b6001600160a01b03166000908152600c60205260409020805460ff19166001179055005b346101a85760003660031901126101a8576108e8611d00565b005b346101a85760003660031901126101a8576020600a54604051908152f35b346101a85760003660031901126101a8576020600b54604051908152f35b346101a85760003660031901126101a85761093f611d00565b600080546001600160a01b0319811682556001600160a01b03167f8be0079c531659141344cd1fd0a4f28419497f9722a3daafe3b4186f6b6457e08280a3005b346101a85760203660031901126101a8576109986119d4565b6109a0611d00565b6001600160a01b03166000908152600c60205260409020805460ff19169055005b346101a8576020806003193601126101a8576109db6119d4565b6109e3611ecc565b6001600160a01b03908116916109fa831515611f65565b3360005260068152604060002083600052815260406000205415610ae057336000526005815260406000208360005b8254811015610ad65781856001610a408487611ce4565b500154161480610abe575b610a5d57610a5890611fb1565b610a29565b90506004929350610a6d91611ce4565b5001805460ff191690555b3360005260068152604060002090826000525260006040812055337f5145eb55dda20f7829838af8f45d7e416f925a24ccc15ad0c788fb26a84a0e95600080a360018055005b5060ff6004610acd8386611ce4565b50015416610a4b565b5050509050610a78565b6064906040519062461bcd60e51b825260048201526013602482015272139bc819195b1959d85d1a5bdb88199bdd5b99606a1b6044820152fd5b346101a85760203660031901126101a857610b336119d4565b6000610180604051610b4481611a20565b8281528260208201528260408201528260608201528260808201528260a08201528260c08201528260e082015282610100820152826101208201528261014082015282610160820152015260018060a01b031660005260026020526101a06040600020610180604051610bb681611a20565b60ff600c84549485845260018101546020850152600281015460408501526003810154606085015260048101546080850152600581015460a0850152600681015460c0850152600781015460e085015260088101546101008501526009810154610120850152600a810154610140850152600b8101546101608501520154161515828201526040519283526020810151602084015260408101516040840152606081015160608401526080810151608084015260a081015160a084015260c081015160c084015260e081015160e084015261010081015161010084015261012081015161012084015261014081015161014084015261016081015161016084015201511515610180820152f35b346101a85760003660031901126101a8576020600854604051908152f35b346101a85760603660031901126101a857610cfa6119d4565b6024356001600160401b0381116101a857610d19903690600401611a5d565b60443591610d25611ecc565b33600052602090600c825260ff6040600020541615610dc0576001600160a01b0316917fe00316b10a05e44c70c3a271c63b7ae2c1946f1536d8dadd21ad9477b8dbbdcd9190610db290610d7a851515611e87565b610d9560ff6003604051868186516104af8183858b01611b12565b846000526004835285610dac604060002083611cbe565b55611e67565b93604051908152a360018055005b60405162461bcd60e51b815260048101839052601f60248201527f4e6f7420617574686f72697a656420746f20757064617465206669656c6473006044820152606490fd5b346101a8576101603660031901126101a857610e1f6119d4565b610e27611ecc565b33600052600c60205260ff604060002054161561119f57610e526001600160a01b0382161515611e87565b6001600160a01b0381166000908152600d6020526040902054600b54810190811061114457421061115a57600f602435026024358104600f1460243515171561114457600f604435026044358104600f1460443515171561114457810180911161114457600d606435026064358104600d1460643515171561114457810180911161114457600c608435026084358104600c1460843515171561114457810180911161114457600a60a4350260a4358104600a1460a43515171561114457810180911161114457600960c4350260c435810460091460c4351517156111445781018091116111445760e43560031b60e435810460081460e435151715611144578101809111611144576007610104350261010435810460071461010435151715611144578101809111611144576006610124350261012435810460061461012435151715611144578101809111611144576005610144350261014435810460051461014435151715611144578082018211611144576064910104906103e8821161113a575b60018060a01b0381166000526002602052600c6040600020838155602435600182015560443560028201556064356003820155608435600482015560a435600582015560c435600682015560e435600782015561010435600882015561012435600982015561014435600a82015542600b82015501600160ff1982541617905561106081611fd7565b156110bb575b6001600160a01b03166000818152600d6020908152604091829020429081905582519485529084015290917f15dd57e0cde9af9083c846eb39c9da382e907c0036818e4a163ecd167e5f32769190a260018055005b600854600160401b811015611124577f15dd57e0cde9af9083c846eb39c9da382e907c0036818e4a163ecd167e5f3276916110fe82600160409401600855611ba7565b81546001600160a01b0384811660039390931b92831b921b191617905591506110669050565b634e487b7160e01b600052604160045260246000fd5b6103e89150610fd7565b634e487b7160e01b600052601160045260246000fd5b60405162461bcd60e51b815260206004820152601d60248201527f53636f72652075706461746520636f6f6c646f776e206e6f74206d65740000006044820152606490fd5b60405162461bcd60e51b815260206004820152601f60248201527f4e6f7420617574686f72697a656420746f207570646174652073636f726573006044820152606490fd5b346101a85760403660031901126101a8576111fd6119d4565b602480359061120a611ecc565b6001600160a01b0392831692611221841515611f65565b33841461146757821561142357336000526020916002835260ff600c6040600020015416156113d1573360005260068352604060002085600052835260406000205461138e576040519161127483611a05565b3383528383018681526040840190868252606085019242845260808601956001875233600052600588526040600020805490600160401b82101561137957906112c291600182018155611ce4565b969096611365575091817fb58a34790b02732ce9546bed68ef7d135420000706c11f509044f1a0ebdba83b9897969492600496945116906bffffffffffffffffffffffff60a01b91828754161786556001860192511690825416179055516002830155516003820155019051151560ff8019835416911617905533600052600681526040600020846000528152826040600020556040519283523392a360018055005b634e487b7160e01b60005260006004526000fd5b87634e487b7160e01b60005260416004526000fd5b8260196064926040519262461bcd60e51b845260048401528201527f44656c65676174696f6e20616c726561647920657869737473000000000000006044820152fd5b8260266084926040519262461bcd60e51b845260048401528201527f44656c656761746f72206d7573742068617665206163746976652074727573746044820152652073636f726560d01b6064820152fd5b60405162461bcd60e51b815260206004820152601d818401527f416d6f756e74206d7573742062652067726561746572207468616e20300000006044820152606490fd5b60405162461bcd60e51b8152602060048201526017818401527f43616e6e6f742064656c656761746520746f2073656c660000000000000000006044820152606490fd5b346101a8576020806003193601126101a8576001600160a01b0390816114cf6119d4565b1660005260059081815260406000209081546114ea81611fc0565b936114f86040519586611a3c565b8185528285018094600052836000206000915b84831061158057505050505060405192818401908285525180915260408401929160005b82811061153c5785850386f35b835180518816865280830151881686840152604080820151908701526060808201519087015260809081015115159086015260a0909401939281019260010161152f565b838660019260409a989a5161159481611a05565b8c86541681528c858701541683820152600286015460408201526003860154606082015260ff6004870154161515608082015281520192019201919096949661150b565b346101a85760a03660031901126101a8576004356001600160401b0381116101a857611608903690600401611a5d565b602480359060ff928383168093036101a8576044918235926064958635918183168093036101a857608435918083168093036101a857611646611d00565b8551156118b3576002881161187d57600284116118455760038311611803576040519886519282600360209c8d81818d019861168381838c611b12565b810184815203019020015460101c166117cc5750509260049286928a95898b6117076116f56040519a6116b58c6119ea565b898c52808c0193845260408c0194855260608c0198895260808c0197885260a08c01966001885260c08d019a428c52604051938492839251928391611b12565b8101600381520301902099518a611d58565b8260018a0191511660ff198254161790555160028801556003870193511662ff000061ff008554945160081b169251151560101b169262ffffff1916171717905551910155600754600160401b8110156117b75780600161176b9201600755611b5a565b9190916113655750916117ab826117a67f06f598b067cd9c8adb52d2e3b0a585f0f63111bb3e99a8242fe9beea5a1ca35c9694604096611d58565b611e67565b948351928352820152a2005b50634e487b7160e01b60009081526041600452fd5b734669656c6420616c72656164792065786973747360601b8b916014896040519462461bcd60e51b86526004860152840152820152fd5b60405162461bcd60e51b8152602060048201526018818701527f496e76616c696420757064617465206672657175656e63790000000000000000818401528990fd5b60405162461bcd60e51b81526020600482015260138187015272496e76616c6964206461746120736f7572636560681b818401528990fd5b60405162461bcd60e51b81526020600482015260118187015270496e76616c69642064617461207479706560781b818401528990fd5b60405162461bcd60e51b815260206004820152601a818701527f4669656c64206e616d652063616e6e6f7420626520656d707479000000000000818401528990fd5b346101a85760203660031901126101a8576001600160a01b036119166119d4565b1660005260026020526101a0604060002080549060018101549060028101546003820154600483015460058401546006850154600786015491600887015493600988015495600a8901549760ff600c600b8c01549b0154169a6040519c8d5260208d015260408c015260608b015260808a015260a089015260c088015260e08701526101008601526101208501526101408401526101608301521515610180820152f35b346101a85760003660031901126101a85780600060209252f35b600435906001600160a01b03821682036101a857565b60e081019081106001600160401b0382111761112457604052565b60a081019081106001600160401b0382111761112457604052565b6101a081019081106001600160401b0382111761112457604052565b90601f801991011681019081106001600160401b0382111761112457604052565b81601f820112156101a8578035906001600160401b0382116111245760405192611a91601f8401601f191660200185611a3c565b828452602083830101116101a857816000926020809301838601378301015290565b9060406003198301126101a8576004356001600160a01b03811681036101a85791602435906001600160401b0382116101a857611af291600401611a5d565b90565b346101a85760003660031901126101a85760206040516103e88152f35b60005b838110611b255750506000910152565b8181015183820152602001611b15565b90602091611b4e81518092818552858086019101611b12565b601f01601f1916010190565b600754811015611b915760076000527fa66cc928b5edb82af9bd49922954155ab7b0942694bea4ce44661d9a8736c6880190600090565b634e487b7160e01b600052603260045260246000fd5b600854811015611b915760086000527ff3f7a9fe364faab93b216da50a3214154f22a0a2b415b23a84c8169e8b636ee30190600090565b90600182811c92168015611c0e575b6020831014611bf857565b634e487b7160e01b600052602260045260246000fd5b91607f1691611bed565b9060405191826000825492611c2c84611bde565b908184526001948581169081600014611c9b5750600114611c58575b5050611c5692500383611a3c565b565b9093915060005260209081600020936000915b818310611c83575050611c5693508201013880611c48565b85548884018501529485019487945091830191611c6b565b915050611c5694506020925060ff191682840152151560051b8201013880611c48565b602090611cd8928260405194838680955193849201611b12565b82019081520301902090565b8054821015611b91576000526005602060002091020190600090565b6000546001600160a01b03163303611d1457565b606460405162461bcd60e51b815260206004820152602060248201527f4f776e61626c653a2063616c6c6572206973206e6f7420746865206f776e65726044820152fd5b91909182516001600160401b03811161112457611d758254611bde565b601f8111611e1f575b50602080601f8311600114611dbb575081929394600092611db0575b50508160011b916000199060031b1c1916179055565b015190503880611d9a565b90601f198316958460005282600020926000905b888210611e0757505083600195969710611dee575b505050811b019055565b015160001960f88460031b161c19169055388080611de4565b80600185968294968601518155019501930190611dcf565b600083815260208120601f840160051c81019260208510611e5d575b601f0160051c01915b828110611e52575050611d7e565b818155600101611e44565b9092508290611e3b565b611e7f90602060405192828480945193849201611b12565b810103902090565b15611e8e57565b60405162461bcd60e51b8152602060048201526016602482015275496e76616c69642077616c6c6574206164647265737360501b6044820152606490fd5b600260015414611edd576002600155565b60405162461bcd60e51b815260206004820152601f60248201527f5265656e7472616e637947756172643a207265656e7472616e742063616c6c006044820152606490fd5b15611f2957565b60405162461bcd60e51b8152602060048201526014602482015273119a595b1908191bd95cc81b9bdd08195e1a5cdd60621b6044820152606490fd5b15611f6c57565b60405162461bcd60e51b815260206004820152601860248201527f496e76616c69642064656c6567617465206164647265737300000000000000006044820152606490fd5b60001981146111445760010190565b6001600160401b0381116111245760051b60200190565b6008549060005b828110611fed57505050600090565b611ff681611ba7565b905460039190911b1c6001600160a01b03908116908316146120205761201b90611fb1565b611fde565b50505060019056fea26469706673582212203c8be1b6828522e68ad579141ef8cbc13e779cc582b39398a1abfd8d9faf977364736f6c6343000813003306f598b067cd9c8adb52d2e3b0a585f0f63111bb3e99a8242fe9beea5a1ca35c","opcodes":"PUSH1 0x80 PUSH1 0x40 MSTORE CALLVALUE PUSH3 0xD0C JUMPI PUSH1 0x0 DUP1 SLOAD CALLER PUSH1 0x1 PUSH1 0x1 PUSH1 0xA0 SHL SUB NOT DUP3 AND DUP2 OR DUP4 SSTORE SWAP2 PUSH1 0x1 PUSH1 0x1 PUSH1 0xA0 SHL SUB SWAP1 SWAP2 AND SWAP1 PUSH32 0x8BE0079C531659141344CD1FD0A4F28419497F9722A3DAAFE3B4186F6B6457E0 SWAP1 DUP1 LOG3 PUSH1 0x1 DUP1 SSTORE PUSH9 0x3635C9ADC5DEA00000 PUSH1 0x9 SSTORE PUSH3 0x93A80 PUSH1 0xA SSTORE PUSH2 0xE10 PUSH1 0xB SSTORE CALLER PUSH1 0x0 MSTORE PUSH1 0xC PUSH1 0x20 MSTORE PUSH1 0x40 PUSH1 0x0 KECCAK256 PUSH1 0x1 PUSH1 0xFF NOT DUP3 SLOAD AND OR SWAP1 SSTORE PUSH3 0xB9 PUSH3 0x94 PUSH3 0xD31 JUMP JUMPDEST PUSH1 0x12 DUP2 MSTORE PUSH18 0x7472616E73616374696F6E53756363657373 PUSH1 0x70 SHL PUSH1 0x20 DUP3 ADD MSTORE PUSH3 0xECC JUMP JUMPDEST PUSH3 0xE9 PUSH3 0xC7 PUSH3 0xD31 JUMP JUMPDEST PUSH1 0xF DUP2 MSTORE PUSH15 0x76616C696461746F72557074696D65 PUSH1 0x88 SHL PUSH1 0x20 DUP3 ADD MSTORE PUSH3 0xECC JUMP JUMPDEST PUSH3 0xF3 PUSH3 0xD31 JUMP JUMPDEST PUSH1 0x12 DUP2 MSTORE PUSH18 0x7374616B696E6752656C696162696C697479 PUSH1 0x70 SHL PUSH1 0x20 DUP3 ADD MSTORE PUSH1 0xFF PUSH1 0x3 PUSH1 0x40 MLOAD PUSH1 0x20 DUP2 PUSH3 0x128 DUP2 DUP8 PUSH3 0xD51 JUMP JUMPDEST DUP5 DUP2 MSTORE SUB ADD SWAP1 KECCAK256 ADD SLOAD PUSH1 0x10 SHR AND PUSH3 0xCC7 JUMPI PUSH3 0x144 PUSH3 0xD11 JUMP JUMPDEST DUP2 DUP2 MSTORE PUSH1 0x0 PUSH1 0x20 DUP3 ADD MSTORE PUSH1 0x82 PUSH1 0x40 DUP3 ADD MSTORE PUSH1 0x0 PUSH1 0x60 DUP3 ADD MSTORE PUSH1 0x1 PUSH1 0x80 DUP3 ADD MSTORE PUSH1 0x1 PUSH1 0xA0 DUP3 ADD MSTORE TIMESTAMP PUSH1 0xC0 DUP3 ADD MSTORE PUSH1 0x4 PUSH1 0xC0 PUSH1 0x40 MLOAD PUSH1 0x20 DUP2 PUSH3 0x186 DUP2 DUP9 PUSH3 0xD51 JUMP JUMPDEST PUSH1 0x3 DUP2 MSTORE SUB ADD SWAP1 KECCAK256 SWAP3 PUSH3 0x19C DUP2 MLOAD DUP6 PUSH3 0xD7E JUMP JUMPDEST PUSH1 0x1 DUP5 ADD PUSH1 0xFF PUSH1 0x20 DUP4 ADD MLOAD AND PUSH1 0xFF NOT DUP3 SLOAD AND OR SWAP1 SSTORE PUSH1 0x40 DUP2 ADD MLOAD PUSH1 0x2 DUP6 ADD SSTORE PUSH1 0xFF PUSH1 0x60 DUP3 ADD MLOAD AND PUSH1 0x3 DUP6 ADD SLOAD PUSH1 0x80 DUP4 ADD MLOAD SWAP2 PUSH2 0xFF00 PUSH3 0xFF0000 PUSH1 0xA0 DUP7 ADD MLOAD ISZERO ISZERO PUSH1 0x10 SHL AND SWAP4 PUSH1 0x8 SHL AND SWAP2 PUSH3 0xFFFFFF NOT AND OR OR OR PUSH1 0x3 DUP6 ADD SSTORE ADD MLOAD SWAP2 ADD SSTORE PUSH1 0x7 SLOAD SWAP1 PUSH9 0x10000000000000000 DUP3 LT ISZERO PUSH3 0xCB1 JUMPI PUSH1 0x1 DUP3 ADD DUP1 PUSH1 0x7 SSTORE DUP3 LT ISZERO PUSH3 0xC9B JUMPI PUSH3 0x23A DUP2 PUSH3 0x247 SWAP4 PUSH1 0x7 PUSH1 0x0 MSTORE PUSH1 0x20 PUSH1 0x0 KECCAK256 ADD PUSH3 0xD7E JUMP JUMPDEST PUSH1 0x40 MLOAD SWAP2 DUP3 DUP1 SWAP3 PUSH3 0xD51 JUMP JUMPDEST SUB SWAP1 KECCAK256 PUSH1 0x0 DUP1 MLOAD PUSH1 0x20 PUSH3 0x312F DUP4 CODECOPY DUP2 MLOAD SWAP2 MSTORE PUSH1 0x40 DUP1 MLOAD PUSH1 0x0 DUP2 MSTORE PUSH1 0x82 PUSH1 0x20 DUP3 ADD MSTORE LOG2 PUSH3 0x274 PUSH3 0xD31 JUMP JUMPDEST PUSH1 0x14 DUP2 MSTORE PUSH32 0x6E6574776F726B50617274696369706174696F6E000000000000000000000000 PUSH1 0x20 DUP3 ADD MSTORE PUSH1 0xFF PUSH1 0x3 PUSH1 0x40 MLOAD PUSH1 0x20 DUP2 PUSH3 0x2B4 DUP2 DUP8 PUSH3 0xD51 JUMP JUMPDEST DUP5 DUP2 MSTORE SUB ADD SWAP1 KECCAK256 ADD SLOAD PUSH1 0x10 SHR AND PUSH3 0xCC7 JUMPI PUSH3 0x2D0 PUSH3 0xD11 JUMP JUMPDEST DUP2 DUP2 MSTORE PUSH1 0x0 PUSH1 0x20 DUP3 ADD MSTORE PUSH1 0x78 PUSH1 0x40 DUP3 ADD MSTORE PUSH1 0x0 PUSH1 0x60 DUP3 ADD MSTORE PUSH1 0x0 PUSH1 0x80 DUP3 ADD MSTORE PUSH1 0x1 PUSH1 0xA0 DUP3 ADD MSTORE TIMESTAMP PUSH1 0xC0 DUP3 ADD MSTORE PUSH1 0x4 PUSH1 0xC0 PUSH1 0x40 MLOAD PUSH1 0x20 DUP2 PUSH3 0x312 DUP2 DUP9 PUSH3 0xD51 JUMP JUMPDEST PUSH1 0x3 DUP2 MSTORE SUB ADD SWAP1 KECCAK256 SWAP3 PUSH3 0x328 DUP2 MLOAD DUP6 PUSH3 0xD7E JUMP JUMPDEST PUSH1 0x1 DUP5 ADD PUSH1 0xFF PUSH1 0x20 DUP4 ADD MLOAD AND PUSH1 0xFF NOT DUP3 SLOAD AND OR SWAP1 SSTORE PUSH1 0x40 DUP2 ADD MLOAD PUSH1 0x2 DUP6 ADD SSTORE PUSH1 0x3 DUP5 ADD PUSH1 0xFF PUSH1 0x60 DUP4 ADD MLOAD AND DUP2 SLOAD SWAP1 PUSH2 0xFF00 PUSH1 0x80 DUP6 ADD MLOAD PUSH1 0x8 SHL AND SWAP1 PUSH3 0xFF0000 PUSH1 0xA0 DUP7 ADD MLOAD ISZERO ISZERO PUSH1 0x10 SHL AND SWAP3 PUSH3 0xFFFFFF NOT AND OR OR OR SWAP1 SSTORE ADD MLOAD SWAP2 ADD SSTORE PUSH1 0x7 SLOAD SWAP1 PUSH9 0x10000000000000000 DUP3 LT ISZERO PUSH3 0xCB1 JUMPI PUSH1 0x1 DUP3 ADD DUP1 PUSH1 0x7 SSTORE DUP3 LT ISZERO PUSH3 0xC9B JUMPI PUSH3 0x23A DUP2 PUSH3 0x3C4 SWAP4 PUSH1 0x7 PUSH1 0x0 MSTORE PUSH1 0x20 PUSH1 0x0 KECCAK256 ADD PUSH3 0xD7E JUMP JUMPDEST SUB SWAP1 KECCAK256 PUSH1 0x0 DUP1 MLOAD PUSH1 0x20 PUSH3 0x312F DUP4 CODECOPY DUP2 MLOAD SWAP2 MSTORE PUSH1 0x40 DUP1 MLOAD PUSH1 0x0 DUP2 MSTORE PUSH1 0x78 PUSH1 0x20 DUP3 ADD MSTORE LOG2 PUSH3 0x3F1 PUSH3 0xD31 JUMP JUMPDEST PUSH1 0x10 DUP2 MSTORE PUSH16 0x676F7665726E616E6365566F74696E67 PUSH1 0x80 SHL PUSH1 0x20 DUP3 ADD MSTORE PUSH1 0xFF PUSH1 0x3 PUSH1 0x40 MLOAD PUSH1 0x20 DUP2 PUSH3 0x424 DUP2 DUP8 PUSH3 0xD51 JUMP JUMPDEST DUP5 DUP2 MSTORE SUB ADD SWAP1 KECCAK256 ADD SLOAD PUSH1 0x10 SHR AND PUSH3 0xCC7 JUMPI PUSH3 0x440 PUSH3 0xD11 JUMP JUMPDEST DUP2 DUP2 MSTORE PUSH1 0x0 PUSH1 0x20 DUP3 ADD MSTORE PUSH1 0x64 PUSH1 0x40 DUP3 ADD MSTORE PUSH1 0x0 PUSH1 0x60 DUP3 ADD MSTORE PUSH1 0x2 PUSH1 0x80 DUP3 ADD MSTORE PUSH1 0x1 PUSH1 0xA0 DUP3 ADD MSTORE TIMESTAMP PUSH1 0xC0 DUP3 ADD MSTORE PUSH1 0x4 PUSH1 0xC0 PUSH1 0x40 MLOAD PUSH1 0x20 DUP2 PUSH3 0x482 DUP2 DUP9 PUSH3 0xD51 JUMP JUMPDEST PUSH1 0x3 DUP2 MSTORE SUB ADD SWAP1 KECCAK256 SWAP3 PUSH3 0x498 DUP2 MLOAD DUP6 PUSH3 0xD7E JUMP JUMPDEST PUSH1 0x1 DUP5 ADD PUSH1 0xFF PUSH1 0x20 DUP4 ADD MLOAD AND PUSH1 0xFF NOT DUP3 SLOAD AND OR SWAP1 SSTORE PUSH1 0x40 DUP2 ADD MLOAD PUSH1 0x2 DUP6 ADD SSTORE PUSH1 0x3 DUP5 ADD PUSH1 0xFF PUSH1 0x60 DUP4 ADD MLOAD AND DUP2 SLOAD SWAP1 PUSH2 0xFF00 PUSH1 0x80 DUP6 ADD MLOAD PUSH1 0x8 SHL AND SWAP1 PUSH3 0xFF0000 PUSH1 0xA0 DUP7 ADD MLOAD ISZERO ISZERO PUSH1 0x10 SHL AND SWAP3 PUSH3 0xFFFFFF NOT AND OR OR OR SWAP1 SSTORE ADD MLOAD SWAP2 ADD SSTORE PUSH1 0x7 SLOAD SWAP1 PUSH9 0x10000000000000000 DUP3 LT ISZERO PUSH3 0xCB1 JUMPI PUSH1 0x1 DUP3 ADD DUP1 PUSH1 0x7 SSTORE DUP3 LT ISZERO PUSH3 0xC9B JUMPI PUSH3 0x23A DUP2 PUSH3 0x534 SWAP4 PUSH1 0x7 PUSH1 0x0 MSTORE PUSH1 0x20 PUSH1 0x0 KECCAK256 ADD PUSH3 0xD7E JUMP JUMPDEST SUB SWAP1 KECCAK256 PUSH1 0x0 DUP1 MLOAD PUSH1 0x20 PUSH3 0x312F DUP4 CODECOPY DUP2 MLOAD SWAP2 MSTORE PUSH1 0x40 DUP1 MLOAD PUSH1 0x0 DUP2 MSTORE PUSH1 0x64 PUSH1 0x20 DUP3 ADD MSTORE LOG2 PUSH3 0x561 PUSH3 0xD31 JUMP JUMPDEST PUSH1 0x10 DUP2 MSTORE PUSH16 0x39B7B1B4B0B62932B83ABA30BA34B7B7 PUSH1 0x81 SHL PUSH1 0x20 DUP3 ADD MSTORE PUSH1 0xFF PUSH1 0x3 PUSH1 0x40 MLOAD PUSH1 0x20 DUP2 PUSH3 0x594 DUP2 DUP8 PUSH3 0xD51 JUMP JUMPDEST DUP5 DUP2 MSTORE SUB ADD SWAP1 KECCAK256 ADD SLOAD PUSH1 0x10 SHR AND PUSH3 0xCC7 JUMPI PUSH3 0x5B0 PUSH3 0xD11 JUMP JUMPDEST DUP2 DUP2 MSTORE PUSH1 0x0 PUSH1 0x20 DUP3 ADD MSTORE PUSH1 0x5A PUSH1 0x40 DUP3 ADD MSTORE PUSH1 0x1 PUSH1 0x60 DUP3 ADD MSTORE PUSH1 0x2 PUSH1 0x80 DUP3 ADD MSTORE PUSH1 0x1 PUSH1 0xA0 DUP3 ADD MSTORE TIMESTAMP PUSH1 0xC0 DUP3 ADD MSTORE PUSH1 0x4 PUSH1 0xC0 PUSH1 0x40 MLOAD PUSH1 0x20 DUP2 PUSH3 0x5F2 DUP2 DUP9 PUSH3 0xD51 JUMP JUMPDEST PUSH1 0x3 DUP2 MSTORE SUB ADD SWAP1 KECCAK256 SWAP3 PUSH3 0x608 DUP2 MLOAD DUP6 PUSH3 0xD7E JUMP JUMPDEST PUSH1 0x1 DUP5 ADD PUSH1 0xFF PUSH1 0x20 DUP4 ADD MLOAD AND PUSH1 0xFF NOT DUP3 SLOAD AND OR SWAP1 SSTORE PUSH1 0x40 DUP2 ADD MLOAD PUSH1 0x2 DUP6 ADD SSTORE PUSH1 0x3 DUP5 ADD PUSH1 0xFF PUSH1 0x60 DUP4 ADD MLOAD AND DUP2 SLOAD SWAP1 PUSH2 0xFF00 PUSH1 0x80 DUP6 ADD MLOAD PUSH1 0x8 SHL AND SWAP1 PUSH3 0xFF0000 PUSH1 0xA0 DUP7 ADD MLOAD ISZERO ISZERO PUSH1 0x10 SHL AND SWAP3 PUSH3 0xFFFFFF NOT AND OR OR OR SWAP1 SSTORE ADD MLOAD SWAP2 ADD SSTORE PUSH1 0x7 SLOAD SWAP1 PUSH9 0x10000000000000000 DUP3 LT ISZERO PUSH3 0xCB1 JUMPI PUSH1 0x1 DUP3 ADD DUP1 PUSH1 0x7 SSTORE DUP3 LT ISZERO PUSH3 0xC9B JUMPI PUSH3 0x23A DUP2 PUSH3 0x6A4 SWAP4 PUSH1 0x7 PUSH1 0x0 MSTORE PUSH1 0x20 PUSH1 0x0 KECCAK256 ADD PUSH3 0xD7E JUMP JUMPDEST SUB SWAP1 KECCAK256 PUSH1 0x0 DUP1 MLOAD PUSH1 0x20 PUSH3 0x312F DUP4 CODECOPY DUP2 MLOAD SWAP2 MSTORE PUSH1 0x40 DUP1 MLOAD PUSH1 0x0 DUP2 MSTORE PUSH1 0x5A PUSH1 0x20 DUP3 ADD MSTORE LOG2 PUSH3 0x6D1 PUSH3 0xD31 JUMP JUMPDEST PUSH1 0xF DUP2 MSTORE PUSH15 0x636F6D6D756E697479566F74696E67 PUSH1 0x88 SHL PUSH1 0x20 DUP3 ADD MSTORE PUSH1 0xFF PUSH1 0x3 PUSH1 0x40 MLOAD PUSH1 0x20 DUP2 PUSH3 0x703 DUP2 DUP8 PUSH3 0xD51 JUMP JUMPDEST DUP5 DUP2 MSTORE SUB ADD SWAP1 KECCAK256 ADD SLOAD PUSH1 0x10 SHR AND PUSH3 0xCC7 JUMPI PUSH3 0x71F PUSH3 0xD11 JUMP JUMPDEST DUP2 DUP2 MSTORE PUSH1 0x0 PUSH1 0x20 DUP3 ADD MSTORE PUSH1 0x50 PUSH1 0x40 DUP3 ADD MSTORE PUSH1 0x1 PUSH1 0x60 DUP3 ADD MSTORE PUSH1 0x2 PUSH1 0x80 DUP3 ADD MSTORE PUSH1 0x1 PUSH1 0xA0 DUP3 ADD MSTORE TIMESTAMP PUSH1 0xC0 DUP3 ADD MSTORE PUSH1 0x4 PUSH1 0xC0 PUSH1 0x40 MLOAD PUSH1 0x20 DUP2 PUSH3 0x761 DUP2 DUP9 PUSH3 0xD51 JUMP JUMPDEST PUSH1 0x3 DUP2 MSTORE SUB ADD SWAP1 KECCAK256 SWAP3 PUSH3 0x777 DUP2 MLOAD DUP6 PUSH3 0xD7E JUMP JUMPDEST PUSH1 0x1 DUP5 ADD PUSH1 0xFF PUSH1 0x20 DUP4 ADD MLOAD AND PUSH1 0xFF NOT DUP3 SLOAD AND OR SWAP1 SSTORE PUSH1 0x40 DUP2 ADD MLOAD PUSH1 0x2 DUP6 ADD SSTORE PUSH1 0x3 DUP5 ADD PUSH1 0xFF PUSH1 0x60 DUP4 ADD MLOAD AND DUP2 SLOAD SWAP1 PUSH2 0xFF00 PUSH1 0x80 DUP6 ADD MLOAD PUSH1 0x8 SHL AND SWAP1 PUSH3 0xFF0000 PUSH1 0xA0 DUP7 ADD MLOAD ISZERO ISZERO PUSH1 0x10 SHL AND SWAP3 PUSH3 0xFFFFFF NOT AND OR OR OR SWAP1 SSTORE ADD MLOAD SWAP2 ADD SSTORE PUSH1 0x7 SLOAD SWAP1 PUSH9 0x10000000000000000 DUP3 LT ISZERO PUSH3 0xCB1 JUMPI PUSH1 0x1 DUP3 ADD DUP1 PUSH1 0x7 SSTORE DUP3 LT ISZERO PUSH3 0xC9B JUMPI PUSH3 0x23A DUP2 PUSH3 0x813 SWAP4 PUSH1 0x7 PUSH1 0x0 MSTORE PUSH1 0x20 PUSH1 0x0 KECCAK256 ADD PUSH3 0xD7E JUMP JUMPDEST SUB SWAP1 KECCAK256 PUSH1 0x0 DUP1 MLOAD PUSH1 0x20 PUSH3 0x312F DUP4 CODECOPY DUP2 MLOAD SWAP2 MSTORE PUSH1 0x40 DUP1 MLOAD PUSH1 0x0 DUP2 MSTORE PUSH1 0x50 PUSH1 0x20 DUP3 ADD MSTORE LOG2 PUSH3 0x840 PUSH3 0xD31 JUMP JUMPDEST PUSH1 0x12 DUP2 MSTORE PUSH18 0x3634B8BAB4B234BA3CA83937BB34B9B4B7B7 PUSH1 0x71 SHL PUSH1 0x20 DUP3 ADD MSTORE PUSH1 0xFF PUSH1 0x3 PUSH1 0x40 MLOAD PUSH1 0x20 DUP2 PUSH3 0x875 DUP2 DUP8 PUSH3 0xD51 JUMP JUMPDEST DUP5 DUP2 MSTORE SUB ADD SWAP1 KECCAK256 ADD SLOAD PUSH1 0x10 SHR AND PUSH3 0xCC7 JUMPI PUSH3 0x891 PUSH3 0xD11 JUMP JUMPDEST DUP2 DUP2 MSTORE PUSH1 0x0 PUSH1 0x20 DUP3 ADD MSTORE PUSH1 0x46 PUSH1 0x40 DUP3 ADD MSTORE PUSH1 0x0 PUSH1 0x60 DUP3 ADD MSTORE PUSH1 0x1 PUSH1 0x80 DUP3 ADD MSTORE PUSH1 0x1 PUSH1 0xA0 DUP3 ADD MSTORE TIMESTAMP PUSH1 0xC0 DUP3 ADD MSTORE PUSH1 0x4 PUSH1 0xC0 PUSH1 0x40 MLOAD PUSH1 0x20 DUP2 PUSH3 0x8D3 DUP2 DUP9 PUSH3 0xD51 JUMP JUMPDEST PUSH1 0x3 DUP2 MSTORE SUB ADD SWAP1 KECCAK256 SWAP3 PUSH3 0x8E9 DUP2 MLOAD DUP6 PUSH3 0xD7E JUMP JUMPDEST PUSH1 0x1 DUP5 ADD PUSH1 0xFF PUSH1 0x20 DUP4 ADD MLOAD AND PUSH1 0xFF NOT DUP3 SLOAD AND OR SWAP1 SSTORE PUSH1 0x40 DUP2 ADD MLOAD PUSH1 0x2 DUP6 ADD SSTORE PUSH1 0x3 DUP5 ADD PUSH1 0xFF PUSH1 0x60 DUP4 ADD MLOAD AND DUP2 SLOAD SWAP1 PUSH2 0xFF00 PUSH1 0x80 DUP6 ADD MLOAD PUSH1 0x8 SHL AND SWAP1 PUSH3 0xFF0000 PUSH1 0xA0 DUP7 ADD MLOAD ISZERO ISZERO PUSH1 0x10 SHL AND SWAP3 PUSH3 0xFFFFFF NOT AND OR OR OR SWAP1 SSTORE ADD MLOAD SWAP2 ADD SSTORE PUSH1 0x7 SLOAD SWAP1 PUSH9 0x10000000000000000 DUP3 LT ISZERO PUSH3 0xCB1 JUMPI PUSH1 0x1 DUP3 ADD DUP1 PUSH1 0x7 SSTORE DUP3 LT ISZERO PUSH3 0xC9B JUMPI PUSH3 0x23A DUP2 PUSH3 0x985 SWAP4 PUSH1 0x7 PUSH1 0x0 MSTORE PUSH1 0x20 PUSH1 0x0 KECCAK256 ADD PUSH3 0xD7E JUMP JUMPDEST SUB SWAP1 KECCAK256 PUSH1 0x0 DUP1 MLOAD PUSH1 0x20 PUSH3 0x312F DUP4 CODECOPY DUP2 MLOAD SWAP2 MSTORE PUSH1 0x40 DUP1 MLOAD PUSH1 0x0 DUP2 MSTORE PUSH1 0x46 PUSH1 0x20 DUP3 ADD MSTORE LOG2 PUSH3 0x9B2 PUSH3 0xD31 JUMP JUMPDEST PUSH1 0x11 DUP2 MSTORE PUSH17 0x636F6C6C61746572616C5374616B696E67 PUSH1 0x78 SHL PUSH1 0x20 DUP3 ADD MSTORE PUSH1 0xFF PUSH1 0x3 PUSH1 0x40 MLOAD PUSH1 0x20 DUP2 PUSH3 0x9E6 DUP2 DUP8 PUSH3 0xD51 JUMP JUMPDEST DUP5 DUP2 MSTORE SUB ADD SWAP1 KECCAK256 ADD SLOAD PUSH1 0x10 SHR AND PUSH3 0xCC7 JUMPI PUSH3 0xA02 PUSH3 0xD11 JUMP JUMPDEST DUP2 DUP2 MSTORE PUSH1 0x0 PUSH1 0x20 DUP3 ADD MSTORE PUSH1 0x3C PUSH1 0x40 DUP3 ADD MSTORE PUSH1 0x0 PUSH1 0x60 DUP3 ADD MSTORE PUSH1 0x1 PUSH1 0x80 DUP3 ADD MSTORE PUSH1 0x1 PUSH1 0xA0 DUP3 ADD MSTORE TIMESTAMP PUSH1 0xC0 DUP3 ADD MSTORE PUSH1 0x4 PUSH1 0xC0 PUSH1 0x40 MLOAD PUSH1 0x20 DUP2 PUSH3 0xA44 DUP2 DUP9 PUSH3 0xD51 JUMP JUMPDEST PUSH1 0x3 DUP2 MSTORE SUB ADD SWAP1 KECCAK256 SWAP3 PUSH3 0xA5A DUP2 MLOAD DUP6 PUSH3 0xD7E JUMP JUMPDEST PUSH1 0x1 DUP5 ADD PUSH1 0xFF PUSH1 0x20 DUP4 ADD MLOAD AND PUSH1 0xFF NOT DUP3 SLOAD AND OR SWAP1 SSTORE PUSH1 0x40 DUP2 ADD MLOAD PUSH1 0x2 DUP6 ADD SSTORE PUSH1 0x3 DUP5 ADD PUSH1 0xFF PUSH1 0x60 DUP4 ADD MLOAD AND DUP2 SLOAD SWAP1 PUSH2 0xFF00 PUSH1 0x80 DUP6 ADD MLOAD PUSH1 0x8 SHL AND SWAP1 PUSH3 0xFF0000 PUSH1 0xA0 DUP7 ADD MLOAD ISZERO ISZERO PUSH1 0x10 SHL AND SWAP3 PUSH3 0xFFFFFF NOT AND OR OR OR SWAP1 SSTORE ADD MLOAD SWAP2 ADD SSTORE PUSH1 0x7 SLOAD SWAP1 PUSH9 0x10000000000000000 DUP3 LT ISZERO PUSH3 0xCB1 JUMPI PUSH1 0x1 DUP3 ADD DUP1 PUSH1 0x7 SSTORE DUP3 LT ISZERO PUSH3 0xC9B JUMPI PUSH3 0x23A DUP2 PUSH3 0xAF6 SWAP4 PUSH1 0x7 PUSH1 0x0 MSTORE PUSH1 0x20 PUSH1 0x0 KECCAK256 ADD PUSH3 0xD7E JUMP JUMPDEST SUB SWAP1 KECCAK256 PUSH1 0x0 DUP1 MLOAD PUSH1 0x20 PUSH3 0x312F DUP4 CODECOPY DUP2 MLOAD SWAP2 MSTORE PUSH1 0x40 DUP1 MLOAD PUSH1 0x0 DUP2 MSTORE PUSH1 0x3C PUSH1 0x20 DUP3 ADD MSTORE LOG2 PUSH3 0xB23 PUSH3 0xD31 JUMP JUMPDEST PUSH1 0x12 DUP2 MSTORE PUSH18 0x63726F7373436861696E4163746976697479 PUSH1 0x70 SHL PUSH1 0x20 DUP3 ADD MSTORE PUSH1 0xFF PUSH1 0x3 PUSH1 0x40 MLOAD PUSH1 0x20 DUP2 PUSH3 0xB58 DUP2 DUP8 PUSH3 0xD51 JUMP JUMPDEST DUP5 DUP2 MSTORE SUB ADD SWAP1 KECCAK256 ADD SLOAD PUSH1 0x10 SHR AND PUSH3 0xCC7 JUMPI PUSH3 0xB74 PUSH3 0xD11 JUMP JUMPDEST DUP2 DUP2 MSTORE PUSH1 0x0 PUSH1 0x20 DUP3 ADD MSTORE PUSH1 0x32 PUSH1 0x40 DUP3 ADD MSTORE PUSH1 0x0 PUSH1 0x60 DUP3 ADD MSTORE PUSH1 0x1 PUSH1 0x80 DUP3 ADD MSTORE PUSH1 0x1 PUSH1 0xA0 DUP3 ADD MSTORE TIMESTAMP PUSH1 0xC0 DUP3 ADD MSTORE PUSH1 0x4 PUSH1 0xC0 PUSH1 0x40 MLOAD PUSH1 0x20 DUP2 PUSH3 0xBB6 DUP2 DUP9 PUSH3 0xD51 JUMP JUMPDEST PUSH1 0x3 DUP2 MSTORE SUB ADD SWAP1 KECCAK256 SWAP3 PUSH3 0xBCC DUP2 MLOAD DUP6 PUSH3 0xD7E JUMP JUMPDEST PUSH1 0x1 DUP5 ADD PUSH1 0xFF PUSH1 0x20 DUP4 ADD MLOAD AND PUSH1 0xFF NOT DUP3 SLOAD AND OR SWAP1 SSTORE PUSH1 0x40 DUP2 ADD MLOAD PUSH1 0x2 DUP6 ADD SSTORE PUSH1 0x3 DUP5 ADD PUSH1 0xFF PUSH1 0x60 DUP4 ADD MLOAD AND DUP2 SLOAD SWAP1 PUSH2 0xFF00 PUSH1 0x80 DUP6 ADD MLOAD PUSH1 0x8 SHL AND SWAP1 PUSH3 0xFF0000 PUSH1 0xA0 DUP7 ADD MLOAD ISZERO ISZERO PUSH1 0x10 SHL AND SWAP3 PUSH3 0xFFFFFF NOT AND OR OR OR SWAP1 SSTORE ADD MLOAD SWAP2 ADD SSTORE PUSH1 0x7 SLOAD SWAP1 PUSH9 0x10000000000000000 DUP3 LT ISZERO PUSH3 0xCB1 JUMPI PUSH1 0x1 DUP3 ADD DUP1 PUSH1 0x7 SSTORE DUP3 LT ISZERO PUSH3 0xC9B JUMPI PUSH3 0x23A DUP2 PUSH3 0xC68 SWAP4 PUSH1 0x7 PUSH1 0x0 MSTORE PUSH1 0x20 PUSH1 0x0 KECCAK256 ADD PUSH3 0xD7E JUMP JUMPDEST SUB SWAP1 KECCAK256 PUSH1 0x0 DUP1 MLOAD PUSH1 0x20 PUSH3 0x312F DUP4 CODECOPY DUP2 MLOAD SWAP2 MSTORE PUSH1 0x40 DUP1 MLOAD PUSH1 0x0 DUP2 MSTORE PUSH1 0x32 PUSH1 0x20 DUP3 ADD MSTORE LOG2 PUSH1 0x40 MLOAD PUSH2 0x205E SWAP1 DUP2 PUSH3 0x10D1 DUP3 CODECOPY RETURN JUMPDEST PUSH4 0x4E487B71 PUSH1 0xE0 SHL PUSH1 0x0 MSTORE PUSH1 0x32 PUSH1 0x4 MSTORE PUSH1 0x24 PUSH1 0x0 REVERT JUMPDEST PUSH4 0x4E487B71 PUSH1 0xE0 SHL PUSH1 0x0 MSTORE PUSH1 0x41 PUSH1 0x4 MSTORE PUSH1 0x24 PUSH1 0x0 REVERT JUMPDEST PUSH1 0x40 MLOAD PUSH3 0x461BCD PUSH1 0xE5 SHL DUP2 MSTORE PUSH1 0x20 PUSH1 0x4 DUP3 ADD MSTORE PUSH1 0x14 PUSH1 0x24 DUP3 ADD MSTORE PUSH32 0x4669656C6420616C726561647920657869737473000000000000000000000000 PUSH1 0x44 DUP3 ADD MSTORE PUSH1 0x64 SWAP1 REVERT JUMPDEST PUSH1 0x0 DUP1 REVERT JUMPDEST PUSH1 0x40 MLOAD SWAP1 PUSH1 0xE0 DUP3 ADD PUSH1 0x1 PUSH1 0x1 PUSH1 0x40 SHL SUB DUP2 GT DUP4 DUP3 LT OR PUSH3 0xCB1 JUMPI PUSH1 0x40 MSTORE JUMP JUMPDEST PUSH1 0x40 DUP1 MLOAD SWAP2 SWAP1 DUP3 ADD PUSH1 0x1 PUSH1 0x1 PUSH1 0x40 SHL SUB DUP2 GT DUP4 DUP3 LT OR PUSH3 0xCB1 JUMPI PUSH1 0x40 MSTORE JUMP JUMPDEST SWAP1 DUP2 MLOAD SWAP2 PUSH1 0x0 JUMPDEST DUP4 DUP2 LT PUSH3 0xD6A JUMPI POP POP ADD PUSH1 0x0 DUP2 MSTORE SWAP1 JUMP JUMPDEST DUP1 PUSH1 0x20 DUP1 SWAP3 DUP5 ADD ADD MLOAD DUP2 DUP6 ADD MSTORE ADD PUSH3 0xD58 JUMP JUMPDEST DUP2 MLOAD SWAP1 SWAP2 SWAP1 PUSH1 0x1 PUSH1 0x1 PUSH1 0x40 SHL SUB DUP2 GT PUSH3 0xCB1 JUMPI DUP3 SLOAD PUSH1 0x1 SWAP3 DUP4 DUP3 AND SWAP2 DUP5 SHR DUP3 ISZERO PUSH3 0xEC3 JUMPI JUMPDEST PUSH1 0x20 SWAP3 DUP4 DUP3 LT EQ PUSH3 0xEAD JUMPI PUSH1 0x1F DUP2 GT PUSH3 0xE5F JUMPI JUMPDEST POP DUP2 PUSH1 0x1F DUP5 GT PUSH1 0x1 EQ PUSH3 0xDF8 JUMPI POP SWAP3 DUP3 SWAP4 SWAP2 DUP4 SWAP3 PUSH1 0x0 SWAP5 PUSH3 0xDEC JUMPI JUMPDEST POP POP SHL SWAP2 PUSH1 0x0 NOT SWAP1 PUSH1 0x3 SHL SHR NOT AND OR SWAP1 SSTORE JUMP JUMPDEST ADD MLOAD SWAP3 POP CODESIZE DUP1 PUSH3 0xDD9 JUMP JUMPDEST SWAP2 SWAP1 DUP4 PUSH1 0x1F NOT DUP2 AND DUP8 PUSH1 0x0 MSTORE DUP5 PUSH1 0x0 KECCAK256 SWAP5 PUSH1 0x0 SWAP1 JUMPDEST DUP9 DUP4 DUP4 LT PUSH3 0xE44 JUMPI POP POP POP LT PUSH3 0xE2A JUMPI JUMPDEST POP POP POP DUP2 SHL ADD SWAP1 SSTORE JUMP JUMPDEST ADD MLOAD PUSH1 0x0 NOT PUSH1 0xF8 DUP5 PUSH1 0x3 SHL AND SHR NOT AND SWAP1 SSTORE CODESIZE DUP1 DUP1 PUSH3 0xE20 JUMP JUMPDEST DUP6 DUP8 ADD MLOAD DUP9 SSTORE SWAP1 SWAP7 ADD SWAP6 SWAP5 DUP6 ADD SWAP5 DUP8 SWAP4 POP SWAP1 DUP2 ADD SWAP1 PUSH3 0xE0D JUMP JUMPDEST DUP6 PUSH1 0x0 MSTORE DUP3 PUSH1 0x0 KECCAK256 PUSH1 0x1F DUP6 ADD PUSH1 0x5 SHR DUP2 ADD SWAP2 DUP5 DUP7 LT PUSH3 0xEA2 JUMPI JUMPDEST PUSH1 0x1F ADD PUSH1 0x5 SHR ADD SWAP1 DUP6 SWAP1 JUMPDEST DUP3 DUP2 LT PUSH3 0xE95 JUMPI POP POP PUSH3 0xDBB JUMP JUMPDEST PUSH1 0x0 DUP2 SSTORE ADD DUP6 SWAP1 PUSH3 0xE85 JUMP JUMPDEST SWAP1 SWAP2 POP DUP2 SWAP1 PUSH3 0xE7A JUMP JUMPDEST PUSH4 0x4E487B71 PUSH1 0xE0 SHL PUSH1 0x0 MSTORE PUSH1 0x22 PUSH1 0x4 MSTORE PUSH1 0x24 PUSH1 0x0 REVERT JUMPDEST PUSH1 0x7F AND PUSH3 0xDA5 JUMP JUMPDEST DUP1 MLOAD ISZERO PUSH3 0x108B JUMPI PUSH1 0x40 DUP1 MLOAD SWAP2 PUSH1 0xFF PUSH1 0x3 DUP5 PUSH3 0xEEA DUP2 DUP6 PUSH3 0xD51 JUMP JUMPDEST DUP3 DUP2 MSTORE PUSH1 0x20 SWAP7 DUP8 SWAP2 SUB ADD SWAP1 KECCAK256 ADD SLOAD PUSH1 0x10 SHR AND PUSH3 0x1047 JUMPI PUSH3 0xF0B PUSH3 0xD11 JUMP JUMPDEST SWAP1 DUP1 DUP3 MSTORE DUP4 DUP3 ADD SWAP2 PUSH1 0x4 DUP5 PUSH1 0x0 SWAP5 DUP6 DUP2 MSTORE DUP2 DUP5 ADD PUSH1 0x96 DUP2 MSTORE PUSH1 0x60 DUP6 ADD SWAP2 DUP8 DUP4 MSTORE PUSH1 0x80 DUP7 ADD SWAP2 DUP9 DUP4 MSTORE PUSH1 0xA0 DUP8 ADD SWAP2 PUSH1 0x1 DUP4 MSTORE PUSH3 0xF6A PUSH3 0xF59 DUP14 DUP12 PUSH1 0xC0 DUP13 ADD SWAP10 TIMESTAMP DUP12 MSTORE MLOAD SWAP3 DUP4 DUP1 SWAP3 PUSH3 0xD51 JUMP JUMPDEST PUSH1 0x3 DUP2 MSTORE SUB ADD SWAP1 KECCAK256 SWAP9 MLOAD DUP10 PUSH3 0xD7E JUMP JUMPDEST PUSH1 0xFF PUSH1 0x1 DUP10 ADD SWAP2 MLOAD AND PUSH1 0xFF NOT DUP3 SLOAD AND OR SWAP1 SSTORE MLOAD PUSH1 0x2 DUP8 ADD SSTORE PUSH1 0xFF PUSH1 0x3 DUP8 ADD SWAP4 MLOAD AND PUSH3 0xFF0000 PUSH2 0xFF00 DUP6 SLOAD SWAP5 MLOAD PUSH1 0x8 SHL AND SWAP3 MLOAD ISZERO ISZERO PUSH1 0x10 SHL AND SWAP3 PUSH3 0xFFFFFF NOT AND OR OR OR SWAP1 SSTORE MLOAD SWAP2 ADD SSTORE PUSH1 0x7 SLOAD PUSH9 0x10000000000000000 DUP2 LT ISZERO PUSH3 0x1033 JUMPI PUSH1 0x1 DUP2 ADD DUP1 PUSH1 0x7 SSTORE DUP2 LT ISZERO PUSH3 0x101F JUMPI PUSH3 0x1010 DUP3 PUSH3 0x1004 DUP6 SWAP5 PUSH1 0x96 SWAP5 PUSH1 0x7 PUSH1 0x0 DUP1 MLOAD PUSH1 0x20 PUSH3 0x312F DUP4 CODECOPY DUP2 MLOAD SWAP2 MSTORE SWAP10 SWAP9 MSTORE DUP10 DUP8 KECCAK256 ADD PUSH3 0xD7E JUMP JUMPDEST DUP5 MLOAD SWAP2 DUP3 DUP1 SWAP3 PUSH3 0xD51 JUMP JUMPDEST SUB SWAP1 KECCAK256 SWAP5 DUP4 MLOAD SWAP3 DUP4 MSTORE DUP3 ADD MSTORE LOG2 JUMP JUMPDEST PUSH4 0x4E487B71 PUSH1 0xE0 SHL DUP4 MSTORE PUSH1 0x32 PUSH1 0x4 MSTORE PUSH1 0x24 DUP4 REVERT JUMPDEST PUSH4 0x4E487B71 PUSH1 0xE0 SHL DUP4 MSTORE PUSH1 0x41 PUSH1 0x4 MSTORE PUSH1 0x24 DUP4 REVERT JUMPDEST DUP2 MLOAD PUSH3 0x461BCD PUSH1 0xE5 SHL DUP2 MSTORE PUSH1 0x4 DUP2 ADD DUP5 SWAP1 MSTORE PUSH1 0x14 PUSH1 0x24 DUP3 ADD MSTORE PUSH32 0x4669656C6420616C726561647920657869737473000000000000000000000000 PUSH1 0x44 DUP3 ADD MSTORE PUSH1 0x64 SWAP1 REVERT JUMPDEST PUSH1 0x40 MLOAD PUSH3 0x461BCD PUSH1 0xE5 SHL DUP2 MSTORE PUSH1 0x20 PUSH1 0x4 DUP3 ADD MSTORE PUSH1 0x1A PUSH1 0x24 DUP3 ADD MSTORE PUSH32 0x4669656C64206E616D652063616E6E6F7420626520656D707479000000000000 PUSH1 0x44 DUP3 ADD MSTORE PUSH1 0x64 SWAP1 REVERT INVALID PUSH1 0x80 DUP1 PUSH1 0x40 MSTORE PUSH1 0x4 CALLDATASIZE LT ISZERO PUSH2 0x13 JUMPI PUSH1 0x0 DUP1 REVERT JUMPDEST PUSH1 0x0 CALLDATALOAD PUSH1 0xE0 SHR SWAP1 DUP2 PUSH4 0x57E709C EQ PUSH2 0x19BA JUMPI POP DUP1 PUSH4 0x12DF0FC4 EQ PUSH2 0x18F5 JUMPI DUP1 PUSH4 0x2588B449 EQ PUSH2 0x15D8 JUMPI DUP1 PUSH4 0x31CC13BA EQ PUSH2 0x14AB JUMPI DUP1 PUSH4 0x32412D82 EQ PUSH2 0x11E4 JUMPI DUP1 PUSH4 0x35DBB0B7 EQ PUSH2 0x5B0 JUMPI DUP1 PUSH4 0x4DA267AB EQ PUSH2 0xE05 JUMPI DUP1 PUSH4 0x501A4A0A EQ PUSH2 0xCE1 JUMPI DUP1 PUSH4 0x552A2CB6 EQ PUSH2 0xCC3 JUMPI DUP1 PUSH4 0x5E09EEA1 EQ PUSH2 0xB1A JUMPI DUP1 PUSH4 0x5FBE2121 EQ PUSH2 0x9C1 JUMPI DUP1 PUSH4 0x603CDA09 EQ PUSH2 0x97F JUMPI DUP1 PUSH4 0x715018A6 EQ PUSH2 0x926 JUMPI DUP1 PUSH4 0x72DE66BE EQ PUSH2 0x908 JUMPI DUP1 PUSH4 0x74C8D377 EQ PUSH2 0x6DE JUMPI DUP1 PUSH4 0x7DC01BFA EQ PUSH2 0x8EA JUMPI DUP1 PUSH4 0x8456CB59 EQ PUSH2 0x8CF JUMPI DUP1 PUSH4 0x8C9B9FDC EQ PUSH2 0x88A JUMPI DUP1 PUSH4 0x8DA5CB5B EQ PUSH2 0x861 JUMPI DUP1 PUSH4 0x8FF29CFE EQ PUSH2 0x822 JUMPI DUP1 PUSH4 0x99D45A46 EQ PUSH2 0x6E3 JUMPI DUP1 PUSH4 0xAEEB12D5 EQ PUSH2 0x6DE JUMPI DUP1 PUSH4 0xB2D3DD66 EQ PUSH2 0x679 JUMPI DUP1 PUSH4 0xB566A047 EQ PUSH2 0x624 JUMPI DUP1 PUSH4 0xCA8B052F EQ PUSH2 0x5EA JUMPI DUP1 PUSH4 0xCFCD9031 EQ PUSH2 0x5B0 JUMPI DUP1 PUSH4 0xE04A8B7E EQ PUSH2 0x4EF JUMPI DUP1 PUSH4 0xE0B3D019 EQ PUSH2 0x428 JUMPI DUP1 PUSH4 0xE1C95D1F EQ PUSH2 0x33F JUMPI DUP1 PUSH4 0xE67355D1 EQ PUSH2 0x2B8 JUMPI DUP1 PUSH4 0xF0B6D592 EQ PUSH2 0x276 JUMPI DUP1 PUSH4 0xF2FDE38B EQ PUSH2 0x1AD JUMPI PUSH4 0xF46978AA EQ PUSH2 0x18A JUMPI PUSH1 0x0 DUP1 REVERT JUMPDEST CALLVALUE PUSH2 0x1A8 JUMPI PUSH1 0x0 CALLDATASIZE PUSH1 0x3 NOT ADD SLT PUSH2 0x1A8 JUMPI PUSH1 0x20 PUSH1 0x9 SLOAD PUSH1 0x40 MLOAD SWAP1 DUP2 MSTORE RETURN JUMPDEST PUSH1 0x0 DUP1 REVERT JUMPDEST CALLVALUE PUSH2 0x1A8 JUMPI PUSH1 0x20 CALLDATASIZE PUSH1 0x3 NOT ADD SLT PUSH2 0x1A8 JUMPI PUSH2 0x1C6 PUSH2 0x19D4 JUMP JUMPDEST PUSH2 0x1CE PUSH2 0x1D00 JUMP JUMPDEST PUSH1 0x1 PUSH1 0x1 PUSH1 0xA0 SHL SUB SWAP1 DUP2 AND SWAP1 DUP2 ISZERO PUSH2 0x222 JUMPI PUSH1 0x0 SLOAD DUP3 PUSH12 0xFFFFFFFFFFFFFFFFFFFFFFFF PUSH1 0xA0 SHL DUP3 AND OR PUSH1 0x0 SSTORE AND PUSH32 0x8BE0079C531659141344CD1FD0A4F28419497F9722A3DAAFE3B4186F6B6457E0 PUSH1 0x0 DUP1 LOG3 STOP JUMPDEST PUSH1 0x40 MLOAD PUSH3 0x461BCD PUSH1 0xE5 SHL DUP2 MSTORE PUSH1 0x20 PUSH1 0x4 DUP3 ADD MSTORE PUSH1 0x26 PUSH1 0x24 DUP3 ADD MSTORE PUSH32 0x4F776E61626C653A206E6577206F776E657220697320746865207A65726F2061 PUSH1 0x44 DUP3 ADD MSTORE PUSH6 0x646472657373 PUSH1 0xD0 SHL PUSH1 0x64 DUP3 ADD MSTORE PUSH1 0x84 SWAP1 REVERT JUMPDEST CALLVALUE PUSH2 0x1A8 JUMPI PUSH1 0x20 CALLDATASIZE PUSH1 0x3 NOT ADD SLT PUSH2 0x1A8 JUMPI PUSH1 0x4 CALLDATALOAD PUSH1 0x8 SLOAD DUP2 LT ISZERO PUSH2 0x1A8 JUMPI PUSH2 0x29F PUSH1 0x20 SWAP2 PUSH2 0x1BA7 JUMP JUMPDEST SWAP1 SLOAD PUSH1 0x40 MLOAD PUSH1 0x3 SWAP3 SWAP1 SWAP3 SHL SHR PUSH1 0x1 PUSH1 0x1 PUSH1 0xA0 SHL SUB AND DUP2 MSTORE RETURN JUMPDEST CALLVALUE PUSH2 0x1A8 JUMPI PUSH1 0x40 CALLDATASIZE PUSH1 0x3 NOT ADD SLT PUSH2 0x1A8 JUMPI PUSH2 0x2D1 PUSH2 0x19D4 JUMP JUMPDEST PUSH1 0x24 CALLDATALOAD SWAP1 PUSH1 0x1 DUP1 PUSH1 0xA0 SHL SUB DUP1 SWAP2 AND PUSH1 0x0 MSTORE PUSH1 0x5 PUSH1 0x20 MSTORE PUSH1 0x40 PUSH1 0x0 KECCAK256 DUP1 SLOAD DUP4 LT ISZERO PUSH2 0x1A8 JUMPI PUSH1 0xA0 SWAP3 PUSH2 0x301 SWAP2 PUSH2 0x1CE4 JUMP JUMPDEST POP DUP2 DUP2 SLOAD AND SWAP2 PUSH1 0x1 DUP3 ADD SLOAD AND SWAP1 PUSH1 0x2 DUP2 ADD SLOAD PUSH1 0xFF PUSH1 0x4 PUSH1 0x3 DUP5 ADD SLOAD SWAP4 ADD SLOAD AND SWAP3 PUSH1 0x40 MLOAD SWAP5 DUP6 MSTORE PUSH1 0x20 DUP6 ADD MSTORE PUSH1 0x40 DUP5 ADD MSTORE PUSH1 0x60 DUP4 ADD MSTORE ISZERO ISZERO PUSH1 0x80 DUP3 ADD MSTORE RETURN JUMPDEST CALLVALUE PUSH2 0x1A8 JUMPI PUSH1 0x0 CALLDATASIZE PUSH1 0x3 NOT ADD SLT PUSH2 0x1A8 JUMPI PUSH1 0x7 SLOAD PUSH2 0x35C DUP2 PUSH2 0x1FC0 JUMP JUMPDEST SWAP1 PUSH2 0x36A PUSH1 0x40 MLOAD SWAP3 DUP4 PUSH2 0x1A3C JUMP JUMPDEST DUP1 DUP3 MSTORE PUSH1 0x20 SWAP1 DUP2 DUP4 ADD SWAP1 DUP2 PUSH1 0x7 PUSH1 0x0 MSTORE PUSH32 0xA66CC928B5EDB82AF9BD49922954155AB7B0942694BEA4CE44661D9A8736C688 PUSH1 0x0 SWAP2 JUMPDEST DUP4 DUP4 LT PUSH2 0x406 JUMPI POP POP POP POP PUSH1 0x40 MLOAD SWAP2 DUP1 DUP4 ADD SWAP4 DUP2 DUP5 MSTORE MLOAD DUP1 SWAP5 MSTORE PUSH1 0x40 DUP4 ADD SWAP4 PUSH1 0x40 DUP2 PUSH1 0x5 SHL DUP6 ADD ADD SWAP3 SWAP2 PUSH1 0x0 SWAP6 JUMPDEST DUP3 DUP8 LT PUSH2 0x3DA JUMPI DUP6 DUP6 SUB DUP7 RETURN JUMPDEST SWAP1 SWAP2 SWAP3 SWAP4 DUP3 DUP1 PUSH2 0x3F6 PUSH1 0x1 SWAP4 PUSH1 0x3F NOT DUP11 DUP3 SUB ADD DUP7 MSTORE DUP9 MLOAD PUSH2 0x1B35 JUMP JUMPDEST SWAP7 ADD SWAP3 ADD SWAP7 ADD SWAP6 SWAP3 SWAP2 SWAP1 SWAP3 PUSH2 0x3CD JUMP JUMPDEST PUSH1 0x1 DUP7 DUP2 SWAP3 PUSH2 0x417 DUP6 SWAP11 SWAP10 SWAP11 PUSH2 0x1C18 JUMP JUMPDEST DUP2 MSTORE ADD SWAP3 ADD SWAP3 ADD SWAP2 SWAP1 SWAP6 SWAP5 SWAP6 PUSH2 0x39F JUMP JUMPDEST CALLVALUE PUSH2 0x1A8 JUMPI PUSH1 0x40 CALLDATASIZE PUSH1 0x3 NOT ADD SLT PUSH2 0x1A8 JUMPI PUSH1 0x4 CALLDATALOAD PUSH1 0x1 PUSH1 0x1 PUSH1 0x40 SHL SUB DUP2 GT PUSH2 0x1A8 JUMPI PUSH2 0x458 SWAP1 CALLDATASIZE SWAP1 PUSH1 0x4 ADD PUSH2 0x1A5D JUMP JUMPDEST PUSH32 0x6E6773452FCD29178821DC7591BB185D1421455B332412EF6AF88D447A4323E7 PUSH1 0x20 PUSH2 0x4E5 PUSH1 0x24 CALLDATALOAD SWAP4 PUSH2 0x48A PUSH2 0x1D00 JUMP JUMPDEST DUP5 PUSH1 0x2 PUSH2 0x4D4 DUP6 PUSH1 0x40 MLOAD PUSH2 0x4C3 PUSH1 0xFF PUSH1 0x3 DUP9 MLOAD SWAP4 DUP6 DUP2 DUP2 DUP13 ADD SWAP7 PUSH2 0x4AF DUP2 DUP4 DUP11 PUSH2 0x1B12 JUMP JUMPDEST DUP2 ADD DUP5 DUP2 MSTORE SUB ADD SWAP1 KECCAK256 ADD SLOAD PUSH1 0x10 SHR AND PUSH2 0x1F22 JUMP JUMPDEST PUSH1 0x40 MLOAD DUP1 SWAP4 DUP2 SWAP3 DUP9 MLOAD SWAP3 DUP4 SWAP2 PUSH2 0x1B12 JUMP JUMPDEST DUP2 ADD PUSH1 0x3 DUP2 MSTORE SUB ADD SWAP1 KECCAK256 ADD SSTORE PUSH2 0x1E67 JUMP JUMPDEST SWAP3 PUSH1 0x40 MLOAD SWAP1 DUP2 MSTORE LOG2 STOP JUMPDEST CALLVALUE PUSH2 0x1A8 JUMPI PUSH1 0x20 CALLDATASIZE PUSH1 0x3 NOT ADD SLT PUSH2 0x1A8 JUMPI PUSH1 0x4 CALLDATALOAD PUSH1 0x1 PUSH1 0x1 PUSH1 0x40 SHL SUB DUP2 GT PUSH2 0x1A8 JUMPI PUSH2 0x53A PUSH1 0x20 PUSH2 0x527 PUSH2 0x57E SWAP4 CALLDATASIZE SWAP1 PUSH1 0x4 ADD PUSH2 0x1A5D JUMP JUMPDEST DUP2 PUSH1 0x40 MLOAD SWAP4 DUP3 DUP6 DUP1 SWAP5 MLOAD SWAP4 DUP5 SWAP3 ADD PUSH2 0x1B12 JUMP JUMPDEST DUP2 ADD PUSH1 0x3 DUP2 MSTORE SUB ADD SWAP1 KECCAK256 PUSH2 0x54D DUP2 PUSH2 0x1C18 JUMP JUMPDEST SWAP1 PUSH1 0xFF PUSH1 0x1 DUP3 ADD SLOAD AND SWAP1 PUSH1 0xFF PUSH1 0x2 DUP3 ADD SLOAD SWAP2 PUSH1 0x4 PUSH1 0x3 DUP3 ADD SLOAD SWAP2 ADD SLOAD SWAP3 PUSH1 0x40 MLOAD SWAP7 DUP8 SWAP7 PUSH1 0xE0 DUP9 MSTORE PUSH1 0xE0 DUP9 ADD SWAP1 PUSH2 0x1B35 JUMP JUMPDEST SWAP5 PUSH1 0x20 DUP8 ADD MSTORE PUSH1 0x40 DUP7 ADD MSTORE DUP2 DUP2 AND PUSH1 0x60 DUP7 ADD MSTORE DUP2 DUP2 PUSH1 0x8 SHR AND PUSH1 0x80 DUP7 ADD MSTORE PUSH1 0x10 SHR AND ISZERO ISZERO PUSH1 0xA0 DUP5 ADD MSTORE PUSH1 0xC0 DUP4 ADD MSTORE SUB SWAP1 RETURN JUMPDEST CALLVALUE PUSH2 0x1A8 JUMPI PUSH1 0x20 PUSH2 0x5E1 PUSH2 0x5C3 CALLDATASIZE PUSH2 0x1AB3 JUMP JUMPDEST PUSH1 0x1 PUSH1 0x1 PUSH1 0xA0 SHL SUB SWAP1 SWAP2 AND PUSH1 0x0 SWAP1 DUP2 MSTORE PUSH1 0x4 DUP5 MSTORE PUSH1 0x40 SWAP1 KECCAK256 SWAP1 PUSH2 0x1CBE JUMP JUMPDEST SLOAD PUSH1 0x40 MLOAD SWAP1 DUP2 MSTORE RETURN JUMPDEST CALLVALUE PUSH2 0x1A8 JUMPI PUSH1 0x20 CALLDATASIZE PUSH1 0x3 NOT ADD SLT PUSH2 0x1A8 JUMPI PUSH1 0x1 PUSH1 0x1 PUSH1 0xA0 SHL SUB PUSH2 0x60B PUSH2 0x19D4 JUMP JUMPDEST AND PUSH1 0x0 MSTORE PUSH1 0xD PUSH1 0x20 MSTORE PUSH1 0x20 PUSH1 0x40 PUSH1 0x0 KECCAK256 SLOAD PUSH1 0x40 MLOAD SWAP1 DUP2 MSTORE RETURN JUMPDEST CALLVALUE PUSH2 0x1A8 JUMPI PUSH1 0x40 CALLDATASIZE PUSH1 0x3 NOT ADD SLT PUSH2 0x1A8 JUMPI PUSH2 0x63D PUSH2 0x19D4 JUMP JUMPDEST PUSH1 0x1 PUSH1 0x1 PUSH1 0xA0 SHL SUB PUSH1 0x24 CALLDATALOAD DUP2 DUP2 AND SWAP3 SWAP1 DUP4 SWAP1 SUB PUSH2 0x1A8 JUMPI AND PUSH1 0x0 MSTORE PUSH1 0x6 PUSH1 0x20 MSTORE PUSH1 0x40 PUSH1 0x0 KECCAK256 SWAP1 PUSH1 0x0 MSTORE PUSH1 0x20 MSTORE PUSH1 0x20 PUSH1 0x40 PUSH1 0x0 KECCAK256 SLOAD PUSH1 0x40 MLOAD SWAP1 DUP2 MSTORE RETURN JUMPDEST CALLVALUE PUSH2 0x1A8 JUMPI PUSH1 0x20 CALLDATASIZE PUSH1 0x3 NOT ADD SLT PUSH2 0x1A8 JUMPI PUSH1 0x4 CALLDATALOAD PUSH1 0x7 SLOAD DUP2 LT ISZERO PUSH2 0x1A8 JUMPI PUSH2 0x6A0 SWAP1 PUSH2 0x1B5A JUMP JUMPDEST PUSH2 0x6C8 JUMPI PUSH2 0x6B0 PUSH2 0x6C4 SWAP2 PUSH2 0x1C18 JUMP JUMPDEST PUSH1 0x40 MLOAD SWAP2 DUP3 SWAP2 PUSH1 0x20 DUP4 MSTORE PUSH1 0x20 DUP4 ADD SWAP1 PUSH2 0x1B35 JUMP JUMPDEST SUB SWAP1 RETURN JUMPDEST PUSH4 0x4E487B71 PUSH1 0xE0 SHL PUSH1 0x0 MSTORE PUSH1 0x0 PUSH1 0x4 MSTORE PUSH1 0x24 PUSH1 0x0 REVERT JUMPDEST PUSH2 0x1AF5 JUMP JUMPDEST CALLVALUE PUSH2 0x1A8 JUMPI PUSH1 0x20 DUP1 PUSH1 0x3 NOT CALLDATASIZE ADD SLT PUSH2 0x1A8 JUMPI PUSH1 0x4 CALLDATALOAD PUSH1 0x1 PUSH1 0x1 PUSH1 0x40 SHL SUB DUP2 GT PUSH2 0x1A8 JUMPI DUP2 PUSH2 0x718 PUSH2 0x75E SWAP3 CALLDATASIZE SWAP1 PUSH1 0x4 ADD PUSH2 0x1A5D JUMP JUMPDEST PUSH1 0x0 PUSH1 0xC0 PUSH1 0x40 MLOAD PUSH2 0x728 DUP2 PUSH2 0x19EA JUMP JUMPDEST PUSH1 0x60 DUP2 MSTORE DUP3 DUP6 DUP3 ADD MSTORE DUP3 PUSH1 0x40 DUP3 ADD MSTORE DUP3 PUSH1 0x60 DUP3 ADD MSTORE DUP3 PUSH1 0x80 DUP3 ADD MSTORE DUP3 PUSH1 0xA0 DUP3 ADD MSTORE ADD MSTORE DUP2 PUSH1 0x40 MLOAD SWAP4 DUP3 DUP6 DUP1 SWAP5 MLOAD SWAP4 DUP5 SWAP3 ADD PUSH2 0x1B12 JUMP JUMPDEST DUP2 ADD PUSH1 0x3 DUP2 MSTORE SUB ADD SWAP1 KECCAK256 SWAP1 PUSH1 0x40 MLOAD SWAP2 PUSH2 0x776 DUP4 PUSH2 0x19EA JUMP JUMPDEST PUSH2 0x77F DUP2 PUSH2 0x1C18 JUMP JUMPDEST DUP4 MSTORE PUSH1 0xFF DUP1 PUSH1 0x1 DUP4 ADD SLOAD AND SWAP2 DUP4 DUP6 ADD SWAP3 DUP4 MSTORE PUSH1 0x2 DUP2 ADD SLOAD SWAP2 PUSH1 0x40 DUP7 ADD SWAP3 DUP4 MSTORE PUSH1 0x3 DUP3 ADD SLOAD SWAP2 DUP2 PUSH1 0x60 DUP9 ADD DUP2 DUP6 AND DUP2 MSTORE PUSH1 0x4 PUSH1 0x80 DUP11 ADD SWAP4 DUP4 DUP8 PUSH1 0x8 SHR AND DUP6 MSTORE DUP4 PUSH1 0xA0 DUP13 ADD SWAP8 PUSH1 0x10 SHR AND ISZERO ISZERO DUP8 MSTORE ADD SLOAD SWAP6 PUSH1 0xC0 DUP11 ADD SWAP7 DUP8 MSTORE DUP3 PUSH2 0x7F4 DUP11 PUSH1 0xE0 PUSH1 0x40 MLOAD SWAP14 DUP15 SWAP14 DUP15 MSTORE MLOAD SWAP2 DUP14 ADD MSTORE PUSH2 0x100 DUP13 ADD SWAP1 PUSH2 0x1B35 JUMP JUMPDEST SWAP9 MLOAD AND PUSH1 0x40 DUP11 ADD MSTORE MLOAD PUSH1 0x60 DUP10 ADD MSTORE MLOAD AND PUSH1 0x80 DUP8 ADD MSTORE MLOAD AND PUSH1 0xA0 DUP6 ADD MSTORE MLOAD ISZERO ISZERO PUSH1 0xC0 DUP5 ADD MSTORE MLOAD PUSH1 0xE0 DUP4 ADD MSTORE SUB SWAP1 RETURN JUMPDEST CALLVALUE PUSH2 0x1A8 JUMPI PUSH1 0x20 CALLDATASIZE PUSH1 0x3 NOT ADD SLT PUSH2 0x1A8 JUMPI PUSH1 0x1 PUSH1 0x1 PUSH1 0xA0 SHL SUB PUSH2 0x843 PUSH2 0x19D4 JUMP JUMPDEST AND PUSH1 0x0 MSTORE PUSH1 0xC PUSH1 0x20 MSTORE PUSH1 0x20 PUSH1 0xFF PUSH1 0x40 PUSH1 0x0 KECCAK256 SLOAD AND PUSH1 0x40 MLOAD SWAP1 ISZERO ISZERO DUP2 MSTORE RETURN JUMPDEST CALLVALUE PUSH2 0x1A8 JUMPI PUSH1 0x0 CALLDATASIZE PUSH1 0x3 NOT ADD SLT PUSH2 0x1A8 JUMPI PUSH1 0x0 SLOAD PUSH1 0x40 MLOAD PUSH1 0x1 PUSH1 0x1 PUSH1 0xA0 SHL SUB SWAP1 SWAP2 AND DUP2 MSTORE PUSH1 0x20 SWAP1 RETURN JUMPDEST CALLVALUE PUSH2 0x1A8 JUMPI PUSH1 0x20 CALLDATASIZE PUSH1 0x3 NOT ADD SLT PUSH2 0x1A8 JUMPI PUSH2 0x8A3 PUSH2 0x19D4 JUMP JUMPDEST PUSH2 0x8AB PUSH2 0x1D00 JUMP JUMPDEST PUSH1 0x1 PUSH1 0x1 PUSH1 0xA0 SHL SUB AND PUSH1 0x0 SWAP1 DUP2 MSTORE PUSH1 0xC PUSH1 0x20 MSTORE PUSH1 0x40 SWAP1 KECCAK256 DUP1 SLOAD PUSH1 0xFF NOT AND PUSH1 0x1 OR SWAP1 SSTORE STOP JUMPDEST CALLVALUE PUSH2 0x1A8 JUMPI PUSH1 0x0 CALLDATASIZE PUSH1 0x3 NOT ADD SLT PUSH2 0x1A8 JUMPI PUSH2 0x8E8 PUSH2 0x1D00 JUMP JUMPDEST STOP JUMPDEST CALLVALUE PUSH2 0x1A8 JUMPI PUSH1 0x0 CALLDATASIZE PUSH1 0x3 NOT ADD SLT PUSH2 0x1A8 JUMPI PUSH1 0x20 PUSH1 0xA SLOAD PUSH1 0x40 MLOAD SWAP1 DUP2 MSTORE RETURN JUMPDEST CALLVALUE PUSH2 0x1A8 JUMPI PUSH1 0x0 CALLDATASIZE PUSH1 0x3 NOT ADD SLT PUSH2 0x1A8 JUMPI PUSH1 0x20 PUSH1 0xB SLOAD PUSH1 0x40 MLOAD SWAP1 DUP2 MSTORE RETURN JUMPDEST CALLVALUE PUSH2 0x1A8 JUMPI PUSH1 0x0 CALLDATASIZE PUSH1 0x3 NOT ADD SLT PUSH2 0x1A8 JUMPI PUSH2 0x93F PUSH2 0x1D00 JUMP JUMPDEST PUSH1 0x0 DUP1 SLOAD PUSH1 0x1 PUSH1 0x1 PUSH1 0xA0 SHL SUB NOT DUP2 AND DUP3 SSTORE PUSH1 0x1 PUSH1 0x1 PUSH1 0xA0 SHL SUB AND PUSH32 0x8BE0079C531659141344CD1FD0A4F28419497F9722A3DAAFE3B4186F6B6457E0 DUP3 DUP1 LOG3 STOP JUMPDEST CALLVALUE PUSH2 0x1A8 JUMPI PUSH1 0x20 CALLDATASIZE PUSH1 0x3 NOT ADD SLT PUSH2 0x1A8 JUMPI PUSH2 0x998 PUSH2 0x19D4 JUMP JUMPDEST PUSH2 0x9A0 PUSH2 0x1D00 JUMP JUMPDEST PUSH1 0x1 PUSH1 0x1 PUSH1 0xA0 SHL SUB AND PUSH1 0x0 SWAP1 DUP2 MSTORE PUSH1 0xC PUSH1 0x20 MSTORE PUSH1 0x40 SWAP1 KECCAK256 DUP1 SLOAD PUSH1 0xFF NOT AND SWAP1 SSTORE STOP JUMPDEST CALLVALUE PUSH2 0x1A8 JUMPI PUSH1 0x20 DUP1 PUSH1 0x3 NOT CALLDATASIZE ADD SLT PUSH2 0x1A8 JUMPI PUSH2 0x9DB PUSH2 0x19D4 JUMP JUMPDEST PUSH2 0x9E3 PUSH2 0x1ECC JUMP JUMPDEST PUSH1 0x1 PUSH1 0x1 PUSH1 0xA0 SHL SUB SWAP1 DUP2 AND SWAP2 PUSH2 0x9FA DUP4 ISZERO ISZERO PUSH2 0x1F65 JUMP JUMPDEST CALLER PUSH1 0x0 MSTORE PUSH1 0x6 DUP2 MSTORE PUSH1 0x40 PUSH1 0x0 KECCAK256 DUP4 PUSH1 0x0 MSTORE DUP2 MSTORE PUSH1 0x40 PUSH1 0x0 KECCAK256 SLOAD ISZERO PUSH2 0xAE0 JUMPI CALLER PUSH1 0x0 MSTORE PUSH1 0x5 DUP2 MSTORE PUSH1 0x40 PUSH1 0x0 KECCAK256 DUP4 PUSH1 0x0 JUMPDEST DUP3 SLOAD DUP2 LT ISZERO PUSH2 0xAD6 JUMPI DUP2 DUP6 PUSH1 0x1 PUSH2 0xA40 DUP5 DUP8 PUSH2 0x1CE4 JUMP JUMPDEST POP ADD SLOAD AND EQ DUP1 PUSH2 0xABE JUMPI JUMPDEST PUSH2 0xA5D JUMPI PUSH2 0xA58 SWAP1 PUSH2 0x1FB1 JUMP JUMPDEST PUSH2 0xA29 JUMP JUMPDEST SWAP1 POP PUSH1 0x4 SWAP3 SWAP4 POP PUSH2 0xA6D SWAP2 PUSH2 0x1CE4 JUMP JUMPDEST POP ADD DUP1 SLOAD PUSH1 0xFF NOT AND SWAP1 SSTORE JUMPDEST CALLER PUSH1 0x0 MSTORE PUSH1 0x6 DUP2 MSTORE PUSH1 0x40 PUSH1 0x0 KECCAK256 SWAP1 DUP3 PUSH1 0x0 MSTORE MSTORE PUSH1 0x0 PUSH1 0x40 DUP2 KECCAK256 SSTORE CALLER PUSH32 0x5145EB55DDA20F7829838AF8F45D7E416F925A24CCC15AD0C788FB26A84A0E95 PUSH1 0x0 DUP1 LOG3 PUSH1 0x1 DUP1 SSTORE STOP JUMPDEST POP PUSH1 0xFF PUSH1 0x4 PUSH2 0xACD DUP4 DUP7 PUSH2 0x1CE4 JUMP JUMPDEST POP ADD SLOAD AND PUSH2 0xA4B JUMP JUMPDEST POP POP POP SWAP1 POP PUSH2 0xA78 JUMP JUMPDEST PUSH1 0x64 SWAP1 PUSH1 0x40 MLOAD SWAP1 PUSH3 0x461BCD PUSH1 0xE5 SHL DUP3 MSTORE PUSH1 0x4 DUP3 ADD MSTORE PUSH1 0x13 PUSH1 0x24 DUP3 ADD MSTORE PUSH19 0x139BC819195B1959D85D1A5BDB88199BDD5B99 PUSH1 0x6A SHL PUSH1 0x44 DUP3 ADD MSTORE REVERT JUMPDEST CALLVALUE PUSH2 0x1A8 JUMPI PUSH1 0x20 CALLDATASIZE PUSH1 0x3 NOT ADD SLT PUSH2 0x1A8 JUMPI PUSH2 0xB33 PUSH2 0x19D4 JUMP JUMPDEST PUSH1 0x0 PUSH2 0x180 PUSH1 0x40 MLOAD PUSH2 0xB44 DUP2 PUSH2 0x1A20 JUMP JUMPDEST DUP3 DUP2 MSTORE DUP3 PUSH1 0x20 DUP3 ADD MSTORE DUP3 PUSH1 0x40 DUP3 ADD MSTORE DUP3 PUSH1 0x60 DUP3 ADD MSTORE DUP3 PUSH1 0x80 DUP3 ADD MSTORE DUP3 PUSH1 0xA0 DUP3 ADD MSTORE DUP3 PUSH1 0xC0 DUP3 ADD MSTORE DUP3 PUSH1 0xE0 DUP3 ADD MSTORE DUP3 PUSH2 0x100 DUP3 ADD MSTORE DUP3 PUSH2 0x120 DUP3 ADD MSTORE DUP3 PUSH2 0x140 DUP3 ADD MSTORE DUP3 PUSH2 0x160 DUP3 ADD MSTORE ADD MSTORE PUSH1 0x1 DUP1 PUSH1 0xA0 SHL SUB AND PUSH1 0x0 MSTORE PUSH1 0x2 PUSH1 0x20 MSTORE PUSH2 0x1A0 PUSH1 0x40 PUSH1 0x0 KECCAK256 PUSH2 0x180 PUSH1 0x40 MLOAD PUSH2 0xBB6 DUP2 PUSH2 0x1A20 JUMP JUMPDEST PUSH1 0xFF PUSH1 0xC DUP5 SLOAD SWAP5 DUP6 DUP5 MSTORE PUSH1 0x1 DUP2 ADD SLOAD PUSH1 0x20 DUP6 ADD MSTORE PUSH1 0x2 DUP2 ADD SLOAD PUSH1 0x40 DUP6 ADD MSTORE PUSH1 0x3 DUP2 ADD SLOAD PUSH1 0x60 DUP6 ADD MSTORE PUSH1 0x4 DUP2 ADD SLOAD PUSH1 0x80 DUP6 ADD MSTORE PUSH1 0x5 DUP2 ADD SLOAD PUSH1 0xA0 DUP6 ADD MSTORE PUSH1 0x6 DUP2 ADD SLOAD PUSH1 0xC0 DUP6 ADD MSTORE PUSH1 0x7 DUP2 ADD SLOAD PUSH1 0xE0 DUP6 ADD MSTORE PUSH1 0x8 DUP2 ADD SLOAD PUSH2 0x100 DUP6 ADD MSTORE PUSH1 0x9 DUP2 ADD SLOAD PUSH2 0x120 DUP6 ADD MSTORE PUSH1 0xA DUP2 ADD SLOAD PUSH2 0x140 DUP6 ADD MSTORE PUSH1 0xB DUP2 ADD SLOAD PUSH2 0x160 DUP6 ADD MSTORE ADD SLOAD AND ISZERO ISZERO DUP3 DUP3 ADD MSTORE PUSH1 0x40 MLOAD SWAP3 DUP4 MSTORE PUSH1 0x20 DUP2 ADD MLOAD PUSH1 0x20 DUP5 ADD MSTORE PUSH1 0x40 DUP2 ADD MLOAD PUSH1 0x40 DUP5 ADD MSTORE PUSH1 0x60 DUP2 ADD MLOAD PUSH1 0x60 DUP5 ADD MSTORE PUSH1 0x80 DUP2 ADD MLOAD PUSH1 0x80 DUP5 ADD MSTORE PUSH1 0xA0 DUP2 ADD MLOAD PUSH1 0xA0 DUP5 ADD MSTORE PUSH1 0xC0 DUP2 ADD MLOAD PUSH1 0xC0 DUP5 ADD MSTORE PUSH1 0xE0 DUP2 ADD MLOAD PUSH1 0xE0 DUP5 ADD MSTORE PUSH2 0x100 DUP2 ADD MLOAD PUSH2 0x100 DUP5 ADD MSTORE PUSH2 0x120 DUP2 ADD MLOAD PUSH2 0x120 DUP5 ADD MSTORE PUSH2 0x140 DUP2 ADD MLOAD PUSH2 0x140 DUP5 ADD MSTORE PUSH2 0x160 DUP2 ADD MLOAD PUSH2 0x160 DUP5 ADD MSTORE ADD MLOAD ISZERO ISZERO PUSH2 0x180 DUP3 ADD MSTORE RETURN JUMPDEST CALLVALUE PUSH2 0x1A8 JUMPI PUSH1 0x0 CALLDATASIZE PUSH1 0x3 NOT ADD SLT PUSH2 0x1A8 JUMPI PUSH1 0x20 PUSH1 0x8 SLOAD PUSH1 0x40 MLOAD SWAP1 DUP2 MSTORE RETURN JUMPDEST CALLVALUE PUSH2 0x1A8 JUMPI PUSH1 0x60 CALLDATASIZE PUSH1 0x3 NOT ADD SLT PUSH2 0x1A8 JUMPI PUSH2 0xCFA PUSH2 0x19D4 JUMP JUMPDEST PUSH1 0x24 CALLDATALOAD PUSH1 0x1 PUSH1 0x1 PUSH1 0x40 SHL SUB DUP2 GT PUSH2 0x1A8 JUMPI PUSH2 0xD19 SWAP1 CALLDATASIZE SWAP1 PUSH1 0x4 ADD PUSH2 0x1A5D JUMP JUMPDEST PUSH1 0x44 CALLDATALOAD SWAP2 PUSH2 0xD25 PUSH2 0x1ECC JUMP JUMPDEST CALLER PUSH1 0x0 MSTORE PUSH1 0x20 SWAP1 PUSH1 0xC DUP3 MSTORE PUSH1 0xFF PUSH1 0x40 PUSH1 0x0 KECCAK256 SLOAD AND ISZERO PUSH2 0xDC0 JUMPI PUSH1 0x1 PUSH1 0x1 PUSH1 0xA0 SHL SUB AND SWAP2 PUSH32 0xE00316B10A05E44C70C3A271C63B7AE2C1946F1536D8DADD21AD9477B8DBBDCD SWAP2 SWAP1 PUSH2 0xDB2 SWAP1 PUSH2 0xD7A DUP6 ISZERO ISZERO PUSH2 0x1E87 JUMP JUMPDEST PUSH2 0xD95 PUSH1 0xFF PUSH1 0x3 PUSH1 0x40 MLOAD DUP7 DUP2 DUP7 MLOAD PUSH2 0x4AF DUP2 DUP4 DUP6 DUP12 ADD PUSH2 0x1B12 JUMP JUMPDEST DUP5 PUSH1 0x0 MSTORE PUSH1 0x4 DUP4 MSTORE DUP6 PUSH2 0xDAC PUSH1 0x40 PUSH1 0x0 KECCAK256 DUP4 PUSH2 0x1CBE JUMP JUMPDEST SSTORE PUSH2 0x1E67 JUMP JUMPDEST SWAP4 PUSH1 0x40 MLOAD SWAP1 DUP2 MSTORE LOG3 PUSH1 0x1 DUP1 SSTORE STOP JUMPDEST PUSH1 0x40 MLOAD PUSH3 0x461BCD PUSH1 0xE5 SHL DUP2 MSTORE PUSH1 0x4 DUP2 ADD DUP4 SWAP1 MSTORE PUSH1 0x1F PUSH1 0x24 DUP3 ADD MSTORE PUSH32 0x4E6F7420617574686F72697A656420746F20757064617465206669656C647300 PUSH1 0x44 DUP3 ADD MSTORE PUSH1 0x64 SWAP1 REVERT JUMPDEST CALLVALUE PUSH2 0x1A8 JUMPI PUSH2 0x160 CALLDATASIZE PUSH1 0x3 NOT ADD SLT PUSH2 0x1A8 JUMPI PUSH2 0xE1F PUSH2 0x19D4 JUMP JUMPDEST PUSH2 0xE27 PUSH2 0x1ECC JUMP JUMPDEST CALLER PUSH1 0x0 MSTORE PUSH1 0xC PUSH1 0x20 MSTORE PUSH1 0xFF PUSH1 0x40 PUSH1 0x0 KECCAK256 SLOAD AND ISZERO PUSH2 0x119F JUMPI PUSH2 0xE52 PUSH1 0x1 PUSH1 0x1 PUSH1 0xA0 SHL SUB DUP3 AND ISZERO ISZERO PUSH2 0x1E87 JUMP JUMPDEST PUSH1 0x1 PUSH1 0x1 PUSH1 0xA0 SHL SUB DUP2 AND PUSH1 0x0 SWAP1 DUP2 MSTORE PUSH1 0xD PUSH1 0x20 MSTORE PUSH1 0x40 SWAP1 KECCAK256 SLOAD PUSH1 0xB SLOAD DUP2 ADD SWAP1 DUP2 LT PUSH2 0x1144 JUMPI TIMESTAMP LT PUSH2 0x115A JUMPI PUSH1 0xF PUSH1 0x24 CALLDATALOAD MUL PUSH1 0x24 CALLDATALOAD DUP2 DIV PUSH1 0xF EQ PUSH1 0x24 CALLDATALOAD ISZERO OR ISZERO PUSH2 0x1144 JUMPI PUSH1 0xF PUSH1 0x44 CALLDATALOAD MUL PUSH1 0x44 CALLDATALOAD DUP2 DIV PUSH1 0xF EQ PUSH1 0x44 CALLDATALOAD ISZERO OR ISZERO PUSH2 0x1144 JUMPI DUP2 ADD DUP1 SWAP2 GT PUSH2 0x1144 JUMPI PUSH1 0xD PUSH1 0x64 CALLDATALOAD MUL PUSH1 0x64 CALLDATALOAD DUP2 DIV PUSH1 0xD EQ PUSH1 0x64 CALLDATALOAD ISZERO OR ISZERO PUSH2 0x1144 JUMPI DUP2 ADD DUP1 SWAP2 GT PUSH2 0x1144 JUMPI PUSH1 0xC PUSH1 0x84 CALLDATALOAD MUL PUSH1 0x84 CALLDATALOAD DUP2 DIV PUSH1 0xC EQ PUSH1 0x84 CALLDATALOAD ISZERO OR ISZERO PUSH2 0x1144 JUMPI DUP2 ADD DUP1 SWAP2 GT PUSH2 0x1144 JUMPI PUSH1 0xA PUSH1 0xA4 CALLDATALOAD MUL PUSH1 0xA4 CALLDATALOAD DUP2 DIV PUSH1 0xA EQ PUSH1 0xA4 CALLDATALOAD ISZERO OR ISZERO PUSH2 0x1144 JUMPI DUP2 ADD DUP1 SWAP2 GT PUSH2 0x1144 JUMPI PUSH1 0x9 PUSH1 0xC4 CALLDATALOAD MUL PUSH1 0xC4 CALLDATALOAD DUP2 DIV PUSH1 0x9 EQ PUSH1 0xC4 CALLDATALOAD ISZERO OR ISZERO PUSH2 0x1144 JUMPI DUP2 ADD DUP1 SWAP2 GT PUSH2 0x1144 JUMPI PUSH1 0xE4 CALLDATALOAD PUSH1 0x3 SHL PUSH1 0xE4 CALLDATALOAD DUP2 DIV PUSH1 0x8 EQ PUSH1 0xE4 CALLDATALOAD ISZERO OR ISZERO PUSH2 0x1144 JUMPI DUP2 ADD DUP1 SWAP2 GT PUSH2 0x1144 JUMPI PUSH1 0x7 PUSH2 0x104 CALLDATALOAD MUL PUSH2 0x104 CALLDATALOAD DUP2 DIV PUSH1 0x7 EQ PUSH2 0x104 CALLDATALOAD ISZERO OR ISZERO PUSH2 0x1144 JUMPI DUP2 ADD DUP1 SWAP2 GT PUSH2 0x1144 JUMPI PUSH1 0x6 PUSH2 0x124 CALLDATALOAD MUL PUSH2 0x124 CALLDATALOAD DUP2 DIV PUSH1 0x6 EQ PUSH2 0x124 CALLDATALOAD ISZERO OR ISZERO PUSH2 0x1144 JUMPI DUP2 ADD DUP1 SWAP2 GT PUSH2 0x1144 JUMPI PUSH1 0x5 PUSH2 0x144 CALLDATALOAD MUL PUSH2 0x144 CALLDATALOAD DUP2 DIV PUSH1 0x5 EQ PUSH2 0x144 CALLDATALOAD ISZERO OR ISZERO PUSH2 0x1144 JUMPI DUP1 DUP3 ADD DUP3 GT PUSH2 0x1144 JUMPI PUSH1 0x64 SWAP2 ADD DIV SWAP1 PUSH2 0x3E8 DUP3 GT PUSH2 0x113A JUMPI JUMPDEST PUSH1 0x1 DUP1 PUSH1 0xA0 SHL SUB DUP2 AND PUSH1 0x0 MSTORE PUSH1 0x2 PUSH1 0x20 MSTORE PUSH1 0xC PUSH1 0x40 PUSH1 0x0 KECCAK256 DUP4 DUP2 SSTORE PUSH1 0x24 CALLDATALOAD PUSH1 0x1 DUP3 ADD SSTORE PUSH1 0x44 CALLDATALOAD PUSH1 0x2 DUP3 ADD SSTORE PUSH1 0x64 CALLDATALOAD PUSH1 0x3 DUP3 ADD SSTORE PUSH1 0x84 CALLDATALOAD PUSH1 0x4 DUP3 ADD SSTORE PUSH1 0xA4 CALLDATALOAD PUSH1 0x5 DUP3 ADD SSTORE PUSH1 0xC4 CALLDATALOAD PUSH1 0x6 DUP3 ADD SSTORE PUSH1 0xE4 CALLDATALOAD PUSH1 0x7 DUP3 ADD SSTORE PUSH2 0x104 CALLDATALOAD PUSH1 0x8 DUP3 ADD SSTORE PUSH2 0x124 CALLDATALOAD PUSH1 0x9 DUP3 ADD SSTORE PUSH2 0x144 CALLDATALOAD PUSH1 0xA DUP3 ADD SSTORE TIMESTAMP PUSH1 0xB DUP3 ADD SSTORE ADD PUSH1 0x1 PUSH1 0xFF NOT DUP3 SLOAD AND OR SWAP1 SSTORE PUSH2 0x1060 DUP2 PUSH2 0x1FD7 JUMP JUMPDEST ISZERO PUSH2 0x10BB JUMPI JUMPDEST PUSH1 0x1 PUSH1 0x1 PUSH1 0xA0 SHL SUB AND PUSH1 0x0 DUP2 DUP2 MSTORE PUSH1 0xD PUSH1 0x20 SWAP1 DUP2 MSTORE PUSH1 0x40 SWAP2 DUP3 SWAP1 KECCAK256 TIMESTAMP SWAP1 DUP2 SWAP1 SSTORE DUP3 MLOAD SWAP5 DUP6 MSTORE SWAP1 DUP5 ADD MSTORE SWAP1 SWAP2 PUSH32 0x15DD57E0CDE9AF9083C846EB39C9DA382E907C0036818E4A163ECD167E5F3276 SWAP2 SWAP1 LOG2 PUSH1 0x1 DUP1 SSTORE STOP JUMPDEST PUSH1 0x8 SLOAD PUSH1 0x1 PUSH1 0x40 SHL DUP2 LT ISZERO PUSH2 0x1124 JUMPI PUSH32 0x15DD57E0CDE9AF9083C846EB39C9DA382E907C0036818E4A163ECD167E5F3276 SWAP2 PUSH2 0x10FE DUP3 PUSH1 0x1 PUSH1 0x40 SWAP5 ADD PUSH1 0x8 SSTORE PUSH2 0x1BA7 JUMP JUMPDEST DUP2 SLOAD PUSH1 0x1 PUSH1 0x1 PUSH1 0xA0 SHL SUB DUP5 DUP2 AND PUSH1 0x3 SWAP4 SWAP1 SWAP4 SHL SWAP3 DUP4 SHL SWAP3 SHL NOT AND OR SWAP1 SSTORE SWAP2 POP PUSH2 0x1066 SWAP1 POP JUMP JUMPDEST PUSH4 0x4E487B71 PUSH1 0xE0 SHL PUSH1 0x0 MSTORE PUSH1 0x41 PUSH1 0x4 MSTORE PUSH1 0x24 PUSH1 0x0 REVERT JUMPDEST PUSH2 0x3E8 SWAP2 POP PUSH2 0xFD7 JUMP JUMPDEST PUSH4 0x4E487B71 PUSH1 0xE0 SHL PUSH1 0x0 MSTORE PUSH1 0x11 PUSH1 0x4 MSTORE PUSH1 0x24 PUSH1 0x0 REVERT JUMPDEST PUSH1 0x40 MLOAD PUSH3 0x461BCD PUSH1 0xE5 SHL DUP2 MSTORE PUSH1 0x20 PUSH1 0x4 DUP3 ADD MSTORE PUSH1 0x1D PUSH1 0x24 DUP3 ADD MSTORE PUSH32 0x53636F72652075706461746520636F6F6C646F776E206E6F74206D6574000000 PUSH1 0x44 DUP3 ADD MSTORE PUSH1 0x64 SWAP1 REVERT JUMPDEST PUSH1 0x40 MLOAD PUSH3 0x461BCD PUSH1 0xE5 SHL DUP2 MSTORE PUSH1 0x20 PUSH1 0x4 DUP3 ADD MSTORE PUSH1 0x1F PUSH1 0x24 DUP3 ADD MSTORE PUSH32 0x4E6F7420617574686F72697A656420746F207570646174652073636F72657300 PUSH1 0x44 DUP3 ADD MSTORE PUSH1 0x64 SWAP1 REVERT JUMPDEST CALLVALUE PUSH2 0x1A8 JUMPI PUSH1 0x40 CALLDATASIZE PUSH1 0x3 NOT ADD SLT PUSH2 0x1A8 JUMPI PUSH2 0x11FD PUSH2 0x19D4 JUMP JUMPDEST PUSH1 0x24 DUP1 CALLDATALOAD SWAP1 PUSH2 0x120A PUSH2 0x1ECC JUMP JUMPDEST PUSH1 0x1 PUSH1 0x1 PUSH1 0xA0 SHL SUB SWAP3 DUP4 AND SWAP3 PUSH2 0x1221 DUP5 ISZERO ISZERO PUSH2 0x1F65 JUMP JUMPDEST CALLER DUP5 EQ PUSH2 0x1467 JUMPI DUP3 ISZERO PUSH2 0x1423 JUMPI CALLER PUSH1 0x0 MSTORE PUSH1 0x20 SWAP2 PUSH1 0x2 DUP4 MSTORE PUSH1 0xFF PUSH1 0xC PUSH1 0x40 PUSH1 0x0 KECCAK256 ADD SLOAD AND ISZERO PUSH2 0x13D1 JUMPI CALLER PUSH1 0x0 MSTORE PUSH1 0x6 DUP4 MSTORE PUSH1 0x40 PUSH1 0x0 KECCAK256 DUP6 PUSH1 0x0 MSTORE DUP4 MSTORE PUSH1 0x40 PUSH1 0x0 KECCAK256 SLOAD PUSH2 0x138E JUMPI PUSH1 0x40 MLOAD SWAP2 PUSH2 0x1274 DUP4 PUSH2 0x1A05 JUMP JUMPDEST CALLER DUP4 MSTORE DUP4 DUP4 ADD DUP7 DUP2 MSTORE PUSH1 0x40 DUP5 ADD SWAP1 DUP7 DUP3 MSTORE PUSH1 0x60 DUP6 ADD SWAP3 TIMESTAMP DUP5 MSTORE PUSH1 0x80 DUP7 ADD SWAP6 PUSH1 0x1 DUP8 MSTORE CALLER PUSH1 0x0 MSTORE PUSH1 0x5 DUP9 MSTORE PUSH1 0x40 PUSH1 0x0 KECCAK256 DUP1 SLOAD SWAP1 PUSH1 0x1 PUSH1 0x40 SHL DUP3 LT ISZERO PUSH2 0x1379 JUMPI SWAP1 PUSH2 0x12C2 SWAP2 PUSH1 0x1 DUP3 ADD DUP2 SSTORE PUSH2 0x1CE4 JUMP JUMPDEST SWAP7 SWAP1 SWAP7 PUSH2 0x1365 JUMPI POP SWAP2 DUP2 PUSH32 0xB58A34790B02732CE9546BED68EF7D135420000706C11F509044F1A0EBDBA83B SWAP9 SWAP8 SWAP7 SWAP5 SWAP3 PUSH1 0x4 SWAP7 SWAP5 MLOAD AND SWAP1 PUSH12 0xFFFFFFFFFFFFFFFFFFFFFFFF PUSH1 0xA0 SHL SWAP2 DUP3 DUP8 SLOAD AND OR DUP7 SSTORE PUSH1 0x1 DUP7 ADD SWAP3 MLOAD AND SWAP1 DUP3 SLOAD AND OR SWAP1 SSTORE MLOAD PUSH1 0x2 DUP4 ADD SSTORE MLOAD PUSH1 0x3 DUP3 ADD SSTORE ADD SWAP1 MLOAD ISZERO ISZERO PUSH1 0xFF DUP1 NOT DUP4 SLOAD AND SWAP2 AND OR SWAP1 SSTORE CALLER PUSH1 0x0 MSTORE PUSH1 0x6 DUP2 MSTORE PUSH1 0x40 PUSH1 0x0 KECCAK256 DUP5 PUSH1 0x0 MSTORE DUP2 MSTORE DUP3 PUSH1 0x40 PUSH1 0x0 KECCAK256 SSTORE PUSH1 0x40 MLOAD SWAP3 DUP4 MSTORE CALLER SWAP3 LOG3 PUSH1 0x1 DUP1 SSTORE STOP JUMPDEST PUSH4 0x4E487B71 PUSH1 0xE0 SHL PUSH1 0x0 MSTORE PUSH1 0x0 PUSH1 0x4 MSTORE PUSH1 0x0 REVERT JUMPDEST DUP8 PUSH4 0x4E487B71 PUSH1 0xE0 SHL PUSH1 0x0 MSTORE PUSH1 0x41 PUSH1 0x4 MSTORE PUSH1 0x0 REVERT JUMPDEST DUP3 PUSH1 0x19 PUSH1 0x64 SWAP3 PUSH1 0x40 MLOAD SWAP3 PUSH3 0x461BCD PUSH1 0xE5 SHL DUP5 MSTORE PUSH1 0x4 DUP5 ADD MSTORE DUP3 ADD MSTORE PUSH32 0x44656C65676174696F6E20616C72656164792065786973747300000000000000 PUSH1 0x44 DUP3 ADD MSTORE REVERT JUMPDEST DUP3 PUSH1 0x26 PUSH1 0x84 SWAP3 PUSH1 0x40 MLOAD SWAP3 PUSH3 0x461BCD PUSH1 0xE5 SHL DUP5 MSTORE PUSH1 0x4 DUP5 ADD MSTORE DUP3 ADD MSTORE PUSH32 0x44656C656761746F72206D757374206861766520616374697665207472757374 PUSH1 0x44 DUP3 ADD MSTORE PUSH6 0x2073636F7265 PUSH1 0xD0 SHL PUSH1 0x64 DUP3 ADD MSTORE REVERT JUMPDEST PUSH1 0x40 MLOAD PUSH3 0x461BCD PUSH1 0xE5 SHL DUP2 MSTORE PUSH1 0x20 PUSH1 0x4 DUP3 ADD MSTORE PUSH1 0x1D DUP2 DUP5 ADD MSTORE PUSH32 0x416D6F756E74206D7573742062652067726561746572207468616E2030000000 PUSH1 0x44 DUP3 ADD MSTORE PUSH1 0x64 SWAP1 REVERT JUMPDEST PUSH1 0x40 MLOAD PUSH3 0x461BCD PUSH1 0xE5 SHL DUP2 MSTORE PUSH1 0x20 PUSH1 0x4 DUP3 ADD MSTORE PUSH1 0x17 DUP2 DUP5 ADD MSTORE PUSH32 0x43616E6E6F742064656C656761746520746F2073656C66000000000000000000 PUSH1 0x44 DUP3 ADD MSTORE PUSH1 0x64 SWAP1 REVERT JUMPDEST CALLVALUE PUSH2 0x1A8 JUMPI PUSH1 0x20 DUP1 PUSH1 0x3 NOT CALLDATASIZE ADD SLT PUSH2 0x1A8 JUMPI PUSH1 0x1 PUSH1 0x1 PUSH1 0xA0 SHL SUB SWAP1 DUP2 PUSH2 0x14CF PUSH2 0x19D4 JUMP JUMPDEST AND PUSH1 0x0 MSTORE PUSH1 0x5 SWAP1 DUP2 DUP2 MSTORE PUSH1 0x40 PUSH1 0x0 KECCAK256 SWAP1 DUP2 SLOAD PUSH2 0x14EA DUP2 PUSH2 0x1FC0 JUMP JUMPDEST SWAP4 PUSH2 0x14F8 PUSH1 0x40 MLOAD SWAP6 DUP7 PUSH2 0x1A3C JUMP JUMPDEST DUP2 DUP6 MSTORE DUP3 DUP6 ADD DUP1 SWAP5 PUSH1 0x0 MSTORE DUP4 PUSH1 0x0 KECCAK256 PUSH1 0x0 SWAP2 JUMPDEST DUP5 DUP4 LT PUSH2 0x1580 JUMPI POP POP POP POP POP PUSH1 0x40 MLOAD SWAP3 DUP2 DUP5 ADD SWAP1 DUP3 DUP6 MSTORE MLOAD DUP1 SWAP2 MSTORE PUSH1 0x40 DUP5 ADD SWAP3 SWAP2 PUSH1 0x0 JUMPDEST DUP3 DUP2 LT PUSH2 0x153C JUMPI DUP6 DUP6 SUB DUP7 RETURN JUMPDEST DUP4 MLOAD DUP1 MLOAD DUP9 AND DUP7 MSTORE DUP1 DUP4 ADD MLOAD DUP9 AND DUP7 DUP5 ADD MSTORE PUSH1 0x40 DUP1 DUP3 ADD MLOAD SWAP1 DUP8 ADD MSTORE PUSH1 0x60 DUP1 DUP3 ADD MLOAD SWAP1 DUP8 ADD MSTORE PUSH1 0x80 SWAP1 DUP2 ADD MLOAD ISZERO ISZERO SWAP1 DUP7 ADD MSTORE PUSH1 0xA0 SWAP1 SWAP5 ADD SWAP4 SWAP3 DUP2 ADD SWAP3 PUSH1 0x1 ADD PUSH2 0x152F JUMP JUMPDEST DUP4 DUP7 PUSH1 0x1 SWAP3 PUSH1 0x40 SWAP11 SWAP9 SWAP11 MLOAD PUSH2 0x1594 DUP2 PUSH2 0x1A05 JUMP JUMPDEST DUP13 DUP7 SLOAD AND DUP2 MSTORE DUP13 DUP6 DUP8 ADD SLOAD AND DUP4 DUP3 ADD MSTORE PUSH1 0x2 DUP7 ADD SLOAD PUSH1 0x40 DUP3 ADD MSTORE PUSH1 0x3 DUP7 ADD SLOAD PUSH1 0x60 DUP3 ADD MSTORE PUSH1 0xFF PUSH1 0x4 DUP8 ADD SLOAD AND ISZERO ISZERO PUSH1 0x80 DUP3 ADD MSTORE DUP2 MSTORE ADD SWAP3 ADD SWAP3 ADD SWAP2 SWAP1 SWAP7 SWAP5 SWAP7 PUSH2 0x150B JUMP JUMPDEST CALLVALUE PUSH2 0x1A8 JUMPI PUSH1 0xA0 CALLDATASIZE PUSH1 0x3 NOT ADD SLT PUSH2 0x1A8 JUMPI PUSH1 0x4 CALLDATALOAD PUSH1 0x1 PUSH1 0x1 PUSH1 0x40 SHL SUB DUP2 GT PUSH2 0x1A8 JUMPI PUSH2 0x1608 SWAP1 CALLDATASIZE SWAP1 PUSH1 0x4 ADD PUSH2 0x1A5D JUMP JUMPDEST PUSH1 0x24 DUP1 CALLDATALOAD SWAP1 PUSH1 0xFF SWAP3 DUP4 DUP4 AND DUP1 SWAP4 SUB PUSH2 0x1A8 JUMPI PUSH1 0x44 SWAP2 DUP3 CALLDATALOAD SWAP3 PUSH1 0x64 SWAP6 DUP7 CALLDATALOAD SWAP2 DUP2 DUP4 AND DUP1 SWAP4 SUB PUSH2 0x1A8 JUMPI PUSH1 0x84 CALLDATALOAD SWAP2 DUP1 DUP4 AND DUP1 SWAP4 SUB PUSH2 0x1A8 JUMPI PUSH2 0x1646 PUSH2 0x1D00 JUMP JUMPDEST DUP6 MLOAD ISZERO PUSH2 0x18B3 JUMPI PUSH1 0x2 DUP9 GT PUSH2 0x187D JUMPI PUSH1 0x2 DUP5 GT PUSH2 0x1845 JUMPI PUSH1 0x3 DUP4 GT PUSH2 0x1803 JUMPI PUSH1 0x40 MLOAD SWAP9 DUP7 MLOAD SWAP3 DUP3 PUSH1 0x3 PUSH1 0x20 SWAP13 DUP14 DUP2 DUP2 DUP14 ADD SWAP9 PUSH2 0x1683 DUP2 DUP4 DUP13 PUSH2 0x1B12 JUMP JUMPDEST DUP2 ADD DUP5 DUP2 MSTORE SUB ADD SWAP1 KECCAK256 ADD SLOAD PUSH1 0x10 SHR AND PUSH2 0x17CC JUMPI POP POP SWAP3 PUSH1 0x4 SWAP3 DUP7 SWAP3 DUP11 SWAP6 DUP10 DUP12 PUSH2 0x1707 PUSH2 0x16F5 PUSH1 0x40 MLOAD SWAP11 PUSH2 0x16B5 DUP13 PUSH2 0x19EA JUMP JUMPDEST DUP10 DUP13 MSTORE DUP1 DUP13 ADD SWAP4 DUP5 MSTORE PUSH1 0x40 DUP13 ADD SWAP5 DUP6 MSTORE PUSH1 0x60 DUP13 ADD SWAP9 DUP10 MSTORE PUSH1 0x80 DUP13 ADD SWAP8 DUP9 MSTORE PUSH1 0xA0 DUP13 ADD SWAP7 PUSH1 0x1 DUP9 MSTORE PUSH1 0xC0 DUP14 ADD SWAP11 TIMESTAMP DUP13 MSTORE PUSH1 0x40 MLOAD SWAP4 DUP5 SWAP3 DUP4 SWAP3 MLOAD SWAP3 DUP4 SWAP2 PUSH2 0x1B12 JUMP JUMPDEST DUP2 ADD PUSH1 0x3 DUP2 MSTORE SUB ADD SWAP1 KECCAK256 SWAP10 MLOAD DUP11 PUSH2 0x1D58 JUMP JUMPDEST DUP3 PUSH1 0x1 DUP11 ADD SWAP2 MLOAD AND PUSH1 0xFF NOT DUP3 SLOAD AND OR SWAP1 SSTORE MLOAD PUSH1 0x2 DUP9 ADD SSTORE PUSH1 0x3 DUP8 ADD SWAP4 MLOAD AND PUSH3 0xFF0000 PUSH2 0xFF00 DUP6 SLOAD SWAP5 MLOAD PUSH1 0x8 SHL AND SWAP3 MLOAD ISZERO ISZERO PUSH1 0x10 SHL AND SWAP3 PUSH3 0xFFFFFF NOT AND OR OR OR SWAP1 SSTORE MLOAD SWAP2 ADD SSTORE PUSH1 0x7 SLOAD PUSH1 0x1 PUSH1 0x40 SHL DUP2 LT ISZERO PUSH2 0x17B7 JUMPI DUP1 PUSH1 0x1 PUSH2 0x176B SWAP3 ADD PUSH1 0x7 SSTORE PUSH2 0x1B5A JUMP JUMPDEST SWAP2 SWAP1 SWAP2 PUSH2 0x1365 JUMPI POP SWAP2 PUSH2 0x17AB DUP3 PUSH2 0x17A6 PUSH32 0x6F598B067CD9C8ADB52D2E3B0A585F0F63111BB3E99A8242FE9BEEA5A1CA35C SWAP7 SWAP5 PUSH1 0x40 SWAP7 PUSH2 0x1D58 JUMP JUMPDEST PUSH2 0x1E67 JUMP JUMPDEST SWAP5 DUP4 MLOAD SWAP3 DUP4 MSTORE DUP3 ADD MSTORE LOG2 STOP JUMPDEST POP PUSH4 0x4E487B71 PUSH1 0xE0 SHL PUSH1 0x0 SWAP1 DUP2 MSTORE PUSH1 0x41 PUSH1 0x4 MSTORE REVERT JUMPDEST PUSH20 0x4669656C6420616C726561647920657869737473 PUSH1 0x60 SHL DUP12 SWAP2 PUSH1 0x14 DUP10 PUSH1 0x40 MLOAD SWAP5 PUSH3 0x461BCD PUSH1 0xE5 SHL DUP7 MSTORE PUSH1 0x4 DUP7 ADD MSTORE DUP5 ADD MSTORE DUP3 ADD MSTORE REVERT JUMPDEST PUSH1 0x40 MLOAD PUSH3 0x461BCD PUSH1 0xE5 SHL DUP2 MSTORE PUSH1 0x20 PUSH1 0x4 DUP3 ADD MSTORE PUSH1 0x18 DUP2 DUP8 ADD MSTORE PUSH32 0x496E76616C696420757064617465206672657175656E63790000000000000000 DUP2 DUP5 ADD MSTORE DUP10 SWAP1 REVERT JUMPDEST PUSH1 0x40 MLOAD PUSH3 0x461BCD PUSH1 0xE5 SHL DUP2 MSTORE PUSH1 0x20 PUSH1 0x4 DUP3 ADD MSTORE PUSH1 0x13 DUP2 DUP8 ADD MSTORE PUSH19 0x496E76616C6964206461746120736F75726365 PUSH1 0x68 SHL DUP2 DUP5 ADD MSTORE DUP10 SWAP1 REVERT JUMPDEST PUSH1 0x40 MLOAD PUSH3 0x461BCD PUSH1 0xE5 SHL DUP2 MSTORE PUSH1 0x20 PUSH1 0x4 DUP3 ADD MSTORE PUSH1 0x11 DUP2 DUP8 ADD MSTORE PUSH17 0x496E76616C696420646174612074797065 PUSH1 0x78 SHL DUP2 DUP5 ADD MSTORE DUP10 SWAP1 REVERT JUMPDEST PUSH1 0x40 MLOAD PUSH3 0x461BCD PUSH1 0xE5 SHL DUP2 MSTORE PUSH1 0x20 PUSH1 0x4 DUP3 ADD MSTORE PUSH1 0x1A DUP2 DUP8 ADD MSTORE PUSH32 0x4669656C64206E616D652063616E6E6F7420626520656D707479000000000000 DUP2 DUP5 ADD MSTORE DUP10 SWAP1 REVERT JUMPDEST CALLVALUE PUSH2 0x1A8 JUMPI PUSH1 0x20 CALLDATASIZE PUSH1 0x3 NOT ADD SLT PUSH2 0x1A8 JUMPI PUSH1 0x1 PUSH1 0x1 PUSH1 0xA0 SHL SUB PUSH2 0x1916 PUSH2 0x19D4 JUMP JUMPDEST AND PUSH1 0x0 MSTORE PUSH1 0x2 PUSH1 0x20 MSTORE PUSH2 0x1A0 PUSH1 0x40 PUSH1 0x0 KECCAK256 DUP1 SLOAD SWAP1 PUSH1 0x1 DUP2 ADD SLOAD SWAP1 PUSH1 0x2 DUP2 ADD SLOAD PUSH1 0x3 DUP3 ADD SLOAD PUSH1 0x4 DUP4 ADD SLOAD PUSH1 0x5 DUP5 ADD SLOAD PUSH1 0x6 DUP6 ADD SLOAD PUSH1 0x7 DUP7 ADD SLOAD SWAP2 PUSH1 0x8 DUP8 ADD SLOAD SWAP4 PUSH1 0x9 DUP9 ADD SLOAD SWAP6 PUSH1 0xA DUP10 ADD SLOAD SWAP8 PUSH1 0xFF PUSH1 0xC PUSH1 0xB DUP13 ADD SLOAD SWAP12 ADD SLOAD AND SWAP11 PUSH1 0x40 MLOAD SWAP13 DUP14 MSTORE PUSH1 0x20 DUP14 ADD MSTORE PUSH1 0x40 DUP13 ADD MSTORE PUSH1 0x60 DUP12 ADD MSTORE PUSH1 0x80 DUP11 ADD MSTORE PUSH1 0xA0 DUP10 ADD MSTORE PUSH1 0xC0 DUP9 ADD MSTORE PUSH1 0xE0 DUP8 ADD MSTORE PUSH2 0x100 DUP7 ADD MSTORE PUSH2 0x120 DUP6 ADD MSTORE PUSH2 0x140 DUP5 ADD MSTORE PUSH2 0x160 DUP4 ADD MSTORE ISZERO ISZERO PUSH2 0x180 DUP3 ADD MSTORE RETURN JUMPDEST CALLVALUE PUSH2 0x1A8 JUMPI PUSH1 0x0 CALLDATASIZE PUSH1 0x3 NOT ADD SLT PUSH2 0x1A8 JUMPI DUP1 PUSH1 0x0 PUSH1 0x20 SWAP3 MSTORE RETURN JUMPDEST PUSH1 0x4 CALLDATALOAD SWAP1 PUSH1 0x1 PUSH1 0x1 PUSH1 0xA0 SHL SUB DUP3 AND DUP3 SUB PUSH2 0x1A8 JUMPI JUMP JUMPDEST PUSH1 0xE0 DUP2 ADD SWAP1 DUP2 LT PUSH1 0x1 PUSH1 0x1 PUSH1 0x40 SHL SUB DUP3 GT OR PUSH2 0x1124 JUMPI PUSH1 0x40 MSTORE JUMP JUMPDEST PUSH1 0xA0 DUP2 ADD SWAP1 DUP2 LT PUSH1 0x1 PUSH1 0x1 PUSH1 0x40 SHL SUB DUP3 GT OR PUSH2 0x1124 JUMPI PUSH1 0x40 MSTORE JUMP JUMPDEST PUSH2 0x1A0 DUP2 ADD SWAP1 DUP2 LT PUSH1 0x1 PUSH1 0x1 PUSH1 0x40 SHL SUB DUP3 GT OR PUSH2 0x1124 JUMPI PUSH1 0x40 MSTORE JUMP JUMPDEST SWAP1 PUSH1 0x1F DUP1 NOT SWAP2 ADD AND DUP2 ADD SWAP1 DUP2 LT PUSH1 0x1 PUSH1 0x1 PUSH1 0x40 SHL SUB DUP3 GT OR PUSH2 0x1124 JUMPI PUSH1 0x40 MSTORE JUMP JUMPDEST DUP2 PUSH1 0x1F DUP3 ADD SLT ISZERO PUSH2 0x1A8 JUMPI DUP1 CALLDATALOAD SWAP1 PUSH1 0x1 PUSH1 0x1 PUSH1 0x40 SHL SUB DUP3 GT PUSH2 0x1124 JUMPI PUSH1 0x40 MLOAD SWAP3 PUSH2 0x1A91 PUSH1 0x1F DUP5 ADD PUSH1 0x1F NOT AND PUSH1 0x20 ADD DUP6 PUSH2 0x1A3C JUMP JUMPDEST DUP3 DUP5 MSTORE PUSH1 0x20 DUP4 DUP4 ADD ADD GT PUSH2 0x1A8 JUMPI DUP2 PUSH1 0x0 SWAP3 PUSH1 0x20 DUP1 SWAP4 ADD DUP4 DUP7 ADD CALLDATACOPY DUP4 ADD ADD MSTORE SWAP1 JUMP JUMPDEST SWAP1 PUSH1 0x40 PUSH1 0x3 NOT DUP4 ADD SLT PUSH2 0x1A8 JUMPI PUSH1 0x4 CALLDATALOAD PUSH1 0x1 PUSH1 0x1 PUSH1 0xA0 SHL SUB DUP2 AND DUP2 SUB PUSH2 0x1A8 JUMPI SWAP2 PUSH1 0x24 CALLDATALOAD SWAP1 PUSH1 0x1 PUSH1 0x1 PUSH1 0x40 SHL SUB DUP3 GT PUSH2 0x1A8 JUMPI PUSH2 0x1AF2 SWAP2 PUSH1 0x4 ADD PUSH2 0x1A5D JUMP JUMPDEST SWAP1 JUMP JUMPDEST CALLVALUE PUSH2 0x1A8 JUMPI PUSH1 0x0 CALLDATASIZE PUSH1 0x3 NOT ADD SLT PUSH2 0x1A8 JUMPI PUSH1 0x20 PUSH1 0x40 MLOAD PUSH2 0x3E8 DUP2 MSTORE RETURN JUMPDEST PUSH1 0x0 JUMPDEST DUP4 DUP2 LT PUSH2 0x1B25 JUMPI POP POP PUSH1 0x0 SWAP2 ADD MSTORE JUMP JUMPDEST DUP2 DUP2 ADD MLOAD DUP4 DUP3 ADD MSTORE PUSH1 0x20 ADD PUSH2 0x1B15 JUMP JUMPDEST SWAP1 PUSH1 0x20 SWAP2 PUSH2 0x1B4E DUP2 MLOAD DUP1 SWAP3 DUP2 DUP6 MSTORE DUP6 DUP1 DUP7 ADD SWAP2 ADD PUSH2 0x1B12 JUMP JUMPDEST PUSH1 0x1F ADD PUSH1 0x1F NOT AND ADD ADD SWAP1 JUMP JUMPDEST PUSH1 0x7 SLOAD DUP2 LT ISZERO PUSH2 0x1B91 JUMPI PUSH1 0x7 PUSH1 0x0 MSTORE PUSH32 0xA66CC928B5EDB82AF9BD49922954155AB7B0942694BEA4CE44661D9A8736C688 ADD SWAP1 PUSH1 0x0 SWAP1 JUMP JUMPDEST PUSH4 0x4E487B71 PUSH1 0xE0 SHL PUSH1 0x0 MSTORE PUSH1 0x32 PUSH1 0x4 MSTORE PUSH1 0x24 PUSH1 0x0 REVERT JUMPDEST PUSH1 0x8 SLOAD DUP2 LT ISZERO PUSH2 0x1B91 JUMPI PUSH1 0x8 PUSH1 0x0 MSTORE PUSH32 0xF3F7A9FE364FAAB93B216DA50A3214154F22A0A2B415B23A84C8169E8B636EE3 ADD SWAP1 PUSH1 0x0 SWAP1 JUMP JUMPDEST SWAP1 PUSH1 0x1 DUP3 DUP2 SHR SWAP3 AND DUP1 ISZERO PUSH2 0x1C0E JUMPI JUMPDEST PUSH1 0x20 DUP4 LT EQ PUSH2 0x1BF8 JUMPI JUMP JUMPDEST PUSH4 0x4E487B71 PUSH1 0xE0 SHL PUSH1 0x0 MSTORE PUSH1 0x22 PUSH1 0x4 MSTORE PUSH1 0x24 PUSH1 0x0 REVERT JUMPDEST SWAP2 PUSH1 0x7F AND SWAP2 PUSH2 0x1BED JUMP JUMPDEST SWAP1 PUSH1 0x40 MLOAD SWAP2 DUP3 PUSH1 0x0 DUP3 SLOAD SWAP3 PUSH2 0x1C2C DUP5 PUSH2 0x1BDE JUMP JUMPDEST SWAP1 DUP2 DUP5 MSTORE PUSH1 0x1 SWAP5 DUP6 DUP2 AND SWAP1 DUP2 PUSH1 0x0 EQ PUSH2 0x1C9B JUMPI POP PUSH1 0x1 EQ PUSH2 0x1C58 JUMPI JUMPDEST POP POP PUSH2 0x1C56 SWAP3 POP SUB DUP4 PUSH2 0x1A3C JUMP JUMPDEST JUMP JUMPDEST SWAP1 SWAP4 SWAP2 POP PUSH1 0x0 MSTORE PUSH1 0x20 SWAP1 DUP2 PUSH1 0x0 KECCAK256 SWAP4 PUSH1 0x0 SWAP2 JUMPDEST DUP2 DUP4 LT PUSH2 0x1C83 JUMPI POP POP PUSH2 0x1C56 SWAP4 POP DUP3 ADD ADD CODESIZE DUP1 PUSH2 0x1C48 JUMP JUMPDEST DUP6 SLOAD DUP9 DUP5 ADD DUP6 ADD MSTORE SWAP5 DUP6 ADD SWAP5 DUP8 SWAP5 POP SWAP2 DUP4 ADD SWAP2 PUSH2 0x1C6B JUMP JUMPDEST SWAP2 POP POP PUSH2 0x1C56 SWAP5 POP PUSH1 0x20 SWAP3 POP PUSH1 0xFF NOT AND DUP3 DUP5 ADD MSTORE ISZERO ISZERO PUSH1 0x5 SHL DUP3 ADD ADD CODESIZE DUP1 PUSH2 0x1C48 JUMP JUMPDEST PUSH1 0x20 SWAP1 PUSH2 0x1CD8 SWAP3 DUP3 PUSH1 0x40 MLOAD SWAP5 DUP4 DUP7 DUP1 SWAP6 MLOAD SWAP4 DUP5 SWAP3 ADD PUSH2 0x1B12 JUMP JUMPDEST DUP3 ADD SWAP1 DUP2 MSTORE SUB ADD SWAP1 KECCAK256 SWAP1 JUMP JUMPDEST DUP1 SLOAD DUP3 LT ISZERO PUSH2 0x1B91 JUMPI PUSH1 0x0 MSTORE PUSH1 0x5 PUSH1 0x20 PUSH1 0x0 KECCAK256 SWAP2 MUL ADD SWAP1 PUSH1 0x0 SWAP1 JUMP JUMPDEST PUSH1 0x0 SLOAD PUSH1 0x1 PUSH1 0x1 PUSH1 0xA0 SHL SUB AND CALLER SUB PUSH2 0x1D14 JUMPI JUMP JUMPDEST PUSH1 0x64 PUSH1 0x40 MLOAD PUSH3 0x461BCD PUSH1 0xE5 SHL DUP2 MSTORE PUSH1 0x20 PUSH1 0x4 DUP3 ADD MSTORE PUSH1 0x20 PUSH1 0x24 DUP3 ADD MSTORE PUSH32 0x4F776E61626C653A2063616C6C6572206973206E6F7420746865206F776E6572 PUSH1 0x44 DUP3 ADD MSTORE REVERT JUMPDEST SWAP2 SWAP1 SWAP2 DUP3 MLOAD PUSH1 0x1 PUSH1 0x1 PUSH1 0x40 SHL SUB DUP2 GT PUSH2 0x1124 JUMPI PUSH2 0x1D75 DUP3 SLOAD PUSH2 0x1BDE JUMP JUMPDEST PUSH1 0x1F DUP2 GT PUSH2 0x1E1F JUMPI JUMPDEST POP PUSH1 0x20 DUP1 PUSH1 0x1F DUP4 GT PUSH1 0x1 EQ PUSH2 0x1DBB JUMPI POP DUP2 SWAP3 SWAP4 SWAP5 PUSH1 0x0 SWAP3 PUSH2 0x1DB0 JUMPI JUMPDEST POP POP DUP2 PUSH1 0x1 SHL SWAP2 PUSH1 0x0 NOT SWAP1 PUSH1 0x3 SHL SHR NOT AND OR SWAP1 SSTORE JUMP JUMPDEST ADD MLOAD SWAP1 POP CODESIZE DUP1 PUSH2 0x1D9A JUMP JUMPDEST SWAP1 PUSH1 0x1F NOT DUP4 AND SWAP6 DUP5 PUSH1 0x0 MSTORE DUP3 PUSH1 0x0 KECCAK256 SWAP3 PUSH1 0x0 SWAP1 JUMPDEST DUP9 DUP3 LT PUSH2 0x1E07 JUMPI POP POP DUP4 PUSH1 0x1 SWAP6 SWAP7 SWAP8 LT PUSH2 0x1DEE JUMPI JUMPDEST POP POP POP DUP2 SHL ADD SWAP1 SSTORE JUMP JUMPDEST ADD MLOAD PUSH1 0x0 NOT PUSH1 0xF8 DUP5 PUSH1 0x3 SHL AND SHR NOT AND SWAP1 SSTORE CODESIZE DUP1 DUP1 PUSH2 0x1DE4 JUMP JUMPDEST DUP1 PUSH1 0x1 DUP6 SWAP7 DUP3 SWAP5 SWAP7 DUP7 ADD MLOAD DUP2 SSTORE ADD SWAP6 ADD SWAP4 ADD SWAP1 PUSH2 0x1DCF JUMP JUMPDEST PUSH1 0x0 DUP4 DUP2 MSTORE PUSH1 0x20 DUP2 KECCAK256 PUSH1 0x1F DUP5 ADD PUSH1 0x5 SHR DUP2 ADD SWAP3 PUSH1 0x20 DUP6 LT PUSH2 0x1E5D JUMPI JUMPDEST PUSH1 0x1F ADD PUSH1 0x5 SHR ADD SWAP2 JUMPDEST DUP3 DUP2 LT PUSH2 0x1E52 JUMPI POP POP PUSH2 0x1D7E JUMP JUMPDEST DUP2 DUP2 SSTORE PUSH1 0x1 ADD PUSH2 0x1E44 JUMP JUMPDEST SWAP1 SWAP3 POP DUP3 SWAP1 PUSH2 0x1E3B JUMP JUMPDEST PUSH2 0x1E7F SWAP1 PUSH1 0x20 PUSH1 0x40 MLOAD SWAP3 DUP3 DUP5 DUP1 SWAP5 MLOAD SWAP4 DUP5 SWAP3 ADD PUSH2 0x1B12 JUMP JUMPDEST DUP2 ADD SUB SWAP1 KECCAK256 SWAP1 JUMP JUMPDEST ISZERO PUSH2 0x1E8E JUMPI JUMP JUMPDEST PUSH1 0x40 MLOAD PUSH3 0x461BCD PUSH1 0xE5 SHL DUP2 MSTORE PUSH1 0x20 PUSH1 0x4 DUP3 ADD MSTORE PUSH1 0x16 PUSH1 0x24 DUP3 ADD MSTORE PUSH22 0x496E76616C69642077616C6C65742061646472657373 PUSH1 0x50 SHL PUSH1 0x44 DUP3 ADD MSTORE PUSH1 0x64 SWAP1 REVERT JUMPDEST PUSH1 0x2 PUSH1 0x1 SLOAD EQ PUSH2 0x1EDD JUMPI PUSH1 0x2 PUSH1 0x1 SSTORE JUMP JUMPDEST PUSH1 0x40 MLOAD PUSH3 0x461BCD PUSH1 0xE5 SHL DUP2 MSTORE PUSH1 0x20 PUSH1 0x4 DUP3 ADD MSTORE PUSH1 0x1F PUSH1 0x24 DUP3 ADD MSTORE PUSH32 0x5265656E7472616E637947756172643A207265656E7472616E742063616C6C00 PUSH1 0x44 DUP3 ADD MSTORE PUSH1 0x64 SWAP1 REVERT JUMPDEST ISZERO PUSH2 0x1F29 JUMPI JUMP JUMPDEST PUSH1 0x40 MLOAD PUSH3 0x461BCD PUSH1 0xE5 SHL DUP2 MSTORE PUSH1 0x20 PUSH1 0x4 DUP3 ADD MSTORE PUSH1 0x14 PUSH1 0x24 DUP3 ADD MSTORE PUSH20 0x119A595B1908191BD95CC81B9BDD08195E1A5CDD PUSH1 0x62 SHL PUSH1 0x44 DUP3 ADD MSTORE PUSH1 0x64 SWAP1 REVERT JUMPDEST ISZERO PUSH2 0x1F6C JUMPI JUMP JUMPDEST PUSH1 0x40 MLOAD PUSH3 0x461BCD PUSH1 0xE5 SHL DUP2 MSTORE PUSH1 0x20 PUSH1 0x4 DUP3 ADD MSTORE PUSH1 0x18 PUSH1 0x24 DUP3 ADD MSTORE PUSH32 0x496E76616C69642064656C656761746520616464726573730000000000000000 PUSH1 0x44 DUP3 ADD MSTORE PUSH1 0x64 SWAP1 REVERT JUMPDEST PUSH1 0x0 NOT DUP2 EQ PUSH2 0x1144 JUMPI PUSH1 0x1 ADD SWAP1 JUMP JUMPDEST PUSH1 0x1 PUSH1 0x1 PUSH1 0x40 SHL SUB DUP2 GT PUSH2 0x1124 JUMPI PUSH1 0x5 SHL PUSH1 0x20 ADD SWAP1 JUMP JUMPDEST PUSH1 0x8 SLOAD SWAP1 PUSH1 0x0 JUMPDEST DUP3 DUP2 LT PUSH2 0x1FED JUMPI POP POP POP PUSH1 0x0 SWAP1 JUMP JUMPDEST PUSH2 0x1FF6 DUP2 PUSH2 0x1BA7 JUMP JUMPDEST SWAP1 SLOAD PUSH1 0x3 SWAP2 SWAP1 SWAP2 SHL SHR PUSH1 0x1 PUSH1 0x1 PUSH1 0xA0 SHL SUB SWAP1 DUP2 AND SWAP1 DUP4 AND EQ PUSH2 0x2020 JUMPI PUSH2 0x201B SWAP1 PUSH2 0x1FB1 JUMP JUMPDEST PUSH2 0x1FDE JUMP JUMPDEST POP POP POP PUSH1 0x1 SWAP1 JUMP INVALID LOG2 PUSH5 0x6970667358 0x22 SLT KECCAK256 EXTCODECOPY DUP12 0xE1 0xB6 DUP3 DUP6 0x22 0xE6 DUP11 0xD5 PUSH26 0x141EF8CBC13E779CC582B39398A1ABFD8D9FAF977364736F6C63 NUMBER STOP ADDMOD SGT STOP CALLER MOD CREATE2 SWAP9 0xB0 PUSH8 0xCD9C8ADB52D2E3B0 0xA5 DUP6 CREATE 0xF6 BALANCE GT 0xBB RETURNDATACOPY SWAP10 0xA8 0x24 0x2F 0xE9 0xBE 0xEA GAS SHR LOG3 0x5C "},"methodIdentifiers":{"BASE_SCORE_MULTIPLIER()":"aeeb12d5","MAX_TRUST_SCORE()":"74c8d377","MIN_TRUST_SCORE()":"057e709c","addAuthorizedUpdater(address)":"8c9b9fdc","authorizedUpdaters(address)":"8ff29cfe","createTrustField(string,uint8,uint256,uint8,uint8)":"2588b449","customFieldValues(address,string)":"cfcd9031","delegateTrust(address,uint256)":"32412d82","delegatedAmounts(address,address)":"b566a047","delegationCooldownPeriod()":"7dc01bfa","fieldNames(uint256)":"b2d3dd66","getCustomFieldValue(address,string)":"35dbb0b7","getDelegations(address)":"31cc13ba","getFieldNames()":"e1c95d1f","getTrustField(string)":"99d45a46","getTrustScore(address)":"5e09eea1","getTrustedWalletsCount()":"552a2cb6","lastScoreUpdate(address)":"ca8b052f","minimumStakeForValidation()":"f46978aa","owner()":"8da5cb5b","pause()":"8456cb59","removeAuthorizedUpdater(address)":"603cda09","renounceOwnership()":"715018a6","revokeTrustDelegation(address)":"5fbe2121","scoreUpdateCooldown()":"72de66be","setCustomFieldValue(address,string,uint256)":"501a4a0a","transferOwnership(address)":"f2fde38b","trustDelegations(address,uint256)":"e67355d1","trustFields(string)":"e04a8b7e","trustScores(address)":"12df0fc4","trustedWallets(uint256)":"f0b6d592","updateTrustFieldWeight(string,uint256)":"e0b3d019","updateTrustScore(address,uint256,uint256,uint256,uint256,uint256,uint256,uint256,uint256,uint256,uint256)":"4da267ab"}}}}}