{"contracts/TrustEngine.sol":{"TrustEngine":{"abi":[{"anonymous":false,"inputs":[{"indexed":true,"internalType":"address","name":"user","type":"address"},{"indexed":false,"internalType":"uint256","name":"temperature","type":"uint256"},{"indexed":false,"internalType":"uint256","name":"humidity","type":"uint256"}],"name":"EnvironmentalDataUpdated","type":"event"},{"anonymous":false,"inputs":[{"indexed":true,"internalType":"address","name":"previousOwner","type":"address"},{"indexed":true,"internalType":"address","name":"newOwner","type":"address"}],"name":"OwnershipTransferred","type":"event"},{"anonymous":false,"inputs":[{"indexed":true,"internalType":"address","name":"user","type":"address"},{"indexed":false,"internalType":"uint256","name":"score","type":"uint256"},{"indexed":false,"internalType":"uint256","name":"environmentalHash","type":"uint256"}],"name":"TrustScoreUpdated","type":"event"},{"inputs":[{"internalType":"address","name":"user","type":"address"}],"name":"calculateTrustMultiplier","outputs":[{"internalType":"uint256","name":"","type":"uint256"}],"stateMutability":"view","type":"function"},{"inputs":[{"internalType":"address","name":"","type":"address"}],"name":"environmentalData","outputs":[{"internalType":"uint256","name":"","type":"uint256"}],"stateMutability":"view","type":"function"},{"inputs":[{"internalType":"address","name":"","type":"address"}],"name":"environmentalHashes","outputs":[{"internalType":"uint256","name":"","type":"uint256"}],"stateMutability":"view","type":"function"},{"inputs":[{"internalType":"address","name":"user","type":"address"}],"name":"getEnvironmentalData","outputs":[{"internalType":"uint256","name":"temperature","type":"uint256"},{"internalType":"uint256","name":"humidity","type":"uint256"},{"internalType":"uint256","name":"pressure","type":"uint256"},{"internalType":"uint256","name":"timestamp","type":"uint256"}],"stateMutability":"view","type":"function"},{"inputs":[{"internalType":"address","name":"user","type":"address"}],"name":"getTrustScore","outputs":[{"internalType":"uint256","name":"","type":"uint256"}],"stateMutability":"view","type":"function"},{"inputs":[{"internalType":"address","name":"user","type":"address"}],"name":"getTrustScoreValue","outputs":[{"internalType":"uint256","name":"","type":"uint256"}],"stateMutability":"view","type":"function"},{"inputs":[{"internalType":"address","name":"user","type":"address"},{"internalType":"uint256","name":"score","type":"uint256"}],"name":"initializeTrustScore","outputs":[],"stateMutability":"nonpayable","type":"function"},{"inputs":[{"internalType":"address","name":"","type":"address"}],"name":"isActive","outputs":[{"internalType":"bool","name":"","type":"bool"}],"stateMutability":"view","type":"function"},{"inputs":[{"internalType":"address","name":"","type":"address"}],"name":"lastUpdated","outputs":[{"internalType":"uint256","name":"","type":"uint256"}],"stateMutability":"view","type":"function"},{"inputs":[],"name":"owner","outputs":[{"internalType":"address","name":"","type":"address"}],"stateMutability":"view","type":"function"},{"inputs":[],"name":"renounceOwnership","outputs":[],"stateMutability":"nonpayable","type":"function"},{"inputs":[{"internalType":"uint256","name":"temperature","type":"uint256"},{"internalType":"uint256","name":"humidity","type":"uint256"},{"internalType":"uint256","name":"pressure","type":"uint256"}],"name":"submitEnvironmentalData","outputs":[],"stateMutability":"nonpayable","type":"function"},{"inputs":[{"internalType":"address","name":"newOwner","type":"address"}],"name":"transferOwnership","outputs":[],"stateMutability":"nonpayable","type":"function"},{"inputs":[{"internalType":"address","name":"","type":"address"}],"name":"trustScores","outputs":[{"internalType":"uint256","name":"","type":"uint256"}],"stateMutability":"view","type":"function"},{"inputs":[{"internalType":"uint256","name":"newScore","type":"uint256"}],"name":"updateTrustScore","outputs":[],"stateMutability":"nonpayable","type":"function"}],"evm":{"bytecode":{"linkReferences":{},"object":"6080806040523461005f5760008054336001600160a01b0319821681178355916001600160a01b03909116907f8be0079c531659141344cd1fd0a4f28419497f9722a3daafe3b4186f6b6457e09080a36001805561097290816100658239f35b600080fdfe6080604081815260048036101561001557600080fd5b600092833560e01c9081630427bcda1461078f575080630a6f93e61461075757806312df0fc41461071f57806329afd353146104f957806334ae18e3146105975780634cf915c9146104fe5780635e09eea1146104f9578063715018a61461049c5780638da5cb5b146104745780638ecdf7ea146104115780639f8a13d7146103d3578063a838bafc1461039b578063b007945e14610256578063cb188c9c1461018d5763f2fde38b146100c857600080fd5b34610189576020366003190112610189576100e16107c7565b906100ea61081c565b6001600160a01b0391821692831561013757505082546001600160a01b0319811683178455167f8be0079c531659141344cd1fd0a4f28419497f9722a3daafe3b4186f6b6457e08380a380f35b906020608492519162461bcd60e51b8352820152602660248201527f4f776e61626c653a206e6577206f776e657220697320746865207a65726f206160448201526564647265737360d01b6064820152fd5b8280fd5b50919034610252576020366003190112610252576101a96107c7565b6001600160a01b03811683526002602052818320549092600a808302928015908404909114171561023f576103e89180830180931161022c576101ec83956108c0565b6101fb575b6020858551908152f35b6105dc919293945001809211610219575060209250903880806101f1565b634e487b7160e01b815260118452602490fd5b634e487b7160e01b825260118652602482fd5b634e487b7160e01b815260118552602490fd5b5080fd5b509034610189576060366003190112610189578135916024359060443590611388851161036257612710831161032c57620138808210158061031f575b156102e95750907f13c9812af128e255f4174fac4d52d7b25defd3d4ae5e30d5a1dff274ed7c0dd5929133865260066020524260601b908260201b8660301b17171782862055815193845260208401523392a280f35b606490602085519162461bcd60e51b8352820152601060248201526f496e76616c696420707265737375726560801b6044820152fd5b506201d4c0821115610293565b606490602085519162461bcd60e51b8352820152601060248201526f496e76616c69642068756d696469747960801b6044820152fd5b606490602085519162461bcd60e51b83528201526013602482015272496e76616c69642074656d706572617475726560681b6044820152fd5b5050346102525760203660031901126102525760209181906001600160a01b036103c36107c7565b1681526006845220549051908152f35b5050346102525760203660031901126102525760209160ff9082906001600160a01b036103fe6107c7565b1681526005855220541690519015158152f35b5050346102525760203660031901126102525760809181906001600160a01b036104396107c7565b168152600660205220549080519161ffff808260301c1684528160201c16602084015263ffffffff918282169084015260601c166060820152f35b505034610252578160031936011261025257905490516001600160a01b039091168152602090f35b83346104f657806003193601126104f6576104b561081c565b80546001600160a01b03198116825581906001600160a01b03167f8be0079c531659141344cd1fd0a4f28419497f9722a3daafe3b4186f6b6457e08280a380f35b80fd5b6107e2565b5050346102525780600319360112610252577f15dd57e0cde9af9083c846eb39c9da382e907c0036818e4a163ecd167e5f32766105396107c7565b916024359261054661081c565b6105536064851115610874565b6001600160a01b0316808552600260209081528286208590556003815282862042905560058152828620805460ff191660011790558251948552840185905292a280f35b509190346102525760209081600319360112610189578335913384526006815263ffffffff828520541680156106e45742034281116106d15761012c1061068f576105e56064841115610874565b33845260028152828285205560038152428285205560058152818420600160ff198254161790556006815281842054928251908282019485528282528382019482861067ffffffffffffffff87111761067c5790859697606093927f15dd57e0cde9af9083c846eb39c9da382e907c0036818e4a163ecd167e5f32769787528351902094338a52528385892055865201523392a280f35b634e487b7160e01b875260418852602487fd5b8490606492519162461bcd60e51b8352820152601a60248201527f456e7669726f6e6d656e74616c206461746120746f6f206f6c640000000000006044820152fd5b634e487b7160e01b855260118652602485fd5b825162461bcd60e51b815280870183905260156024820152744e6f20656e7669726f6e6d656e74616c206461746160581b6044820152606490fd5b5050346102525760203660031901126102525760209181906001600160a01b036107476107c7565b1681526002845220549051908152f35b5050346102525760203660031901126102525760209181906001600160a01b0361077f6107c7565b1681526003845220549051908152f35b92919050346107c35760203660031901126107c357602093906001600160a01b036107b86107c7565b168252845220548152f35b8380fd5b600435906001600160a01b03821682036107dd57565b600080fd5b346107dd5760203660031901126107dd576001600160a01b036108036107c7565b1660005260026020526020604060002054604051908152f35b6000546001600160a01b0316330361083057565b606460405162461bcd60e51b815260206004820152602060248201527f4f776e61626c653a2063616c6c6572206973206e6f7420746865206f776e65726044820152fd5b1561087b57565b60405162461bcd60e51b815260206004820152601a60248201527f54727573742073636f7265206d757374206265203c3d203130300000000000006044820152606490fd5b6001600160a01b031660009081526006602052604081205463ffffffff81169081156109375761ffff611388818360301c1611610931576127109160201c161161092d57620138808110908115610920575b5061091d5750600190565b90565b6201d4c091501138610912565b5090565b50505090565b50509056fea264697066735822122018b1fae451e1102b9a8b04a6a0fa3e79fe1acb65fe50cb7c39695d2ac8d16fe064736f6c63430008130033","opcodes":"PUSH1 0x80 DUP1 PUSH1 0x40 MSTORE CALLVALUE PUSH2 0x5F JUMPI PUSH1 0x0 DUP1 SLOAD CALLER PUSH1 0x1 PUSH1 0x1 PUSH1 0xA0 SHL SUB NOT DUP3 AND DUP2 OR DUP4 SSTORE SWAP2 PUSH1 0x1 PUSH1 0x1 PUSH1 0xA0 SHL SUB SWAP1 SWAP2 AND SWAP1 PUSH32 0x8BE0079C531659141344CD1FD0A4F28419497F9722A3DAAFE3B4186F6B6457E0 SWAP1 DUP1 LOG3 PUSH1 0x1 DUP1 SSTORE PUSH2 0x972 SWAP1 DUP2 PUSH2 0x65 DUP3 CODECOPY RETURN JUMPDEST PUSH1 0x0 DUP1 REVERT INVALID PUSH1 0x80 PUSH1 0x40 DUP2 DUP2 MSTORE PUSH1 0x4 DUP1 CALLDATASIZE LT ISZERO PUSH2 0x15 JUMPI PUSH1 0x0 DUP1 REVERT JUMPDEST PUSH1 0x0 SWAP3 DUP4 CALLDATALOAD PUSH1 0xE0 SHR SWAP1 DUP2 PUSH4 0x427BCDA EQ PUSH2 0x78F JUMPI POP DUP1 PUSH4 0xA6F93E6 EQ PUSH2 0x757 JUMPI DUP1 PUSH4 0x12DF0FC4 EQ PUSH2 0x71F JUMPI DUP1 PUSH4 0x29AFD353 EQ PUSH2 0x4F9 JUMPI DUP1 PUSH4 0x34AE18E3 EQ PUSH2 0x597 JUMPI DUP1 PUSH4 0x4CF915C9 EQ PUSH2 0x4FE JUMPI DUP1 PUSH4 0x5E09EEA1 EQ PUSH2 0x4F9 JUMPI DUP1 PUSH4 0x715018A6 EQ PUSH2 0x49C JUMPI DUP1 PUSH4 0x8DA5CB5B EQ PUSH2 0x474 JUMPI DUP1 PUSH4 0x8ECDF7EA EQ PUSH2 0x411 JUMPI DUP1 PUSH4 0x9F8A13D7 EQ PUSH2 0x3D3 JUMPI DUP1 PUSH4 0xA838BAFC EQ PUSH2 0x39B JUMPI DUP1 PUSH4 0xB007945E EQ PUSH2 0x256 JUMPI DUP1 PUSH4 0xCB188C9C EQ PUSH2 0x18D JUMPI PUSH4 0xF2FDE38B EQ PUSH2 0xC8 JUMPI PUSH1 0x0 DUP1 REVERT JUMPDEST CALLVALUE PUSH2 0x189 JUMPI PUSH1 0x20 CALLDATASIZE PUSH1 0x3 NOT ADD SLT PUSH2 0x189 JUMPI PUSH2 0xE1 PUSH2 0x7C7 JUMP JUMPDEST SWAP1 PUSH2 0xEA PUSH2 0x81C JUMP JUMPDEST PUSH1 0x1 PUSH1 0x1 PUSH1 0xA0 SHL SUB SWAP2 DUP3 AND SWAP3 DUP4 ISZERO PUSH2 0x137 JUMPI POP POP DUP3 SLOAD PUSH1 0x1 PUSH1 0x1 PUSH1 0xA0 SHL SUB NOT DUP2 AND DUP4 OR DUP5 SSTORE AND PUSH32 0x8BE0079C531659141344CD1FD0A4F28419497F9722A3DAAFE3B4186F6B6457E0 DUP4 DUP1 LOG3 DUP1 RETURN JUMPDEST SWAP1 PUSH1 0x20 PUSH1 0x84 SWAP3 MLOAD SWAP2 PUSH3 0x461BCD PUSH1 0xE5 SHL DUP4 MSTORE DUP3 ADD MSTORE PUSH1 0x26 PUSH1 0x24 DUP3 ADD MSTORE PUSH32 0x4F776E61626C653A206E6577206F776E657220697320746865207A65726F2061 PUSH1 0x44 DUP3 ADD MSTORE PUSH6 0x646472657373 PUSH1 0xD0 SHL PUSH1 0x64 DUP3 ADD MSTORE REVERT JUMPDEST DUP3 DUP1 REVERT JUMPDEST POP SWAP2 SWAP1 CALLVALUE PUSH2 0x252 JUMPI PUSH1 0x20 CALLDATASIZE PUSH1 0x3 NOT ADD SLT PUSH2 0x252 JUMPI PUSH2 0x1A9 PUSH2 0x7C7 JUMP JUMPDEST PUSH1 0x1 PUSH1 0x1 PUSH1 0xA0 SHL SUB DUP2 AND DUP4 MSTORE PUSH1 0x2 PUSH1 0x20 MSTORE DUP2 DUP4 KECCAK256 SLOAD SWAP1 SWAP3 PUSH1 0xA DUP1 DUP4 MUL SWAP3 DUP1 ISZERO SWAP1 DUP5 DIV SWAP1 SWAP2 EQ OR ISZERO PUSH2 0x23F JUMPI PUSH2 0x3E8 SWAP2 DUP1 DUP4 ADD DUP1 SWAP4 GT PUSH2 0x22C JUMPI PUSH2 0x1EC DUP4 SWAP6 PUSH2 0x8C0 JUMP JUMPDEST PUSH2 0x1FB JUMPI JUMPDEST PUSH1 0x20 DUP6 DUP6 MLOAD SWAP1 DUP2 MSTORE RETURN JUMPDEST PUSH2 0x5DC SWAP2 SWAP3 SWAP4 SWAP5 POP ADD DUP1 SWAP3 GT PUSH2 0x219 JUMPI POP PUSH1 0x20 SWAP3 POP SWAP1 CODESIZE DUP1 DUP1 PUSH2 0x1F1 JUMP JUMPDEST PUSH4 0x4E487B71 PUSH1 0xE0 SHL DUP2 MSTORE PUSH1 0x11 DUP5 MSTORE PUSH1 0x24 SWAP1 REVERT JUMPDEST PUSH4 0x4E487B71 PUSH1 0xE0 SHL DUP3 MSTORE PUSH1 0x11 DUP7 MSTORE PUSH1 0x24 DUP3 REVERT JUMPDEST PUSH4 0x4E487B71 PUSH1 0xE0 SHL DUP2 MSTORE PUSH1 0x11 DUP6 MSTORE PUSH1 0x24 SWAP1 REVERT JUMPDEST POP DUP1 REVERT JUMPDEST POP SWAP1 CALLVALUE PUSH2 0x189 JUMPI PUSH1 0x60 CALLDATASIZE PUSH1 0x3 NOT ADD SLT PUSH2 0x189 JUMPI DUP2 CALLDATALOAD SWAP2 PUSH1 0x24 CALLDATALOAD SWAP1 PUSH1 0x44 CALLDATALOAD SWAP1 PUSH2 0x1388 DUP6 GT PUSH2 0x362 JUMPI PUSH2 0x2710 DUP4 GT PUSH2 0x32C JUMPI PUSH3 0x13880 DUP3 LT ISZERO DUP1 PUSH2 0x31F JUMPI JUMPDEST ISZERO PUSH2 0x2E9 JUMPI POP SWAP1 PUSH32 0x13C9812AF128E255F4174FAC4D52D7B25DEFD3D4AE5E30D5A1DFF274ED7C0DD5 SWAP3 SWAP2 CALLER DUP7 MSTORE PUSH1 0x6 PUSH1 0x20 MSTORE TIMESTAMP PUSH1 0x60 SHL SWAP1 DUP3 PUSH1 0x20 SHL DUP7 PUSH1 0x30 SHL OR OR OR DUP3 DUP7 KECCAK256 SSTORE DUP2 MLOAD SWAP4 DUP5 MSTORE PUSH1 0x20 DUP5 ADD MSTORE CALLER SWAP3 LOG2 DUP1 RETURN JUMPDEST PUSH1 0x64 SWAP1 PUSH1 0x20 DUP6 MLOAD SWAP2 PUSH3 0x461BCD PUSH1 0xE5 SHL DUP4 MSTORE DUP3 ADD MSTORE PUSH1 0x10 PUSH1 0x24 DUP3 ADD MSTORE PUSH16 0x496E76616C6964207072657373757265 PUSH1 0x80 SHL PUSH1 0x44 DUP3 ADD MSTORE REVERT JUMPDEST POP PUSH3 0x1D4C0 DUP3 GT ISZERO PUSH2 0x293 JUMP JUMPDEST PUSH1 0x64 SWAP1 PUSH1 0x20 DUP6 MLOAD SWAP2 PUSH3 0x461BCD PUSH1 0xE5 SHL DUP4 MSTORE DUP3 ADD MSTORE PUSH1 0x10 PUSH1 0x24 DUP3 ADD MSTORE PUSH16 0x496E76616C69642068756D6964697479 PUSH1 0x80 SHL PUSH1 0x44 DUP3 ADD MSTORE REVERT JUMPDEST PUSH1 0x64 SWAP1 PUSH1 0x20 DUP6 MLOAD SWAP2 PUSH3 0x461BCD PUSH1 0xE5 SHL DUP4 MSTORE DUP3 ADD MSTORE PUSH1 0x13 PUSH1 0x24 DUP3 ADD MSTORE PUSH19 0x496E76616C69642074656D7065726174757265 PUSH1 0x68 SHL PUSH1 0x44 DUP3 ADD MSTORE REVERT JUMPDEST POP POP CALLVALUE PUSH2 0x252 JUMPI PUSH1 0x20 CALLDATASIZE PUSH1 0x3 NOT ADD SLT PUSH2 0x252 JUMPI PUSH1 0x20 SWAP2 DUP2 SWAP1 PUSH1 0x1 PUSH1 0x1 PUSH1 0xA0 SHL SUB PUSH2 0x3C3 PUSH2 0x7C7 JUMP JUMPDEST AND DUP2 MSTORE PUSH1 0x6 DUP5 MSTORE KECCAK256 SLOAD SWAP1 MLOAD SWAP1 DUP2 MSTORE RETURN JUMPDEST POP POP CALLVALUE PUSH2 0x252 JUMPI PUSH1 0x20 CALLDATASIZE PUSH1 0x3 NOT ADD SLT PUSH2 0x252 JUMPI PUSH1 0x20 SWAP2 PUSH1 0xFF SWAP1 DUP3 SWAP1 PUSH1 0x1 PUSH1 0x1 PUSH1 0xA0 SHL SUB PUSH2 0x3FE PUSH2 0x7C7 JUMP JUMPDEST AND DUP2 MSTORE PUSH1 0x5 DUP6 MSTORE KECCAK256 SLOAD AND SWAP1 MLOAD SWAP1 ISZERO ISZERO DUP2 MSTORE RETURN JUMPDEST POP POP CALLVALUE PUSH2 0x252 JUMPI PUSH1 0x20 CALLDATASIZE PUSH1 0x3 NOT ADD SLT PUSH2 0x252 JUMPI PUSH1 0x80 SWAP2 DUP2 SWAP1 PUSH1 0x1 PUSH1 0x1 PUSH1 0xA0 SHL SUB PUSH2 0x439 PUSH2 0x7C7 JUMP JUMPDEST AND DUP2 MSTORE PUSH1 0x6 PUSH1 0x20 MSTORE KECCAK256 SLOAD SWAP1 DUP1 MLOAD SWAP2 PUSH2 0xFFFF DUP1 DUP3 PUSH1 0x30 SHR AND DUP5 MSTORE DUP2 PUSH1 0x20 SHR AND PUSH1 0x20 DUP5 ADD MSTORE PUSH4 0xFFFFFFFF SWAP2 DUP3 DUP3 AND SWAP1 DUP5 ADD MSTORE PUSH1 0x60 SHR AND PUSH1 0x60 DUP3 ADD MSTORE RETURN JUMPDEST POP POP CALLVALUE PUSH2 0x252 JUMPI DUP2 PUSH1 0x3 NOT CALLDATASIZE ADD SLT PUSH2 0x252 JUMPI SWAP1 SLOAD SWAP1 MLOAD PUSH1 0x1 PUSH1 0x1 PUSH1 0xA0 SHL SUB SWAP1 SWAP2 AND DUP2 MSTORE PUSH1 0x20 SWAP1 RETURN JUMPDEST DUP4 CALLVALUE PUSH2 0x4F6 JUMPI DUP1 PUSH1 0x3 NOT CALLDATASIZE ADD SLT PUSH2 0x4F6 JUMPI PUSH2 0x4B5 PUSH2 0x81C JUMP JUMPDEST DUP1 SLOAD PUSH1 0x1 PUSH1 0x1 PUSH1 0xA0 SHL SUB NOT DUP2 AND DUP3 SSTORE DUP2 SWAP1 PUSH1 0x1 PUSH1 0x1 PUSH1 0xA0 SHL SUB AND PUSH32 0x8BE0079C531659141344CD1FD0A4F28419497F9722A3DAAFE3B4186F6B6457E0 DUP3 DUP1 LOG3 DUP1 RETURN JUMPDEST DUP1 REVERT JUMPDEST PUSH2 0x7E2 JUMP JUMPDEST POP POP CALLVALUE PUSH2 0x252 JUMPI DUP1 PUSH1 0x3 NOT CALLDATASIZE ADD SLT PUSH2 0x252 JUMPI PUSH32 0x15DD57E0CDE9AF9083C846EB39C9DA382E907C0036818E4A163ECD167E5F3276 PUSH2 0x539 PUSH2 0x7C7 JUMP JUMPDEST SWAP2 PUSH1 0x24 CALLDATALOAD SWAP3 PUSH2 0x546 PUSH2 0x81C JUMP JUMPDEST PUSH2 0x553 PUSH1 0x64 DUP6 GT ISZERO PUSH2 0x874 JUMP JUMPDEST PUSH1 0x1 PUSH1 0x1 PUSH1 0xA0 SHL SUB AND DUP1 DUP6 MSTORE PUSH1 0x2 PUSH1 0x20 SWAP1 DUP2 MSTORE DUP3 DUP7 KECCAK256 DUP6 SWAP1 SSTORE PUSH1 0x3 DUP2 MSTORE DUP3 DUP7 KECCAK256 TIMESTAMP SWAP1 SSTORE PUSH1 0x5 DUP2 MSTORE DUP3 DUP7 KECCAK256 DUP1 SLOAD PUSH1 0xFF NOT AND PUSH1 0x1 OR SWAP1 SSTORE DUP3 MLOAD SWAP5 DUP6 MSTORE DUP5 ADD DUP6 SWAP1 MSTORE SWAP3 LOG2 DUP1 RETURN JUMPDEST POP SWAP2 SWAP1 CALLVALUE PUSH2 0x252 JUMPI PUSH1 0x20 SWAP1 DUP2 PUSH1 0x3 NOT CALLDATASIZE ADD SLT PUSH2 0x189 JUMPI DUP4 CALLDATALOAD SWAP2 CALLER DUP5 MSTORE PUSH1 0x6 DUP2 MSTORE PUSH4 0xFFFFFFFF DUP3 DUP6 KECCAK256 SLOAD AND DUP1 ISZERO PUSH2 0x6E4 JUMPI TIMESTAMP SUB TIMESTAMP DUP2 GT PUSH2 0x6D1 JUMPI PUSH2 0x12C LT PUSH2 0x68F JUMPI PUSH2 0x5E5 PUSH1 0x64 DUP5 GT ISZERO PUSH2 0x874 JUMP JUMPDEST CALLER DUP5 MSTORE PUSH1 0x2 DUP2 MSTORE DUP3 DUP3 DUP6 KECCAK256 SSTORE PUSH1 0x3 DUP2 MSTORE TIMESTAMP DUP3 DUP6 KECCAK256 SSTORE PUSH1 0x5 DUP2 MSTORE DUP2 DUP5 KECCAK256 PUSH1 0x1 PUSH1 0xFF NOT DUP3 SLOAD AND OR SWAP1 SSTORE PUSH1 0x6 DUP2 MSTORE DUP2 DUP5 KECCAK256 SLOAD SWAP3 DUP3 MLOAD SWAP1 DUP3 DUP3 ADD SWAP5 DUP6 MSTORE DUP3 DUP3 MSTORE DUP4 DUP3 ADD SWAP5 DUP3 DUP7 LT PUSH8 0xFFFFFFFFFFFFFFFF DUP8 GT OR PUSH2 0x67C JUMPI SWAP1 DUP6 SWAP7 SWAP8 PUSH1 0x60 SWAP4 SWAP3 PUSH32 0x15DD57E0CDE9AF9083C846EB39C9DA382E907C0036818E4A163ECD167E5F3276 SWAP8 DUP8 MSTORE DUP4 MLOAD SWAP1 KECCAK256 SWAP5 CALLER DUP11 MSTORE MSTORE DUP4 DUP6 DUP10 KECCAK256 SSTORE DUP7 MSTORE ADD MSTORE CALLER SWAP3 LOG2 DUP1 RETURN JUMPDEST PUSH4 0x4E487B71 PUSH1 0xE0 SHL DUP8 MSTORE PUSH1 0x41 DUP9 MSTORE PUSH1 0x24 DUP8 REVERT JUMPDEST DUP5 SWAP1 PUSH1 0x64 SWAP3 MLOAD SWAP2 PUSH3 0x461BCD PUSH1 0xE5 SHL DUP4 MSTORE DUP3 ADD MSTORE PUSH1 0x1A PUSH1 0x24 DUP3 ADD MSTORE PUSH32 0x456E7669726F6E6D656E74616C206461746120746F6F206F6C64000000000000 PUSH1 0x44 DUP3 ADD MSTORE REVERT JUMPDEST PUSH4 0x4E487B71 PUSH1 0xE0 SHL DUP6 MSTORE PUSH1 0x11 DUP7 MSTORE PUSH1 0x24 DUP6 REVERT JUMPDEST DUP3 MLOAD PUSH3 0x461BCD PUSH1 0xE5 SHL DUP2 MSTORE DUP1 DUP8 ADD DUP4 SWAP1 MSTORE PUSH1 0x15 PUSH1 0x24 DUP3 ADD MSTORE PUSH21 0x4E6F20656E7669726F6E6D656E74616C2064617461 PUSH1 0x58 SHL PUSH1 0x44 DUP3 ADD MSTORE PUSH1 0x64 SWAP1 REVERT JUMPDEST POP POP CALLVALUE PUSH2 0x252 JUMPI PUSH1 0x20 CALLDATASIZE PUSH1 0x3 NOT ADD SLT PUSH2 0x252 JUMPI PUSH1 0x20 SWAP2 DUP2 SWAP1 PUSH1 0x1 PUSH1 0x1 PUSH1 0xA0 SHL SUB PUSH2 0x747 PUSH2 0x7C7 JUMP JUMPDEST AND DUP2 MSTORE PUSH1 0x2 DUP5 MSTORE KECCAK256 SLOAD SWAP1 MLOAD SWAP1 DUP2 MSTORE RETURN JUMPDEST POP POP CALLVALUE PUSH2 0x252 JUMPI PUSH1 0x20 CALLDATASIZE PUSH1 0x3 NOT ADD SLT PUSH2 0x252 JUMPI PUSH1 0x20 SWAP2 DUP2 SWAP1 PUSH1 0x1 PUSH1 0x1 PUSH1 0xA0 SHL SUB PUSH2 0x77F PUSH2 0x7C7 JUMP JUMPDEST AND DUP2 MSTORE PUSH1 0x3 DUP5 MSTORE KECCAK256 SLOAD SWAP1 MLOAD SWAP1 DUP2 MSTORE RETURN JUMPDEST SWAP3 SWAP2 SWAP1 POP CALLVALUE PUSH2 0x7C3 JUMPI PUSH1 0x20 CALLDATASIZE PUSH1 0x3 NOT ADD SLT PUSH2 0x7C3 JUMPI PUSH1 0x20 SWAP4 SWAP1 PUSH1 0x1 PUSH1 0x1 PUSH1 0xA0 SHL SUB PUSH2 0x7B8 PUSH2 0x7C7 JUMP JUMPDEST AND DUP3 MSTORE DUP5 MSTORE KECCAK256 SLOAD DUP2 MSTORE RETURN JUMPDEST DUP4 DUP1 REVERT JUMPDEST PUSH1 0x4 CALLDATALOAD SWAP1 PUSH1 0x1 PUSH1 0x1 PUSH1 0xA0 SHL SUB DUP3 AND DUP3 SUB PUSH2 0x7DD JUMPI JUMP JUMPDEST PUSH1 0x0 DUP1 REVERT JUMPDEST CALLVALUE PUSH2 0x7DD JUMPI PUSH1 0x20 CALLDATASIZE PUSH1 0x3 NOT ADD SLT PUSH2 0x7DD JUMPI PUSH1 0x1 PUSH1 0x1 PUSH1 0xA0 SHL SUB PUSH2 0x803 PUSH2 0x7C7 JUMP JUMPDEST AND PUSH1 0x0 MSTORE PUSH1 0x2 PUSH1 0x20 MSTORE PUSH1 0x20 PUSH1 0x40 PUSH1 0x0 KECCAK256 SLOAD PUSH1 0x40 MLOAD SWAP1 DUP2 MSTORE RETURN JUMPDEST PUSH1 0x0 SLOAD PUSH1 0x1 PUSH1 0x1 PUSH1 0xA0 SHL SUB AND CALLER SUB PUSH2 0x830 JUMPI JUMP JUMPDEST PUSH1 0x64 PUSH1 0x40 MLOAD PUSH3 0x461BCD PUSH1 0xE5 SHL DUP2 MSTORE PUSH1 0x20 PUSH1 0x4 DUP3 ADD MSTORE PUSH1 0x20 PUSH1 0x24 DUP3 ADD MSTORE PUSH32 0x4F776E61626C653A2063616C6C6572206973206E6F7420746865206F776E6572 PUSH1 0x44 DUP3 ADD MSTORE REVERT JUMPDEST ISZERO PUSH2 0x87B JUMPI JUMP JUMPDEST PUSH1 0x40 MLOAD PUSH3 0x461BCD PUSH1 0xE5 SHL DUP2 MSTORE PUSH1 0x20 PUSH1 0x4 DUP3 ADD MSTORE PUSH1 0x1A PUSH1 0x24 DUP3 ADD MSTORE PUSH32 0x54727573742073636F7265206D757374206265203C3D20313030000000000000 PUSH1 0x44 DUP3 ADD MSTORE PUSH1 0x64 SWAP1 REVERT JUMPDEST PUSH1 0x1 PUSH1 0x1 PUSH1 0xA0 SHL SUB AND PUSH1 0x0 SWAP1 DUP2 MSTORE PUSH1 0x6 PUSH1 0x20 MSTORE PUSH1 0x40 DUP2 KECCAK256 SLOAD PUSH4 0xFFFFFFFF DUP2 AND SWAP1 DUP2 ISZERO PUSH2 0x937 JUMPI PUSH2 0xFFFF PUSH2 0x1388 DUP2 DUP4 PUSH1 0x30 SHR AND GT PUSH2 0x931 JUMPI PUSH2 0x2710 SWAP2 PUSH1 0x20 SHR AND GT PUSH2 0x92D JUMPI PUSH3 0x13880 DUP2 LT SWAP1 DUP2 ISZERO PUSH2 0x920 JUMPI JUMPDEST POP PUSH2 0x91D JUMPI POP PUSH1 0x1 SWAP1 JUMP JUMPDEST SWAP1 JUMP JUMPDEST PUSH3 0x1D4C0 SWAP2 POP GT CODESIZE PUSH2 0x912 JUMP JUMPDEST POP SWAP1 JUMP JUMPDEST POP POP POP SWAP1 JUMP JUMPDEST POP POP SWAP1 JUMP INVALID LOG2 PUSH5 0x6970667358 0x22 SLT KECCAK256 XOR 0xB1 STATICCALL 0xE4 MLOAD 0xE1 LT 0x2B SWAP11 DUP12 DIV 0xA6 LOG0 STATICCALL RETURNDATACOPY PUSH26 0xFE1ACB65FE50CB7C39695D2AC8D16FE064736F6C634300081300 CALLER "},"methodIdentifiers":{"calculateTrustMultiplier(address)":"cb188c9c","environmentalData(address)":"a838bafc","environmentalHashes(address)":"0427bcda","getEnvironmentalData(address)":"8ecdf7ea","getTrustScore(address)":"5e09eea1","getTrustScoreValue(address)":"29afd353","initializeTrustScore(address,uint256)":"4cf915c9","isActive(address)":"9f8a13d7","lastUpdated(address)":"0a6f93e6","owner()":"8da5cb5b","renounceOwnership()":"715018a6","submitEnvironmentalData(uint256,uint256,uint256)":"b007945e","transferOwnership(address)":"f2fde38b","trustScores(address)":"12df0fc4","updateTrustScore(uint256)":"34ae18e3"}}}}}