{"contracts/Bridge.sol":{"Bridge":{"abi":[{"inputs":[{"internalType":"address","name":"_trustEngine","type":"address"}],"stateMutability":"nonpayable","type":"constructor"},{"anonymous":false,"inputs":[{"indexed":true,"internalType":"address","name":"previousOwner","type":"address"},{"indexed":true,"internalType":"address","name":"newOwner","type":"address"}],"name":"OwnershipTransferred","type":"event"},{"anonymous":false,"inputs":[{"indexed":true,"internalType":"bytes32","name":"transferId","type":"bytes32"},{"indexed":true,"internalType":"address","name":"recipient","type":"address"},{"indexed":false,"internalType":"uint256","name":"amount","type":"uint256"}],"name":"TransferCompleted","type":"event"},{"anonymous":false,"inputs":[{"indexed":true,"internalType":"bytes32","name":"transferId","type":"bytes32"},{"indexed":true,"internalType":"address","name":"sender","type":"address"},{"indexed":true,"internalType":"address","name":"recipient","type":"address"},{"indexed":false,"internalType":"uint256","name":"amount","type":"uint256"},{"indexed":false,"internalType":"uint256","name":"sourceChainId","type":"uint256"},{"indexed":false,"internalType":"uint256","name":"targetChainId","type":"uint256"}],"name":"TransferInitiated","type":"event"},{"anonymous":false,"inputs":[{"indexed":true,"internalType":"bytes32","name":"transferId","type":"bytes32"},{"indexed":true,"internalType":"address","name":"validator","type":"address"},{"indexed":false,"internalType":"uint256","name":"trustScore","type":"uint256"}],"name":"TransferValidated","type":"event"},{"anonymous":false,"inputs":[{"indexed":true,"internalType":"address","name":"validator","type":"address"},{"indexed":false,"internalType":"uint256","name":"trustScore","type":"uint256"}],"name":"ValidatorAdded","type":"event"},{"anonymous":false,"inputs":[{"indexed":true,"internalType":"address","name":"validator","type":"address"}],"name":"ValidatorRemoved","type":"event"},{"inputs":[{"internalType":"address","name":"validator","type":"address"}],"name":"addValidator","outputs":[],"stateMutability":"nonpayable","type":"function"},{"inputs":[{"internalType":"bytes32","name":"transferId","type":"bytes32"},{"internalType":"address","name":"recipient","type":"address"},{"internalType":"uint256","name":"amount","type":"uint256"}],"name":"completeTransfer","outputs":[],"stateMutability":"nonpayable","type":"function"},{"inputs":[{"internalType":"address","name":"validator","type":"address"}],"name":"getValidatorTrustScore","outputs":[{"internalType":"uint256","name":"","type":"uint256"}],"stateMutability":"view","type":"function"},{"inputs":[{"internalType":"address","name":"recipient","type":"address"},{"internalType":"uint256","name":"amount","type":"uint256"},{"internalType":"uint256","name":"targetChainId","type":"uint256"}],"name":"initiateTransfer","outputs":[],"stateMutability":"nonpayable","type":"function"},{"inputs":[{"internalType":"bytes32","name":"transferId","type":"bytes32"}],"name":"isTransferProcessed","outputs":[{"internalType":"bool","name":"","type":"bool"}],"stateMutability":"view","type":"function"},{"inputs":[{"internalType":"address","name":"validator","type":"address"}],"name":"isValidator","outputs":[{"internalType":"bool","name":"","type":"bool"}],"stateMutability":"view","type":"function"},{"inputs":[],"name":"minValidatorTrustScore","outputs":[{"internalType":"uint256","name":"","type":"uint256"}],"stateMutability":"view","type":"function"},{"inputs":[],"name":"owner","outputs":[{"internalType":"address","name":"","type":"address"}],"stateMutability":"view","type":"function"},{"inputs":[{"internalType":"bytes32","name":"","type":"bytes32"}],"name":"processedTransfers","outputs":[{"internalType":"bool","name":"","type":"bool"}],"stateMutability":"view","type":"function"},{"inputs":[{"internalType":"address","name":"validator","type":"address"}],"name":"removeValidator","outputs":[],"stateMutability":"nonpayable","type":"function"},{"inputs":[],"name":"renounceOwnership","outputs":[],"stateMutability":"nonpayable","type":"function"},{"inputs":[],"name":"requiredValidations","outputs":[{"internalType":"uint256","name":"","type":"uint256"}],"stateMutability":"view","type":"function"},{"inputs":[{"internalType":"uint256","name":"newScore","type":"uint256"}],"name":"setMinValidatorTrustScore","outputs":[],"stateMutability":"nonpayable","type":"function"},{"inputs":[{"internalType":"uint256","name":"newCount","type":"uint256"}],"name":"setRequiredValidations","outputs":[],"stateMutability":"nonpayable","type":"function"},{"inputs":[],"name":"transferCount","outputs":[{"internalType":"uint256","name":"","type":"uint256"}],"stateMutability":"view","type":"function"},{"inputs":[{"internalType":"address","name":"newOwner","type":"address"}],"name":"transferOwnership","outputs":[],"stateMutability":"nonpayable","type":"function"},{"inputs":[],"name":"trustEngine","outputs":[{"internalType":"contract TrustEngine","name":"","type":"address"}],"stateMutability":"view","type":"function"},{"inputs":[{"internalType":"bytes32","name":"transferId","type":"bytes32"},{"internalType":"address","name":"sender","type":"address"},{"internalType":"address","name":"recipient","type":"address"},{"internalType":"uint256","name":"amount","type":"uint256"},{"internalType":"uint256","name":"sourceChainId","type":"uint256"},{"internalType":"uint256","name":"targetChainId","type":"uint256"}],"name":"validateTransfer","outputs":[],"stateMutability":"nonpayable","type":"function"},{"inputs":[{"internalType":"address","name":"","type":"address"}],"name":"validatorTrustScores","outputs":[{"internalType":"uint256","name":"","type":"uint256"}],"stateMutability":"view","type":"function"},{"inputs":[{"internalType":"address","name":"","type":"address"}],"name":"validators","outputs":[{"internalType":"bool","name":"","type":"bool"}],"stateMutability":"view","type":"function"}],"evm":{"bytecode":{"linkReferences":{},"object":"6080346100b657601f610f2a38819003918201601f19168301916001600160401b038311848410176100bb578084926020946040528339810103126100b657516001600160a01b0390818116908190036100b657600160005560015460018060a01b0319903382821617600155604051933391167f8be0079c531659141344cd1fd0a4f28419497f9722a3daafe3b4186f6b6457e0600080a3603260065560036007556002541617600255610e5890816100d28239f35b600080fd5b634e487b7160e01b600052604160045260246000fdfe6080604081815260048036101561001557600080fd5b600092833560e01c9081630d17162014610c48575080630de1e2b414610c2957806316ed263914610bb05780633841f2ee146107825780633f90c27f14610acc5783816340a141ff14610a49575080634d238c8e146108ad5780635ce65b1d1461088b578063715018a61461082b57806377aa980d146108025780637b338e9a146107e35780638da5cb5b146107ba578063d67aa98414610782578063dd910d7514610756578063e3d33fc914610733578063e943382f1461043a578063f2fde38b14610374578063f624bcf21461016b578063fa52c7d8146101405763facd743b1461010157600080fd5b3461013c57602036600319011261013c5760209260ff918391906001600160a01b0361012b610c73565b168252855220541690519015158152f35b8280fd5b503461013c57602036600319011261013c5760209260ff918391906001600160a01b0361012b610c73565b50903461013c5760c036600319011261013c57813590610189610c8e565b604435936001600160a01b039291838616860361037057602495338852602080958482526101bc60ff878c205416610d98565b878a52600382526101d360ff878c20541615610dd6565b600254168551988980926329afd35360e01b825233888301525afa968715610366578897610333575b5060065487106102e557835191858301916001600160601b0319809260601b16835260601b1660348301526064356048830152608435606883015260a43560888301526088825260c082019282841067ffffffffffffffff8511176102d25750828452815190208503610298575050907f76e9ba26e6ae45258e118ef69759fe40c05cad1c4ba0aabb62fa86a38a6309e591519384523393a380f35b9074092dcecc2d8d2c840e8e4c2dce6cccae440d0c2e6d605b1b6101046064938662461bcd60e51b855260c4820152601560e48201520152fd5b634e487b7160e01b895260419052602488fd5b835162461bcd60e51b8152808401869052602260248201527f496e73756666696369656e742076616c696461746f722074727573742073636f604482015261726560f01b6064820152608490fd5b9096508481813d831161035f575b61034b8183610cfc565b8101031261035b575195386101fc565b8780fd5b503d610341565b84513d8a823e3d90fd5b8680fd5b503461013c57602036600319011261013c5761038e610c73565b90610397610ca4565b6001600160a01b039182169283156103e8575050600154826001600160601b0360a01b821617600155167f8be0079c531659141344cd1fd0a4f28419497f9722a3daafe3b4186f6b6457e08380a380f35b906020608492519162461bcd60e51b8352820152602660248201527f4f776e61626c653a206e6577206f776e657220697320746865207a65726f206160448201526564647265737360d01b6064820152fd5b503461013c57606036600319011261013c57610454610c73565b60249283359160449081359260028854146106f357600288556001600160a01b03828116979088156106be57861561067d5746861461063c576002541693825180956329afd35360e01b8252338a830152818460209889935afa908115610632578b91610600575b5060146104ca911015610d34565b868351916323b872dd60e01b8352338a840152308484015282015284816064818d335af180156105f6576105c9575b5060085460001981146105b757600101806008558251948501933360601b85526001600160601b03199060601b16603486015286604886015246606886015285608886015260a885015260a8845260e084019684881067ffffffffffffffff8911176105a65750509085610120939252815190209385524661010082015201527f1f5173ee3c846c5ec1973a14f3d9176b4204cc73f6be7ecdc3bf3588adc592cd60603393a46001815580f35b634e487b7160e01b8a526041905288fd5b50634e487b7160e01b89526011875288fd5b6105e890853d87116105ef575b6105e08183610cfc565b810190610d80565b50386104f9565b503d6105d6565b83513d8c823e3d90fd5b90508581813d831161062b575b6106178183610cfc565b81010312610627575160146104bc565b8a80fd5b503d61060d565b84513d8d823e3d90fd5b825162461bcd60e51b81526020818a0152601d818401527f43616e6e6f74207472616e7366657220746f2073616d6520636861696e00000081870152606490fd5b825162461bcd60e51b81526020818a01526017818401527f416d6f756e74206d75737420626520706f73697469766500000000000000000081870152606490fd5b825162461bcd60e51b81526020818a015260118184015270125b9d985b1a59081c9958da5c1a595b9d607a1b81870152606490fd5b5162461bcd60e51b8152602081870152601f818801527f5265656e7472616e637947756172643a207265656e7472616e742063616c6c0081840152606490fd5b5050346107525781600319360112610752576020906008549051908152f35b5080fd5b503461013c57602036600319011261013c578160209360ff923581526003855220541690519015158152f35b5050346107525760203660031901126107525760209181906001600160a01b036107aa610c73565b1681526005845220549051908152f35b50503461075257816003193601126107525760015490516001600160a01b039091168152602090f35b5050346107525781600319360112610752576020906006549051908152f35b50503461075257816003193601126107525760025490516001600160a01b039091168152602090f35b8334610888578060031936011261088857610844610ca4565b600180546001600160a01b0319811690915581906001600160a01b03167f8be0079c531659141344cd1fd0a4f28419497f9722a3daafe3b4186f6b6457e08280a380f35b80fd5b838234610752576020366003190112610752576108a6610ca4565b3560065580f35b503461013c5760209081600319360112610a45576108c9610c73565b926108d2610ca4565b6001600160a01b03938416938415610a0f5784865282845260ff82872054166109d75790836024949392600254168251958680926329afd35360e01b825289878301525afa9182156109cd57869261097a575b7f9000b209805850a65058f21361a9978cb30f1413ed555553ab52a59b440b5d999450610956600654841015610d34565b8587528352808620600160ff1982541617905560058352818187205551908152a280f35b91508284813d83116109c6575b6109918183610cfc565b810103126109c2577f9000b209805850a65058f21361a9978cb30f1413ed555553ab52a59b440b5d99935191610925565b8580fd5b503d610987565b81513d88823e3d90fd5b5091606492519162461bcd60e51b8352820152601360248201527220b63932b0b23c9030903b30b634b230ba37b960691b6044820152fd5b5091606492519162461bcd60e51b8352820152601160248201527024b73b30b634b2103b30b634b230ba37b960791b6044820152fd5b8380fd5b8281853461075257602036600319011261075257610a65610c73565b610a6d610ca4565b60018060a01b03169283835280602052610a8c60ff8385205416610d98565b83835260205280822060ff19815416905560056020528120557fe1434e25d6611e0db941968fdc97811c982ac1602e951637d206f5fdda9dd8f18280a280f35b503461013c57606036600319011261013c578035610ae8610c8e565b92604435610af4610ca4565b82865260209160038352610b0e60ff828920541615610dd6565b83875260038352808720805460ff19166001179055805163a9059cbb60e01b81526001600160a01b039096169486018590526024860182905282866044818a335af1958615610ba6577f6d4791343e7d975dfa9cb401539061386ebe3d9d27e130b252cbf975ab5a7c52949596610b89575b5051908152a380f35b610b9f90843d86116105ef576105e08183610cfc565b5038610b80565b81513d89823e3d90fd5b503461013c57602036600319011261013c57803591610bcd610ca4565b8215610bdb57505060075580f35b906020608492519162461bcd60e51b8352820152602260248201527f4d7573742072657175697265206174206c6561737420312076616c696461746960448201526137b760f11b6064820152fd5b5050346107525781600319360112610752576020906007549051908152f35b9291905034610a45576020366003190112610a45573583526003602090815292205460ff1615158152f35b600435906001600160a01b0382168203610c8957565b600080fd5b602435906001600160a01b0382168203610c8957565b6001546001600160a01b03163303610cb857565b606460405162461bcd60e51b815260206004820152602060248201527f4f776e61626c653a2063616c6c6572206973206e6f7420746865206f776e65726044820152fd5b90601f8019910116810190811067ffffffffffffffff821117610d1e57604052565b634e487b7160e01b600052604160045260246000fd5b15610d3b57565b60405162461bcd60e51b815260206004820152601860248201527f496e73756666696369656e742074727573742073636f726500000000000000006044820152606490fd5b90816020910312610c8957518015158103610c895790565b15610d9f57565b60405162461bcd60e51b815260206004820152600f60248201526e2737ba1030903b30b634b230ba37b960891b6044820152606490fd5b15610ddd57565b60405162461bcd60e51b815260206004820152601a60248201527f5472616e7366657220616c72656164792070726f6365737365640000000000006044820152606490fdfea26469706673582212201e194c6f6616289aa5c61ea34d6145b34780168be459ca5b20090fba5f13adbf64736f6c63430008130033","opcodes":"PUSH1 0x80 CALLVALUE PUSH2 0xB6 JUMPI PUSH1 0x1F PUSH2 0xF2A CODESIZE DUP2 SWAP1 SUB SWAP2 DUP3 ADD PUSH1 0x1F NOT AND DUP4 ADD SWAP2 PUSH1 0x1 PUSH1 0x1 PUSH1 0x40 SHL SUB DUP4 GT DUP5 DUP5 LT OR PUSH2 0xBB JUMPI DUP1 DUP5 SWAP3 PUSH1 0x20 SWAP5 PUSH1 0x40 MSTORE DUP4 CODECOPY DUP2 ADD SUB SLT PUSH2 0xB6 JUMPI MLOAD PUSH1 0x1 PUSH1 0x1 PUSH1 0xA0 SHL SUB SWAP1 DUP2 DUP2 AND SWAP1 DUP2 SWAP1 SUB PUSH2 0xB6 JUMPI PUSH1 0x1 PUSH1 0x0 SSTORE PUSH1 0x1 SLOAD PUSH1 0x1 DUP1 PUSH1 0xA0 SHL SUB NOT SWAP1 CALLER DUP3 DUP3 AND OR PUSH1 0x1 SSTORE PUSH1 0x40 MLOAD SWAP4 CALLER SWAP2 AND PUSH32 0x8BE0079C531659141344CD1FD0A4F28419497F9722A3DAAFE3B4186F6B6457E0 PUSH1 0x0 DUP1 LOG3 PUSH1 0x32 PUSH1 0x6 SSTORE PUSH1 0x3 PUSH1 0x7 SSTORE PUSH1 0x2 SLOAD AND OR PUSH1 0x2 SSTORE PUSH2 0xE58 SWAP1 DUP2 PUSH2 0xD2 DUP3 CODECOPY RETURN JUMPDEST PUSH1 0x0 DUP1 REVERT JUMPDEST PUSH4 0x4E487B71 PUSH1 0xE0 SHL PUSH1 0x0 MSTORE PUSH1 0x41 PUSH1 0x4 MSTORE PUSH1 0x24 PUSH1 0x0 REVERT INVALID PUSH1 0x80 PUSH1 0x40 DUP2 DUP2 MSTORE PUSH1 0x4 DUP1 CALLDATASIZE LT ISZERO PUSH2 0x15 JUMPI PUSH1 0x0 DUP1 REVERT JUMPDEST PUSH1 0x0 SWAP3 DUP4 CALLDATALOAD PUSH1 0xE0 SHR SWAP1 DUP2 PUSH4 0xD171620 EQ PUSH2 0xC48 JUMPI POP DUP1 PUSH4 0xDE1E2B4 EQ PUSH2 0xC29 JUMPI DUP1 PUSH4 0x16ED2639 EQ PUSH2 0xBB0 JUMPI DUP1 PUSH4 0x3841F2EE EQ PUSH2 0x782 JUMPI DUP1 PUSH4 0x3F90C27F EQ PUSH2 0xACC JUMPI DUP4 DUP2 PUSH4 0x40A141FF EQ PUSH2 0xA49 JUMPI POP DUP1 PUSH4 0x4D238C8E EQ PUSH2 0x8AD JUMPI DUP1 PUSH4 0x5CE65B1D EQ PUSH2 0x88B JUMPI DUP1 PUSH4 0x715018A6 EQ PUSH2 0x82B JUMPI DUP1 PUSH4 0x77AA980D EQ PUSH2 0x802 JUMPI DUP1 PUSH4 0x7B338E9A EQ PUSH2 0x7E3 JUMPI DUP1 PUSH4 0x8DA5CB5B EQ PUSH2 0x7BA JUMPI DUP1 PUSH4 0xD67AA984 EQ PUSH2 0x782 JUMPI DUP1 PUSH4 0xDD910D75 EQ PUSH2 0x756 JUMPI DUP1 PUSH4 0xE3D33FC9 EQ PUSH2 0x733 JUMPI DUP1 PUSH4 0xE943382F EQ PUSH2 0x43A JUMPI DUP1 PUSH4 0xF2FDE38B EQ PUSH2 0x374 JUMPI DUP1 PUSH4 0xF624BCF2 EQ PUSH2 0x16B JUMPI DUP1 PUSH4 0xFA52C7D8 EQ PUSH2 0x140 JUMPI PUSH4 0xFACD743B EQ PUSH2 0x101 JUMPI PUSH1 0x0 DUP1 REVERT JUMPDEST CALLVALUE PUSH2 0x13C JUMPI PUSH1 0x20 CALLDATASIZE PUSH1 0x3 NOT ADD SLT PUSH2 0x13C JUMPI PUSH1 0x20 SWAP3 PUSH1 0xFF SWAP2 DUP4 SWAP2 SWAP1 PUSH1 0x1 PUSH1 0x1 PUSH1 0xA0 SHL SUB PUSH2 0x12B PUSH2 0xC73 JUMP JUMPDEST AND DUP3 MSTORE DUP6 MSTORE KECCAK256 SLOAD AND SWAP1 MLOAD SWAP1 ISZERO ISZERO DUP2 MSTORE RETURN JUMPDEST DUP3 DUP1 REVERT JUMPDEST POP CALLVALUE PUSH2 0x13C JUMPI PUSH1 0x20 CALLDATASIZE PUSH1 0x3 NOT ADD SLT PUSH2 0x13C JUMPI PUSH1 0x20 SWAP3 PUSH1 0xFF SWAP2 DUP4 SWAP2 SWAP1 PUSH1 0x1 PUSH1 0x1 PUSH1 0xA0 SHL SUB PUSH2 0x12B PUSH2 0xC73 JUMP JUMPDEST POP SWAP1 CALLVALUE PUSH2 0x13C JUMPI PUSH1 0xC0 CALLDATASIZE PUSH1 0x3 NOT ADD SLT PUSH2 0x13C JUMPI DUP2 CALLDATALOAD SWAP1 PUSH2 0x189 PUSH2 0xC8E JUMP JUMPDEST PUSH1 0x44 CALLDATALOAD SWAP4 PUSH1 0x1 PUSH1 0x1 PUSH1 0xA0 SHL SUB SWAP3 SWAP2 DUP4 DUP7 AND DUP7 SUB PUSH2 0x370 JUMPI PUSH1 0x24 SWAP6 CALLER DUP9 MSTORE PUSH1 0x20 DUP1 SWAP6 DUP5 DUP3 MSTORE PUSH2 0x1BC PUSH1 0xFF DUP8 DUP13 KECCAK256 SLOAD AND PUSH2 0xD98 JUMP JUMPDEST DUP8 DUP11 MSTORE PUSH1 0x3 DUP3 MSTORE PUSH2 0x1D3 PUSH1 0xFF DUP8 DUP13 KECCAK256 SLOAD AND ISZERO PUSH2 0xDD6 JUMP JUMPDEST PUSH1 0x2 SLOAD AND DUP6 MLOAD SWAP9 DUP10 DUP1 SWAP3 PUSH4 0x29AFD353 PUSH1 0xE0 SHL DUP3 MSTORE CALLER DUP9 DUP4 ADD MSTORE GAS STATICCALL SWAP7 DUP8 ISZERO PUSH2 0x366 JUMPI DUP9 SWAP8 PUSH2 0x333 JUMPI JUMPDEST POP PUSH1 0x6 SLOAD DUP8 LT PUSH2 0x2E5 JUMPI DUP4 MLOAD SWAP2 DUP6 DUP4 ADD SWAP2 PUSH1 0x1 PUSH1 0x1 PUSH1 0x60 SHL SUB NOT DUP1 SWAP3 PUSH1 0x60 SHL AND DUP4 MSTORE PUSH1 0x60 SHL AND PUSH1 0x34 DUP4 ADD MSTORE PUSH1 0x64 CALLDATALOAD PUSH1 0x48 DUP4 ADD MSTORE PUSH1 0x84 CALLDATALOAD PUSH1 0x68 DUP4 ADD MSTORE PUSH1 0xA4 CALLDATALOAD PUSH1 0x88 DUP4 ADD MSTORE PUSH1 0x88 DUP3 MSTORE PUSH1 0xC0 DUP3 ADD SWAP3 DUP3 DUP5 LT PUSH8 0xFFFFFFFFFFFFFFFF DUP6 GT OR PUSH2 0x2D2 JUMPI POP DUP3 DUP5 MSTORE DUP2 MLOAD SWAP1 KECCAK256 DUP6 SUB PUSH2 0x298 JUMPI POP POP SWAP1 PUSH32 0x76E9BA26E6AE45258E118EF69759FE40C05CAD1C4BA0AABB62FA86A38A6309E5 SWAP2 MLOAD SWAP4 DUP5 MSTORE CALLER SWAP4 LOG3 DUP1 RETURN JUMPDEST SWAP1 PUSH21 0x92DCECC2D8D2C840E8E4C2DCE6CCCAE440D0C2E6D PUSH1 0x5B SHL PUSH2 0x104 PUSH1 0x64 SWAP4 DUP7 PUSH3 0x461BCD PUSH1 0xE5 SHL DUP6 MSTORE PUSH1 0xC4 DUP3 ADD MSTORE PUSH1 0x15 PUSH1 0xE4 DUP3 ADD MSTORE ADD MSTORE REVERT JUMPDEST PUSH4 0x4E487B71 PUSH1 0xE0 SHL DUP10 MSTORE PUSH1 0x41 SWAP1 MSTORE PUSH1 0x24 DUP9 REVERT JUMPDEST DUP4 MLOAD PUSH3 0x461BCD PUSH1 0xE5 SHL DUP2 MSTORE DUP1 DUP5 ADD DUP7 SWAP1 MSTORE PUSH1 0x22 PUSH1 0x24 DUP3 ADD MSTORE PUSH32 0x496E73756666696369656E742076616C696461746F722074727573742073636F PUSH1 0x44 DUP3 ADD MSTORE PUSH2 0x7265 PUSH1 0xF0 SHL PUSH1 0x64 DUP3 ADD MSTORE PUSH1 0x84 SWAP1 REVERT JUMPDEST SWAP1 SWAP7 POP DUP5 DUP2 DUP2 RETURNDATASIZE DUP4 GT PUSH2 0x35F JUMPI JUMPDEST PUSH2 0x34B DUP2 DUP4 PUSH2 0xCFC JUMP JUMPDEST DUP2 ADD SUB SLT PUSH2 0x35B JUMPI MLOAD SWAP6 CODESIZE PUSH2 0x1FC JUMP JUMPDEST DUP8 DUP1 REVERT JUMPDEST POP RETURNDATASIZE PUSH2 0x341 JUMP JUMPDEST DUP5 MLOAD RETURNDATASIZE DUP11 DUP3 RETURNDATACOPY RETURNDATASIZE SWAP1 REVERT JUMPDEST DUP7 DUP1 REVERT JUMPDEST POP CALLVALUE PUSH2 0x13C JUMPI PUSH1 0x20 CALLDATASIZE PUSH1 0x3 NOT ADD SLT PUSH2 0x13C JUMPI PUSH2 0x38E PUSH2 0xC73 JUMP JUMPDEST SWAP1 PUSH2 0x397 PUSH2 0xCA4 JUMP JUMPDEST PUSH1 0x1 PUSH1 0x1 PUSH1 0xA0 SHL SUB SWAP2 DUP3 AND SWAP3 DUP4 ISZERO PUSH2 0x3E8 JUMPI POP POP PUSH1 0x1 SLOAD DUP3 PUSH1 0x1 PUSH1 0x1 PUSH1 0x60 SHL SUB PUSH1 0xA0 SHL DUP3 AND OR PUSH1 0x1 SSTORE AND PUSH32 0x8BE0079C531659141344CD1FD0A4F28419497F9722A3DAAFE3B4186F6B6457E0 DUP4 DUP1 LOG3 DUP1 RETURN JUMPDEST SWAP1 PUSH1 0x20 PUSH1 0x84 SWAP3 MLOAD SWAP2 PUSH3 0x461BCD PUSH1 0xE5 SHL DUP4 MSTORE DUP3 ADD MSTORE PUSH1 0x26 PUSH1 0x24 DUP3 ADD MSTORE PUSH32 0x4F776E61626C653A206E6577206F776E657220697320746865207A65726F2061 PUSH1 0x44 DUP3 ADD MSTORE PUSH6 0x646472657373 PUSH1 0xD0 SHL PUSH1 0x64 DUP3 ADD MSTORE REVERT JUMPDEST POP CALLVALUE PUSH2 0x13C JUMPI PUSH1 0x60 CALLDATASIZE PUSH1 0x3 NOT ADD SLT PUSH2 0x13C JUMPI PUSH2 0x454 PUSH2 0xC73 JUMP JUMPDEST PUSH1 0x24 SWAP3 DUP4 CALLDATALOAD SWAP2 PUSH1 0x44 SWAP1 DUP2 CALLDATALOAD SWAP3 PUSH1 0x2 DUP9 SLOAD EQ PUSH2 0x6F3 JUMPI PUSH1 0x2 DUP9 SSTORE PUSH1 0x1 PUSH1 0x1 PUSH1 0xA0 SHL SUB DUP3 DUP2 AND SWAP8 SWAP1 DUP9 ISZERO PUSH2 0x6BE JUMPI DUP7 ISZERO PUSH2 0x67D JUMPI CHAINID DUP7 EQ PUSH2 0x63C JUMPI PUSH1 0x2 SLOAD AND SWAP4 DUP3 MLOAD DUP1 SWAP6 PUSH4 0x29AFD353 PUSH1 0xE0 SHL DUP3 MSTORE CALLER DUP11 DUP4 ADD MSTORE DUP2 DUP5 PUSH1 0x20 SWAP9 DUP10 SWAP4 GAS STATICCALL SWAP1 DUP2 ISZERO PUSH2 0x632 JUMPI DUP12 SWAP2 PUSH2 0x600 JUMPI JUMPDEST POP PUSH1 0x14 PUSH2 0x4CA SWAP2 LT ISZERO PUSH2 0xD34 JUMP JUMPDEST DUP7 DUP4 MLOAD SWAP2 PUSH4 0x23B872DD PUSH1 0xE0 SHL DUP4 MSTORE CALLER DUP11 DUP5 ADD MSTORE ADDRESS DUP5 DUP5 ADD MSTORE DUP3 ADD MSTORE DUP5 DUP2 PUSH1 0x64 DUP2 DUP14 CALLER GAS CALL DUP1 ISZERO PUSH2 0x5F6 JUMPI PUSH2 0x5C9 JUMPI JUMPDEST POP PUSH1 0x8 SLOAD PUSH1 0x0 NOT DUP2 EQ PUSH2 0x5B7 JUMPI PUSH1 0x1 ADD DUP1 PUSH1 0x8 SSTORE DUP3 MLOAD SWAP5 DUP6 ADD SWAP4 CALLER PUSH1 0x60 SHL DUP6 MSTORE PUSH1 0x1 PUSH1 0x1 PUSH1 0x60 SHL SUB NOT SWAP1 PUSH1 0x60 SHL AND PUSH1 0x34 DUP7 ADD MSTORE DUP7 PUSH1 0x48 DUP7 ADD MSTORE CHAINID PUSH1 0x68 DUP7 ADD MSTORE DUP6 PUSH1 0x88 DUP7 ADD MSTORE PUSH1 0xA8 DUP6 ADD MSTORE PUSH1 0xA8 DUP5 MSTORE PUSH1 0xE0 DUP5 ADD SWAP7 DUP5 DUP9 LT PUSH8 0xFFFFFFFFFFFFFFFF DUP10 GT OR PUSH2 0x5A6 JUMPI POP POP SWAP1 DUP6 PUSH2 0x120 SWAP4 SWAP3 MSTORE DUP2 MLOAD SWAP1 KECCAK256 SWAP4 DUP6 MSTORE CHAINID PUSH2 0x100 DUP3 ADD MSTORE ADD MSTORE PUSH32 0x1F5173EE3C846C5EC1973A14F3D9176B4204CC73F6BE7ECDC3BF3588ADC592CD PUSH1 0x60 CALLER SWAP4 LOG4 PUSH1 0x1 DUP2 SSTORE DUP1 RETURN JUMPDEST PUSH4 0x4E487B71 PUSH1 0xE0 SHL DUP11 MSTORE PUSH1 0x41 SWAP1 MSTORE DUP9 REVERT JUMPDEST POP PUSH4 0x4E487B71 PUSH1 0xE0 SHL DUP10 MSTORE PUSH1 0x11 DUP8 MSTORE DUP9 REVERT JUMPDEST PUSH2 0x5E8 SWAP1 DUP6 RETURNDATASIZE DUP8 GT PUSH2 0x5EF JUMPI JUMPDEST PUSH2 0x5E0 DUP2 DUP4 PUSH2 0xCFC JUMP JUMPDEST DUP2 ADD SWAP1 PUSH2 0xD80 JUMP JUMPDEST POP CODESIZE PUSH2 0x4F9 JUMP JUMPDEST POP RETURNDATASIZE PUSH2 0x5D6 JUMP JUMPDEST DUP4 MLOAD RETURNDATASIZE DUP13 DUP3 RETURNDATACOPY RETURNDATASIZE SWAP1 REVERT JUMPDEST SWAP1 POP DUP6 DUP2 DUP2 RETURNDATASIZE DUP4 GT PUSH2 0x62B JUMPI JUMPDEST PUSH2 0x617 DUP2 DUP4 PUSH2 0xCFC JUMP JUMPDEST DUP2 ADD SUB SLT PUSH2 0x627 JUMPI MLOAD PUSH1 0x14 PUSH2 0x4BC JUMP JUMPDEST DUP11 DUP1 REVERT JUMPDEST POP RETURNDATASIZE PUSH2 0x60D JUMP JUMPDEST DUP5 MLOAD RETURNDATASIZE DUP14 DUP3 RETURNDATACOPY RETURNDATASIZE SWAP1 REVERT JUMPDEST DUP3 MLOAD PUSH3 0x461BCD PUSH1 0xE5 SHL DUP2 MSTORE PUSH1 0x20 DUP2 DUP11 ADD MSTORE PUSH1 0x1D DUP2 DUP5 ADD MSTORE PUSH32 0x43616E6E6F74207472616E7366657220746F2073616D6520636861696E000000 DUP2 DUP8 ADD MSTORE PUSH1 0x64 SWAP1 REVERT JUMPDEST DUP3 MLOAD PUSH3 0x461BCD PUSH1 0xE5 SHL DUP2 MSTORE PUSH1 0x20 DUP2 DUP11 ADD MSTORE PUSH1 0x17 DUP2 DUP5 ADD MSTORE PUSH32 0x416D6F756E74206D75737420626520706F736974697665000000000000000000 DUP2 DUP8 ADD MSTORE PUSH1 0x64 SWAP1 REVERT JUMPDEST DUP3 MLOAD PUSH3 0x461BCD PUSH1 0xE5 SHL DUP2 MSTORE PUSH1 0x20 DUP2 DUP11 ADD MSTORE PUSH1 0x11 DUP2 DUP5 ADD MSTORE PUSH17 0x125B9D985B1A59081C9958DA5C1A595B9D PUSH1 0x7A SHL DUP2 DUP8 ADD MSTORE PUSH1 0x64 SWAP1 REVERT JUMPDEST MLOAD PUSH3 0x461BCD PUSH1 0xE5 SHL DUP2 MSTORE PUSH1 0x20 DUP2 DUP8 ADD MSTORE PUSH1 0x1F DUP2 DUP9 ADD MSTORE PUSH32 0x5265656E7472616E637947756172643A207265656E7472616E742063616C6C00 DUP2 DUP5 ADD MSTORE PUSH1 0x64 SWAP1 REVERT JUMPDEST POP POP CALLVALUE PUSH2 0x752 JUMPI DUP2 PUSH1 0x3 NOT CALLDATASIZE ADD SLT PUSH2 0x752 JUMPI PUSH1 0x20 SWAP1 PUSH1 0x8 SLOAD SWAP1 MLOAD SWAP1 DUP2 MSTORE RETURN JUMPDEST POP DUP1 REVERT JUMPDEST POP CALLVALUE PUSH2 0x13C JUMPI PUSH1 0x20 CALLDATASIZE PUSH1 0x3 NOT ADD SLT PUSH2 0x13C JUMPI DUP2 PUSH1 0x20 SWAP4 PUSH1 0xFF SWAP3 CALLDATALOAD DUP2 MSTORE PUSH1 0x3 DUP6 MSTORE KECCAK256 SLOAD AND SWAP1 MLOAD SWAP1 ISZERO ISZERO DUP2 MSTORE RETURN JUMPDEST POP POP CALLVALUE PUSH2 0x752 JUMPI PUSH1 0x20 CALLDATASIZE PUSH1 0x3 NOT ADD SLT PUSH2 0x752 JUMPI PUSH1 0x20 SWAP2 DUP2 SWAP1 PUSH1 0x1 PUSH1 0x1 PUSH1 0xA0 SHL SUB PUSH2 0x7AA PUSH2 0xC73 JUMP JUMPDEST AND DUP2 MSTORE PUSH1 0x5 DUP5 MSTORE KECCAK256 SLOAD SWAP1 MLOAD SWAP1 DUP2 MSTORE RETURN JUMPDEST POP POP CALLVALUE PUSH2 0x752 JUMPI DUP2 PUSH1 0x3 NOT CALLDATASIZE ADD SLT PUSH2 0x752 JUMPI PUSH1 0x1 SLOAD SWAP1 MLOAD PUSH1 0x1 PUSH1 0x1 PUSH1 0xA0 SHL SUB SWAP1 SWAP2 AND DUP2 MSTORE PUSH1 0x20 SWAP1 RETURN JUMPDEST POP POP CALLVALUE PUSH2 0x752 JUMPI DUP2 PUSH1 0x3 NOT CALLDATASIZE ADD SLT PUSH2 0x752 JUMPI PUSH1 0x20 SWAP1 PUSH1 0x6 SLOAD SWAP1 MLOAD SWAP1 DUP2 MSTORE RETURN JUMPDEST POP POP CALLVALUE PUSH2 0x752 JUMPI DUP2 PUSH1 0x3 NOT CALLDATASIZE ADD SLT PUSH2 0x752 JUMPI PUSH1 0x2 SLOAD SWAP1 MLOAD PUSH1 0x1 PUSH1 0x1 PUSH1 0xA0 SHL SUB SWAP1 SWAP2 AND DUP2 MSTORE PUSH1 0x20 SWAP1 RETURN JUMPDEST DUP4 CALLVALUE PUSH2 0x888 JUMPI DUP1 PUSH1 0x3 NOT CALLDATASIZE ADD SLT PUSH2 0x888 JUMPI PUSH2 0x844 PUSH2 0xCA4 JUMP JUMPDEST PUSH1 0x1 DUP1 SLOAD PUSH1 0x1 PUSH1 0x1 PUSH1 0xA0 SHL SUB NOT DUP2 AND SWAP1 SWAP2 SSTORE DUP2 SWAP1 PUSH1 0x1 PUSH1 0x1 PUSH1 0xA0 SHL SUB AND PUSH32 0x8BE0079C531659141344CD1FD0A4F28419497F9722A3DAAFE3B4186F6B6457E0 DUP3 DUP1 LOG3 DUP1 RETURN JUMPDEST DUP1 REVERT JUMPDEST DUP4 DUP3 CALLVALUE PUSH2 0x752 JUMPI PUSH1 0x20 CALLDATASIZE PUSH1 0x3 NOT ADD SLT PUSH2 0x752 JUMPI PUSH2 0x8A6 PUSH2 0xCA4 JUMP JUMPDEST CALLDATALOAD PUSH1 0x6 SSTORE DUP1 RETURN JUMPDEST POP CALLVALUE PUSH2 0x13C JUMPI PUSH1 0x20 SWAP1 DUP2 PUSH1 0x3 NOT CALLDATASIZE ADD SLT PUSH2 0xA45 JUMPI PUSH2 0x8C9 PUSH2 0xC73 JUMP JUMPDEST SWAP3 PUSH2 0x8D2 PUSH2 0xCA4 JUMP JUMPDEST PUSH1 0x1 PUSH1 0x1 PUSH1 0xA0 SHL SUB SWAP4 DUP5 AND SWAP4 DUP5 ISZERO PUSH2 0xA0F JUMPI DUP5 DUP7 MSTORE DUP3 DUP5 MSTORE PUSH1 0xFF DUP3 DUP8 KECCAK256 SLOAD AND PUSH2 0x9D7 JUMPI SWAP1 DUP4 PUSH1 0x24 SWAP5 SWAP4 SWAP3 PUSH1 0x2 SLOAD AND DUP3 MLOAD SWAP6 DUP7 DUP1 SWAP3 PUSH4 0x29AFD353 PUSH1 0xE0 SHL DUP3 MSTORE DUP10 DUP8 DUP4 ADD MSTORE GAS STATICCALL SWAP2 DUP3 ISZERO PUSH2 0x9CD JUMPI DUP7 SWAP3 PUSH2 0x97A JUMPI JUMPDEST PUSH32 0x9000B209805850A65058F21361A9978CB30F1413ED555553AB52A59B440B5D99 SWAP5 POP PUSH2 0x956 PUSH1 0x6 SLOAD DUP5 LT ISZERO PUSH2 0xD34 JUMP JUMPDEST DUP6 DUP8 MSTORE DUP4 MSTORE DUP1 DUP7 KECCAK256 PUSH1 0x1 PUSH1 0xFF NOT DUP3 SLOAD AND OR SWAP1 SSTORE PUSH1 0x5 DUP4 MSTORE DUP2 DUP2 DUP8 KECCAK256 SSTORE MLOAD SWAP1 DUP2 MSTORE LOG2 DUP1 RETURN JUMPDEST SWAP2 POP DUP3 DUP5 DUP2 RETURNDATASIZE DUP4 GT PUSH2 0x9C6 JUMPI JUMPDEST PUSH2 0x991 DUP2 DUP4 PUSH2 0xCFC JUMP JUMPDEST DUP2 ADD SUB SLT PUSH2 0x9C2 JUMPI PUSH32 0x9000B209805850A65058F21361A9978CB30F1413ED555553AB52A59B440B5D99 SWAP4 MLOAD SWAP2 PUSH2 0x925 JUMP JUMPDEST DUP6 DUP1 REVERT JUMPDEST POP RETURNDATASIZE PUSH2 0x987 JUMP JUMPDEST DUP2 MLOAD RETURNDATASIZE DUP9 DUP3 RETURNDATACOPY RETURNDATASIZE SWAP1 REVERT JUMPDEST POP SWAP2 PUSH1 0x64 SWAP3 MLOAD SWAP2 PUSH3 0x461BCD PUSH1 0xE5 SHL DUP4 MSTORE DUP3 ADD MSTORE PUSH1 0x13 PUSH1 0x24 DUP3 ADD MSTORE PUSH19 0x20B63932B0B23C9030903B30B634B230BA37B9 PUSH1 0x69 SHL PUSH1 0x44 DUP3 ADD MSTORE REVERT JUMPDEST POP SWAP2 PUSH1 0x64 SWAP3 MLOAD SWAP2 PUSH3 0x461BCD PUSH1 0xE5 SHL DUP4 MSTORE DUP3 ADD MSTORE PUSH1 0x11 PUSH1 0x24 DUP3 ADD MSTORE PUSH17 0x24B73B30B634B2103B30B634B230BA37B9 PUSH1 0x79 SHL PUSH1 0x44 DUP3 ADD MSTORE REVERT JUMPDEST DUP4 DUP1 REVERT JUMPDEST DUP3 DUP2 DUP6 CALLVALUE PUSH2 0x752 JUMPI PUSH1 0x20 CALLDATASIZE PUSH1 0x3 NOT ADD SLT PUSH2 0x752 JUMPI PUSH2 0xA65 PUSH2 0xC73 JUMP JUMPDEST PUSH2 0xA6D PUSH2 0xCA4 JUMP JUMPDEST PUSH1 0x1 DUP1 PUSH1 0xA0 SHL SUB AND SWAP3 DUP4 DUP4 MSTORE DUP1 PUSH1 0x20 MSTORE PUSH2 0xA8C PUSH1 0xFF DUP4 DUP6 KECCAK256 SLOAD AND PUSH2 0xD98 JUMP JUMPDEST DUP4 DUP4 MSTORE PUSH1 0x20 MSTORE DUP1 DUP3 KECCAK256 PUSH1 0xFF NOT DUP2 SLOAD AND SWAP1 SSTORE PUSH1 0x5 PUSH1 0x20 MSTORE DUP2 KECCAK256 SSTORE PUSH32 0xE1434E25D6611E0DB941968FDC97811C982AC1602E951637D206F5FDDA9DD8F1 DUP3 DUP1 LOG2 DUP1 RETURN JUMPDEST POP CALLVALUE PUSH2 0x13C JUMPI PUSH1 0x60 CALLDATASIZE PUSH1 0x3 NOT ADD SLT PUSH2 0x13C JUMPI DUP1 CALLDATALOAD PUSH2 0xAE8 PUSH2 0xC8E JUMP JUMPDEST SWAP3 PUSH1 0x44 CALLDATALOAD PUSH2 0xAF4 PUSH2 0xCA4 JUMP JUMPDEST DUP3 DUP7 MSTORE PUSH1 0x20 SWAP2 PUSH1 0x3 DUP4 MSTORE PUSH2 0xB0E PUSH1 0xFF DUP3 DUP10 KECCAK256 SLOAD AND ISZERO PUSH2 0xDD6 JUMP JUMPDEST DUP4 DUP8 MSTORE PUSH1 0x3 DUP4 MSTORE DUP1 DUP8 KECCAK256 DUP1 SLOAD PUSH1 0xFF NOT AND PUSH1 0x1 OR SWAP1 SSTORE DUP1 MLOAD PUSH4 0xA9059CBB PUSH1 0xE0 SHL DUP2 MSTORE PUSH1 0x1 PUSH1 0x1 PUSH1 0xA0 SHL SUB SWAP1 SWAP7 AND SWAP5 DUP7 ADD DUP6 SWAP1 MSTORE PUSH1 0x24 DUP7 ADD DUP3 SWAP1 MSTORE DUP3 DUP7 PUSH1 0x44 DUP2 DUP11 CALLER GAS CALL SWAP6 DUP7 ISZERO PUSH2 0xBA6 JUMPI PUSH32 0x6D4791343E7D975DFA9CB401539061386EBE3D9D27E130B252CBF975AB5A7C52 SWAP5 SWAP6 SWAP7 PUSH2 0xB89 JUMPI JUMPDEST POP MLOAD SWAP1 DUP2 MSTORE LOG3 DUP1 RETURN JUMPDEST PUSH2 0xB9F SWAP1 DUP5 RETURNDATASIZE DUP7 GT PUSH2 0x5EF JUMPI PUSH2 0x5E0 DUP2 DUP4 PUSH2 0xCFC JUMP JUMPDEST POP CODESIZE PUSH2 0xB80 JUMP JUMPDEST DUP2 MLOAD RETURNDATASIZE DUP10 DUP3 RETURNDATACOPY RETURNDATASIZE SWAP1 REVERT JUMPDEST POP CALLVALUE PUSH2 0x13C JUMPI PUSH1 0x20 CALLDATASIZE PUSH1 0x3 NOT ADD SLT PUSH2 0x13C JUMPI DUP1 CALLDATALOAD SWAP2 PUSH2 0xBCD PUSH2 0xCA4 JUMP JUMPDEST DUP3 ISZERO PUSH2 0xBDB JUMPI POP POP PUSH1 0x7 SSTORE DUP1 RETURN JUMPDEST SWAP1 PUSH1 0x20 PUSH1 0x84 SWAP3 MLOAD SWAP2 PUSH3 0x461BCD PUSH1 0xE5 SHL DUP4 MSTORE DUP3 ADD MSTORE PUSH1 0x22 PUSH1 0x24 DUP3 ADD MSTORE PUSH32 0x4D7573742072657175697265206174206C6561737420312076616C6964617469 PUSH1 0x44 DUP3 ADD MSTORE PUSH2 0x37B7 PUSH1 0xF1 SHL PUSH1 0x64 DUP3 ADD MSTORE REVERT JUMPDEST POP POP CALLVALUE PUSH2 0x752 JUMPI DUP2 PUSH1 0x3 NOT CALLDATASIZE ADD SLT PUSH2 0x752 JUMPI PUSH1 0x20 SWAP1 PUSH1 0x7 SLOAD SWAP1 MLOAD SWAP1 DUP2 MSTORE RETURN JUMPDEST SWAP3 SWAP2 SWAP1 POP CALLVALUE PUSH2 0xA45 JUMPI PUSH1 0x20 CALLDATASIZE PUSH1 0x3 NOT ADD SLT PUSH2 0xA45 JUMPI CALLDATALOAD DUP4 MSTORE PUSH1 0x3 PUSH1 0x20 SWAP1 DUP2 MSTORE SWAP3 KECCAK256 SLOAD PUSH1 0xFF AND ISZERO ISZERO DUP2 MSTORE RETURN JUMPDEST PUSH1 0x4 CALLDATALOAD SWAP1 PUSH1 0x1 PUSH1 0x1 PUSH1 0xA0 SHL SUB DUP3 AND DUP3 SUB PUSH2 0xC89 JUMPI JUMP JUMPDEST PUSH1 0x0 DUP1 REVERT JUMPDEST PUSH1 0x24 CALLDATALOAD SWAP1 PUSH1 0x1 PUSH1 0x1 PUSH1 0xA0 SHL SUB DUP3 AND DUP3 SUB PUSH2 0xC89 JUMPI JUMP JUMPDEST PUSH1 0x1 SLOAD PUSH1 0x1 PUSH1 0x1 PUSH1 0xA0 SHL SUB AND CALLER SUB PUSH2 0xCB8 JUMPI JUMP JUMPDEST PUSH1 0x64 PUSH1 0x40 MLOAD PUSH3 0x461BCD PUSH1 0xE5 SHL DUP2 MSTORE PUSH1 0x20 PUSH1 0x4 DUP3 ADD MSTORE PUSH1 0x20 PUSH1 0x24 DUP3 ADD MSTORE PUSH32 0x4F776E61626C653A2063616C6C6572206973206E6F7420746865206F776E6572 PUSH1 0x44 DUP3 ADD MSTORE REVERT JUMPDEST SWAP1 PUSH1 0x1F DUP1 NOT SWAP2 ADD AND DUP2 ADD SWAP1 DUP2 LT PUSH8 0xFFFFFFFFFFFFFFFF DUP3 GT OR PUSH2 0xD1E JUMPI PUSH1 0x40 MSTORE JUMP JUMPDEST PUSH4 0x4E487B71 PUSH1 0xE0 SHL PUSH1 0x0 MSTORE PUSH1 0x41 PUSH1 0x4 MSTORE PUSH1 0x24 PUSH1 0x0 REVERT JUMPDEST ISZERO PUSH2 0xD3B JUMPI JUMP JUMPDEST PUSH1 0x40 MLOAD PUSH3 0x461BCD PUSH1 0xE5 SHL DUP2 MSTORE PUSH1 0x20 PUSH1 0x4 DUP3 ADD MSTORE PUSH1 0x18 PUSH1 0x24 DUP3 ADD MSTORE PUSH32 0x496E73756666696369656E742074727573742073636F72650000000000000000 PUSH1 0x44 DUP3 ADD MSTORE PUSH1 0x64 SWAP1 REVERT JUMPDEST SWAP1 DUP2 PUSH1 0x20 SWAP2 SUB SLT PUSH2 0xC89 JUMPI MLOAD DUP1 ISZERO ISZERO DUP2 SUB PUSH2 0xC89 JUMPI SWAP1 JUMP JUMPDEST ISZERO PUSH2 0xD9F JUMPI JUMP JUMPDEST PUSH1 0x40 MLOAD PUSH3 0x461BCD PUSH1 0xE5 SHL DUP2 MSTORE PUSH1 0x20 PUSH1 0x4 DUP3 ADD MSTORE PUSH1 0xF PUSH1 0x24 DUP3 ADD MSTORE PUSH15 0x2737BA1030903B30B634B230BA37B9 PUSH1 0x89 SHL PUSH1 0x44 DUP3 ADD MSTORE PUSH1 0x64 SWAP1 REVERT JUMPDEST ISZERO PUSH2 0xDDD JUMPI JUMP JUMPDEST PUSH1 0x40 MLOAD PUSH3 0x461BCD PUSH1 0xE5 SHL DUP2 MSTORE PUSH1 0x20 PUSH1 0x4 DUP3 ADD MSTORE PUSH1 0x1A PUSH1 0x24 DUP3 ADD MSTORE PUSH32 0x5472616E7366657220616C72656164792070726F636573736564000000000000 PUSH1 0x44 DUP3 ADD MSTORE PUSH1 0x64 SWAP1 REVERT INVALID LOG2 PUSH5 0x6970667358 0x22 SLT KECCAK256 0x1E NOT 0x4C PUSH16 0x6616289AA5C61EA34D6145B34780168B 0xE4 MSIZE 0xCA JUMPDEST KECCAK256 MULMOD 0xF 0xBA 0x5F SGT 0xAD 0xBF PUSH5 0x736F6C6343 STOP ADDMOD SGT STOP CALLER "},"methodIdentifiers":{"addValidator(address)":"4d238c8e","completeTransfer(bytes32,address,uint256)":"3f90c27f","getValidatorTrustScore(address)":"3841f2ee","initiateTransfer(address,uint256,uint256)":"e943382f","isTransferProcessed(bytes32)":"0d171620","isValidator(address)":"facd743b","minValidatorTrustScore()":"7b338e9a","owner()":"8da5cb5b","processedTransfers(bytes32)":"dd910d75","removeValidator(address)":"40a141ff","renounceOwnership()":"715018a6","requiredValidations()":"0de1e2b4","setMinValidatorTrustScore(uint256)":"5ce65b1d","setRequiredValidations(uint256)":"16ed2639","transferCount()":"e3d33fc9","transferOwnership(address)":"f2fde38b","trustEngine()":"77aa980d","validateTransfer(bytes32,address,address,uint256,uint256,uint256)":"f624bcf2","validatorTrustScores(address)":"d67aa984","validators(address)":"fa52c7d8"}}}}}