{"contracts/NFTCredential.sol":{"NFTCredential":{"abi":[{"inputs":[{"internalType":"address","name":"_trustEngine","type":"address"}],"stateMutability":"nonpayable","type":"constructor"},{"anonymous":false,"inputs":[{"indexed":true,"internalType":"address","name":"owner","type":"address"},{"indexed":true,"internalType":"address","name":"approved","type":"address"},{"indexed":true,"internalType":"uint256","name":"tokenId","type":"uint256"}],"name":"Approval","type":"event"},{"anonymous":false,"inputs":[{"indexed":true,"internalType":"address","name":"owner","type":"address"},{"indexed":true,"internalType":"address","name":"operator","type":"address"},{"indexed":false,"internalType":"bool","name":"approved","type":"bool"}],"name":"ApprovalForAll","type":"event"},{"anonymous":false,"inputs":[{"indexed":true,"internalType":"uint256","name":"tokenId","type":"uint256"},{"indexed":true,"internalType":"address","name":"recipient","type":"address"},{"indexed":false,"internalType":"string","name":"credentialType","type":"string"},{"indexed":false,"internalType":"uint256","name":"trustScore","type":"uint256"},{"indexed":false,"internalType":"uint256","name":"expirationDate","type":"uint256"}],"name":"CredentialIssued","type":"event"},{"anonymous":false,"inputs":[{"indexed":true,"internalType":"uint256","name":"tokenId","type":"uint256"},{"indexed":true,"internalType":"address","name":"issuer","type":"address"}],"name":"CredentialRevoked","type":"event"},{"anonymous":false,"inputs":[{"indexed":true,"internalType":"address","name":"issuer","type":"address"},{"indexed":false,"internalType":"uint256","name":"trustScore","type":"uint256"}],"name":"IssuerAuthorized","type":"event"},{"anonymous":false,"inputs":[{"indexed":true,"internalType":"address","name":"issuer","type":"address"}],"name":"IssuerRevoked","type":"event"},{"anonymous":false,"inputs":[{"indexed":true,"internalType":"address","name":"previousOwner","type":"address"},{"indexed":true,"internalType":"address","name":"newOwner","type":"address"}],"name":"OwnershipTransferred","type":"event"},{"anonymous":false,"inputs":[{"indexed":true,"internalType":"address","name":"from","type":"address"},{"indexed":true,"internalType":"address","name":"to","type":"address"},{"indexed":true,"internalType":"uint256","name":"tokenId","type":"uint256"}],"name":"Transfer","type":"event"},{"inputs":[{"internalType":"address","name":"to","type":"address"},{"internalType":"uint256","name":"tokenId","type":"uint256"}],"name":"approve","outputs":[],"stateMutability":"nonpayable","type":"function"},{"inputs":[{"internalType":"address","name":"issuer","type":"address"}],"name":"authorizeIssuer","outputs":[],"stateMutability":"nonpayable","type":"function"},{"inputs":[{"internalType":"address","name":"","type":"address"}],"name":"authorizedIssuers","outputs":[{"internalType":"bool","name":"","type":"bool"}],"stateMutability":"view","type":"function"},{"inputs":[{"internalType":"address","name":"owner","type":"address"}],"name":"balanceOf","outputs":[{"internalType":"uint256","name":"","type":"uint256"}],"stateMutability":"view","type":"function"},{"inputs":[{"internalType":"uint256","name":"","type":"uint256"}],"name":"credentialTypes","outputs":[{"internalType":"string","name":"","type":"string"}],"stateMutability":"view","type":"function"},{"inputs":[{"internalType":"uint256","name":"","type":"uint256"}],"name":"expirationDates","outputs":[{"internalType":"uint256","name":"","type":"uint256"}],"stateMutability":"view","type":"function"},{"inputs":[{"internalType":"uint256","name":"tokenId","type":"uint256"}],"name":"getApproved","outputs":[{"internalType":"address","name":"","type":"address"}],"stateMutability":"view","type":"function"},{"inputs":[{"internalType":"uint256","name":"tokenId","type":"uint256"}],"name":"getCredential","outputs":[{"internalType":"address","name":"owner","type":"address"},{"internalType":"string","name":"credentialType","type":"string"},{"internalType":"uint256","name":"issuanceDate","type":"uint256"},{"internalType":"uint256","name":"expirationDate","type":"uint256"},{"internalType":"bool","name":"revoked","type":"bool"},{"internalType":"address","name":"issuer","type":"address"},{"internalType":"uint256","name":"trustScore","type":"uint256"}],"stateMutability":"view","type":"function"},{"inputs":[{"internalType":"address","name":"issuer","type":"address"}],"name":"getIssuerTrustScore","outputs":[{"internalType":"uint256","name":"","type":"uint256"}],"stateMutability":"view","type":"function"},{"inputs":[{"internalType":"address","name":"owner","type":"address"},{"internalType":"address","name":"operator","type":"address"}],"name":"isApprovedForAll","outputs":[{"internalType":"bool","name":"","type":"bool"}],"stateMutability":"view","type":"function"},{"inputs":[{"internalType":"address","name":"issuer","type":"address"}],"name":"isAuthorizedIssuer","outputs":[{"internalType":"bool","name":"","type":"bool"}],"stateMutability":"view","type":"function"},{"inputs":[{"internalType":"uint256","name":"tokenId","type":"uint256"}],"name":"isCredentialValid","outputs":[{"internalType":"bool","name":"","type":"bool"}],"stateMutability":"view","type":"function"},{"inputs":[{"internalType":"uint256","name":"","type":"uint256"}],"name":"isRevoked","outputs":[{"internalType":"bool","name":"","type":"bool"}],"stateMutability":"view","type":"function"},{"inputs":[{"internalType":"uint256","name":"","type":"uint256"}],"name":"issuanceDates","outputs":[{"internalType":"uint256","name":"","type":"uint256"}],"stateMutability":"view","type":"function"},{"inputs":[{"internalType":"address","name":"recipient","type":"address"},{"internalType":"string","name":"credentialType","type":"string"},{"internalType":"uint256","name":"expirationDate","type":"uint256"}],"name":"issueCredential","outputs":[],"stateMutability":"nonpayable","type":"function"},{"inputs":[{"internalType":"address","name":"","type":"address"}],"name":"issuerTrustScores","outputs":[{"internalType":"uint256","name":"","type":"uint256"}],"stateMutability":"view","type":"function"},{"inputs":[{"internalType":"uint256","name":"","type":"uint256"}],"name":"issuers","outputs":[{"internalType":"address","name":"","type":"address"}],"stateMutability":"view","type":"function"},{"inputs":[],"name":"name","outputs":[{"internalType":"string","name":"","type":"string"}],"stateMutability":"view","type":"function"},{"inputs":[],"name":"owner","outputs":[{"internalType":"address","name":"","type":"address"}],"stateMutability":"view","type":"function"},{"inputs":[{"internalType":"uint256","name":"tokenId","type":"uint256"}],"name":"ownerOf","outputs":[{"internalType":"address","name":"","type":"address"}],"stateMutability":"view","type":"function"},{"inputs":[],"name":"renounceOwnership","outputs":[],"stateMutability":"nonpayable","type":"function"},{"inputs":[{"internalType":"uint256","name":"tokenId","type":"uint256"}],"name":"revokeCredential","outputs":[],"stateMutability":"nonpayable","type":"function"},{"inputs":[{"internalType":"address","name":"issuer","type":"address"}],"name":"revokeIssuer","outputs":[],"stateMutability":"nonpayable","type":"function"},{"inputs":[{"internalType":"address","name":"from","type":"address"},{"internalType":"address","name":"to","type":"address"},{"internalType":"uint256","name":"tokenId","type":"uint256"}],"name":"safeTransferFrom","outputs":[],"stateMutability":"nonpayable","type":"function"},{"inputs":[{"internalType":"address","name":"from","type":"address"},{"internalType":"address","name":"to","type":"address"},{"internalType":"uint256","name":"tokenId","type":"uint256"},{"internalType":"bytes","name":"data","type":"bytes"}],"name":"safeTransferFrom","outputs":[],"stateMutability":"nonpayable","type":"function"},{"inputs":[{"internalType":"address","name":"operator","type":"address"},{"internalType":"bool","name":"approved","type":"bool"}],"name":"setApprovalForAll","outputs":[],"stateMutability":"nonpayable","type":"function"},{"inputs":[{"internalType":"bytes4","name":"interfaceId","type":"bytes4"}],"name":"supportsInterface","outputs":[{"internalType":"bool","name":"","type":"bool"}],"stateMutability":"view","type":"function"},{"inputs":[],"name":"symbol","outputs":[{"internalType":"string","name":"","type":"string"}],"stateMutability":"view","type":"function"},{"inputs":[{"internalType":"uint256","name":"tokenId","type":"uint256"}],"name":"tokenURI","outputs":[{"internalType":"string","name":"","type":"string"}],"stateMutability":"view","type":"function"},{"inputs":[],"name":"totalCredentials","outputs":[{"internalType":"uint256","name":"","type":"uint256"}],"stateMutability":"view","type":"function"},{"inputs":[{"internalType":"address","name":"from","type":"address"},{"internalType":"address","name":"to","type":"address"},{"internalType":"uint256","name":"tokenId","type":"uint256"}],"name":"transferFrom","outputs":[],"stateMutability":"nonpayable","type":"function"},{"inputs":[{"internalType":"address","name":"newOwner","type":"address"}],"name":"transferOwnership","outputs":[],"stateMutability":"nonpayable","type":"function"},{"inputs":[],"name":"trustEngine","outputs":[{"internalType":"contract TrustEngine","name":"","type":"address"}],"stateMutability":"view","type":"function"},{"inputs":[{"internalType":"uint256","name":"","type":"uint256"}],"name":"trustScores","outputs":[{"internalType":"uint256","name":"","type":"uint256"}],"stateMutability":"view","type":"function"}],"evm":{"bytecode":{"linkReferences":{},"object":"608034620003b757601f906001600160401b0390601f199062001ccf388190038581018416830185811184821017620003a157839282916040528339602092839181010312620003b757516001600160a01b03948582169491859003620003b7576200006a620003bc565b92601584527f5a69707079436f696e2043726564656e7469616c730000000000000000000000818501526200009e620003bc565b906008825267169410cb50d4915160c21b81830152845195848711620003a1576000968754966001978881811c9116801562000396575b8582101462000382579081878493116200032f575b508490878311600114620002ce578a92620002c2575b5050600019600383901b1c191690871b1787555b8251948511620002ae5785548681811c91168015620002a3575b838210146200028f5790818587969594931162000236575b5081938511600114620001d15750508592620001c5575b5050600019600383901b1c191690821b1790555b60065460018060a01b03199133838316176006557f8be0079c531659141344cd1fd0a4f28419497f9722a3daafe3b4186f6b6457e0604051953393169180a360075416176007556118f29081620003dd8239f35b0151905038806200015d565b869593929193168588528388209388905b8282106200021c575050841162000202575b505050811b01905562000171565b015160001960f88460031b161c19169055388080620001f4565b8484015186558897909501949384019390810190620001e2565b9091929394508688528288208580880160051c82019285891062000285575b9188978a9297969594930160051c01915b8281106200027657505062000146565b8a815588975089910162000266565b9250819262000255565b634e487b7160e01b88526022600452602488fd5b90607f16906200012e565b634e487b7160e01b87526041600452602487fd5b01519050388062000100565b90848a9416918b8052868c20928c5b88828210620003185750508411620002fe575b505050811b01875562000114565b015160001960f88460031b161c19169055388080620002f0565b8385015186558d97909501949384019301620002dd565b909150898052848a208780850160051c82019287861062000378575b918b91869594930160051c01915b82811062000369575050620000ea565b8c81558594508b910162000359565b925081926200034b565b634e487b7160e01b8a52602260045260248afd5b90607f1690620000d5565b634e487b7160e01b600052604160045260246000fd5b600080fd5b60408051919082016001600160401b03811183821017620003a15760405256fe6040608081526004908136101561001557600080fd5b600091823560e01c9081626296791461128557816301ffc9a71461121757816306fdde031461116f578163081812fc1461114f578163095ea7b3146111305781631513d62b146111115781631b87278d14610fe157816323b872dd14610fc357816331ba196614610f9857816342842e0e14610f6b578163436693d514610db15781635ccc561e14610d8457816361ec30c414610d515781636352211e14610d2057816368bb9e7d14610cf85781636da48b9a14610ccf57816370a0823114610c39578163715018a614610bdc57816373b23bf314610ba457816374b54e5f14610ba457816377aa980d14610b7b5781638da5cb5b14610b525781638dd18d2d14610a885781638e9841d01461056d57816395d89b411461048a578163a22cb46514610461578163ac00794114610439578163b88d4fde146103ca578163c11cc2a4146103a2578163c87b56dd14610337578163e985e9c5146102e9578163f2fde38b1461021d578163f4b88554146101d8575063f731fa0f1461019857600080fd5b346101d45760203660031901126101d45760209160ff9082906001600160a01b036101c1611350565b168152600f855220541690519015158152f35b5080fd5b905034610219576020366003190112610219578161021593610202923581526009602052206114cb565b9051918291602083526020830190611381565b0390f35b8280fd5b90503461021957602036600319011261021957610238611350565b90610241611571565b6001600160a01b03918216928315610297575050600654826bffffffffffffffffffffffff60a01b821617600655167f8be0079c531659141344cd1fd0a4f28419497f9722a3daafe3b4186f6b6457e08380a380f35b906020608492519162461bcd60e51b8352820152602660248201527f4f776e61626c653a206e6577206f776e657220697320746865207a65726f206160448201526564647265737360d01b6064820152fd5b5050346101d457806003193601126101d45760ff81602093610309611350565b61031161136b565b6001600160a01b0391821683526005875283832091168252855220549151911615158152f35b8383346101d45760203660031901126101d4576103756103706102159435600052600260205260018060a01b0360406000205416151590565b6115c9565b818151610381816113f6565b5280519161038e836113f6565b825251918291602083526020830190611381565b905034610219576020366003190112610219576020928291358152600a845220549051908152f35b8390346101d45760803660031901126101d4576103e5611350565b506103ee61136b565b5060643567ffffffffffffffff811161021957366023820112156102195761041f925060248136930135910161144a565b5061043461042f604435336116db565b611679565b611878565b905034610219576020366003190112610219576020928291358152600e845220549051908152f35b5050346101d4573660031901126104875761047a611350565b5060243580151514611878575b80fd5b5050346101d457816003193601126101d4578051908260018054916104ae83611491565b8086529282811690811561054557506001146104e9575b5050506104d782610215940383611428565b51918291602083526020830190611381565b94508085527fb10e2d527612073b26eecdfd717e6a320cf44b4afac2b0732d9fcbe2b7fa0cf65b82861061052d575050506104d782602061021595820101946104c5565b80546020878701810191909152909501948101610510565b6102159750869350602092506104d794915060ff191682840152151560051b820101946104c5565b90503461021957606036600319011261021957610588611350565b9160249167ffffffffffffffff908335828111610a845736602382011215610a84576105bc9036908681850135910161144a565b926044803592338952602094600f86526105db60ff858c205416611749565b6001600160a01b03988916988915610a4f57875115610a0e57428611156109cd57600754169284516329afd35360e01b90818152338582015288818c81895afa80156109c3578d90610991575b6032915010610950578a8a8992885197889384928352888301525afa938415610946578b94610913575b50601484106108c8575090899160018060085401998a60085561069361068d8c600052600260205260018060a01b0360406000205416151590565b1561178d565b60008b8152600260205260409020546106b6906001600160a01b0316151561068d565b8b8552600389528685208281540190558a8552600289528a8c888720966bffffffffffffffffffffffff60a01b9782898254161790557fddf252ad1be2c89b69c2b068fc378daa952ba7f163c4a11628f55a4df523b3ef8180a460098952868d20938a519384116108b757505061072d8354611491565b601f811161086f575b50878c601f84116001146107e55792807fef11dc2811f178c78ba44b5fa10078d595007e6a3d6c0ba22416becb9656614b9b9997959381936107cd9c9a9896936107da575b501b916000199060031b1c19161790555b888b52600a855242838c2055600b855283838c2055600d8552828b20903390825416179055600e845280828b20558151958695606087526060870190611381565b938501528301520390a380f35b8b015192503861077b565b90601f9392931983168583528a8320925b81811061085a57509183917fef11dc2811f178c78ba44b5fa10078d595007e6a3d6c0ba22416becb9656614b9c9a9896946107cd9c9a98969410610841575b5050811b01905561078c565b8a015160001960f88460031b161c191690553880610835565b8c830151845592850192918b01918b016107f6565b838d52888d20601f840160051c8101918a85106108ad575b601f0160051c019082908e5b8382106108a257505050610736565b81550182908e610893565b9091508190610887565b634e487b7160e01b8e52604190528cfd5b827f496e73756666696369656e7420726563697069656e742074727573742073636f60849260228c8b8a519562461bcd60e51b875286015284015282015261726560f01b6064820152fd5b9093508681813d831161093f575b61092b8183611428565b8101031261093b57519238610652565b8a80fd5b503d610921565b85513d8d823e3d90fd5b855162461bcd60e51b8152808501899052601f818c01527f496e73756666696369656e74206973737565722074727573742073636f72650081840152606490fd5b508881813d83116109bc575b6109a78183611428565b810103126109b85760329051610628565b8c80fd5b503d61099d565b87513d8f823e3d90fd5b845162461bcd60e51b81528084018890526017818b01527f496e76616c69642065787069726174696f6e206461746500000000000000000081860152606490fd5b845162461bcd60e51b81528084018890526017818b01527f496e76616c69642063726564656e7469616c207479706500000000000000000081860152606490fd5b845162461bcd60e51b81528084018890526011818b015270125b9d985b1a59081c9958da5c1a595b9d607a1b81860152606490fd5b8680fd5b8383346101d457602092836003193601126102195735600081815260026020526040902054909390610ac4906001600160a01b031615156117d9565b610acd84611615565b9284815260098252610ae08382206114cb565b948152600a825282812054600b835283822054600c845260ff858420541691600d8552610b3460018060a01b039860e0888b818920541697600e8a5220549789519b8c9b168b528a015260e0890190611381565b9587015260608601521515608085015260a084015260c08301520390f35b5050346101d457816003193601126101d45760065490516001600160a01b039091168152602090f35b5050346101d457816003193601126101d45760075490516001600160a01b039091168152602090f35b5050346101d45760203660031901126101d45760209181906001600160a01b03610bcc611350565b1681526010845220549051908152f35b8334610487578060031936011261048757610bf5611571565b600680546001600160a01b0319811690915581906001600160a01b03167f8be0079c531659141344cd1fd0a4f28419497f9722a3daafe3b4186f6b6457e08280a380f35b839150346101d45760203660031901126101d4576001600160a01b03610c5d611350565b16908115610c7a5760208480858581526003845220549051908152f35b608490602085519162461bcd60e51b8352820152602960248201527f4552433732313a2061646472657373207a65726f206973206e6f7420612076616044820152683634b21037bbb732b960b91b6064820152fd5b8284346104875760203660031901126104875750610cef60209235611825565b90519015158152f35b905034610219576020366003190112610219576020928291358152600b845220549051908152f35b8284346104875760203660031901126104875750610d4060209235611615565b90516001600160a01b039091168152f35b90503461021957602036600319011261021957358252600d6020908152918190205490516001600160a01b039091168152f35b905034610219576020366003190112610219578160209360ff92358152600c855220541690519015158152f35b919050346102195760209081600319360112610f6757610dcf611350565b92610dd8611571565b6001600160a01b03938416938415610f3457848652600f845260ff8387205416610efd57908360249392600754168351948580926329afd35360e01b825289868301525afa928315610ef3578693610ec0575b5060328310610e7f5750838552600f8352808520805460ff1916600117905560108352808520829055519081527fa0d402b55b358dfac53c7d1b3ef26f4e07d706ad2cab4e9540094020ee9a1d999190a280f35b83606492519162461bcd60e51b8352820152601860248201527f496e73756666696369656e742074727573742073636f726500000000000000006044820152fd5b9092508381813d8311610eec575b610ed88183611428565b81010312610ee857519138610e2b565b8580fd5b503d610ece565b82513d88823e3d90fd5b5082606492519162461bcd60e51b83528201526012602482015271105b1c9958591e48185d5d1a1bdc9a5e995960721b6044820152fd5b5082606492519162461bcd60e51b8352820152600e60248201526d24b73b30b634b21034b9b9bab2b960911b6044820152fd5b8380fd5b5050346101d45761042f9061043492610f83366113c1565b9391505051610f91816113f6565b52336116db565b5050346101d45760203660031901126101d45760209160ff9082906001600160a01b036101c1611350565b83346104875761043461042f610fd8366113c1565b915050336116db565b9190503461021957602080600319360112610f6757823592338552600f825261100f60ff8487205416611749565b600084815260026020526040902054611032906001600160a01b031615156117d9565b838552600c825260ff83862054166110d057838552600d825282852054336001600160a01b039091160361109e5750828452600c90528220805460ff1916600117905533907f936526f4a3155895d9f01699716f2e0c548d726a24a1437e5ce92b3dacaad35b8380a380f35b915162461bcd60e51b815291820152600e60248201526d2737ba103a34329034b9b9bab2b960911b6044820152606490fd5b915162461bcd60e51b815291820152601a60248201527f43726564656e7469616c20616c7265616479207265766f6b65640000000000006044820152606490fd5b5050346101d457816003193601126101d4576020906008549051908152f35b5050346101d45736600319011261048757611149611350565b50611878565b8284346104875760203660031901126104875750610d406020923561163b565b5050346101d457816003193601126101d45780519082805461119081611491565b8085529160019180831690811561054557506001146111bb575050506104d782610215940383611428565b80809650527f290decd9548b62a8d60345a988386fc84ba6bc95484008f6362f93160ef3e5635b8286106111ff575050506104d782602061021595820101946104c5565b805460208787018101919091529095019481016111e2565b90503461021957602036600319011261021957359063ffffffff60e01b821680920361021957602092506380ac58cd60e01b8214918215611274575b8215611263575b50519015158152f35b6301ffc9a760e01b1491503861125a565b635b5e139f60e01b81149250611253565b91905034610219576020366003190112610219576112a1611350565b6112a9611571565b6001600160a01b0316808452600f6020528184205490929060ff161561130e57508290828252600f60205280822060ff19815416905560106020528120557f95a4c2ae425bb769549aa1a911911ff57c17ae811ae8c8962d0b9746fcb153978280a280f35b6020606492519162461bcd60e51b8352820152601860248201527f4e6f7420616e20617574686f72697a65642069737375657200000000000000006044820152fd5b600435906001600160a01b038216820361136657565b600080fd5b602435906001600160a01b038216820361136657565b919082519283825260005b8481106113ad575050826000602080949584010152601f8019910116010190565b60208183018101518483018201520161138c565b6060906003190112611366576001600160a01b0390600435828116810361136657916024359081168103611366579060443590565b6020810190811067ffffffffffffffff82111761141257604052565b634e487b7160e01b600052604160045260246000fd5b90601f8019910116810190811067ffffffffffffffff82111761141257604052565b92919267ffffffffffffffff82116114125760405191611474601f8201601f191660200184611428565b829481845281830111611366578281602093846000960137010152565b90600182811c921680156114c1575b60208310146114ab57565b634e487b7160e01b600052602260045260246000fd5b91607f16916114a0565b90604051918260008254926114df84611491565b90818452600194858116908160001461154e575060011461150b575b505061150992500383611428565b565b9093915060005260209081600020936000915b818310611536575050611509935082010138806114fb565b8554888401850152948501948794509183019161151e565b91505061150994506020925060ff191682840152151560051b82010138806114fb565b6006546001600160a01b0316330361158557565b606460405162461bcd60e51b815260206004820152602060248201527f4f776e61626c653a2063616c6c6572206973206e6f7420746865206f776e65726044820152fd5b156115d057565b60405162461bcd60e51b815260206004820152601860248201527f4552433732313a20696e76616c696420746f6b656e20494400000000000000006044820152606490fd5b6000908152600260205260409020546001600160a01b03166116388115156115c9565b90565b60008181526002602052604090205461165e906001600160a01b031615156115c9565b6000908152600460205260409020546001600160a01b031690565b1561168057565b60405162461bcd60e51b815260206004820152602d60248201527f4552433732313a2063616c6c6572206973206e6f7420746f6b656e206f776e6560448201526c1c881bdc88185c1c1c9bdd9959609a1b6064820152608490fd5b906001600160a01b0380806116ef84611615565b16931691838314938415611722575b50831561170c575b50505090565b6117189192935061163b565b1614388080611706565b909350600052600560205260406000208260005260205260ff6040600020541692386116fe565b1561175057565b60405162461bcd60e51b81526020600482015260156024820152742737ba1030baba3437b934bd32b21034b9b9bab2b960591b6044820152606490fd5b1561179457565b60405162461bcd60e51b815260206004820152601c60248201527f4552433732313a20746f6b656e20616c7265616479206d696e746564000000006044820152606490fd5b156117e057565b60405162461bcd60e51b815260206004820152601960248201527f43726564656e7469616c20646f6573206e6f74206578697374000000000000006044820152606490fd5b6000818152600260205260409020546001600160a01b03161561187257600052600c60205260ff6040600020541661186d57600b602052604060002054421161186d57600190565b600090565b50600090565b606460405162461bcd60e51b815260206004820152602060248201527f43726564656e7469616c7320617265206e6f6e2d7472616e7366657261626c656044820152fdfea2646970667358221220f6f9941389a96be6bb1ed30c15cab091ee861d3880cf0986152c48f2de325b8b64736f6c63430008130033","opcodes":"PUSH1 0x80 CALLVALUE PUSH3 0x3B7 JUMPI PUSH1 0x1F SWAP1 PUSH1 0x1 PUSH1 0x1 PUSH1 0x40 SHL SUB SWAP1 PUSH1 0x1F NOT SWAP1 PUSH3 0x1CCF CODESIZE DUP2 SWAP1 SUB DUP6 DUP2 ADD DUP5 AND DUP4 ADD DUP6 DUP2 GT DUP5 DUP3 LT OR PUSH3 0x3A1 JUMPI DUP4 SWAP3 DUP3 SWAP2 PUSH1 0x40 MSTORE DUP4 CODECOPY PUSH1 0x20 SWAP3 DUP4 SWAP2 DUP2 ADD SUB SLT PUSH3 0x3B7 JUMPI MLOAD PUSH1 0x1 PUSH1 0x1 PUSH1 0xA0 SHL SUB SWAP5 DUP6 DUP3 AND SWAP5 SWAP2 DUP6 SWAP1 SUB PUSH3 0x3B7 JUMPI PUSH3 0x6A PUSH3 0x3BC JUMP JUMPDEST SWAP3 PUSH1 0x15 DUP5 MSTORE PUSH32 0x5A69707079436F696E2043726564656E7469616C730000000000000000000000 DUP2 DUP6 ADD MSTORE PUSH3 0x9E PUSH3 0x3BC JUMP JUMPDEST SWAP1 PUSH1 0x8 DUP3 MSTORE PUSH8 0x169410CB50D49151 PUSH1 0xC2 SHL DUP2 DUP4 ADD MSTORE DUP5 MLOAD SWAP6 DUP5 DUP8 GT PUSH3 0x3A1 JUMPI PUSH1 0x0 SWAP7 DUP8 SLOAD SWAP7 PUSH1 0x1 SWAP8 DUP9 DUP2 DUP2 SHR SWAP2 AND DUP1 ISZERO PUSH3 0x396 JUMPI JUMPDEST DUP6 DUP3 LT EQ PUSH3 0x382 JUMPI SWAP1 DUP2 DUP8 DUP5 SWAP4 GT PUSH3 0x32F JUMPI JUMPDEST POP DUP5 SWAP1 DUP8 DUP4 GT PUSH1 0x1 EQ PUSH3 0x2CE JUMPI DUP11 SWAP3 PUSH3 0x2C2 JUMPI JUMPDEST POP POP PUSH1 0x0 NOT PUSH1 0x3 DUP4 SWAP1 SHL SHR NOT AND SWAP1 DUP8 SHL OR DUP8 SSTORE JUMPDEST DUP3 MLOAD SWAP5 DUP6 GT PUSH3 0x2AE JUMPI DUP6 SLOAD DUP7 DUP2 DUP2 SHR SWAP2 AND DUP1 ISZERO PUSH3 0x2A3 JUMPI JUMPDEST DUP4 DUP3 LT EQ PUSH3 0x28F JUMPI SWAP1 DUP2 DUP6 DUP8 SWAP7 SWAP6 SWAP5 SWAP4 GT PUSH3 0x236 JUMPI JUMPDEST POP DUP2 SWAP4 DUP6 GT PUSH1 0x1 EQ PUSH3 0x1D1 JUMPI POP POP DUP6 SWAP3 PUSH3 0x1C5 JUMPI JUMPDEST POP POP PUSH1 0x0 NOT PUSH1 0x3 DUP4 SWAP1 SHL SHR NOT AND SWAP1 DUP3 SHL OR SWAP1 SSTORE JUMPDEST PUSH1 0x6 SLOAD PUSH1 0x1 DUP1 PUSH1 0xA0 SHL SUB NOT SWAP2 CALLER DUP4 DUP4 AND OR PUSH1 0x6 SSTORE PUSH32 0x8BE0079C531659141344CD1FD0A4F28419497F9722A3DAAFE3B4186F6B6457E0 PUSH1 0x40 MLOAD SWAP6 CALLER SWAP4 AND SWAP2 DUP1 LOG3 PUSH1 0x7 SLOAD AND OR PUSH1 0x7 SSTORE PUSH2 0x18F2 SWAP1 DUP2 PUSH3 0x3DD DUP3 CODECOPY RETURN JUMPDEST ADD MLOAD SWAP1 POP CODESIZE DUP1 PUSH3 0x15D JUMP JUMPDEST DUP7 SWAP6 SWAP4 SWAP3 SWAP2 SWAP4 AND DUP6 DUP9 MSTORE DUP4 DUP9 KECCAK256 SWAP4 DUP9 SWAP1 JUMPDEST DUP3 DUP3 LT PUSH3 0x21C JUMPI POP POP DUP5 GT PUSH3 0x202 JUMPI JUMPDEST POP POP POP DUP2 SHL ADD SWAP1 SSTORE PUSH3 0x171 JUMP JUMPDEST ADD MLOAD PUSH1 0x0 NOT PUSH1 0xF8 DUP5 PUSH1 0x3 SHL AND SHR NOT AND SWAP1 SSTORE CODESIZE DUP1 DUP1 PUSH3 0x1F4 JUMP JUMPDEST DUP5 DUP5 ADD MLOAD DUP7 SSTORE DUP9 SWAP8 SWAP1 SWAP6 ADD SWAP5 SWAP4 DUP5 ADD SWAP4 SWAP1 DUP2 ADD SWAP1 PUSH3 0x1E2 JUMP JUMPDEST SWAP1 SWAP2 SWAP3 SWAP4 SWAP5 POP DUP7 DUP9 MSTORE DUP3 DUP9 KECCAK256 DUP6 DUP1 DUP9 ADD PUSH1 0x5 SHR DUP3 ADD SWAP3 DUP6 DUP10 LT PUSH3 0x285 JUMPI JUMPDEST SWAP2 DUP9 SWAP8 DUP11 SWAP3 SWAP8 SWAP7 SWAP6 SWAP5 SWAP4 ADD PUSH1 0x5 SHR ADD SWAP2 JUMPDEST DUP3 DUP2 LT PUSH3 0x276 JUMPI POP POP PUSH3 0x146 JUMP JUMPDEST DUP11 DUP2 SSTORE DUP9 SWAP8 POP DUP10 SWAP2 ADD PUSH3 0x266 JUMP JUMPDEST SWAP3 POP DUP2 SWAP3 PUSH3 0x255 JUMP JUMPDEST PUSH4 0x4E487B71 PUSH1 0xE0 SHL DUP9 MSTORE PUSH1 0x22 PUSH1 0x4 MSTORE PUSH1 0x24 DUP9 REVERT JUMPDEST SWAP1 PUSH1 0x7F AND SWAP1 PUSH3 0x12E JUMP JUMPDEST PUSH4 0x4E487B71 PUSH1 0xE0 SHL DUP8 MSTORE PUSH1 0x41 PUSH1 0x4 MSTORE PUSH1 0x24 DUP8 REVERT JUMPDEST ADD MLOAD SWAP1 POP CODESIZE DUP1 PUSH3 0x100 JUMP JUMPDEST SWAP1 DUP5 DUP11 SWAP5 AND SWAP2 DUP12 DUP1 MSTORE DUP7 DUP13 KECCAK256 SWAP3 DUP13 JUMPDEST DUP9 DUP3 DUP3 LT PUSH3 0x318 JUMPI POP POP DUP5 GT PUSH3 0x2FE JUMPI JUMPDEST POP POP POP DUP2 SHL ADD DUP8 SSTORE PUSH3 0x114 JUMP JUMPDEST ADD MLOAD PUSH1 0x0 NOT PUSH1 0xF8 DUP5 PUSH1 0x3 SHL AND SHR NOT AND SWAP1 SSTORE CODESIZE DUP1 DUP1 PUSH3 0x2F0 JUMP JUMPDEST DUP4 DUP6 ADD MLOAD DUP7 SSTORE DUP14 SWAP8 SWAP1 SWAP6 ADD SWAP5 SWAP4 DUP5 ADD SWAP4 ADD PUSH3 0x2DD JUMP JUMPDEST SWAP1 SWAP2 POP DUP10 DUP1 MSTORE DUP5 DUP11 KECCAK256 DUP8 DUP1 DUP6 ADD PUSH1 0x5 SHR DUP3 ADD SWAP3 DUP8 DUP7 LT PUSH3 0x378 JUMPI JUMPDEST SWAP2 DUP12 SWAP2 DUP7 SWAP6 SWAP5 SWAP4 ADD PUSH1 0x5 SHR ADD SWAP2 JUMPDEST DUP3 DUP2 LT PUSH3 0x369 JUMPI POP POP PUSH3 0xEA JUMP JUMPDEST DUP13 DUP2 SSTORE DUP6 SWAP5 POP DUP12 SWAP2 ADD PUSH3 0x359 JUMP JUMPDEST SWAP3 POP DUP2 SWAP3 PUSH3 0x34B JUMP JUMPDEST PUSH4 0x4E487B71 PUSH1 0xE0 SHL DUP11 MSTORE PUSH1 0x22 PUSH1 0x4 MSTORE PUSH1 0x24 DUP11 REVERT JUMPDEST SWAP1 PUSH1 0x7F AND SWAP1 PUSH3 0xD5 JUMP JUMPDEST PUSH4 0x4E487B71 PUSH1 0xE0 SHL PUSH1 0x0 MSTORE PUSH1 0x41 PUSH1 0x4 MSTORE PUSH1 0x24 PUSH1 0x0 REVERT JUMPDEST PUSH1 0x0 DUP1 REVERT JUMPDEST PUSH1 0x40 DUP1 MLOAD SWAP2 SWAP1 DUP3 ADD PUSH1 0x1 PUSH1 0x1 PUSH1 0x40 SHL SUB DUP2 GT DUP4 DUP3 LT OR PUSH3 0x3A1 JUMPI PUSH1 0x40 MSTORE JUMP INVALID PUSH1 0x40 PUSH1 0x80 DUP2 MSTORE PUSH1 0x4 SWAP1 DUP2 CALLDATASIZE LT ISZERO PUSH2 0x15 JUMPI PUSH1 0x0 DUP1 REVERT JUMPDEST PUSH1 0x0 SWAP2 DUP3 CALLDATALOAD PUSH1 0xE0 SHR SWAP1 DUP2 PUSH3 0x629679 EQ PUSH2 0x1285 JUMPI DUP2 PUSH4 0x1FFC9A7 EQ PUSH2 0x1217 JUMPI DUP2 PUSH4 0x6FDDE03 EQ PUSH2 0x116F JUMPI DUP2 PUSH4 0x81812FC EQ PUSH2 0x114F JUMPI DUP2 PUSH4 0x95EA7B3 EQ PUSH2 0x1130 JUMPI DUP2 PUSH4 0x1513D62B EQ PUSH2 0x1111 JUMPI DUP2 PUSH4 0x1B87278D EQ PUSH2 0xFE1 JUMPI DUP2 PUSH4 0x23B872DD EQ PUSH2 0xFC3 JUMPI DUP2 PUSH4 0x31BA1966 EQ PUSH2 0xF98 JUMPI DUP2 PUSH4 0x42842E0E EQ PUSH2 0xF6B JUMPI DUP2 PUSH4 0x436693D5 EQ PUSH2 0xDB1 JUMPI DUP2 PUSH4 0x5CCC561E EQ PUSH2 0xD84 JUMPI DUP2 PUSH4 0x61EC30C4 EQ PUSH2 0xD51 JUMPI DUP2 PUSH4 0x6352211E EQ PUSH2 0xD20 JUMPI DUP2 PUSH4 0x68BB9E7D EQ PUSH2 0xCF8 JUMPI DUP2 PUSH4 0x6DA48B9A EQ PUSH2 0xCCF JUMPI DUP2 PUSH4 0x70A08231 EQ PUSH2 0xC39 JUMPI DUP2 PUSH4 0x715018A6 EQ PUSH2 0xBDC JUMPI DUP2 PUSH4 0x73B23BF3 EQ PUSH2 0xBA4 JUMPI DUP2 PUSH4 0x74B54E5F EQ PUSH2 0xBA4 JUMPI DUP2 PUSH4 0x77AA980D EQ PUSH2 0xB7B JUMPI DUP2 PUSH4 0x8DA5CB5B EQ PUSH2 0xB52 JUMPI DUP2 PUSH4 0x8DD18D2D EQ PUSH2 0xA88 JUMPI DUP2 PUSH4 0x8E9841D0 EQ PUSH2 0x56D JUMPI DUP2 PUSH4 0x95D89B41 EQ PUSH2 0x48A JUMPI DUP2 PUSH4 0xA22CB465 EQ PUSH2 0x461 JUMPI DUP2 PUSH4 0xAC007941 EQ PUSH2 0x439 JUMPI DUP2 PUSH4 0xB88D4FDE EQ PUSH2 0x3CA JUMPI DUP2 PUSH4 0xC11CC2A4 EQ PUSH2 0x3A2 JUMPI DUP2 PUSH4 0xC87B56DD EQ PUSH2 0x337 JUMPI DUP2 PUSH4 0xE985E9C5 EQ PUSH2 0x2E9 JUMPI DUP2 PUSH4 0xF2FDE38B EQ PUSH2 0x21D JUMPI DUP2 PUSH4 0xF4B88554 EQ PUSH2 0x1D8 JUMPI POP PUSH4 0xF731FA0F EQ PUSH2 0x198 JUMPI PUSH1 0x0 DUP1 REVERT JUMPDEST CALLVALUE PUSH2 0x1D4 JUMPI PUSH1 0x20 CALLDATASIZE PUSH1 0x3 NOT ADD SLT PUSH2 0x1D4 JUMPI PUSH1 0x20 SWAP2 PUSH1 0xFF SWAP1 DUP3 SWAP1 PUSH1 0x1 PUSH1 0x1 PUSH1 0xA0 SHL SUB PUSH2 0x1C1 PUSH2 0x1350 JUMP JUMPDEST AND DUP2 MSTORE PUSH1 0xF DUP6 MSTORE KECCAK256 SLOAD AND SWAP1 MLOAD SWAP1 ISZERO ISZERO DUP2 MSTORE RETURN JUMPDEST POP DUP1 REVERT JUMPDEST SWAP1 POP CALLVALUE PUSH2 0x219 JUMPI PUSH1 0x20 CALLDATASIZE PUSH1 0x3 NOT ADD SLT PUSH2 0x219 JUMPI DUP2 PUSH2 0x215 SWAP4 PUSH2 0x202 SWAP3 CALLDATALOAD DUP2 MSTORE PUSH1 0x9 PUSH1 0x20 MSTORE KECCAK256 PUSH2 0x14CB JUMP JUMPDEST SWAP1 MLOAD SWAP2 DUP3 SWAP2 PUSH1 0x20 DUP4 MSTORE PUSH1 0x20 DUP4 ADD SWAP1 PUSH2 0x1381 JUMP JUMPDEST SUB SWAP1 RETURN JUMPDEST DUP3 DUP1 REVERT JUMPDEST SWAP1 POP CALLVALUE PUSH2 0x219 JUMPI PUSH1 0x20 CALLDATASIZE PUSH1 0x3 NOT ADD SLT PUSH2 0x219 JUMPI PUSH2 0x238 PUSH2 0x1350 JUMP JUMPDEST SWAP1 PUSH2 0x241 PUSH2 0x1571 JUMP JUMPDEST PUSH1 0x1 PUSH1 0x1 PUSH1 0xA0 SHL SUB SWAP2 DUP3 AND SWAP3 DUP4 ISZERO PUSH2 0x297 JUMPI POP POP PUSH1 0x6 SLOAD DUP3 PUSH12 0xFFFFFFFFFFFFFFFFFFFFFFFF PUSH1 0xA0 SHL DUP3 AND OR PUSH1 0x6 SSTORE AND PUSH32 0x8BE0079C531659141344CD1FD0A4F28419497F9722A3DAAFE3B4186F6B6457E0 DUP4 DUP1 LOG3 DUP1 RETURN JUMPDEST SWAP1 PUSH1 0x20 PUSH1 0x84 SWAP3 MLOAD SWAP2 PUSH3 0x461BCD PUSH1 0xE5 SHL DUP4 MSTORE DUP3 ADD MSTORE PUSH1 0x26 PUSH1 0x24 DUP3 ADD MSTORE PUSH32 0x4F776E61626C653A206E6577206F776E657220697320746865207A65726F2061 PUSH1 0x44 DUP3 ADD MSTORE PUSH6 0x646472657373 PUSH1 0xD0 SHL PUSH1 0x64 DUP3 ADD MSTORE REVERT JUMPDEST POP POP CALLVALUE PUSH2 0x1D4 JUMPI DUP1 PUSH1 0x3 NOT CALLDATASIZE ADD SLT PUSH2 0x1D4 JUMPI PUSH1 0xFF DUP2 PUSH1 0x20 SWAP4 PUSH2 0x309 PUSH2 0x1350 JUMP JUMPDEST PUSH2 0x311 PUSH2 0x136B JUMP JUMPDEST PUSH1 0x1 PUSH1 0x1 PUSH1 0xA0 SHL SUB SWAP2 DUP3 AND DUP4 MSTORE PUSH1 0x5 DUP8 MSTORE DUP4 DUP4 KECCAK256 SWAP2 AND DUP3 MSTORE DUP6 MSTORE KECCAK256 SLOAD SWAP2 MLOAD SWAP2 AND ISZERO ISZERO DUP2 MSTORE RETURN JUMPDEST DUP4 DUP4 CALLVALUE PUSH2 0x1D4 JUMPI PUSH1 0x20 CALLDATASIZE PUSH1 0x3 NOT ADD SLT PUSH2 0x1D4 JUMPI PUSH2 0x375 PUSH2 0x370 PUSH2 0x215 SWAP5 CALLDATALOAD PUSH1 0x0 MSTORE PUSH1 0x2 PUSH1 0x20 MSTORE PUSH1 0x1 DUP1 PUSH1 0xA0 SHL SUB PUSH1 0x40 PUSH1 0x0 KECCAK256 SLOAD AND ISZERO ISZERO SWAP1 JUMP JUMPDEST PUSH2 0x15C9 JUMP JUMPDEST DUP2 DUP2 MLOAD PUSH2 0x381 DUP2 PUSH2 0x13F6 JUMP JUMPDEST MSTORE DUP1 MLOAD SWAP2 PUSH2 0x38E DUP4 PUSH2 0x13F6 JUMP JUMPDEST DUP3 MSTORE MLOAD SWAP2 DUP3 SWAP2 PUSH1 0x20 DUP4 MSTORE PUSH1 0x20 DUP4 ADD SWAP1 PUSH2 0x1381 JUMP JUMPDEST SWAP1 POP CALLVALUE PUSH2 0x219 JUMPI PUSH1 0x20 CALLDATASIZE PUSH1 0x3 NOT ADD SLT PUSH2 0x219 JUMPI PUSH1 0x20 SWAP3 DUP3 SWAP2 CALLDATALOAD DUP2 MSTORE PUSH1 0xA DUP5 MSTORE KECCAK256 SLOAD SWAP1 MLOAD SWAP1 DUP2 MSTORE RETURN JUMPDEST DUP4 SWAP1 CALLVALUE PUSH2 0x1D4 JUMPI PUSH1 0x80 CALLDATASIZE PUSH1 0x3 NOT ADD SLT PUSH2 0x1D4 JUMPI PUSH2 0x3E5 PUSH2 0x1350 JUMP JUMPDEST POP PUSH2 0x3EE PUSH2 0x136B JUMP JUMPDEST POP PUSH1 0x64 CALLDATALOAD PUSH8 0xFFFFFFFFFFFFFFFF DUP2 GT PUSH2 0x219 JUMPI CALLDATASIZE PUSH1 0x23 DUP3 ADD SLT ISZERO PUSH2 0x219 JUMPI PUSH2 0x41F SWAP3 POP PUSH1 0x24 DUP2 CALLDATASIZE SWAP4 ADD CALLDATALOAD SWAP2 ADD PUSH2 0x144A JUMP JUMPDEST POP PUSH2 0x434 PUSH2 0x42F PUSH1 0x44 CALLDATALOAD CALLER PUSH2 0x16DB JUMP JUMPDEST PUSH2 0x1679 JUMP JUMPDEST PUSH2 0x1878 JUMP JUMPDEST SWAP1 POP CALLVALUE PUSH2 0x219 JUMPI PUSH1 0x20 CALLDATASIZE PUSH1 0x3 NOT ADD SLT PUSH2 0x219 JUMPI PUSH1 0x20 SWAP3 DUP3 SWAP2 CALLDATALOAD DUP2 MSTORE PUSH1 0xE DUP5 MSTORE KECCAK256 SLOAD SWAP1 MLOAD SWAP1 DUP2 MSTORE RETURN JUMPDEST POP POP CALLVALUE PUSH2 0x1D4 JUMPI CALLDATASIZE PUSH1 0x3 NOT ADD SLT PUSH2 0x487 JUMPI PUSH2 0x47A PUSH2 0x1350 JUMP JUMPDEST POP PUSH1 0x24 CALLDATALOAD DUP1 ISZERO ISZERO EQ PUSH2 0x1878 JUMPI JUMPDEST DUP1 REVERT JUMPDEST POP POP CALLVALUE PUSH2 0x1D4 JUMPI DUP2 PUSH1 0x3 NOT CALLDATASIZE ADD SLT PUSH2 0x1D4 JUMPI DUP1 MLOAD SWAP1 DUP3 PUSH1 0x1 DUP1 SLOAD SWAP2 PUSH2 0x4AE DUP4 PUSH2 0x1491 JUMP JUMPDEST DUP1 DUP7 MSTORE SWAP3 DUP3 DUP2 AND SWAP1 DUP2 ISZERO PUSH2 0x545 JUMPI POP PUSH1 0x1 EQ PUSH2 0x4E9 JUMPI JUMPDEST POP POP POP PUSH2 0x4D7 DUP3 PUSH2 0x215 SWAP5 SUB DUP4 PUSH2 0x1428 JUMP JUMPDEST MLOAD SWAP2 DUP3 SWAP2 PUSH1 0x20 DUP4 MSTORE PUSH1 0x20 DUP4 ADD SWAP1 PUSH2 0x1381 JUMP JUMPDEST SWAP5 POP DUP1 DUP6 MSTORE PUSH32 0xB10E2D527612073B26EECDFD717E6A320CF44B4AFAC2B0732D9FCBE2B7FA0CF6 JUMPDEST DUP3 DUP7 LT PUSH2 0x52D JUMPI POP POP POP PUSH2 0x4D7 DUP3 PUSH1 0x20 PUSH2 0x215 SWAP6 DUP3 ADD ADD SWAP5 PUSH2 0x4C5 JUMP JUMPDEST DUP1 SLOAD PUSH1 0x20 DUP8 DUP8 ADD DUP2 ADD SWAP2 SWAP1 SWAP2 MSTORE SWAP1 SWAP6 ADD SWAP5 DUP2 ADD PUSH2 0x510 JUMP JUMPDEST PUSH2 0x215 SWAP8 POP DUP7 SWAP4 POP PUSH1 0x20 SWAP3 POP PUSH2 0x4D7 SWAP5 SWAP2 POP PUSH1 0xFF NOT AND DUP3 DUP5 ADD MSTORE ISZERO ISZERO PUSH1 0x5 SHL DUP3 ADD ADD SWAP5 PUSH2 0x4C5 JUMP JUMPDEST SWAP1 POP CALLVALUE PUSH2 0x219 JUMPI PUSH1 0x60 CALLDATASIZE PUSH1 0x3 NOT ADD SLT PUSH2 0x219 JUMPI PUSH2 0x588 PUSH2 0x1350 JUMP JUMPDEST SWAP2 PUSH1 0x24 SWAP2 PUSH8 0xFFFFFFFFFFFFFFFF SWAP1 DUP4 CALLDATALOAD DUP3 DUP2 GT PUSH2 0xA84 JUMPI CALLDATASIZE PUSH1 0x23 DUP3 ADD SLT ISZERO PUSH2 0xA84 JUMPI PUSH2 0x5BC SWAP1 CALLDATASIZE SWAP1 DUP7 DUP2 DUP6 ADD CALLDATALOAD SWAP2 ADD PUSH2 0x144A JUMP JUMPDEST SWAP3 PUSH1 0x44 DUP1 CALLDATALOAD SWAP3 CALLER DUP10 MSTORE PUSH1 0x20 SWAP5 PUSH1 0xF DUP7 MSTORE PUSH2 0x5DB PUSH1 0xFF DUP6 DUP13 KECCAK256 SLOAD AND PUSH2 0x1749 JUMP JUMPDEST PUSH1 0x1 PUSH1 0x1 PUSH1 0xA0 SHL SUB SWAP9 DUP10 AND SWAP9 DUP10 ISZERO PUSH2 0xA4F JUMPI DUP8 MLOAD ISZERO PUSH2 0xA0E JUMPI TIMESTAMP DUP7 GT ISZERO PUSH2 0x9CD JUMPI PUSH1 0x7 SLOAD AND SWAP3 DUP5 MLOAD PUSH4 0x29AFD353 PUSH1 0xE0 SHL SWAP1 DUP2 DUP2 MSTORE CALLER DUP6 DUP3 ADD MSTORE DUP9 DUP2 DUP13 DUP2 DUP10 GAS STATICCALL DUP1 ISZERO PUSH2 0x9C3 JUMPI DUP14 SWAP1 PUSH2 0x991 JUMPI JUMPDEST PUSH1 0x32 SWAP2 POP LT PUSH2 0x950 JUMPI DUP11 DUP11 DUP10 SWAP3 DUP9 MLOAD SWAP8 DUP9 SWAP4 DUP5 SWAP3 DUP4 MSTORE DUP9 DUP4 ADD MSTORE GAS STATICCALL SWAP4 DUP5 ISZERO PUSH2 0x946 JUMPI DUP12 SWAP5 PUSH2 0x913 JUMPI JUMPDEST POP PUSH1 0x14 DUP5 LT PUSH2 0x8C8 JUMPI POP SWAP1 DUP10 SWAP2 PUSH1 0x1 DUP1 PUSH1 0x8 SLOAD ADD SWAP10 DUP11 PUSH1 0x8 SSTORE PUSH2 0x693 PUSH2 0x68D DUP13 PUSH1 0x0 MSTORE PUSH1 0x2 PUSH1 0x20 MSTORE PUSH1 0x1 DUP1 PUSH1 0xA0 SHL SUB PUSH1 0x40 PUSH1 0x0 KECCAK256 SLOAD AND ISZERO ISZERO SWAP1 JUMP JUMPDEST ISZERO PUSH2 0x178D JUMP JUMPDEST PUSH1 0x0 DUP12 DUP2 MSTORE PUSH1 0x2 PUSH1 0x20 MSTORE PUSH1 0x40 SWAP1 KECCAK256 SLOAD PUSH2 0x6B6 SWAP1 PUSH1 0x1 PUSH1 0x1 PUSH1 0xA0 SHL SUB AND ISZERO ISZERO PUSH2 0x68D JUMP JUMPDEST DUP12 DUP6 MSTORE PUSH1 0x3 DUP10 MSTORE DUP7 DUP6 KECCAK256 DUP3 DUP2 SLOAD ADD SWAP1 SSTORE DUP11 DUP6 MSTORE PUSH1 0x2 DUP10 MSTORE DUP11 DUP13 DUP9 DUP8 KECCAK256 SWAP7 PUSH12 0xFFFFFFFFFFFFFFFFFFFFFFFF PUSH1 0xA0 SHL SWAP8 DUP3 DUP10 DUP3 SLOAD AND OR SWAP1 SSTORE PUSH32 0xDDF252AD1BE2C89B69C2B068FC378DAA952BA7F163C4A11628F55A4DF523B3EF DUP2 DUP1 LOG4 PUSH1 0x9 DUP10 MSTORE DUP7 DUP14 KECCAK256 SWAP4 DUP11 MLOAD SWAP4 DUP5 GT PUSH2 0x8B7 JUMPI POP POP PUSH2 0x72D DUP4 SLOAD PUSH2 0x1491 JUMP JUMPDEST PUSH1 0x1F DUP2 GT PUSH2 0x86F JUMPI JUMPDEST POP DUP8 DUP13 PUSH1 0x1F DUP5 GT PUSH1 0x1 EQ PUSH2 0x7E5 JUMPI SWAP3 DUP1 PUSH32 0xEF11DC2811F178C78BA44B5FA10078D595007E6A3D6C0BA22416BECB9656614B SWAP12 SWAP10 SWAP8 SWAP6 SWAP4 DUP2 SWAP4 PUSH2 0x7CD SWAP13 SWAP11 SWAP9 SWAP7 SWAP4 PUSH2 0x7DA JUMPI JUMPDEST POP SHL SWAP2 PUSH1 0x0 NOT SWAP1 PUSH1 0x3 SHL SHR NOT AND OR SWAP1 SSTORE JUMPDEST DUP9 DUP12 MSTORE PUSH1 0xA DUP6 MSTORE TIMESTAMP DUP4 DUP13 KECCAK256 SSTORE PUSH1 0xB DUP6 MSTORE DUP4 DUP4 DUP13 KECCAK256 SSTORE PUSH1 0xD DUP6 MSTORE DUP3 DUP12 KECCAK256 SWAP1 CALLER SWAP1 DUP3 SLOAD AND OR SWAP1 SSTORE PUSH1 0xE DUP5 MSTORE DUP1 DUP3 DUP12 KECCAK256 SSTORE DUP2 MLOAD SWAP6 DUP7 SWAP6 PUSH1 0x60 DUP8 MSTORE PUSH1 0x60 DUP8 ADD SWAP1 PUSH2 0x1381 JUMP JUMPDEST SWAP4 DUP6 ADD MSTORE DUP4 ADD MSTORE SUB SWAP1 LOG3 DUP1 RETURN JUMPDEST DUP12 ADD MLOAD SWAP3 POP CODESIZE PUSH2 0x77B JUMP JUMPDEST SWAP1 PUSH1 0x1F SWAP4 SWAP3 SWAP4 NOT DUP4 AND DUP6 DUP4 MSTORE DUP11 DUP4 KECCAK256 SWAP3 JUMPDEST DUP2 DUP2 LT PUSH2 0x85A JUMPI POP SWAP2 DUP4 SWAP2 PUSH32 0xEF11DC2811F178C78BA44B5FA10078D595007E6A3D6C0BA22416BECB9656614B SWAP13 SWAP11 SWAP9 SWAP7 SWAP5 PUSH2 0x7CD SWAP13 SWAP11 SWAP9 SWAP7 SWAP5 LT PUSH2 0x841 JUMPI JUMPDEST POP POP DUP2 SHL ADD SWAP1 SSTORE PUSH2 0x78C JUMP JUMPDEST DUP11 ADD MLOAD PUSH1 0x0 NOT PUSH1 0xF8 DUP5 PUSH1 0x3 SHL AND SHR NOT AND SWAP1 SSTORE CODESIZE DUP1 PUSH2 0x835 JUMP JUMPDEST DUP13 DUP4 ADD MLOAD DUP5 SSTORE SWAP3 DUP6 ADD SWAP3 SWAP2 DUP12 ADD SWAP2 DUP12 ADD PUSH2 0x7F6 JUMP JUMPDEST DUP4 DUP14 MSTORE DUP9 DUP14 KECCAK256 PUSH1 0x1F DUP5 ADD PUSH1 0x5 SHR DUP2 ADD SWAP2 DUP11 DUP6 LT PUSH2 0x8AD JUMPI JUMPDEST PUSH1 0x1F ADD PUSH1 0x5 SHR ADD SWAP1 DUP3 SWAP1 DUP15 JUMPDEST DUP4 DUP3 LT PUSH2 0x8A2 JUMPI POP POP POP PUSH2 0x736 JUMP JUMPDEST DUP2 SSTORE ADD DUP3 SWAP1 DUP15 PUSH2 0x893 JUMP JUMPDEST SWAP1 SWAP2 POP DUP2 SWAP1 PUSH2 0x887 JUMP JUMPDEST PUSH4 0x4E487B71 PUSH1 0xE0 SHL DUP15 MSTORE PUSH1 0x41 SWAP1 MSTORE DUP13 REVERT JUMPDEST DUP3 PUSH32 0x496E73756666696369656E7420726563697069656E742074727573742073636F PUSH1 0x84 SWAP3 PUSH1 0x22 DUP13 DUP12 DUP11 MLOAD SWAP6 PUSH3 0x461BCD PUSH1 0xE5 SHL DUP8 MSTORE DUP7 ADD MSTORE DUP5 ADD MSTORE DUP3 ADD MSTORE PUSH2 0x7265 PUSH1 0xF0 SHL PUSH1 0x64 DUP3 ADD MSTORE REVERT JUMPDEST SWAP1 SWAP4 POP DUP7 DUP2 DUP2 RETURNDATASIZE DUP4 GT PUSH2 0x93F JUMPI JUMPDEST PUSH2 0x92B DUP2 DUP4 PUSH2 0x1428 JUMP JUMPDEST DUP2 ADD SUB SLT PUSH2 0x93B JUMPI MLOAD SWAP3 CODESIZE PUSH2 0x652 JUMP JUMPDEST DUP11 DUP1 REVERT JUMPDEST POP RETURNDATASIZE PUSH2 0x921 JUMP JUMPDEST DUP6 MLOAD RETURNDATASIZE DUP14 DUP3 RETURNDATACOPY RETURNDATASIZE SWAP1 REVERT JUMPDEST DUP6 MLOAD PUSH3 0x461BCD PUSH1 0xE5 SHL DUP2 MSTORE DUP1 DUP6 ADD DUP10 SWAP1 MSTORE PUSH1 0x1F DUP2 DUP13 ADD MSTORE PUSH32 0x496E73756666696369656E74206973737565722074727573742073636F726500 DUP2 DUP5 ADD MSTORE PUSH1 0x64 SWAP1 REVERT JUMPDEST POP DUP9 DUP2 DUP2 RETURNDATASIZE DUP4 GT PUSH2 0x9BC JUMPI JUMPDEST PUSH2 0x9A7 DUP2 DUP4 PUSH2 0x1428 JUMP JUMPDEST DUP2 ADD SUB SLT PUSH2 0x9B8 JUMPI PUSH1 0x32 SWAP1 MLOAD PUSH2 0x628 JUMP JUMPDEST DUP13 DUP1 REVERT JUMPDEST POP RETURNDATASIZE PUSH2 0x99D JUMP JUMPDEST DUP8 MLOAD RETURNDATASIZE DUP16 DUP3 RETURNDATACOPY RETURNDATASIZE SWAP1 REVERT JUMPDEST DUP5 MLOAD PUSH3 0x461BCD PUSH1 0xE5 SHL DUP2 MSTORE DUP1 DUP5 ADD DUP9 SWAP1 MSTORE PUSH1 0x17 DUP2 DUP12 ADD MSTORE PUSH32 0x496E76616C69642065787069726174696F6E2064617465000000000000000000 DUP2 DUP7 ADD MSTORE PUSH1 0x64 SWAP1 REVERT JUMPDEST DUP5 MLOAD PUSH3 0x461BCD PUSH1 0xE5 SHL DUP2 MSTORE DUP1 DUP5 ADD DUP9 SWAP1 MSTORE PUSH1 0x17 DUP2 DUP12 ADD MSTORE PUSH32 0x496E76616C69642063726564656E7469616C2074797065000000000000000000 DUP2 DUP7 ADD MSTORE PUSH1 0x64 SWAP1 REVERT JUMPDEST DUP5 MLOAD PUSH3 0x461BCD PUSH1 0xE5 SHL DUP2 MSTORE DUP1 DUP5 ADD DUP9 SWAP1 MSTORE PUSH1 0x11 DUP2 DUP12 ADD MSTORE PUSH17 0x125B9D985B1A59081C9958DA5C1A595B9D PUSH1 0x7A SHL DUP2 DUP7 ADD MSTORE PUSH1 0x64 SWAP1 REVERT JUMPDEST DUP7 DUP1 REVERT JUMPDEST DUP4 DUP4 CALLVALUE PUSH2 0x1D4 JUMPI PUSH1 0x20 SWAP3 DUP4 PUSH1 0x3 NOT CALLDATASIZE ADD SLT PUSH2 0x219 JUMPI CALLDATALOAD PUSH1 0x0 DUP2 DUP2 MSTORE PUSH1 0x2 PUSH1 0x20 MSTORE PUSH1 0x40 SWAP1 KECCAK256 SLOAD SWAP1 SWAP4 SWAP1 PUSH2 0xAC4 SWAP1 PUSH1 0x1 PUSH1 0x1 PUSH1 0xA0 SHL SUB AND ISZERO ISZERO PUSH2 0x17D9 JUMP JUMPDEST PUSH2 0xACD DUP5 PUSH2 0x1615 JUMP JUMPDEST SWAP3 DUP5 DUP2 MSTORE PUSH1 0x9 DUP3 MSTORE PUSH2 0xAE0 DUP4 DUP3 KECCAK256 PUSH2 0x14CB JUMP JUMPDEST SWAP5 DUP2 MSTORE PUSH1 0xA DUP3 MSTORE DUP3 DUP2 KECCAK256 SLOAD PUSH1 0xB DUP4 MSTORE DUP4 DUP3 KECCAK256 SLOAD PUSH1 0xC DUP5 MSTORE PUSH1 0xFF DUP6 DUP5 KECCAK256 SLOAD AND SWAP2 PUSH1 0xD DUP6 MSTORE PUSH2 0xB34 PUSH1 0x1 DUP1 PUSH1 0xA0 SHL SUB SWAP9 PUSH1 0xE0 DUP9 DUP12 DUP2 DUP10 KECCAK256 SLOAD AND SWAP8 PUSH1 0xE DUP11 MSTORE KECCAK256 SLOAD SWAP8 DUP10 MLOAD SWAP12 DUP13 SWAP12 AND DUP12 MSTORE DUP11 ADD MSTORE PUSH1 0xE0 DUP10 ADD SWAP1 PUSH2 0x1381 JUMP JUMPDEST SWAP6 DUP8 ADD MSTORE PUSH1 0x60 DUP7 ADD MSTORE ISZERO ISZERO PUSH1 0x80 DUP6 ADD MSTORE PUSH1 0xA0 DUP5 ADD MSTORE PUSH1 0xC0 DUP4 ADD MSTORE SUB SWAP1 RETURN JUMPDEST POP POP CALLVALUE PUSH2 0x1D4 JUMPI DUP2 PUSH1 0x3 NOT CALLDATASIZE ADD SLT PUSH2 0x1D4 JUMPI PUSH1 0x6 SLOAD SWAP1 MLOAD PUSH1 0x1 PUSH1 0x1 PUSH1 0xA0 SHL SUB SWAP1 SWAP2 AND DUP2 MSTORE PUSH1 0x20 SWAP1 RETURN JUMPDEST POP POP CALLVALUE PUSH2 0x1D4 JUMPI DUP2 PUSH1 0x3 NOT CALLDATASIZE ADD SLT PUSH2 0x1D4 JUMPI PUSH1 0x7 SLOAD SWAP1 MLOAD PUSH1 0x1 PUSH1 0x1 PUSH1 0xA0 SHL SUB SWAP1 SWAP2 AND DUP2 MSTORE PUSH1 0x20 SWAP1 RETURN JUMPDEST POP POP CALLVALUE PUSH2 0x1D4 JUMPI PUSH1 0x20 CALLDATASIZE PUSH1 0x3 NOT ADD SLT PUSH2 0x1D4 JUMPI PUSH1 0x20 SWAP2 DUP2 SWAP1 PUSH1 0x1 PUSH1 0x1 PUSH1 0xA0 SHL SUB PUSH2 0xBCC PUSH2 0x1350 JUMP JUMPDEST AND DUP2 MSTORE PUSH1 0x10 DUP5 MSTORE KECCAK256 SLOAD SWAP1 MLOAD SWAP1 DUP2 MSTORE RETURN JUMPDEST DUP4 CALLVALUE PUSH2 0x487 JUMPI DUP1 PUSH1 0x3 NOT CALLDATASIZE ADD SLT PUSH2 0x487 JUMPI PUSH2 0xBF5 PUSH2 0x1571 JUMP JUMPDEST PUSH1 0x6 DUP1 SLOAD PUSH1 0x1 PUSH1 0x1 PUSH1 0xA0 SHL SUB NOT DUP2 AND SWAP1 SWAP2 SSTORE DUP2 SWAP1 PUSH1 0x1 PUSH1 0x1 PUSH1 0xA0 SHL SUB AND PUSH32 0x8BE0079C531659141344CD1FD0A4F28419497F9722A3DAAFE3B4186F6B6457E0 DUP3 DUP1 LOG3 DUP1 RETURN JUMPDEST DUP4 SWAP2 POP CALLVALUE PUSH2 0x1D4 JUMPI PUSH1 0x20 CALLDATASIZE PUSH1 0x3 NOT ADD SLT PUSH2 0x1D4 JUMPI PUSH1 0x1 PUSH1 0x1 PUSH1 0xA0 SHL SUB PUSH2 0xC5D PUSH2 0x1350 JUMP JUMPDEST AND SWAP1 DUP2 ISZERO PUSH2 0xC7A JUMPI PUSH1 0x20 DUP5 DUP1 DUP6 DUP6 DUP2 MSTORE PUSH1 0x3 DUP5 MSTORE KECCAK256 SLOAD SWAP1 MLOAD SWAP1 DUP2 MSTORE RETURN JUMPDEST PUSH1 0x84 SWAP1 PUSH1 0x20 DUP6 MLOAD SWAP2 PUSH3 0x461BCD PUSH1 0xE5 SHL DUP4 MSTORE DUP3 ADD MSTORE PUSH1 0x29 PUSH1 0x24 DUP3 ADD MSTORE PUSH32 0x4552433732313A2061646472657373207A65726F206973206E6F742061207661 PUSH1 0x44 DUP3 ADD MSTORE PUSH9 0x3634B21037BBB732B9 PUSH1 0xB9 SHL PUSH1 0x64 DUP3 ADD MSTORE REVERT JUMPDEST DUP3 DUP5 CALLVALUE PUSH2 0x487 JUMPI PUSH1 0x20 CALLDATASIZE PUSH1 0x3 NOT ADD SLT PUSH2 0x487 JUMPI POP PUSH2 0xCEF PUSH1 0x20 SWAP3 CALLDATALOAD PUSH2 0x1825 JUMP JUMPDEST SWAP1 MLOAD SWAP1 ISZERO ISZERO DUP2 MSTORE RETURN JUMPDEST SWAP1 POP CALLVALUE PUSH2 0x219 JUMPI PUSH1 0x20 CALLDATASIZE PUSH1 0x3 NOT ADD SLT PUSH2 0x219 JUMPI PUSH1 0x20 SWAP3 DUP3 SWAP2 CALLDATALOAD DUP2 MSTORE PUSH1 0xB DUP5 MSTORE KECCAK256 SLOAD SWAP1 MLOAD SWAP1 DUP2 MSTORE RETURN JUMPDEST DUP3 DUP5 CALLVALUE PUSH2 0x487 JUMPI PUSH1 0x20 CALLDATASIZE PUSH1 0x3 NOT ADD SLT PUSH2 0x487 JUMPI POP PUSH2 0xD40 PUSH1 0x20 SWAP3 CALLDATALOAD PUSH2 0x1615 JUMP JUMPDEST SWAP1 MLOAD PUSH1 0x1 PUSH1 0x1 PUSH1 0xA0 SHL SUB SWAP1 SWAP2 AND DUP2 MSTORE RETURN JUMPDEST SWAP1 POP CALLVALUE PUSH2 0x219 JUMPI PUSH1 0x20 CALLDATASIZE PUSH1 0x3 NOT ADD SLT PUSH2 0x219 JUMPI CALLDATALOAD DUP3 MSTORE PUSH1 0xD PUSH1 0x20 SWAP1 DUP2 MSTORE SWAP2 DUP2 SWAP1 KECCAK256 SLOAD SWAP1 MLOAD PUSH1 0x1 PUSH1 0x1 PUSH1 0xA0 SHL SUB SWAP1 SWAP2 AND DUP2 MSTORE RETURN JUMPDEST SWAP1 POP CALLVALUE PUSH2 0x219 JUMPI PUSH1 0x20 CALLDATASIZE PUSH1 0x3 NOT ADD SLT PUSH2 0x219 JUMPI DUP2 PUSH1 0x20 SWAP4 PUSH1 0xFF SWAP3 CALLDATALOAD DUP2 MSTORE PUSH1 0xC DUP6 MSTORE KECCAK256 SLOAD AND SWAP1 MLOAD SWAP1 ISZERO ISZERO DUP2 MSTORE RETURN JUMPDEST SWAP2 SWAP1 POP CALLVALUE PUSH2 0x219 JUMPI PUSH1 0x20 SWAP1 DUP2 PUSH1 0x3 NOT CALLDATASIZE ADD SLT PUSH2 0xF67 JUMPI PUSH2 0xDCF PUSH2 0x1350 JUMP JUMPDEST SWAP3 PUSH2 0xDD8 PUSH2 0x1571 JUMP JUMPDEST PUSH1 0x1 PUSH1 0x1 PUSH1 0xA0 SHL SUB SWAP4 DUP5 AND SWAP4 DUP5 ISZERO PUSH2 0xF34 JUMPI DUP5 DUP7 MSTORE PUSH1 0xF DUP5 MSTORE PUSH1 0xFF DUP4 DUP8 KECCAK256 SLOAD AND PUSH2 0xEFD JUMPI SWAP1 DUP4 PUSH1 0x24 SWAP4 SWAP3 PUSH1 0x7 SLOAD AND DUP4 MLOAD SWAP5 DUP6 DUP1 SWAP3 PUSH4 0x29AFD353 PUSH1 0xE0 SHL DUP3 MSTORE DUP10 DUP7 DUP4 ADD MSTORE GAS STATICCALL SWAP3 DUP4 ISZERO PUSH2 0xEF3 JUMPI DUP7 SWAP4 PUSH2 0xEC0 JUMPI JUMPDEST POP PUSH1 0x32 DUP4 LT PUSH2 0xE7F JUMPI POP DUP4 DUP6 MSTORE PUSH1 0xF DUP4 MSTORE DUP1 DUP6 KECCAK256 DUP1 SLOAD PUSH1 0xFF NOT AND PUSH1 0x1 OR SWAP1 SSTORE PUSH1 0x10 DUP4 MSTORE DUP1 DUP6 KECCAK256 DUP3 SWAP1 SSTORE MLOAD SWAP1 DUP2 MSTORE PUSH32 0xA0D402B55B358DFAC53C7D1B3EF26F4E07D706AD2CAB4E9540094020EE9A1D99 SWAP2 SWAP1 LOG2 DUP1 RETURN JUMPDEST DUP4 PUSH1 0x64 SWAP3 MLOAD SWAP2 PUSH3 0x461BCD PUSH1 0xE5 SHL DUP4 MSTORE DUP3 ADD MSTORE PUSH1 0x18 PUSH1 0x24 DUP3 ADD MSTORE PUSH32 0x496E73756666696369656E742074727573742073636F72650000000000000000 PUSH1 0x44 DUP3 ADD MSTORE REVERT JUMPDEST SWAP1 SWAP3 POP DUP4 DUP2 DUP2 RETURNDATASIZE DUP4 GT PUSH2 0xEEC JUMPI JUMPDEST PUSH2 0xED8 DUP2 DUP4 PUSH2 0x1428 JUMP JUMPDEST DUP2 ADD SUB SLT PUSH2 0xEE8 JUMPI MLOAD SWAP2 CODESIZE PUSH2 0xE2B JUMP JUMPDEST DUP6 DUP1 REVERT JUMPDEST POP RETURNDATASIZE PUSH2 0xECE JUMP JUMPDEST DUP3 MLOAD RETURNDATASIZE DUP9 DUP3 RETURNDATACOPY RETURNDATASIZE SWAP1 REVERT JUMPDEST POP DUP3 PUSH1 0x64 SWAP3 MLOAD SWAP2 PUSH3 0x461BCD PUSH1 0xE5 SHL DUP4 MSTORE DUP3 ADD MSTORE PUSH1 0x12 PUSH1 0x24 DUP3 ADD MSTORE PUSH18 0x105B1C9958591E48185D5D1A1BDC9A5E9959 PUSH1 0x72 SHL PUSH1 0x44 DUP3 ADD MSTORE REVERT JUMPDEST POP DUP3 PUSH1 0x64 SWAP3 MLOAD SWAP2 PUSH3 0x461BCD PUSH1 0xE5 SHL DUP4 MSTORE DUP3 ADD MSTORE PUSH1 0xE PUSH1 0x24 DUP3 ADD MSTORE PUSH14 0x24B73B30B634B21034B9B9BAB2B9 PUSH1 0x91 SHL PUSH1 0x44 DUP3 ADD MSTORE REVERT JUMPDEST DUP4 DUP1 REVERT JUMPDEST POP POP CALLVALUE PUSH2 0x1D4 JUMPI PUSH2 0x42F SWAP1 PUSH2 0x434 SWAP3 PUSH2 0xF83 CALLDATASIZE PUSH2 0x13C1 JUMP JUMPDEST SWAP4 SWAP2 POP POP MLOAD PUSH2 0xF91 DUP2 PUSH2 0x13F6 JUMP JUMPDEST MSTORE CALLER PUSH2 0x16DB JUMP JUMPDEST POP POP CALLVALUE PUSH2 0x1D4 JUMPI PUSH1 0x20 CALLDATASIZE PUSH1 0x3 NOT ADD SLT PUSH2 0x1D4 JUMPI PUSH1 0x20 SWAP2 PUSH1 0xFF SWAP1 DUP3 SWAP1 PUSH1 0x1 PUSH1 0x1 PUSH1 0xA0 SHL SUB PUSH2 0x1C1 PUSH2 0x1350 JUMP JUMPDEST DUP4 CALLVALUE PUSH2 0x487 JUMPI PUSH2 0x434 PUSH2 0x42F PUSH2 0xFD8 CALLDATASIZE PUSH2 0x13C1 JUMP JUMPDEST SWAP2 POP POP CALLER PUSH2 0x16DB JUMP JUMPDEST SWAP2 SWAP1 POP CALLVALUE PUSH2 0x219 JUMPI PUSH1 0x20 DUP1 PUSH1 0x3 NOT CALLDATASIZE ADD SLT PUSH2 0xF67 JUMPI DUP3 CALLDATALOAD SWAP3 CALLER DUP6 MSTORE PUSH1 0xF DUP3 MSTORE PUSH2 0x100F PUSH1 0xFF DUP5 DUP8 KECCAK256 SLOAD AND PUSH2 0x1749 JUMP JUMPDEST PUSH1 0x0 DUP5 DUP2 MSTORE PUSH1 0x2 PUSH1 0x20 MSTORE PUSH1 0x40 SWAP1 KECCAK256 SLOAD PUSH2 0x1032 SWAP1 PUSH1 0x1 PUSH1 0x1 PUSH1 0xA0 SHL SUB AND ISZERO ISZERO PUSH2 0x17D9 JUMP JUMPDEST DUP4 DUP6 MSTORE PUSH1 0xC DUP3 MSTORE PUSH1 0xFF DUP4 DUP7 KECCAK256 SLOAD AND PUSH2 0x10D0 JUMPI DUP4 DUP6 MSTORE PUSH1 0xD DUP3 MSTORE DUP3 DUP6 KECCAK256 SLOAD CALLER PUSH1 0x1 PUSH1 0x1 PUSH1 0xA0 SHL SUB SWAP1 SWAP2 AND SUB PUSH2 0x109E JUMPI POP DUP3 DUP5 MSTORE PUSH1 0xC SWAP1 MSTORE DUP3 KECCAK256 DUP1 SLOAD PUSH1 0xFF NOT AND PUSH1 0x1 OR SWAP1 SSTORE CALLER SWAP1 PUSH32 0x936526F4A3155895D9F01699716F2E0C548D726A24A1437E5CE92B3DACAAD35B DUP4 DUP1 LOG3 DUP1 RETURN JUMPDEST SWAP2 MLOAD PUSH3 0x461BCD PUSH1 0xE5 SHL DUP2 MSTORE SWAP2 DUP3 ADD MSTORE PUSH1 0xE PUSH1 0x24 DUP3 ADD MSTORE PUSH14 0x2737BA103A34329034B9B9BAB2B9 PUSH1 0x91 SHL PUSH1 0x44 DUP3 ADD MSTORE PUSH1 0x64 SWAP1 REVERT JUMPDEST SWAP2 MLOAD PUSH3 0x461BCD PUSH1 0xE5 SHL DUP2 MSTORE SWAP2 DUP3 ADD MSTORE PUSH1 0x1A PUSH1 0x24 DUP3 ADD MSTORE PUSH32 0x43726564656E7469616C20616C7265616479207265766F6B6564000000000000 PUSH1 0x44 DUP3 ADD MSTORE PUSH1 0x64 SWAP1 REVERT JUMPDEST POP POP CALLVALUE PUSH2 0x1D4 JUMPI DUP2 PUSH1 0x3 NOT CALLDATASIZE ADD SLT PUSH2 0x1D4 JUMPI PUSH1 0x20 SWAP1 PUSH1 0x8 SLOAD SWAP1 MLOAD SWAP1 DUP2 MSTORE RETURN JUMPDEST POP POP CALLVALUE PUSH2 0x1D4 JUMPI CALLDATASIZE PUSH1 0x3 NOT ADD SLT PUSH2 0x487 JUMPI PUSH2 0x1149 PUSH2 0x1350 JUMP JUMPDEST POP PUSH2 0x1878 JUMP JUMPDEST DUP3 DUP5 CALLVALUE PUSH2 0x487 JUMPI PUSH1 0x20 CALLDATASIZE PUSH1 0x3 NOT ADD SLT PUSH2 0x487 JUMPI POP PUSH2 0xD40 PUSH1 0x20 SWAP3 CALLDATALOAD PUSH2 0x163B JUMP JUMPDEST POP POP CALLVALUE PUSH2 0x1D4 JUMPI DUP2 PUSH1 0x3 NOT CALLDATASIZE ADD SLT PUSH2 0x1D4 JUMPI DUP1 MLOAD SWAP1 DUP3 DUP1 SLOAD PUSH2 0x1190 DUP2 PUSH2 0x1491 JUMP JUMPDEST DUP1 DUP6 MSTORE SWAP2 PUSH1 0x1 SWAP2 DUP1 DUP4 AND SWAP1 DUP2 ISZERO PUSH2 0x545 JUMPI POP PUSH1 0x1 EQ PUSH2 0x11BB JUMPI POP POP POP PUSH2 0x4D7 DUP3 PUSH2 0x215 SWAP5 SUB DUP4 PUSH2 0x1428 JUMP JUMPDEST DUP1 DUP1 SWAP7 POP MSTORE PUSH32 0x290DECD9548B62A8D60345A988386FC84BA6BC95484008F6362F93160EF3E563 JUMPDEST DUP3 DUP7 LT PUSH2 0x11FF JUMPI POP POP POP PUSH2 0x4D7 DUP3 PUSH1 0x20 PUSH2 0x215 SWAP6 DUP3 ADD ADD SWAP5 PUSH2 0x4C5 JUMP JUMPDEST DUP1 SLOAD PUSH1 0x20 DUP8 DUP8 ADD DUP2 ADD SWAP2 SWAP1 SWAP2 MSTORE SWAP1 SWAP6 ADD SWAP5 DUP2 ADD PUSH2 0x11E2 JUMP JUMPDEST SWAP1 POP CALLVALUE PUSH2 0x219 JUMPI PUSH1 0x20 CALLDATASIZE PUSH1 0x3 NOT ADD SLT PUSH2 0x219 JUMPI CALLDATALOAD SWAP1 PUSH4 0xFFFFFFFF PUSH1 0xE0 SHL DUP3 AND DUP1 SWAP3 SUB PUSH2 0x219 JUMPI PUSH1 0x20 SWAP3 POP PUSH4 0x80AC58CD PUSH1 0xE0 SHL DUP3 EQ SWAP2 DUP3 ISZERO PUSH2 0x1274 JUMPI JUMPDEST DUP3 ISZERO PUSH2 0x1263 JUMPI JUMPDEST POP MLOAD SWAP1 ISZERO ISZERO DUP2 MSTORE RETURN JUMPDEST PUSH4 0x1FFC9A7 PUSH1 0xE0 SHL EQ SWAP2 POP CODESIZE PUSH2 0x125A JUMP JUMPDEST PUSH4 0x5B5E139F PUSH1 0xE0 SHL DUP2 EQ SWAP3 POP PUSH2 0x1253 JUMP JUMPDEST SWAP2 SWAP1 POP CALLVALUE PUSH2 0x219 JUMPI PUSH1 0x20 CALLDATASIZE PUSH1 0x3 NOT ADD SLT PUSH2 0x219 JUMPI PUSH2 0x12A1 PUSH2 0x1350 JUMP JUMPDEST PUSH2 0x12A9 PUSH2 0x1571 JUMP JUMPDEST PUSH1 0x1 PUSH1 0x1 PUSH1 0xA0 SHL SUB AND DUP1 DUP5 MSTORE PUSH1 0xF PUSH1 0x20 MSTORE DUP2 DUP5 KECCAK256 SLOAD SWAP1 SWAP3 SWAP1 PUSH1 0xFF AND ISZERO PUSH2 0x130E JUMPI POP DUP3 SWAP1 DUP3 DUP3 MSTORE PUSH1 0xF PUSH1 0x20 MSTORE DUP1 DUP3 KECCAK256 PUSH1 0xFF NOT DUP2 SLOAD AND SWAP1 SSTORE PUSH1 0x10 PUSH1 0x20 MSTORE DUP2 KECCAK256 SSTORE PUSH32 0x95A4C2AE425BB769549AA1A911911FF57C17AE811AE8C8962D0B9746FCB15397 DUP3 DUP1 LOG2 DUP1 RETURN JUMPDEST PUSH1 0x20 PUSH1 0x64 SWAP3 MLOAD SWAP2 PUSH3 0x461BCD PUSH1 0xE5 SHL DUP4 MSTORE DUP3 ADD MSTORE PUSH1 0x18 PUSH1 0x24 DUP3 ADD MSTORE PUSH32 0x4E6F7420616E20617574686F72697A6564206973737565720000000000000000 PUSH1 0x44 DUP3 ADD MSTORE REVERT JUMPDEST PUSH1 0x4 CALLDATALOAD SWAP1 PUSH1 0x1 PUSH1 0x1 PUSH1 0xA0 SHL SUB DUP3 AND DUP3 SUB PUSH2 0x1366 JUMPI JUMP JUMPDEST PUSH1 0x0 DUP1 REVERT JUMPDEST PUSH1 0x24 CALLDATALOAD SWAP1 PUSH1 0x1 PUSH1 0x1 PUSH1 0xA0 SHL SUB DUP3 AND DUP3 SUB PUSH2 0x1366 JUMPI JUMP JUMPDEST SWAP2 SWAP1 DUP3 MLOAD SWAP3 DUP4 DUP3 MSTORE PUSH1 0x0 JUMPDEST DUP5 DUP2 LT PUSH2 0x13AD JUMPI POP POP DUP3 PUSH1 0x0 PUSH1 0x20 DUP1 SWAP5 SWAP6 DUP5 ADD ADD MSTORE PUSH1 0x1F DUP1 NOT SWAP2 ADD AND ADD ADD SWAP1 JUMP JUMPDEST PUSH1 0x20 DUP2 DUP4 ADD DUP2 ADD MLOAD DUP5 DUP4 ADD DUP3 ADD MSTORE ADD PUSH2 0x138C JUMP JUMPDEST PUSH1 0x60 SWAP1 PUSH1 0x3 NOT ADD SLT PUSH2 0x1366 JUMPI PUSH1 0x1 PUSH1 0x1 PUSH1 0xA0 SHL SUB SWAP1 PUSH1 0x4 CALLDATALOAD DUP3 DUP2 AND DUP2 SUB PUSH2 0x1366 JUMPI SWAP2 PUSH1 0x24 CALLDATALOAD SWAP1 DUP2 AND DUP2 SUB PUSH2 0x1366 JUMPI SWAP1 PUSH1 0x44 CALLDATALOAD SWAP1 JUMP JUMPDEST PUSH1 0x20 DUP2 ADD SWAP1 DUP2 LT PUSH8 0xFFFFFFFFFFFFFFFF DUP3 GT OR PUSH2 0x1412 JUMPI PUSH1 0x40 MSTORE JUMP JUMPDEST PUSH4 0x4E487B71 PUSH1 0xE0 SHL PUSH1 0x0 MSTORE PUSH1 0x41 PUSH1 0x4 MSTORE PUSH1 0x24 PUSH1 0x0 REVERT JUMPDEST SWAP1 PUSH1 0x1F DUP1 NOT SWAP2 ADD AND DUP2 ADD SWAP1 DUP2 LT PUSH8 0xFFFFFFFFFFFFFFFF DUP3 GT OR PUSH2 0x1412 JUMPI PUSH1 0x40 MSTORE JUMP JUMPDEST SWAP3 SWAP2 SWAP3 PUSH8 0xFFFFFFFFFFFFFFFF DUP3 GT PUSH2 0x1412 JUMPI PUSH1 0x40 MLOAD SWAP2 PUSH2 0x1474 PUSH1 0x1F DUP3 ADD PUSH1 0x1F NOT AND PUSH1 0x20 ADD DUP5 PUSH2 0x1428 JUMP JUMPDEST DUP3 SWAP5 DUP2 DUP5 MSTORE DUP2 DUP4 ADD GT PUSH2 0x1366 JUMPI DUP3 DUP2 PUSH1 0x20 SWAP4 DUP5 PUSH1 0x0 SWAP7 ADD CALLDATACOPY ADD ADD MSTORE JUMP JUMPDEST SWAP1 PUSH1 0x1 DUP3 DUP2 SHR SWAP3 AND DUP1 ISZERO PUSH2 0x14C1 JUMPI JUMPDEST PUSH1 0x20 DUP4 LT EQ PUSH2 0x14AB JUMPI JUMP JUMPDEST PUSH4 0x4E487B71 PUSH1 0xE0 SHL PUSH1 0x0 MSTORE PUSH1 0x22 PUSH1 0x4 MSTORE PUSH1 0x24 PUSH1 0x0 REVERT JUMPDEST SWAP2 PUSH1 0x7F AND SWAP2 PUSH2 0x14A0 JUMP JUMPDEST SWAP1 PUSH1 0x40 MLOAD SWAP2 DUP3 PUSH1 0x0 DUP3 SLOAD SWAP3 PUSH2 0x14DF DUP5 PUSH2 0x1491 JUMP JUMPDEST SWAP1 DUP2 DUP5 MSTORE PUSH1 0x1 SWAP5 DUP6 DUP2 AND SWAP1 DUP2 PUSH1 0x0 EQ PUSH2 0x154E JUMPI POP PUSH1 0x1 EQ PUSH2 0x150B JUMPI JUMPDEST POP POP PUSH2 0x1509 SWAP3 POP SUB DUP4 PUSH2 0x1428 JUMP JUMPDEST JUMP JUMPDEST SWAP1 SWAP4 SWAP2 POP PUSH1 0x0 MSTORE PUSH1 0x20 SWAP1 DUP2 PUSH1 0x0 KECCAK256 SWAP4 PUSH1 0x0 SWAP2 JUMPDEST DUP2 DUP4 LT PUSH2 0x1536 JUMPI POP POP PUSH2 0x1509 SWAP4 POP DUP3 ADD ADD CODESIZE DUP1 PUSH2 0x14FB JUMP JUMPDEST DUP6 SLOAD DUP9 DUP5 ADD DUP6 ADD MSTORE SWAP5 DUP6 ADD SWAP5 DUP8 SWAP5 POP SWAP2 DUP4 ADD SWAP2 PUSH2 0x151E JUMP JUMPDEST SWAP2 POP POP PUSH2 0x1509 SWAP5 POP PUSH1 0x20 SWAP3 POP PUSH1 0xFF NOT AND DUP3 DUP5 ADD MSTORE ISZERO ISZERO PUSH1 0x5 SHL DUP3 ADD ADD CODESIZE DUP1 PUSH2 0x14FB JUMP JUMPDEST PUSH1 0x6 SLOAD PUSH1 0x1 PUSH1 0x1 PUSH1 0xA0 SHL SUB AND CALLER SUB PUSH2 0x1585 JUMPI JUMP JUMPDEST PUSH1 0x64 PUSH1 0x40 MLOAD PUSH3 0x461BCD PUSH1 0xE5 SHL DUP2 MSTORE PUSH1 0x20 PUSH1 0x4 DUP3 ADD MSTORE PUSH1 0x20 PUSH1 0x24 DUP3 ADD MSTORE PUSH32 0x4F776E61626C653A2063616C6C6572206973206E6F7420746865206F776E6572 PUSH1 0x44 DUP3 ADD MSTORE REVERT JUMPDEST ISZERO PUSH2 0x15D0 JUMPI JUMP JUMPDEST PUSH1 0x40 MLOAD PUSH3 0x461BCD PUSH1 0xE5 SHL DUP2 MSTORE PUSH1 0x20 PUSH1 0x4 DUP3 ADD MSTORE PUSH1 0x18 PUSH1 0x24 DUP3 ADD MSTORE PUSH32 0x4552433732313A20696E76616C696420746F6B656E2049440000000000000000 PUSH1 0x44 DUP3 ADD MSTORE PUSH1 0x64 SWAP1 REVERT JUMPDEST PUSH1 0x0 SWAP1 DUP2 MSTORE PUSH1 0x2 PUSH1 0x20 MSTORE PUSH1 0x40 SWAP1 KECCAK256 SLOAD PUSH1 0x1 PUSH1 0x1 PUSH1 0xA0 SHL SUB AND PUSH2 0x1638 DUP2 ISZERO ISZERO PUSH2 0x15C9 JUMP JUMPDEST SWAP1 JUMP JUMPDEST PUSH1 0x0 DUP2 DUP2 MSTORE PUSH1 0x2 PUSH1 0x20 MSTORE PUSH1 0x40 SWAP1 KECCAK256 SLOAD PUSH2 0x165E SWAP1 PUSH1 0x1 PUSH1 0x1 PUSH1 0xA0 SHL SUB AND ISZERO ISZERO PUSH2 0x15C9 JUMP JUMPDEST PUSH1 0x0 SWAP1 DUP2 MSTORE PUSH1 0x4 PUSH1 0x20 MSTORE PUSH1 0x40 SWAP1 KECCAK256 SLOAD PUSH1 0x1 PUSH1 0x1 PUSH1 0xA0 SHL SUB AND SWAP1 JUMP JUMPDEST ISZERO PUSH2 0x1680 JUMPI JUMP JUMPDEST PUSH1 0x40 MLOAD PUSH3 0x461BCD PUSH1 0xE5 SHL DUP2 MSTORE PUSH1 0x20 PUSH1 0x4 DUP3 ADD MSTORE PUSH1 0x2D PUSH1 0x24 DUP3 ADD MSTORE PUSH32 0x4552433732313A2063616C6C6572206973206E6F7420746F6B656E206F776E65 PUSH1 0x44 DUP3 ADD MSTORE PUSH13 0x1C881BDC88185C1C1C9BDD9959 PUSH1 0x9A SHL PUSH1 0x64 DUP3 ADD MSTORE PUSH1 0x84 SWAP1 REVERT JUMPDEST SWAP1 PUSH1 0x1 PUSH1 0x1 PUSH1 0xA0 SHL SUB DUP1 DUP1 PUSH2 0x16EF DUP5 PUSH2 0x1615 JUMP JUMPDEST AND SWAP4 AND SWAP2 DUP4 DUP4 EQ SWAP4 DUP5 ISZERO PUSH2 0x1722 JUMPI JUMPDEST POP DUP4 ISZERO PUSH2 0x170C JUMPI JUMPDEST POP POP POP SWAP1 JUMP JUMPDEST PUSH2 0x1718 SWAP2 SWAP3 SWAP4 POP PUSH2 0x163B JUMP JUMPDEST AND EQ CODESIZE DUP1 DUP1 PUSH2 0x1706 JUMP JUMPDEST SWAP1 SWAP4 POP PUSH1 0x0 MSTORE PUSH1 0x5 PUSH1 0x20 MSTORE PUSH1 0x40 PUSH1 0x0 KECCAK256 DUP3 PUSH1 0x0 MSTORE PUSH1 0x20 MSTORE PUSH1 0xFF PUSH1 0x40 PUSH1 0x0 KECCAK256 SLOAD AND SWAP3 CODESIZE PUSH2 0x16FE JUMP JUMPDEST ISZERO PUSH2 0x1750 JUMPI JUMP JUMPDEST PUSH1 0x40 MLOAD PUSH3 0x461BCD PUSH1 0xE5 SHL DUP2 MSTORE PUSH1 0x20 PUSH1 0x4 DUP3 ADD MSTORE PUSH1 0x15 PUSH1 0x24 DUP3 ADD MSTORE PUSH21 0x2737BA1030BABA3437B934BD32B21034B9B9BAB2B9 PUSH1 0x59 SHL PUSH1 0x44 DUP3 ADD MSTORE PUSH1 0x64 SWAP1 REVERT JUMPDEST ISZERO PUSH2 0x1794 JUMPI JUMP JUMPDEST PUSH1 0x40 MLOAD PUSH3 0x461BCD PUSH1 0xE5 SHL DUP2 MSTORE PUSH1 0x20 PUSH1 0x4 DUP3 ADD MSTORE PUSH1 0x1C PUSH1 0x24 DUP3 ADD MSTORE PUSH32 0x4552433732313A20746F6B656E20616C7265616479206D696E74656400000000 PUSH1 0x44 DUP3 ADD MSTORE PUSH1 0x64 SWAP1 REVERT JUMPDEST ISZERO PUSH2 0x17E0 JUMPI JUMP JUMPDEST PUSH1 0x40 MLOAD PUSH3 0x461BCD PUSH1 0xE5 SHL DUP2 MSTORE PUSH1 0x20 PUSH1 0x4 DUP3 ADD MSTORE PUSH1 0x19 PUSH1 0x24 DUP3 ADD MSTORE PUSH32 0x43726564656E7469616C20646F6573206E6F7420657869737400000000000000 PUSH1 0x44 DUP3 ADD MSTORE PUSH1 0x64 SWAP1 REVERT JUMPDEST PUSH1 0x0 DUP2 DUP2 MSTORE PUSH1 0x2 PUSH1 0x20 MSTORE PUSH1 0x40 SWAP1 KECCAK256 SLOAD PUSH1 0x1 PUSH1 0x1 PUSH1 0xA0 SHL SUB AND ISZERO PUSH2 0x1872 JUMPI PUSH1 0x0 MSTORE PUSH1 0xC PUSH1 0x20 MSTORE PUSH1 0xFF PUSH1 0x40 PUSH1 0x0 KECCAK256 SLOAD AND PUSH2 0x186D JUMPI PUSH1 0xB PUSH1 0x20 MSTORE PUSH1 0x40 PUSH1 0x0 KECCAK256 SLOAD TIMESTAMP GT PUSH2 0x186D JUMPI PUSH1 0x1 SWAP1 JUMP JUMPDEST PUSH1 0x0 SWAP1 JUMP JUMPDEST POP PUSH1 0x0 SWAP1 JUMP JUMPDEST PUSH1 0x64 PUSH1 0x40 MLOAD PUSH3 0x461BCD PUSH1 0xE5 SHL DUP2 MSTORE PUSH1 0x20 PUSH1 0x4 DUP3 ADD MSTORE PUSH1 0x20 PUSH1 0x24 DUP3 ADD MSTORE PUSH32 0x43726564656E7469616C7320617265206E6F6E2D7472616E7366657261626C65 PUSH1 0x44 DUP3 ADD MSTORE REVERT INVALID LOG2 PUSH5 0x6970667358 0x22 SLT KECCAK256 0xF6 0xF9 SWAP5 SGT DUP10 0xA9 PUSH12 0xE6BB1ED30C15CAB091EE861D CODESIZE DUP1 0xCF MULMOD DUP7 ISZERO 0x2C BASEFEE CALLCODE 0xDE ORIGIN JUMPDEST DUP12 PUSH5 0x736F6C6343 STOP ADDMOD SGT STOP CALLER "},"methodIdentifiers":{"approve(address,uint256)":"095ea7b3","authorizeIssuer(address)":"436693d5","authorizedIssuers(address)":"f731fa0f","balanceOf(address)":"70a08231","credentialTypes(uint256)":"f4b88554","expirationDates(uint256)":"68bb9e7d","getApproved(uint256)":"081812fc","getCredential(uint256)":"8dd18d2d","getIssuerTrustScore(address)":"73b23bf3","isApprovedForAll(address,address)":"e985e9c5","isAuthorizedIssuer(address)":"31ba1966","isCredentialValid(uint256)":"6da48b9a","isRevoked(uint256)":"5ccc561e","issuanceDates(uint256)":"c11cc2a4","issueCredential(address,string,uint256)":"8e9841d0","issuerTrustScores(address)":"74b54e5f","issuers(uint256)":"61ec30c4","name()":"06fdde03","owner()":"8da5cb5b","ownerOf(uint256)":"6352211e","renounceOwnership()":"715018a6","revokeCredential(uint256)":"1b87278d","revokeIssuer(address)":"00629679","safeTransferFrom(address,address,uint256)":"42842e0e","safeTransferFrom(address,address,uint256,bytes)":"b88d4fde","setApprovalForAll(address,bool)":"a22cb465","supportsInterface(bytes4)":"01ffc9a7","symbol()":"95d89b41","tokenURI(uint256)":"c87b56dd","totalCredentials()":"1513d62b","transferFrom(address,address,uint256)":"23b872dd","transferOwnership(address)":"f2fde38b","trustEngine()":"77aa980d","trustScores(uint256)":"ac007941"}}}}}