{"contracts/DeFiProtocol.sol":{"DeFiProtocol":{"abi":[{"inputs":[{"internalType":"address","name":"_trustEngine","type":"address"}],"stateMutability":"nonpayable","type":"constructor"},{"anonymous":false,"inputs":[{"indexed":true,"internalType":"address","name":"previousOwner","type":"address"},{"indexed":true,"internalType":"address","name":"newOwner","type":"address"}],"name":"OwnershipTransferred","type":"event"},{"anonymous":false,"inputs":[{"indexed":true,"internalType":"address","name":"pool","type":"address"},{"indexed":false,"internalType":"uint256","name":"trustMultiplier","type":"uint256"}],"name":"PoolCreated","type":"event"},{"anonymous":false,"inputs":[{"indexed":true,"internalType":"address","name":"user","type":"address"},{"indexed":true,"internalType":"address","name":"pool","type":"address"},{"indexed":false,"internalType":"uint256","name":"amount","type":"uint256"}],"name":"RewardsClaimed","type":"event"},{"anonymous":false,"inputs":[{"indexed":true,"internalType":"address","name":"user","type":"address"},{"indexed":true,"internalType":"address","name":"pool","type":"address"},{"indexed":false,"internalType":"uint256","name":"amount","type":"uint256"},{"indexed":false,"internalType":"uint256","name":"trustScore","type":"uint256"}],"name":"Staked","type":"event"},{"anonymous":false,"inputs":[{"indexed":true,"internalType":"address","name":"user","type":"address"},{"indexed":true,"internalType":"address","name":"pool","type":"address"},{"indexed":false,"internalType":"uint256","name":"amount","type":"uint256"},{"indexed":false,"internalType":"uint256","name":"rewards","type":"uint256"}],"name":"Unstaked","type":"event"},{"inputs":[],"name":"BASIS_POINTS","outputs":[{"internalType":"uint256","name":"","type":"uint256"}],"stateMutability":"view","type":"function"},{"inputs":[{"internalType":"address","name":"","type":"address"}],"name":"activePools","outputs":[{"internalType":"bool","name":"","type":"bool"}],"stateMutability":"view","type":"function"},{"inputs":[{"internalType":"address","name":"pool","type":"address"}],"name":"claimRewards","outputs":[],"stateMutability":"nonpayable","type":"function"},{"inputs":[{"internalType":"address","name":"token","type":"address"},{"internalType":"uint256","name":"rewardsPerBlock","type":"uint256"},{"internalType":"uint256","name":"trustMultiplier","type":"uint256"}],"name":"createPool","outputs":[],"stateMutability":"nonpayable","type":"function"},{"inputs":[{"internalType":"address","name":"token","type":"address"}],"name":"emergencyWithdraw","outputs":[],"stateMutability":"nonpayable","type":"function"},{"inputs":[{"internalType":"address","name":"user","type":"address"},{"internalType":"address","name":"pool","type":"address"}],"name":"getPendingRewards","outputs":[{"internalType":"uint256","name":"","type":"uint256"}],"stateMutability":"view","type":"function"},{"inputs":[{"internalType":"address","name":"user","type":"address"}],"name":"getUserTotalStaked","outputs":[{"internalType":"uint256","name":"total","type":"uint256"}],"stateMutability":"view","type":"function"},{"inputs":[],"name":"owner","outputs":[{"internalType":"address","name":"","type":"address"}],"stateMutability":"view","type":"function"},{"inputs":[{"internalType":"address","name":"","type":"address"}],"name":"poolAccRewardsPerShare","outputs":[{"internalType":"uint256","name":"","type":"uint256"}],"stateMutability":"view","type":"function"},{"inputs":[{"internalType":"address","name":"","type":"address"}],"name":"poolLastUpdateBlock","outputs":[{"internalType":"uint256","name":"","type":"uint256"}],"stateMutability":"view","type":"function"},{"inputs":[{"internalType":"address","name":"","type":"address"}],"name":"poolRewardsPerBlock","outputs":[{"internalType":"uint256","name":"","type":"uint256"}],"stateMutability":"view","type":"function"},{"inputs":[{"internalType":"address","name":"","type":"address"}],"name":"poolTotalStaked","outputs":[{"internalType":"uint256","name":"","type":"uint256"}],"stateMutability":"view","type":"function"},{"inputs":[{"internalType":"address","name":"","type":"address"}],"name":"poolTrustMultiplier","outputs":[{"internalType":"uint256","name":"","type":"uint256"}],"stateMutability":"view","type":"function"},{"inputs":[],"name":"protocolFee","outputs":[{"internalType":"uint256","name":"","type":"uint256"}],"stateMutability":"view","type":"function"},{"inputs":[],"name":"renounceOwnership","outputs":[],"stateMutability":"nonpayable","type":"function"},{"inputs":[{"internalType":"address","name":"pool","type":"address"},{"internalType":"uint256","name":"amount","type":"uint256"}],"name":"stake","outputs":[],"stateMutability":"nonpayable","type":"function"},{"inputs":[],"name":"totalValueLocked","outputs":[{"internalType":"uint256","name":"","type":"uint256"}],"stateMutability":"view","type":"function"},{"inputs":[{"internalType":"address","name":"newOwner","type":"address"}],"name":"transferOwnership","outputs":[],"stateMutability":"nonpayable","type":"function"},{"inputs":[],"name":"trustEngine","outputs":[{"internalType":"contract TrustEngine","name":"","type":"address"}],"stateMutability":"view","type":"function"},{"inputs":[{"internalType":"address","name":"pool","type":"address"},{"internalType":"uint256","name":"amount","type":"uint256"}],"name":"unstake","outputs":[],"stateMutability":"nonpayable","type":"function"},{"inputs":[{"internalType":"address","name":"","type":"address"},{"internalType":"address","name":"","type":"address"}],"name":"userRewardDebt","outputs":[{"internalType":"uint256","name":"","type":"uint256"}],"stateMutability":"view","type":"function"},{"inputs":[{"internalType":"address","name":"","type":"address"},{"internalType":"address","name":"","type":"address"}],"name":"userStakedAmount","outputs":[{"internalType":"uint256","name":"","type":"uint256"}],"stateMutability":"view","type":"function"},{"inputs":[{"internalType":"address","name":"","type":"address"},{"internalType":"address","name":"","type":"address"}],"name":"userTrustScore","outputs":[{"internalType":"uint256","name":"","type":"uint256"}],"stateMutability":"view","type":"function"}],"evm":{"bytecode":{"linkReferences":{},"object":"6080346100b157601f61155c38819003918201601f19168301916001600160401b038311848410176100b6578084926020946040528339810103126100b157516001600160a01b0390818116908190036100b157600160005560015460018060a01b0319903382821617600155604051933391167f8be0079c531659141344cd1fd0a4f28419497f9722a3daafe3b4186f6b6457e0600080a36019600455600254161760025561148f90816100cd8239f35b600080fd5b634e487b7160e01b600052604160045260246000fdfe6080604081815260048036101561001557600080fd5b600092833560e01c9081630a6dcb0214610de9575080631ada6c0814610db15780631d030ac914610d6857806329a8f81914610d2a578063328b071b14610cf257806349d638f714610cba5780636e2f169614610c94578381636ff1c9bc14610b7f57508063715018a614610b1f57806377aa980d14610af65780637a27db5714610ac15780638302fe1114610a78578063846c565814610a2f5780638da5cb5b14610a06578063adc9772e1461076b578063b039ddf614610656578063b0e21e8a14610639578063c2a672e0146103b0578063db85a48114610378578063e1f1c4a71461035b578063ec18154e14610338578063ef5cfb8c146101f05763f2fde38b1461012257600080fd5b346101ec5760203660031901126101ec5761013b610e1d565b90610144610e4e565b6001600160a01b0391821692831561019a575050600154826bffffffffffffffffffffffff60a01b821617600155167f8be0079c531659141344cd1fd0a4f28419497f9722a3daafe3b4186f6b6457e08380a380f35b906020608492519162461bcd60e51b8352820152602660248201527f4f776e61626c653a206e6577206f776e657220697320746865207a65726f206160448201526564647265737360d01b6064820152fd5b8280fd5b5090346101ec576020806003193601126103345761020c610e1d565b610214610f42565b338552600b82528285206001600160a01b03821680875290835283862054909490156102fe5750906102667f9310ccfcb8de723f578a9e4282ea9f521f05ae40dc08f3068dfad528a65ee3c7926111c2565b338552600b81528285208486528152600a6102ee8487205460098452670de0b6b3a76400006102cb6102b98261029f8a8d205486610fc8565b04338c52600c8852898c208b8d528852898c205490610fbb565b92898b5260098752888b205490610fc8565b04338952600c8552868920888a528552868920556102e83361133b565b90610fc8565b0492519283523392a36001815580f35b835162461bcd60e51b8152908101839052601060248201526f139bc81cdd185ad9481a5b881c1bdbdb60821b6044820152606490fd5b8380fd5b5050346103575781600319360112610357576020906003549051908152f35b5080fd5b505034610357578160031936011261035757602090516127108152f35b5050346103575760203660031901126103575760209181906001600160a01b036103a0610e1d565b1681526008845220549051908152f35b509190346103575780600319360112610357576103cb610e1d565b90602435906103d8610f42565b6103e3821515610ea6565b338452602094600b86528185209360018060a01b0381169485875287528383872054106105f7576104f69596338852600b8152838820868952815284848920549360098352610435868b2054946111c2565b89938a87821515806105ee575b610576575b9161048e91670de0b6b3a76400009361046287899a9b610fbb565b91338152600b89528d82822090825289522055338d52600b86528c8b8a822091528652888d2054610fc8565b04338b52600c8452868b20898c528452868b2055600683526104b382878c2054610fbb565b888b5260068452868b20556104ca82600354610fbb565b600355855163a9059cbb60e01b8152339181019182526020820192909252909788918291604090910190565b03818a895af195861561056c577f06cc7e90b4f2b554a9614b0caa84f909f3498c820ae47c731f490c28c07f7d3b94959661053f575b5082519485528401523392a36001815580f35b61055e90823d8411610565575b6105568183610ef2565b810190610f2a565b503861052c565b503d61054c565b83513d89823e3d90fd5b670de0b6b3a7640000610589848a610fc8565b04338352600c87528183208c845287528b8284205482116105ac575b5050610447565b87985091610462876105e061048e9694670de0b6b3a76400009896338752600c8d528587209087528c528486205490610fbb565b9a505050919350918b6105a5565b50871515610442565b5085606492519162461bcd60e51b8352820152601a60248201527f496e73756666696369656e74207374616b656420616d6f756e740000000000006044820152fd5b50346101ec57826003193601126101ec5760209250549051908152f35b5090346101ec5760603660031901126101ec57610671610e1d565b9060243560443592610681610e4e565b6001600160a01b03169384156107385781156106f55750916020917f641e49906554552c8c33d7e09e02d1270590f405bc1da0c7b99a9c2808abdd059385875260058452818720600160ff198254161790556007845281872055600a8352818187205560088352438187205551908152a280f35b606490602084519162461bcd60e51b8352820152601960248201527f496e76616c696420726577617264732070657220626c6f636b000000000000006044820152fd5b606490602084519162461bcd60e51b8352820152600d60248201526c24b73b30b634b2103a37b5b2b760991b6044820152fd5b50346101ec57816003193601126101ec57610784610e1d565b9160243590610791610f42565b61079c821515610ea6565b6001600160a01b038416808652600560209081528287205491949160ff16156109d4576107c8336113e4565b9160148310610993578351906323b872dd60e01b8252339082015230602482015284604482015281816064818b8a5af1801561098957966108a5917f6c86f3fd5118b3aa8bb4f389a617046de0a3d3d477de1a1673d227f802f616dc96979861096c575b50338952600b8352848920888a52835261084e87868b2054806108f857610f98565b338a52600b8452858a20898b528452858a2055338952600d8352848920888a52835283858a20556006835261088687868b2054610f98565b888a5260068452858a205561089d87600354610f98565b6003556111c2565b338752600b81528287208688528152670de0b6b3a76400006108d28489205460098452858a205490610fc8565b04338852600c825283882087895282528388205582519485528401523392a36001815580f35b600986528a8c898082205480610912575b50505050610f98565b610925670de0b6b3a76400009186610fc8565b0491338152600c8a528181208482528a52818120548311610947575b91610909565b61096293338252600c8b528282209082528a52205490610fbb565b508a38898e610941565b61098290843d8611610565576105568183610ef2565b503861082c565b84513d8a823e3d90fd5b60649184519162461bcd60e51b8352820152601860248201527f496e73756666696369656e742074727573742073636f726500000000000000006044820152fd5b606492519162461bcd60e51b8352820152600f60248201526e506f6f6c206e6f742061637469766560881b6044820152fd5b50503461035757816003193601126103575760015490516001600160a01b039091168152602090f35b50503461035757806003193601126103575780602092610a4d610e1d565b610a55610e38565b6001600160a01b039182168352600d865283832091168252845220549051908152f35b50503461035757806003193601126103575780602092610a96610e1d565b610a9e610e38565b6001600160a01b039182168352600b865283832091168252845220549051908152f35b505034610357578060031936011261035757602090610aef610ae1610e1d565b610ae9610e38565b90610ffb565b9051908152f35b50503461035757816003193601126103575760025490516001600160a01b039091168152602090f35b8334610b7c5780600319360112610b7c57610b38610e4e565b600180546001600160a01b0319811690915581906001600160a01b03167f8be0079c531659141344cd1fd0a4f28419497f9722a3daafe3b4186f6b6457e08280a380f35b80fd5b8281853461035757602092836003193601126101ec57610b9d610e1d565b90610ba6610e4e565b82516370a0823160e01b81523081830152916001600160a01b0390811691908684602481865afa938415610c8a579087949392918794610c51575b50600154865163a9059cbb60e01b815291166001600160a01b031691810191825260208201939093529194859283919082906040015b03925af1908115610c485750610c2b578280f35b81610c4192903d10610565576105568183610ef2565b5081808280f35b513d85823e3d90fd5b8581969295503d8311610c83575b610c698183610ef2565b81010312610c7f57925186939092610c17610be1565b8580fd5b503d610c5f565b85513d88823e3d90fd5b5050346103575760203660031901126103575790602091610cb3610e1d565b5051908152f35b5050346103575760203660031901126103575760209181906001600160a01b03610ce2610e1d565b1681526009845220549051908152f35b5050346103575760203660031901126103575760209181906001600160a01b03610d1a610e1d565b168152600a845220549051908152f35b5050346103575760203660031901126103575760209160ff9082906001600160a01b03610d55610e1d565b1681526005855220541690519015158152f35b50503461035757806003193601126103575780602092610d86610e1d565b610d8e610e38565b6001600160a01b039182168352600c865283832091168252845220549051908152f35b5050346103575760203660031901126103575760209181906001600160a01b03610dd9610e1d565b1681526006845220549051908152f35b849084346101ec5760203660031901126101ec576020926001600160a01b03610e10610e1d565b1681526007845220548152f35b600435906001600160a01b0382168203610e3357565b600080fd5b602435906001600160a01b0382168203610e3357565b6001546001600160a01b03163303610e6257565b606460405162461bcd60e51b815260206004820152602060248201527f4f776e61626c653a2063616c6c6572206973206e6f7420746865206f776e65726044820152fd5b15610ead57565b60405162461bcd60e51b815260206004820152601760248201527f416d6f756e74206d75737420626520706f7369746976650000000000000000006044820152606490fd5b90601f8019910116810190811067ffffffffffffffff821117610f1457604052565b634e487b7160e01b600052604160045260246000fd5b90816020910312610e3357518015158103610e335790565b600260005414610f53576002600055565b60405162461bcd60e51b815260206004820152601f60248201527f5265656e7472616e637947756172643a207265656e7472616e742063616c6c006044820152606490fd5b91908201809211610fa557565b634e487b7160e01b600052601160045260246000fd5b91908203918211610fa557565b81810292918115918404141715610fa557565b8115610fe5570490565b634e487b7160e01b600052601260045260246000fd5b9060018060a01b039182811692600090848252602091600b8352604091828220951694858252835281812054156111b957858152600b8352818120858252835281812054946009845282822054600885526110598484205443610fbb565b828452600686528484205490801515806111b0575b611111575b505091600a979593916110a3979593829681151580611108575b6110a7575b5050505050506102e891925061133b565b0490565b670de0b6b3a7640000916110ba91610fc8565b0493878352600c815283832082845281528383205485116110dc575b80611092565b6102e896506110fb95978352600c815283832091835252205490610fbb565b90508138808080806110d6565b5080151561108d565b600787528585205461112291610fc8565b7812725dd1d243aba0e75fe645cc4873f9e65afe688c928e1f21811115806111a7575b1561107357670de0b6b3a764000090818102918183041490151715611193576110a39896949261117e600a9b9997959361118493610fdb565b90610f98565b91939597819395979950611073565b634e487b7160e01b85526011600452602485fd5b50811515611145565b5081151561106e565b94505050505090565b60018060a01b03166000908082526020600881526040916111e68385205443610fbb565b81855260068352838520549080151580611332575b1561132757600784528486205461121191610fc8565b7812725dd1d243aba0e75fe645cc4873f9e65afe688c928e1f2181116112e357670de0b6b3a7640000908181029181830414901517156112cf579061125591610fdb565b81855260098352838520548119811161128b57600893929161127691610f98565b81865260098352848620555b84525243912055565b845162461bcd60e51b815260048101859052601c60248201527f416363756d756c617465642072657761726473206f766572666c6f77000000006044820152606490fd5b634e487b7160e01b86526011600452602486fd5b845162461bcd60e51b815260048101859052601c60248201527f526577617264732063616c63756c6174696f6e206f766572666c6f77000000006044820152606490fd5b505090600891611282565b508115156111fb565b600254604051635e09eea160e01b81526001600160a01b0392831660048201529160209183916024918391165afa600091816113b1575b5061137d5750600a90565b600a810290808204600a1490151715610fa55760649004600a8101809111610fa557600a8110156113ae5750600a90565b90565b90916020823d82116113dc575b816113cb60209383610ef2565b81010312610b7c5750519038611372565b3d91506113be565b600254604051635e09eea160e01b81526001600160a01b0392831660048201529160209183916024918391165afa60009181611426575b506113ae5750603290565b90916020823d8211611451575b8161144060209383610ef2565b81010312610b7c575051903861141b565b3d915061143356fea26469706673582212207e2149d1249a41a0914baa96130fa2a46db3d50af9f99269b14dca7d9efe6fa564736f6c63430008130033","opcodes":"PUSH1 0x80 CALLVALUE PUSH2 0xB1 JUMPI PUSH1 0x1F PUSH2 0x155C CODESIZE DUP2 SWAP1 SUB SWAP2 DUP3 ADD PUSH1 0x1F NOT AND DUP4 ADD SWAP2 PUSH1 0x1 PUSH1 0x1 PUSH1 0x40 SHL SUB DUP4 GT DUP5 DUP5 LT OR PUSH2 0xB6 JUMPI DUP1 DUP5 SWAP3 PUSH1 0x20 SWAP5 PUSH1 0x40 MSTORE DUP4 CODECOPY DUP2 ADD SUB SLT PUSH2 0xB1 JUMPI MLOAD PUSH1 0x1 PUSH1 0x1 PUSH1 0xA0 SHL SUB SWAP1 DUP2 DUP2 AND SWAP1 DUP2 SWAP1 SUB PUSH2 0xB1 JUMPI PUSH1 0x1 PUSH1 0x0 SSTORE PUSH1 0x1 SLOAD PUSH1 0x1 DUP1 PUSH1 0xA0 SHL SUB NOT SWAP1 CALLER DUP3 DUP3 AND OR PUSH1 0x1 SSTORE PUSH1 0x40 MLOAD SWAP4 CALLER SWAP2 AND PUSH32 0x8BE0079C531659141344CD1FD0A4F28419497F9722A3DAAFE3B4186F6B6457E0 PUSH1 0x0 DUP1 LOG3 PUSH1 0x19 PUSH1 0x4 SSTORE PUSH1 0x2 SLOAD AND OR PUSH1 0x2 SSTORE PUSH2 0x148F SWAP1 DUP2 PUSH2 0xCD DUP3 CODECOPY RETURN JUMPDEST PUSH1 0x0 DUP1 REVERT JUMPDEST PUSH4 0x4E487B71 PUSH1 0xE0 SHL PUSH1 0x0 MSTORE PUSH1 0x41 PUSH1 0x4 MSTORE PUSH1 0x24 PUSH1 0x0 REVERT INVALID PUSH1 0x80 PUSH1 0x40 DUP2 DUP2 MSTORE PUSH1 0x4 DUP1 CALLDATASIZE LT ISZERO PUSH2 0x15 JUMPI PUSH1 0x0 DUP1 REVERT JUMPDEST PUSH1 0x0 SWAP3 DUP4 CALLDATALOAD PUSH1 0xE0 SHR SWAP1 DUP2 PUSH4 0xA6DCB02 EQ PUSH2 0xDE9 JUMPI POP DUP1 PUSH4 0x1ADA6C08 EQ PUSH2 0xDB1 JUMPI DUP1 PUSH4 0x1D030AC9 EQ PUSH2 0xD68 JUMPI DUP1 PUSH4 0x29A8F819 EQ PUSH2 0xD2A JUMPI DUP1 PUSH4 0x328B071B EQ PUSH2 0xCF2 JUMPI DUP1 PUSH4 0x49D638F7 EQ PUSH2 0xCBA JUMPI DUP1 PUSH4 0x6E2F1696 EQ PUSH2 0xC94 JUMPI DUP4 DUP2 PUSH4 0x6FF1C9BC EQ PUSH2 0xB7F JUMPI POP DUP1 PUSH4 0x715018A6 EQ PUSH2 0xB1F JUMPI DUP1 PUSH4 0x77AA980D EQ PUSH2 0xAF6 JUMPI DUP1 PUSH4 0x7A27DB57 EQ PUSH2 0xAC1 JUMPI DUP1 PUSH4 0x8302FE11 EQ PUSH2 0xA78 JUMPI DUP1 PUSH4 0x846C5658 EQ PUSH2 0xA2F JUMPI DUP1 PUSH4 0x8DA5CB5B EQ PUSH2 0xA06 JUMPI DUP1 PUSH4 0xADC9772E EQ PUSH2 0x76B JUMPI DUP1 PUSH4 0xB039DDF6 EQ PUSH2 0x656 JUMPI DUP1 PUSH4 0xB0E21E8A EQ PUSH2 0x639 JUMPI DUP1 PUSH4 0xC2A672E0 EQ PUSH2 0x3B0 JUMPI DUP1 PUSH4 0xDB85A481 EQ PUSH2 0x378 JUMPI DUP1 PUSH4 0xE1F1C4A7 EQ PUSH2 0x35B JUMPI DUP1 PUSH4 0xEC18154E EQ PUSH2 0x338 JUMPI DUP1 PUSH4 0xEF5CFB8C EQ PUSH2 0x1F0 JUMPI PUSH4 0xF2FDE38B EQ PUSH2 0x122 JUMPI PUSH1 0x0 DUP1 REVERT JUMPDEST CALLVALUE PUSH2 0x1EC JUMPI PUSH1 0x20 CALLDATASIZE PUSH1 0x3 NOT ADD SLT PUSH2 0x1EC JUMPI PUSH2 0x13B PUSH2 0xE1D JUMP JUMPDEST SWAP1 PUSH2 0x144 PUSH2 0xE4E JUMP JUMPDEST PUSH1 0x1 PUSH1 0x1 PUSH1 0xA0 SHL SUB SWAP2 DUP3 AND SWAP3 DUP4 ISZERO PUSH2 0x19A JUMPI POP POP PUSH1 0x1 SLOAD DUP3 PUSH12 0xFFFFFFFFFFFFFFFFFFFFFFFF PUSH1 0xA0 SHL DUP3 AND OR PUSH1 0x1 SSTORE AND PUSH32 0x8BE0079C531659141344CD1FD0A4F28419497F9722A3DAAFE3B4186F6B6457E0 DUP4 DUP1 LOG3 DUP1 RETURN JUMPDEST SWAP1 PUSH1 0x20 PUSH1 0x84 SWAP3 MLOAD SWAP2 PUSH3 0x461BCD PUSH1 0xE5 SHL DUP4 MSTORE DUP3 ADD MSTORE PUSH1 0x26 PUSH1 0x24 DUP3 ADD MSTORE PUSH32 0x4F776E61626C653A206E6577206F776E657220697320746865207A65726F2061 PUSH1 0x44 DUP3 ADD MSTORE PUSH6 0x646472657373 PUSH1 0xD0 SHL PUSH1 0x64 DUP3 ADD MSTORE REVERT JUMPDEST DUP3 DUP1 REVERT JUMPDEST POP SWAP1 CALLVALUE PUSH2 0x1EC JUMPI PUSH1 0x20 DUP1 PUSH1 0x3 NOT CALLDATASIZE ADD SLT PUSH2 0x334 JUMPI PUSH2 0x20C PUSH2 0xE1D JUMP JUMPDEST PUSH2 0x214 PUSH2 0xF42 JUMP JUMPDEST CALLER DUP6 MSTORE PUSH1 0xB DUP3 MSTORE DUP3 DUP6 KECCAK256 PUSH1 0x1 PUSH1 0x1 PUSH1 0xA0 SHL SUB DUP3 AND DUP1 DUP8 MSTORE SWAP1 DUP4 MSTORE DUP4 DUP7 KECCAK256 SLOAD SWAP1 SWAP5 SWAP1 ISZERO PUSH2 0x2FE JUMPI POP SWAP1 PUSH2 0x266 PUSH32 0x9310CCFCB8DE723F578A9E4282EA9F521F05AE40DC08F3068DFAD528A65EE3C7 SWAP3 PUSH2 0x11C2 JUMP JUMPDEST CALLER DUP6 MSTORE PUSH1 0xB DUP2 MSTORE DUP3 DUP6 KECCAK256 DUP5 DUP7 MSTORE DUP2 MSTORE PUSH1 0xA PUSH2 0x2EE DUP5 DUP8 KECCAK256 SLOAD PUSH1 0x9 DUP5 MSTORE PUSH8 0xDE0B6B3A7640000 PUSH2 0x2CB PUSH2 0x2B9 DUP3 PUSH2 0x29F DUP11 DUP14 KECCAK256 SLOAD DUP7 PUSH2 0xFC8 JUMP JUMPDEST DIV CALLER DUP13 MSTORE PUSH1 0xC DUP9 MSTORE DUP10 DUP13 KECCAK256 DUP12 DUP14 MSTORE DUP9 MSTORE DUP10 DUP13 KECCAK256 SLOAD SWAP1 PUSH2 0xFBB JUMP JUMPDEST SWAP3 DUP10 DUP12 MSTORE PUSH1 0x9 DUP8 MSTORE DUP9 DUP12 KECCAK256 SLOAD SWAP1 PUSH2 0xFC8 JUMP JUMPDEST DIV CALLER DUP10 MSTORE PUSH1 0xC DUP6 MSTORE DUP7 DUP10 KECCAK256 DUP9 DUP11 MSTORE DUP6 MSTORE DUP7 DUP10 KECCAK256 SSTORE PUSH2 0x2E8 CALLER PUSH2 0x133B JUMP JUMPDEST SWAP1 PUSH2 0xFC8 JUMP JUMPDEST DIV SWAP3 MLOAD SWAP3 DUP4 MSTORE CALLER SWAP3 LOG3 PUSH1 0x1 DUP2 SSTORE DUP1 RETURN JUMPDEST DUP4 MLOAD PUSH3 0x461BCD PUSH1 0xE5 SHL DUP2 MSTORE SWAP1 DUP2 ADD DUP4 SWAP1 MSTORE PUSH1 0x10 PUSH1 0x24 DUP3 ADD MSTORE PUSH16 0x139BC81CDD185AD9481A5B881C1BDBDB PUSH1 0x82 SHL PUSH1 0x44 DUP3 ADD MSTORE PUSH1 0x64 SWAP1 REVERT JUMPDEST DUP4 DUP1 REVERT JUMPDEST POP POP CALLVALUE PUSH2 0x357 JUMPI DUP2 PUSH1 0x3 NOT CALLDATASIZE ADD SLT PUSH2 0x357 JUMPI PUSH1 0x20 SWAP1 PUSH1 0x3 SLOAD SWAP1 MLOAD SWAP1 DUP2 MSTORE RETURN JUMPDEST POP DUP1 REVERT JUMPDEST POP POP CALLVALUE PUSH2 0x357 JUMPI DUP2 PUSH1 0x3 NOT CALLDATASIZE ADD SLT PUSH2 0x357 JUMPI PUSH1 0x20 SWAP1 MLOAD PUSH2 0x2710 DUP2 MSTORE RETURN JUMPDEST POP POP CALLVALUE PUSH2 0x357 JUMPI PUSH1 0x20 CALLDATASIZE PUSH1 0x3 NOT ADD SLT PUSH2 0x357 JUMPI PUSH1 0x20 SWAP2 DUP2 SWAP1 PUSH1 0x1 PUSH1 0x1 PUSH1 0xA0 SHL SUB PUSH2 0x3A0 PUSH2 0xE1D JUMP JUMPDEST AND DUP2 MSTORE PUSH1 0x8 DUP5 MSTORE KECCAK256 SLOAD SWAP1 MLOAD SWAP1 DUP2 MSTORE RETURN JUMPDEST POP SWAP2 SWAP1 CALLVALUE PUSH2 0x357 JUMPI DUP1 PUSH1 0x3 NOT CALLDATASIZE ADD SLT PUSH2 0x357 JUMPI PUSH2 0x3CB PUSH2 0xE1D JUMP JUMPDEST SWAP1 PUSH1 0x24 CALLDATALOAD SWAP1 PUSH2 0x3D8 PUSH2 0xF42 JUMP JUMPDEST PUSH2 0x3E3 DUP3 ISZERO ISZERO PUSH2 0xEA6 JUMP JUMPDEST CALLER DUP5 MSTORE PUSH1 0x20 SWAP5 PUSH1 0xB DUP7 MSTORE DUP2 DUP6 KECCAK256 SWAP4 PUSH1 0x1 DUP1 PUSH1 0xA0 SHL SUB DUP2 AND SWAP5 DUP6 DUP8 MSTORE DUP8 MSTORE DUP4 DUP4 DUP8 KECCAK256 SLOAD LT PUSH2 0x5F7 JUMPI PUSH2 0x4F6 SWAP6 SWAP7 CALLER DUP9 MSTORE PUSH1 0xB DUP2 MSTORE DUP4 DUP9 KECCAK256 DUP7 DUP10 MSTORE DUP2 MSTORE DUP5 DUP5 DUP10 KECCAK256 SLOAD SWAP4 PUSH1 0x9 DUP4 MSTORE PUSH2 0x435 DUP7 DUP12 KECCAK256 SLOAD SWAP5 PUSH2 0x11C2 JUMP JUMPDEST DUP10 SWAP4 DUP11 DUP8 DUP3 ISZERO ISZERO DUP1 PUSH2 0x5EE JUMPI JUMPDEST PUSH2 0x576 JUMPI JUMPDEST SWAP2 PUSH2 0x48E SWAP2 PUSH8 0xDE0B6B3A7640000 SWAP4 PUSH2 0x462 DUP8 DUP10 SWAP11 SWAP12 PUSH2 0xFBB JUMP JUMPDEST SWAP2 CALLER DUP2 MSTORE PUSH1 0xB DUP10 MSTORE DUP14 DUP3 DUP3 KECCAK256 SWAP1 DUP3 MSTORE DUP10 MSTORE KECCAK256 SSTORE CALLER DUP14 MSTORE PUSH1 0xB DUP7 MSTORE DUP13 DUP12 DUP11 DUP3 KECCAK256 SWAP2 MSTORE DUP7 MSTORE DUP9 DUP14 KECCAK256 SLOAD PUSH2 0xFC8 JUMP JUMPDEST DIV CALLER DUP12 MSTORE PUSH1 0xC DUP5 MSTORE DUP7 DUP12 KECCAK256 DUP10 DUP13 MSTORE DUP5 MSTORE DUP7 DUP12 KECCAK256 SSTORE PUSH1 0x6 DUP4 MSTORE PUSH2 0x4B3 DUP3 DUP8 DUP13 KECCAK256 SLOAD PUSH2 0xFBB JUMP JUMPDEST DUP9 DUP12 MSTORE PUSH1 0x6 DUP5 MSTORE DUP7 DUP12 KECCAK256 SSTORE PUSH2 0x4CA DUP3 PUSH1 0x3 SLOAD PUSH2 0xFBB JUMP JUMPDEST PUSH1 0x3 SSTORE DUP6 MLOAD PUSH4 0xA9059CBB PUSH1 0xE0 SHL DUP2 MSTORE CALLER SWAP2 DUP2 ADD SWAP2 DUP3 MSTORE PUSH1 0x20 DUP3 ADD SWAP3 SWAP1 SWAP3 MSTORE SWAP1 SWAP8 DUP9 SWAP2 DUP3 SWAP2 PUSH1 0x40 SWAP1 SWAP2 ADD SWAP1 JUMP JUMPDEST SUB DUP2 DUP11 DUP10 GAS CALL SWAP6 DUP7 ISZERO PUSH2 0x56C JUMPI PUSH32 0x6CC7E90B4F2B554A9614B0CAA84F909F3498C820AE47C731F490C28C07F7D3B SWAP5 SWAP6 SWAP7 PUSH2 0x53F JUMPI JUMPDEST POP DUP3 MLOAD SWAP5 DUP6 MSTORE DUP5 ADD MSTORE CALLER SWAP3 LOG3 PUSH1 0x1 DUP2 SSTORE DUP1 RETURN JUMPDEST PUSH2 0x55E SWAP1 DUP3 RETURNDATASIZE DUP5 GT PUSH2 0x565 JUMPI JUMPDEST PUSH2 0x556 DUP2 DUP4 PUSH2 0xEF2 JUMP JUMPDEST DUP2 ADD SWAP1 PUSH2 0xF2A JUMP JUMPDEST POP CODESIZE PUSH2 0x52C JUMP JUMPDEST POP RETURNDATASIZE PUSH2 0x54C JUMP JUMPDEST DUP4 MLOAD RETURNDATASIZE DUP10 DUP3 RETURNDATACOPY RETURNDATASIZE SWAP1 REVERT JUMPDEST PUSH8 0xDE0B6B3A7640000 PUSH2 0x589 DUP5 DUP11 PUSH2 0xFC8 JUMP JUMPDEST DIV CALLER DUP4 MSTORE PUSH1 0xC DUP8 MSTORE DUP2 DUP4 KECCAK256 DUP13 DUP5 MSTORE DUP8 MSTORE DUP12 DUP3 DUP5 KECCAK256 SLOAD DUP3 GT PUSH2 0x5AC JUMPI JUMPDEST POP POP PUSH2 0x447 JUMP JUMPDEST DUP8 SWAP9 POP SWAP2 PUSH2 0x462 DUP8 PUSH2 0x5E0 PUSH2 0x48E SWAP7 SWAP5 PUSH8 0xDE0B6B3A7640000 SWAP9 SWAP7 CALLER DUP8 MSTORE PUSH1 0xC DUP14 MSTORE DUP6 DUP8 KECCAK256 SWAP1 DUP8 MSTORE DUP13 MSTORE DUP5 DUP7 KECCAK256 SLOAD SWAP1 PUSH2 0xFBB JUMP JUMPDEST SWAP11 POP POP POP SWAP2 SWAP4 POP SWAP2 DUP12 PUSH2 0x5A5 JUMP JUMPDEST POP DUP8 ISZERO ISZERO PUSH2 0x442 JUMP JUMPDEST POP DUP6 PUSH1 0x64 SWAP3 MLOAD SWAP2 PUSH3 0x461BCD PUSH1 0xE5 SHL DUP4 MSTORE DUP3 ADD MSTORE PUSH1 0x1A PUSH1 0x24 DUP3 ADD MSTORE PUSH32 0x496E73756666696369656E74207374616B656420616D6F756E74000000000000 PUSH1 0x44 DUP3 ADD MSTORE REVERT JUMPDEST POP CALLVALUE PUSH2 0x1EC JUMPI DUP3 PUSH1 0x3 NOT CALLDATASIZE ADD SLT PUSH2 0x1EC JUMPI PUSH1 0x20 SWAP3 POP SLOAD SWAP1 MLOAD SWAP1 DUP2 MSTORE RETURN JUMPDEST POP SWAP1 CALLVALUE PUSH2 0x1EC JUMPI PUSH1 0x60 CALLDATASIZE PUSH1 0x3 NOT ADD SLT PUSH2 0x1EC JUMPI PUSH2 0x671 PUSH2 0xE1D JUMP JUMPDEST SWAP1 PUSH1 0x24 CALLDATALOAD PUSH1 0x44 CALLDATALOAD SWAP3 PUSH2 0x681 PUSH2 0xE4E JUMP JUMPDEST PUSH1 0x1 PUSH1 0x1 PUSH1 0xA0 SHL SUB AND SWAP4 DUP5 ISZERO PUSH2 0x738 JUMPI DUP2 ISZERO PUSH2 0x6F5 JUMPI POP SWAP2 PUSH1 0x20 SWAP2 PUSH32 0x641E49906554552C8C33D7E09E02D1270590F405BC1DA0C7B99A9C2808ABDD05 SWAP4 DUP6 DUP8 MSTORE PUSH1 0x5 DUP5 MSTORE DUP2 DUP8 KECCAK256 PUSH1 0x1 PUSH1 0xFF NOT DUP3 SLOAD AND OR SWAP1 SSTORE PUSH1 0x7 DUP5 MSTORE DUP2 DUP8 KECCAK256 SSTORE PUSH1 0xA DUP4 MSTORE DUP2 DUP2 DUP8 KECCAK256 SSTORE PUSH1 0x8 DUP4 MSTORE NUMBER DUP2 DUP8 KECCAK256 SSTORE MLOAD SWAP1 DUP2 MSTORE LOG2 DUP1 RETURN JUMPDEST PUSH1 0x64 SWAP1 PUSH1 0x20 DUP5 MLOAD SWAP2 PUSH3 0x461BCD PUSH1 0xE5 SHL DUP4 MSTORE DUP3 ADD MSTORE PUSH1 0x19 PUSH1 0x24 DUP3 ADD MSTORE PUSH32 0x496E76616C696420726577617264732070657220626C6F636B00000000000000 PUSH1 0x44 DUP3 ADD MSTORE REVERT JUMPDEST PUSH1 0x64 SWAP1 PUSH1 0x20 DUP5 MLOAD SWAP2 PUSH3 0x461BCD PUSH1 0xE5 SHL DUP4 MSTORE DUP3 ADD MSTORE PUSH1 0xD PUSH1 0x24 DUP3 ADD MSTORE PUSH13 0x24B73B30B634B2103A37B5B2B7 PUSH1 0x99 SHL PUSH1 0x44 DUP3 ADD MSTORE REVERT JUMPDEST POP CALLVALUE PUSH2 0x1EC JUMPI DUP2 PUSH1 0x3 NOT CALLDATASIZE ADD SLT PUSH2 0x1EC JUMPI PUSH2 0x784 PUSH2 0xE1D JUMP JUMPDEST SWAP2 PUSH1 0x24 CALLDATALOAD SWAP1 PUSH2 0x791 PUSH2 0xF42 JUMP JUMPDEST PUSH2 0x79C DUP3 ISZERO ISZERO PUSH2 0xEA6 JUMP JUMPDEST PUSH1 0x1 PUSH1 0x1 PUSH1 0xA0 SHL SUB DUP5 AND DUP1 DUP7 MSTORE PUSH1 0x5 PUSH1 0x20 SWAP1 DUP2 MSTORE DUP3 DUP8 KECCAK256 SLOAD SWAP2 SWAP5 SWAP2 PUSH1 0xFF AND ISZERO PUSH2 0x9D4 JUMPI PUSH2 0x7C8 CALLER PUSH2 0x13E4 JUMP JUMPDEST SWAP2 PUSH1 0x14 DUP4 LT PUSH2 0x993 JUMPI DUP4 MLOAD SWAP1 PUSH4 0x23B872DD PUSH1 0xE0 SHL DUP3 MSTORE CALLER SWAP1 DUP3 ADD MSTORE ADDRESS PUSH1 0x24 DUP3 ADD MSTORE DUP5 PUSH1 0x44 DUP3 ADD MSTORE DUP2 DUP2 PUSH1 0x64 DUP2 DUP12 DUP11 GAS CALL DUP1 ISZERO PUSH2 0x989 JUMPI SWAP7 PUSH2 0x8A5 SWAP2 PUSH32 0x6C86F3FD5118B3AA8BB4F389A617046DE0A3D3D477DE1A1673D227F802F616DC SWAP7 SWAP8 SWAP9 PUSH2 0x96C JUMPI JUMPDEST POP CALLER DUP10 MSTORE PUSH1 0xB DUP4 MSTORE DUP5 DUP10 KECCAK256 DUP9 DUP11 MSTORE DUP4 MSTORE PUSH2 0x84E DUP8 DUP7 DUP12 KECCAK256 SLOAD DUP1 PUSH2 0x8F8 JUMPI PUSH2 0xF98 JUMP JUMPDEST CALLER DUP11 MSTORE PUSH1 0xB DUP5 MSTORE DUP6 DUP11 KECCAK256 DUP10 DUP12 MSTORE DUP5 MSTORE DUP6 DUP11 KECCAK256 SSTORE CALLER DUP10 MSTORE PUSH1 0xD DUP4 MSTORE DUP5 DUP10 KECCAK256 DUP9 DUP11 MSTORE DUP4 MSTORE DUP4 DUP6 DUP11 KECCAK256 SSTORE PUSH1 0x6 DUP4 MSTORE PUSH2 0x886 DUP8 DUP7 DUP12 KECCAK256 SLOAD PUSH2 0xF98 JUMP JUMPDEST DUP9 DUP11 MSTORE PUSH1 0x6 DUP5 MSTORE DUP6 DUP11 KECCAK256 SSTORE PUSH2 0x89D DUP8 PUSH1 0x3 SLOAD PUSH2 0xF98 JUMP JUMPDEST PUSH1 0x3 SSTORE PUSH2 0x11C2 JUMP JUMPDEST CALLER DUP8 MSTORE PUSH1 0xB DUP2 MSTORE DUP3 DUP8 KECCAK256 DUP7 DUP9 MSTORE DUP2 MSTORE PUSH8 0xDE0B6B3A7640000 PUSH2 0x8D2 DUP5 DUP10 KECCAK256 SLOAD PUSH1 0x9 DUP5 MSTORE DUP6 DUP11 KECCAK256 SLOAD SWAP1 PUSH2 0xFC8 JUMP JUMPDEST DIV CALLER DUP9 MSTORE PUSH1 0xC DUP3 MSTORE DUP4 DUP9 KECCAK256 DUP8 DUP10 MSTORE DUP3 MSTORE DUP4 DUP9 KECCAK256 SSTORE DUP3 MLOAD SWAP5 DUP6 MSTORE DUP5 ADD MSTORE CALLER SWAP3 LOG3 PUSH1 0x1 DUP2 SSTORE DUP1 RETURN JUMPDEST PUSH1 0x9 DUP7 MSTORE DUP11 DUP13 DUP10 DUP1 DUP3 KECCAK256 SLOAD DUP1 PUSH2 0x912 JUMPI JUMPDEST POP POP POP POP PUSH2 0xF98 JUMP JUMPDEST PUSH2 0x925 PUSH8 0xDE0B6B3A7640000 SWAP2 DUP7 PUSH2 0xFC8 JUMP JUMPDEST DIV SWAP2 CALLER DUP2 MSTORE PUSH1 0xC DUP11 MSTORE DUP2 DUP2 KECCAK256 DUP5 DUP3 MSTORE DUP11 MSTORE DUP2 DUP2 KECCAK256 SLOAD DUP4 GT PUSH2 0x947 JUMPI JUMPDEST SWAP2 PUSH2 0x909 JUMP JUMPDEST PUSH2 0x962 SWAP4 CALLER DUP3 MSTORE PUSH1 0xC DUP12 MSTORE DUP3 DUP3 KECCAK256 SWAP1 DUP3 MSTORE DUP11 MSTORE KECCAK256 SLOAD SWAP1 PUSH2 0xFBB JUMP JUMPDEST POP DUP11 CODESIZE DUP10 DUP15 PUSH2 0x941 JUMP JUMPDEST PUSH2 0x982 SWAP1 DUP5 RETURNDATASIZE DUP7 GT PUSH2 0x565 JUMPI PUSH2 0x556 DUP2 DUP4 PUSH2 0xEF2 JUMP JUMPDEST POP CODESIZE PUSH2 0x82C JUMP JUMPDEST DUP5 MLOAD RETURNDATASIZE DUP11 DUP3 RETURNDATACOPY RETURNDATASIZE SWAP1 REVERT JUMPDEST PUSH1 0x64 SWAP2 DUP5 MLOAD SWAP2 PUSH3 0x461BCD PUSH1 0xE5 SHL DUP4 MSTORE DUP3 ADD MSTORE PUSH1 0x18 PUSH1 0x24 DUP3 ADD MSTORE PUSH32 0x496E73756666696369656E742074727573742073636F72650000000000000000 PUSH1 0x44 DUP3 ADD MSTORE REVERT JUMPDEST PUSH1 0x64 SWAP3 MLOAD SWAP2 PUSH3 0x461BCD PUSH1 0xE5 SHL DUP4 MSTORE DUP3 ADD MSTORE PUSH1 0xF PUSH1 0x24 DUP3 ADD MSTORE PUSH15 0x506F6F6C206E6F7420616374697665 PUSH1 0x88 SHL PUSH1 0x44 DUP3 ADD MSTORE REVERT JUMPDEST POP POP CALLVALUE PUSH2 0x357 JUMPI DUP2 PUSH1 0x3 NOT CALLDATASIZE ADD SLT PUSH2 0x357 JUMPI PUSH1 0x1 SLOAD SWAP1 MLOAD PUSH1 0x1 PUSH1 0x1 PUSH1 0xA0 SHL SUB SWAP1 SWAP2 AND DUP2 MSTORE PUSH1 0x20 SWAP1 RETURN JUMPDEST POP POP CALLVALUE PUSH2 0x357 JUMPI DUP1 PUSH1 0x3 NOT CALLDATASIZE ADD SLT PUSH2 0x357 JUMPI DUP1 PUSH1 0x20 SWAP3 PUSH2 0xA4D PUSH2 0xE1D JUMP JUMPDEST PUSH2 0xA55 PUSH2 0xE38 JUMP JUMPDEST PUSH1 0x1 PUSH1 0x1 PUSH1 0xA0 SHL SUB SWAP2 DUP3 AND DUP4 MSTORE PUSH1 0xD DUP7 MSTORE DUP4 DUP4 KECCAK256 SWAP2 AND DUP3 MSTORE DUP5 MSTORE KECCAK256 SLOAD SWAP1 MLOAD SWAP1 DUP2 MSTORE RETURN JUMPDEST POP POP CALLVALUE PUSH2 0x357 JUMPI DUP1 PUSH1 0x3 NOT CALLDATASIZE ADD SLT PUSH2 0x357 JUMPI DUP1 PUSH1 0x20 SWAP3 PUSH2 0xA96 PUSH2 0xE1D JUMP JUMPDEST PUSH2 0xA9E PUSH2 0xE38 JUMP JUMPDEST PUSH1 0x1 PUSH1 0x1 PUSH1 0xA0 SHL SUB SWAP2 DUP3 AND DUP4 MSTORE PUSH1 0xB DUP7 MSTORE DUP4 DUP4 KECCAK256 SWAP2 AND DUP3 MSTORE DUP5 MSTORE KECCAK256 SLOAD SWAP1 MLOAD SWAP1 DUP2 MSTORE RETURN JUMPDEST POP POP CALLVALUE PUSH2 0x357 JUMPI DUP1 PUSH1 0x3 NOT CALLDATASIZE ADD SLT PUSH2 0x357 JUMPI PUSH1 0x20 SWAP1 PUSH2 0xAEF PUSH2 0xAE1 PUSH2 0xE1D JUMP JUMPDEST PUSH2 0xAE9 PUSH2 0xE38 JUMP JUMPDEST SWAP1 PUSH2 0xFFB JUMP JUMPDEST SWAP1 MLOAD SWAP1 DUP2 MSTORE RETURN JUMPDEST POP POP CALLVALUE PUSH2 0x357 JUMPI DUP2 PUSH1 0x3 NOT CALLDATASIZE ADD SLT PUSH2 0x357 JUMPI PUSH1 0x2 SLOAD SWAP1 MLOAD PUSH1 0x1 PUSH1 0x1 PUSH1 0xA0 SHL SUB SWAP1 SWAP2 AND DUP2 MSTORE PUSH1 0x20 SWAP1 RETURN JUMPDEST DUP4 CALLVALUE PUSH2 0xB7C JUMPI DUP1 PUSH1 0x3 NOT CALLDATASIZE ADD SLT PUSH2 0xB7C JUMPI PUSH2 0xB38 PUSH2 0xE4E JUMP JUMPDEST PUSH1 0x1 DUP1 SLOAD PUSH1 0x1 PUSH1 0x1 PUSH1 0xA0 SHL SUB NOT DUP2 AND SWAP1 SWAP2 SSTORE DUP2 SWAP1 PUSH1 0x1 PUSH1 0x1 PUSH1 0xA0 SHL SUB AND PUSH32 0x8BE0079C531659141344CD1FD0A4F28419497F9722A3DAAFE3B4186F6B6457E0 DUP3 DUP1 LOG3 DUP1 RETURN JUMPDEST DUP1 REVERT JUMPDEST DUP3 DUP2 DUP6 CALLVALUE PUSH2 0x357 JUMPI PUSH1 0x20 SWAP3 DUP4 PUSH1 0x3 NOT CALLDATASIZE ADD SLT PUSH2 0x1EC JUMPI PUSH2 0xB9D PUSH2 0xE1D JUMP JUMPDEST SWAP1 PUSH2 0xBA6 PUSH2 0xE4E JUMP JUMPDEST DUP3 MLOAD PUSH4 0x70A08231 PUSH1 0xE0 SHL DUP2 MSTORE ADDRESS DUP2 DUP4 ADD MSTORE SWAP2 PUSH1 0x1 PUSH1 0x1 PUSH1 0xA0 SHL SUB SWAP1 DUP2 AND SWAP2 SWAP1 DUP7 DUP5 PUSH1 0x24 DUP2 DUP7 GAS STATICCALL SWAP4 DUP5 ISZERO PUSH2 0xC8A JUMPI SWAP1 DUP8 SWAP5 SWAP4 SWAP3 SWAP2 DUP8 SWAP5 PUSH2 0xC51 JUMPI JUMPDEST POP PUSH1 0x1 SLOAD DUP7 MLOAD PUSH4 0xA9059CBB PUSH1 0xE0 SHL DUP2 MSTORE SWAP2 AND PUSH1 0x1 PUSH1 0x1 PUSH1 0xA0 SHL SUB AND SWAP2 DUP2 ADD SWAP2 DUP3 MSTORE PUSH1 0x20 DUP3 ADD SWAP4 SWAP1 SWAP4 MSTORE SWAP2 SWAP5 DUP6 SWAP3 DUP4 SWAP2 SWAP1 DUP3 SWAP1 PUSH1 0x40 ADD JUMPDEST SUB SWAP3 GAS CALL SWAP1 DUP2 ISZERO PUSH2 0xC48 JUMPI POP PUSH2 0xC2B JUMPI DUP3 DUP1 RETURN JUMPDEST DUP2 PUSH2 0xC41 SWAP3 SWAP1 RETURNDATASIZE LT PUSH2 0x565 JUMPI PUSH2 0x556 DUP2 DUP4 PUSH2 0xEF2 JUMP JUMPDEST POP DUP2 DUP1 DUP3 DUP1 RETURN JUMPDEST MLOAD RETURNDATASIZE DUP6 DUP3 RETURNDATACOPY RETURNDATASIZE SWAP1 REVERT JUMPDEST DUP6 DUP2 SWAP7 SWAP3 SWAP6 POP RETURNDATASIZE DUP4 GT PUSH2 0xC83 JUMPI JUMPDEST PUSH2 0xC69 DUP2 DUP4 PUSH2 0xEF2 JUMP JUMPDEST DUP2 ADD SUB SLT PUSH2 0xC7F JUMPI SWAP3 MLOAD DUP7 SWAP4 SWAP1 SWAP3 PUSH2 0xC17 PUSH2 0xBE1 JUMP JUMPDEST DUP6 DUP1 REVERT JUMPDEST POP RETURNDATASIZE PUSH2 0xC5F JUMP JUMPDEST DUP6 MLOAD RETURNDATASIZE DUP9 DUP3 RETURNDATACOPY RETURNDATASIZE SWAP1 REVERT JUMPDEST POP POP CALLVALUE PUSH2 0x357 JUMPI PUSH1 0x20 CALLDATASIZE PUSH1 0x3 NOT ADD SLT PUSH2 0x357 JUMPI SWAP1 PUSH1 0x20 SWAP2 PUSH2 0xCB3 PUSH2 0xE1D JUMP JUMPDEST POP MLOAD SWAP1 DUP2 MSTORE RETURN JUMPDEST POP POP CALLVALUE PUSH2 0x357 JUMPI PUSH1 0x20 CALLDATASIZE PUSH1 0x3 NOT ADD SLT PUSH2 0x357 JUMPI PUSH1 0x20 SWAP2 DUP2 SWAP1 PUSH1 0x1 PUSH1 0x1 PUSH1 0xA0 SHL SUB PUSH2 0xCE2 PUSH2 0xE1D JUMP JUMPDEST AND DUP2 MSTORE PUSH1 0x9 DUP5 MSTORE KECCAK256 SLOAD SWAP1 MLOAD SWAP1 DUP2 MSTORE RETURN JUMPDEST POP POP CALLVALUE PUSH2 0x357 JUMPI PUSH1 0x20 CALLDATASIZE PUSH1 0x3 NOT ADD SLT PUSH2 0x357 JUMPI PUSH1 0x20 SWAP2 DUP2 SWAP1 PUSH1 0x1 PUSH1 0x1 PUSH1 0xA0 SHL SUB PUSH2 0xD1A PUSH2 0xE1D JUMP JUMPDEST AND DUP2 MSTORE PUSH1 0xA DUP5 MSTORE KECCAK256 SLOAD SWAP1 MLOAD SWAP1 DUP2 MSTORE RETURN JUMPDEST POP POP CALLVALUE PUSH2 0x357 JUMPI PUSH1 0x20 CALLDATASIZE PUSH1 0x3 NOT ADD SLT PUSH2 0x357 JUMPI PUSH1 0x20 SWAP2 PUSH1 0xFF SWAP1 DUP3 SWAP1 PUSH1 0x1 PUSH1 0x1 PUSH1 0xA0 SHL SUB PUSH2 0xD55 PUSH2 0xE1D JUMP JUMPDEST AND DUP2 MSTORE PUSH1 0x5 DUP6 MSTORE KECCAK256 SLOAD AND SWAP1 MLOAD SWAP1 ISZERO ISZERO DUP2 MSTORE RETURN JUMPDEST POP POP CALLVALUE PUSH2 0x357 JUMPI DUP1 PUSH1 0x3 NOT CALLDATASIZE ADD SLT PUSH2 0x357 JUMPI DUP1 PUSH1 0x20 SWAP3 PUSH2 0xD86 PUSH2 0xE1D JUMP JUMPDEST PUSH2 0xD8E PUSH2 0xE38 JUMP JUMPDEST PUSH1 0x1 PUSH1 0x1 PUSH1 0xA0 SHL SUB SWAP2 DUP3 AND DUP4 MSTORE PUSH1 0xC DUP7 MSTORE DUP4 DUP4 KECCAK256 SWAP2 AND DUP3 MSTORE DUP5 MSTORE KECCAK256 SLOAD SWAP1 MLOAD SWAP1 DUP2 MSTORE RETURN JUMPDEST POP POP CALLVALUE PUSH2 0x357 JUMPI PUSH1 0x20 CALLDATASIZE PUSH1 0x3 NOT ADD SLT PUSH2 0x357 JUMPI PUSH1 0x20 SWAP2 DUP2 SWAP1 PUSH1 0x1 PUSH1 0x1 PUSH1 0xA0 SHL SUB PUSH2 0xDD9 PUSH2 0xE1D JUMP JUMPDEST AND DUP2 MSTORE PUSH1 0x6 DUP5 MSTORE KECCAK256 SLOAD SWAP1 MLOAD SWAP1 DUP2 MSTORE RETURN JUMPDEST DUP5 SWAP1 DUP5 CALLVALUE PUSH2 0x1EC JUMPI PUSH1 0x20 CALLDATASIZE PUSH1 0x3 NOT ADD SLT PUSH2 0x1EC JUMPI PUSH1 0x20 SWAP3 PUSH1 0x1 PUSH1 0x1 PUSH1 0xA0 SHL SUB PUSH2 0xE10 PUSH2 0xE1D JUMP JUMPDEST AND DUP2 MSTORE PUSH1 0x7 DUP5 MSTORE KECCAK256 SLOAD DUP2 MSTORE RETURN JUMPDEST PUSH1 0x4 CALLDATALOAD SWAP1 PUSH1 0x1 PUSH1 0x1 PUSH1 0xA0 SHL SUB DUP3 AND DUP3 SUB PUSH2 0xE33 JUMPI JUMP JUMPDEST PUSH1 0x0 DUP1 REVERT JUMPDEST PUSH1 0x24 CALLDATALOAD SWAP1 PUSH1 0x1 PUSH1 0x1 PUSH1 0xA0 SHL SUB DUP3 AND DUP3 SUB PUSH2 0xE33 JUMPI JUMP JUMPDEST PUSH1 0x1 SLOAD PUSH1 0x1 PUSH1 0x1 PUSH1 0xA0 SHL SUB AND CALLER SUB PUSH2 0xE62 JUMPI JUMP JUMPDEST PUSH1 0x64 PUSH1 0x40 MLOAD PUSH3 0x461BCD PUSH1 0xE5 SHL DUP2 MSTORE PUSH1 0x20 PUSH1 0x4 DUP3 ADD MSTORE PUSH1 0x20 PUSH1 0x24 DUP3 ADD MSTORE PUSH32 0x4F776E61626C653A2063616C6C6572206973206E6F7420746865206F776E6572 PUSH1 0x44 DUP3 ADD MSTORE REVERT JUMPDEST ISZERO PUSH2 0xEAD JUMPI JUMP JUMPDEST PUSH1 0x40 MLOAD PUSH3 0x461BCD PUSH1 0xE5 SHL DUP2 MSTORE PUSH1 0x20 PUSH1 0x4 DUP3 ADD MSTORE PUSH1 0x17 PUSH1 0x24 DUP3 ADD MSTORE PUSH32 0x416D6F756E74206D75737420626520706F736974697665000000000000000000 PUSH1 0x44 DUP3 ADD MSTORE PUSH1 0x64 SWAP1 REVERT JUMPDEST SWAP1 PUSH1 0x1F DUP1 NOT SWAP2 ADD AND DUP2 ADD SWAP1 DUP2 LT PUSH8 0xFFFFFFFFFFFFFFFF DUP3 GT OR PUSH2 0xF14 JUMPI PUSH1 0x40 MSTORE JUMP JUMPDEST PUSH4 0x4E487B71 PUSH1 0xE0 SHL PUSH1 0x0 MSTORE PUSH1 0x41 PUSH1 0x4 MSTORE PUSH1 0x24 PUSH1 0x0 REVERT JUMPDEST SWAP1 DUP2 PUSH1 0x20 SWAP2 SUB SLT PUSH2 0xE33 JUMPI MLOAD DUP1 ISZERO ISZERO DUP2 SUB PUSH2 0xE33 JUMPI SWAP1 JUMP JUMPDEST PUSH1 0x2 PUSH1 0x0 SLOAD EQ PUSH2 0xF53 JUMPI PUSH1 0x2 PUSH1 0x0 SSTORE JUMP JUMPDEST PUSH1 0x40 MLOAD PUSH3 0x461BCD PUSH1 0xE5 SHL DUP2 MSTORE PUSH1 0x20 PUSH1 0x4 DUP3 ADD MSTORE PUSH1 0x1F PUSH1 0x24 DUP3 ADD MSTORE PUSH32 0x5265656E7472616E637947756172643A207265656E7472616E742063616C6C00 PUSH1 0x44 DUP3 ADD MSTORE PUSH1 0x64 SWAP1 REVERT JUMPDEST SWAP2 SWAP1 DUP3 ADD DUP1 SWAP3 GT PUSH2 0xFA5 JUMPI JUMP JUMPDEST PUSH4 0x4E487B71 PUSH1 0xE0 SHL PUSH1 0x0 MSTORE PUSH1 0x11 PUSH1 0x4 MSTORE PUSH1 0x24 PUSH1 0x0 REVERT JUMPDEST SWAP2 SWAP1 DUP3 SUB SWAP2 DUP3 GT PUSH2 0xFA5 JUMPI JUMP JUMPDEST DUP2 DUP2 MUL SWAP3 SWAP2 DUP2 ISZERO SWAP2 DUP5 DIV EQ OR ISZERO PUSH2 0xFA5 JUMPI JUMP JUMPDEST DUP2 ISZERO PUSH2 0xFE5 JUMPI DIV SWAP1 JUMP JUMPDEST PUSH4 0x4E487B71 PUSH1 0xE0 SHL PUSH1 0x0 MSTORE PUSH1 0x12 PUSH1 0x4 MSTORE PUSH1 0x24 PUSH1 0x0 REVERT JUMPDEST SWAP1 PUSH1 0x1 DUP1 PUSH1 0xA0 SHL SUB SWAP2 DUP3 DUP2 AND SWAP3 PUSH1 0x0 SWAP1 DUP5 DUP3 MSTORE PUSH1 0x20 SWAP2 PUSH1 0xB DUP4 MSTORE PUSH1 0x40 SWAP2 DUP3 DUP3 KECCAK256 SWAP6 AND SWAP5 DUP6 DUP3 MSTORE DUP4 MSTORE DUP2 DUP2 KECCAK256 SLOAD ISZERO PUSH2 0x11B9 JUMPI DUP6 DUP2 MSTORE PUSH1 0xB DUP4 MSTORE DUP2 DUP2 KECCAK256 DUP6 DUP3 MSTORE DUP4 MSTORE DUP2 DUP2 KECCAK256 SLOAD SWAP5 PUSH1 0x9 DUP5 MSTORE DUP3 DUP3 KECCAK256 SLOAD PUSH1 0x8 DUP6 MSTORE PUSH2 0x1059 DUP5 DUP5 KECCAK256 SLOAD NUMBER PUSH2 0xFBB JUMP JUMPDEST DUP3 DUP5 MSTORE PUSH1 0x6 DUP7 MSTORE DUP5 DUP5 KECCAK256 SLOAD SWAP1 DUP1 ISZERO ISZERO DUP1 PUSH2 0x11B0 JUMPI JUMPDEST PUSH2 0x1111 JUMPI JUMPDEST POP POP SWAP2 PUSH1 0xA SWAP8 SWAP6 SWAP4 SWAP2 PUSH2 0x10A3 SWAP8 SWAP6 SWAP4 DUP3 SWAP7 DUP2 ISZERO ISZERO DUP1 PUSH2 0x1108 JUMPI JUMPDEST PUSH2 0x10A7 JUMPI JUMPDEST POP POP POP POP POP POP PUSH2 0x2E8 SWAP2 SWAP3 POP PUSH2 0x133B JUMP JUMPDEST DIV SWAP1 JUMP JUMPDEST PUSH8 0xDE0B6B3A7640000 SWAP2 PUSH2 0x10BA SWAP2 PUSH2 0xFC8 JUMP JUMPDEST DIV SWAP4 DUP8 DUP4 MSTORE PUSH1 0xC DUP2 MSTORE DUP4 DUP4 KECCAK256 DUP3 DUP5 MSTORE DUP2 MSTORE DUP4 DUP4 KECCAK256 SLOAD DUP6 GT PUSH2 0x10DC JUMPI JUMPDEST DUP1 PUSH2 0x1092 JUMP JUMPDEST PUSH2 0x2E8 SWAP7 POP PUSH2 0x10FB SWAP6 SWAP8 DUP4 MSTORE PUSH1 0xC DUP2 MSTORE DUP4 DUP4 KECCAK256 SWAP2 DUP4 MSTORE MSTORE KECCAK256 SLOAD SWAP1 PUSH2 0xFBB JUMP JUMPDEST SWAP1 POP DUP2 CODESIZE DUP1 DUP1 DUP1 DUP1 PUSH2 0x10D6 JUMP JUMPDEST POP DUP1 ISZERO ISZERO PUSH2 0x108D JUMP JUMPDEST PUSH1 0x7 DUP8 MSTORE DUP6 DUP6 KECCAK256 SLOAD PUSH2 0x1122 SWAP2 PUSH2 0xFC8 JUMP JUMPDEST PUSH25 0x12725DD1D243ABA0E75FE645CC4873F9E65AFE688C928E1F21 DUP2 GT ISZERO DUP1 PUSH2 0x11A7 JUMPI JUMPDEST ISZERO PUSH2 0x1073 JUMPI PUSH8 0xDE0B6B3A7640000 SWAP1 DUP2 DUP2 MUL SWAP2 DUP2 DUP4 DIV EQ SWAP1 ISZERO OR ISZERO PUSH2 0x1193 JUMPI PUSH2 0x10A3 SWAP9 SWAP7 SWAP5 SWAP3 PUSH2 0x117E PUSH1 0xA SWAP12 SWAP10 SWAP8 SWAP6 SWAP4 PUSH2 0x1184 SWAP4 PUSH2 0xFDB JUMP JUMPDEST SWAP1 PUSH2 0xF98 JUMP JUMPDEST SWAP2 SWAP4 SWAP6 SWAP8 DUP2 SWAP4 SWAP6 SWAP8 SWAP10 POP PUSH2 0x1073 JUMP JUMPDEST PUSH4 0x4E487B71 PUSH1 0xE0 SHL DUP6 MSTORE PUSH1 0x11 PUSH1 0x4 MSTORE PUSH1 0x24 DUP6 REVERT JUMPDEST POP DUP2 ISZERO ISZERO PUSH2 0x1145 JUMP JUMPDEST POP DUP2 ISZERO ISZERO PUSH2 0x106E JUMP JUMPDEST SWAP5 POP POP POP POP POP SWAP1 JUMP JUMPDEST PUSH1 0x1 DUP1 PUSH1 0xA0 SHL SUB AND PUSH1 0x0 SWAP1 DUP1 DUP3 MSTORE PUSH1 0x20 PUSH1 0x8 DUP2 MSTORE PUSH1 0x40 SWAP2 PUSH2 0x11E6 DUP4 DUP6 KECCAK256 SLOAD NUMBER PUSH2 0xFBB JUMP JUMPDEST DUP2 DUP6 MSTORE PUSH1 0x6 DUP4 MSTORE DUP4 DUP6 KECCAK256 SLOAD SWAP1 DUP1 ISZERO ISZERO DUP1 PUSH2 0x1332 JUMPI JUMPDEST ISZERO PUSH2 0x1327 JUMPI PUSH1 0x7 DUP5 MSTORE DUP5 DUP7 KECCAK256 SLOAD PUSH2 0x1211 SWAP2 PUSH2 0xFC8 JUMP JUMPDEST PUSH25 0x12725DD1D243ABA0E75FE645CC4873F9E65AFE688C928E1F21 DUP2 GT PUSH2 0x12E3 JUMPI PUSH8 0xDE0B6B3A7640000 SWAP1 DUP2 DUP2 MUL SWAP2 DUP2 DUP4 DIV EQ SWAP1 ISZERO OR ISZERO PUSH2 0x12CF JUMPI SWAP1 PUSH2 0x1255 SWAP2 PUSH2 0xFDB JUMP JUMPDEST DUP2 DUP6 MSTORE PUSH1 0x9 DUP4 MSTORE DUP4 DUP6 KECCAK256 SLOAD DUP2 NOT DUP2 GT PUSH2 0x128B JUMPI PUSH1 0x8 SWAP4 SWAP3 SWAP2 PUSH2 0x1276 SWAP2 PUSH2 0xF98 JUMP JUMPDEST DUP2 DUP7 MSTORE PUSH1 0x9 DUP4 MSTORE DUP5 DUP7 KECCAK256 SSTORE JUMPDEST DUP5 MSTORE MSTORE NUMBER SWAP2 KECCAK256 SSTORE JUMP JUMPDEST DUP5 MLOAD PUSH3 0x461BCD PUSH1 0xE5 SHL DUP2 MSTORE PUSH1 0x4 DUP2 ADD DUP6 SWAP1 MSTORE PUSH1 0x1C PUSH1 0x24 DUP3 ADD MSTORE PUSH32 0x416363756D756C617465642072657761726473206F766572666C6F7700000000 PUSH1 0x44 DUP3 ADD MSTORE PUSH1 0x64 SWAP1 REVERT JUMPDEST PUSH4 0x4E487B71 PUSH1 0xE0 SHL DUP7 MSTORE PUSH1 0x11 PUSH1 0x4 MSTORE PUSH1 0x24 DUP7 REVERT JUMPDEST DUP5 MLOAD PUSH3 0x461BCD PUSH1 0xE5 SHL DUP2 MSTORE PUSH1 0x4 DUP2 ADD DUP6 SWAP1 MSTORE PUSH1 0x1C PUSH1 0x24 DUP3 ADD MSTORE PUSH32 0x526577617264732063616C63756C6174696F6E206F766572666C6F7700000000 PUSH1 0x44 DUP3 ADD MSTORE PUSH1 0x64 SWAP1 REVERT JUMPDEST POP POP SWAP1 PUSH1 0x8 SWAP2 PUSH2 0x1282 JUMP JUMPDEST POP DUP2 ISZERO ISZERO PUSH2 0x11FB JUMP JUMPDEST PUSH1 0x2 SLOAD PUSH1 0x40 MLOAD PUSH4 0x5E09EEA1 PUSH1 0xE0 SHL DUP2 MSTORE PUSH1 0x1 PUSH1 0x1 PUSH1 0xA0 SHL SUB SWAP3 DUP4 AND PUSH1 0x4 DUP3 ADD MSTORE SWAP2 PUSH1 0x20 SWAP2 DUP4 SWAP2 PUSH1 0x24 SWAP2 DUP4 SWAP2 AND GAS STATICCALL PUSH1 0x0 SWAP2 DUP2 PUSH2 0x13B1 JUMPI JUMPDEST POP PUSH2 0x137D JUMPI POP PUSH1 0xA SWAP1 JUMP JUMPDEST PUSH1 0xA DUP2 MUL SWAP1 DUP1 DUP3 DIV PUSH1 0xA EQ SWAP1 ISZERO OR ISZERO PUSH2 0xFA5 JUMPI PUSH1 0x64 SWAP1 DIV PUSH1 0xA DUP2 ADD DUP1 SWAP2 GT PUSH2 0xFA5 JUMPI PUSH1 0xA DUP2 LT ISZERO PUSH2 0x13AE JUMPI POP PUSH1 0xA SWAP1 JUMP JUMPDEST SWAP1 JUMP JUMPDEST SWAP1 SWAP2 PUSH1 0x20 DUP3 RETURNDATASIZE DUP3 GT PUSH2 0x13DC JUMPI JUMPDEST DUP2 PUSH2 0x13CB PUSH1 0x20 SWAP4 DUP4 PUSH2 0xEF2 JUMP JUMPDEST DUP2 ADD SUB SLT PUSH2 0xB7C JUMPI POP MLOAD SWAP1 CODESIZE PUSH2 0x1372 JUMP JUMPDEST RETURNDATASIZE SWAP2 POP PUSH2 0x13BE JUMP JUMPDEST PUSH1 0x2 SLOAD PUSH1 0x40 MLOAD PUSH4 0x5E09EEA1 PUSH1 0xE0 SHL DUP2 MSTORE PUSH1 0x1 PUSH1 0x1 PUSH1 0xA0 SHL SUB SWAP3 DUP4 AND PUSH1 0x4 DUP3 ADD MSTORE SWAP2 PUSH1 0x20 SWAP2 DUP4 SWAP2 PUSH1 0x24 SWAP2 DUP4 SWAP2 AND GAS STATICCALL PUSH1 0x0 SWAP2 DUP2 PUSH2 0x1426 JUMPI JUMPDEST POP PUSH2 0x13AE JUMPI POP PUSH1 0x32 SWAP1 JUMP JUMPDEST SWAP1 SWAP2 PUSH1 0x20 DUP3 RETURNDATASIZE DUP3 GT PUSH2 0x1451 JUMPI JUMPDEST DUP2 PUSH2 0x1440 PUSH1 0x20 SWAP4 DUP4 PUSH2 0xEF2 JUMP JUMPDEST DUP2 ADD SUB SLT PUSH2 0xB7C JUMPI POP MLOAD SWAP1 CODESIZE PUSH2 0x141B JUMP JUMPDEST RETURNDATASIZE SWAP2 POP PUSH2 0x1433 JUMP INVALID LOG2 PUSH5 0x6970667358 0x22 SLT KECCAK256 PUSH31 0x2149D1249A41A0914BAA96130FA2A46DB3D50AF9F99269B14DCA7D9EFE6FA5 PUSH5 0x736F6C6343 STOP ADDMOD SGT STOP CALLER "},"methodIdentifiers":{"BASIS_POINTS()":"e1f1c4a7","activePools(address)":"29a8f819","claimRewards(address)":"ef5cfb8c","createPool(address,uint256,uint256)":"b039ddf6","emergencyWithdraw(address)":"6ff1c9bc","getPendingRewards(address,address)":"7a27db57","getUserTotalStaked(address)":"6e2f1696","owner()":"8da5cb5b","poolAccRewardsPerShare(address)":"49d638f7","poolLastUpdateBlock(address)":"db85a481","poolRewardsPerBlock(address)":"0a6dcb02","poolTotalStaked(address)":"1ada6c08","poolTrustMultiplier(address)":"328b071b","protocolFee()":"b0e21e8a","renounceOwnership()":"715018a6","stake(address,uint256)":"adc9772e","totalValueLocked()":"ec18154e","transferOwnership(address)":"f2fde38b","trustEngine()":"77aa980d","unstake(address,uint256)":"c2a672e0","userRewardDebt(address,address)":"1d030ac9","userStakedAmount(address,address)":"8302fe11","userTrustScore(address,address)":"846c5658"}}}}}