{"contracts/TrustEngine.sol":{"TrustEngine":{"abi":[{"inputs":[],"stateMutability":"nonpayable","type":"constructor"},{"anonymous":false,"inputs":[{"indexed":true,"internalType":"address","name":"wallet","type":"address"},{"indexed":false,"internalType":"string","name":"dataType","type":"string"},{"indexed":false,"internalType":"uint256","name":"value","type":"uint256"}],"name":"EnvironmentalDataAdded","type":"event"},{"anonymous":false,"inputs":[{"indexed":true,"internalType":"address","name":"wallet","type":"address"},{"indexed":false,"internalType":"uint256","name":"temp","type":"uint256"},{"indexed":false,"internalType":"uint256","name":"humidity","type":"uint256"}],"name":"EnvironmentalDataUpdated","type":"event"},{"anonymous":false,"inputs":[{"indexed":true,"internalType":"address","name":"wallet","type":"address"}],"name":"OriginWalletRegistered","type":"event"},{"anonymous":false,"inputs":[{"indexed":true,"internalType":"address","name":"previousOwner","type":"address"},{"indexed":true,"internalType":"address","name":"newOwner","type":"address"}],"name":"OwnershipTransferred","type":"event"},{"anonymous":false,"inputs":[{"indexed":false,"internalType":"address","name":"account","type":"address"}],"name":"Paused","type":"event"},{"anonymous":false,"inputs":[{"indexed":true,"internalType":"address","name":"wallet","type":"address"},{"indexed":false,"internalType":"uint256","name":"privacyLevel","type":"uint256"}],"name":"PrivacyConfigUpdated","type":"event"},{"anonymous":false,"inputs":[{"indexed":true,"internalType":"address","name":"wallet","type":"address"},{"indexed":false,"internalType":"string","name":"reason","type":"string"}],"name":"SuspiciousActivityDetected","type":"event"},{"anonymous":false,"inputs":[{"indexed":true,"internalType":"address","name":"delegator","type":"address"},{"indexed":true,"internalType":"address","name":"delegate","type":"address"},{"indexed":false,"internalType":"uint256","name":"amount","type":"uint256"}],"name":"TrustDelegated","type":"event"},{"anonymous":false,"inputs":[{"indexed":true,"internalType":"address","name":"delegator","type":"address"},{"indexed":true,"internalType":"address","name":"delegate","type":"address"}],"name":"TrustDelegationRevoked","type":"event"},{"anonymous":false,"inputs":[{"indexed":true,"internalType":"address","name":"wallet","type":"address"},{"indexed":false,"internalType":"uint256","name":"baseScore","type":"uint256"},{"indexed":false,"internalType":"uint256","name":"effectiveScore","type":"uint256"}],"name":"TrustScoreUpdated","type":"event"},{"anonymous":false,"inputs":[{"indexed":false,"internalType":"address","name":"account","type":"address"}],"name":"Unpaused","type":"event"},{"anonymous":false,"inputs":[{"indexed":true,"internalType":"address","name":"validator","type":"address"}],"name":"ValidatorAdded","type":"event"},{"anonymous":false,"inputs":[{"indexed":true,"internalType":"address","name":"validator","type":"address"}],"name":"ValidatorRegistered","type":"event"},{"anonymous":false,"inputs":[{"indexed":true,"internalType":"address","name":"validator","type":"address"}],"name":"ValidatorRemoved","type":"event"},{"inputs":[],"name":"DELEGATION_DECAY_RATE","outputs":[{"internalType":"uint256","name":"","type":"uint256"}],"stateMutability":"view","type":"function"},{"inputs":[],"name":"MAX_DELEGATION_DEPTH","outputs":[{"internalType":"uint256","name":"","type":"uint256"}],"stateMutability":"view","type":"function"},{"inputs":[],"name":"MAX_TRUST_SCORE","outputs":[{"internalType":"uint256","name":"","type":"uint256"}],"stateMutability":"view","type":"function"},{"inputs":[],"name":"MIN_TRUST_SCORE","outputs":[{"internalType":"uint256","name":"","type":"uint256"}],"stateMutability":"view","type":"function"},{"inputs":[{"internalType":"address","name":"wallet","type":"address"},{"internalType":"string","name":"dataType","type":"string"},{"internalType":"uint256","name":"value","type":"uint256"},{"internalType":"string","name":"location","type":"string"},{"internalType":"uint256","name":"confidence","type":"uint256"},{"internalType":"bytes","name":"signature","type":"bytes"}],"name":"addEnvironmentalData","outputs":[],"stateMutability":"nonpayable","type":"function"},{"inputs":[{"internalType":"address","name":"validator","type":"address"}],"name":"addValidator","outputs":[],"stateMutability":"nonpayable","type":"function"},{"inputs":[{"internalType":"address","name":"wallet","type":"address"}],"name":"calculateTrustMultiplier","outputs":[{"internalType":"uint256","name":"","type":"uint256"}],"stateMutability":"view","type":"function"},{"inputs":[{"internalType":"address","name":"delegate","type":"address"},{"internalType":"uint256","name":"amount","type":"uint256"}],"name":"delegateTrust","outputs":[],"stateMutability":"nonpayable","type":"function"},{"inputs":[{"internalType":"address","name":"","type":"address"}],"name":"delegationCount","outputs":[{"internalType":"uint256","name":"","type":"uint256"}],"stateMutability":"view","type":"function"},{"inputs":[{"internalType":"address","name":"","type":"address"},{"internalType":"uint256","name":"","type":"uint256"}],"name":"delegations","outputs":[{"internalType":"address","name":"delegator","type":"address"},{"internalType":"address","name":"delegate","type":"address"},{"internalType":"uint256","name":"amount","type":"uint256"},{"internalType":"uint256","name":"timestamp","type":"uint256"},{"internalType":"bool","name":"isActive","type":"bool"},{"internalType":"uint256","name":"depth","type":"uint256"}],"stateMutability":"view","type":"function"},{"inputs":[{"internalType":"address","name":"","type":"address"},{"internalType":"uint256","name":"","type":"uint256"}],"name":"environmentalData","outputs":[{"internalType":"uint256","name":"timestamp","type":"uint256"},{"internalType":"string","name":"dataType","type":"string"},{"internalType":"uint256","name":"value","type":"uint256"},{"internalType":"string","name":"location","type":"string"},{"internalType":"uint256","name":"confidence","type":"uint256"},{"internalType":"bytes","name":"signature","type":"bytes"}],"stateMutability":"view","type":"function"},{"inputs":[{"internalType":"address","name":"","type":"address"}],"name":"environmentalDataCount","outputs":[{"internalType":"uint256","name":"","type":"uint256"}],"stateMutability":"view","type":"function"},{"inputs":[{"internalType":"address","name":"","type":"address"}],"name":"environmentalHashes","outputs":[{"internalType":"uint256","name":"","type":"uint256"}],"stateMutability":"view","type":"function"},{"inputs":[{"internalType":"address","name":"wallet","type":"address"}],"name":"getEnvironmentalData","outputs":[{"internalType":"uint256","name":"temp","type":"uint256"},{"internalType":"uint256","name":"humidity","type":"uint256"},{"internalType":"uint256","name":"pressure","type":"uint256"},{"internalType":"uint256","name":"timestamp","type":"uint256"}],"stateMutability":"view","type":"function"},{"inputs":[{"internalType":"address","name":"wallet","type":"address"}],"name":"getPrivacyConfig","outputs":[{"components":[{"internalType":"bool","name":"shareAnalytics","type":"bool"},{"internalType":"bool","name":"shareTopology","type":"bool"},{"internalType":"bool","name":"shareTrustScore","type":"bool"},{"internalType":"bool","name":"shareEnvironmentalData","type":"bool"},{"internalType":"uint256","name":"privacyLevel","type":"uint256"},{"internalType":"bool","name":"consentGiven","type":"bool"},{"internalType":"uint256","name":"consentTimestamp","type":"uint256"}],"internalType":"struct TrustEngine.PrivacyConfig","name":"","type":"tuple"}],"stateMutability":"view","type":"function"},{"inputs":[{"internalType":"address","name":"wallet","type":"address"}],"name":"getTrustDelegations","outputs":[{"components":[{"internalType":"address","name":"delegator","type":"address"},{"internalType":"address","name":"delegate","type":"address"},{"internalType":"uint256","name":"amount","type":"uint256"},{"internalType":"uint256","name":"timestamp","type":"uint256"},{"internalType":"bool","name":"isActive","type":"bool"},{"internalType":"uint256","name":"depth","type":"uint256"}],"internalType":"struct TrustEngine.TrustDelegation[]","name":"","type":"tuple[]"}],"stateMutability":"view","type":"function"},{"inputs":[{"internalType":"address","name":"wallet","type":"address"}],"name":"getTrustScore","outputs":[{"internalType":"uint256","name":"","type":"uint256"}],"stateMutability":"view","type":"function"},{"inputs":[{"internalType":"address","name":"wallet","type":"address"}],"name":"getTrustScoreValue","outputs":[{"internalType":"uint256","name":"","type":"uint256"}],"stateMutability":"view","type":"function"},{"inputs":[{"internalType":"address","name":"","type":"address"}],"name":"hasTrustScore","outputs":[{"internalType":"bool","name":"","type":"bool"}],"stateMutability":"view","type":"function"},{"inputs":[{"internalType":"address","name":"wallet","type":"address"},{"internalType":"uint256","name":"baseScore","type":"uint256"}],"name":"initializeTrustScore","outputs":[],"stateMutability":"nonpayable","type":"function"},{"inputs":[{"internalType":"address","name":"wallet","type":"address"}],"name":"isOriginWallet","outputs":[{"internalType":"bool","name":"","type":"bool"}],"stateMutability":"view","type":"function"},{"inputs":[{"internalType":"address","name":"validator","type":"address"}],"name":"isValidator","outputs":[{"internalType":"bool","name":"","type":"bool"}],"stateMutability":"view","type":"function"},{"inputs":[{"internalType":"address","name":"","type":"address"}],"name":"lastUpdateTime","outputs":[{"internalType":"uint256","name":"","type":"uint256"}],"stateMutability":"view","type":"function"},{"inputs":[{"internalType":"address","name":"","type":"address"}],"name":"originWallets","outputs":[{"internalType":"bool","name":"","type":"bool"}],"stateMutability":"view","type":"function"},{"inputs":[],"name":"owner","outputs":[{"internalType":"address","name":"","type":"address"}],"stateMutability":"view","type":"function"},{"inputs":[],"name":"pause","outputs":[],"stateMutability":"nonpayable","type":"function"},{"inputs":[],"name":"paused","outputs":[{"internalType":"bool","name":"","type":"bool"}],"stateMutability":"view","type":"function"},{"inputs":[{"internalType":"address","name":"","type":"address"}],"name":"privacyConfigs","outputs":[{"internalType":"bool","name":"shareAnalytics","type":"bool"},{"internalType":"bool","name":"shareTopology","type":"bool"},{"internalType":"bool","name":"shareTrustScore","type":"bool"},{"internalType":"bool","name":"shareEnvironmentalData","type":"bool"},{"internalType":"uint256","name":"privacyLevel","type":"uint256"},{"internalType":"bool","name":"consentGiven","type":"bool"},{"internalType":"uint256","name":"consentTimestamp","type":"uint256"}],"stateMutability":"view","type":"function"},{"inputs":[{"internalType":"address","name":"validator","type":"address"}],"name":"registerValidator","outputs":[],"stateMutability":"nonpayable","type":"function"},{"inputs":[{"internalType":"address","name":"validator","type":"address"}],"name":"removeValidator","outputs":[],"stateMutability":"nonpayable","type":"function"},{"inputs":[],"name":"renounceOwnership","outputs":[],"stateMutability":"nonpayable","type":"function"},{"inputs":[{"internalType":"address","name":"delegate","type":"address"},{"internalType":"uint256","name":"delegationIndex","type":"uint256"}],"name":"revokeTrustDelegation","outputs":[],"stateMutability":"nonpayable","type":"function"},{"inputs":[{"internalType":"address","name":"wallet","type":"address"},{"internalType":"uint256","name":"frequency","type":"uint256"}],"name":"setUpdateFrequency","outputs":[],"stateMutability":"nonpayable","type":"function"},{"inputs":[{"internalType":"uint256","name":"temp","type":"uint256"},{"internalType":"uint256","name":"humidity","type":"uint256"},{"internalType":"uint256","name":"pressure","type":"uint256"}],"name":"submitEnvironmentalData","outputs":[],"stateMutability":"nonpayable","type":"function"},{"inputs":[{"internalType":"address","name":"","type":"address"}],"name":"suspiciousActivityCount","outputs":[{"internalType":"uint256","name":"","type":"uint256"}],"stateMutability":"view","type":"function"},{"inputs":[{"internalType":"address","name":"newOwner","type":"address"}],"name":"transferOwnership","outputs":[],"stateMutability":"nonpayable","type":"function"},{"inputs":[{"internalType":"address","name":"","type":"address"}],"name":"trustScores","outputs":[{"internalType":"uint256","name":"baseScore","type":"uint256"},{"internalType":"uint256","name":"effectiveScore","type":"uint256"},{"internalType":"uint256","name":"reputation","type":"uint256"},{"internalType":"uint256","name":"stakeAmount","type":"uint256"},{"internalType":"uint256","name":"delegationDepth","type":"uint256"},{"internalType":"bool","name":"isOriginWallet","type":"bool"},{"internalType":"bool","name":"isValidator","type":"bool"},{"internalType":"uint256","name":"lastUpdate","type":"uint256"},{"internalType":"uint256","name":"environmentalScore","type":"uint256"},{"internalType":"uint256","name":"privacyScore","type":"uint256"}],"stateMutability":"view","type":"function"},{"inputs":[],"name":"unpause","outputs":[],"stateMutability":"nonpayable","type":"function"},{"inputs":[{"internalType":"address","name":"","type":"address"}],"name":"updateFrequency","outputs":[{"internalType":"uint256","name":"","type":"uint256"}],"stateMutability":"view","type":"function"},{"inputs":[{"internalType":"bool","name":"shareAnalytics","type":"bool"},{"internalType":"bool","name":"shareTopology","type":"bool"},{"internalType":"bool","name":"shareTrustScore","type":"bool"},{"internalType":"bool","name":"shareEnvironmentalData","type":"bool"},{"internalType":"uint256","name":"privacyLevel","type":"uint256"}],"name":"updatePrivacyConfig","outputs":[],"stateMutability":"nonpayable","type":"function"},{"inputs":[{"internalType":"uint256","name":"newScore","type":"uint256"}],"name":"updateTrustScore","outputs":[],"stateMutability":"nonpayable","type":"function"},{"inputs":[{"internalType":"address","name":"wallet","type":"address"},{"internalType":"uint256","name":"newBaseScore","type":"uint256"},{"internalType":"uint256","name":"environmentalContribution","type":"uint256"},{"internalType":"uint256","name":"privacyCompliance","type":"uint256"}],"name":"updateTrustScore","outputs":[],"stateMutability":"nonpayable","type":"function"},{"inputs":[{"internalType":"address","name":"","type":"address"}],"name":"validators","outputs":[{"internalType":"bool","name":"","type":"bool"}],"stateMutability":"view","type":"function"}],"evm":{"bytecode":{"linkReferences":{},"object":"6080806040523461008b576001600081815581546001600160a81b0319811633600881811b610100600160a81b0316929092179094551c6001600160a01b0316907f8be0079c531659141344cd1fd0a4f28419497f9722a3daafe3b4186f6b6457e09080a360016002540160025533600052600e60205261012c60406000205561309190816100918239f35b600080fdfe608080604052600436101561001357600080fd5b60e0600035811c9182630427bcda1461249057508163057e709c1461247457816312df0fc4146123ce57816313bb6a91146123b2578163223fae091461232057816329afd353146112115781632ce9aead146122e657816332412d8214611f7c57816334ae18e314611dbc5781633f4ba83a14611d285781633fa70f3414611cee57816340a141ff14611c0d578163417914d51461189257816345e97f80146118585781634cf915c9146116be5781634d238c8e1461165557816356ca0b781461148857816358fb52181461144e5781635b2ccd7c146112395781635c975abb146112165781635d793350146108965781635e09eea1146112115781636e548f20146111d2578163715018a6146111715781637257d17a146110ab57816374c8d3771461108e5781637969a713146110725781638456cb59146110195781638da5cb5b14610fec5781638ecdf7ea14610fb15781639fca516914610e5c578163b007945e146109db578163bdea05e9146108d5578163bdf1631614610896578163c6ee59fc14610736578163cb188c9c1461070b578163d7774f7d14610416578163f2fde38b14610342578163f431060814610308578163f8d008131461027d57508063fa52c7d81461023e578063facd743b1461023e5763fec43acb146101fa57600080fd5b34610239576040366003190112610239576102136124c6565b61021b612765565b6001600160a01b03166000908152600e602052604090206024359055005b600080fd5b34610239576020366003190112610239576001600160a01b0361025f6124c6565b16600052600b602052602060ff604060002054166040519015158152f35b34610239576020366003190112610239576001600160a01b0361029e6124c6565b16600052600a6020526040600020805490600181015490600360ff6002830154169101549160ff6040519481811615158652818160081c1615156020870152818160101c161515604087015260181c16151560608501526080840152151560a083015260c0820152f35b34610239576020366003190112610239576001600160a01b036103296124c6565b16600052600f6020526020604060002054604051908152f35b346102395760203660031901126102395761035b6124c6565b610363612765565b6001600160a01b038181169182156103c25760018054610100600160a81b03198116600893841b610100600160a81b031617909155901c167f8be0079c531659141344cd1fd0a4f28419497f9722a3daafe3b4186f6b6457e0600080a3005b60405162461bcd60e51b815260206004820152602660248201527f4f776e61626c653a206e6577206f776e657220697320746865207a65726f206160448201526564647265737360d01b6064820152608490fd5b346102395760a0366003190112610239576004358015158091036102395760249081359081151580920361023957604435928315158094036102395760643593841515809503610239576084359461046c61280c565b600186101580610700575b156106b157604051936104898561256a565b8452602084019485526040840191825260608401908152608084019186835260a0850160018152600360c0870142815233600052600a6020526105416040600020936104e48a511515869060ff801983541691151516179055565b8a51855461ff00191690151560081b61ff001617855585511515855462ff000063ff0000008a51151560181b169260101b169063ffff000019161717855587516001860155511515600285019060ff801983541691151516179055565b51910155600460205260ff60406000205416610587575b866040519081527fc93c11ad06ee16be9628da955f88c0211fe5413de6b9def703f50ed8e0a7288f60203392a2005b6003602052604060002095606495516106a8575b51610680575b51610658575b51610630575b51600381036106105750601482018092116105fc57505b60648111156105f7575060645b600882015560016105e96105e483612920565b612cb1565b910155818080808080610558565b6105d1565b634e487b7160e01b60009081526011600452fd5b60021461061e575b506105c4565b600a82018092116105fc575083610618565b91601819810190811161064357916105ad565b50634e487b7160e01b60009081526011600452fd5b92601319810190811161066b57926105a7565b82634e487b7160e01b60005260116004526000fd5b93600e19810190811161069357936105a1565b83634e487b7160e01b60005260116004526000fd5b605a955061059b565b60405162461bcd60e51b8152602060048201526022818501527f5472757374456e67696e653a20496e76616c69642070726976616379206c6576604482015261195b60f21b6064820152608490fd5b506003861115610477565b3461023957602036600319011261023957602061072e6107296124c6565b612f9f565b604051908152f35b3461023957602080600319360112610239576001600160a01b03908161075a6124c6565b166000526005808252604060002090815467ffffffffffffffff811161088057604051939161078d82821b8401866125be565b81855260009384528284208386019491855b84841061081e57505050505060405192818401908285525180915260408401929160005b8281106107d05785850386f35b835180518816865280830151881686840152604080820151908701526060808201519087015260808082015115159087015260a0908101519086015260c090940193928101926001016107c3565b60068660019260409a989a5161083381612531565b8c87541681528c858801541683820152600287015460408201526003870154606082015260ff600488015416151560808201528587015460a082015281520193019301929196949661079f565b634e487b7160e01b600052604160045260246000fd5b34610239576020366003190112610239576001600160a01b036108b76124c6565b16600052600c602052602060ff604060002054166040519015158152f35b34610239576020366003190112610239576108ee6124c6565b600060c06040516108fe8161256a565b8281528260208201528260408201528260608201528260808201528260a0820152015260018060a01b0316600052600a60205260406000206040516109428161256a565b81549160ff8316151592838352602083019060ff8160081c16151582526040840160ff8260101c161515815260ff606086019260181c16151582526001840154926080860193845260c0600360ff6002880154169660a0890197151588520154960195865260405196875251151560208701525115156040860152511515606085015251608084015251151560a08301525160c0820152f35b3461023957606090816003193601126102395760043560249182359160443591610a0361280c565b336000526020906004825260ff6040600020541615610d66575b506107d082101580610d5a575b15610d21576103e884101580610d15575b15610cdf576201388083101580610cd2575b15610c9c57610bb8604051610a6181612531565b428152604051610a7081612586565b600b81526a74656d706572617475726560a81b8482015283820152836040820152610a99612d70565b8882015260646080820152604051610ab0816125a2565b6000815260a0820152610ba6604051610ac881612531565b428152604051610ad781612586565b600881526768756d696469747960c01b8682015285820152876040820152610afd612d70565b8a82015260646080820152604051610b14816125a2565b6000815260a0820152610b9460405193610b2d85612531565b428552604051610b3c81612586565b6008815267707265737375726560c01b8882015287860152886040860152610b62612d70565b8c86015260646080860152604051610b79816125a2565b6000815260a0860152336000526007875260406000206129fa565b336000526007855260406000206129fa565b336000526007835260406000206129fa565b3360005260088152604060002080549060038201809211610c87575533600052600381526040600020610bea33612deb565b600782015560064291015560405192818401968388528560408601528401524260808401526080835260a083019483861067ffffffffffffffff871117610c7357506009859660c0959660405284519020913360005252604060002055845201527f13c9812af128e255f4174fac4d52d7b25defd3d4ae5e30d5a1dff274ed7c0dd560403392a2005b634e487b7160e01b60009081526041600452fd5b86634e487b7160e01b60005260116004526000fd5b6064906010866040519262461bcd60e51b845260048401528201526f496e76616c696420707265737375726560801b6044820152fd5b506201d4c0831115610a4d565b6064906010866040519262461bcd60e51b845260048401528201526f496e76616c69642068756d696469747960801b6044820152fd5b50612710841115610a3b565b6064906013866040519262461bcd60e51b8452600484015282015272496e76616c69642074656d706572617475726560681b6044820152fd5b50611388821115610a2a565b600860405191610d758361254d565b603283528383019060328252604084019060648252610e278b8601916000835260808701906000825260a08801916000835260c0890191600083528901944286526101008a0196600088526101208b019860648a523360005260038d5260406000209b518c555160018c01555160028b01555160038a0155516004890155610e106005890192511515839060ff801983541691151516179055565b51815461ff00191690151560081b61ff0016179055565b51600685015551600784015551910155600481526040600020600160ff19825416179055600d81524260406000205586610a1d565b346102395760208060031936011261023957610e766124c6565b610e7e612765565b610e8661280c565b6001600160a01b0316600081815260048352604090205490919060ff1615610f585781600052600b815260ff60406000205416610f155760039082600052600b81526040600020600160ff1982541617905552600560406000200161010061ff00198254161790557fd09501348473474a20c772c79c653e1fd7e8b437e418fe235d277d2c88853251600080a2005b6064906040519062461bcd60e51b825280600483015260248201527f5472757374456e67696e653a20416c726561647920612076616c696461746f726044820152fd5b6084906040519062461bcd60e51b82526004820152602c60248201527f5472757374456e67696e653a2056616c696461746f72206d757374206861766560448201526b2074727573742073636f726560a01b6064820152fd5b34610239576020366003190112610239576080610fd4610fcf6124c6565b612e9b565b91604051938452602084015260408301526060820152f35b346102395760003660031901126102395760015460405160089190911c6001600160a01b03168152602090f35b3461023957600036600319011261023957611032612765565b61103a61280c565b600160ff19815416176001557f62e78cea01bee320cd4e420270b5ea74000d11b0c9f74754ebdbfc544b05a2586020604051338152a1005b3461023957600036600319011261023957602060405160058152f35b346102395760003660031901126102395760206040516103e88152f35b34610239576040366003190112610239576110c46124c6565b6001600160a01b03166000908152600760205260409020805460243590811015610239576110f1916124dc565b50805461116d6111036001840161267f565b92600281015461115a6111186003840161267f565b9161112a60056004860154950161267f565b92611147604051988998895260c060208a015260c0890190612725565b9160408801528682036060880152612725565b91608085015283820360a0850152612725565b0390f35b346102395760003660031901126102395761118a612765565b60018054610100600160a81b0319811690915560009060081c6001600160a01b03167f8be0079c531659141344cd1fd0a4f28419497f9722a3daafe3b4186f6b6457e08280a3005b34610239576020366003190112610239576001600160a01b036111f36124c6565b166000526004602052602060ff604060002054166040519015158152f35b61250e565b3461023957600036600319011261023957602060ff600154166040519015158152f35b346102395760c0366003190112610239576112526124c6565b67ffffffffffffffff9060243582811161023957611274903690600401612627565b9060443560643584811161023957611290903690600401612627565b6084359460a4359081116102395736602382011215610239576112bd9036906024816004013591016125e0565b33600052602093600b85526112d960ff60406000205416612850565b6112e161280c565b60018060a01b031695866000526004855261130360ff604060002054166128b8565b6064811161140b578151156113b1576113a894927f8408447970dcf8c9a0df3798550966e2211febe63ba8914a95ba2c05e7fd79b996949261137b926040519261134c84612531565b42845287878501528560408501526060840152608083015260a0820152876000526007845260406000206129fa565b856000526008825260406000206113928154612997565b9055604051938493604085526040850190612725565b918301520390a2005b60405162461bcd60e51b815260048101869052602c60248201527f5472757374456e67696e653a20496e76616c696420656e7669726f6e6d656e7460448201526b616c207369676e617475726560a01b6064820152608490fd5b6064856040519062461bcd60e51b825280600483015260248201527f5472757374456e67696e653a20436f6e666964656e636520746f6f20686967686044820152fd5b34610239576020366003190112610239576001600160a01b0361146f6124c6565b1660005260066020526020604060002054604051908152f35b34610239576040366003190112610239576114a16124c6565b6024356114ac61280c565b3360005260209060058252604060002054811015611602576114da90336000526005835260406000206124dc565b5060018101546001600160a01b0393841693168390036115bd57600401805460ff8116156115675760ff19169055816000526004815260ff60406000205416611547575b50337f5145eb55dda20f7829838af8f45d7e416f925a24ccc15ad0c788fb26a84a0e95600080a3005b600390526040600020600161155e6105e483612920565b9101558161151e565b60405162461bcd60e51b815260048101849052602860248201527f5472757374456e67696e653a2044656c65676174696f6e20616c726561647920604482015267696e61637469766560c01b6064820152608490fd5b60405162461bcd60e51b815260048101839052601e60248201527f5472757374456e67696e653a2044656c6567617465206d69736d6174636800006044820152606490fd5b60405162461bcd60e51b815260048101839052602560248201527f5472757374456e67696e653a20496e76616c69642064656c65676174696f6e206044820152640d2dcc8caf60db1b6064820152608490fd5b346102395760203660031901126102395761166e6124c6565b611676612765565b6001600160a01b03166000818152600b60205260408120805460ff191660011790557fe366c1c0452ed8eec96861e9e54141ebff23c9ec89fe27b996b45f5ec38849879080a2005b34610239576040366003190112610239576116d76124c6565b602435906116e3612765565b6116eb61280c565b60018060a01b031691826000526020906004825260ff604060002054166118035791600060409260008051602061303c8339815191529461172f60648511156127c0565b60088786519261173e8461254d565b868452848401908782526117cd89860191606483526060870190898252608088018a815260a08901928b845260c08a01928c84528a01954287526101008b01978d89526101208c019960648b528e5260038d528f8e209b518c555160018c01555160028b01555160038a0155516004890155610e106005890192511515839060ff801983541691151516179055565b5160068501555160078401555191015560048152838220600160ff19825416179055600d815242848320558351928352820152a2005b60405162461bcd60e51b815260048101839052602760248201527f5472757374456e67696e653a2054727573742073636f726520616c72656164796044820152662065786973747360c81b6064820152608490fd5b34610239576020366003190112610239576001600160a01b036118796124c6565b16600052600e6020526020604060002054604051908152f35b34610239576080366003190112610239576118ab6124c6565b6024908135916044359060649485359133600052602094600b86526118d760ff60406000205416612850565b6118df61280c565b60018060a01b031696876000526004865261190160ff604060002054166128b8565b87600052600d8652611922604060002054600e885260406000205490612913565b4210611bcd576103e88711611b8d57808511611b3957808411611aeb5750866000526004855260ff604060002054166119b4575b8660008051602061303c83398151915260408860018989898760005260038352856000209185835560078301556008820155426006820155600d82524285600020556119a46105e482612920565b92839101558351928352820152a2005b600385526119c56040600020612920565b908151908160011b91808304600214901517156105fc575092603c611a0b6040979489979460019760008051602061303c8339815191529b11611a82575b015142612ca4565b10611a1d575b92509294819450611956565b87600052600f835285600020611a338154612997565b9055877f3fdeea3275f7d2907f5b589f76bea42ede0236c2646b61eaace386b41c44972d606088518681526010878201526f4672657175656e74207570646174657360801b8a820152a2611a11565b8b600052600f875289600020611a988154612997565b90558b7f3fdeea3275f7d2907f5b589f76bea42ede0236c2646b61eaace386b41c44972d60608c518a815260148b8201527352617069642073636f726520696e63726561736560601b8e820152a2611a03565b620d2ced60eb1b869160236084946040519462461bcd60e51b865260048601528401527f5472757374456e67696e653a20507269766163792073636f726520746f6f20686044840152820152fd5b68040e8dede40d0d2ced60bb1b869160296084946040519462461bcd60e51b865260048601528401527f5472757374456e67696e653a20456e7669726f6e6d656e74616c2073636f72656044840152820152fd5b90856040519162461bcd60e51b83528160048401528201527f5472757374456e67696e653a20426173652073636f726520746f6f20686967686044820152fd5b90856040519162461bcd60e51b83528160048401528201527f5472757374456e67696e653a2055706461746520746f6f206672657175656e746044820152fd5b3461023957602036600319011261023957611c266124c6565b611c2e612765565b611c3661280c565b6001600160a01b03166000818152600b602052604090205460ff1615611ca95780600052600b602052604060002060ff1981541690556003602052600560406000200161ff001981541690557fe1434e25d6611e0db941968fdc97811c982ac1602e951637d206f5fdda9dd8f1600080a2005b60405162461bcd60e51b815260206004820152601c60248201527f5472757374456e67696e653a204e6f7420612076616c696461746f72000000006044820152606490fd5b34610239576020366003190112610239576001600160a01b03611d0f6124c6565b1660005260086020526020604060002054604051908152f35b3461023957600036600319011261023957611d41612765565b60015460ff811615611d805760ff19166001557f5db9ee0a495bf2e6ff9c91a7834c1ba4fdd244a5e8aa4e537bd38aeae4b073aa6020604051338152a1005b60405162461bcd60e51b815260206004820152601460248201527314185d5cd8589b194e881b9bdd081c185d5cd95960621b6044820152606490fd5b346102395760208060031936011261023957600435611dd961280c565b336000526004825260ff6040600020541615611f3757611dfc60648211156127c0565b336000526008825260406000205415611efa573360005260078252604060002060088352604060002054906000198201918211611ee457611e4c611e4661012c93611e53936124dc565b50612d90565b5142612ca4565b11611e9f5733600052600382526040600020818155816001820155600642910155600d8252426040600020556040519181835282015260008051602061303c83398151915260403392a2005b60405162461bcd60e51b815260048101839052601a60248201527f456e7669726f6e6d656e74616c206461746120746f6f206f6c640000000000006044820152606490fd5b634e487b7160e01b600052601160045260246000fd5b60405162461bcd60e51b81526004810183905260156024820152744e6f20656e7669726f6e6d656e74616c206461746160581b6044820152606490fd5b60405162461bcd60e51b815260048101839052601b60248201527f5472757374456e67696e653a204e6f2074727573742073636f726500000000006044820152606490fd5b3461023957604036600319011261023957611f956124c6565b611f9d61280c565b336000526004602052611fb760ff604060002054166128b8565b6001600160a01b038116600090815260046020526040902054611fdc9060ff166128b8565b6001600160a01b0381163314612295576024351561223857336000526006602052600a60406000205410156121e95760036020526001600160a01b0381166000908152604090206004810154600581101561218e5760018101809111611ee45760405161204881612531565b338152602081019060018060a01b038516825260408101906024358252606081019242845260808201946001865260a083015233600052600560205260406000208054600160401b811015610880576120a6916001820181556124dc565b95909561217857825186546001600160a01b039182166001600160a01b031991821617885592516001880180549190921693169290921790915591516002850155915160038401555160048301805460ff191691151560ff1691909117905560059060a0015191015533600052600660205260406000206121278154612997565b905560016121376105e483612920565b91015560405160243581526001600160a01b039091169033907fb58a34790b02732ce9546bed68ef7d135420000706c11f509044f1a0ebdba83b90602090a3005b634e487b7160e01b600052600060045260246000fd5b60405162461bcd60e51b815260206004820152602d60248201527f5472757374456e67696e653a2044656c6567617465206174206d61782064656c60448201526c0cacec2e8d2dedc40c8cae0e8d609b1b6064820152608490fd5b60405162461bcd60e51b815260206004820152602160248201527f5472757374456e67696e653a20546f6f206d616e792064656c65676174696f6e6044820152607360f81b6064820152608490fd5b60405162461bcd60e51b815260206004820152602f60248201527f5472757374456e67696e653a2044656c65676174696f6e20616d6f756e74206d60448201526e75737420626520706f73697469766560881b6064820152608490fd5b60405162461bcd60e51b8152602060048201526024808201527f5472757374456e67696e653a2043616e6e6f742064656c656761746520746f2060448201526339b2b63360e11b6064820152608490fd5b34610239576020366003190112610239576001600160a01b036123076124c6565b16600052600d6020526020604060002054604051908152f35b34610239576040366003190112610239576123396124c6565b6024359060018060a01b038091166000526005602052604060002080548310156102395760c092612369916124dc565b508181541691600182015416906002810154600382015490600560ff600485015416930154936040519586526020860152604085015260608401521515608083015260a0820152f35b34610239576000366003190112610239576020604051600a8152f35b3461023957602036600319011261023957610140906001600160a01b036123f36124c6565b16600052600360205260406000209081549160018101549160028201549060ff6003840154600485015460058601549160068701549560086007890154980154986040519a8b5260208b015260408a015260608901526080880152818116151560a088015260081c16151560c0860152840152610100830152610120820152f35b3461023957600036600319011261023957602060405160008152f35b34610239576020366003190112610239576020906001600160a01b036124b46124c6565b16600052600982526040600020548152f35b600435906001600160a01b038216820361023957565b80548210156124f8576000526006602060002091020190600090565b634e487b7160e01b600052603260045260246000fd5b3461023957602036600319011261023957602061072e61252c6124c6565b612e65565b60c0810190811067ffffffffffffffff82111761088057604052565b610140810190811067ffffffffffffffff82111761088057604052565b60e0810190811067ffffffffffffffff82111761088057604052565b6040810190811067ffffffffffffffff82111761088057604052565b6020810190811067ffffffffffffffff82111761088057604052565b90601f8019910116810190811067ffffffffffffffff82111761088057604052565b92919267ffffffffffffffff8211610880576040519161260a601f8201601f1916602001846125be565b829481845281830111610239578281602093846000960137010152565b9080601f8301121561023957816020612642933591016125e0565b90565b90600182811c92168015612675575b602083101461265f57565b634e487b7160e01b600052602260045260246000fd5b91607f1691612654565b906040519182600082549261269384612645565b90818452600194858116908160001461270257506001146126bf575b50506126bd925003836125be565b565b9093915060005260209081600020936000915b8183106126ea5750506126bd935082010138806126af565b855488840185015294850194879450918301916126d2565b9150506126bd94506020925060ff191682840152151560051b82010138806126af565b919082519283825260005b848110612751575050826000602080949584010152601f8019910116010190565b602081830181015184830182015201612730565b60015460081c6001600160a01b0316330361277c57565b606460405162461bcd60e51b815260206004820152602060248201527f4f776e61626c653a2063616c6c6572206973206e6f7420746865206f776e65726044820152fd5b156127c757565b60405162461bcd60e51b815260206004820152601a60248201527f54727573742073636f7265206d757374206265203c3d203130300000000000006044820152606490fd5b60ff6001541661281857565b60405162461bcd60e51b815260206004820152601060248201526f14185d5cd8589b194e881c185d5cd95960821b6044820152606490fd5b1561285757565b60405162461bcd60e51b815260206004820152603360248201527f5472757374456e67696e653a204f6e6c792076616c696461746f72732063616e6044820152721031b0b636103a3434b990333ab731ba34b7b760691b6064820152608490fd5b156128bf57565b60405162461bcd60e51b815260206004820152602660248201527f5472757374456e67696e653a2057616c6c657420686173206e6f2074727573746044820152652073636f726560d01b6064820152608490fd5b91908201809211611ee457565b9060405161292d8161254d565b61012060088294805484526001810154602085015260028101546040850152600381015460608501526004810154608085015260ff6005820154818116151560a0870152831c16151560c0850152600681015460e085015260078101546101008501520154910152565b6000198114611ee45760010190565b90601f81116129b457505050565b600091825260208220906020601f850160051c830194106129f0575b601f0160051c01915b8281106129e557505050565b8181556001016129d9565b90925082906129d0565b8054600160401b81101561088057612a199060019283820181556124dc565b6121785782518155818101906020908185015192835167ffffffffffffffff94858211610880578190612a5682612a508654612645565b866129a6565b8590601f8311600114612c2e57600092612c23575b5050600019600383901b1c191690861b1790555b6040850151600282015560038101606086015180519085821161088057612ab082612aaa8554612645565b856129a6565b8490601f8311600114612bb55791806005949260a09694600092612baa575b5050600019600383901b1c191690881b1790555b6080870151600482015501940151805192831161088057612b0e83612b088754612645565b876129a6565b81601f8411600114612b475750928293918392600094612b3c575b50501b916000199060031b1c1916179055565b015192503880612b29565b919083601f1981168760005284600020946000905b88838310612b905750505010612b77575b505050811b019055565b015160001960f88460031b161c19169055388080612b6d565b858701518855909601959485019487935090810190612b5c565b015190503880612acf565b879291601f1983169185600052876000209260005b89828210612c0d5750509160a09795939185600598969410612bf4575b505050811b019055612ae3565b015160001960f88460031b161c19169055388080612be7565b8385015186558c97909501949384019301612bca565b015190503880612a6b565b90889350601f1983169185600052876000209260005b89828210612c7b5750508411612c62575b505050811b019055612a7f565b015160001960f88460031b161c19169055388080612c55565b8385015186558c97909501949384019301612c44565b81810292918115918404141715611ee457565b91908203918211611ee457565b6064612cc38251604084015190612c91565b04610100820151600581029080820460051490151715611ee457612ce691612913565b610120820151908160011b9180830460021490151715611ee457608091612d0c91612913565b91018051612d29575b506103e8808211612d24575090565b905090565b600a820290828204600a1483151715611ee4576103e891612d4b915190612c91565b04600091818111600014612d6957612d639250612ca4565b38612d15565b5050612d63565b60405190612d7d82612586565b60048252631d195cdd60e21b6020830152565b90604051612d9d81612531565b60a0612de66005839580548552612db66001820161267f565b602086015260028101546040860152612dd16003820161267f565b6060860152600481015460808601520161267f565b910152565b6001600160a01b031660008181526008602090815260408083205493918415612e5d57919083925b858410612e2257505050500490565b90919293612e4f612e559185600052600784526080612e47611e4689886000206124dc565b015190612913565b94612997565b929190612e13565b505050905090565b6001600160a01b031660009081526004602052604090205460ff1615612e9657600360205260016040600020015490565b600090565b6001600160a01b03166000818152600860205260408082205491939290918015612f95576003811015612ed2575050508180918190565b60076020528285209294939192600219820190828211612f8157612ef991611e46916124dc565b938381526007602052858120600119830190838211612f6d57612f1f91611e46916124dc565b9381526007602052858120906000198301928311612f595750612f4591611e46916124dc565b838501519285015194015192519193929190565b634e487b7160e01b81526011600452602490fd5b634e487b7160e01b83526011600452602483fd5b634e487b7160e01b86526011600452602486fd5b5050508180918190565b6001600160a01b031660009081526004602052604081205460ff1615613034576003602052612fd060408220612920565b90602082015190600a820291808304600a1490151715612f59576103e891808301809311613020576101008394015161300a575b50505090565b6105dc019250908210612f595750388080613004565b634e487b7160e01b82526011600452602482fd5b506103e89056fe15dd57e0cde9af9083c846eb39c9da382e907c0036818e4a163ecd167e5f3276a2646970667358221220dc69cd4ecea73aff434bcbe2849be01ec3ab885a9ebc9d8f4094511fade8664164736f6c63430008130033","opcodes":"PUSH1 0x80 DUP1 PUSH1 0x40 MSTORE CALLVALUE PUSH2 0x8B JUMPI PUSH1 0x1 PUSH1 0x0 DUP2 DUP2 SSTORE DUP2 SLOAD PUSH1 0x1 PUSH1 0x1 PUSH1 0xA8 SHL SUB NOT DUP2 AND CALLER PUSH1 0x8 DUP2 DUP2 SHL PUSH2 0x100 PUSH1 0x1 PUSH1 0xA8 SHL SUB AND SWAP3 SWAP1 SWAP3 OR SWAP1 SWAP5 SSTORE SHR PUSH1 0x1 PUSH1 0x1 PUSH1 0xA0 SHL SUB AND SWAP1 PUSH32 0x8BE0079C531659141344CD1FD0A4F28419497F9722A3DAAFE3B4186F6B6457E0 SWAP1 DUP1 LOG3 PUSH1 0x1 PUSH1 0x2 SLOAD ADD PUSH1 0x2 SSTORE CALLER PUSH1 0x0 MSTORE PUSH1 0xE PUSH1 0x20 MSTORE PUSH2 0x12C PUSH1 0x40 PUSH1 0x0 KECCAK256 SSTORE PUSH2 0x3091 SWAP1 DUP2 PUSH2 0x91 DUP3 CODECOPY RETURN JUMPDEST PUSH1 0x0 DUP1 REVERT INVALID PUSH1 0x80 DUP1 PUSH1 0x40 MSTORE PUSH1 0x4 CALLDATASIZE LT ISZERO PUSH2 0x13 JUMPI PUSH1 0x0 DUP1 REVERT JUMPDEST PUSH1 0xE0 PUSH1 0x0 CALLDATALOAD DUP2 SHR SWAP2 DUP3 PUSH4 0x427BCDA EQ PUSH2 0x2490 JUMPI POP DUP2 PUSH4 0x57E709C EQ PUSH2 0x2474 JUMPI DUP2 PUSH4 0x12DF0FC4 EQ PUSH2 0x23CE JUMPI DUP2 PUSH4 0x13BB6A91 EQ PUSH2 0x23B2 JUMPI DUP2 PUSH4 0x223FAE09 EQ PUSH2 0x2320 JUMPI DUP2 PUSH4 0x29AFD353 EQ PUSH2 0x1211 JUMPI DUP2 PUSH4 0x2CE9AEAD EQ PUSH2 0x22E6 JUMPI DUP2 PUSH4 0x32412D82 EQ PUSH2 0x1F7C JUMPI DUP2 PUSH4 0x34AE18E3 EQ PUSH2 0x1DBC JUMPI DUP2 PUSH4 0x3F4BA83A EQ PUSH2 0x1D28 JUMPI DUP2 PUSH4 0x3FA70F34 EQ PUSH2 0x1CEE JUMPI DUP2 PUSH4 0x40A141FF EQ PUSH2 0x1C0D JUMPI DUP2 PUSH4 0x417914D5 EQ PUSH2 0x1892 JUMPI DUP2 PUSH4 0x45E97F80 EQ PUSH2 0x1858 JUMPI DUP2 PUSH4 0x4CF915C9 EQ PUSH2 0x16BE JUMPI DUP2 PUSH4 0x4D238C8E EQ PUSH2 0x1655 JUMPI DUP2 PUSH4 0x56CA0B78 EQ PUSH2 0x1488 JUMPI DUP2 PUSH4 0x58FB5218 EQ PUSH2 0x144E JUMPI DUP2 PUSH4 0x5B2CCD7C EQ PUSH2 0x1239 JUMPI DUP2 PUSH4 0x5C975ABB EQ PUSH2 0x1216 JUMPI DUP2 PUSH4 0x5D793350 EQ PUSH2 0x896 JUMPI DUP2 PUSH4 0x5E09EEA1 EQ PUSH2 0x1211 JUMPI DUP2 PUSH4 0x6E548F20 EQ PUSH2 0x11D2 JUMPI DUP2 PUSH4 0x715018A6 EQ PUSH2 0x1171 JUMPI DUP2 PUSH4 0x7257D17A EQ PUSH2 0x10AB JUMPI DUP2 PUSH4 0x74C8D377 EQ PUSH2 0x108E JUMPI DUP2 PUSH4 0x7969A713 EQ PUSH2 0x1072 JUMPI DUP2 PUSH4 0x8456CB59 EQ PUSH2 0x1019 JUMPI DUP2 PUSH4 0x8DA5CB5B EQ PUSH2 0xFEC JUMPI DUP2 PUSH4 0x8ECDF7EA EQ PUSH2 0xFB1 JUMPI DUP2 PUSH4 0x9FCA5169 EQ PUSH2 0xE5C JUMPI DUP2 PUSH4 0xB007945E EQ PUSH2 0x9DB JUMPI DUP2 PUSH4 0xBDEA05E9 EQ PUSH2 0x8D5 JUMPI DUP2 PUSH4 0xBDF16316 EQ PUSH2 0x896 JUMPI DUP2 PUSH4 0xC6EE59FC EQ PUSH2 0x736 JUMPI DUP2 PUSH4 0xCB188C9C EQ PUSH2 0x70B JUMPI DUP2 PUSH4 0xD7774F7D EQ PUSH2 0x416 JUMPI DUP2 PUSH4 0xF2FDE38B EQ PUSH2 0x342 JUMPI DUP2 PUSH4 0xF4310608 EQ PUSH2 0x308 JUMPI DUP2 PUSH4 0xF8D00813 EQ PUSH2 0x27D JUMPI POP DUP1 PUSH4 0xFA52C7D8 EQ PUSH2 0x23E JUMPI DUP1 PUSH4 0xFACD743B EQ PUSH2 0x23E JUMPI PUSH4 0xFEC43ACB EQ PUSH2 0x1FA JUMPI PUSH1 0x0 DUP1 REVERT JUMPDEST CALLVALUE PUSH2 0x239 JUMPI PUSH1 0x40 CALLDATASIZE PUSH1 0x3 NOT ADD SLT PUSH2 0x239 JUMPI PUSH2 0x213 PUSH2 0x24C6 JUMP JUMPDEST PUSH2 0x21B PUSH2 0x2765 JUMP JUMPDEST PUSH1 0x1 PUSH1 0x1 PUSH1 0xA0 SHL SUB AND PUSH1 0x0 SWAP1 DUP2 MSTORE PUSH1 0xE PUSH1 0x20 MSTORE PUSH1 0x40 SWAP1 KECCAK256 PUSH1 0x24 CALLDATALOAD SWAP1 SSTORE STOP JUMPDEST PUSH1 0x0 DUP1 REVERT JUMPDEST CALLVALUE PUSH2 0x239 JUMPI PUSH1 0x20 CALLDATASIZE PUSH1 0x3 NOT ADD SLT PUSH2 0x239 JUMPI PUSH1 0x1 PUSH1 0x1 PUSH1 0xA0 SHL SUB PUSH2 0x25F PUSH2 0x24C6 JUMP JUMPDEST AND PUSH1 0x0 MSTORE PUSH1 0xB PUSH1 0x20 MSTORE PUSH1 0x20 PUSH1 0xFF PUSH1 0x40 PUSH1 0x0 KECCAK256 SLOAD AND PUSH1 0x40 MLOAD SWAP1 ISZERO ISZERO DUP2 MSTORE RETURN JUMPDEST CALLVALUE PUSH2 0x239 JUMPI PUSH1 0x20 CALLDATASIZE PUSH1 0x3 NOT ADD SLT PUSH2 0x239 JUMPI PUSH1 0x1 PUSH1 0x1 PUSH1 0xA0 SHL SUB PUSH2 0x29E PUSH2 0x24C6 JUMP JUMPDEST AND PUSH1 0x0 MSTORE PUSH1 0xA PUSH1 0x20 MSTORE PUSH1 0x40 PUSH1 0x0 KECCAK256 DUP1 SLOAD SWAP1 PUSH1 0x1 DUP2 ADD SLOAD SWAP1 PUSH1 0x3 PUSH1 0xFF PUSH1 0x2 DUP4 ADD SLOAD AND SWAP2 ADD SLOAD SWAP2 PUSH1 0xFF PUSH1 0x40 MLOAD SWAP5 DUP2 DUP2 AND ISZERO ISZERO DUP7 MSTORE DUP2 DUP2 PUSH1 0x8 SHR AND ISZERO ISZERO PUSH1 0x20 DUP8 ADD MSTORE DUP2 DUP2 PUSH1 0x10 SHR AND ISZERO ISZERO PUSH1 0x40 DUP8 ADD MSTORE PUSH1 0x18 SHR AND ISZERO ISZERO PUSH1 0x60 DUP6 ADD MSTORE PUSH1 0x80 DUP5 ADD MSTORE ISZERO ISZERO PUSH1 0xA0 DUP4 ADD MSTORE PUSH1 0xC0 DUP3 ADD MSTORE RETURN JUMPDEST CALLVALUE PUSH2 0x239 JUMPI PUSH1 0x20 CALLDATASIZE PUSH1 0x3 NOT ADD SLT PUSH2 0x239 JUMPI PUSH1 0x1 PUSH1 0x1 PUSH1 0xA0 SHL SUB PUSH2 0x329 PUSH2 0x24C6 JUMP JUMPDEST AND PUSH1 0x0 MSTORE PUSH1 0xF PUSH1 0x20 MSTORE PUSH1 0x20 PUSH1 0x40 PUSH1 0x0 KECCAK256 SLOAD PUSH1 0x40 MLOAD SWAP1 DUP2 MSTORE RETURN JUMPDEST CALLVALUE PUSH2 0x239 JUMPI PUSH1 0x20 CALLDATASIZE PUSH1 0x3 NOT ADD SLT PUSH2 0x239 JUMPI PUSH2 0x35B PUSH2 0x24C6 JUMP JUMPDEST PUSH2 0x363 PUSH2 0x2765 JUMP JUMPDEST PUSH1 0x1 PUSH1 0x1 PUSH1 0xA0 SHL SUB DUP2 DUP2 AND SWAP2 DUP3 ISZERO PUSH2 0x3C2 JUMPI PUSH1 0x1 DUP1 SLOAD PUSH2 0x100 PUSH1 0x1 PUSH1 0xA8 SHL SUB NOT DUP2 AND PUSH1 0x8 SWAP4 DUP5 SHL PUSH2 0x100 PUSH1 0x1 PUSH1 0xA8 SHL SUB AND OR SWAP1 SWAP2 SSTORE SWAP1 SHR AND PUSH32 0x8BE0079C531659141344CD1FD0A4F28419497F9722A3DAAFE3B4186F6B6457E0 PUSH1 0x0 DUP1 LOG3 STOP JUMPDEST PUSH1 0x40 MLOAD PUSH3 0x461BCD PUSH1 0xE5 SHL DUP2 MSTORE PUSH1 0x20 PUSH1 0x4 DUP3 ADD MSTORE PUSH1 0x26 PUSH1 0x24 DUP3 ADD MSTORE PUSH32 0x4F776E61626C653A206E6577206F776E657220697320746865207A65726F2061 PUSH1 0x44 DUP3 ADD MSTORE PUSH6 0x646472657373 PUSH1 0xD0 SHL PUSH1 0x64 DUP3 ADD MSTORE PUSH1 0x84 SWAP1 REVERT JUMPDEST CALLVALUE PUSH2 0x239 JUMPI PUSH1 0xA0 CALLDATASIZE PUSH1 0x3 NOT ADD SLT PUSH2 0x239 JUMPI PUSH1 0x4 CALLDATALOAD DUP1 ISZERO ISZERO DUP1 SWAP2 SUB PUSH2 0x239 JUMPI PUSH1 0x24 SWAP1 DUP2 CALLDATALOAD SWAP1 DUP2 ISZERO ISZERO DUP1 SWAP3 SUB PUSH2 0x239 JUMPI PUSH1 0x44 CALLDATALOAD SWAP3 DUP4 ISZERO ISZERO DUP1 SWAP5 SUB PUSH2 0x239 JUMPI PUSH1 0x64 CALLDATALOAD SWAP4 DUP5 ISZERO ISZERO DUP1 SWAP6 SUB PUSH2 0x239 JUMPI PUSH1 0x84 CALLDATALOAD SWAP5 PUSH2 0x46C PUSH2 0x280C JUMP JUMPDEST PUSH1 0x1 DUP7 LT ISZERO DUP1 PUSH2 0x700 JUMPI JUMPDEST ISZERO PUSH2 0x6B1 JUMPI PUSH1 0x40 MLOAD SWAP4 PUSH2 0x489 DUP6 PUSH2 0x256A JUMP JUMPDEST DUP5 MSTORE PUSH1 0x20 DUP5 ADD SWAP5 DUP6 MSTORE PUSH1 0x40 DUP5 ADD SWAP2 DUP3 MSTORE PUSH1 0x60 DUP5 ADD SWAP1 DUP2 MSTORE PUSH1 0x80 DUP5 ADD SWAP2 DUP7 DUP4 MSTORE PUSH1 0xA0 DUP6 ADD PUSH1 0x1 DUP2 MSTORE PUSH1 0x3 PUSH1 0xC0 DUP8 ADD TIMESTAMP DUP2 MSTORE CALLER PUSH1 0x0 MSTORE PUSH1 0xA PUSH1 0x20 MSTORE PUSH2 0x541 PUSH1 0x40 PUSH1 0x0 KECCAK256 SWAP4 PUSH2 0x4E4 DUP11 MLOAD ISZERO ISZERO DUP7 SWAP1 PUSH1 0xFF DUP1 NOT DUP4 SLOAD AND SWAP2 ISZERO ISZERO AND OR SWAP1 SSTORE JUMP JUMPDEST DUP11 MLOAD DUP6 SLOAD PUSH2 0xFF00 NOT AND SWAP1 ISZERO ISZERO PUSH1 0x8 SHL PUSH2 0xFF00 AND OR DUP6 SSTORE DUP6 MLOAD ISZERO ISZERO DUP6 SLOAD PUSH3 0xFF0000 PUSH4 0xFF000000 DUP11 MLOAD ISZERO ISZERO PUSH1 0x18 SHL AND SWAP3 PUSH1 0x10 SHL AND SWAP1 PUSH4 0xFFFF0000 NOT AND OR OR DUP6 SSTORE DUP8 MLOAD PUSH1 0x1 DUP7 ADD SSTORE MLOAD ISZERO ISZERO PUSH1 0x2 DUP6 ADD SWAP1 PUSH1 0xFF DUP1 NOT DUP4 SLOAD AND SWAP2 ISZERO ISZERO AND OR SWAP1 SSTORE JUMP JUMPDEST MLOAD SWAP2 ADD SSTORE PUSH1 0x4 PUSH1 0x20 MSTORE PUSH1 0xFF PUSH1 0x40 PUSH1 0x0 KECCAK256 SLOAD AND PUSH2 0x587 JUMPI JUMPDEST DUP7 PUSH1 0x40 MLOAD SWAP1 DUP2 MSTORE PUSH32 0xC93C11AD06EE16BE9628DA955F88C0211FE5413DE6B9DEF703F50ED8E0A7288F PUSH1 0x20 CALLER SWAP3 LOG2 STOP JUMPDEST PUSH1 0x3 PUSH1 0x20 MSTORE PUSH1 0x40 PUSH1 0x0 KECCAK256 SWAP6 PUSH1 0x64 SWAP6 MLOAD PUSH2 0x6A8 JUMPI JUMPDEST MLOAD PUSH2 0x680 JUMPI JUMPDEST MLOAD PUSH2 0x658 JUMPI JUMPDEST MLOAD PUSH2 0x630 JUMPI JUMPDEST MLOAD PUSH1 0x3 DUP2 SUB PUSH2 0x610 JUMPI POP PUSH1 0x14 DUP3 ADD DUP1 SWAP3 GT PUSH2 0x5FC JUMPI POP JUMPDEST PUSH1 0x64 DUP2 GT ISZERO PUSH2 0x5F7 JUMPI POP PUSH1 0x64 JUMPDEST PUSH1 0x8 DUP3 ADD SSTORE PUSH1 0x1 PUSH2 0x5E9 PUSH2 0x5E4 DUP4 PUSH2 0x2920 JUMP JUMPDEST PUSH2 0x2CB1 JUMP JUMPDEST SWAP2 ADD SSTORE DUP2 DUP1 DUP1 DUP1 DUP1 DUP1 PUSH2 0x558 JUMP JUMPDEST PUSH2 0x5D1 JUMP JUMPDEST PUSH4 0x4E487B71 PUSH1 0xE0 SHL PUSH1 0x0 SWAP1 DUP2 MSTORE PUSH1 0x11 PUSH1 0x4 MSTORE REVERT JUMPDEST PUSH1 0x2 EQ PUSH2 0x61E JUMPI JUMPDEST POP PUSH2 0x5C4 JUMP JUMPDEST PUSH1 0xA DUP3 ADD DUP1 SWAP3 GT PUSH2 0x5FC JUMPI POP DUP4 PUSH2 0x618 JUMP JUMPDEST SWAP2 PUSH1 0x18 NOT DUP2 ADD SWAP1 DUP2 GT PUSH2 0x643 JUMPI SWAP2 PUSH2 0x5AD JUMP JUMPDEST POP PUSH4 0x4E487B71 PUSH1 0xE0 SHL PUSH1 0x0 SWAP1 DUP2 MSTORE PUSH1 0x11 PUSH1 0x4 MSTORE REVERT JUMPDEST SWAP3 PUSH1 0x13 NOT DUP2 ADD SWAP1 DUP2 GT PUSH2 0x66B JUMPI SWAP3 PUSH2 0x5A7 JUMP JUMPDEST DUP3 PUSH4 0x4E487B71 PUSH1 0xE0 SHL PUSH1 0x0 MSTORE PUSH1 0x11 PUSH1 0x4 MSTORE PUSH1 0x0 REVERT JUMPDEST SWAP4 PUSH1 0xE NOT DUP2 ADD SWAP1 DUP2 GT PUSH2 0x693 JUMPI SWAP4 PUSH2 0x5A1 JUMP JUMPDEST DUP4 PUSH4 0x4E487B71 PUSH1 0xE0 SHL PUSH1 0x0 MSTORE PUSH1 0x11 PUSH1 0x4 MSTORE PUSH1 0x0 REVERT JUMPDEST PUSH1 0x5A SWAP6 POP PUSH2 0x59B JUMP JUMPDEST PUSH1 0x40 MLOAD PUSH3 0x461BCD PUSH1 0xE5 SHL DUP2 MSTORE PUSH1 0x20 PUSH1 0x4 DUP3 ADD MSTORE PUSH1 0x22 DUP2 DUP6 ADD MSTORE PUSH32 0x5472757374456E67696E653A20496E76616C69642070726976616379206C6576 PUSH1 0x44 DUP3 ADD MSTORE PUSH2 0x195B PUSH1 0xF2 SHL PUSH1 0x64 DUP3 ADD MSTORE PUSH1 0x84 SWAP1 REVERT JUMPDEST POP PUSH1 0x3 DUP7 GT ISZERO PUSH2 0x477 JUMP JUMPDEST CALLVALUE PUSH2 0x239 JUMPI PUSH1 0x20 CALLDATASIZE PUSH1 0x3 NOT ADD SLT PUSH2 0x239 JUMPI PUSH1 0x20 PUSH2 0x72E PUSH2 0x729 PUSH2 0x24C6 JUMP JUMPDEST PUSH2 0x2F9F JUMP JUMPDEST PUSH1 0x40 MLOAD SWAP1 DUP2 MSTORE RETURN JUMPDEST CALLVALUE PUSH2 0x239 JUMPI PUSH1 0x20 DUP1 PUSH1 0x3 NOT CALLDATASIZE ADD SLT PUSH2 0x239 JUMPI PUSH1 0x1 PUSH1 0x1 PUSH1 0xA0 SHL SUB SWAP1 DUP2 PUSH2 0x75A PUSH2 0x24C6 JUMP JUMPDEST AND PUSH1 0x0 MSTORE PUSH1 0x5 DUP1 DUP3 MSTORE PUSH1 0x40 PUSH1 0x0 KECCAK256 SWAP1 DUP2 SLOAD PUSH8 0xFFFFFFFFFFFFFFFF DUP2 GT PUSH2 0x880 JUMPI PUSH1 0x40 MLOAD SWAP4 SWAP2 PUSH2 0x78D DUP3 DUP3 SHL DUP5 ADD DUP7 PUSH2 0x25BE JUMP JUMPDEST DUP2 DUP6 MSTORE PUSH1 0x0 SWAP4 DUP5 MSTORE DUP3 DUP5 KECCAK256 DUP4 DUP7 ADD SWAP5 SWAP2 DUP6 JUMPDEST DUP5 DUP5 LT PUSH2 0x81E JUMPI POP POP POP POP POP PUSH1 0x40 MLOAD SWAP3 DUP2 DUP5 ADD SWAP1 DUP3 DUP6 MSTORE MLOAD DUP1 SWAP2 MSTORE PUSH1 0x40 DUP5 ADD SWAP3 SWAP2 PUSH1 0x0 JUMPDEST DUP3 DUP2 LT PUSH2 0x7D0 JUMPI DUP6 DUP6 SUB DUP7 RETURN JUMPDEST DUP4 MLOAD DUP1 MLOAD DUP9 AND DUP7 MSTORE DUP1 DUP4 ADD MLOAD DUP9 AND DUP7 DUP5 ADD MSTORE PUSH1 0x40 DUP1 DUP3 ADD MLOAD SWAP1 DUP8 ADD MSTORE PUSH1 0x60 DUP1 DUP3 ADD MLOAD SWAP1 DUP8 ADD MSTORE PUSH1 0x80 DUP1 DUP3 ADD MLOAD ISZERO ISZERO SWAP1 DUP8 ADD MSTORE PUSH1 0xA0 SWAP1 DUP2 ADD MLOAD SWAP1 DUP7 ADD MSTORE PUSH1 0xC0 SWAP1 SWAP5 ADD SWAP4 SWAP3 DUP2 ADD SWAP3 PUSH1 0x1 ADD PUSH2 0x7C3 JUMP JUMPDEST PUSH1 0x6 DUP7 PUSH1 0x1 SWAP3 PUSH1 0x40 SWAP11 SWAP9 SWAP11 MLOAD PUSH2 0x833 DUP2 PUSH2 0x2531 JUMP JUMPDEST DUP13 DUP8 SLOAD AND DUP2 MSTORE DUP13 DUP6 DUP9 ADD SLOAD AND DUP4 DUP3 ADD MSTORE PUSH1 0x2 DUP8 ADD SLOAD PUSH1 0x40 DUP3 ADD MSTORE PUSH1 0x3 DUP8 ADD SLOAD PUSH1 0x60 DUP3 ADD MSTORE PUSH1 0xFF PUSH1 0x4 DUP9 ADD SLOAD AND ISZERO ISZERO PUSH1 0x80 DUP3 ADD MSTORE DUP6 DUP8 ADD SLOAD PUSH1 0xA0 DUP3 ADD MSTORE DUP2 MSTORE ADD SWAP4 ADD SWAP4 ADD SWAP3 SWAP2 SWAP7 SWAP5 SWAP7 PUSH2 0x79F JUMP JUMPDEST PUSH4 0x4E487B71 PUSH1 0xE0 SHL PUSH1 0x0 MSTORE PUSH1 0x41 PUSH1 0x4 MSTORE PUSH1 0x24 PUSH1 0x0 REVERT JUMPDEST CALLVALUE PUSH2 0x239 JUMPI PUSH1 0x20 CALLDATASIZE PUSH1 0x3 NOT ADD SLT PUSH2 0x239 JUMPI PUSH1 0x1 PUSH1 0x1 PUSH1 0xA0 SHL SUB PUSH2 0x8B7 PUSH2 0x24C6 JUMP JUMPDEST AND PUSH1 0x0 MSTORE PUSH1 0xC PUSH1 0x20 MSTORE PUSH1 0x20 PUSH1 0xFF PUSH1 0x40 PUSH1 0x0 KECCAK256 SLOAD AND PUSH1 0x40 MLOAD SWAP1 ISZERO ISZERO DUP2 MSTORE RETURN JUMPDEST CALLVALUE PUSH2 0x239 JUMPI PUSH1 0x20 CALLDATASIZE PUSH1 0x3 NOT ADD SLT PUSH2 0x239 JUMPI PUSH2 0x8EE PUSH2 0x24C6 JUMP JUMPDEST PUSH1 0x0 PUSH1 0xC0 PUSH1 0x40 MLOAD PUSH2 0x8FE DUP2 PUSH2 0x256A JUMP JUMPDEST DUP3 DUP2 MSTORE DUP3 PUSH1 0x20 DUP3 ADD MSTORE DUP3 PUSH1 0x40 DUP3 ADD MSTORE DUP3 PUSH1 0x60 DUP3 ADD MSTORE DUP3 PUSH1 0x80 DUP3 ADD MSTORE DUP3 PUSH1 0xA0 DUP3 ADD MSTORE ADD MSTORE PUSH1 0x1 DUP1 PUSH1 0xA0 SHL SUB AND PUSH1 0x0 MSTORE PUSH1 0xA PUSH1 0x20 MSTORE PUSH1 0x40 PUSH1 0x0 KECCAK256 PUSH1 0x40 MLOAD PUSH2 0x942 DUP2 PUSH2 0x256A JUMP JUMPDEST DUP2 SLOAD SWAP2 PUSH1 0xFF DUP4 AND ISZERO ISZERO SWAP3 DUP4 DUP4 MSTORE PUSH1 0x20 DUP4 ADD SWAP1 PUSH1 0xFF DUP2 PUSH1 0x8 SHR AND ISZERO ISZERO DUP3 MSTORE PUSH1 0x40 DUP5 ADD PUSH1 0xFF DUP3 PUSH1 0x10 SHR AND ISZERO ISZERO DUP2 MSTORE PUSH1 0xFF PUSH1 0x60 DUP7 ADD SWAP3 PUSH1 0x18 SHR AND ISZERO ISZERO DUP3 MSTORE PUSH1 0x1 DUP5 ADD SLOAD SWAP3 PUSH1 0x80 DUP7 ADD SWAP4 DUP5 MSTORE PUSH1 0xC0 PUSH1 0x3 PUSH1 0xFF PUSH1 0x2 DUP9 ADD SLOAD AND SWAP7 PUSH1 0xA0 DUP10 ADD SWAP8 ISZERO ISZERO DUP9 MSTORE ADD SLOAD SWAP7 ADD SWAP6 DUP7 MSTORE PUSH1 0x40 MLOAD SWAP7 DUP8 MSTORE MLOAD ISZERO ISZERO PUSH1 0x20 DUP8 ADD MSTORE MLOAD ISZERO ISZERO PUSH1 0x40 DUP7 ADD MSTORE MLOAD ISZERO ISZERO PUSH1 0x60 DUP6 ADD MSTORE MLOAD PUSH1 0x80 DUP5 ADD MSTORE MLOAD ISZERO ISZERO PUSH1 0xA0 DUP4 ADD MSTORE MLOAD PUSH1 0xC0 DUP3 ADD MSTORE RETURN JUMPDEST CALLVALUE PUSH2 0x239 JUMPI PUSH1 0x60 SWAP1 DUP2 PUSH1 0x3 NOT CALLDATASIZE ADD SLT PUSH2 0x239 JUMPI PUSH1 0x4 CALLDATALOAD PUSH1 0x24 SWAP2 DUP3 CALLDATALOAD SWAP2 PUSH1 0x44 CALLDATALOAD SWAP2 PUSH2 0xA03 PUSH2 0x280C JUMP JUMPDEST CALLER PUSH1 0x0 MSTORE PUSH1 0x20 SWAP1 PUSH1 0x4 DUP3 MSTORE PUSH1 0xFF PUSH1 0x40 PUSH1 0x0 KECCAK256 SLOAD AND ISZERO PUSH2 0xD66 JUMPI JUMPDEST POP PUSH2 0x7D0 DUP3 LT ISZERO DUP1 PUSH2 0xD5A JUMPI JUMPDEST ISZERO PUSH2 0xD21 JUMPI PUSH2 0x3E8 DUP5 LT ISZERO DUP1 PUSH2 0xD15 JUMPI JUMPDEST ISZERO PUSH2 0xCDF JUMPI PUSH3 0x13880 DUP4 LT ISZERO DUP1 PUSH2 0xCD2 JUMPI JUMPDEST ISZERO PUSH2 0xC9C JUMPI PUSH2 0xBB8 PUSH1 0x40 MLOAD PUSH2 0xA61 DUP2 PUSH2 0x2531 JUMP JUMPDEST TIMESTAMP DUP2 MSTORE PUSH1 0x40 MLOAD PUSH2 0xA70 DUP2 PUSH2 0x2586 JUMP JUMPDEST PUSH1 0xB DUP2 MSTORE PUSH11 0x74656D7065726174757265 PUSH1 0xA8 SHL DUP5 DUP3 ADD MSTORE DUP4 DUP3 ADD MSTORE DUP4 PUSH1 0x40 DUP3 ADD MSTORE PUSH2 0xA99 PUSH2 0x2D70 JUMP JUMPDEST DUP9 DUP3 ADD MSTORE PUSH1 0x64 PUSH1 0x80 DUP3 ADD MSTORE PUSH1 0x40 MLOAD PUSH2 0xAB0 DUP2 PUSH2 0x25A2 JUMP JUMPDEST PUSH1 0x0 DUP2 MSTORE PUSH1 0xA0 DUP3 ADD MSTORE PUSH2 0xBA6 PUSH1 0x40 MLOAD PUSH2 0xAC8 DUP2 PUSH2 0x2531 JUMP JUMPDEST TIMESTAMP DUP2 MSTORE PUSH1 0x40 MLOAD PUSH2 0xAD7 DUP2 PUSH2 0x2586 JUMP JUMPDEST PUSH1 0x8 DUP2 MSTORE PUSH8 0x68756D6964697479 PUSH1 0xC0 SHL DUP7 DUP3 ADD MSTORE DUP6 DUP3 ADD MSTORE DUP8 PUSH1 0x40 DUP3 ADD MSTORE PUSH2 0xAFD PUSH2 0x2D70 JUMP JUMPDEST DUP11 DUP3 ADD MSTORE PUSH1 0x64 PUSH1 0x80 DUP3 ADD MSTORE PUSH1 0x40 MLOAD PUSH2 0xB14 DUP2 PUSH2 0x25A2 JUMP JUMPDEST PUSH1 0x0 DUP2 MSTORE PUSH1 0xA0 DUP3 ADD MSTORE PUSH2 0xB94 PUSH1 0x40 MLOAD SWAP4 PUSH2 0xB2D DUP6 PUSH2 0x2531 JUMP JUMPDEST TIMESTAMP DUP6 MSTORE PUSH1 0x40 MLOAD PUSH2 0xB3C DUP2 PUSH2 0x2586 JUMP JUMPDEST PUSH1 0x8 DUP2 MSTORE PUSH8 0x7072657373757265 PUSH1 0xC0 SHL DUP9 DUP3 ADD MSTORE DUP8 DUP7 ADD MSTORE DUP9 PUSH1 0x40 DUP7 ADD MSTORE PUSH2 0xB62 PUSH2 0x2D70 JUMP JUMPDEST DUP13 DUP7 ADD MSTORE PUSH1 0x64 PUSH1 0x80 DUP7 ADD MSTORE PUSH1 0x40 MLOAD PUSH2 0xB79 DUP2 PUSH2 0x25A2 JUMP JUMPDEST PUSH1 0x0 DUP2 MSTORE PUSH1 0xA0 DUP7 ADD MSTORE CALLER PUSH1 0x0 MSTORE PUSH1 0x7 DUP8 MSTORE PUSH1 0x40 PUSH1 0x0 KECCAK256 PUSH2 0x29FA JUMP JUMPDEST CALLER PUSH1 0x0 MSTORE PUSH1 0x7 DUP6 MSTORE PUSH1 0x40 PUSH1 0x0 KECCAK256 PUSH2 0x29FA JUMP JUMPDEST CALLER PUSH1 0x0 MSTORE PUSH1 0x7 DUP4 MSTORE PUSH1 0x40 PUSH1 0x0 KECCAK256 PUSH2 0x29FA JUMP JUMPDEST CALLER PUSH1 0x0 MSTORE PUSH1 0x8 DUP2 MSTORE PUSH1 0x40 PUSH1 0x0 KECCAK256 DUP1 SLOAD SWAP1 PUSH1 0x3 DUP3 ADD DUP1 SWAP3 GT PUSH2 0xC87 JUMPI SSTORE CALLER PUSH1 0x0 MSTORE PUSH1 0x3 DUP2 MSTORE PUSH1 0x40 PUSH1 0x0 KECCAK256 PUSH2 0xBEA CALLER PUSH2 0x2DEB JUMP JUMPDEST PUSH1 0x7 DUP3 ADD SSTORE PUSH1 0x6 TIMESTAMP SWAP2 ADD SSTORE PUSH1 0x40 MLOAD SWAP3 DUP2 DUP5 ADD SWAP7 DUP4 DUP9 MSTORE DUP6 PUSH1 0x40 DUP7 ADD MSTORE DUP5 ADD MSTORE TIMESTAMP PUSH1 0x80 DUP5 ADD MSTORE PUSH1 0x80 DUP4 MSTORE PUSH1 0xA0 DUP4 ADD SWAP5 DUP4 DUP7 LT PUSH8 0xFFFFFFFFFFFFFFFF DUP8 GT OR PUSH2 0xC73 JUMPI POP PUSH1 0x9 DUP6 SWAP7 PUSH1 0xC0 SWAP6 SWAP7 PUSH1 0x40 MSTORE DUP5 MLOAD SWAP1 KECCAK256 SWAP2 CALLER PUSH1 0x0 MSTORE MSTORE PUSH1 0x40 PUSH1 0x0 KECCAK256 SSTORE DUP5 MSTORE ADD MSTORE PUSH32 0x13C9812AF128E255F4174FAC4D52D7B25DEFD3D4AE5E30D5A1DFF274ED7C0DD5 PUSH1 0x40 CALLER SWAP3 LOG2 STOP JUMPDEST PUSH4 0x4E487B71 PUSH1 0xE0 SHL PUSH1 0x0 SWAP1 DUP2 MSTORE PUSH1 0x41 PUSH1 0x4 MSTORE REVERT JUMPDEST DUP7 PUSH4 0x4E487B71 PUSH1 0xE0 SHL PUSH1 0x0 MSTORE PUSH1 0x11 PUSH1 0x4 MSTORE PUSH1 0x0 REVERT JUMPDEST PUSH1 0x64 SWAP1 PUSH1 0x10 DUP7 PUSH1 0x40 MLOAD SWAP3 PUSH3 0x461BCD PUSH1 0xE5 SHL DUP5 MSTORE PUSH1 0x4 DUP5 ADD MSTORE DUP3 ADD MSTORE PUSH16 0x496E76616C6964207072657373757265 PUSH1 0x80 SHL PUSH1 0x44 DUP3 ADD MSTORE REVERT JUMPDEST POP PUSH3 0x1D4C0 DUP4 GT ISZERO PUSH2 0xA4D JUMP JUMPDEST PUSH1 0x64 SWAP1 PUSH1 0x10 DUP7 PUSH1 0x40 MLOAD SWAP3 PUSH3 0x461BCD PUSH1 0xE5 SHL DUP5 MSTORE PUSH1 0x4 DUP5 ADD MSTORE DUP3 ADD MSTORE PUSH16 0x496E76616C69642068756D6964697479 PUSH1 0x80 SHL PUSH1 0x44 DUP3 ADD MSTORE REVERT JUMPDEST POP PUSH2 0x2710 DUP5 GT ISZERO PUSH2 0xA3B JUMP JUMPDEST PUSH1 0x64 SWAP1 PUSH1 0x13 DUP7 PUSH1 0x40 MLOAD SWAP3 PUSH3 0x461BCD PUSH1 0xE5 SHL DUP5 MSTORE PUSH1 0x4 DUP5 ADD MSTORE DUP3 ADD MSTORE PUSH19 0x496E76616C69642074656D7065726174757265 PUSH1 0x68 SHL PUSH1 0x44 DUP3 ADD MSTORE REVERT JUMPDEST POP PUSH2 0x1388 DUP3 GT ISZERO PUSH2 0xA2A JUMP JUMPDEST PUSH1 0x8 PUSH1 0x40 MLOAD SWAP2 PUSH2 0xD75 DUP4 PUSH2 0x254D JUMP JUMPDEST PUSH1 0x32 DUP4 MSTORE DUP4 DUP4 ADD SWAP1 PUSH1 0x32 DUP3 MSTORE PUSH1 0x40 DUP5 ADD SWAP1 PUSH1 0x64 DUP3 MSTORE PUSH2 0xE27 DUP12 DUP7 ADD SWAP2 PUSH1 0x0 DUP4 MSTORE PUSH1 0x80 DUP8 ADD SWAP1 PUSH1 0x0 DUP3 MSTORE PUSH1 0xA0 DUP9 ADD SWAP2 PUSH1 0x0 DUP4 MSTORE PUSH1 0xC0 DUP10 ADD SWAP2 PUSH1 0x0 DUP4 MSTORE DUP10 ADD SWAP5 TIMESTAMP DUP7 MSTORE PUSH2 0x100 DUP11 ADD SWAP7 PUSH1 0x0 DUP9 MSTORE PUSH2 0x120 DUP12 ADD SWAP9 PUSH1 0x64 DUP11 MSTORE CALLER PUSH1 0x0 MSTORE PUSH1 0x3 DUP14 MSTORE PUSH1 0x40 PUSH1 0x0 KECCAK256 SWAP12 MLOAD DUP13 SSTORE MLOAD PUSH1 0x1 DUP13 ADD SSTORE MLOAD PUSH1 0x2 DUP12 ADD SSTORE MLOAD PUSH1 0x3 DUP11 ADD SSTORE MLOAD PUSH1 0x4 DUP10 ADD SSTORE PUSH2 0xE10 PUSH1 0x5 DUP10 ADD SWAP3 MLOAD ISZERO ISZERO DUP4 SWAP1 PUSH1 0xFF DUP1 NOT DUP4 SLOAD AND SWAP2 ISZERO ISZERO AND OR SWAP1 SSTORE JUMP JUMPDEST MLOAD DUP2 SLOAD PUSH2 0xFF00 NOT AND SWAP1 ISZERO ISZERO PUSH1 0x8 SHL PUSH2 0xFF00 AND OR SWAP1 SSTORE JUMP JUMPDEST MLOAD PUSH1 0x6 DUP6 ADD SSTORE MLOAD PUSH1 0x7 DUP5 ADD SSTORE MLOAD SWAP2 ADD SSTORE PUSH1 0x4 DUP2 MSTORE PUSH1 0x40 PUSH1 0x0 KECCAK256 PUSH1 0x1 PUSH1 0xFF NOT DUP3 SLOAD AND OR SWAP1 SSTORE PUSH1 0xD DUP2 MSTORE TIMESTAMP PUSH1 0x40 PUSH1 0x0 KECCAK256 SSTORE DUP7 PUSH2 0xA1D JUMP JUMPDEST CALLVALUE PUSH2 0x239 JUMPI PUSH1 0x20 DUP1 PUSH1 0x3 NOT CALLDATASIZE ADD SLT PUSH2 0x239 JUMPI PUSH2 0xE76 PUSH2 0x24C6 JUMP JUMPDEST PUSH2 0xE7E PUSH2 0x2765 JUMP JUMPDEST PUSH2 0xE86 PUSH2 0x280C JUMP JUMPDEST PUSH1 0x1 PUSH1 0x1 PUSH1 0xA0 SHL SUB AND PUSH1 0x0 DUP2 DUP2 MSTORE PUSH1 0x4 DUP4 MSTORE PUSH1 0x40 SWAP1 KECCAK256 SLOAD SWAP1 SWAP2 SWAP1 PUSH1 0xFF AND ISZERO PUSH2 0xF58 JUMPI DUP2 PUSH1 0x0 MSTORE PUSH1 0xB DUP2 MSTORE PUSH1 0xFF PUSH1 0x40 PUSH1 0x0 KECCAK256 SLOAD AND PUSH2 0xF15 JUMPI PUSH1 0x3 SWAP1 DUP3 PUSH1 0x0 MSTORE PUSH1 0xB DUP2 MSTORE PUSH1 0x40 PUSH1 0x0 KECCAK256 PUSH1 0x1 PUSH1 0xFF NOT DUP3 SLOAD AND OR SWAP1 SSTORE MSTORE PUSH1 0x5 PUSH1 0x40 PUSH1 0x0 KECCAK256 ADD PUSH2 0x100 PUSH2 0xFF00 NOT DUP3 SLOAD AND OR SWAP1 SSTORE PUSH32 0xD09501348473474A20C772C79C653E1FD7E8B437E418FE235D277D2C88853251 PUSH1 0x0 DUP1 LOG2 STOP JUMPDEST PUSH1 0x64 SWAP1 PUSH1 0x40 MLOAD SWAP1 PUSH3 0x461BCD PUSH1 0xE5 SHL DUP3 MSTORE DUP1 PUSH1 0x4 DUP4 ADD MSTORE PUSH1 0x24 DUP3 ADD MSTORE PUSH32 0x5472757374456E67696E653A20416C726561647920612076616C696461746F72 PUSH1 0x44 DUP3 ADD MSTORE REVERT JUMPDEST PUSH1 0x84 SWAP1 PUSH1 0x40 MLOAD SWAP1 PUSH3 0x461BCD PUSH1 0xE5 SHL DUP3 MSTORE PUSH1 0x4 DUP3 ADD MSTORE PUSH1 0x2C PUSH1 0x24 DUP3 ADD MSTORE PUSH32 0x5472757374456E67696E653A2056616C696461746F72206D7573742068617665 PUSH1 0x44 DUP3 ADD MSTORE PUSH12 0x2074727573742073636F7265 PUSH1 0xA0 SHL PUSH1 0x64 DUP3 ADD MSTORE REVERT JUMPDEST CALLVALUE PUSH2 0x239 JUMPI PUSH1 0x20 CALLDATASIZE PUSH1 0x3 NOT ADD SLT PUSH2 0x239 JUMPI PUSH1 0x80 PUSH2 0xFD4 PUSH2 0xFCF PUSH2 0x24C6 JUMP JUMPDEST PUSH2 0x2E9B JUMP JUMPDEST SWAP2 PUSH1 0x40 MLOAD SWAP4 DUP5 MSTORE PUSH1 0x20 DUP5 ADD MSTORE PUSH1 0x40 DUP4 ADD MSTORE PUSH1 0x60 DUP3 ADD MSTORE RETURN JUMPDEST CALLVALUE PUSH2 0x239 JUMPI PUSH1 0x0 CALLDATASIZE PUSH1 0x3 NOT ADD SLT PUSH2 0x239 JUMPI PUSH1 0x1 SLOAD PUSH1 0x40 MLOAD PUSH1 0x8 SWAP2 SWAP1 SWAP2 SHR PUSH1 0x1 PUSH1 0x1 PUSH1 0xA0 SHL SUB AND DUP2 MSTORE PUSH1 0x20 SWAP1 RETURN JUMPDEST CALLVALUE PUSH2 0x239 JUMPI PUSH1 0x0 CALLDATASIZE PUSH1 0x3 NOT ADD SLT PUSH2 0x239 JUMPI PUSH2 0x1032 PUSH2 0x2765 JUMP JUMPDEST PUSH2 0x103A PUSH2 0x280C JUMP JUMPDEST PUSH1 0x1 PUSH1 0xFF NOT DUP2 SLOAD AND OR PUSH1 0x1 SSTORE PUSH32 0x62E78CEA01BEE320CD4E420270B5EA74000D11B0C9F74754EBDBFC544B05A258 PUSH1 0x20 PUSH1 0x40 MLOAD CALLER DUP2 MSTORE LOG1 STOP JUMPDEST CALLVALUE PUSH2 0x239 JUMPI PUSH1 0x0 CALLDATASIZE PUSH1 0x3 NOT ADD SLT PUSH2 0x239 JUMPI PUSH1 0x20 PUSH1 0x40 MLOAD PUSH1 0x5 DUP2 MSTORE RETURN JUMPDEST CALLVALUE PUSH2 0x239 JUMPI PUSH1 0x0 CALLDATASIZE PUSH1 0x3 NOT ADD SLT PUSH2 0x239 JUMPI PUSH1 0x20 PUSH1 0x40 MLOAD PUSH2 0x3E8 DUP2 MSTORE RETURN JUMPDEST CALLVALUE PUSH2 0x239 JUMPI PUSH1 0x40 CALLDATASIZE PUSH1 0x3 NOT ADD SLT PUSH2 0x239 JUMPI PUSH2 0x10C4 PUSH2 0x24C6 JUMP JUMPDEST PUSH1 0x1 PUSH1 0x1 PUSH1 0xA0 SHL SUB AND PUSH1 0x0 SWAP1 DUP2 MSTORE PUSH1 0x7 PUSH1 0x20 MSTORE PUSH1 0x40 SWAP1 KECCAK256 DUP1 SLOAD PUSH1 0x24 CALLDATALOAD SWAP1 DUP2 LT ISZERO PUSH2 0x239 JUMPI PUSH2 0x10F1 SWAP2 PUSH2 0x24DC JUMP JUMPDEST POP DUP1 SLOAD PUSH2 0x116D PUSH2 0x1103 PUSH1 0x1 DUP5 ADD PUSH2 0x267F JUMP JUMPDEST SWAP3 PUSH1 0x2 DUP2 ADD SLOAD PUSH2 0x115A PUSH2 0x1118 PUSH1 0x3 DUP5 ADD PUSH2 0x267F JUMP JUMPDEST SWAP2 PUSH2 0x112A PUSH1 0x5 PUSH1 0x4 DUP7 ADD SLOAD SWAP6 ADD PUSH2 0x267F JUMP JUMPDEST SWAP3 PUSH2 0x1147 PUSH1 0x40 MLOAD SWAP9 DUP10 SWAP9 DUP10 MSTORE PUSH1 0xC0 PUSH1 0x20 DUP11 ADD MSTORE PUSH1 0xC0 DUP10 ADD SWAP1 PUSH2 0x2725 JUMP JUMPDEST SWAP2 PUSH1 0x40 DUP9 ADD MSTORE DUP7 DUP3 SUB PUSH1 0x60 DUP9 ADD MSTORE PUSH2 0x2725 JUMP JUMPDEST SWAP2 PUSH1 0x80 DUP6 ADD MSTORE DUP4 DUP3 SUB PUSH1 0xA0 DUP6 ADD MSTORE PUSH2 0x2725 JUMP JUMPDEST SUB SWAP1 RETURN JUMPDEST CALLVALUE PUSH2 0x239 JUMPI PUSH1 0x0 CALLDATASIZE PUSH1 0x3 NOT ADD SLT PUSH2 0x239 JUMPI PUSH2 0x118A PUSH2 0x2765 JUMP JUMPDEST PUSH1 0x1 DUP1 SLOAD PUSH2 0x100 PUSH1 0x1 PUSH1 0xA8 SHL SUB NOT DUP2 AND SWAP1 SWAP2 SSTORE PUSH1 0x0 SWAP1 PUSH1 0x8 SHR PUSH1 0x1 PUSH1 0x1 PUSH1 0xA0 SHL SUB AND PUSH32 0x8BE0079C531659141344CD1FD0A4F28419497F9722A3DAAFE3B4186F6B6457E0 DUP3 DUP1 LOG3 STOP JUMPDEST CALLVALUE PUSH2 0x239 JUMPI PUSH1 0x20 CALLDATASIZE PUSH1 0x3 NOT ADD SLT PUSH2 0x239 JUMPI PUSH1 0x1 PUSH1 0x1 PUSH1 0xA0 SHL SUB PUSH2 0x11F3 PUSH2 0x24C6 JUMP JUMPDEST AND PUSH1 0x0 MSTORE PUSH1 0x4 PUSH1 0x20 MSTORE PUSH1 0x20 PUSH1 0xFF PUSH1 0x40 PUSH1 0x0 KECCAK256 SLOAD AND PUSH1 0x40 MLOAD SWAP1 ISZERO ISZERO DUP2 MSTORE RETURN JUMPDEST PUSH2 0x250E JUMP JUMPDEST CALLVALUE PUSH2 0x239 JUMPI PUSH1 0x0 CALLDATASIZE PUSH1 0x3 NOT ADD SLT PUSH2 0x239 JUMPI PUSH1 0x20 PUSH1 0xFF PUSH1 0x1 SLOAD AND PUSH1 0x40 MLOAD SWAP1 ISZERO ISZERO DUP2 MSTORE RETURN JUMPDEST CALLVALUE PUSH2 0x239 JUMPI PUSH1 0xC0 CALLDATASIZE PUSH1 0x3 NOT ADD SLT PUSH2 0x239 JUMPI PUSH2 0x1252 PUSH2 0x24C6 JUMP JUMPDEST PUSH8 0xFFFFFFFFFFFFFFFF SWAP1 PUSH1 0x24 CALLDATALOAD DUP3 DUP2 GT PUSH2 0x239 JUMPI PUSH2 0x1274 SWAP1 CALLDATASIZE SWAP1 PUSH1 0x4 ADD PUSH2 0x2627 JUMP JUMPDEST SWAP1 PUSH1 0x44 CALLDATALOAD PUSH1 0x64 CALLDATALOAD DUP5 DUP2 GT PUSH2 0x239 JUMPI PUSH2 0x1290 SWAP1 CALLDATASIZE SWAP1 PUSH1 0x4 ADD PUSH2 0x2627 JUMP JUMPDEST PUSH1 0x84 CALLDATALOAD SWAP5 PUSH1 0xA4 CALLDATALOAD SWAP1 DUP2 GT PUSH2 0x239 JUMPI CALLDATASIZE PUSH1 0x23 DUP3 ADD SLT ISZERO PUSH2 0x239 JUMPI PUSH2 0x12BD SWAP1 CALLDATASIZE SWAP1 PUSH1 0x24 DUP2 PUSH1 0x4 ADD CALLDATALOAD SWAP2 ADD PUSH2 0x25E0 JUMP JUMPDEST CALLER PUSH1 0x0 MSTORE PUSH1 0x20 SWAP4 PUSH1 0xB DUP6 MSTORE PUSH2 0x12D9 PUSH1 0xFF PUSH1 0x40 PUSH1 0x0 KECCAK256 SLOAD AND PUSH2 0x2850 JUMP JUMPDEST PUSH2 0x12E1 PUSH2 0x280C JUMP JUMPDEST PUSH1 0x1 DUP1 PUSH1 0xA0 SHL SUB AND SWAP6 DUP7 PUSH1 0x0 MSTORE PUSH1 0x4 DUP6 MSTORE PUSH2 0x1303 PUSH1 0xFF PUSH1 0x40 PUSH1 0x0 KECCAK256 SLOAD AND PUSH2 0x28B8 JUMP JUMPDEST PUSH1 0x64 DUP2 GT PUSH2 0x140B JUMPI DUP2 MLOAD ISZERO PUSH2 0x13B1 JUMPI PUSH2 0x13A8 SWAP5 SWAP3 PUSH32 0x8408447970DCF8C9A0DF3798550966E2211FEBE63BA8914A95BA2C05E7FD79B9 SWAP7 SWAP5 SWAP3 PUSH2 0x137B SWAP3 PUSH1 0x40 MLOAD SWAP3 PUSH2 0x134C DUP5 PUSH2 0x2531 JUMP JUMPDEST TIMESTAMP DUP5 MSTORE DUP8 DUP8 DUP6 ADD MSTORE DUP6 PUSH1 0x40 DUP6 ADD MSTORE PUSH1 0x60 DUP5 ADD MSTORE PUSH1 0x80 DUP4 ADD MSTORE PUSH1 0xA0 DUP3 ADD MSTORE DUP8 PUSH1 0x0 MSTORE PUSH1 0x7 DUP5 MSTORE PUSH1 0x40 PUSH1 0x0 KECCAK256 PUSH2 0x29FA JUMP JUMPDEST DUP6 PUSH1 0x0 MSTORE PUSH1 0x8 DUP3 MSTORE PUSH1 0x40 PUSH1 0x0 KECCAK256 PUSH2 0x1392 DUP2 SLOAD PUSH2 0x2997 JUMP JUMPDEST SWAP1 SSTORE PUSH1 0x40 MLOAD SWAP4 DUP5 SWAP4 PUSH1 0x40 DUP6 MSTORE PUSH1 0x40 DUP6 ADD SWAP1 PUSH2 0x2725 JUMP JUMPDEST SWAP2 DUP4 ADD MSTORE SUB SWAP1 LOG2 STOP JUMPDEST PUSH1 0x40 MLOAD PUSH3 0x461BCD PUSH1 0xE5 SHL DUP2 MSTORE PUSH1 0x4 DUP2 ADD DUP7 SWAP1 MSTORE PUSH1 0x2C PUSH1 0x24 DUP3 ADD MSTORE PUSH32 0x5472757374456E67696E653A20496E76616C696420656E7669726F6E6D656E74 PUSH1 0x44 DUP3 ADD MSTORE PUSH12 0x616C207369676E6174757265 PUSH1 0xA0 SHL PUSH1 0x64 DUP3 ADD MSTORE PUSH1 0x84 SWAP1 REVERT JUMPDEST PUSH1 0x64 DUP6 PUSH1 0x40 MLOAD SWAP1 PUSH3 0x461BCD PUSH1 0xE5 SHL DUP3 MSTORE DUP1 PUSH1 0x4 DUP4 ADD MSTORE PUSH1 0x24 DUP3 ADD MSTORE PUSH32 0x5472757374456E67696E653A20436F6E666964656E636520746F6F2068696768 PUSH1 0x44 DUP3 ADD MSTORE REVERT JUMPDEST CALLVALUE PUSH2 0x239 JUMPI PUSH1 0x20 CALLDATASIZE PUSH1 0x3 NOT ADD SLT PUSH2 0x239 JUMPI PUSH1 0x1 PUSH1 0x1 PUSH1 0xA0 SHL SUB PUSH2 0x146F PUSH2 0x24C6 JUMP JUMPDEST AND PUSH1 0x0 MSTORE PUSH1 0x6 PUSH1 0x20 MSTORE PUSH1 0x20 PUSH1 0x40 PUSH1 0x0 KECCAK256 SLOAD PUSH1 0x40 MLOAD SWAP1 DUP2 MSTORE RETURN JUMPDEST CALLVALUE PUSH2 0x239 JUMPI PUSH1 0x40 CALLDATASIZE PUSH1 0x3 NOT ADD SLT PUSH2 0x239 JUMPI PUSH2 0x14A1 PUSH2 0x24C6 JUMP JUMPDEST PUSH1 0x24 CALLDATALOAD PUSH2 0x14AC PUSH2 0x280C JUMP JUMPDEST CALLER PUSH1 0x0 MSTORE PUSH1 0x20 SWAP1 PUSH1 0x5 DUP3 MSTORE PUSH1 0x40 PUSH1 0x0 KECCAK256 SLOAD DUP2 LT ISZERO PUSH2 0x1602 JUMPI PUSH2 0x14DA SWAP1 CALLER PUSH1 0x0 MSTORE PUSH1 0x5 DUP4 MSTORE PUSH1 0x40 PUSH1 0x0 KECCAK256 PUSH2 0x24DC JUMP JUMPDEST POP PUSH1 0x1 DUP2 ADD SLOAD PUSH1 0x1 PUSH1 0x1 PUSH1 0xA0 SHL SUB SWAP4 DUP5 AND SWAP4 AND DUP4 SWAP1 SUB PUSH2 0x15BD JUMPI PUSH1 0x4 ADD DUP1 SLOAD PUSH1 0xFF DUP2 AND ISZERO PUSH2 0x1567 JUMPI PUSH1 0xFF NOT AND SWAP1 SSTORE DUP2 PUSH1 0x0 MSTORE PUSH1 0x4 DUP2 MSTORE PUSH1 0xFF PUSH1 0x40 PUSH1 0x0 KECCAK256 SLOAD AND PUSH2 0x1547 JUMPI JUMPDEST POP CALLER PUSH32 0x5145EB55DDA20F7829838AF8F45D7E416F925A24CCC15AD0C788FB26A84A0E95 PUSH1 0x0 DUP1 LOG3 STOP JUMPDEST PUSH1 0x3 SWAP1 MSTORE PUSH1 0x40 PUSH1 0x0 KECCAK256 PUSH1 0x1 PUSH2 0x155E PUSH2 0x5E4 DUP4 PUSH2 0x2920 JUMP JUMPDEST SWAP2 ADD SSTORE DUP2 PUSH2 0x151E JUMP JUMPDEST PUSH1 0x40 MLOAD PUSH3 0x461BCD PUSH1 0xE5 SHL DUP2 MSTORE PUSH1 0x4 DUP2 ADD DUP5 SWAP1 MSTORE PUSH1 0x28 PUSH1 0x24 DUP3 ADD MSTORE PUSH32 0x5472757374456E67696E653A2044656C65676174696F6E20616C726561647920 PUSH1 0x44 DUP3 ADD MSTORE PUSH8 0x696E616374697665 PUSH1 0xC0 SHL PUSH1 0x64 DUP3 ADD MSTORE PUSH1 0x84 SWAP1 REVERT JUMPDEST PUSH1 0x40 MLOAD PUSH3 0x461BCD PUSH1 0xE5 SHL DUP2 MSTORE PUSH1 0x4 DUP2 ADD DUP4 SWAP1 MSTORE PUSH1 0x1E PUSH1 0x24 DUP3 ADD MSTORE PUSH32 0x5472757374456E67696E653A2044656C6567617465206D69736D617463680000 PUSH1 0x44 DUP3 ADD MSTORE PUSH1 0x64 SWAP1 REVERT JUMPDEST PUSH1 0x40 MLOAD PUSH3 0x461BCD PUSH1 0xE5 SHL DUP2 MSTORE PUSH1 0x4 DUP2 ADD DUP4 SWAP1 MSTORE PUSH1 0x25 PUSH1 0x24 DUP3 ADD MSTORE PUSH32 0x5472757374456E67696E653A20496E76616C69642064656C65676174696F6E20 PUSH1 0x44 DUP3 ADD MSTORE PUSH5 0xD2DCC8CAF PUSH1 0xDB SHL PUSH1 0x64 DUP3 ADD MSTORE PUSH1 0x84 SWAP1 REVERT JUMPDEST CALLVALUE PUSH2 0x239 JUMPI PUSH1 0x20 CALLDATASIZE PUSH1 0x3 NOT ADD SLT PUSH2 0x239 JUMPI PUSH2 0x166E PUSH2 0x24C6 JUMP JUMPDEST PUSH2 0x1676 PUSH2 0x2765 JUMP JUMPDEST PUSH1 0x1 PUSH1 0x1 PUSH1 0xA0 SHL SUB AND PUSH1 0x0 DUP2 DUP2 MSTORE PUSH1 0xB PUSH1 0x20 MSTORE PUSH1 0x40 DUP2 KECCAK256 DUP1 SLOAD PUSH1 0xFF NOT AND PUSH1 0x1 OR SWAP1 SSTORE PUSH32 0xE366C1C0452ED8EEC96861E9E54141EBFF23C9EC89FE27B996B45F5EC3884987 SWAP1 DUP1 LOG2 STOP JUMPDEST CALLVALUE PUSH2 0x239 JUMPI PUSH1 0x40 CALLDATASIZE PUSH1 0x3 NOT ADD SLT PUSH2 0x239 JUMPI PUSH2 0x16D7 PUSH2 0x24C6 JUMP JUMPDEST PUSH1 0x24 CALLDATALOAD SWAP1 PUSH2 0x16E3 PUSH2 0x2765 JUMP JUMPDEST PUSH2 0x16EB PUSH2 0x280C JUMP JUMPDEST PUSH1 0x1 DUP1 PUSH1 0xA0 SHL SUB AND SWAP2 DUP3 PUSH1 0x0 MSTORE PUSH1 0x20 SWAP1 PUSH1 0x4 DUP3 MSTORE PUSH1 0xFF PUSH1 0x40 PUSH1 0x0 KECCAK256 SLOAD AND PUSH2 0x1803 JUMPI SWAP2 PUSH1 0x0 PUSH1 0x40 SWAP3 PUSH1 0x0 DUP1 MLOAD PUSH1 0x20 PUSH2 0x303C DUP4 CODECOPY DUP2 MLOAD SWAP2 MSTORE SWAP5 PUSH2 0x172F PUSH1 0x64 DUP6 GT ISZERO PUSH2 0x27C0 JUMP JUMPDEST PUSH1 0x8 DUP8 DUP7 MLOAD SWAP3 PUSH2 0x173E DUP5 PUSH2 0x254D JUMP JUMPDEST DUP7 DUP5 MSTORE DUP5 DUP5 ADD SWAP1 DUP8 DUP3 MSTORE PUSH2 0x17CD DUP10 DUP7 ADD SWAP2 PUSH1 0x64 DUP4 MSTORE PUSH1 0x60 DUP8 ADD SWAP1 DUP10 DUP3 MSTORE PUSH1 0x80 DUP9 ADD DUP11 DUP2 MSTORE PUSH1 0xA0 DUP10 ADD SWAP3 DUP12 DUP5 MSTORE PUSH1 0xC0 DUP11 ADD SWAP3 DUP13 DUP5 MSTORE DUP11 ADD SWAP6 TIMESTAMP DUP8 MSTORE PUSH2 0x100 DUP12 ADD SWAP8 DUP14 DUP10 MSTORE PUSH2 0x120 DUP13 ADD SWAP10 PUSH1 0x64 DUP12 MSTORE DUP15 MSTORE PUSH1 0x3 DUP14 MSTORE DUP16 DUP15 KECCAK256 SWAP12 MLOAD DUP13 SSTORE MLOAD PUSH1 0x1 DUP13 ADD SSTORE MLOAD PUSH1 0x2 DUP12 ADD SSTORE MLOAD PUSH1 0x3 DUP11 ADD SSTORE MLOAD PUSH1 0x4 DUP10 ADD SSTORE PUSH2 0xE10 PUSH1 0x5 DUP10 ADD SWAP3 MLOAD ISZERO ISZERO DUP4 SWAP1 PUSH1 0xFF DUP1 NOT DUP4 SLOAD AND SWAP2 ISZERO ISZERO AND OR SWAP1 SSTORE JUMP JUMPDEST MLOAD PUSH1 0x6 DUP6 ADD SSTORE MLOAD PUSH1 0x7 DUP5 ADD SSTORE MLOAD SWAP2 ADD SSTORE PUSH1 0x4 DUP2 MSTORE DUP4 DUP3 KECCAK256 PUSH1 0x1 PUSH1 0xFF NOT DUP3 SLOAD AND OR SWAP1 SSTORE PUSH1 0xD DUP2 MSTORE TIMESTAMP DUP5 DUP4 KECCAK256 SSTORE DUP4 MLOAD SWAP3 DUP4 MSTORE DUP3 ADD MSTORE LOG2 STOP JUMPDEST PUSH1 0x40 MLOAD PUSH3 0x461BCD PUSH1 0xE5 SHL DUP2 MSTORE PUSH1 0x4 DUP2 ADD DUP4 SWAP1 MSTORE PUSH1 0x27 PUSH1 0x24 DUP3 ADD MSTORE PUSH32 0x5472757374456E67696E653A2054727573742073636F726520616C7265616479 PUSH1 0x44 DUP3 ADD MSTORE PUSH7 0x20657869737473 PUSH1 0xC8 SHL PUSH1 0x64 DUP3 ADD MSTORE PUSH1 0x84 SWAP1 REVERT JUMPDEST CALLVALUE PUSH2 0x239 JUMPI PUSH1 0x20 CALLDATASIZE PUSH1 0x3 NOT ADD SLT PUSH2 0x239 JUMPI PUSH1 0x1 PUSH1 0x1 PUSH1 0xA0 SHL SUB PUSH2 0x1879 PUSH2 0x24C6 JUMP JUMPDEST AND PUSH1 0x0 MSTORE PUSH1 0xE PUSH1 0x20 MSTORE PUSH1 0x20 PUSH1 0x40 PUSH1 0x0 KECCAK256 SLOAD PUSH1 0x40 MLOAD SWAP1 DUP2 MSTORE RETURN JUMPDEST CALLVALUE PUSH2 0x239 JUMPI PUSH1 0x80 CALLDATASIZE PUSH1 0x3 NOT ADD SLT PUSH2 0x239 JUMPI PUSH2 0x18AB PUSH2 0x24C6 JUMP JUMPDEST PUSH1 0x24 SWAP1 DUP2 CALLDATALOAD SWAP2 PUSH1 0x44 CALLDATALOAD SWAP1 PUSH1 0x64 SWAP5 DUP6 CALLDATALOAD SWAP2 CALLER PUSH1 0x0 MSTORE PUSH1 0x20 SWAP5 PUSH1 0xB DUP7 MSTORE PUSH2 0x18D7 PUSH1 0xFF PUSH1 0x40 PUSH1 0x0 KECCAK256 SLOAD AND PUSH2 0x2850 JUMP JUMPDEST PUSH2 0x18DF PUSH2 0x280C JUMP JUMPDEST PUSH1 0x1 DUP1 PUSH1 0xA0 SHL SUB AND SWAP7 DUP8 PUSH1 0x0 MSTORE PUSH1 0x4 DUP7 MSTORE PUSH2 0x1901 PUSH1 0xFF PUSH1 0x40 PUSH1 0x0 KECCAK256 SLOAD AND PUSH2 0x28B8 JUMP JUMPDEST DUP8 PUSH1 0x0 MSTORE PUSH1 0xD DUP7 MSTORE PUSH2 0x1922 PUSH1 0x40 PUSH1 0x0 KECCAK256 SLOAD PUSH1 0xE DUP9 MSTORE PUSH1 0x40 PUSH1 0x0 KECCAK256 SLOAD SWAP1 PUSH2 0x2913 JUMP JUMPDEST TIMESTAMP LT PUSH2 0x1BCD JUMPI PUSH2 0x3E8 DUP8 GT PUSH2 0x1B8D JUMPI DUP1 DUP6 GT PUSH2 0x1B39 JUMPI DUP1 DUP5 GT PUSH2 0x1AEB JUMPI POP DUP7 PUSH1 0x0 MSTORE PUSH1 0x4 DUP6 MSTORE PUSH1 0xFF PUSH1 0x40 PUSH1 0x0 KECCAK256 SLOAD AND PUSH2 0x19B4 JUMPI JUMPDEST DUP7 PUSH1 0x0 DUP1 MLOAD PUSH1 0x20 PUSH2 0x303C DUP4 CODECOPY DUP2 MLOAD SWAP2 MSTORE PUSH1 0x40 DUP9 PUSH1 0x1 DUP10 DUP10 DUP10 DUP8 PUSH1 0x0 MSTORE PUSH1 0x3 DUP4 MSTORE DUP6 PUSH1 0x0 KECCAK256 SWAP2 DUP6 DUP4 SSTORE PUSH1 0x7 DUP4 ADD SSTORE PUSH1 0x8 DUP3 ADD SSTORE TIMESTAMP PUSH1 0x6 DUP3 ADD SSTORE PUSH1 0xD DUP3 MSTORE TIMESTAMP DUP6 PUSH1 0x0 KECCAK256 SSTORE PUSH2 0x19A4 PUSH2 0x5E4 DUP3 PUSH2 0x2920 JUMP JUMPDEST SWAP3 DUP4 SWAP2 ADD SSTORE DUP4 MLOAD SWAP3 DUP4 MSTORE DUP3 ADD MSTORE LOG2 STOP JUMPDEST PUSH1 0x3 DUP6 MSTORE PUSH2 0x19C5 PUSH1 0x40 PUSH1 0x0 KECCAK256 PUSH2 0x2920 JUMP JUMPDEST SWAP1 DUP2 MLOAD SWAP1 DUP2 PUSH1 0x1 SHL SWAP2 DUP1 DUP4 DIV PUSH1 0x2 EQ SWAP1 ISZERO OR ISZERO PUSH2 0x5FC JUMPI POP SWAP3 PUSH1 0x3C PUSH2 0x1A0B PUSH1 0x40 SWAP8 SWAP5 DUP10 SWAP8 SWAP5 PUSH1 0x1 SWAP8 PUSH1 0x0 DUP1 MLOAD PUSH1 0x20 PUSH2 0x303C DUP4 CODECOPY DUP2 MLOAD SWAP2 MSTORE SWAP12 GT PUSH2 0x1A82 JUMPI JUMPDEST ADD MLOAD TIMESTAMP PUSH2 0x2CA4 JUMP JUMPDEST LT PUSH2 0x1A1D JUMPI JUMPDEST SWAP3 POP SWAP3 SWAP5 DUP2 SWAP5 POP PUSH2 0x1956 JUMP JUMPDEST DUP8 PUSH1 0x0 MSTORE PUSH1 0xF DUP4 MSTORE DUP6 PUSH1 0x0 KECCAK256 PUSH2 0x1A33 DUP2 SLOAD PUSH2 0x2997 JUMP JUMPDEST SWAP1 SSTORE DUP8 PUSH32 0x3FDEEA3275F7D2907F5B589F76BEA42EDE0236C2646B61EAACE386B41C44972D PUSH1 0x60 DUP9 MLOAD DUP7 DUP2 MSTORE PUSH1 0x10 DUP8 DUP3 ADD MSTORE PUSH16 0x4672657175656E742075706461746573 PUSH1 0x80 SHL DUP11 DUP3 ADD MSTORE LOG2 PUSH2 0x1A11 JUMP JUMPDEST DUP12 PUSH1 0x0 MSTORE PUSH1 0xF DUP8 MSTORE DUP10 PUSH1 0x0 KECCAK256 PUSH2 0x1A98 DUP2 SLOAD PUSH2 0x2997 JUMP JUMPDEST SWAP1 SSTORE DUP12 PUSH32 0x3FDEEA3275F7D2907F5B589F76BEA42EDE0236C2646B61EAACE386B41C44972D PUSH1 0x60 DUP13 MLOAD DUP11 DUP2 MSTORE PUSH1 0x14 DUP12 DUP3 ADD MSTORE PUSH20 0x52617069642073636F726520696E637265617365 PUSH1 0x60 SHL DUP15 DUP3 ADD MSTORE LOG2 PUSH2 0x1A03 JUMP JUMPDEST PUSH3 0xD2CED PUSH1 0xEB SHL DUP7 SWAP2 PUSH1 0x23 PUSH1 0x84 SWAP5 PUSH1 0x40 MLOAD SWAP5 PUSH3 0x461BCD PUSH1 0xE5 SHL DUP7 MSTORE PUSH1 0x4 DUP7 ADD MSTORE DUP5 ADD MSTORE PUSH32 0x5472757374456E67696E653A20507269766163792073636F726520746F6F2068 PUSH1 0x44 DUP5 ADD MSTORE DUP3 ADD MSTORE REVERT JUMPDEST PUSH9 0x40E8DEDE40D0D2CED PUSH1 0xBB SHL DUP7 SWAP2 PUSH1 0x29 PUSH1 0x84 SWAP5 PUSH1 0x40 MLOAD SWAP5 PUSH3 0x461BCD PUSH1 0xE5 SHL DUP7 MSTORE PUSH1 0x4 DUP7 ADD MSTORE DUP5 ADD MSTORE PUSH32 0x5472757374456E67696E653A20456E7669726F6E6D656E74616C2073636F7265 PUSH1 0x44 DUP5 ADD MSTORE DUP3 ADD MSTORE REVERT JUMPDEST SWAP1 DUP6 PUSH1 0x40 MLOAD SWAP2 PUSH3 0x461BCD PUSH1 0xE5 SHL DUP4 MSTORE DUP2 PUSH1 0x4 DUP5 ADD MSTORE DUP3 ADD MSTORE PUSH32 0x5472757374456E67696E653A20426173652073636F726520746F6F2068696768 PUSH1 0x44 DUP3 ADD MSTORE REVERT JUMPDEST SWAP1 DUP6 PUSH1 0x40 MLOAD SWAP2 PUSH3 0x461BCD PUSH1 0xE5 SHL DUP4 MSTORE DUP2 PUSH1 0x4 DUP5 ADD MSTORE DUP3 ADD MSTORE PUSH32 0x5472757374456E67696E653A2055706461746520746F6F206672657175656E74 PUSH1 0x44 DUP3 ADD MSTORE REVERT JUMPDEST CALLVALUE PUSH2 0x239 JUMPI PUSH1 0x20 CALLDATASIZE PUSH1 0x3 NOT ADD SLT PUSH2 0x239 JUMPI PUSH2 0x1C26 PUSH2 0x24C6 JUMP JUMPDEST PUSH2 0x1C2E PUSH2 0x2765 JUMP JUMPDEST PUSH2 0x1C36 PUSH2 0x280C JUMP JUMPDEST PUSH1 0x1 PUSH1 0x1 PUSH1 0xA0 SHL SUB AND PUSH1 0x0 DUP2 DUP2 MSTORE PUSH1 0xB PUSH1 0x20 MSTORE PUSH1 0x40 SWAP1 KECCAK256 SLOAD PUSH1 0xFF AND ISZERO PUSH2 0x1CA9 JUMPI DUP1 PUSH1 0x0 MSTORE PUSH1 0xB PUSH1 0x20 MSTORE PUSH1 0x40 PUSH1 0x0 KECCAK256 PUSH1 0xFF NOT DUP2 SLOAD AND SWAP1 SSTORE PUSH1 0x3 PUSH1 0x20 MSTORE PUSH1 0x5 PUSH1 0x40 PUSH1 0x0 KECCAK256 ADD PUSH2 0xFF00 NOT DUP2 SLOAD AND SWAP1 SSTORE PUSH32 0xE1434E25D6611E0DB941968FDC97811C982AC1602E951637D206F5FDDA9DD8F1 PUSH1 0x0 DUP1 LOG2 STOP JUMPDEST PUSH1 0x40 MLOAD PUSH3 0x461BCD PUSH1 0xE5 SHL DUP2 MSTORE PUSH1 0x20 PUSH1 0x4 DUP3 ADD MSTORE PUSH1 0x1C PUSH1 0x24 DUP3 ADD MSTORE PUSH32 0x5472757374456E67696E653A204E6F7420612076616C696461746F7200000000 PUSH1 0x44 DUP3 ADD MSTORE PUSH1 0x64 SWAP1 REVERT JUMPDEST CALLVALUE PUSH2 0x239 JUMPI PUSH1 0x20 CALLDATASIZE PUSH1 0x3 NOT ADD SLT PUSH2 0x239 JUMPI PUSH1 0x1 PUSH1 0x1 PUSH1 0xA0 SHL SUB PUSH2 0x1D0F PUSH2 0x24C6 JUMP JUMPDEST AND PUSH1 0x0 MSTORE PUSH1 0x8 PUSH1 0x20 MSTORE PUSH1 0x20 PUSH1 0x40 PUSH1 0x0 KECCAK256 SLOAD PUSH1 0x40 MLOAD SWAP1 DUP2 MSTORE RETURN JUMPDEST CALLVALUE PUSH2 0x239 JUMPI PUSH1 0x0 CALLDATASIZE PUSH1 0x3 NOT ADD SLT PUSH2 0x239 JUMPI PUSH2 0x1D41 PUSH2 0x2765 JUMP JUMPDEST PUSH1 0x1 SLOAD PUSH1 0xFF DUP2 AND ISZERO PUSH2 0x1D80 JUMPI PUSH1 0xFF NOT AND PUSH1 0x1 SSTORE PUSH32 0x5DB9EE0A495BF2E6FF9C91A7834C1BA4FDD244A5E8AA4E537BD38AEAE4B073AA PUSH1 0x20 PUSH1 0x40 MLOAD CALLER DUP2 MSTORE LOG1 STOP JUMPDEST PUSH1 0x40 MLOAD PUSH3 0x461BCD PUSH1 0xE5 SHL DUP2 MSTORE PUSH1 0x20 PUSH1 0x4 DUP3 ADD MSTORE PUSH1 0x14 PUSH1 0x24 DUP3 ADD MSTORE PUSH20 0x14185D5CD8589B194E881B9BDD081C185D5CD959 PUSH1 0x62 SHL PUSH1 0x44 DUP3 ADD MSTORE PUSH1 0x64 SWAP1 REVERT JUMPDEST CALLVALUE PUSH2 0x239 JUMPI PUSH1 0x20 DUP1 PUSH1 0x3 NOT CALLDATASIZE ADD SLT PUSH2 0x239 JUMPI PUSH1 0x4 CALLDATALOAD PUSH2 0x1DD9 PUSH2 0x280C JUMP JUMPDEST CALLER PUSH1 0x0 MSTORE PUSH1 0x4 DUP3 MSTORE PUSH1 0xFF PUSH1 0x40 PUSH1 0x0 KECCAK256 SLOAD AND ISZERO PUSH2 0x1F37 JUMPI PUSH2 0x1DFC PUSH1 0x64 DUP3 GT ISZERO PUSH2 0x27C0 JUMP JUMPDEST CALLER PUSH1 0x0 MSTORE PUSH1 0x8 DUP3 MSTORE PUSH1 0x40 PUSH1 0x0 KECCAK256 SLOAD ISZERO PUSH2 0x1EFA JUMPI CALLER PUSH1 0x0 MSTORE PUSH1 0x7 DUP3 MSTORE PUSH1 0x40 PUSH1 0x0 KECCAK256 PUSH1 0x8 DUP4 MSTORE PUSH1 0x40 PUSH1 0x0 KECCAK256 SLOAD SWAP1 PUSH1 0x0 NOT DUP3 ADD SWAP2 DUP3 GT PUSH2 0x1EE4 JUMPI PUSH2 0x1E4C PUSH2 0x1E46 PUSH2 0x12C SWAP4 PUSH2 0x1E53 SWAP4 PUSH2 0x24DC JUMP JUMPDEST POP PUSH2 0x2D90 JUMP JUMPDEST MLOAD TIMESTAMP PUSH2 0x2CA4 JUMP JUMPDEST GT PUSH2 0x1E9F JUMPI CALLER PUSH1 0x0 MSTORE PUSH1 0x3 DUP3 MSTORE PUSH1 0x40 PUSH1 0x0 KECCAK256 DUP2 DUP2 SSTORE DUP2 PUSH1 0x1 DUP3 ADD SSTORE PUSH1 0x6 TIMESTAMP SWAP2 ADD SSTORE PUSH1 0xD DUP3 MSTORE TIMESTAMP PUSH1 0x40 PUSH1 0x0 KECCAK256 SSTORE PUSH1 0x40 MLOAD SWAP2 DUP2 DUP4 MSTORE DUP3 ADD MSTORE PUSH1 0x0 DUP1 MLOAD PUSH1 0x20 PUSH2 0x303C DUP4 CODECOPY DUP2 MLOAD SWAP2 MSTORE PUSH1 0x40 CALLER SWAP3 LOG2 STOP JUMPDEST PUSH1 0x40 MLOAD PUSH3 0x461BCD PUSH1 0xE5 SHL DUP2 MSTORE PUSH1 0x4 DUP2 ADD DUP4 SWAP1 MSTORE PUSH1 0x1A PUSH1 0x24 DUP3 ADD MSTORE PUSH32 0x456E7669726F6E6D656E74616C206461746120746F6F206F6C64000000000000 PUSH1 0x44 DUP3 ADD MSTORE PUSH1 0x64 SWAP1 REVERT JUMPDEST PUSH4 0x4E487B71 PUSH1 0xE0 SHL PUSH1 0x0 MSTORE PUSH1 0x11 PUSH1 0x4 MSTORE PUSH1 0x24 PUSH1 0x0 REVERT JUMPDEST PUSH1 0x40 MLOAD PUSH3 0x461BCD PUSH1 0xE5 SHL DUP2 MSTORE PUSH1 0x4 DUP2 ADD DUP4 SWAP1 MSTORE PUSH1 0x15 PUSH1 0x24 DUP3 ADD MSTORE PUSH21 0x4E6F20656E7669726F6E6D656E74616C2064617461 PUSH1 0x58 SHL PUSH1 0x44 DUP3 ADD MSTORE PUSH1 0x64 SWAP1 REVERT JUMPDEST PUSH1 0x40 MLOAD PUSH3 0x461BCD PUSH1 0xE5 SHL DUP2 MSTORE PUSH1 0x4 DUP2 ADD DUP4 SWAP1 MSTORE PUSH1 0x1B PUSH1 0x24 DUP3 ADD MSTORE PUSH32 0x5472757374456E67696E653A204E6F2074727573742073636F72650000000000 PUSH1 0x44 DUP3 ADD MSTORE PUSH1 0x64 SWAP1 REVERT JUMPDEST CALLVALUE PUSH2 0x239 JUMPI PUSH1 0x40 CALLDATASIZE PUSH1 0x3 NOT ADD SLT PUSH2 0x239 JUMPI PUSH2 0x1F95 PUSH2 0x24C6 JUMP JUMPDEST PUSH2 0x1F9D PUSH2 0x280C JUMP JUMPDEST CALLER PUSH1 0x0 MSTORE PUSH1 0x4 PUSH1 0x20 MSTORE PUSH2 0x1FB7 PUSH1 0xFF PUSH1 0x40 PUSH1 0x0 KECCAK256 SLOAD AND PUSH2 0x28B8 JUMP JUMPDEST PUSH1 0x1 PUSH1 0x1 PUSH1 0xA0 SHL SUB DUP2 AND PUSH1 0x0 SWAP1 DUP2 MSTORE PUSH1 0x4 PUSH1 0x20 MSTORE PUSH1 0x40 SWAP1 KECCAK256 SLOAD PUSH2 0x1FDC SWAP1 PUSH1 0xFF AND PUSH2 0x28B8 JUMP JUMPDEST PUSH1 0x1 PUSH1 0x1 PUSH1 0xA0 SHL SUB DUP2 AND CALLER EQ PUSH2 0x2295 JUMPI PUSH1 0x24 CALLDATALOAD ISZERO PUSH2 0x2238 JUMPI CALLER PUSH1 0x0 MSTORE PUSH1 0x6 PUSH1 0x20 MSTORE PUSH1 0xA PUSH1 0x40 PUSH1 0x0 KECCAK256 SLOAD LT ISZERO PUSH2 0x21E9 JUMPI PUSH1 0x3 PUSH1 0x20 MSTORE PUSH1 0x1 PUSH1 0x1 PUSH1 0xA0 SHL SUB DUP2 AND PUSH1 0x0 SWAP1 DUP2 MSTORE PUSH1 0x40 SWAP1 KECCAK256 PUSH1 0x4 DUP2 ADD SLOAD PUSH1 0x5 DUP2 LT ISZERO PUSH2 0x218E JUMPI PUSH1 0x1 DUP2 ADD DUP1 SWAP2 GT PUSH2 0x1EE4 JUMPI PUSH1 0x40 MLOAD PUSH2 0x2048 DUP2 PUSH2 0x2531 JUMP JUMPDEST CALLER DUP2 MSTORE PUSH1 0x20 DUP2 ADD SWAP1 PUSH1 0x1 DUP1 PUSH1 0xA0 SHL SUB DUP6 AND DUP3 MSTORE PUSH1 0x40 DUP2 ADD SWAP1 PUSH1 0x24 CALLDATALOAD DUP3 MSTORE PUSH1 0x60 DUP2 ADD SWAP3 TIMESTAMP DUP5 MSTORE PUSH1 0x80 DUP3 ADD SWAP5 PUSH1 0x1 DUP7 MSTORE PUSH1 0xA0 DUP4 ADD MSTORE CALLER PUSH1 0x0 MSTORE PUSH1 0x5 PUSH1 0x20 MSTORE PUSH1 0x40 PUSH1 0x0 KECCAK256 DUP1 SLOAD PUSH1 0x1 PUSH1 0x40 SHL DUP2 LT ISZERO PUSH2 0x880 JUMPI PUSH2 0x20A6 SWAP2 PUSH1 0x1 DUP3 ADD DUP2 SSTORE PUSH2 0x24DC JUMP JUMPDEST SWAP6 SWAP1 SWAP6 PUSH2 0x2178 JUMPI DUP3 MLOAD DUP7 SLOAD PUSH1 0x1 PUSH1 0x1 PUSH1 0xA0 SHL SUB SWAP2 DUP3 AND PUSH1 0x1 PUSH1 0x1 PUSH1 0xA0 SHL SUB NOT SWAP2 DUP3 AND OR DUP9 SSTORE SWAP3 MLOAD PUSH1 0x1 DUP9 ADD DUP1 SLOAD SWAP2 SWAP1 SWAP3 AND SWAP4 AND SWAP3 SWAP1 SWAP3 OR SWAP1 SWAP2 SSTORE SWAP2 MLOAD PUSH1 0x2 DUP6 ADD SSTORE SWAP2 MLOAD PUSH1 0x3 DUP5 ADD SSTORE MLOAD PUSH1 0x4 DUP4 ADD DUP1 SLOAD PUSH1 0xFF NOT AND SWAP2 ISZERO ISZERO PUSH1 0xFF AND SWAP2 SWAP1 SWAP2 OR SWAP1 SSTORE PUSH1 0x5 SWAP1 PUSH1 0xA0 ADD MLOAD SWAP2 ADD SSTORE CALLER PUSH1 0x0 MSTORE PUSH1 0x6 PUSH1 0x20 MSTORE PUSH1 0x40 PUSH1 0x0 KECCAK256 PUSH2 0x2127 DUP2 SLOAD PUSH2 0x2997 JUMP JUMPDEST SWAP1 SSTORE PUSH1 0x1 PUSH2 0x2137 PUSH2 0x5E4 DUP4 PUSH2 0x2920 JUMP JUMPDEST SWAP2 ADD SSTORE PUSH1 0x40 MLOAD PUSH1 0x24 CALLDATALOAD DUP2 MSTORE PUSH1 0x1 PUSH1 0x1 PUSH1 0xA0 SHL SUB SWAP1 SWAP2 AND SWAP1 CALLER SWAP1 PUSH32 0xB58A34790B02732CE9546BED68EF7D135420000706C11F509044F1A0EBDBA83B SWAP1 PUSH1 0x20 SWAP1 LOG3 STOP JUMPDEST PUSH4 0x4E487B71 PUSH1 0xE0 SHL PUSH1 0x0 MSTORE PUSH1 0x0 PUSH1 0x4 MSTORE PUSH1 0x24 PUSH1 0x0 REVERT JUMPDEST PUSH1 0x40 MLOAD PUSH3 0x461BCD PUSH1 0xE5 SHL DUP2 MSTORE PUSH1 0x20 PUSH1 0x4 DUP3 ADD MSTORE PUSH1 0x2D PUSH1 0x24 DUP3 ADD MSTORE PUSH32 0x5472757374456E67696E653A2044656C6567617465206174206D61782064656C PUSH1 0x44 DUP3 ADD MSTORE PUSH13 0xCACEC2E8D2DEDC40C8CAE0E8D PUSH1 0x9B SHL PUSH1 0x64 DUP3 ADD MSTORE PUSH1 0x84 SWAP1 REVERT JUMPDEST PUSH1 0x40 MLOAD PUSH3 0x461BCD PUSH1 0xE5 SHL DUP2 MSTORE PUSH1 0x20 PUSH1 0x4 DUP3 ADD MSTORE PUSH1 0x21 PUSH1 0x24 DUP3 ADD MSTORE PUSH32 0x5472757374456E67696E653A20546F6F206D616E792064656C65676174696F6E PUSH1 0x44 DUP3 ADD MSTORE PUSH1 0x73 PUSH1 0xF8 SHL PUSH1 0x64 DUP3 ADD MSTORE PUSH1 0x84 SWAP1 REVERT JUMPDEST PUSH1 0x40 MLOAD PUSH3 0x461BCD PUSH1 0xE5 SHL DUP2 MSTORE PUSH1 0x20 PUSH1 0x4 DUP3 ADD MSTORE PUSH1 0x2F PUSH1 0x24 DUP3 ADD MSTORE PUSH32 0x5472757374456E67696E653A2044656C65676174696F6E20616D6F756E74206D PUSH1 0x44 DUP3 ADD MSTORE PUSH15 0x75737420626520706F736974697665 PUSH1 0x88 SHL PUSH1 0x64 DUP3 ADD MSTORE PUSH1 0x84 SWAP1 REVERT JUMPDEST PUSH1 0x40 MLOAD PUSH3 0x461BCD PUSH1 0xE5 SHL DUP2 MSTORE PUSH1 0x20 PUSH1 0x4 DUP3 ADD MSTORE PUSH1 0x24 DUP1 DUP3 ADD MSTORE PUSH32 0x5472757374456E67696E653A2043616E6E6F742064656C656761746520746F20 PUSH1 0x44 DUP3 ADD MSTORE PUSH4 0x39B2B633 PUSH1 0xE1 SHL PUSH1 0x64 DUP3 ADD MSTORE PUSH1 0x84 SWAP1 REVERT JUMPDEST CALLVALUE PUSH2 0x239 JUMPI PUSH1 0x20 CALLDATASIZE PUSH1 0x3 NOT ADD SLT PUSH2 0x239 JUMPI PUSH1 0x1 PUSH1 0x1 PUSH1 0xA0 SHL SUB PUSH2 0x2307 PUSH2 0x24C6 JUMP JUMPDEST AND PUSH1 0x0 MSTORE PUSH1 0xD PUSH1 0x20 MSTORE PUSH1 0x20 PUSH1 0x40 PUSH1 0x0 KECCAK256 SLOAD PUSH1 0x40 MLOAD SWAP1 DUP2 MSTORE RETURN JUMPDEST CALLVALUE PUSH2 0x239 JUMPI PUSH1 0x40 CALLDATASIZE PUSH1 0x3 NOT ADD SLT PUSH2 0x239 JUMPI PUSH2 0x2339 PUSH2 0x24C6 JUMP JUMPDEST PUSH1 0x24 CALLDATALOAD SWAP1 PUSH1 0x1 DUP1 PUSH1 0xA0 SHL SUB DUP1 SWAP2 AND PUSH1 0x0 MSTORE PUSH1 0x5 PUSH1 0x20 MSTORE PUSH1 0x40 PUSH1 0x0 KECCAK256 DUP1 SLOAD DUP4 LT ISZERO PUSH2 0x239 JUMPI PUSH1 0xC0 SWAP3 PUSH2 0x2369 SWAP2 PUSH2 0x24DC JUMP JUMPDEST POP DUP2 DUP2 SLOAD AND SWAP2 PUSH1 0x1 DUP3 ADD SLOAD AND SWAP1 PUSH1 0x2 DUP2 ADD SLOAD PUSH1 0x3 DUP3 ADD SLOAD SWAP1 PUSH1 0x5 PUSH1 0xFF PUSH1 0x4 DUP6 ADD SLOAD AND SWAP4 ADD SLOAD SWAP4 PUSH1 0x40 MLOAD SWAP6 DUP7 MSTORE PUSH1 0x20 DUP7 ADD MSTORE PUSH1 0x40 DUP6 ADD MSTORE PUSH1 0x60 DUP5 ADD MSTORE ISZERO ISZERO PUSH1 0x80 DUP4 ADD MSTORE PUSH1 0xA0 DUP3 ADD MSTORE RETURN JUMPDEST CALLVALUE PUSH2 0x239 JUMPI PUSH1 0x0 CALLDATASIZE PUSH1 0x3 NOT ADD SLT PUSH2 0x239 JUMPI PUSH1 0x20 PUSH1 0x40 MLOAD PUSH1 0xA DUP2 MSTORE RETURN JUMPDEST CALLVALUE PUSH2 0x239 JUMPI PUSH1 0x20 CALLDATASIZE PUSH1 0x3 NOT ADD SLT PUSH2 0x239 JUMPI PUSH2 0x140 SWAP1 PUSH1 0x1 PUSH1 0x1 PUSH1 0xA0 SHL SUB PUSH2 0x23F3 PUSH2 0x24C6 JUMP JUMPDEST AND PUSH1 0x0 MSTORE PUSH1 0x3 PUSH1 0x20 MSTORE PUSH1 0x40 PUSH1 0x0 KECCAK256 SWAP1 DUP2 SLOAD SWAP2 PUSH1 0x1 DUP2 ADD SLOAD SWAP2 PUSH1 0x2 DUP3 ADD SLOAD SWAP1 PUSH1 0xFF PUSH1 0x3 DUP5 ADD SLOAD PUSH1 0x4 DUP6 ADD SLOAD PUSH1 0x5 DUP7 ADD SLOAD SWAP2 PUSH1 0x6 DUP8 ADD SLOAD SWAP6 PUSH1 0x8 PUSH1 0x7 DUP10 ADD SLOAD SWAP9 ADD SLOAD SWAP9 PUSH1 0x40 MLOAD SWAP11 DUP12 MSTORE PUSH1 0x20 DUP12 ADD MSTORE PUSH1 0x40 DUP11 ADD MSTORE PUSH1 0x60 DUP10 ADD MSTORE PUSH1 0x80 DUP9 ADD MSTORE DUP2 DUP2 AND ISZERO ISZERO PUSH1 0xA0 DUP9 ADD MSTORE PUSH1 0x8 SHR AND ISZERO ISZERO PUSH1 0xC0 DUP7 ADD MSTORE DUP5 ADD MSTORE PUSH2 0x100 DUP4 ADD MSTORE PUSH2 0x120 DUP3 ADD MSTORE RETURN JUMPDEST CALLVALUE PUSH2 0x239 JUMPI PUSH1 0x0 CALLDATASIZE PUSH1 0x3 NOT ADD SLT PUSH2 0x239 JUMPI PUSH1 0x20 PUSH1 0x40 MLOAD PUSH1 0x0 DUP2 MSTORE RETURN JUMPDEST CALLVALUE PUSH2 0x239 JUMPI PUSH1 0x20 CALLDATASIZE PUSH1 0x3 NOT ADD SLT PUSH2 0x239 JUMPI PUSH1 0x20 SWAP1 PUSH1 0x1 PUSH1 0x1 PUSH1 0xA0 SHL SUB PUSH2 0x24B4 PUSH2 0x24C6 JUMP JUMPDEST AND PUSH1 0x0 MSTORE PUSH1 0x9 DUP3 MSTORE PUSH1 0x40 PUSH1 0x0 KECCAK256 SLOAD DUP2 MSTORE RETURN JUMPDEST PUSH1 0x4 CALLDATALOAD SWAP1 PUSH1 0x1 PUSH1 0x1 PUSH1 0xA0 SHL SUB DUP3 AND DUP3 SUB PUSH2 0x239 JUMPI JUMP JUMPDEST DUP1 SLOAD DUP3 LT ISZERO PUSH2 0x24F8 JUMPI PUSH1 0x0 MSTORE PUSH1 0x6 PUSH1 0x20 PUSH1 0x0 KECCAK256 SWAP2 MUL ADD SWAP1 PUSH1 0x0 SWAP1 JUMP JUMPDEST PUSH4 0x4E487B71 PUSH1 0xE0 SHL PUSH1 0x0 MSTORE PUSH1 0x32 PUSH1 0x4 MSTORE PUSH1 0x24 PUSH1 0x0 REVERT JUMPDEST CALLVALUE PUSH2 0x239 JUMPI PUSH1 0x20 CALLDATASIZE PUSH1 0x3 NOT ADD SLT PUSH2 0x239 JUMPI PUSH1 0x20 PUSH2 0x72E PUSH2 0x252C PUSH2 0x24C6 JUMP JUMPDEST PUSH2 0x2E65 JUMP JUMPDEST PUSH1 0xC0 DUP2 ADD SWAP1 DUP2 LT PUSH8 0xFFFFFFFFFFFFFFFF DUP3 GT OR PUSH2 0x880 JUMPI PUSH1 0x40 MSTORE JUMP JUMPDEST PUSH2 0x140 DUP2 ADD SWAP1 DUP2 LT PUSH8 0xFFFFFFFFFFFFFFFF DUP3 GT OR PUSH2 0x880 JUMPI PUSH1 0x40 MSTORE JUMP JUMPDEST PUSH1 0xE0 DUP2 ADD SWAP1 DUP2 LT PUSH8 0xFFFFFFFFFFFFFFFF DUP3 GT OR PUSH2 0x880 JUMPI PUSH1 0x40 MSTORE JUMP JUMPDEST PUSH1 0x40 DUP2 ADD SWAP1 DUP2 LT PUSH8 0xFFFFFFFFFFFFFFFF DUP3 GT OR PUSH2 0x880 JUMPI PUSH1 0x40 MSTORE JUMP JUMPDEST PUSH1 0x20 DUP2 ADD SWAP1 DUP2 LT PUSH8 0xFFFFFFFFFFFFFFFF DUP3 GT OR PUSH2 0x880 JUMPI PUSH1 0x40 MSTORE JUMP JUMPDEST SWAP1 PUSH1 0x1F DUP1 NOT SWAP2 ADD AND DUP2 ADD SWAP1 DUP2 LT PUSH8 0xFFFFFFFFFFFFFFFF DUP3 GT OR PUSH2 0x880 JUMPI PUSH1 0x40 MSTORE JUMP JUMPDEST SWAP3 SWAP2 SWAP3 PUSH8 0xFFFFFFFFFFFFFFFF DUP3 GT PUSH2 0x880 JUMPI PUSH1 0x40 MLOAD SWAP2 PUSH2 0x260A PUSH1 0x1F DUP3 ADD PUSH1 0x1F NOT AND PUSH1 0x20 ADD DUP5 PUSH2 0x25BE JUMP JUMPDEST DUP3 SWAP5 DUP2 DUP5 MSTORE DUP2 DUP4 ADD GT PUSH2 0x239 JUMPI DUP3 DUP2 PUSH1 0x20 SWAP4 DUP5 PUSH1 0x0 SWAP7 ADD CALLDATACOPY ADD ADD MSTORE JUMP JUMPDEST SWAP1 DUP1 PUSH1 0x1F DUP4 ADD SLT ISZERO PUSH2 0x239 JUMPI DUP2 PUSH1 0x20 PUSH2 0x2642 SWAP4 CALLDATALOAD SWAP2 ADD PUSH2 0x25E0 JUMP JUMPDEST SWAP1 JUMP JUMPDEST SWAP1 PUSH1 0x1 DUP3 DUP2 SHR SWAP3 AND DUP1 ISZERO PUSH2 0x2675 JUMPI JUMPDEST PUSH1 0x20 DUP4 LT EQ PUSH2 0x265F JUMPI JUMP JUMPDEST PUSH4 0x4E487B71 PUSH1 0xE0 SHL PUSH1 0x0 MSTORE PUSH1 0x22 PUSH1 0x4 MSTORE PUSH1 0x24 PUSH1 0x0 REVERT JUMPDEST SWAP2 PUSH1 0x7F AND SWAP2 PUSH2 0x2654 JUMP JUMPDEST SWAP1 PUSH1 0x40 MLOAD SWAP2 DUP3 PUSH1 0x0 DUP3 SLOAD SWAP3 PUSH2 0x2693 DUP5 PUSH2 0x2645 JUMP JUMPDEST SWAP1 DUP2 DUP5 MSTORE PUSH1 0x1 SWAP5 DUP6 DUP2 AND SWAP1 DUP2 PUSH1 0x0 EQ PUSH2 0x2702 JUMPI POP PUSH1 0x1 EQ PUSH2 0x26BF JUMPI JUMPDEST POP POP PUSH2 0x26BD SWAP3 POP SUB DUP4 PUSH2 0x25BE JUMP JUMPDEST JUMP JUMPDEST SWAP1 SWAP4 SWAP2 POP PUSH1 0x0 MSTORE PUSH1 0x20 SWAP1 DUP2 PUSH1 0x0 KECCAK256 SWAP4 PUSH1 0x0 SWAP2 JUMPDEST DUP2 DUP4 LT PUSH2 0x26EA JUMPI POP POP PUSH2 0x26BD SWAP4 POP DUP3 ADD ADD CODESIZE DUP1 PUSH2 0x26AF JUMP JUMPDEST DUP6 SLOAD DUP9 DUP5 ADD DUP6 ADD MSTORE SWAP5 DUP6 ADD SWAP5 DUP8 SWAP5 POP SWAP2 DUP4 ADD SWAP2 PUSH2 0x26D2 JUMP JUMPDEST SWAP2 POP POP PUSH2 0x26BD SWAP5 POP PUSH1 0x20 SWAP3 POP PUSH1 0xFF NOT AND DUP3 DUP5 ADD MSTORE ISZERO ISZERO PUSH1 0x5 SHL DUP3 ADD ADD CODESIZE DUP1 PUSH2 0x26AF JUMP JUMPDEST SWAP2 SWAP1 DUP3 MLOAD SWAP3 DUP4 DUP3 MSTORE PUSH1 0x0 JUMPDEST DUP5 DUP2 LT PUSH2 0x2751 JUMPI POP POP DUP3 PUSH1 0x0 PUSH1 0x20 DUP1 SWAP5 SWAP6 DUP5 ADD ADD MSTORE PUSH1 0x1F DUP1 NOT SWAP2 ADD AND ADD ADD SWAP1 JUMP JUMPDEST PUSH1 0x20 DUP2 DUP4 ADD DUP2 ADD MLOAD DUP5 DUP4 ADD DUP3 ADD MSTORE ADD PUSH2 0x2730 JUMP JUMPDEST PUSH1 0x1 SLOAD PUSH1 0x8 SHR PUSH1 0x1 PUSH1 0x1 PUSH1 0xA0 SHL SUB AND CALLER SUB PUSH2 0x277C JUMPI JUMP JUMPDEST PUSH1 0x64 PUSH1 0x40 MLOAD PUSH3 0x461BCD PUSH1 0xE5 SHL DUP2 MSTORE PUSH1 0x20 PUSH1 0x4 DUP3 ADD MSTORE PUSH1 0x20 PUSH1 0x24 DUP3 ADD MSTORE PUSH32 0x4F776E61626C653A2063616C6C6572206973206E6F7420746865206F776E6572 PUSH1 0x44 DUP3 ADD MSTORE REVERT JUMPDEST ISZERO PUSH2 0x27C7 JUMPI JUMP JUMPDEST PUSH1 0x40 MLOAD PUSH3 0x461BCD PUSH1 0xE5 SHL DUP2 MSTORE PUSH1 0x20 PUSH1 0x4 DUP3 ADD MSTORE PUSH1 0x1A PUSH1 0x24 DUP3 ADD MSTORE PUSH32 0x54727573742073636F7265206D757374206265203C3D20313030000000000000 PUSH1 0x44 DUP3 ADD MSTORE PUSH1 0x64 SWAP1 REVERT JUMPDEST PUSH1 0xFF PUSH1 0x1 SLOAD AND PUSH2 0x2818 JUMPI JUMP JUMPDEST PUSH1 0x40 MLOAD PUSH3 0x461BCD PUSH1 0xE5 SHL DUP2 MSTORE PUSH1 0x20 PUSH1 0x4 DUP3 ADD MSTORE PUSH1 0x10 PUSH1 0x24 DUP3 ADD MSTORE PUSH16 0x14185D5CD8589B194E881C185D5CD959 PUSH1 0x82 SHL PUSH1 0x44 DUP3 ADD MSTORE PUSH1 0x64 SWAP1 REVERT JUMPDEST ISZERO PUSH2 0x2857 JUMPI JUMP JUMPDEST PUSH1 0x40 MLOAD PUSH3 0x461BCD PUSH1 0xE5 SHL DUP2 MSTORE PUSH1 0x20 PUSH1 0x4 DUP3 ADD MSTORE PUSH1 0x33 PUSH1 0x24 DUP3 ADD MSTORE PUSH32 0x5472757374456E67696E653A204F6E6C792076616C696461746F72732063616E PUSH1 0x44 DUP3 ADD MSTORE PUSH19 0x1031B0B636103A3434B990333AB731BA34B7B7 PUSH1 0x69 SHL PUSH1 0x64 DUP3 ADD MSTORE PUSH1 0x84 SWAP1 REVERT JUMPDEST ISZERO PUSH2 0x28BF JUMPI JUMP JUMPDEST PUSH1 0x40 MLOAD PUSH3 0x461BCD PUSH1 0xE5 SHL DUP2 MSTORE PUSH1 0x20 PUSH1 0x4 DUP3 ADD MSTORE PUSH1 0x26 PUSH1 0x24 DUP3 ADD MSTORE PUSH32 0x5472757374456E67696E653A2057616C6C657420686173206E6F207472757374 PUSH1 0x44 DUP3 ADD MSTORE PUSH6 0x2073636F7265 PUSH1 0xD0 SHL PUSH1 0x64 DUP3 ADD MSTORE PUSH1 0x84 SWAP1 REVERT JUMPDEST SWAP2 SWAP1 DUP3 ADD DUP1 SWAP3 GT PUSH2 0x1EE4 JUMPI JUMP JUMPDEST SWAP1 PUSH1 0x40 MLOAD PUSH2 0x292D DUP2 PUSH2 0x254D JUMP JUMPDEST PUSH2 0x120 PUSH1 0x8 DUP3 SWAP5 DUP1 SLOAD DUP5 MSTORE PUSH1 0x1 DUP2 ADD SLOAD PUSH1 0x20 DUP6 ADD MSTORE PUSH1 0x2 DUP2 ADD SLOAD PUSH1 0x40 DUP6 ADD MSTORE PUSH1 0x3 DUP2 ADD SLOAD PUSH1 0x60 DUP6 ADD MSTORE PUSH1 0x4 DUP2 ADD SLOAD PUSH1 0x80 DUP6 ADD MSTORE PUSH1 0xFF PUSH1 0x5 DUP3 ADD SLOAD DUP2 DUP2 AND ISZERO ISZERO PUSH1 0xA0 DUP8 ADD MSTORE DUP4 SHR AND ISZERO ISZERO PUSH1 0xC0 DUP6 ADD MSTORE PUSH1 0x6 DUP2 ADD SLOAD PUSH1 0xE0 DUP6 ADD MSTORE PUSH1 0x7 DUP2 ADD SLOAD PUSH2 0x100 DUP6 ADD MSTORE ADD SLOAD SWAP2 ADD MSTORE JUMP JUMPDEST PUSH1 0x0 NOT DUP2 EQ PUSH2 0x1EE4 JUMPI PUSH1 0x1 ADD SWAP1 JUMP JUMPDEST SWAP1 PUSH1 0x1F DUP2 GT PUSH2 0x29B4 JUMPI POP POP POP JUMP JUMPDEST PUSH1 0x0 SWAP2 DUP3 MSTORE PUSH1 0x20 DUP3 KECCAK256 SWAP1 PUSH1 0x20 PUSH1 0x1F DUP6 ADD PUSH1 0x5 SHR DUP4 ADD SWAP5 LT PUSH2 0x29F0 JUMPI JUMPDEST PUSH1 0x1F ADD PUSH1 0x5 SHR ADD SWAP2 JUMPDEST DUP3 DUP2 LT PUSH2 0x29E5 JUMPI POP POP POP JUMP JUMPDEST DUP2 DUP2 SSTORE PUSH1 0x1 ADD PUSH2 0x29D9 JUMP JUMPDEST SWAP1 SWAP3 POP DUP3 SWAP1 PUSH2 0x29D0 JUMP JUMPDEST DUP1 SLOAD PUSH1 0x1 PUSH1 0x40 SHL DUP2 LT ISZERO PUSH2 0x880 JUMPI PUSH2 0x2A19 SWAP1 PUSH1 0x1 SWAP3 DUP4 DUP3 ADD DUP2 SSTORE PUSH2 0x24DC JUMP JUMPDEST PUSH2 0x2178 JUMPI DUP3 MLOAD DUP2 SSTORE DUP2 DUP2 ADD SWAP1 PUSH1 0x20 SWAP1 DUP2 DUP6 ADD MLOAD SWAP3 DUP4 MLOAD PUSH8 0xFFFFFFFFFFFFFFFF SWAP5 DUP6 DUP3 GT PUSH2 0x880 JUMPI DUP2 SWAP1 PUSH2 0x2A56 DUP3 PUSH2 0x2A50 DUP7 SLOAD PUSH2 0x2645 JUMP JUMPDEST DUP7 PUSH2 0x29A6 JUMP JUMPDEST DUP6 SWAP1 PUSH1 0x1F DUP4 GT PUSH1 0x1 EQ PUSH2 0x2C2E JUMPI PUSH1 0x0 SWAP3 PUSH2 0x2C23 JUMPI JUMPDEST POP POP PUSH1 0x0 NOT PUSH1 0x3 DUP4 SWAP1 SHL SHR NOT AND SWAP1 DUP7 SHL OR SWAP1 SSTORE JUMPDEST PUSH1 0x40 DUP6 ADD MLOAD PUSH1 0x2 DUP3 ADD SSTORE PUSH1 0x3 DUP2 ADD PUSH1 0x60 DUP7 ADD MLOAD DUP1 MLOAD SWAP1 DUP6 DUP3 GT PUSH2 0x880 JUMPI PUSH2 0x2AB0 DUP3 PUSH2 0x2AAA DUP6 SLOAD PUSH2 0x2645 JUMP JUMPDEST DUP6 PUSH2 0x29A6 JUMP JUMPDEST DUP5 SWAP1 PUSH1 0x1F DUP4 GT PUSH1 0x1 EQ PUSH2 0x2BB5 JUMPI SWAP2 DUP1 PUSH1 0x5 SWAP5 SWAP3 PUSH1 0xA0 SWAP7 SWAP5 PUSH1 0x0 SWAP3 PUSH2 0x2BAA JUMPI JUMPDEST POP POP PUSH1 0x0 NOT PUSH1 0x3 DUP4 SWAP1 SHL SHR NOT AND SWAP1 DUP9 SHL OR SWAP1 SSTORE JUMPDEST PUSH1 0x80 DUP8 ADD MLOAD PUSH1 0x4 DUP3 ADD SSTORE ADD SWAP5 ADD MLOAD DUP1 MLOAD SWAP3 DUP4 GT PUSH2 0x880 JUMPI PUSH2 0x2B0E DUP4 PUSH2 0x2B08 DUP8 SLOAD PUSH2 0x2645 JUMP JUMPDEST DUP8 PUSH2 0x29A6 JUMP JUMPDEST DUP2 PUSH1 0x1F DUP5 GT PUSH1 0x1 EQ PUSH2 0x2B47 JUMPI POP SWAP3 DUP3 SWAP4 SWAP2 DUP4 SWAP3 PUSH1 0x0 SWAP5 PUSH2 0x2B3C JUMPI JUMPDEST POP POP SHL SWAP2 PUSH1 0x0 NOT SWAP1 PUSH1 0x3 SHL SHR NOT AND OR SWAP1 SSTORE JUMP JUMPDEST ADD MLOAD SWAP3 POP CODESIZE DUP1 PUSH2 0x2B29 JUMP JUMPDEST SWAP2 SWAP1 DUP4 PUSH1 0x1F NOT DUP2 AND DUP8 PUSH1 0x0 MSTORE DUP5 PUSH1 0x0 KECCAK256 SWAP5 PUSH1 0x0 SWAP1 JUMPDEST DUP9 DUP4 DUP4 LT PUSH2 0x2B90 JUMPI POP POP POP LT PUSH2 0x2B77 JUMPI JUMPDEST POP POP POP DUP2 SHL ADD SWAP1 SSTORE JUMP JUMPDEST ADD MLOAD PUSH1 0x0 NOT PUSH1 0xF8 DUP5 PUSH1 0x3 SHL AND SHR NOT AND SWAP1 SSTORE CODESIZE DUP1 DUP1 PUSH2 0x2B6D JUMP JUMPDEST DUP6 DUP8 ADD MLOAD DUP9 SSTORE SWAP1 SWAP7 ADD SWAP6 SWAP5 DUP6 ADD SWAP5 DUP8 SWAP4 POP SWAP1 DUP2 ADD SWAP1 PUSH2 0x2B5C JUMP JUMPDEST ADD MLOAD SWAP1 POP CODESIZE DUP1 PUSH2 0x2ACF JUMP JUMPDEST DUP8 SWAP3 SWAP2 PUSH1 0x1F NOT DUP4 AND SWAP2 DUP6 PUSH1 0x0 MSTORE DUP8 PUSH1 0x0 KECCAK256 SWAP3 PUSH1 0x0 JUMPDEST DUP10 DUP3 DUP3 LT PUSH2 0x2C0D JUMPI POP POP SWAP2 PUSH1 0xA0 SWAP8 SWAP6 SWAP4 SWAP2 DUP6 PUSH1 0x5 SWAP9 SWAP7 SWAP5 LT PUSH2 0x2BF4 JUMPI JUMPDEST POP POP POP DUP2 SHL ADD SWAP1 SSTORE PUSH2 0x2AE3 JUMP JUMPDEST ADD MLOAD PUSH1 0x0 NOT PUSH1 0xF8 DUP5 PUSH1 0x3 SHL AND SHR NOT AND SWAP1 SSTORE CODESIZE DUP1 DUP1 PUSH2 0x2BE7 JUMP JUMPDEST DUP4 DUP6 ADD MLOAD DUP7 SSTORE DUP13 SWAP8 SWAP1 SWAP6 ADD SWAP5 SWAP4 DUP5 ADD SWAP4 ADD PUSH2 0x2BCA JUMP JUMPDEST ADD MLOAD SWAP1 POP CODESIZE DUP1 PUSH2 0x2A6B JUMP JUMPDEST SWAP1 DUP9 SWAP4 POP PUSH1 0x1F NOT DUP4 AND SWAP2 DUP6 PUSH1 0x0 MSTORE DUP8 PUSH1 0x0 KECCAK256 SWAP3 PUSH1 0x0 JUMPDEST DUP10 DUP3 DUP3 LT PUSH2 0x2C7B JUMPI POP POP DUP5 GT PUSH2 0x2C62 JUMPI JUMPDEST POP POP POP DUP2 SHL ADD SWAP1 SSTORE PUSH2 0x2A7F JUMP JUMPDEST ADD MLOAD PUSH1 0x0 NOT PUSH1 0xF8 DUP5 PUSH1 0x3 SHL AND SHR NOT AND SWAP1 SSTORE CODESIZE DUP1 DUP1 PUSH2 0x2C55 JUMP JUMPDEST DUP4 DUP6 ADD MLOAD DUP7 SSTORE DUP13 SWAP8 SWAP1 SWAP6 ADD SWAP5 SWAP4 DUP5 ADD SWAP4 ADD PUSH2 0x2C44 JUMP JUMPDEST DUP2 DUP2 MUL SWAP3 SWAP2 DUP2 ISZERO SWAP2 DUP5 DIV EQ OR ISZERO PUSH2 0x1EE4 JUMPI JUMP JUMPDEST SWAP2 SWAP1 DUP3 SUB SWAP2 DUP3 GT PUSH2 0x1EE4 JUMPI JUMP JUMPDEST PUSH1 0x64 PUSH2 0x2CC3 DUP3 MLOAD PUSH1 0x40 DUP5 ADD MLOAD SWAP1 PUSH2 0x2C91 JUMP JUMPDEST DIV PUSH2 0x100 DUP3 ADD MLOAD PUSH1 0x5 DUP2 MUL SWAP1 DUP1 DUP3 DIV PUSH1 0x5 EQ SWAP1 ISZERO OR ISZERO PUSH2 0x1EE4 JUMPI PUSH2 0x2CE6 SWAP2 PUSH2 0x2913 JUMP JUMPDEST PUSH2 0x120 DUP3 ADD MLOAD SWAP1 DUP2 PUSH1 0x1 SHL SWAP2 DUP1 DUP4 DIV PUSH1 0x2 EQ SWAP1 ISZERO OR ISZERO PUSH2 0x1EE4 JUMPI PUSH1 0x80 SWAP2 PUSH2 0x2D0C SWAP2 PUSH2 0x2913 JUMP JUMPDEST SWAP2 ADD DUP1 MLOAD PUSH2 0x2D29 JUMPI JUMPDEST POP PUSH2 0x3E8 DUP1 DUP3 GT PUSH2 0x2D24 JUMPI POP SWAP1 JUMP JUMPDEST SWAP1 POP SWAP1 JUMP JUMPDEST PUSH1 0xA DUP3 MUL SWAP1 DUP3 DUP3 DIV PUSH1 0xA EQ DUP4 ISZERO OR ISZERO PUSH2 0x1EE4 JUMPI PUSH2 0x3E8 SWAP2 PUSH2 0x2D4B SWAP2 MLOAD SWAP1 PUSH2 0x2C91 JUMP JUMPDEST DIV PUSH1 0x0 SWAP2 DUP2 DUP2 GT PUSH1 0x0 EQ PUSH2 0x2D69 JUMPI PUSH2 0x2D63 SWAP3 POP PUSH2 0x2CA4 JUMP JUMPDEST CODESIZE PUSH2 0x2D15 JUMP JUMPDEST POP POP PUSH2 0x2D63 JUMP JUMPDEST PUSH1 0x40 MLOAD SWAP1 PUSH2 0x2D7D DUP3 PUSH2 0x2586 JUMP JUMPDEST PUSH1 0x4 DUP3 MSTORE PUSH4 0x1D195CDD PUSH1 0xE2 SHL PUSH1 0x20 DUP4 ADD MSTORE JUMP JUMPDEST SWAP1 PUSH1 0x40 MLOAD PUSH2 0x2D9D DUP2 PUSH2 0x2531 JUMP JUMPDEST PUSH1 0xA0 PUSH2 0x2DE6 PUSH1 0x5 DUP4 SWAP6 DUP1 SLOAD DUP6 MSTORE PUSH2 0x2DB6 PUSH1 0x1 DUP3 ADD PUSH2 0x267F JUMP JUMPDEST PUSH1 0x20 DUP7 ADD MSTORE PUSH1 0x2 DUP2 ADD SLOAD PUSH1 0x40 DUP7 ADD MSTORE PUSH2 0x2DD1 PUSH1 0x3 DUP3 ADD PUSH2 0x267F JUMP JUMPDEST PUSH1 0x60 DUP7 ADD MSTORE PUSH1 0x4 DUP2 ADD SLOAD PUSH1 0x80 DUP7 ADD MSTORE ADD PUSH2 0x267F JUMP JUMPDEST SWAP2 ADD MSTORE JUMP JUMPDEST PUSH1 0x1 PUSH1 0x1 PUSH1 0xA0 SHL SUB AND PUSH1 0x0 DUP2 DUP2 MSTORE PUSH1 0x8 PUSH1 0x20 SWAP1 DUP2 MSTORE PUSH1 0x40 DUP1 DUP4 KECCAK256 SLOAD SWAP4 SWAP2 DUP5 ISZERO PUSH2 0x2E5D JUMPI SWAP2 SWAP1 DUP4 SWAP3 JUMPDEST DUP6 DUP5 LT PUSH2 0x2E22 JUMPI POP POP POP POP DIV SWAP1 JUMP JUMPDEST SWAP1 SWAP2 SWAP3 SWAP4 PUSH2 0x2E4F PUSH2 0x2E55 SWAP2 DUP6 PUSH1 0x0 MSTORE PUSH1 0x7 DUP5 MSTORE PUSH1 0x80 PUSH2 0x2E47 PUSH2 0x1E46 DUP10 DUP9 PUSH1 0x0 KECCAK256 PUSH2 0x24DC JUMP JUMPDEST ADD MLOAD SWAP1 PUSH2 0x2913 JUMP JUMPDEST SWAP5 PUSH2 0x2997 JUMP JUMPDEST SWAP3 SWAP2 SWAP1 PUSH2 0x2E13 JUMP JUMPDEST POP POP POP SWAP1 POP SWAP1 JUMP JUMPDEST PUSH1 0x1 PUSH1 0x1 PUSH1 0xA0 SHL SUB AND PUSH1 0x0 SWAP1 DUP2 MSTORE PUSH1 0x4 PUSH1 0x20 MSTORE PUSH1 0x40 SWAP1 KECCAK256 SLOAD PUSH1 0xFF AND ISZERO PUSH2 0x2E96 JUMPI PUSH1 0x3 PUSH1 0x20 MSTORE PUSH1 0x1 PUSH1 0x40 PUSH1 0x0 KECCAK256 ADD SLOAD SWAP1 JUMP JUMPDEST PUSH1 0x0 SWAP1 JUMP JUMPDEST PUSH1 0x1 PUSH1 0x1 PUSH1 0xA0 SHL SUB AND PUSH1 0x0 DUP2 DUP2 MSTORE PUSH1 0x8 PUSH1 0x20 MSTORE PUSH1 0x40 DUP1 DUP3 KECCAK256 SLOAD SWAP2 SWAP4 SWAP3 SWAP1 SWAP2 DUP1 ISZERO PUSH2 0x2F95 JUMPI PUSH1 0x3 DUP2 LT ISZERO PUSH2 0x2ED2 JUMPI POP POP POP DUP2 DUP1 SWAP2 DUP2 SWAP1 JUMP JUMPDEST PUSH1 0x7 PUSH1 0x20 MSTORE DUP3 DUP6 KECCAK256 SWAP3 SWAP5 SWAP4 SWAP2 SWAP3 PUSH1 0x2 NOT DUP3 ADD SWAP1 DUP3 DUP3 GT PUSH2 0x2F81 JUMPI PUSH2 0x2EF9 SWAP2 PUSH2 0x1E46 SWAP2 PUSH2 0x24DC JUMP JUMPDEST SWAP4 DUP4 DUP2 MSTORE PUSH1 0x7 PUSH1 0x20 MSTORE DUP6 DUP2 KECCAK256 PUSH1 0x1 NOT DUP4 ADD SWAP1 DUP4 DUP3 GT PUSH2 0x2F6D JUMPI PUSH2 0x2F1F SWAP2 PUSH2 0x1E46 SWAP2 PUSH2 0x24DC JUMP JUMPDEST SWAP4 DUP2 MSTORE PUSH1 0x7 PUSH1 0x20 MSTORE DUP6 DUP2 KECCAK256 SWAP1 PUSH1 0x0 NOT DUP4 ADD SWAP3 DUP4 GT PUSH2 0x2F59 JUMPI POP PUSH2 0x2F45 SWAP2 PUSH2 0x1E46 SWAP2 PUSH2 0x24DC JUMP JUMPDEST DUP4 DUP6 ADD MLOAD SWAP3 DUP6 ADD MLOAD SWAP5 ADD MLOAD SWAP3 MLOAD SWAP2 SWAP4 SWAP3 SWAP2 SWAP1 JUMP JUMPDEST PUSH4 0x4E487B71 PUSH1 0xE0 SHL DUP2 MSTORE PUSH1 0x11 PUSH1 0x4 MSTORE PUSH1 0x24 SWAP1 REVERT JUMPDEST PUSH4 0x4E487B71 PUSH1 0xE0 SHL DUP4 MSTORE PUSH1 0x11 PUSH1 0x4 MSTORE PUSH1 0x24 DUP4 REVERT JUMPDEST PUSH4 0x4E487B71 PUSH1 0xE0 SHL DUP7 MSTORE PUSH1 0x11 PUSH1 0x4 MSTORE PUSH1 0x24 DUP7 REVERT JUMPDEST POP POP POP DUP2 DUP1 SWAP2 DUP2 SWAP1 JUMP JUMPDEST PUSH1 0x1 PUSH1 0x1 PUSH1 0xA0 SHL SUB AND PUSH1 0x0 SWAP1 DUP2 MSTORE PUSH1 0x4 PUSH1 0x20 MSTORE PUSH1 0x40 DUP2 KECCAK256 SLOAD PUSH1 0xFF AND ISZERO PUSH2 0x3034 JUMPI PUSH1 0x3 PUSH1 0x20 MSTORE PUSH2 0x2FD0 PUSH1 0x40 DUP3 KECCAK256 PUSH2 0x2920 JUMP JUMPDEST SWAP1 PUSH1 0x20 DUP3 ADD MLOAD SWAP1 PUSH1 0xA DUP3 MUL SWAP2 DUP1 DUP4 DIV PUSH1 0xA EQ SWAP1 ISZERO OR ISZERO PUSH2 0x2F59 JUMPI PUSH2 0x3E8 SWAP2 DUP1 DUP4 ADD DUP1 SWAP4 GT PUSH2 0x3020 JUMPI PUSH2 0x100 DUP4 SWAP5 ADD MLOAD PUSH2 0x300A JUMPI JUMPDEST POP POP POP SWAP1 JUMP JUMPDEST PUSH2 0x5DC ADD SWAP3 POP SWAP1 DUP3 LT PUSH2 0x2F59 JUMPI POP CODESIZE DUP1 DUP1 PUSH2 0x3004 JUMP JUMPDEST PUSH4 0x4E487B71 PUSH1 0xE0 SHL DUP3 MSTORE PUSH1 0x11 PUSH1 0x4 MSTORE PUSH1 0x24 DUP3 REVERT JUMPDEST POP PUSH2 0x3E8 SWAP1 JUMP INVALID ISZERO 0xDD JUMPI 0xE0 0xCD 0xE9 0xAF SWAP1 DUP4 0xC8 CHAINID 0xEB CODECOPY 0xC9 0xDA CODESIZE 0x2E SWAP1 PUSH29 0x36818E4A163ECD167E5F3276A2646970667358221220DC69CD4ECEA7 GASPRICE SELFDESTRUCT NUMBER 0x4B 0xCB 0xE2 DUP5 SWAP12 0xE0 0x1E 0xC3 0xAB DUP9 GAS SWAP15 0xBC SWAP14 DUP16 BLOCKHASH SWAP5 MLOAD 0x1F 0xAD 0xE8 PUSH7 0x4164736F6C6343 STOP ADDMOD SGT STOP CALLER "},"methodIdentifiers":{"DELEGATION_DECAY_RATE()":"13bb6a91","MAX_DELEGATION_DEPTH()":"7969a713","MAX_TRUST_SCORE()":"74c8d377","MIN_TRUST_SCORE()":"057e709c","addEnvironmentalData(address,string,uint256,string,uint256,bytes)":"5b2ccd7c","addValidator(address)":"4d238c8e","calculateTrustMultiplier(address)":"cb188c9c","delegateTrust(address,uint256)":"32412d82","delegationCount(address)":"58fb5218","delegations(address,uint256)":"223fae09","environmentalData(address,uint256)":"7257d17a","environmentalDataCount(address)":"3fa70f34","environmentalHashes(address)":"0427bcda","getEnvironmentalData(address)":"8ecdf7ea","getPrivacyConfig(address)":"bdea05e9","getTrustDelegations(address)":"c6ee59fc","getTrustScore(address)":"5e09eea1","getTrustScoreValue(address)":"29afd353","hasTrustScore(address)":"6e548f20","initializeTrustScore(address,uint256)":"4cf915c9","isOriginWallet(address)":"5d793350","isValidator(address)":"facd743b","lastUpdateTime(address)":"2ce9aead","originWallets(address)":"bdf16316","owner()":"8da5cb5b","pause()":"8456cb59","paused()":"5c975abb","privacyConfigs(address)":"f8d00813","registerValidator(address)":"9fca5169","removeValidator(address)":"40a141ff","renounceOwnership()":"715018a6","revokeTrustDelegation(address,uint256)":"56ca0b78","setUpdateFrequency(address,uint256)":"fec43acb","submitEnvironmentalData(uint256,uint256,uint256)":"b007945e","suspiciousActivityCount(address)":"f4310608","transferOwnership(address)":"f2fde38b","trustScores(address)":"12df0fc4","unpause()":"3f4ba83a","updateFrequency(address)":"45e97f80","updatePrivacyConfig(bool,bool,bool,bool,uint256)":"d7774f7d","updateTrustScore(address,uint256,uint256,uint256)":"417914d5","updateTrustScore(uint256)":"34ae18e3","validators(address)":"fa52c7d8"}}}}}