{"contracts/DeFiProtocol.sol":{"DeFiProtocol":{"abi":[{"inputs":[{"internalType":"address","name":"_trustEngine","type":"address"}],"stateMutability":"nonpayable","type":"constructor"},{"anonymous":false,"inputs":[{"indexed":true,"internalType":"address","name":"previousOwner","type":"address"},{"indexed":true,"internalType":"address","name":"newOwner","type":"address"}],"name":"OwnershipTransferred","type":"event"},{"anonymous":false,"inputs":[{"indexed":true,"internalType":"address","name":"pool","type":"address"},{"indexed":false,"internalType":"uint256","name":"trustMultiplier","type":"uint256"}],"name":"PoolCreated","type":"event"},{"anonymous":false,"inputs":[{"indexed":true,"internalType":"address","name":"user","type":"address"},{"indexed":true,"internalType":"address","name":"pool","type":"address"},{"indexed":false,"internalType":"uint256","name":"amount","type":"uint256"}],"name":"RewardsClaimed","type":"event"},{"anonymous":false,"inputs":[{"indexed":true,"internalType":"address","name":"user","type":"address"},{"indexed":true,"internalType":"address","name":"pool","type":"address"},{"indexed":false,"internalType":"uint256","name":"amount","type":"uint256"},{"indexed":false,"internalType":"uint256","name":"trustScore","type":"uint256"}],"name":"Staked","type":"event"},{"anonymous":false,"inputs":[{"indexed":true,"internalType":"address","name":"user","type":"address"},{"indexed":true,"internalType":"address","name":"pool","type":"address"},{"indexed":false,"internalType":"uint256","name":"amount","type":"uint256"},{"indexed":false,"internalType":"uint256","name":"rewards","type":"uint256"}],"name":"Unstaked","type":"event"},{"inputs":[],"name":"BASIS_POINTS","outputs":[{"internalType":"uint256","name":"","type":"uint256"}],"stateMutability":"view","type":"function"},{"inputs":[{"internalType":"address","name":"","type":"address"}],"name":"activePools","outputs":[{"internalType":"bool","name":"","type":"bool"}],"stateMutability":"view","type":"function"},{"inputs":[{"internalType":"address","name":"pool","type":"address"}],"name":"claimRewards","outputs":[],"stateMutability":"nonpayable","type":"function"},{"inputs":[{"internalType":"address","name":"token","type":"address"},{"internalType":"uint256","name":"rewardsPerBlock","type":"uint256"},{"internalType":"uint256","name":"trustMultiplier","type":"uint256"}],"name":"createPool","outputs":[],"stateMutability":"nonpayable","type":"function"},{"inputs":[{"internalType":"address","name":"token","type":"address"}],"name":"emergencyWithdraw","outputs":[],"stateMutability":"nonpayable","type":"function"},{"inputs":[{"internalType":"address","name":"user","type":"address"},{"internalType":"address","name":"pool","type":"address"}],"name":"getPendingRewards","outputs":[{"internalType":"uint256","name":"","type":"uint256"}],"stateMutability":"view","type":"function"},{"inputs":[{"internalType":"address","name":"user","type":"address"}],"name":"getUserTotalStaked","outputs":[{"internalType":"uint256","name":"total","type":"uint256"}],"stateMutability":"view","type":"function"},{"inputs":[],"name":"owner","outputs":[{"internalType":"address","name":"","type":"address"}],"stateMutability":"view","type":"function"},{"inputs":[{"internalType":"address","name":"","type":"address"}],"name":"poolAccRewardsPerShare","outputs":[{"internalType":"uint256","name":"","type":"uint256"}],"stateMutability":"view","type":"function"},{"inputs":[{"internalType":"address","name":"","type":"address"}],"name":"poolLastUpdateBlock","outputs":[{"internalType":"uint256","name":"","type":"uint256"}],"stateMutability":"view","type":"function"},{"inputs":[{"internalType":"address","name":"","type":"address"}],"name":"poolRewardsPerBlock","outputs":[{"internalType":"uint256","name":"","type":"uint256"}],"stateMutability":"view","type":"function"},{"inputs":[{"internalType":"address","name":"","type":"address"}],"name":"poolTotalStaked","outputs":[{"internalType":"uint256","name":"","type":"uint256"}],"stateMutability":"view","type":"function"},{"inputs":[{"internalType":"address","name":"","type":"address"}],"name":"poolTrustMultiplier","outputs":[{"internalType":"uint256","name":"","type":"uint256"}],"stateMutability":"view","type":"function"},{"inputs":[],"name":"protocolFee","outputs":[{"internalType":"uint256","name":"","type":"uint256"}],"stateMutability":"view","type":"function"},{"inputs":[],"name":"renounceOwnership","outputs":[],"stateMutability":"nonpayable","type":"function"},{"inputs":[{"internalType":"address","name":"pool","type":"address"},{"internalType":"uint256","name":"amount","type":"uint256"}],"name":"stake","outputs":[],"stateMutability":"nonpayable","type":"function"},{"inputs":[],"name":"totalValueLocked","outputs":[{"internalType":"uint256","name":"","type":"uint256"}],"stateMutability":"view","type":"function"},{"inputs":[{"internalType":"address","name":"newOwner","type":"address"}],"name":"transferOwnership","outputs":[],"stateMutability":"nonpayable","type":"function"},{"inputs":[],"name":"trustEngine","outputs":[{"internalType":"contract TrustEngine","name":"","type":"address"}],"stateMutability":"view","type":"function"},{"inputs":[{"internalType":"address","name":"pool","type":"address"},{"internalType":"uint256","name":"amount","type":"uint256"}],"name":"unstake","outputs":[],"stateMutability":"nonpayable","type":"function"},{"inputs":[{"internalType":"address","name":"","type":"address"},{"internalType":"address","name":"","type":"address"}],"name":"userRewardDebt","outputs":[{"internalType":"uint256","name":"","type":"uint256"}],"stateMutability":"view","type":"function"},{"inputs":[{"internalType":"address","name":"","type":"address"},{"internalType":"address","name":"","type":"address"}],"name":"userStakedAmount","outputs":[{"internalType":"uint256","name":"","type":"uint256"}],"stateMutability":"view","type":"function"},{"inputs":[{"internalType":"address","name":"","type":"address"},{"internalType":"address","name":"","type":"address"}],"name":"userTrustScore","outputs":[{"internalType":"uint256","name":"","type":"uint256"}],"stateMutability":"view","type":"function"}],"evm":{"bytecode":{"linkReferences":{},"object":"6080346100b157601f61169b38819003918201601f19168301916001600160401b038311848410176100b6578084926020946040528339810103126100b157516001600160a01b0390818116908190036100b157600160005560015460018060a01b0319903382821617600155604051933391167f8be0079c531659141344cd1fd0a4f28419497f9722a3daafe3b4186f6b6457e0600080a3601960045560025416176002556115ce90816100cd8239f35b600080fd5b634e487b7160e01b600052604160045260246000fdfe6080604081815260048036101561001557600080fd5b600092833560e01c9081630a6dcb0214610e94575080631ada6c0814610e5c5780631d030ac914610e1357806329a8f81914610dd5578063328b071b14610d9d57806349d638f714610d655780636e2f169614610d3f578381636ff1c9bc14610c1357508063715018a614610bb357806377aa980d14610b8a5780637a27db5714610b555780638302fe1114610b0c578063846c565814610ac35780638da5cb5b14610a9a578063adc9772e146107b3578063b039ddf614610678578063b0e21e8a1461065b578063c2a672e0146103b4578063db85a4811461037c578063e1f1c4a71461035f578063ec18154e1461033c578063ef5cfb8c146101f05763f2fde38b1461012257600080fd5b346101ec5760203660031901126101ec5761013b610ec8565b90610144610ef9565b6001600160a01b0391821692831561019a575050600154826bffffffffffffffffffffffff60a01b821617600155167f8be0079c531659141344cd1fd0a4f28419497f9722a3daafe3b4186f6b6457e08380a380f35b906020608492519162461bcd60e51b8352820152602660248201527f4f776e61626c653a206e6577206f776e657220697320746865207a65726f206160448201526564647265737360d01b6064820152fd5b8280fd5b5090346101ec576020806003193601126103385761020c610ec8565b610214611005565b338552600b82528285206001600160a01b03821680875290835283862054909490156103025750906102667f9310ccfcb8de723f578a9e4282ea9f521f05ae40dc08f3068dfad528a65ee3c79261126d565b338552600b81528285208486528152670de0b6b3a76400006102f2848720546009845264e8d4a510006102cf6102bd826102a38a8d205486611068565b04338c52600c8852898c208b8d528852898c205490610f51565b92898b5260098752888b205490611068565b04338952600c8552868920888a528552868920556102ec33611481565b90611068565b0492519283523392a36001815580f35b835162461bcd60e51b8152908101839052601060248201526f139bc81cdd185ad9481a5b881c1bdbdb60821b6044820152606490fd5b8380fd5b50503461035b578160031936011261035b576020906003549051908152f35b5080fd5b50503461035b578160031936011261035b57602090516127108152f35b50503461035b57602036600319011261035b5760209181906001600160a01b036103a4610ec8565b1681526008845220549051908152f35b50346101ec57816003193601126101ec576103cd610ec8565b91602435916103da611005565b6103e5831515610f74565b338552602090600b82528286209460018060a01b038116958688528352848488205410610619579061041b6104f894939261126d565b338752600b82528287208688528252828720549160098152858489205492899389878c83151580610610575b6105a0575b9164e8d4a51000939161049093610465888a9b9c610f51565b92338252600b8a5282822090825289522055338d52600b86528c8c8a822091528652888d2054611068565b04338b52600c8452868b208a8c528452868b2055600683526104b582878c2054610f51565b898b5260068452868b20556104cc82600354610f51565b600355855163a9059cbb60e01b8152339181019182526020820192909252909586918291604090910190565b03818a8a5af180156105965761053e575b7f06cc7e90b4f2b554a9614b0caa84f909f3498c820ae47c731f490c28c07f7d3b935082519485528401523392a36001815580f35b8084813d831161058f575b6105538183610fc0565b8101031261058b576105857f06cc7e90b4f2b554a9614b0caa84f909f3498c820ae47c731f490c28c07f7d3b94610ff8565b50610509565b8680fd5b503d610549565b83513d89823e3d90fd5b64e8d4a510006105b0858b611068565b04338252600c885282822084835288528282205481116105d1575b5061044c565b8798509161049093916104658861060264e8d4a510009896338552600c8d528585208786528d528585205490610f51565b9b50505091935091936105cb565b50881515610447565b50915162461bcd60e51b815291820152601a60248201527f496e73756666696369656e74207374616b656420616d6f756e740000000000006044820152606490fd5b50346101ec57826003193601126101ec5760209250549051908152f35b5090346101ec5760603660031901126101ec57610693610ec8565b9060243592604435926106a4610ef9565b6001600160a01b031693841561078057801561073d578486526005602052828620600160ff19825416179055600760205282862055600a602052828286205560001943019043821161072a5750916020917f641e49906554552c8c33d7e09e02d1270590f405bc1da0c7b99a9c2808abdd0593858752600884528187205551908152a280f35b634e487b7160e01b865260119052602485fd5b506020606492519162461bcd60e51b8352820152601960248201527f496e76616c696420726577617264732070657220626c6f636b000000000000006044820152fd5b506020606492519162461bcd60e51b8352820152600d60248201526c24b73b30b634b2103a37b5b2b760991b6044820152fd5b5090346101ec57806003193601126101ec576107cd610ec8565b91602435916107da611005565b6107e5831515610f74565b6001600160a01b038416808652600560209081528287205491959160ff1615610a665761081133611526565b9160148310610a23578351946323b872dd60e01b8652339086015230602486015285604486015281856064818b8b5af18015610a19576109c1575b7f6c86f3fd5118b3aa8bb4f389a617046de0a3d3d477de1a1673d227f802f616dc9450338852600b8252838820878952825261089086858a20548061095f5761105b565b338952600b8352848920888a52835284892055338852600b8252838820878952825264e8d4a510006108cd858a205460098552868b205490611068565b04338952600c8352848920888a52835284892055338852600d8252838820878952825282848920556006825261090686858a205461105b565b878952600683528489205561091d8660035461105b565b6003558688526006825283882054860361095157508587526008815243838820555b82519485528401523392a36001815580f35b61095a9061126d565b61093f565b60098552868b205480610973575b5061105b565b61098364e8d4a510009183611068565b04338c52600c8652878c208b8d528652878c205481111561096d57338c52600c8652878c208b8d528652878c20546109ba91610f51565b503861096d565b8185813d8311610a12575b6109d68183610fc0565b81010312610a0e57610a087f6c86f3fd5118b3aa8bb4f389a617046de0a3d3d477de1a1673d227f802f616dc95610ff8565b5061084c565b8780fd5b503d6109cc565b84513d8a823e3d90fd5b835162461bcd60e51b8152808601839052601860248201527f496e73756666696369656e742074727573742073636f726500000000000000006044820152606490fd5b8360649184519162461bcd60e51b8352820152600f60248201526e506f6f6c206e6f742061637469766560881b6044820152fd5b50503461035b578160031936011261035b5760015490516001600160a01b039091168152602090f35b50503461035b578060031936011261035b5780602092610ae1610ec8565b610ae9610ee3565b6001600160a01b039182168352600d865283832091168252845220549051908152f35b50503461035b578060031936011261035b5780602092610b2a610ec8565b610b32610ee3565b6001600160a01b039182168352600b865283832091168252845220549051908152f35b50503461035b578060031936011261035b57602090610b83610b75610ec8565b610b7d610ee3565b9061109b565b9051908152f35b50503461035b578160031936011261035b5760025490516001600160a01b039091168152602090f35b8334610c105780600319360112610c1057610bcc610ef9565b600180546001600160a01b0319811690915581906001600160a01b03167f8be0079c531659141344cd1fd0a4f28419497f9722a3daafe3b4186f6b6457e08280a380f35b80fd5b92905034610d3b5760209182600319360112610d3657610c31610ec8565b90610c3a610ef9565b82516370a0823160e01b81523081830152916001600160a01b0390811691908584602481865afa938415610d2c578794610cf7575b50600154855163a9059cbb60e01b815291166001600160a01b0316918101918252602082019390935291948492869291839182906040015b03925af1908115610cee5750610cbb578280f35b81813d8311610ce7575b610ccf8183610fc0565b8101031261035b57610ce090610ff8565b5038808280f35b503d610cc5565b513d85823e3d90fd5b935091908584813d8311610d25575b610d108183610fc0565b8101031261058b579251929091610ca7610c6f565b503d610d06565b85513d89823e3d90fd5b505050fd5b5050fd5b50503461035b57602036600319011261035b5790602091610d5e610ec8565b5051908152f35b50503461035b57602036600319011261035b5760209181906001600160a01b03610d8d610ec8565b1681526009845220549051908152f35b50503461035b57602036600319011261035b5760209181906001600160a01b03610dc5610ec8565b168152600a845220549051908152f35b50503461035b57602036600319011261035b5760209160ff9082906001600160a01b03610e00610ec8565b1681526005855220541690519015158152f35b50503461035b578060031936011261035b5780602092610e31610ec8565b610e39610ee3565b6001600160a01b039182168352600c865283832091168252845220549051908152f35b50503461035b57602036600319011261035b5760209181906001600160a01b03610e84610ec8565b1681526006845220549051908152f35b849084346101ec5760203660031901126101ec576020926001600160a01b03610ebb610ec8565b1681526007845220548152f35b600435906001600160a01b0382168203610ede57565b600080fd5b602435906001600160a01b0382168203610ede57565b6001546001600160a01b03163303610f0d57565b606460405162461bcd60e51b815260206004820152602060248201527f4f776e61626c653a2063616c6c6572206973206e6f7420746865206f776e65726044820152fd5b91908203918211610f5e57565b634e487b7160e01b600052601160045260246000fd5b15610f7b57565b60405162461bcd60e51b815260206004820152601760248201527f416d6f756e74206d75737420626520706f7369746976650000000000000000006044820152606490fd5b90601f8019910116810190811067ffffffffffffffff821117610fe257604052565b634e487b7160e01b600052604160045260246000fd5b51908115158203610ede57565b600260005414611016576002600055565b60405162461bcd60e51b815260206004820152601f60248201527f5265656e7472616e637947756172643a207265656e7472616e742063616c6c006044820152606490fd5b91908201809211610f5e57565b81810292918115918404141715610f5e57565b8115611085570490565b634e487b7160e01b600052601260045260246000fd5b9060018060a01b039182811692600090848252602091600b83526040918282209516948582528352818120541561126457858152600b8352818120858252835281812054946009845282822054600885526110f98484205443610f51565b8284526006865284842054908015158061125b575b6111b5575b505091670de0b6b3a76400009795939161114a9795938296811515806111ac575b61114e575b5050505050506102ec919250611481565b0490565b64e8d4a510009161115e91611068565b0493878352600c81528383208284528152838320548511611180575b80611139565b6102ec965061119f95978352600c815283832091835252205490610f51565b905081388080808061117a565b50801515611134565b60078752858520546111c691611068565b7b0119799812dea11197f27f0f6e885c8ba7eb31f476caf7411a86338781111580611252575b156111135764e8d4a510009081810291818304149015171561123e5761114a98969492611229670de0b6b3a76400009b9997959361122f9361107b565b9061105b565b91939597819395979950611113565b634e487b7160e01b85526011600452602485fd5b508115156111ec565b5081151561110e565b94505050505090565b60018060a01b03166000908082526020600881526040916112918385205443610f51565b818552600683528385205490801515806113dd575b6112b8575b5050506008905243912055565b60078452848620546112c991611068565b7b0119799812dea11197f27f0f6e885c8ba7eb31f476caf7411a86338781116113995764e8d4a5100090818102918183041490151715611385579061130d9161107b565b81855260098352838520548119811161134157600893929161132e9161105b565b90855260098252838520559038806112ab565b845162461bcd60e51b815260048101859052601c60248201527f416363756d756c617465642072657761726473206f766572666c6f77000000006044820152606490fd5b634e487b7160e01b86526011600452602486fd5b845162461bcd60e51b815260048101859052601c60248201527f526577617264732063616c63756c6174696f6e206f766572666c6f77000000006044820152606490fd5b508115156112a6565b80916101409283910312610ede5760405191820182811067ffffffffffffffff821117610fe257604052805182526020810151602083015260408101516040830152606081015160608301526080810151608083015261144860a08201610ff8565b60a083015261145960c08201610ff8565b60c083015260e081015160e08301526101008082015190830152610120809101519082015290565b600254604051635e09eea160e01b81526001600160a01b0392831660048201529161014091829184916024918391165afa9182916000936114f7575b50506114c95750606490565b60200151600a810290808204600a1490151715610f5e576103e89004600a8110156114f45750600a90565b90565b611517929350803d1061151f575b61150f8183610fc0565b8101906113e6565b9038806114bd565b503d611505565b600254604051635e09eea160e01b81526001600160a01b0392831660048201529161014091829184916024918391165afa918291600093611579575b505061156e5750603290565b6020600a9101510490565b611590929350803d1061151f5761150f8183610fc0565b90388061156256fea264697066735822122088b3016f05909ef57d9e97e354bf09ae4cd223e6ba90230f240c232d464c8cce64736f6c63430008130033","opcodes":"PUSH1 0x80 CALLVALUE PUSH2 0xB1 JUMPI PUSH1 0x1F PUSH2 0x169B CODESIZE DUP2 SWAP1 SUB SWAP2 DUP3 ADD PUSH1 0x1F NOT AND DUP4 ADD SWAP2 PUSH1 0x1 PUSH1 0x1 PUSH1 0x40 SHL SUB DUP4 GT DUP5 DUP5 LT OR PUSH2 0xB6 JUMPI DUP1 DUP5 SWAP3 PUSH1 0x20 SWAP5 PUSH1 0x40 MSTORE DUP4 CODECOPY DUP2 ADD SUB SLT PUSH2 0xB1 JUMPI MLOAD PUSH1 0x1 PUSH1 0x1 PUSH1 0xA0 SHL SUB SWAP1 DUP2 DUP2 AND SWAP1 DUP2 SWAP1 SUB PUSH2 0xB1 JUMPI PUSH1 0x1 PUSH1 0x0 SSTORE PUSH1 0x1 SLOAD PUSH1 0x1 DUP1 PUSH1 0xA0 SHL SUB NOT SWAP1 CALLER DUP3 DUP3 AND OR PUSH1 0x1 SSTORE PUSH1 0x40 MLOAD SWAP4 CALLER SWAP2 AND PUSH32 0x8BE0079C531659141344CD1FD0A4F28419497F9722A3DAAFE3B4186F6B6457E0 PUSH1 0x0 DUP1 LOG3 PUSH1 0x19 PUSH1 0x4 SSTORE PUSH1 0x2 SLOAD AND OR PUSH1 0x2 SSTORE PUSH2 0x15CE SWAP1 DUP2 PUSH2 0xCD DUP3 CODECOPY RETURN JUMPDEST PUSH1 0x0 DUP1 REVERT JUMPDEST PUSH4 0x4E487B71 PUSH1 0xE0 SHL PUSH1 0x0 MSTORE PUSH1 0x41 PUSH1 0x4 MSTORE PUSH1 0x24 PUSH1 0x0 REVERT INVALID PUSH1 0x80 PUSH1 0x40 DUP2 DUP2 MSTORE PUSH1 0x4 DUP1 CALLDATASIZE LT ISZERO PUSH2 0x15 JUMPI PUSH1 0x0 DUP1 REVERT JUMPDEST PUSH1 0x0 SWAP3 DUP4 CALLDATALOAD PUSH1 0xE0 SHR SWAP1 DUP2 PUSH4 0xA6DCB02 EQ PUSH2 0xE94 JUMPI POP DUP1 PUSH4 0x1ADA6C08 EQ PUSH2 0xE5C JUMPI DUP1 PUSH4 0x1D030AC9 EQ PUSH2 0xE13 JUMPI DUP1 PUSH4 0x29A8F819 EQ PUSH2 0xDD5 JUMPI DUP1 PUSH4 0x328B071B EQ PUSH2 0xD9D JUMPI DUP1 PUSH4 0x49D638F7 EQ PUSH2 0xD65 JUMPI DUP1 PUSH4 0x6E2F1696 EQ PUSH2 0xD3F JUMPI DUP4 DUP2 PUSH4 0x6FF1C9BC EQ PUSH2 0xC13 JUMPI POP DUP1 PUSH4 0x715018A6 EQ PUSH2 0xBB3 JUMPI DUP1 PUSH4 0x77AA980D EQ PUSH2 0xB8A JUMPI DUP1 PUSH4 0x7A27DB57 EQ PUSH2 0xB55 JUMPI DUP1 PUSH4 0x8302FE11 EQ PUSH2 0xB0C JUMPI DUP1 PUSH4 0x846C5658 EQ PUSH2 0xAC3 JUMPI DUP1 PUSH4 0x8DA5CB5B EQ PUSH2 0xA9A JUMPI DUP1 PUSH4 0xADC9772E EQ PUSH2 0x7B3 JUMPI DUP1 PUSH4 0xB039DDF6 EQ PUSH2 0x678 JUMPI DUP1 PUSH4 0xB0E21E8A EQ PUSH2 0x65B JUMPI DUP1 PUSH4 0xC2A672E0 EQ PUSH2 0x3B4 JUMPI DUP1 PUSH4 0xDB85A481 EQ PUSH2 0x37C JUMPI DUP1 PUSH4 0xE1F1C4A7 EQ PUSH2 0x35F JUMPI DUP1 PUSH4 0xEC18154E EQ PUSH2 0x33C JUMPI DUP1 PUSH4 0xEF5CFB8C EQ PUSH2 0x1F0 JUMPI PUSH4 0xF2FDE38B EQ PUSH2 0x122 JUMPI PUSH1 0x0 DUP1 REVERT JUMPDEST CALLVALUE PUSH2 0x1EC JUMPI PUSH1 0x20 CALLDATASIZE PUSH1 0x3 NOT ADD SLT PUSH2 0x1EC JUMPI PUSH2 0x13B PUSH2 0xEC8 JUMP JUMPDEST SWAP1 PUSH2 0x144 PUSH2 0xEF9 JUMP JUMPDEST PUSH1 0x1 PUSH1 0x1 PUSH1 0xA0 SHL SUB SWAP2 DUP3 AND SWAP3 DUP4 ISZERO PUSH2 0x19A JUMPI POP POP PUSH1 0x1 SLOAD DUP3 PUSH12 0xFFFFFFFFFFFFFFFFFFFFFFFF PUSH1 0xA0 SHL DUP3 AND OR PUSH1 0x1 SSTORE AND PUSH32 0x8BE0079C531659141344CD1FD0A4F28419497F9722A3DAAFE3B4186F6B6457E0 DUP4 DUP1 LOG3 DUP1 RETURN JUMPDEST SWAP1 PUSH1 0x20 PUSH1 0x84 SWAP3 MLOAD SWAP2 PUSH3 0x461BCD PUSH1 0xE5 SHL DUP4 MSTORE DUP3 ADD MSTORE PUSH1 0x26 PUSH1 0x24 DUP3 ADD MSTORE PUSH32 0x4F776E61626C653A206E6577206F776E657220697320746865207A65726F2061 PUSH1 0x44 DUP3 ADD MSTORE PUSH6 0x646472657373 PUSH1 0xD0 SHL PUSH1 0x64 DUP3 ADD MSTORE REVERT JUMPDEST DUP3 DUP1 REVERT JUMPDEST POP SWAP1 CALLVALUE PUSH2 0x1EC JUMPI PUSH1 0x20 DUP1 PUSH1 0x3 NOT CALLDATASIZE ADD SLT PUSH2 0x338 JUMPI PUSH2 0x20C PUSH2 0xEC8 JUMP JUMPDEST PUSH2 0x214 PUSH2 0x1005 JUMP JUMPDEST CALLER DUP6 MSTORE PUSH1 0xB DUP3 MSTORE DUP3 DUP6 KECCAK256 PUSH1 0x1 PUSH1 0x1 PUSH1 0xA0 SHL SUB DUP3 AND DUP1 DUP8 MSTORE SWAP1 DUP4 MSTORE DUP4 DUP7 KECCAK256 SLOAD SWAP1 SWAP5 SWAP1 ISZERO PUSH2 0x302 JUMPI POP SWAP1 PUSH2 0x266 PUSH32 0x9310CCFCB8DE723F578A9E4282EA9F521F05AE40DC08F3068DFAD528A65EE3C7 SWAP3 PUSH2 0x126D JUMP JUMPDEST CALLER DUP6 MSTORE PUSH1 0xB DUP2 MSTORE DUP3 DUP6 KECCAK256 DUP5 DUP7 MSTORE DUP2 MSTORE PUSH8 0xDE0B6B3A7640000 PUSH2 0x2F2 DUP5 DUP8 KECCAK256 SLOAD PUSH1 0x9 DUP5 MSTORE PUSH5 0xE8D4A51000 PUSH2 0x2CF PUSH2 0x2BD DUP3 PUSH2 0x2A3 DUP11 DUP14 KECCAK256 SLOAD DUP7 PUSH2 0x1068 JUMP JUMPDEST DIV CALLER DUP13 MSTORE PUSH1 0xC DUP9 MSTORE DUP10 DUP13 KECCAK256 DUP12 DUP14 MSTORE DUP9 MSTORE DUP10 DUP13 KECCAK256 SLOAD SWAP1 PUSH2 0xF51 JUMP JUMPDEST SWAP3 DUP10 DUP12 MSTORE PUSH1 0x9 DUP8 MSTORE DUP9 DUP12 KECCAK256 SLOAD SWAP1 PUSH2 0x1068 JUMP JUMPDEST DIV CALLER DUP10 MSTORE PUSH1 0xC DUP6 MSTORE DUP7 DUP10 KECCAK256 DUP9 DUP11 MSTORE DUP6 MSTORE DUP7 DUP10 KECCAK256 SSTORE PUSH2 0x2EC CALLER PUSH2 0x1481 JUMP JUMPDEST SWAP1 PUSH2 0x1068 JUMP JUMPDEST DIV SWAP3 MLOAD SWAP3 DUP4 MSTORE CALLER SWAP3 LOG3 PUSH1 0x1 DUP2 SSTORE DUP1 RETURN JUMPDEST DUP4 MLOAD PUSH3 0x461BCD PUSH1 0xE5 SHL DUP2 MSTORE SWAP1 DUP2 ADD DUP4 SWAP1 MSTORE PUSH1 0x10 PUSH1 0x24 DUP3 ADD MSTORE PUSH16 0x139BC81CDD185AD9481A5B881C1BDBDB PUSH1 0x82 SHL PUSH1 0x44 DUP3 ADD MSTORE PUSH1 0x64 SWAP1 REVERT JUMPDEST DUP4 DUP1 REVERT JUMPDEST POP POP CALLVALUE PUSH2 0x35B JUMPI DUP2 PUSH1 0x3 NOT CALLDATASIZE ADD SLT PUSH2 0x35B JUMPI PUSH1 0x20 SWAP1 PUSH1 0x3 SLOAD SWAP1 MLOAD SWAP1 DUP2 MSTORE RETURN JUMPDEST POP DUP1 REVERT JUMPDEST POP POP CALLVALUE PUSH2 0x35B JUMPI DUP2 PUSH1 0x3 NOT CALLDATASIZE ADD SLT PUSH2 0x35B JUMPI PUSH1 0x20 SWAP1 MLOAD PUSH2 0x2710 DUP2 MSTORE RETURN JUMPDEST POP POP CALLVALUE PUSH2 0x35B JUMPI PUSH1 0x20 CALLDATASIZE PUSH1 0x3 NOT ADD SLT PUSH2 0x35B JUMPI PUSH1 0x20 SWAP2 DUP2 SWAP1 PUSH1 0x1 PUSH1 0x1 PUSH1 0xA0 SHL SUB PUSH2 0x3A4 PUSH2 0xEC8 JUMP JUMPDEST AND DUP2 MSTORE PUSH1 0x8 DUP5 MSTORE KECCAK256 SLOAD SWAP1 MLOAD SWAP1 DUP2 MSTORE RETURN JUMPDEST POP CALLVALUE PUSH2 0x1EC JUMPI DUP2 PUSH1 0x3 NOT CALLDATASIZE ADD SLT PUSH2 0x1EC JUMPI PUSH2 0x3CD PUSH2 0xEC8 JUMP JUMPDEST SWAP2 PUSH1 0x24 CALLDATALOAD SWAP2 PUSH2 0x3DA PUSH2 0x1005 JUMP JUMPDEST PUSH2 0x3E5 DUP4 ISZERO ISZERO PUSH2 0xF74 JUMP JUMPDEST CALLER DUP6 MSTORE PUSH1 0x20 SWAP1 PUSH1 0xB DUP3 MSTORE DUP3 DUP7 KECCAK256 SWAP5 PUSH1 0x1 DUP1 PUSH1 0xA0 SHL SUB DUP2 AND SWAP6 DUP7 DUP9 MSTORE DUP4 MSTORE DUP5 DUP5 DUP9 KECCAK256 SLOAD LT PUSH2 0x619 JUMPI SWAP1 PUSH2 0x41B PUSH2 0x4F8 SWAP5 SWAP4 SWAP3 PUSH2 0x126D JUMP JUMPDEST CALLER DUP8 MSTORE PUSH1 0xB DUP3 MSTORE DUP3 DUP8 KECCAK256 DUP7 DUP9 MSTORE DUP3 MSTORE DUP3 DUP8 KECCAK256 SLOAD SWAP2 PUSH1 0x9 DUP2 MSTORE DUP6 DUP5 DUP10 KECCAK256 SLOAD SWAP3 DUP10 SWAP4 DUP10 DUP8 DUP13 DUP4 ISZERO ISZERO DUP1 PUSH2 0x610 JUMPI JUMPDEST PUSH2 0x5A0 JUMPI JUMPDEST SWAP2 PUSH5 0xE8D4A51000 SWAP4 SWAP2 PUSH2 0x490 SWAP4 PUSH2 0x465 DUP9 DUP11 SWAP12 SWAP13 PUSH2 0xF51 JUMP JUMPDEST SWAP3 CALLER DUP3 MSTORE PUSH1 0xB DUP11 MSTORE DUP3 DUP3 KECCAK256 SWAP1 DUP3 MSTORE DUP10 MSTORE KECCAK256 SSTORE CALLER DUP14 MSTORE PUSH1 0xB DUP7 MSTORE DUP13 DUP13 DUP11 DUP3 KECCAK256 SWAP2 MSTORE DUP7 MSTORE DUP9 DUP14 KECCAK256 SLOAD PUSH2 0x1068 JUMP JUMPDEST DIV CALLER DUP12 MSTORE PUSH1 0xC DUP5 MSTORE DUP7 DUP12 KECCAK256 DUP11 DUP13 MSTORE DUP5 MSTORE DUP7 DUP12 KECCAK256 SSTORE PUSH1 0x6 DUP4 MSTORE PUSH2 0x4B5 DUP3 DUP8 DUP13 KECCAK256 SLOAD PUSH2 0xF51 JUMP JUMPDEST DUP10 DUP12 MSTORE PUSH1 0x6 DUP5 MSTORE DUP7 DUP12 KECCAK256 SSTORE PUSH2 0x4CC DUP3 PUSH1 0x3 SLOAD PUSH2 0xF51 JUMP JUMPDEST PUSH1 0x3 SSTORE DUP6 MLOAD PUSH4 0xA9059CBB PUSH1 0xE0 SHL DUP2 MSTORE CALLER SWAP2 DUP2 ADD SWAP2 DUP3 MSTORE PUSH1 0x20 DUP3 ADD SWAP3 SWAP1 SWAP3 MSTORE SWAP1 SWAP6 DUP7 SWAP2 DUP3 SWAP2 PUSH1 0x40 SWAP1 SWAP2 ADD SWAP1 JUMP JUMPDEST SUB DUP2 DUP11 DUP11 GAS CALL DUP1 ISZERO PUSH2 0x596 JUMPI PUSH2 0x53E JUMPI JUMPDEST PUSH32 0x6CC7E90B4F2B554A9614B0CAA84F909F3498C820AE47C731F490C28C07F7D3B SWAP4 POP DUP3 MLOAD SWAP5 DUP6 MSTORE DUP5 ADD MSTORE CALLER SWAP3 LOG3 PUSH1 0x1 DUP2 SSTORE DUP1 RETURN JUMPDEST DUP1 DUP5 DUP2 RETURNDATASIZE DUP4 GT PUSH2 0x58F JUMPI JUMPDEST PUSH2 0x553 DUP2 DUP4 PUSH2 0xFC0 JUMP JUMPDEST DUP2 ADD SUB SLT PUSH2 0x58B JUMPI PUSH2 0x585 PUSH32 0x6CC7E90B4F2B554A9614B0CAA84F909F3498C820AE47C731F490C28C07F7D3B SWAP5 PUSH2 0xFF8 JUMP JUMPDEST POP PUSH2 0x509 JUMP JUMPDEST DUP7 DUP1 REVERT JUMPDEST POP RETURNDATASIZE PUSH2 0x549 JUMP JUMPDEST DUP4 MLOAD RETURNDATASIZE DUP10 DUP3 RETURNDATACOPY RETURNDATASIZE SWAP1 REVERT JUMPDEST PUSH5 0xE8D4A51000 PUSH2 0x5B0 DUP6 DUP12 PUSH2 0x1068 JUMP JUMPDEST DIV CALLER DUP3 MSTORE PUSH1 0xC DUP9 MSTORE DUP3 DUP3 KECCAK256 DUP5 DUP4 MSTORE DUP9 MSTORE DUP3 DUP3 KECCAK256 SLOAD DUP2 GT PUSH2 0x5D1 JUMPI JUMPDEST POP PUSH2 0x44C JUMP JUMPDEST DUP8 SWAP9 POP SWAP2 PUSH2 0x490 SWAP4 SWAP2 PUSH2 0x465 DUP9 PUSH2 0x602 PUSH5 0xE8D4A51000 SWAP9 SWAP7 CALLER DUP6 MSTORE PUSH1 0xC DUP14 MSTORE DUP6 DUP6 KECCAK256 DUP8 DUP7 MSTORE DUP14 MSTORE DUP6 DUP6 KECCAK256 SLOAD SWAP1 PUSH2 0xF51 JUMP JUMPDEST SWAP12 POP POP POP SWAP2 SWAP4 POP SWAP2 SWAP4 PUSH2 0x5CB JUMP JUMPDEST POP DUP9 ISZERO ISZERO PUSH2 0x447 JUMP JUMPDEST POP SWAP2 MLOAD PUSH3 0x461BCD PUSH1 0xE5 SHL DUP2 MSTORE SWAP2 DUP3 ADD MSTORE PUSH1 0x1A PUSH1 0x24 DUP3 ADD MSTORE PUSH32 0x496E73756666696369656E74207374616B656420616D6F756E74000000000000 PUSH1 0x44 DUP3 ADD MSTORE PUSH1 0x64 SWAP1 REVERT JUMPDEST POP CALLVALUE PUSH2 0x1EC JUMPI DUP3 PUSH1 0x3 NOT CALLDATASIZE ADD SLT PUSH2 0x1EC JUMPI PUSH1 0x20 SWAP3 POP SLOAD SWAP1 MLOAD SWAP1 DUP2 MSTORE RETURN JUMPDEST POP SWAP1 CALLVALUE PUSH2 0x1EC JUMPI PUSH1 0x60 CALLDATASIZE PUSH1 0x3 NOT ADD SLT PUSH2 0x1EC JUMPI PUSH2 0x693 PUSH2 0xEC8 JUMP JUMPDEST SWAP1 PUSH1 0x24 CALLDATALOAD SWAP3 PUSH1 0x44 CALLDATALOAD SWAP3 PUSH2 0x6A4 PUSH2 0xEF9 JUMP JUMPDEST PUSH1 0x1 PUSH1 0x1 PUSH1 0xA0 SHL SUB AND SWAP4 DUP5 ISZERO PUSH2 0x780 JUMPI DUP1 ISZERO PUSH2 0x73D JUMPI DUP5 DUP7 MSTORE PUSH1 0x5 PUSH1 0x20 MSTORE DUP3 DUP7 KECCAK256 PUSH1 0x1 PUSH1 0xFF NOT DUP3 SLOAD AND OR SWAP1 SSTORE PUSH1 0x7 PUSH1 0x20 MSTORE DUP3 DUP7 KECCAK256 SSTORE PUSH1 0xA PUSH1 0x20 MSTORE DUP3 DUP3 DUP7 KECCAK256 SSTORE PUSH1 0x0 NOT NUMBER ADD SWAP1 NUMBER DUP3 GT PUSH2 0x72A JUMPI POP SWAP2 PUSH1 0x20 SWAP2 PUSH32 0x641E49906554552C8C33D7E09E02D1270590F405BC1DA0C7B99A9C2808ABDD05 SWAP4 DUP6 DUP8 MSTORE PUSH1 0x8 DUP5 MSTORE DUP2 DUP8 KECCAK256 SSTORE MLOAD SWAP1 DUP2 MSTORE LOG2 DUP1 RETURN JUMPDEST PUSH4 0x4E487B71 PUSH1 0xE0 SHL DUP7 MSTORE PUSH1 0x11 SWAP1 MSTORE PUSH1 0x24 DUP6 REVERT JUMPDEST POP PUSH1 0x20 PUSH1 0x64 SWAP3 MLOAD SWAP2 PUSH3 0x461BCD PUSH1 0xE5 SHL DUP4 MSTORE DUP3 ADD MSTORE PUSH1 0x19 PUSH1 0x24 DUP3 ADD MSTORE PUSH32 0x496E76616C696420726577617264732070657220626C6F636B00000000000000 PUSH1 0x44 DUP3 ADD MSTORE REVERT JUMPDEST POP PUSH1 0x20 PUSH1 0x64 SWAP3 MLOAD SWAP2 PUSH3 0x461BCD PUSH1 0xE5 SHL DUP4 MSTORE DUP3 ADD MSTORE PUSH1 0xD PUSH1 0x24 DUP3 ADD MSTORE PUSH13 0x24B73B30B634B2103A37B5B2B7 PUSH1 0x99 SHL PUSH1 0x44 DUP3 ADD MSTORE REVERT JUMPDEST POP SWAP1 CALLVALUE PUSH2 0x1EC JUMPI DUP1 PUSH1 0x3 NOT CALLDATASIZE ADD SLT PUSH2 0x1EC JUMPI PUSH2 0x7CD PUSH2 0xEC8 JUMP JUMPDEST SWAP2 PUSH1 0x24 CALLDATALOAD SWAP2 PUSH2 0x7DA PUSH2 0x1005 JUMP JUMPDEST PUSH2 0x7E5 DUP4 ISZERO ISZERO PUSH2 0xF74 JUMP JUMPDEST PUSH1 0x1 PUSH1 0x1 PUSH1 0xA0 SHL SUB DUP5 AND DUP1 DUP7 MSTORE PUSH1 0x5 PUSH1 0x20 SWAP1 DUP2 MSTORE DUP3 DUP8 KECCAK256 SLOAD SWAP2 SWAP6 SWAP2 PUSH1 0xFF AND ISZERO PUSH2 0xA66 JUMPI PUSH2 0x811 CALLER PUSH2 0x1526 JUMP JUMPDEST SWAP2 PUSH1 0x14 DUP4 LT PUSH2 0xA23 JUMPI DUP4 MLOAD SWAP5 PUSH4 0x23B872DD PUSH1 0xE0 SHL DUP7 MSTORE CALLER SWAP1 DUP7 ADD MSTORE ADDRESS PUSH1 0x24 DUP7 ADD MSTORE DUP6 PUSH1 0x44 DUP7 ADD MSTORE DUP2 DUP6 PUSH1 0x64 DUP2 DUP12 DUP12 GAS CALL DUP1 ISZERO PUSH2 0xA19 JUMPI PUSH2 0x9C1 JUMPI JUMPDEST PUSH32 0x6C86F3FD5118B3AA8BB4F389A617046DE0A3D3D477DE1A1673D227F802F616DC SWAP5 POP CALLER DUP9 MSTORE PUSH1 0xB DUP3 MSTORE DUP4 DUP9 KECCAK256 DUP8 DUP10 MSTORE DUP3 MSTORE PUSH2 0x890 DUP7 DUP6 DUP11 KECCAK256 SLOAD DUP1 PUSH2 0x95F JUMPI PUSH2 0x105B JUMP JUMPDEST CALLER DUP10 MSTORE PUSH1 0xB DUP4 MSTORE DUP5 DUP10 KECCAK256 DUP9 DUP11 MSTORE DUP4 MSTORE DUP5 DUP10 KECCAK256 SSTORE CALLER DUP9 MSTORE PUSH1 0xB DUP3 MSTORE DUP4 DUP9 KECCAK256 DUP8 DUP10 MSTORE DUP3 MSTORE PUSH5 0xE8D4A51000 PUSH2 0x8CD DUP6 DUP11 KECCAK256 SLOAD PUSH1 0x9 DUP6 MSTORE DUP7 DUP12 KECCAK256 SLOAD SWAP1 PUSH2 0x1068 JUMP JUMPDEST DIV CALLER DUP10 MSTORE PUSH1 0xC DUP4 MSTORE DUP5 DUP10 KECCAK256 DUP9 DUP11 MSTORE DUP4 MSTORE DUP5 DUP10 KECCAK256 SSTORE CALLER DUP9 MSTORE PUSH1 0xD DUP3 MSTORE DUP4 DUP9 KECCAK256 DUP8 DUP10 MSTORE DUP3 MSTORE DUP3 DUP5 DUP10 KECCAK256 SSTORE PUSH1 0x6 DUP3 MSTORE PUSH2 0x906 DUP7 DUP6 DUP11 KECCAK256 SLOAD PUSH2 0x105B JUMP JUMPDEST DUP8 DUP10 MSTORE PUSH1 0x6 DUP4 MSTORE DUP5 DUP10 KECCAK256 SSTORE PUSH2 0x91D DUP7 PUSH1 0x3 SLOAD PUSH2 0x105B JUMP JUMPDEST PUSH1 0x3 SSTORE DUP7 DUP9 MSTORE PUSH1 0x6 DUP3 MSTORE DUP4 DUP9 KECCAK256 SLOAD DUP7 SUB PUSH2 0x951 JUMPI POP DUP6 DUP8 MSTORE PUSH1 0x8 DUP2 MSTORE NUMBER DUP4 DUP9 KECCAK256 SSTORE JUMPDEST DUP3 MLOAD SWAP5 DUP6 MSTORE DUP5 ADD MSTORE CALLER SWAP3 LOG3 PUSH1 0x1 DUP2 SSTORE DUP1 RETURN JUMPDEST PUSH2 0x95A SWAP1 PUSH2 0x126D JUMP JUMPDEST PUSH2 0x93F JUMP JUMPDEST PUSH1 0x9 DUP6 MSTORE DUP7 DUP12 KECCAK256 SLOAD DUP1 PUSH2 0x973 JUMPI JUMPDEST POP PUSH2 0x105B JUMP JUMPDEST PUSH2 0x983 PUSH5 0xE8D4A51000 SWAP2 DUP4 PUSH2 0x1068 JUMP JUMPDEST DIV CALLER DUP13 MSTORE PUSH1 0xC DUP7 MSTORE DUP8 DUP13 KECCAK256 DUP12 DUP14 MSTORE DUP7 MSTORE DUP8 DUP13 KECCAK256 SLOAD DUP2 GT ISZERO PUSH2 0x96D JUMPI CALLER DUP13 MSTORE PUSH1 0xC DUP7 MSTORE DUP8 DUP13 KECCAK256 DUP12 DUP14 MSTORE DUP7 MSTORE DUP8 DUP13 KECCAK256 SLOAD PUSH2 0x9BA SWAP2 PUSH2 0xF51 JUMP JUMPDEST POP CODESIZE PUSH2 0x96D JUMP JUMPDEST DUP2 DUP6 DUP2 RETURNDATASIZE DUP4 GT PUSH2 0xA12 JUMPI JUMPDEST PUSH2 0x9D6 DUP2 DUP4 PUSH2 0xFC0 JUMP JUMPDEST DUP2 ADD SUB SLT PUSH2 0xA0E JUMPI PUSH2 0xA08 PUSH32 0x6C86F3FD5118B3AA8BB4F389A617046DE0A3D3D477DE1A1673D227F802F616DC SWAP6 PUSH2 0xFF8 JUMP JUMPDEST POP PUSH2 0x84C JUMP JUMPDEST DUP8 DUP1 REVERT JUMPDEST POP RETURNDATASIZE PUSH2 0x9CC JUMP JUMPDEST DUP5 MLOAD RETURNDATASIZE DUP11 DUP3 RETURNDATACOPY RETURNDATASIZE SWAP1 REVERT JUMPDEST DUP4 MLOAD PUSH3 0x461BCD PUSH1 0xE5 SHL DUP2 MSTORE DUP1 DUP7 ADD DUP4 SWAP1 MSTORE PUSH1 0x18 PUSH1 0x24 DUP3 ADD MSTORE PUSH32 0x496E73756666696369656E742074727573742073636F72650000000000000000 PUSH1 0x44 DUP3 ADD MSTORE PUSH1 0x64 SWAP1 REVERT JUMPDEST DUP4 PUSH1 0x64 SWAP2 DUP5 MLOAD SWAP2 PUSH3 0x461BCD PUSH1 0xE5 SHL DUP4 MSTORE DUP3 ADD MSTORE PUSH1 0xF PUSH1 0x24 DUP3 ADD MSTORE PUSH15 0x506F6F6C206E6F7420616374697665 PUSH1 0x88 SHL PUSH1 0x44 DUP3 ADD MSTORE REVERT JUMPDEST POP POP CALLVALUE PUSH2 0x35B JUMPI DUP2 PUSH1 0x3 NOT CALLDATASIZE ADD SLT PUSH2 0x35B JUMPI PUSH1 0x1 SLOAD SWAP1 MLOAD PUSH1 0x1 PUSH1 0x1 PUSH1 0xA0 SHL SUB SWAP1 SWAP2 AND DUP2 MSTORE PUSH1 0x20 SWAP1 RETURN JUMPDEST POP POP CALLVALUE PUSH2 0x35B JUMPI DUP1 PUSH1 0x3 NOT CALLDATASIZE ADD SLT PUSH2 0x35B JUMPI DUP1 PUSH1 0x20 SWAP3 PUSH2 0xAE1 PUSH2 0xEC8 JUMP JUMPDEST PUSH2 0xAE9 PUSH2 0xEE3 JUMP JUMPDEST PUSH1 0x1 PUSH1 0x1 PUSH1 0xA0 SHL SUB SWAP2 DUP3 AND DUP4 MSTORE PUSH1 0xD DUP7 MSTORE DUP4 DUP4 KECCAK256 SWAP2 AND DUP3 MSTORE DUP5 MSTORE KECCAK256 SLOAD SWAP1 MLOAD SWAP1 DUP2 MSTORE RETURN JUMPDEST POP POP CALLVALUE PUSH2 0x35B JUMPI DUP1 PUSH1 0x3 NOT CALLDATASIZE ADD SLT PUSH2 0x35B JUMPI DUP1 PUSH1 0x20 SWAP3 PUSH2 0xB2A PUSH2 0xEC8 JUMP JUMPDEST PUSH2 0xB32 PUSH2 0xEE3 JUMP JUMPDEST PUSH1 0x1 PUSH1 0x1 PUSH1 0xA0 SHL SUB SWAP2 DUP3 AND DUP4 MSTORE PUSH1 0xB DUP7 MSTORE DUP4 DUP4 KECCAK256 SWAP2 AND DUP3 MSTORE DUP5 MSTORE KECCAK256 SLOAD SWAP1 MLOAD SWAP1 DUP2 MSTORE RETURN JUMPDEST POP POP CALLVALUE PUSH2 0x35B JUMPI DUP1 PUSH1 0x3 NOT CALLDATASIZE ADD SLT PUSH2 0x35B JUMPI PUSH1 0x20 SWAP1 PUSH2 0xB83 PUSH2 0xB75 PUSH2 0xEC8 JUMP JUMPDEST PUSH2 0xB7D PUSH2 0xEE3 JUMP JUMPDEST SWAP1 PUSH2 0x109B JUMP JUMPDEST SWAP1 MLOAD SWAP1 DUP2 MSTORE RETURN JUMPDEST POP POP CALLVALUE PUSH2 0x35B JUMPI DUP2 PUSH1 0x3 NOT CALLDATASIZE ADD SLT PUSH2 0x35B JUMPI PUSH1 0x2 SLOAD SWAP1 MLOAD PUSH1 0x1 PUSH1 0x1 PUSH1 0xA0 SHL SUB SWAP1 SWAP2 AND DUP2 MSTORE PUSH1 0x20 SWAP1 RETURN JUMPDEST DUP4 CALLVALUE PUSH2 0xC10 JUMPI DUP1 PUSH1 0x3 NOT CALLDATASIZE ADD SLT PUSH2 0xC10 JUMPI PUSH2 0xBCC PUSH2 0xEF9 JUMP JUMPDEST PUSH1 0x1 DUP1 SLOAD PUSH1 0x1 PUSH1 0x1 PUSH1 0xA0 SHL SUB NOT DUP2 AND SWAP1 SWAP2 SSTORE DUP2 SWAP1 PUSH1 0x1 PUSH1 0x1 PUSH1 0xA0 SHL SUB AND PUSH32 0x8BE0079C531659141344CD1FD0A4F28419497F9722A3DAAFE3B4186F6B6457E0 DUP3 DUP1 LOG3 DUP1 RETURN JUMPDEST DUP1 REVERT JUMPDEST SWAP3 SWAP1 POP CALLVALUE PUSH2 0xD3B JUMPI PUSH1 0x20 SWAP2 DUP3 PUSH1 0x3 NOT CALLDATASIZE ADD SLT PUSH2 0xD36 JUMPI PUSH2 0xC31 PUSH2 0xEC8 JUMP JUMPDEST SWAP1 PUSH2 0xC3A PUSH2 0xEF9 JUMP JUMPDEST DUP3 MLOAD PUSH4 0x70A08231 PUSH1 0xE0 SHL DUP2 MSTORE ADDRESS DUP2 DUP4 ADD MSTORE SWAP2 PUSH1 0x1 PUSH1 0x1 PUSH1 0xA0 SHL SUB SWAP1 DUP2 AND SWAP2 SWAP1 DUP6 DUP5 PUSH1 0x24 DUP2 DUP7 GAS STATICCALL SWAP4 DUP5 ISZERO PUSH2 0xD2C JUMPI DUP8 SWAP5 PUSH2 0xCF7 JUMPI JUMPDEST POP PUSH1 0x1 SLOAD DUP6 MLOAD PUSH4 0xA9059CBB PUSH1 0xE0 SHL DUP2 MSTORE SWAP2 AND PUSH1 0x1 PUSH1 0x1 PUSH1 0xA0 SHL SUB AND SWAP2 DUP2 ADD SWAP2 DUP3 MSTORE PUSH1 0x20 DUP3 ADD SWAP4 SWAP1 SWAP4 MSTORE SWAP2 SWAP5 DUP5 SWAP3 DUP7 SWAP3 SWAP2 DUP4 SWAP2 DUP3 SWAP1 PUSH1 0x40 ADD JUMPDEST SUB SWAP3 GAS CALL SWAP1 DUP2 ISZERO PUSH2 0xCEE JUMPI POP PUSH2 0xCBB JUMPI DUP3 DUP1 RETURN JUMPDEST DUP2 DUP2 RETURNDATASIZE DUP4 GT PUSH2 0xCE7 JUMPI JUMPDEST PUSH2 0xCCF DUP2 DUP4 PUSH2 0xFC0 JUMP JUMPDEST DUP2 ADD SUB SLT PUSH2 0x35B JUMPI PUSH2 0xCE0 SWAP1 PUSH2 0xFF8 JUMP JUMPDEST POP CODESIZE DUP1 DUP3 DUP1 RETURN JUMPDEST POP RETURNDATASIZE PUSH2 0xCC5 JUMP JUMPDEST MLOAD RETURNDATASIZE DUP6 DUP3 RETURNDATACOPY RETURNDATASIZE SWAP1 REVERT JUMPDEST SWAP4 POP SWAP2 SWAP1 DUP6 DUP5 DUP2 RETURNDATASIZE DUP4 GT PUSH2 0xD25 JUMPI JUMPDEST PUSH2 0xD10 DUP2 DUP4 PUSH2 0xFC0 JUMP JUMPDEST DUP2 ADD SUB SLT PUSH2 0x58B JUMPI SWAP3 MLOAD SWAP3 SWAP1 SWAP2 PUSH2 0xCA7 PUSH2 0xC6F JUMP JUMPDEST POP RETURNDATASIZE PUSH2 0xD06 JUMP JUMPDEST DUP6 MLOAD RETURNDATASIZE DUP10 DUP3 RETURNDATACOPY RETURNDATASIZE SWAP1 REVERT JUMPDEST POP POP POP REVERT JUMPDEST POP POP REVERT JUMPDEST POP POP CALLVALUE PUSH2 0x35B JUMPI PUSH1 0x20 CALLDATASIZE PUSH1 0x3 NOT ADD SLT PUSH2 0x35B JUMPI SWAP1 PUSH1 0x20 SWAP2 PUSH2 0xD5E PUSH2 0xEC8 JUMP JUMPDEST POP MLOAD SWAP1 DUP2 MSTORE RETURN JUMPDEST POP POP CALLVALUE PUSH2 0x35B JUMPI PUSH1 0x20 CALLDATASIZE PUSH1 0x3 NOT ADD SLT PUSH2 0x35B JUMPI PUSH1 0x20 SWAP2 DUP2 SWAP1 PUSH1 0x1 PUSH1 0x1 PUSH1 0xA0 SHL SUB PUSH2 0xD8D PUSH2 0xEC8 JUMP JUMPDEST AND DUP2 MSTORE PUSH1 0x9 DUP5 MSTORE KECCAK256 SLOAD SWAP1 MLOAD SWAP1 DUP2 MSTORE RETURN JUMPDEST POP POP CALLVALUE PUSH2 0x35B JUMPI PUSH1 0x20 CALLDATASIZE PUSH1 0x3 NOT ADD SLT PUSH2 0x35B JUMPI PUSH1 0x20 SWAP2 DUP2 SWAP1 PUSH1 0x1 PUSH1 0x1 PUSH1 0xA0 SHL SUB PUSH2 0xDC5 PUSH2 0xEC8 JUMP JUMPDEST AND DUP2 MSTORE PUSH1 0xA DUP5 MSTORE KECCAK256 SLOAD SWAP1 MLOAD SWAP1 DUP2 MSTORE RETURN JUMPDEST POP POP CALLVALUE PUSH2 0x35B JUMPI PUSH1 0x20 CALLDATASIZE PUSH1 0x3 NOT ADD SLT PUSH2 0x35B JUMPI PUSH1 0x20 SWAP2 PUSH1 0xFF SWAP1 DUP3 SWAP1 PUSH1 0x1 PUSH1 0x1 PUSH1 0xA0 SHL SUB PUSH2 0xE00 PUSH2 0xEC8 JUMP JUMPDEST AND DUP2 MSTORE PUSH1 0x5 DUP6 MSTORE KECCAK256 SLOAD AND SWAP1 MLOAD SWAP1 ISZERO ISZERO DUP2 MSTORE RETURN JUMPDEST POP POP CALLVALUE PUSH2 0x35B JUMPI DUP1 PUSH1 0x3 NOT CALLDATASIZE ADD SLT PUSH2 0x35B JUMPI DUP1 PUSH1 0x20 SWAP3 PUSH2 0xE31 PUSH2 0xEC8 JUMP JUMPDEST PUSH2 0xE39 PUSH2 0xEE3 JUMP JUMPDEST PUSH1 0x1 PUSH1 0x1 PUSH1 0xA0 SHL SUB SWAP2 DUP3 AND DUP4 MSTORE PUSH1 0xC DUP7 MSTORE DUP4 DUP4 KECCAK256 SWAP2 AND DUP3 MSTORE DUP5 MSTORE KECCAK256 SLOAD SWAP1 MLOAD SWAP1 DUP2 MSTORE RETURN JUMPDEST POP POP CALLVALUE PUSH2 0x35B JUMPI PUSH1 0x20 CALLDATASIZE PUSH1 0x3 NOT ADD SLT PUSH2 0x35B JUMPI PUSH1 0x20 SWAP2 DUP2 SWAP1 PUSH1 0x1 PUSH1 0x1 PUSH1 0xA0 SHL SUB PUSH2 0xE84 PUSH2 0xEC8 JUMP JUMPDEST AND DUP2 MSTORE PUSH1 0x6 DUP5 MSTORE KECCAK256 SLOAD SWAP1 MLOAD SWAP1 DUP2 MSTORE RETURN JUMPDEST DUP5 SWAP1 DUP5 CALLVALUE PUSH2 0x1EC JUMPI PUSH1 0x20 CALLDATASIZE PUSH1 0x3 NOT ADD SLT PUSH2 0x1EC JUMPI PUSH1 0x20 SWAP3 PUSH1 0x1 PUSH1 0x1 PUSH1 0xA0 SHL SUB PUSH2 0xEBB PUSH2 0xEC8 JUMP JUMPDEST AND DUP2 MSTORE PUSH1 0x7 DUP5 MSTORE KECCAK256 SLOAD DUP2 MSTORE RETURN JUMPDEST PUSH1 0x4 CALLDATALOAD SWAP1 PUSH1 0x1 PUSH1 0x1 PUSH1 0xA0 SHL SUB DUP3 AND DUP3 SUB PUSH2 0xEDE JUMPI JUMP JUMPDEST PUSH1 0x0 DUP1 REVERT JUMPDEST PUSH1 0x24 CALLDATALOAD SWAP1 PUSH1 0x1 PUSH1 0x1 PUSH1 0xA0 SHL SUB DUP3 AND DUP3 SUB PUSH2 0xEDE JUMPI JUMP JUMPDEST PUSH1 0x1 SLOAD PUSH1 0x1 PUSH1 0x1 PUSH1 0xA0 SHL SUB AND CALLER SUB PUSH2 0xF0D JUMPI JUMP JUMPDEST PUSH1 0x64 PUSH1 0x40 MLOAD PUSH3 0x461BCD PUSH1 0xE5 SHL DUP2 MSTORE PUSH1 0x20 PUSH1 0x4 DUP3 ADD MSTORE PUSH1 0x20 PUSH1 0x24 DUP3 ADD MSTORE PUSH32 0x4F776E61626C653A2063616C6C6572206973206E6F7420746865206F776E6572 PUSH1 0x44 DUP3 ADD MSTORE REVERT JUMPDEST SWAP2 SWAP1 DUP3 SUB SWAP2 DUP3 GT PUSH2 0xF5E JUMPI JUMP JUMPDEST PUSH4 0x4E487B71 PUSH1 0xE0 SHL PUSH1 0x0 MSTORE PUSH1 0x11 PUSH1 0x4 MSTORE PUSH1 0x24 PUSH1 0x0 REVERT JUMPDEST ISZERO PUSH2 0xF7B JUMPI JUMP JUMPDEST PUSH1 0x40 MLOAD PUSH3 0x461BCD PUSH1 0xE5 SHL DUP2 MSTORE PUSH1 0x20 PUSH1 0x4 DUP3 ADD MSTORE PUSH1 0x17 PUSH1 0x24 DUP3 ADD MSTORE PUSH32 0x416D6F756E74206D75737420626520706F736974697665000000000000000000 PUSH1 0x44 DUP3 ADD MSTORE PUSH1 0x64 SWAP1 REVERT JUMPDEST SWAP1 PUSH1 0x1F DUP1 NOT SWAP2 ADD AND DUP2 ADD SWAP1 DUP2 LT PUSH8 0xFFFFFFFFFFFFFFFF DUP3 GT OR PUSH2 0xFE2 JUMPI PUSH1 0x40 MSTORE JUMP JUMPDEST PUSH4 0x4E487B71 PUSH1 0xE0 SHL PUSH1 0x0 MSTORE PUSH1 0x41 PUSH1 0x4 MSTORE PUSH1 0x24 PUSH1 0x0 REVERT JUMPDEST MLOAD SWAP1 DUP2 ISZERO ISZERO DUP3 SUB PUSH2 0xEDE JUMPI JUMP JUMPDEST PUSH1 0x2 PUSH1 0x0 SLOAD EQ PUSH2 0x1016 JUMPI PUSH1 0x2 PUSH1 0x0 SSTORE JUMP JUMPDEST PUSH1 0x40 MLOAD PUSH3 0x461BCD PUSH1 0xE5 SHL DUP2 MSTORE PUSH1 0x20 PUSH1 0x4 DUP3 ADD MSTORE PUSH1 0x1F PUSH1 0x24 DUP3 ADD MSTORE PUSH32 0x5265656E7472616E637947756172643A207265656E7472616E742063616C6C00 PUSH1 0x44 DUP3 ADD MSTORE PUSH1 0x64 SWAP1 REVERT JUMPDEST SWAP2 SWAP1 DUP3 ADD DUP1 SWAP3 GT PUSH2 0xF5E JUMPI JUMP JUMPDEST DUP2 DUP2 MUL SWAP3 SWAP2 DUP2 ISZERO SWAP2 DUP5 DIV EQ OR ISZERO PUSH2 0xF5E JUMPI JUMP JUMPDEST DUP2 ISZERO PUSH2 0x1085 JUMPI DIV SWAP1 JUMP JUMPDEST PUSH4 0x4E487B71 PUSH1 0xE0 SHL PUSH1 0x0 MSTORE PUSH1 0x12 PUSH1 0x4 MSTORE PUSH1 0x24 PUSH1 0x0 REVERT JUMPDEST SWAP1 PUSH1 0x1 DUP1 PUSH1 0xA0 SHL SUB SWAP2 DUP3 DUP2 AND SWAP3 PUSH1 0x0 SWAP1 DUP5 DUP3 MSTORE PUSH1 0x20 SWAP2 PUSH1 0xB DUP4 MSTORE PUSH1 0x40 SWAP2 DUP3 DUP3 KECCAK256 SWAP6 AND SWAP5 DUP6 DUP3 MSTORE DUP4 MSTORE DUP2 DUP2 KECCAK256 SLOAD ISZERO PUSH2 0x1264 JUMPI DUP6 DUP2 MSTORE PUSH1 0xB DUP4 MSTORE DUP2 DUP2 KECCAK256 DUP6 DUP3 MSTORE DUP4 MSTORE DUP2 DUP2 KECCAK256 SLOAD SWAP5 PUSH1 0x9 DUP5 MSTORE DUP3 DUP3 KECCAK256 SLOAD PUSH1 0x8 DUP6 MSTORE PUSH2 0x10F9 DUP5 DUP5 KECCAK256 SLOAD NUMBER PUSH2 0xF51 JUMP JUMPDEST DUP3 DUP5 MSTORE PUSH1 0x6 DUP7 MSTORE DUP5 DUP5 KECCAK256 SLOAD SWAP1 DUP1 ISZERO ISZERO DUP1 PUSH2 0x125B JUMPI JUMPDEST PUSH2 0x11B5 JUMPI JUMPDEST POP POP SWAP2 PUSH8 0xDE0B6B3A7640000 SWAP8 SWAP6 SWAP4 SWAP2 PUSH2 0x114A SWAP8 SWAP6 SWAP4 DUP3 SWAP7 DUP2 ISZERO ISZERO DUP1 PUSH2 0x11AC JUMPI JUMPDEST PUSH2 0x114E JUMPI JUMPDEST POP POP POP POP POP POP PUSH2 0x2EC SWAP2 SWAP3 POP PUSH2 0x1481 JUMP JUMPDEST DIV SWAP1 JUMP JUMPDEST PUSH5 0xE8D4A51000 SWAP2 PUSH2 0x115E SWAP2 PUSH2 0x1068 JUMP JUMPDEST DIV SWAP4 DUP8 DUP4 MSTORE PUSH1 0xC DUP2 MSTORE DUP4 DUP4 KECCAK256 DUP3 DUP5 MSTORE DUP2 MSTORE DUP4 DUP4 KECCAK256 SLOAD DUP6 GT PUSH2 0x1180 JUMPI JUMPDEST DUP1 PUSH2 0x1139 JUMP JUMPDEST PUSH2 0x2EC SWAP7 POP PUSH2 0x119F SWAP6 SWAP8 DUP4 MSTORE PUSH1 0xC DUP2 MSTORE DUP4 DUP4 KECCAK256 SWAP2 DUP4 MSTORE MSTORE KECCAK256 SLOAD SWAP1 PUSH2 0xF51 JUMP JUMPDEST SWAP1 POP DUP2 CODESIZE DUP1 DUP1 DUP1 DUP1 PUSH2 0x117A JUMP JUMPDEST POP DUP1 ISZERO ISZERO PUSH2 0x1134 JUMP JUMPDEST PUSH1 0x7 DUP8 MSTORE DUP6 DUP6 KECCAK256 SLOAD PUSH2 0x11C6 SWAP2 PUSH2 0x1068 JUMP JUMPDEST PUSH28 0x119799812DEA11197F27F0F6E885C8BA7EB31F476CAF7411A863387 DUP2 GT ISZERO DUP1 PUSH2 0x1252 JUMPI JUMPDEST ISZERO PUSH2 0x1113 JUMPI PUSH5 0xE8D4A51000 SWAP1 DUP2 DUP2 MUL SWAP2 DUP2 DUP4 DIV EQ SWAP1 ISZERO OR ISZERO PUSH2 0x123E JUMPI PUSH2 0x114A SWAP9 SWAP7 SWAP5 SWAP3 PUSH2 0x1229 PUSH8 0xDE0B6B3A7640000 SWAP12 SWAP10 SWAP8 SWAP6 SWAP4 PUSH2 0x122F SWAP4 PUSH2 0x107B JUMP JUMPDEST SWAP1 PUSH2 0x105B JUMP JUMPDEST SWAP2 SWAP4 SWAP6 SWAP8 DUP2 SWAP4 SWAP6 SWAP8 SWAP10 POP PUSH2 0x1113 JUMP JUMPDEST PUSH4 0x4E487B71 PUSH1 0xE0 SHL DUP6 MSTORE PUSH1 0x11 PUSH1 0x4 MSTORE PUSH1 0x24 DUP6 REVERT JUMPDEST POP DUP2 ISZERO ISZERO PUSH2 0x11EC JUMP JUMPDEST POP DUP2 ISZERO ISZERO PUSH2 0x110E JUMP JUMPDEST SWAP5 POP POP POP POP POP SWAP1 JUMP JUMPDEST PUSH1 0x1 DUP1 PUSH1 0xA0 SHL SUB AND PUSH1 0x0 SWAP1 DUP1 DUP3 MSTORE PUSH1 0x20 PUSH1 0x8 DUP2 MSTORE PUSH1 0x40 SWAP2 PUSH2 0x1291 DUP4 DUP6 KECCAK256 SLOAD NUMBER PUSH2 0xF51 JUMP JUMPDEST DUP2 DUP6 MSTORE PUSH1 0x6 DUP4 MSTORE DUP4 DUP6 KECCAK256 SLOAD SWAP1 DUP1 ISZERO ISZERO DUP1 PUSH2 0x13DD JUMPI JUMPDEST PUSH2 0x12B8 JUMPI JUMPDEST POP POP POP PUSH1 0x8 SWAP1 MSTORE NUMBER SWAP2 KECCAK256 SSTORE JUMP JUMPDEST PUSH1 0x7 DUP5 MSTORE DUP5 DUP7 KECCAK256 SLOAD PUSH2 0x12C9 SWAP2 PUSH2 0x1068 JUMP JUMPDEST PUSH28 0x119799812DEA11197F27F0F6E885C8BA7EB31F476CAF7411A863387 DUP2 GT PUSH2 0x1399 JUMPI PUSH5 0xE8D4A51000 SWAP1 DUP2 DUP2 MUL SWAP2 DUP2 DUP4 DIV EQ SWAP1 ISZERO OR ISZERO PUSH2 0x1385 JUMPI SWAP1 PUSH2 0x130D SWAP2 PUSH2 0x107B JUMP JUMPDEST DUP2 DUP6 MSTORE PUSH1 0x9 DUP4 MSTORE DUP4 DUP6 KECCAK256 SLOAD DUP2 NOT DUP2 GT PUSH2 0x1341 JUMPI PUSH1 0x8 SWAP4 SWAP3 SWAP2 PUSH2 0x132E SWAP2 PUSH2 0x105B JUMP JUMPDEST SWAP1 DUP6 MSTORE PUSH1 0x9 DUP3 MSTORE DUP4 DUP6 KECCAK256 SSTORE SWAP1 CODESIZE DUP1 PUSH2 0x12AB JUMP JUMPDEST DUP5 MLOAD PUSH3 0x461BCD PUSH1 0xE5 SHL DUP2 MSTORE PUSH1 0x4 DUP2 ADD DUP6 SWAP1 MSTORE PUSH1 0x1C PUSH1 0x24 DUP3 ADD MSTORE PUSH32 0x416363756D756C617465642072657761726473206F766572666C6F7700000000 PUSH1 0x44 DUP3 ADD MSTORE PUSH1 0x64 SWAP1 REVERT JUMPDEST PUSH4 0x4E487B71 PUSH1 0xE0 SHL DUP7 MSTORE PUSH1 0x11 PUSH1 0x4 MSTORE PUSH1 0x24 DUP7 REVERT JUMPDEST DUP5 MLOAD PUSH3 0x461BCD PUSH1 0xE5 SHL DUP2 MSTORE PUSH1 0x4 DUP2 ADD DUP6 SWAP1 MSTORE PUSH1 0x1C PUSH1 0x24 DUP3 ADD MSTORE PUSH32 0x526577617264732063616C63756C6174696F6E206F766572666C6F7700000000 PUSH1 0x44 DUP3 ADD MSTORE PUSH1 0x64 SWAP1 REVERT JUMPDEST POP DUP2 ISZERO ISZERO PUSH2 0x12A6 JUMP JUMPDEST DUP1 SWAP2 PUSH2 0x140 SWAP3 DUP4 SWAP2 SUB SLT PUSH2 0xEDE JUMPI PUSH1 0x40 MLOAD SWAP2 DUP3 ADD DUP3 DUP2 LT PUSH8 0xFFFFFFFFFFFFFFFF DUP3 GT OR PUSH2 0xFE2 JUMPI PUSH1 0x40 MSTORE DUP1 MLOAD DUP3 MSTORE PUSH1 0x20 DUP2 ADD MLOAD PUSH1 0x20 DUP4 ADD MSTORE PUSH1 0x40 DUP2 ADD MLOAD PUSH1 0x40 DUP4 ADD MSTORE PUSH1 0x60 DUP2 ADD MLOAD PUSH1 0x60 DUP4 ADD MSTORE PUSH1 0x80 DUP2 ADD MLOAD PUSH1 0x80 DUP4 ADD MSTORE PUSH2 0x1448 PUSH1 0xA0 DUP3 ADD PUSH2 0xFF8 JUMP JUMPDEST PUSH1 0xA0 DUP4 ADD MSTORE PUSH2 0x1459 PUSH1 0xC0 DUP3 ADD PUSH2 0xFF8 JUMP JUMPDEST PUSH1 0xC0 DUP4 ADD MSTORE PUSH1 0xE0 DUP2 ADD MLOAD PUSH1 0xE0 DUP4 ADD MSTORE PUSH2 0x100 DUP1 DUP3 ADD MLOAD SWAP1 DUP4 ADD MSTORE PUSH2 0x120 DUP1 SWAP2 ADD MLOAD SWAP1 DUP3 ADD MSTORE SWAP1 JUMP JUMPDEST PUSH1 0x2 SLOAD PUSH1 0x40 MLOAD PUSH4 0x5E09EEA1 PUSH1 0xE0 SHL DUP2 MSTORE PUSH1 0x1 PUSH1 0x1 PUSH1 0xA0 SHL SUB SWAP3 DUP4 AND PUSH1 0x4 DUP3 ADD MSTORE SWAP2 PUSH2 0x140 SWAP2 DUP3 SWAP2 DUP5 SWAP2 PUSH1 0x24 SWAP2 DUP4 SWAP2 AND GAS STATICCALL SWAP2 DUP3 SWAP2 PUSH1 0x0 SWAP4 PUSH2 0x14F7 JUMPI JUMPDEST POP POP PUSH2 0x14C9 JUMPI POP PUSH1 0x64 SWAP1 JUMP JUMPDEST PUSH1 0x20 ADD MLOAD PUSH1 0xA DUP2 MUL SWAP1 DUP1 DUP3 DIV PUSH1 0xA EQ SWAP1 ISZERO OR ISZERO PUSH2 0xF5E JUMPI PUSH2 0x3E8 SWAP1 DIV PUSH1 0xA DUP2 LT ISZERO PUSH2 0x14F4 JUMPI POP PUSH1 0xA SWAP1 JUMP JUMPDEST SWAP1 JUMP JUMPDEST PUSH2 0x1517 SWAP3 SWAP4 POP DUP1 RETURNDATASIZE LT PUSH2 0x151F JUMPI JUMPDEST PUSH2 0x150F DUP2 DUP4 PUSH2 0xFC0 JUMP JUMPDEST DUP2 ADD SWAP1 PUSH2 0x13E6 JUMP JUMPDEST SWAP1 CODESIZE DUP1 PUSH2 0x14BD JUMP JUMPDEST POP RETURNDATASIZE PUSH2 0x1505 JUMP JUMPDEST PUSH1 0x2 SLOAD PUSH1 0x40 MLOAD PUSH4 0x5E09EEA1 PUSH1 0xE0 SHL DUP2 MSTORE PUSH1 0x1 PUSH1 0x1 PUSH1 0xA0 SHL SUB SWAP3 DUP4 AND PUSH1 0x4 DUP3 ADD MSTORE SWAP2 PUSH2 0x140 SWAP2 DUP3 SWAP2 DUP5 SWAP2 PUSH1 0x24 SWAP2 DUP4 SWAP2 AND GAS STATICCALL SWAP2 DUP3 SWAP2 PUSH1 0x0 SWAP4 PUSH2 0x1579 JUMPI JUMPDEST POP POP PUSH2 0x156E JUMPI POP PUSH1 0x32 SWAP1 JUMP JUMPDEST PUSH1 0x20 PUSH1 0xA SWAP2 ADD MLOAD DIV SWAP1 JUMP JUMPDEST PUSH2 0x1590 SWAP3 SWAP4 POP DUP1 RETURNDATASIZE LT PUSH2 0x151F JUMPI PUSH2 0x150F DUP2 DUP4 PUSH2 0xFC0 JUMP JUMPDEST SWAP1 CODESIZE DUP1 PUSH2 0x1562 JUMP INVALID LOG2 PUSH5 0x6970667358 0x22 SLT KECCAK256 DUP9 0xB3 ADD PUSH16 0x5909EF57D9E97E354BF09AE4CD223E6 0xBA SWAP1 0x23 0xF 0x24 0xC 0x23 0x2D CHAINID 0x4C DUP13 0xCE PUSH5 0x736F6C6343 STOP ADDMOD SGT STOP CALLER "},"methodIdentifiers":{"BASIS_POINTS()":"e1f1c4a7","activePools(address)":"29a8f819","claimRewards(address)":"ef5cfb8c","createPool(address,uint256,uint256)":"b039ddf6","emergencyWithdraw(address)":"6ff1c9bc","getPendingRewards(address,address)":"7a27db57","getUserTotalStaked(address)":"6e2f1696","owner()":"8da5cb5b","poolAccRewardsPerShare(address)":"49d638f7","poolLastUpdateBlock(address)":"db85a481","poolRewardsPerBlock(address)":"0a6dcb02","poolTotalStaked(address)":"1ada6c08","poolTrustMultiplier(address)":"328b071b","protocolFee()":"b0e21e8a","renounceOwnership()":"715018a6","stake(address,uint256)":"adc9772e","totalValueLocked()":"ec18154e","transferOwnership(address)":"f2fde38b","trustEngine()":"77aa980d","unstake(address,uint256)":"c2a672e0","userRewardDebt(address,address)":"1d030ac9","userStakedAmount(address,address)":"8302fe11","userTrustScore(address,address)":"846c5658"}}}}}