{"contracts/TrustEngine.sol":{"TrustEngine":{"abi":[{"inputs":[],"stateMutability":"nonpayable","type":"constructor"},{"anonymous":false,"inputs":[{"indexed":true,"internalType":"address","name":"wallet","type":"address"},{"indexed":false,"internalType":"string","name":"dataType","type":"string"},{"indexed":false,"internalType":"uint256","name":"value","type":"uint256"}],"name":"EnvironmentalDataAdded","type":"event"},{"anonymous":false,"inputs":[{"indexed":true,"internalType":"address","name":"wallet","type":"address"}],"name":"OriginWalletRegistered","type":"event"},{"anonymous":false,"inputs":[{"indexed":true,"internalType":"address","name":"previousOwner","type":"address"},{"indexed":true,"internalType":"address","name":"newOwner","type":"address"}],"name":"OwnershipTransferred","type":"event"},{"anonymous":false,"inputs":[{"indexed":false,"internalType":"address","name":"account","type":"address"}],"name":"Paused","type":"event"},{"anonymous":false,"inputs":[{"indexed":true,"internalType":"address","name":"wallet","type":"address"},{"indexed":false,"internalType":"uint256","name":"privacyLevel","type":"uint256"}],"name":"PrivacyConfigUpdated","type":"event"},{"anonymous":false,"inputs":[{"indexed":true,"internalType":"address","name":"wallet","type":"address"},{"indexed":false,"internalType":"string","name":"reason","type":"string"}],"name":"SuspiciousActivityDetected","type":"event"},{"anonymous":false,"inputs":[{"indexed":true,"internalType":"address","name":"delegator","type":"address"},{"indexed":true,"internalType":"address","name":"delegate","type":"address"},{"indexed":false,"internalType":"uint256","name":"amount","type":"uint256"}],"name":"TrustDelegated","type":"event"},{"anonymous":false,"inputs":[{"indexed":true,"internalType":"address","name":"delegator","type":"address"},{"indexed":true,"internalType":"address","name":"delegate","type":"address"}],"name":"TrustDelegationRevoked","type":"event"},{"anonymous":false,"inputs":[{"indexed":true,"internalType":"address","name":"wallet","type":"address"},{"indexed":false,"internalType":"uint256","name":"baseScore","type":"uint256"},{"indexed":false,"internalType":"uint256","name":"effectiveScore","type":"uint256"}],"name":"TrustScoreUpdated","type":"event"},{"anonymous":false,"inputs":[{"indexed":false,"internalType":"address","name":"account","type":"address"}],"name":"Unpaused","type":"event"},{"anonymous":false,"inputs":[{"indexed":true,"internalType":"address","name":"validator","type":"address"}],"name":"ValidatorRegistered","type":"event"},{"anonymous":false,"inputs":[{"indexed":true,"internalType":"address","name":"validator","type":"address"}],"name":"ValidatorRemoved","type":"event"},{"inputs":[],"name":"DELEGATION_DECAY_RATE","outputs":[{"internalType":"uint256","name":"","type":"uint256"}],"stateMutability":"view","type":"function"},{"inputs":[],"name":"MAX_DELEGATION_DEPTH","outputs":[{"internalType":"uint256","name":"","type":"uint256"}],"stateMutability":"view","type":"function"},{"inputs":[],"name":"MAX_TRUST_SCORE","outputs":[{"internalType":"uint256","name":"","type":"uint256"}],"stateMutability":"view","type":"function"},{"inputs":[],"name":"MIN_TRUST_SCORE","outputs":[{"internalType":"uint256","name":"","type":"uint256"}],"stateMutability":"view","type":"function"},{"inputs":[{"internalType":"address","name":"wallet","type":"address"},{"internalType":"string","name":"dataType","type":"string"},{"internalType":"uint256","name":"value","type":"uint256"},{"internalType":"string","name":"location","type":"string"},{"internalType":"uint256","name":"confidence","type":"uint256"},{"internalType":"bytes","name":"signature","type":"bytes"}],"name":"addEnvironmentalData","outputs":[],"stateMutability":"nonpayable","type":"function"},{"inputs":[{"internalType":"address","name":"delegate","type":"address"},{"internalType":"uint256","name":"amount","type":"uint256"}],"name":"delegateTrust","outputs":[],"stateMutability":"nonpayable","type":"function"},{"inputs":[{"internalType":"address","name":"","type":"address"}],"name":"delegationCount","outputs":[{"internalType":"uint256","name":"","type":"uint256"}],"stateMutability":"view","type":"function"},{"inputs":[{"internalType":"address","name":"","type":"address"},{"internalType":"uint256","name":"","type":"uint256"}],"name":"delegations","outputs":[{"internalType":"address","name":"delegator","type":"address"},{"internalType":"address","name":"delegate","type":"address"},{"internalType":"uint256","name":"amount","type":"uint256"},{"internalType":"uint256","name":"timestamp","type":"uint256"},{"internalType":"bool","name":"isActive","type":"bool"},{"internalType":"uint256","name":"depth","type":"uint256"}],"stateMutability":"view","type":"function"},{"inputs":[{"internalType":"address","name":"","type":"address"},{"internalType":"uint256","name":"","type":"uint256"}],"name":"environmentalData","outputs":[{"internalType":"uint256","name":"timestamp","type":"uint256"},{"internalType":"string","name":"dataType","type":"string"},{"internalType":"uint256","name":"value","type":"uint256"},{"internalType":"string","name":"location","type":"string"},{"internalType":"uint256","name":"confidence","type":"uint256"},{"internalType":"bytes","name":"signature","type":"bytes"}],"stateMutability":"view","type":"function"},{"inputs":[{"internalType":"address","name":"","type":"address"}],"name":"environmentalDataCount","outputs":[{"internalType":"uint256","name":"","type":"uint256"}],"stateMutability":"view","type":"function"},{"inputs":[{"internalType":"address","name":"wallet","type":"address"}],"name":"getEnvironmentalData","outputs":[{"components":[{"internalType":"uint256","name":"timestamp","type":"uint256"},{"internalType":"string","name":"dataType","type":"string"},{"internalType":"uint256","name":"value","type":"uint256"},{"internalType":"string","name":"location","type":"string"},{"internalType":"uint256","name":"confidence","type":"uint256"},{"internalType":"bytes","name":"signature","type":"bytes"}],"internalType":"struct TrustEngine.EnvironmentalData[]","name":"","type":"tuple[]"}],"stateMutability":"view","type":"function"},{"inputs":[{"internalType":"address","name":"wallet","type":"address"}],"name":"getPrivacyConfig","outputs":[{"components":[{"internalType":"bool","name":"shareAnalytics","type":"bool"},{"internalType":"bool","name":"shareTopology","type":"bool"},{"internalType":"bool","name":"shareTrustScore","type":"bool"},{"internalType":"bool","name":"shareEnvironmentalData","type":"bool"},{"internalType":"uint256","name":"privacyLevel","type":"uint256"},{"internalType":"bool","name":"consentGiven","type":"bool"},{"internalType":"uint256","name":"consentTimestamp","type":"uint256"}],"internalType":"struct TrustEngine.PrivacyConfig","name":"","type":"tuple"}],"stateMutability":"view","type":"function"},{"inputs":[{"internalType":"address","name":"wallet","type":"address"}],"name":"getTrustDelegations","outputs":[{"components":[{"internalType":"address","name":"delegator","type":"address"},{"internalType":"address","name":"delegate","type":"address"},{"internalType":"uint256","name":"amount","type":"uint256"},{"internalType":"uint256","name":"timestamp","type":"uint256"},{"internalType":"bool","name":"isActive","type":"bool"},{"internalType":"uint256","name":"depth","type":"uint256"}],"internalType":"struct TrustEngine.TrustDelegation[]","name":"","type":"tuple[]"}],"stateMutability":"view","type":"function"},{"inputs":[{"internalType":"address","name":"wallet","type":"address"}],"name":"getTrustScore","outputs":[{"components":[{"internalType":"uint256","name":"baseScore","type":"uint256"},{"internalType":"uint256","name":"effectiveScore","type":"uint256"},{"internalType":"uint256","name":"reputation","type":"uint256"},{"internalType":"uint256","name":"stakeAmount","type":"uint256"},{"internalType":"uint256","name":"delegationDepth","type":"uint256"},{"internalType":"bool","name":"isOriginWallet","type":"bool"},{"internalType":"bool","name":"isValidator","type":"bool"},{"internalType":"uint256","name":"lastUpdate","type":"uint256"},{"internalType":"uint256","name":"environmentalScore","type":"uint256"},{"internalType":"uint256","name":"privacyScore","type":"uint256"}],"internalType":"struct TrustEngine.TrustScore","name":"","type":"tuple"}],"stateMutability":"view","type":"function"},{"inputs":[{"internalType":"address","name":"wallet","type":"address"}],"name":"getTrustScoreValue","outputs":[{"internalType":"uint256","name":"","type":"uint256"}],"stateMutability":"view","type":"function"},{"inputs":[{"internalType":"address","name":"","type":"address"}],"name":"hasTrustScore","outputs":[{"internalType":"bool","name":"","type":"bool"}],"stateMutability":"view","type":"function"},{"inputs":[{"internalType":"address","name":"wallet","type":"address"},{"internalType":"uint256","name":"baseScore","type":"uint256"},{"internalType":"bool","name":"isOrigin","type":"bool"}],"name":"initializeTrustScore","outputs":[],"stateMutability":"nonpayable","type":"function"},{"inputs":[{"internalType":"address","name":"wallet","type":"address"}],"name":"isOriginWallet","outputs":[{"internalType":"bool","name":"","type":"bool"}],"stateMutability":"view","type":"function"},{"inputs":[{"internalType":"address","name":"validator","type":"address"}],"name":"isValidator","outputs":[{"internalType":"bool","name":"","type":"bool"}],"stateMutability":"view","type":"function"},{"inputs":[{"internalType":"address","name":"","type":"address"}],"name":"lastUpdateTime","outputs":[{"internalType":"uint256","name":"","type":"uint256"}],"stateMutability":"view","type":"function"},{"inputs":[{"internalType":"address","name":"","type":"address"}],"name":"originWallets","outputs":[{"internalType":"bool","name":"","type":"bool"}],"stateMutability":"view","type":"function"},{"inputs":[],"name":"owner","outputs":[{"internalType":"address","name":"","type":"address"}],"stateMutability":"view","type":"function"},{"inputs":[],"name":"pause","outputs":[],"stateMutability":"nonpayable","type":"function"},{"inputs":[],"name":"paused","outputs":[{"internalType":"bool","name":"","type":"bool"}],"stateMutability":"view","type":"function"},{"inputs":[{"internalType":"address","name":"","type":"address"}],"name":"privacyConfigs","outputs":[{"internalType":"bool","name":"shareAnalytics","type":"bool"},{"internalType":"bool","name":"shareTopology","type":"bool"},{"internalType":"bool","name":"shareTrustScore","type":"bool"},{"internalType":"bool","name":"shareEnvironmentalData","type":"bool"},{"internalType":"uint256","name":"privacyLevel","type":"uint256"},{"internalType":"bool","name":"consentGiven","type":"bool"},{"internalType":"uint256","name":"consentTimestamp","type":"uint256"}],"stateMutability":"view","type":"function"},{"inputs":[{"internalType":"address","name":"validator","type":"address"}],"name":"registerValidator","outputs":[],"stateMutability":"nonpayable","type":"function"},{"inputs":[{"internalType":"address","name":"validator","type":"address"}],"name":"removeValidator","outputs":[],"stateMutability":"nonpayable","type":"function"},{"inputs":[],"name":"renounceOwnership","outputs":[],"stateMutability":"nonpayable","type":"function"},{"inputs":[{"internalType":"address","name":"delegate","type":"address"},{"internalType":"uint256","name":"delegationIndex","type":"uint256"}],"name":"revokeTrustDelegation","outputs":[],"stateMutability":"nonpayable","type":"function"},{"inputs":[{"internalType":"address","name":"wallet","type":"address"},{"internalType":"uint256","name":"frequency","type":"uint256"}],"name":"setUpdateFrequency","outputs":[],"stateMutability":"nonpayable","type":"function"},{"inputs":[{"internalType":"address","name":"","type":"address"}],"name":"suspiciousActivityCount","outputs":[{"internalType":"uint256","name":"","type":"uint256"}],"stateMutability":"view","type":"function"},{"inputs":[{"internalType":"address","name":"newOwner","type":"address"}],"name":"transferOwnership","outputs":[],"stateMutability":"nonpayable","type":"function"},{"inputs":[{"internalType":"address","name":"","type":"address"}],"name":"trustScores","outputs":[{"internalType":"uint256","name":"baseScore","type":"uint256"},{"internalType":"uint256","name":"effectiveScore","type":"uint256"},{"internalType":"uint256","name":"reputation","type":"uint256"},{"internalType":"uint256","name":"stakeAmount","type":"uint256"},{"internalType":"uint256","name":"delegationDepth","type":"uint256"},{"internalType":"bool","name":"isOriginWallet","type":"bool"},{"internalType":"bool","name":"isValidator","type":"bool"},{"internalType":"uint256","name":"lastUpdate","type":"uint256"},{"internalType":"uint256","name":"environmentalScore","type":"uint256"},{"internalType":"uint256","name":"privacyScore","type":"uint256"}],"stateMutability":"view","type":"function"},{"inputs":[],"name":"unpause","outputs":[],"stateMutability":"nonpayable","type":"function"},{"inputs":[{"internalType":"address","name":"","type":"address"}],"name":"updateFrequency","outputs":[{"internalType":"uint256","name":"","type":"uint256"}],"stateMutability":"view","type":"function"},{"inputs":[{"internalType":"bool","name":"shareAnalytics","type":"bool"},{"internalType":"bool","name":"shareTopology","type":"bool"},{"internalType":"bool","name":"shareTrustScore","type":"bool"},{"internalType":"bool","name":"shareEnvironmentalData","type":"bool"},{"internalType":"uint256","name":"privacyLevel","type":"uint256"}],"name":"updatePrivacyConfig","outputs":[],"stateMutability":"nonpayable","type":"function"},{"inputs":[{"internalType":"address","name":"wallet","type":"address"},{"internalType":"uint256","name":"newBaseScore","type":"uint256"},{"internalType":"uint256","name":"environmentalContribution","type":"uint256"},{"internalType":"uint256","name":"privacyCompliance","type":"uint256"}],"name":"updateTrustScore","outputs":[],"stateMutability":"nonpayable","type":"function"},{"inputs":[{"internalType":"address","name":"","type":"address"}],"name":"validators","outputs":[{"internalType":"bool","name":"","type":"bool"}],"stateMutability":"view","type":"function"}],"evm":{"bytecode":{"linkReferences":{},"object":"6080806040523461008b576001600081815581546001600160a81b0319811633600881811b610100600160a81b0316929092179094551c6001600160a01b0316907f8be0079c531659141344cd1fd0a4f28419497f9722a3daafe3b4186f6b6457e09080a360016002540160025533600052600d60205261012c6040600020556129ba90816100918239f35b600080fdfe608080604052600436101561001357600080fd5b60e0600035811c918263057e709c146123565750816312df0fc4146122b057816313bb6a9114612294578163223fae091461220257816329afd353146121d75781632ce9aead1461219d57816332412d8214611e1d5781633f4ba83a14611d895781633fa70f3414611d4f57816340a141ff14611c6e578163417914d5146118f657816345e97f80146118bc57816347937cce1461168d57816356ca0b78146114c057816358fb5218146114865781635b2ccd7c14610f775781635c975abb14610f545781635d793350146108115781635e09eea114610e555781636e548f2014610e16578163715018a614610db55781637257d17a14610cef57816374c8d37714610cd25781637969a71314610cb65781638456cb5914610c5d5781638da5cb5b14610c305781638ecdf7ea14610aab5781639fca516914610956578163bdea05e914610850578163bdf1631614610811578163c6ee59fc146106d1578163d7774f7d146103df578163f2fde38b1461030b578163f4310608146102d1578163f8d008131461024657508063fa52c7d814610207578063facd743b146102075763fec43acb146101c357600080fd5b34610202576040366003190112610202576101dc612370565b6101e46125c3565b6001600160a01b03166000908152600d602052604090206024359055005b600080fd5b34610202576020366003190112610202576001600160a01b03610228612370565b16600052600a602052602060ff604060002054166040519015158152f35b34610202576020366003190112610202576001600160a01b03610267612370565b1660005260096020526040600020805490600181015490600360ff6002830154169101549160ff6040519481811615158652818160081c1615156020870152818160101c161515604087015260181c16151560608501526080840152151560a083015260c0820152f35b34610202576020366003190112610202576001600160a01b036102f2612370565b16600052600e6020526020604060002054604051908152f35b3461020257602036600319011261020257610324612370565b61032c6125c3565b6001600160a01b0381811691821561038b5760018054610100600160a81b03198116600893841b610100600160a81b031617909155901c167f8be0079c531659141344cd1fd0a4f28419497f9722a3daafe3b4186f6b6457e0600080a3005b60405162461bcd60e51b815260206004820152602660248201527f4f776e61626c653a206e6577206f776e657220697320746865207a65726f206160448201526564647265737360d01b6064820152608490fd5b346102025760a03660031901126102025760043580151580910361020257602490813590811515809203610202576104156123b8565b926064359384151580950361020257608435946104306126d1565b6001861015806106c6575b15610677576040519361044d85612400565b84526020840194855260408401911515825260608401908152608084019186835260a0850160018152600360c087014281523360005260096020526105076040600020936104aa8a511515869060ff801983541691151516179055565b8a51855461ff00191690151560081b61ff001617855585511515855462ff000063ff0000008a51151560181b169260101b169063ffff000019161717855587516001860155511515600285019060ff801983541691151516179055565b51910155600460205260ff6040600020541661054d575b866040519081527fc93c11ad06ee16be9628da955f88c0211fe5413de6b9def703f50ed8e0a7288f60203392a2005b60036020526040600020956064955161066e575b51610646575b5161061e575b516105f6575b51600381036105d65750601482018092116105c257505b60648111156105bd575060645b600882015560016105af6105aa8361277d565b61288f565b91015581808080808061051e565b610597565b634e487b7160e01b60009081526011600452fd5b6002146105e4575b5061058a565b600a82018092116105c25750836105de565b9160181981019081116106095791610573565b50634e487b7160e01b60009081526011600452fd5b926013198101908111610631579261056d565b82634e487b7160e01b60005260116004526000fd5b93600e1981019081116106595793610567565b83634e487b7160e01b60005260116004526000fd5b605a9550610561565b60405162461bcd60e51b8152602060048201526022818501527f5472757374456e67696e653a20496e76616c69642070726976616379206c6576604482015261195b60f21b6064820152608490fd5b50600386111561043b565b3461020257602080600319360112610202576001600160a01b0390816106f5612370565b16600052600590818152604060002090815461071081612857565b9361071e604051958661241c565b81855260009384528284208386019491855b8484106107af57505050505060405192818401908285525180915260408401929160005b8281106107615785850386f35b835180518816865280830151881686840152604080820151908701526060808201519087015260808082015115159087015260a0908101519086015260c09094019392810192600101610754565b60068660019260409a989a516107c4816123c7565b8c87541681528c858801541683820152600287015460408201526003870154606082015260ff600488015416151560808201528587015460a0820152815201930193019291969496610730565b34610202576020366003190112610202576001600160a01b03610832612370565b16600052600b602052602060ff604060002054166040519015158152f35b3461020257602036600319011261020257610869612370565b600060c060405161087981612400565b8281528260208201528260408201528260608201528260808201528260a0820152015260018060a01b0316600052600960205260406000206040516108bd81612400565b81549160ff8316151592838352602083019060ff8160081c16151582526040840160ff8260101c161515815260ff606086019260181c16151582526001840154926080860193845260c0600360ff6002880154169660a0890197151588520154960195865260405196875251151560208701525115156040860152511515606085015251608084015251151560a08301525160c0820152f35b346102025760208060031936011261020257610970612370565b6109786125c3565b6109806126d1565b6001600160a01b0316600081815260048352604090205490919060ff1615610a525781600052600a815260ff60406000205416610a0f5760039082600052600a81526040600020600160ff1982541617905552600560406000200161010061ff00198254161790557fd09501348473474a20c772c79c653e1fd7e8b437e418fe235d277d2c88853251600080a2005b6064906040519062461bcd60e51b825280600483015260248201527f5472757374456e67696e653a20416c726561647920612076616c696461746f726044820152fd5b6084906040519062461bcd60e51b82526004820152602c60248201527f5472757374456e67696e653a2056616c696461746f72206d757374206861766560448201526b2074727573742073636f726560a01b6064820152fd5b3461020257602080600319360112610202576001600160a01b03610acd612370565b1660005260078152604060002090815491610ae783612857565b92610af5604051948561241c565b8084528284018092600052836000206000915b838310610bc15750505050604051918083019381845251809452604083019360408160051b85010192916000955b828710610b435785850386f35b909192938280610bb1600193603f198a8203018652885180518252610b94610b778583015160c08088870152850190612583565b604083015160408501526060808401519085830390860152612583565b916080808301519082015260a08092015191818403910152612583565b9601920196019592919092610b36565b600686600192604099989951610bd6816123c7565b85548152610be58587016124dd565b8382015260028601546040820152610bff600387016124dd565b606082015260048601546080820152610c1a600587016124dd565b60a0820152815201920192019190959495610b08565b346102025760003660031901126102025760015460405160089190911c6001600160a01b03168152602090f35b3461020257600036600319011261020257610c766125c3565b610c7e6126d1565b600160ff19815416176001557f62e78cea01bee320cd4e420270b5ea74000d11b0c9f74754ebdbfc544b05a2586020604051338152a1005b3461020257600036600319011261020257602060405160058152f35b346102025760003660031901126102025760206040516103e88152f35b3461020257604036600319011261020257610d08612370565b6001600160a01b0316600090815260076020526040902080546024359081101561020257610d3591612386565b508054610db1610d47600184016124dd565b926002810154610d9e610d5c600384016124dd565b91610d6e6005600486015495016124dd565b92610d8b604051988998895260c060208a015260c0890190612583565b9160408801528682036060880152612583565b91608085015283820360a0850152612583565b0390f35b3461020257600036600319011261020257610dce6125c3565b60018054610100600160a81b0319811690915560009060081c6001600160a01b03167f8be0079c531659141344cd1fd0a4f28419497f9722a3daafe3b4186f6b6457e08280a3005b34610202576020366003190112610202576001600160a01b03610e37612370565b166000526004602052602060ff604060002054166040519015158152f35b346102025760208060031936011261020257600061014092610e75612370565b9060405191610e83836123e3565b83835283858401528360408401528360608401528360808401528360a08401528360c0840152838284015261010090848285015261012094858095015260018060a01b03168060005260048652610ee160ff60406000205416612715565b60005260038552610ef5604060002061277d565b916040519583518752808401519087015260408301516040870152606083015160608701526080830151608087015260a0830151151560a087015260c0830151151560c087015280830151908601528082015190850152015190820152f35b3461020257600036600319011261020257602060ff600154166040519015158152f35b346102025760c036600319011261020257610f90612370565b60249067ffffffffffffffff90823582811161020257610fb4903690600401612485565b9160643581811161020257610fcd903690600401612485565b9060a435818111610202573660238201121561020257610ff6903690878160040135910161243e565b9133600052602093600a855261101360ff6040600020541661261e565b61101b6126d1565b60018060a01b031695866000526004855261103d60ff60406000205416612715565b60843560648111611444578451156113eb576040519061105c826123c7565b42825286820193888552604083016044358152606084019182526080840192835260a084019788528a600052600789526040600020958654600160401b8110156113c1576110b1906001988982018155612386565b9590956113d6575185555180518881116113c15780888701926110de826110d886546124a3565b86612803565b8c90601f831160011461135257600092611347575b5050600019600383901b1c191690881b1790555b5160028401555180518681116113325760038401916111308261112a85546124a3565b85612803565b8990601f83116001146112c85760059594939291600091836112bd575b5050600019600383901b1c191690871b1790555b5160048201550193519081519384116112a95750611183836110d886546124a3565b8490601f841160011461121c5792807f8408447970dcf8c9a0df3798550966e2211febe63ba8914a95ba2c05e7fd79b997959381936112049896600094611211575b50501b916000199060031b1c19161790555b846000526008815260406000206111ee81546127f4565b9055604051928392604084526040840190612583565b90604435908301520390a2005b015192508a806111c5565b90601f9392931983169185600052866000209260005b81811061129457509161120497959391857f8408447970dcf8c9a0df3798550966e2211febe63ba8914a95ba2c05e7fd79b99a9896941061127b575b505050811b0190556111d7565b015160001960f88460031b161c1916905588808061126e565b82840151855593860193928801928801611232565b634e487b7160e01b60009081526041600452fd5b015190508d8061114d565b949392918791836000528b600020908c6000601f198516915b82821061131b575050978360059910611302575b505050811b019055611161565b015160001960f88460031b161c191690558d80806112f5565b838b015185558c969094019392830192018e6112e1565b84634e487b7160e01b60005260416004526000fd5b015190508e806110f3565b8a9350908d918560005282600020926000601f198616915b8282106113a05750508411611387575b505050811b019055611107565b015160001960f88460031b161c191690558e808061137a565b91929395968291958786015181550195019301908f918d969594939261136a565b86634e487b7160e01b60005260416004526000fd5b86634e487b7160e01b60005260006004526000fd5b60405162461bcd60e51b815260048101879052602c818401527f5472757374456e67696e653a20496e76616c696420656e7669726f6e6d656e7460448201526b616c207369676e617475726560a01b6064820152608490fd5b606482876040519162461bcd60e51b83528160048401528201527f5472757374456e67696e653a20436f6e666964656e636520746f6f20686967686044820152fd5b34610202576020366003190112610202576001600160a01b036114a7612370565b1660005260066020526020604060002054604051908152f35b34610202576040366003190112610202576114d9612370565b6024356114e46126d1565b336000526020906005825260406000205481101561163a576115129033600052600583526040600020612386565b5060018101546001600160a01b0393841693168390036115f557600401805460ff81161561159f5760ff19169055816000526004815260ff6040600020541661157f575b50337f5145eb55dda20f7829838af8f45d7e416f925a24ccc15ad0c788fb26a84a0e95600080a3005b60039052604060002060016115966105aa8361277d565b91015581611556565b60405162461bcd60e51b815260048101849052602860248201527f5472757374456e67696e653a2044656c65676174696f6e20616c726561647920604482015267696e61637469766560c01b6064820152608490fd5b60405162461bcd60e51b815260048101839052601e60248201527f5472757374456e67696e653a2044656c6567617465206d69736d6174636800006044820152606490fd5b60405162461bcd60e51b815260048101839052602560248201527f5472757374456e67696e653a20496e76616c69642064656c65676174696f6e206044820152640d2dcc8caf60db1b6064820152608490fd5b34610202576060366003190112610202576116a6612370565b6024356116b16123b8565b33600052602092600a84526116cd60ff6040600020541661261e565b6116d56126d1565b6001600160a01b0316600081815260048552604090205490949060ff1661186757917f15dd57e0cde9af9083c846eb39c9da382e907c0036818e4a163ecd167e5f327693916117e86008876040966117316103e8871115612686565b868851948592611740846123e3565b888452828401908982528b850160648152606086016000815260808701916000835260a08801948c15158652600360c08a0195600087528a0198428a526101206101008c019b60008d52019b60648d52600052528f6000209b518c555160018c01555160028b01555160038a01555160048901556117d16005890192511515839060ff801983541691151516179055565b51815461ff00191690151560081b61ff0016179055565b5160068501555160078401555191015560048352836000209060ff1991600183825416179055600c845242856000205561182a575b50825191818352820152a2005b600b835260018460002091825416179055847f16a1cd0d9e1fef7e89de328c38bbf39f5265d55372dece48a9438f6f5bbb87a2600080a28561181d565b60405162461bcd60e51b815260048101859052602760248201527f5472757374456e67696e653a2054727573742073636f726520616c72656164796044820152662065786973747360c81b6064820152608490fd5b34610202576020366003190112610202576001600160a01b036118dd612370565b16600052600d6020526020604060002054604051908152f35b346102025760803660031901126102025761190f612370565b6024356044359160649384359033600052602092600a845261193860ff6040600020541661261e565b6119406126d1565b60018060a01b031695866000526004845261196260ff60406000205416612715565b86600052600c8452611983604060002054600d865260406000205490612770565b4210611c2c576119976103e8861115612686565b808611611bd757808311611b885750856000526004835260ff60406000205416611a2c575b50604092917f15dd57e0cde9af9083c846eb39c9da382e907c0036818e4a163ecd167e5f3276946001928760005260038352856000209185835560078301556008820155426006820155600c8252428560002055611a1c6105aa8261277d565b92839101558351928352820152a2005b90929160038152611a40604060002061277d565b948551948560011b9580870460021490151715611b7257603c611a936001957f15dd57e0cde9af9083c846eb39c9da382e907c0036818e4a163ecd167e5f3276996040998911611b09575b015142612882565b10611aa4575b9250945091926119bc565b87600052600e835285600020611aba81546127f4565b9055877f3fdeea3275f7d2907f5b589f76bea42ede0236c2646b61eaace386b41c44972d606088518681526010878201526f4672657175656e74207570646174657360801b8a820152a2611a99565b8b600052600e875289600020611b1f81546127f4565b90558b7f3fdeea3275f7d2907f5b589f76bea42ede0236c2646b61eaace386b41c44972d60608c518a815260148b8201527352617069642073636f726520696e63726561736560601b8e820152a2611a8b565b634e487b7160e01b600052601160045260246000fd5b83620d2ced60eb1b6084926040519262461bcd60e51b84526004840152602360248401527f5472757374456e67696e653a20507269766163792073636f726520746f6f20686044840152820152fd5b8368040e8dede40d0d2ced60bb1b6084926040519262461bcd60e51b84526004840152602960248401527f5472757374456e67696e653a20456e7669726f6e6d656e74616c2073636f72656044840152820152fd5b60405162461bcd60e51b815260048101859052602481018590527f5472757374456e67696e653a2055706461746520746f6f206672657175656e746044820152fd5b3461020257602036600319011261020257611c87612370565b611c8f6125c3565b611c976126d1565b6001600160a01b03166000818152600a602052604090205460ff1615611d0a5780600052600a602052604060002060ff1981541690556003602052600560406000200161ff001981541690557fe1434e25d6611e0db941968fdc97811c982ac1602e951637d206f5fdda9dd8f1600080a2005b60405162461bcd60e51b815260206004820152601c60248201527f5472757374456e67696e653a204e6f7420612076616c696461746f72000000006044820152606490fd5b34610202576020366003190112610202576001600160a01b03611d70612370565b1660005260086020526020604060002054604051908152f35b3461020257600036600319011261020257611da26125c3565b60015460ff811615611de15760ff19166001557f5db9ee0a495bf2e6ff9c91a7834c1ba4fdd244a5e8aa4e537bd38aeae4b073aa6020604051338152a1005b60405162461bcd60e51b815260206004820152601460248201527314185d5cd8589b194e881b9bdd081c185d5cd95960621b6044820152606490fd5b3461020257604036600319011261020257611e36612370565b611e3e6126d1565b336000526004602052611e5860ff60406000205416612715565b6001600160a01b038116600090815260046020526040902054611e7d9060ff16612715565b6001600160a01b038116331461214c57602435156120ef57336000526006602052600a60406000205410156120a05760036020526001600160a01b038116600090815260409020600481015460058110156120455760018101809111611b7257604051611ee9816123c7565b338152602081019060018060a01b038516825260408101906024358252606081019242845260808201946001865260a083015233600052600560205260406000208054600160401b81101561202f57611f4791600182018155612386565b95909561201957825186546001600160a01b039182166001600160a01b031991821617885592516001880180549190921693169290921790915591516002850155915160038401555160048301805460ff191691151560ff1691909117905560059060a001519101553360005260066020526040600020611fc881546127f4565b90556001611fd86105aa8361277d565b91015560405160243581526001600160a01b039091169033907fb58a34790b02732ce9546bed68ef7d135420000706c11f509044f1a0ebdba83b90602090a3005b634e487b7160e01b600052600060045260246000fd5b634e487b7160e01b600052604160045260246000fd5b60405162461bcd60e51b815260206004820152602d60248201527f5472757374456e67696e653a2044656c6567617465206174206d61782064656c60448201526c0cacec2e8d2dedc40c8cae0e8d609b1b6064820152608490fd5b60405162461bcd60e51b815260206004820152602160248201527f5472757374456e67696e653a20546f6f206d616e792064656c65676174696f6e6044820152607360f81b6064820152608490fd5b60405162461bcd60e51b815260206004820152602f60248201527f5472757374456e67696e653a2044656c65676174696f6e20616d6f756e74206d60448201526e75737420626520706f73697469766560881b6064820152608490fd5b60405162461bcd60e51b8152602060048201526024808201527f5472757374456e67696e653a2043616e6e6f742064656c656761746520746f2060448201526339b2b63360e11b6064820152608490fd5b34610202576020366003190112610202576001600160a01b036121be612370565b16600052600c6020526020604060002054604051908152f35b346102025760203660031901126102025760206121fa6121f5612370565b61294e565b604051908152f35b346102025760403660031901126102025761221b612370565b6024359060018060a01b038091166000526005602052604060002080548310156102025760c09261224b91612386565b508181541691600182015416906002810154600382015490600560ff600485015416930154936040519586526020860152604085015260608401521515608083015260a0820152f35b34610202576000366003190112610202576020604051600a8152f35b3461020257602036600319011261020257610140906001600160a01b036122d5612370565b16600052600360205260406000209081549160018101549160028201549060ff6003840154600485015460058601549160068701549560086007890154980154986040519a8b5260208b015260408a015260608901526080880152818116151560a088015260081c16151560c0860152840152610100830152610120820152f35b346102025760003660031901126102025780600060209252f35b600435906001600160a01b038216820361020257565b80548210156123a2576000526006602060002091020190600090565b634e487b7160e01b600052603260045260246000fd5b60443590811515820361020257565b60c0810190811067ffffffffffffffff82111761202f57604052565b610140810190811067ffffffffffffffff82111761202f57604052565b60e0810190811067ffffffffffffffff82111761202f57604052565b90601f8019910116810190811067ffffffffffffffff82111761202f57604052565b92919267ffffffffffffffff821161202f5760405191612468601f8201601f19166020018461241c565b829481845281830111610202578281602093846000960137010152565b9080601f83011215610202578160206124a09335910161243e565b90565b90600182811c921680156124d3575b60208310146124bd57565b634e487b7160e01b600052602260045260246000fd5b91607f16916124b2565b90604051918260008254926124f1846124a3565b908184526001948581169081600014612560575060011461251d575b505061251b9250038361241c565b565b9093915060005260209081600020936000915b81831061254857505061251b9350820101388061250d565b85548884018501529485019487945091830191612530565b91505061251b94506020925060ff191682840152151560051b820101388061250d565b919082519283825260005b8481106125af575050826000602080949584010152601f8019910116010190565b60208183018101518483018201520161258e565b60015460081c6001600160a01b031633036125da57565b606460405162461bcd60e51b815260206004820152602060248201527f4f776e61626c653a2063616c6c6572206973206e6f7420746865206f776e65726044820152fd5b1561262557565b60405162461bcd60e51b815260206004820152603360248201527f5472757374456e67696e653a204f6e6c792076616c696461746f72732063616e6044820152721031b0b636103a3434b990333ab731ba34b7b760691b6064820152608490fd5b1561268d57565b606460405162461bcd60e51b815260206004820152602060248201527f5472757374456e67696e653a20426173652073636f726520746f6f20686967686044820152fd5b60ff600154166126dd57565b60405162461bcd60e51b815260206004820152601060248201526f14185d5cd8589b194e881c185d5cd95960821b6044820152606490fd5b1561271c57565b60405162461bcd60e51b815260206004820152602660248201527f5472757374456e67696e653a2057616c6c657420686173206e6f2074727573746044820152652073636f726560d01b6064820152608490fd5b91908201809211611b7257565b9060405161278a816123e3565b61012060088294805484526001810154602085015260028101546040850152600381015460608501526004810154608085015260ff6005820154818116151560a0870152831c16151560c0850152600681015460e085015260078101546101008501520154910152565b6000198114611b725760010190565b90601f811161281157505050565b600091825260208220906020601f850160051c8301941061284d575b601f0160051c01915b82811061284257505050565b818155600101612836565b909250829061282d565b67ffffffffffffffff811161202f5760051b60200190565b81810292918115918404141715611b7257565b91908203918211611b7257565b60646128a1825160408401519061286f565b04610100820151600581029080820460051490151715611b72576128c491612770565b610120820151908160011b9180830460021490151715611b72576080916128ea91612770565b91018051612907575b506103e8808211612902575090565b905090565b600a820290828204600a1483151715611b72576103e89161292991519061286f565b04600091818111600014612947576129419250612882565b386128f3565b5050612941565b6001600160a01b031660009081526004602052604090205460ff161561297f57600360205260016040600020015490565b60009056fea264697066735822122090b00dfee5cfd7bab5d3e8909e8ce1161515c2f7e136c7cb31d11a3ae130b8d064736f6c63430008130033","opcodes":"PUSH1 0x80 DUP1 PUSH1 0x40 MSTORE CALLVALUE PUSH2 0x8B JUMPI PUSH1 0x1 PUSH1 0x0 DUP2 DUP2 SSTORE DUP2 SLOAD PUSH1 0x1 PUSH1 0x1 PUSH1 0xA8 SHL SUB NOT DUP2 AND CALLER PUSH1 0x8 DUP2 DUP2 SHL PUSH2 0x100 PUSH1 0x1 PUSH1 0xA8 SHL SUB AND SWAP3 SWAP1 SWAP3 OR SWAP1 SWAP5 SSTORE SHR PUSH1 0x1 PUSH1 0x1 PUSH1 0xA0 SHL SUB AND SWAP1 PUSH32 0x8BE0079C531659141344CD1FD0A4F28419497F9722A3DAAFE3B4186F6B6457E0 SWAP1 DUP1 LOG3 PUSH1 0x1 PUSH1 0x2 SLOAD ADD PUSH1 0x2 SSTORE CALLER PUSH1 0x0 MSTORE PUSH1 0xD PUSH1 0x20 MSTORE PUSH2 0x12C PUSH1 0x40 PUSH1 0x0 KECCAK256 SSTORE PUSH2 0x29BA SWAP1 DUP2 PUSH2 0x91 DUP3 CODECOPY RETURN JUMPDEST PUSH1 0x0 DUP1 REVERT INVALID PUSH1 0x80 DUP1 PUSH1 0x40 MSTORE PUSH1 0x4 CALLDATASIZE LT ISZERO PUSH2 0x13 JUMPI PUSH1 0x0 DUP1 REVERT JUMPDEST PUSH1 0xE0 PUSH1 0x0 CALLDATALOAD DUP2 SHR SWAP2 DUP3 PUSH4 0x57E709C EQ PUSH2 0x2356 JUMPI POP DUP2 PUSH4 0x12DF0FC4 EQ PUSH2 0x22B0 JUMPI DUP2 PUSH4 0x13BB6A91 EQ PUSH2 0x2294 JUMPI DUP2 PUSH4 0x223FAE09 EQ PUSH2 0x2202 JUMPI DUP2 PUSH4 0x29AFD353 EQ PUSH2 0x21D7 JUMPI DUP2 PUSH4 0x2CE9AEAD EQ PUSH2 0x219D JUMPI DUP2 PUSH4 0x32412D82 EQ PUSH2 0x1E1D JUMPI DUP2 PUSH4 0x3F4BA83A EQ PUSH2 0x1D89 JUMPI DUP2 PUSH4 0x3FA70F34 EQ PUSH2 0x1D4F JUMPI DUP2 PUSH4 0x40A141FF EQ PUSH2 0x1C6E JUMPI DUP2 PUSH4 0x417914D5 EQ PUSH2 0x18F6 JUMPI DUP2 PUSH4 0x45E97F80 EQ PUSH2 0x18BC JUMPI DUP2 PUSH4 0x47937CCE EQ PUSH2 0x168D JUMPI DUP2 PUSH4 0x56CA0B78 EQ PUSH2 0x14C0 JUMPI DUP2 PUSH4 0x58FB5218 EQ PUSH2 0x1486 JUMPI DUP2 PUSH4 0x5B2CCD7C EQ PUSH2 0xF77 JUMPI DUP2 PUSH4 0x5C975ABB EQ PUSH2 0xF54 JUMPI DUP2 PUSH4 0x5D793350 EQ PUSH2 0x811 JUMPI DUP2 PUSH4 0x5E09EEA1 EQ PUSH2 0xE55 JUMPI DUP2 PUSH4 0x6E548F20 EQ PUSH2 0xE16 JUMPI DUP2 PUSH4 0x715018A6 EQ PUSH2 0xDB5 JUMPI DUP2 PUSH4 0x7257D17A EQ PUSH2 0xCEF JUMPI DUP2 PUSH4 0x74C8D377 EQ PUSH2 0xCD2 JUMPI DUP2 PUSH4 0x7969A713 EQ PUSH2 0xCB6 JUMPI DUP2 PUSH4 0x8456CB59 EQ PUSH2 0xC5D JUMPI DUP2 PUSH4 0x8DA5CB5B EQ PUSH2 0xC30 JUMPI DUP2 PUSH4 0x8ECDF7EA EQ PUSH2 0xAAB JUMPI DUP2 PUSH4 0x9FCA5169 EQ PUSH2 0x956 JUMPI DUP2 PUSH4 0xBDEA05E9 EQ PUSH2 0x850 JUMPI DUP2 PUSH4 0xBDF16316 EQ PUSH2 0x811 JUMPI DUP2 PUSH4 0xC6EE59FC EQ PUSH2 0x6D1 JUMPI DUP2 PUSH4 0xD7774F7D EQ PUSH2 0x3DF JUMPI DUP2 PUSH4 0xF2FDE38B EQ PUSH2 0x30B JUMPI DUP2 PUSH4 0xF4310608 EQ PUSH2 0x2D1 JUMPI DUP2 PUSH4 0xF8D00813 EQ PUSH2 0x246 JUMPI POP DUP1 PUSH4 0xFA52C7D8 EQ PUSH2 0x207 JUMPI DUP1 PUSH4 0xFACD743B EQ PUSH2 0x207 JUMPI PUSH4 0xFEC43ACB EQ PUSH2 0x1C3 JUMPI PUSH1 0x0 DUP1 REVERT JUMPDEST CALLVALUE PUSH2 0x202 JUMPI PUSH1 0x40 CALLDATASIZE PUSH1 0x3 NOT ADD SLT PUSH2 0x202 JUMPI PUSH2 0x1DC PUSH2 0x2370 JUMP JUMPDEST PUSH2 0x1E4 PUSH2 0x25C3 JUMP JUMPDEST PUSH1 0x1 PUSH1 0x1 PUSH1 0xA0 SHL SUB AND PUSH1 0x0 SWAP1 DUP2 MSTORE PUSH1 0xD PUSH1 0x20 MSTORE PUSH1 0x40 SWAP1 KECCAK256 PUSH1 0x24 CALLDATALOAD SWAP1 SSTORE STOP JUMPDEST PUSH1 0x0 DUP1 REVERT JUMPDEST CALLVALUE PUSH2 0x202 JUMPI PUSH1 0x20 CALLDATASIZE PUSH1 0x3 NOT ADD SLT PUSH2 0x202 JUMPI PUSH1 0x1 PUSH1 0x1 PUSH1 0xA0 SHL SUB PUSH2 0x228 PUSH2 0x2370 JUMP JUMPDEST AND PUSH1 0x0 MSTORE PUSH1 0xA PUSH1 0x20 MSTORE PUSH1 0x20 PUSH1 0xFF PUSH1 0x40 PUSH1 0x0 KECCAK256 SLOAD AND PUSH1 0x40 MLOAD SWAP1 ISZERO ISZERO DUP2 MSTORE RETURN JUMPDEST CALLVALUE PUSH2 0x202 JUMPI PUSH1 0x20 CALLDATASIZE PUSH1 0x3 NOT ADD SLT PUSH2 0x202 JUMPI PUSH1 0x1 PUSH1 0x1 PUSH1 0xA0 SHL SUB PUSH2 0x267 PUSH2 0x2370 JUMP JUMPDEST AND PUSH1 0x0 MSTORE PUSH1 0x9 PUSH1 0x20 MSTORE PUSH1 0x40 PUSH1 0x0 KECCAK256 DUP1 SLOAD SWAP1 PUSH1 0x1 DUP2 ADD SLOAD SWAP1 PUSH1 0x3 PUSH1 0xFF PUSH1 0x2 DUP4 ADD SLOAD AND SWAP2 ADD SLOAD SWAP2 PUSH1 0xFF PUSH1 0x40 MLOAD SWAP5 DUP2 DUP2 AND ISZERO ISZERO DUP7 MSTORE DUP2 DUP2 PUSH1 0x8 SHR AND ISZERO ISZERO PUSH1 0x20 DUP8 ADD MSTORE DUP2 DUP2 PUSH1 0x10 SHR AND ISZERO ISZERO PUSH1 0x40 DUP8 ADD MSTORE PUSH1 0x18 SHR AND ISZERO ISZERO PUSH1 0x60 DUP6 ADD MSTORE PUSH1 0x80 DUP5 ADD MSTORE ISZERO ISZERO PUSH1 0xA0 DUP4 ADD MSTORE PUSH1 0xC0 DUP3 ADD MSTORE RETURN JUMPDEST CALLVALUE PUSH2 0x202 JUMPI PUSH1 0x20 CALLDATASIZE PUSH1 0x3 NOT ADD SLT PUSH2 0x202 JUMPI PUSH1 0x1 PUSH1 0x1 PUSH1 0xA0 SHL SUB PUSH2 0x2F2 PUSH2 0x2370 JUMP JUMPDEST AND PUSH1 0x0 MSTORE PUSH1 0xE PUSH1 0x20 MSTORE PUSH1 0x20 PUSH1 0x40 PUSH1 0x0 KECCAK256 SLOAD PUSH1 0x40 MLOAD SWAP1 DUP2 MSTORE RETURN JUMPDEST CALLVALUE PUSH2 0x202 JUMPI PUSH1 0x20 CALLDATASIZE PUSH1 0x3 NOT ADD SLT PUSH2 0x202 JUMPI PUSH2 0x324 PUSH2 0x2370 JUMP JUMPDEST PUSH2 0x32C PUSH2 0x25C3 JUMP JUMPDEST PUSH1 0x1 PUSH1 0x1 PUSH1 0xA0 SHL SUB DUP2 DUP2 AND SWAP2 DUP3 ISZERO PUSH2 0x38B JUMPI PUSH1 0x1 DUP1 SLOAD PUSH2 0x100 PUSH1 0x1 PUSH1 0xA8 SHL SUB NOT DUP2 AND PUSH1 0x8 SWAP4 DUP5 SHL PUSH2 0x100 PUSH1 0x1 PUSH1 0xA8 SHL SUB AND OR SWAP1 SWAP2 SSTORE SWAP1 SHR AND PUSH32 0x8BE0079C531659141344CD1FD0A4F28419497F9722A3DAAFE3B4186F6B6457E0 PUSH1 0x0 DUP1 LOG3 STOP JUMPDEST PUSH1 0x40 MLOAD PUSH3 0x461BCD PUSH1 0xE5 SHL DUP2 MSTORE PUSH1 0x20 PUSH1 0x4 DUP3 ADD MSTORE PUSH1 0x26 PUSH1 0x24 DUP3 ADD MSTORE PUSH32 0x4F776E61626C653A206E6577206F776E657220697320746865207A65726F2061 PUSH1 0x44 DUP3 ADD MSTORE PUSH6 0x646472657373 PUSH1 0xD0 SHL PUSH1 0x64 DUP3 ADD MSTORE PUSH1 0x84 SWAP1 REVERT JUMPDEST CALLVALUE PUSH2 0x202 JUMPI PUSH1 0xA0 CALLDATASIZE PUSH1 0x3 NOT ADD SLT PUSH2 0x202 JUMPI PUSH1 0x4 CALLDATALOAD DUP1 ISZERO ISZERO DUP1 SWAP2 SUB PUSH2 0x202 JUMPI PUSH1 0x24 SWAP1 DUP2 CALLDATALOAD SWAP1 DUP2 ISZERO ISZERO DUP1 SWAP3 SUB PUSH2 0x202 JUMPI PUSH2 0x415 PUSH2 0x23B8 JUMP JUMPDEST SWAP3 PUSH1 0x64 CALLDATALOAD SWAP4 DUP5 ISZERO ISZERO DUP1 SWAP6 SUB PUSH2 0x202 JUMPI PUSH1 0x84 CALLDATALOAD SWAP5 PUSH2 0x430 PUSH2 0x26D1 JUMP JUMPDEST PUSH1 0x1 DUP7 LT ISZERO DUP1 PUSH2 0x6C6 JUMPI JUMPDEST ISZERO PUSH2 0x677 JUMPI PUSH1 0x40 MLOAD SWAP4 PUSH2 0x44D DUP6 PUSH2 0x2400 JUMP JUMPDEST DUP5 MSTORE PUSH1 0x20 DUP5 ADD SWAP5 DUP6 MSTORE PUSH1 0x40 DUP5 ADD SWAP2 ISZERO ISZERO DUP3 MSTORE PUSH1 0x60 DUP5 ADD SWAP1 DUP2 MSTORE PUSH1 0x80 DUP5 ADD SWAP2 DUP7 DUP4 MSTORE PUSH1 0xA0 DUP6 ADD PUSH1 0x1 DUP2 MSTORE PUSH1 0x3 PUSH1 0xC0 DUP8 ADD TIMESTAMP DUP2 MSTORE CALLER PUSH1 0x0 MSTORE PUSH1 0x9 PUSH1 0x20 MSTORE PUSH2 0x507 PUSH1 0x40 PUSH1 0x0 KECCAK256 SWAP4 PUSH2 0x4AA DUP11 MLOAD ISZERO ISZERO DUP7 SWAP1 PUSH1 0xFF DUP1 NOT DUP4 SLOAD AND SWAP2 ISZERO ISZERO AND OR SWAP1 SSTORE JUMP JUMPDEST DUP11 MLOAD DUP6 SLOAD PUSH2 0xFF00 NOT AND SWAP1 ISZERO ISZERO PUSH1 0x8 SHL PUSH2 0xFF00 AND OR DUP6 SSTORE DUP6 MLOAD ISZERO ISZERO DUP6 SLOAD PUSH3 0xFF0000 PUSH4 0xFF000000 DUP11 MLOAD ISZERO ISZERO PUSH1 0x18 SHL AND SWAP3 PUSH1 0x10 SHL AND SWAP1 PUSH4 0xFFFF0000 NOT AND OR OR DUP6 SSTORE DUP8 MLOAD PUSH1 0x1 DUP7 ADD SSTORE MLOAD ISZERO ISZERO PUSH1 0x2 DUP6 ADD SWAP1 PUSH1 0xFF DUP1 NOT DUP4 SLOAD AND SWAP2 ISZERO ISZERO AND OR SWAP1 SSTORE JUMP JUMPDEST MLOAD SWAP2 ADD SSTORE PUSH1 0x4 PUSH1 0x20 MSTORE PUSH1 0xFF PUSH1 0x40 PUSH1 0x0 KECCAK256 SLOAD AND PUSH2 0x54D JUMPI JUMPDEST DUP7 PUSH1 0x40 MLOAD SWAP1 DUP2 MSTORE PUSH32 0xC93C11AD06EE16BE9628DA955F88C0211FE5413DE6B9DEF703F50ED8E0A7288F PUSH1 0x20 CALLER SWAP3 LOG2 STOP JUMPDEST PUSH1 0x3 PUSH1 0x20 MSTORE PUSH1 0x40 PUSH1 0x0 KECCAK256 SWAP6 PUSH1 0x64 SWAP6 MLOAD PUSH2 0x66E JUMPI JUMPDEST MLOAD PUSH2 0x646 JUMPI JUMPDEST MLOAD PUSH2 0x61E JUMPI JUMPDEST MLOAD PUSH2 0x5F6 JUMPI JUMPDEST MLOAD PUSH1 0x3 DUP2 SUB PUSH2 0x5D6 JUMPI POP PUSH1 0x14 DUP3 ADD DUP1 SWAP3 GT PUSH2 0x5C2 JUMPI POP JUMPDEST PUSH1 0x64 DUP2 GT ISZERO PUSH2 0x5BD JUMPI POP PUSH1 0x64 JUMPDEST PUSH1 0x8 DUP3 ADD SSTORE PUSH1 0x1 PUSH2 0x5AF PUSH2 0x5AA DUP4 PUSH2 0x277D JUMP JUMPDEST PUSH2 0x288F JUMP JUMPDEST SWAP2 ADD SSTORE DUP2 DUP1 DUP1 DUP1 DUP1 DUP1 PUSH2 0x51E JUMP JUMPDEST PUSH2 0x597 JUMP JUMPDEST PUSH4 0x4E487B71 PUSH1 0xE0 SHL PUSH1 0x0 SWAP1 DUP2 MSTORE PUSH1 0x11 PUSH1 0x4 MSTORE REVERT JUMPDEST PUSH1 0x2 EQ PUSH2 0x5E4 JUMPI JUMPDEST POP PUSH2 0x58A JUMP JUMPDEST PUSH1 0xA DUP3 ADD DUP1 SWAP3 GT PUSH2 0x5C2 JUMPI POP DUP4 PUSH2 0x5DE JUMP JUMPDEST SWAP2 PUSH1 0x18 NOT DUP2 ADD SWAP1 DUP2 GT PUSH2 0x609 JUMPI SWAP2 PUSH2 0x573 JUMP JUMPDEST POP PUSH4 0x4E487B71 PUSH1 0xE0 SHL PUSH1 0x0 SWAP1 DUP2 MSTORE PUSH1 0x11 PUSH1 0x4 MSTORE REVERT JUMPDEST SWAP3 PUSH1 0x13 NOT DUP2 ADD SWAP1 DUP2 GT PUSH2 0x631 JUMPI SWAP3 PUSH2 0x56D JUMP JUMPDEST DUP3 PUSH4 0x4E487B71 PUSH1 0xE0 SHL PUSH1 0x0 MSTORE PUSH1 0x11 PUSH1 0x4 MSTORE PUSH1 0x0 REVERT JUMPDEST SWAP4 PUSH1 0xE NOT DUP2 ADD SWAP1 DUP2 GT PUSH2 0x659 JUMPI SWAP4 PUSH2 0x567 JUMP JUMPDEST DUP4 PUSH4 0x4E487B71 PUSH1 0xE0 SHL PUSH1 0x0 MSTORE PUSH1 0x11 PUSH1 0x4 MSTORE PUSH1 0x0 REVERT JUMPDEST PUSH1 0x5A SWAP6 POP PUSH2 0x561 JUMP JUMPDEST PUSH1 0x40 MLOAD PUSH3 0x461BCD PUSH1 0xE5 SHL DUP2 MSTORE PUSH1 0x20 PUSH1 0x4 DUP3 ADD MSTORE PUSH1 0x22 DUP2 DUP6 ADD MSTORE PUSH32 0x5472757374456E67696E653A20496E76616C69642070726976616379206C6576 PUSH1 0x44 DUP3 ADD MSTORE PUSH2 0x195B PUSH1 0xF2 SHL PUSH1 0x64 DUP3 ADD MSTORE PUSH1 0x84 SWAP1 REVERT JUMPDEST POP PUSH1 0x3 DUP7 GT ISZERO PUSH2 0x43B JUMP JUMPDEST CALLVALUE PUSH2 0x202 JUMPI PUSH1 0x20 DUP1 PUSH1 0x3 NOT CALLDATASIZE ADD SLT PUSH2 0x202 JUMPI PUSH1 0x1 PUSH1 0x1 PUSH1 0xA0 SHL SUB SWAP1 DUP2 PUSH2 0x6F5 PUSH2 0x2370 JUMP JUMPDEST AND PUSH1 0x0 MSTORE PUSH1 0x5 SWAP1 DUP2 DUP2 MSTORE PUSH1 0x40 PUSH1 0x0 KECCAK256 SWAP1 DUP2 SLOAD PUSH2 0x710 DUP2 PUSH2 0x2857 JUMP JUMPDEST SWAP4 PUSH2 0x71E PUSH1 0x40 MLOAD SWAP6 DUP7 PUSH2 0x241C JUMP JUMPDEST DUP2 DUP6 MSTORE PUSH1 0x0 SWAP4 DUP5 MSTORE DUP3 DUP5 KECCAK256 DUP4 DUP7 ADD SWAP5 SWAP2 DUP6 JUMPDEST DUP5 DUP5 LT PUSH2 0x7AF JUMPI POP POP POP POP POP PUSH1 0x40 MLOAD SWAP3 DUP2 DUP5 ADD SWAP1 DUP3 DUP6 MSTORE MLOAD DUP1 SWAP2 MSTORE PUSH1 0x40 DUP5 ADD SWAP3 SWAP2 PUSH1 0x0 JUMPDEST DUP3 DUP2 LT PUSH2 0x761 JUMPI DUP6 DUP6 SUB DUP7 RETURN JUMPDEST DUP4 MLOAD DUP1 MLOAD DUP9 AND DUP7 MSTORE DUP1 DUP4 ADD MLOAD DUP9 AND DUP7 DUP5 ADD MSTORE PUSH1 0x40 DUP1 DUP3 ADD MLOAD SWAP1 DUP8 ADD MSTORE PUSH1 0x60 DUP1 DUP3 ADD MLOAD SWAP1 DUP8 ADD MSTORE PUSH1 0x80 DUP1 DUP3 ADD MLOAD ISZERO ISZERO SWAP1 DUP8 ADD MSTORE PUSH1 0xA0 SWAP1 DUP2 ADD MLOAD SWAP1 DUP7 ADD MSTORE PUSH1 0xC0 SWAP1 SWAP5 ADD SWAP4 SWAP3 DUP2 ADD SWAP3 PUSH1 0x1 ADD PUSH2 0x754 JUMP JUMPDEST PUSH1 0x6 DUP7 PUSH1 0x1 SWAP3 PUSH1 0x40 SWAP11 SWAP9 SWAP11 MLOAD PUSH2 0x7C4 DUP2 PUSH2 0x23C7 JUMP JUMPDEST DUP13 DUP8 SLOAD AND DUP2 MSTORE DUP13 DUP6 DUP9 ADD SLOAD AND DUP4 DUP3 ADD MSTORE PUSH1 0x2 DUP8 ADD SLOAD PUSH1 0x40 DUP3 ADD MSTORE PUSH1 0x3 DUP8 ADD SLOAD PUSH1 0x60 DUP3 ADD MSTORE PUSH1 0xFF PUSH1 0x4 DUP9 ADD SLOAD AND ISZERO ISZERO PUSH1 0x80 DUP3 ADD MSTORE DUP6 DUP8 ADD SLOAD PUSH1 0xA0 DUP3 ADD MSTORE DUP2 MSTORE ADD SWAP4 ADD SWAP4 ADD SWAP3 SWAP2 SWAP7 SWAP5 SWAP7 PUSH2 0x730 JUMP JUMPDEST CALLVALUE PUSH2 0x202 JUMPI PUSH1 0x20 CALLDATASIZE PUSH1 0x3 NOT ADD SLT PUSH2 0x202 JUMPI PUSH1 0x1 PUSH1 0x1 PUSH1 0xA0 SHL SUB PUSH2 0x832 PUSH2 0x2370 JUMP JUMPDEST AND PUSH1 0x0 MSTORE PUSH1 0xB PUSH1 0x20 MSTORE PUSH1 0x20 PUSH1 0xFF PUSH1 0x40 PUSH1 0x0 KECCAK256 SLOAD AND PUSH1 0x40 MLOAD SWAP1 ISZERO ISZERO DUP2 MSTORE RETURN JUMPDEST CALLVALUE PUSH2 0x202 JUMPI PUSH1 0x20 CALLDATASIZE PUSH1 0x3 NOT ADD SLT PUSH2 0x202 JUMPI PUSH2 0x869 PUSH2 0x2370 JUMP JUMPDEST PUSH1 0x0 PUSH1 0xC0 PUSH1 0x40 MLOAD PUSH2 0x879 DUP2 PUSH2 0x2400 JUMP JUMPDEST DUP3 DUP2 MSTORE DUP3 PUSH1 0x20 DUP3 ADD MSTORE DUP3 PUSH1 0x40 DUP3 ADD MSTORE DUP3 PUSH1 0x60 DUP3 ADD MSTORE DUP3 PUSH1 0x80 DUP3 ADD MSTORE DUP3 PUSH1 0xA0 DUP3 ADD MSTORE ADD MSTORE PUSH1 0x1 DUP1 PUSH1 0xA0 SHL SUB AND PUSH1 0x0 MSTORE PUSH1 0x9 PUSH1 0x20 MSTORE PUSH1 0x40 PUSH1 0x0 KECCAK256 PUSH1 0x40 MLOAD PUSH2 0x8BD DUP2 PUSH2 0x2400 JUMP JUMPDEST DUP2 SLOAD SWAP2 PUSH1 0xFF DUP4 AND ISZERO ISZERO SWAP3 DUP4 DUP4 MSTORE PUSH1 0x20 DUP4 ADD SWAP1 PUSH1 0xFF DUP2 PUSH1 0x8 SHR AND ISZERO ISZERO DUP3 MSTORE PUSH1 0x40 DUP5 ADD PUSH1 0xFF DUP3 PUSH1 0x10 SHR AND ISZERO ISZERO DUP2 MSTORE PUSH1 0xFF PUSH1 0x60 DUP7 ADD SWAP3 PUSH1 0x18 SHR AND ISZERO ISZERO DUP3 MSTORE PUSH1 0x1 DUP5 ADD SLOAD SWAP3 PUSH1 0x80 DUP7 ADD SWAP4 DUP5 MSTORE PUSH1 0xC0 PUSH1 0x3 PUSH1 0xFF PUSH1 0x2 DUP9 ADD SLOAD AND SWAP7 PUSH1 0xA0 DUP10 ADD SWAP8 ISZERO ISZERO DUP9 MSTORE ADD SLOAD SWAP7 ADD SWAP6 DUP7 MSTORE PUSH1 0x40 MLOAD SWAP7 DUP8 MSTORE MLOAD ISZERO ISZERO PUSH1 0x20 DUP8 ADD MSTORE MLOAD ISZERO ISZERO PUSH1 0x40 DUP7 ADD MSTORE MLOAD ISZERO ISZERO PUSH1 0x60 DUP6 ADD MSTORE MLOAD PUSH1 0x80 DUP5 ADD MSTORE MLOAD ISZERO ISZERO PUSH1 0xA0 DUP4 ADD MSTORE MLOAD PUSH1 0xC0 DUP3 ADD MSTORE RETURN JUMPDEST CALLVALUE PUSH2 0x202 JUMPI PUSH1 0x20 DUP1 PUSH1 0x3 NOT CALLDATASIZE ADD SLT PUSH2 0x202 JUMPI PUSH2 0x970 PUSH2 0x2370 JUMP JUMPDEST PUSH2 0x978 PUSH2 0x25C3 JUMP JUMPDEST PUSH2 0x980 PUSH2 0x26D1 JUMP JUMPDEST PUSH1 0x1 PUSH1 0x1 PUSH1 0xA0 SHL SUB AND PUSH1 0x0 DUP2 DUP2 MSTORE PUSH1 0x4 DUP4 MSTORE PUSH1 0x40 SWAP1 KECCAK256 SLOAD SWAP1 SWAP2 SWAP1 PUSH1 0xFF AND ISZERO PUSH2 0xA52 JUMPI DUP2 PUSH1 0x0 MSTORE PUSH1 0xA DUP2 MSTORE PUSH1 0xFF PUSH1 0x40 PUSH1 0x0 KECCAK256 SLOAD AND PUSH2 0xA0F JUMPI PUSH1 0x3 SWAP1 DUP3 PUSH1 0x0 MSTORE PUSH1 0xA DUP2 MSTORE PUSH1 0x40 PUSH1 0x0 KECCAK256 PUSH1 0x1 PUSH1 0xFF NOT DUP3 SLOAD AND OR SWAP1 SSTORE MSTORE PUSH1 0x5 PUSH1 0x40 PUSH1 0x0 KECCAK256 ADD PUSH2 0x100 PUSH2 0xFF00 NOT DUP3 SLOAD AND OR SWAP1 SSTORE PUSH32 0xD09501348473474A20C772C79C653E1FD7E8B437E418FE235D277D2C88853251 PUSH1 0x0 DUP1 LOG2 STOP JUMPDEST PUSH1 0x64 SWAP1 PUSH1 0x40 MLOAD SWAP1 PUSH3 0x461BCD PUSH1 0xE5 SHL DUP3 MSTORE DUP1 PUSH1 0x4 DUP4 ADD MSTORE PUSH1 0x24 DUP3 ADD MSTORE PUSH32 0x5472757374456E67696E653A20416C726561647920612076616C696461746F72 PUSH1 0x44 DUP3 ADD MSTORE REVERT JUMPDEST PUSH1 0x84 SWAP1 PUSH1 0x40 MLOAD SWAP1 PUSH3 0x461BCD PUSH1 0xE5 SHL DUP3 MSTORE PUSH1 0x4 DUP3 ADD MSTORE PUSH1 0x2C PUSH1 0x24 DUP3 ADD MSTORE PUSH32 0x5472757374456E67696E653A2056616C696461746F72206D7573742068617665 PUSH1 0x44 DUP3 ADD MSTORE PUSH12 0x2074727573742073636F7265 PUSH1 0xA0 SHL PUSH1 0x64 DUP3 ADD MSTORE REVERT JUMPDEST CALLVALUE PUSH2 0x202 JUMPI PUSH1 0x20 DUP1 PUSH1 0x3 NOT CALLDATASIZE ADD SLT PUSH2 0x202 JUMPI PUSH1 0x1 PUSH1 0x1 PUSH1 0xA0 SHL SUB PUSH2 0xACD PUSH2 0x2370 JUMP JUMPDEST AND PUSH1 0x0 MSTORE PUSH1 0x7 DUP2 MSTORE PUSH1 0x40 PUSH1 0x0 KECCAK256 SWAP1 DUP2 SLOAD SWAP2 PUSH2 0xAE7 DUP4 PUSH2 0x2857 JUMP JUMPDEST SWAP3 PUSH2 0xAF5 PUSH1 0x40 MLOAD SWAP5 DUP6 PUSH2 0x241C JUMP JUMPDEST DUP1 DUP5 MSTORE DUP3 DUP5 ADD DUP1 SWAP3 PUSH1 0x0 MSTORE DUP4 PUSH1 0x0 KECCAK256 PUSH1 0x0 SWAP2 JUMPDEST DUP4 DUP4 LT PUSH2 0xBC1 JUMPI POP POP POP POP PUSH1 0x40 MLOAD SWAP2 DUP1 DUP4 ADD SWAP4 DUP2 DUP5 MSTORE MLOAD DUP1 SWAP5 MSTORE PUSH1 0x40 DUP4 ADD SWAP4 PUSH1 0x40 DUP2 PUSH1 0x5 SHL DUP6 ADD ADD SWAP3 SWAP2 PUSH1 0x0 SWAP6 JUMPDEST DUP3 DUP8 LT PUSH2 0xB43 JUMPI DUP6 DUP6 SUB DUP7 RETURN JUMPDEST SWAP1 SWAP2 SWAP3 SWAP4 DUP3 DUP1 PUSH2 0xBB1 PUSH1 0x1 SWAP4 PUSH1 0x3F NOT DUP11 DUP3 SUB ADD DUP7 MSTORE DUP9 MLOAD DUP1 MLOAD DUP3 MSTORE PUSH2 0xB94 PUSH2 0xB77 DUP6 DUP4 ADD MLOAD PUSH1 0xC0 DUP1 DUP9 DUP8 ADD MSTORE DUP6 ADD SWAP1 PUSH2 0x2583 JUMP JUMPDEST PUSH1 0x40 DUP4 ADD MLOAD PUSH1 0x40 DUP6 ADD MSTORE PUSH1 0x60 DUP1 DUP5 ADD MLOAD SWAP1 DUP6 DUP4 SUB SWAP1 DUP7 ADD MSTORE PUSH2 0x2583 JUMP JUMPDEST SWAP2 PUSH1 0x80 DUP1 DUP4 ADD MLOAD SWAP1 DUP3 ADD MSTORE PUSH1 0xA0 DUP1 SWAP3 ADD MLOAD SWAP2 DUP2 DUP5 SUB SWAP2 ADD MSTORE PUSH2 0x2583 JUMP JUMPDEST SWAP7 ADD SWAP3 ADD SWAP7 ADD SWAP6 SWAP3 SWAP2 SWAP1 SWAP3 PUSH2 0xB36 JUMP JUMPDEST PUSH1 0x6 DUP7 PUSH1 0x1 SWAP3 PUSH1 0x40 SWAP10 SWAP9 SWAP10 MLOAD PUSH2 0xBD6 DUP2 PUSH2 0x23C7 JUMP JUMPDEST DUP6 SLOAD DUP2 MSTORE PUSH2 0xBE5 DUP6 DUP8 ADD PUSH2 0x24DD JUMP JUMPDEST DUP4 DUP3 ADD MSTORE PUSH1 0x2 DUP7 ADD SLOAD PUSH1 0x40 DUP3 ADD MSTORE PUSH2 0xBFF PUSH1 0x3 DUP8 ADD PUSH2 0x24DD JUMP JUMPDEST PUSH1 0x60 DUP3 ADD MSTORE PUSH1 0x4 DUP7 ADD SLOAD PUSH1 0x80 DUP3 ADD MSTORE PUSH2 0xC1A PUSH1 0x5 DUP8 ADD PUSH2 0x24DD JUMP JUMPDEST PUSH1 0xA0 DUP3 ADD MSTORE DUP2 MSTORE ADD SWAP3 ADD SWAP3 ADD SWAP2 SWAP1 SWAP6 SWAP5 SWAP6 PUSH2 0xB08 JUMP JUMPDEST CALLVALUE PUSH2 0x202 JUMPI PUSH1 0x0 CALLDATASIZE PUSH1 0x3 NOT ADD SLT PUSH2 0x202 JUMPI PUSH1 0x1 SLOAD PUSH1 0x40 MLOAD PUSH1 0x8 SWAP2 SWAP1 SWAP2 SHR PUSH1 0x1 PUSH1 0x1 PUSH1 0xA0 SHL SUB AND DUP2 MSTORE PUSH1 0x20 SWAP1 RETURN JUMPDEST CALLVALUE PUSH2 0x202 JUMPI PUSH1 0x0 CALLDATASIZE PUSH1 0x3 NOT ADD SLT PUSH2 0x202 JUMPI PUSH2 0xC76 PUSH2 0x25C3 JUMP JUMPDEST PUSH2 0xC7E PUSH2 0x26D1 JUMP JUMPDEST PUSH1 0x1 PUSH1 0xFF NOT DUP2 SLOAD AND OR PUSH1 0x1 SSTORE PUSH32 0x62E78CEA01BEE320CD4E420270B5EA74000D11B0C9F74754EBDBFC544B05A258 PUSH1 0x20 PUSH1 0x40 MLOAD CALLER DUP2 MSTORE LOG1 STOP JUMPDEST CALLVALUE PUSH2 0x202 JUMPI PUSH1 0x0 CALLDATASIZE PUSH1 0x3 NOT ADD SLT PUSH2 0x202 JUMPI PUSH1 0x20 PUSH1 0x40 MLOAD PUSH1 0x5 DUP2 MSTORE RETURN JUMPDEST CALLVALUE PUSH2 0x202 JUMPI PUSH1 0x0 CALLDATASIZE PUSH1 0x3 NOT ADD SLT PUSH2 0x202 JUMPI PUSH1 0x20 PUSH1 0x40 MLOAD PUSH2 0x3E8 DUP2 MSTORE RETURN JUMPDEST CALLVALUE PUSH2 0x202 JUMPI PUSH1 0x40 CALLDATASIZE PUSH1 0x3 NOT ADD SLT PUSH2 0x202 JUMPI PUSH2 0xD08 PUSH2 0x2370 JUMP JUMPDEST PUSH1 0x1 PUSH1 0x1 PUSH1 0xA0 SHL SUB AND PUSH1 0x0 SWAP1 DUP2 MSTORE PUSH1 0x7 PUSH1 0x20 MSTORE PUSH1 0x40 SWAP1 KECCAK256 DUP1 SLOAD PUSH1 0x24 CALLDATALOAD SWAP1 DUP2 LT ISZERO PUSH2 0x202 JUMPI PUSH2 0xD35 SWAP2 PUSH2 0x2386 JUMP JUMPDEST POP DUP1 SLOAD PUSH2 0xDB1 PUSH2 0xD47 PUSH1 0x1 DUP5 ADD PUSH2 0x24DD JUMP JUMPDEST SWAP3 PUSH1 0x2 DUP2 ADD SLOAD PUSH2 0xD9E PUSH2 0xD5C PUSH1 0x3 DUP5 ADD PUSH2 0x24DD JUMP JUMPDEST SWAP2 PUSH2 0xD6E PUSH1 0x5 PUSH1 0x4 DUP7 ADD SLOAD SWAP6 ADD PUSH2 0x24DD JUMP JUMPDEST SWAP3 PUSH2 0xD8B PUSH1 0x40 MLOAD SWAP9 DUP10 SWAP9 DUP10 MSTORE PUSH1 0xC0 PUSH1 0x20 DUP11 ADD MSTORE PUSH1 0xC0 DUP10 ADD SWAP1 PUSH2 0x2583 JUMP JUMPDEST SWAP2 PUSH1 0x40 DUP9 ADD MSTORE DUP7 DUP3 SUB PUSH1 0x60 DUP9 ADD MSTORE PUSH2 0x2583 JUMP JUMPDEST SWAP2 PUSH1 0x80 DUP6 ADD MSTORE DUP4 DUP3 SUB PUSH1 0xA0 DUP6 ADD MSTORE PUSH2 0x2583 JUMP JUMPDEST SUB SWAP1 RETURN JUMPDEST CALLVALUE PUSH2 0x202 JUMPI PUSH1 0x0 CALLDATASIZE PUSH1 0x3 NOT ADD SLT PUSH2 0x202 JUMPI PUSH2 0xDCE PUSH2 0x25C3 JUMP JUMPDEST PUSH1 0x1 DUP1 SLOAD PUSH2 0x100 PUSH1 0x1 PUSH1 0xA8 SHL SUB NOT DUP2 AND SWAP1 SWAP2 SSTORE PUSH1 0x0 SWAP1 PUSH1 0x8 SHR PUSH1 0x1 PUSH1 0x1 PUSH1 0xA0 SHL SUB AND PUSH32 0x8BE0079C531659141344CD1FD0A4F28419497F9722A3DAAFE3B4186F6B6457E0 DUP3 DUP1 LOG3 STOP JUMPDEST CALLVALUE PUSH2 0x202 JUMPI PUSH1 0x20 CALLDATASIZE PUSH1 0x3 NOT ADD SLT PUSH2 0x202 JUMPI PUSH1 0x1 PUSH1 0x1 PUSH1 0xA0 SHL SUB PUSH2 0xE37 PUSH2 0x2370 JUMP JUMPDEST AND PUSH1 0x0 MSTORE PUSH1 0x4 PUSH1 0x20 MSTORE PUSH1 0x20 PUSH1 0xFF PUSH1 0x40 PUSH1 0x0 KECCAK256 SLOAD AND PUSH1 0x40 MLOAD SWAP1 ISZERO ISZERO DUP2 MSTORE RETURN JUMPDEST CALLVALUE PUSH2 0x202 JUMPI PUSH1 0x20 DUP1 PUSH1 0x3 NOT CALLDATASIZE ADD SLT PUSH2 0x202 JUMPI PUSH1 0x0 PUSH2 0x140 SWAP3 PUSH2 0xE75 PUSH2 0x2370 JUMP JUMPDEST SWAP1 PUSH1 0x40 MLOAD SWAP2 PUSH2 0xE83 DUP4 PUSH2 0x23E3 JUMP JUMPDEST DUP4 DUP4 MSTORE DUP4 DUP6 DUP5 ADD MSTORE DUP4 PUSH1 0x40 DUP5 ADD MSTORE DUP4 PUSH1 0x60 DUP5 ADD MSTORE DUP4 PUSH1 0x80 DUP5 ADD MSTORE DUP4 PUSH1 0xA0 DUP5 ADD MSTORE DUP4 PUSH1 0xC0 DUP5 ADD MSTORE DUP4 DUP3 DUP5 ADD MSTORE PUSH2 0x100 SWAP1 DUP5 DUP3 DUP6 ADD MSTORE PUSH2 0x120 SWAP5 DUP6 DUP1 SWAP6 ADD MSTORE PUSH1 0x1 DUP1 PUSH1 0xA0 SHL SUB AND DUP1 PUSH1 0x0 MSTORE PUSH1 0x4 DUP7 MSTORE PUSH2 0xEE1 PUSH1 0xFF PUSH1 0x40 PUSH1 0x0 KECCAK256 SLOAD AND PUSH2 0x2715 JUMP JUMPDEST PUSH1 0x0 MSTORE PUSH1 0x3 DUP6 MSTORE PUSH2 0xEF5 PUSH1 0x40 PUSH1 0x0 KECCAK256 PUSH2 0x277D JUMP JUMPDEST SWAP2 PUSH1 0x40 MLOAD SWAP6 DUP4 MLOAD DUP8 MSTORE DUP1 DUP5 ADD MLOAD SWAP1 DUP8 ADD MSTORE PUSH1 0x40 DUP4 ADD MLOAD PUSH1 0x40 DUP8 ADD MSTORE PUSH1 0x60 DUP4 ADD MLOAD PUSH1 0x60 DUP8 ADD MSTORE PUSH1 0x80 DUP4 ADD MLOAD PUSH1 0x80 DUP8 ADD MSTORE PUSH1 0xA0 DUP4 ADD MLOAD ISZERO ISZERO PUSH1 0xA0 DUP8 ADD MSTORE PUSH1 0xC0 DUP4 ADD MLOAD ISZERO ISZERO PUSH1 0xC0 DUP8 ADD MSTORE DUP1 DUP4 ADD MLOAD SWAP1 DUP7 ADD MSTORE DUP1 DUP3 ADD MLOAD SWAP1 DUP6 ADD MSTORE ADD MLOAD SWAP1 DUP3 ADD MSTORE RETURN JUMPDEST CALLVALUE PUSH2 0x202 JUMPI PUSH1 0x0 CALLDATASIZE PUSH1 0x3 NOT ADD SLT PUSH2 0x202 JUMPI PUSH1 0x20 PUSH1 0xFF PUSH1 0x1 SLOAD AND PUSH1 0x40 MLOAD SWAP1 ISZERO ISZERO DUP2 MSTORE RETURN JUMPDEST CALLVALUE PUSH2 0x202 JUMPI PUSH1 0xC0 CALLDATASIZE PUSH1 0x3 NOT ADD SLT PUSH2 0x202 JUMPI PUSH2 0xF90 PUSH2 0x2370 JUMP JUMPDEST PUSH1 0x24 SWAP1 PUSH8 0xFFFFFFFFFFFFFFFF SWAP1 DUP3 CALLDATALOAD DUP3 DUP2 GT PUSH2 0x202 JUMPI PUSH2 0xFB4 SWAP1 CALLDATASIZE SWAP1 PUSH1 0x4 ADD PUSH2 0x2485 JUMP JUMPDEST SWAP2 PUSH1 0x64 CALLDATALOAD DUP2 DUP2 GT PUSH2 0x202 JUMPI PUSH2 0xFCD SWAP1 CALLDATASIZE SWAP1 PUSH1 0x4 ADD PUSH2 0x2485 JUMP JUMPDEST SWAP1 PUSH1 0xA4 CALLDATALOAD DUP2 DUP2 GT PUSH2 0x202 JUMPI CALLDATASIZE PUSH1 0x23 DUP3 ADD SLT ISZERO PUSH2 0x202 JUMPI PUSH2 0xFF6 SWAP1 CALLDATASIZE SWAP1 DUP8 DUP2 PUSH1 0x4 ADD CALLDATALOAD SWAP2 ADD PUSH2 0x243E JUMP JUMPDEST SWAP2 CALLER PUSH1 0x0 MSTORE PUSH1 0x20 SWAP4 PUSH1 0xA DUP6 MSTORE PUSH2 0x1013 PUSH1 0xFF PUSH1 0x40 PUSH1 0x0 KECCAK256 SLOAD AND PUSH2 0x261E JUMP JUMPDEST PUSH2 0x101B PUSH2 0x26D1 JUMP JUMPDEST PUSH1 0x1 DUP1 PUSH1 0xA0 SHL SUB AND SWAP6 DUP7 PUSH1 0x0 MSTORE PUSH1 0x4 DUP6 MSTORE PUSH2 0x103D PUSH1 0xFF PUSH1 0x40 PUSH1 0x0 KECCAK256 SLOAD AND PUSH2 0x2715 JUMP JUMPDEST PUSH1 0x84 CALLDATALOAD PUSH1 0x64 DUP2 GT PUSH2 0x1444 JUMPI DUP5 MLOAD ISZERO PUSH2 0x13EB JUMPI PUSH1 0x40 MLOAD SWAP1 PUSH2 0x105C DUP3 PUSH2 0x23C7 JUMP JUMPDEST TIMESTAMP DUP3 MSTORE DUP7 DUP3 ADD SWAP4 DUP9 DUP6 MSTORE PUSH1 0x40 DUP4 ADD PUSH1 0x44 CALLDATALOAD DUP2 MSTORE PUSH1 0x60 DUP5 ADD SWAP2 DUP3 MSTORE PUSH1 0x80 DUP5 ADD SWAP3 DUP4 MSTORE PUSH1 0xA0 DUP5 ADD SWAP8 DUP9 MSTORE DUP11 PUSH1 0x0 MSTORE PUSH1 0x7 DUP10 MSTORE PUSH1 0x40 PUSH1 0x0 KECCAK256 SWAP6 DUP7 SLOAD PUSH1 0x1 PUSH1 0x40 SHL DUP2 LT ISZERO PUSH2 0x13C1 JUMPI PUSH2 0x10B1 SWAP1 PUSH1 0x1 SWAP9 DUP10 DUP3 ADD DUP2 SSTORE PUSH2 0x2386 JUMP JUMPDEST SWAP6 SWAP1 SWAP6 PUSH2 0x13D6 JUMPI MLOAD DUP6 SSTORE MLOAD DUP1 MLOAD DUP9 DUP2 GT PUSH2 0x13C1 JUMPI DUP1 DUP9 DUP8 ADD SWAP3 PUSH2 0x10DE DUP3 PUSH2 0x10D8 DUP7 SLOAD PUSH2 0x24A3 JUMP JUMPDEST DUP7 PUSH2 0x2803 JUMP JUMPDEST DUP13 SWAP1 PUSH1 0x1F DUP4 GT PUSH1 0x1 EQ PUSH2 0x1352 JUMPI PUSH1 0x0 SWAP3 PUSH2 0x1347 JUMPI JUMPDEST POP POP PUSH1 0x0 NOT PUSH1 0x3 DUP4 SWAP1 SHL SHR NOT AND SWAP1 DUP9 SHL OR SWAP1 SSTORE JUMPDEST MLOAD PUSH1 0x2 DUP5 ADD SSTORE MLOAD DUP1 MLOAD DUP7 DUP2 GT PUSH2 0x1332 JUMPI PUSH1 0x3 DUP5 ADD SWAP2 PUSH2 0x1130 DUP3 PUSH2 0x112A DUP6 SLOAD PUSH2 0x24A3 JUMP JUMPDEST DUP6 PUSH2 0x2803 JUMP JUMPDEST DUP10 SWAP1 PUSH1 0x1F DUP4 GT PUSH1 0x1 EQ PUSH2 0x12C8 JUMPI PUSH1 0x5 SWAP6 SWAP5 SWAP4 SWAP3 SWAP2 PUSH1 0x0 SWAP2 DUP4 PUSH2 0x12BD JUMPI JUMPDEST POP POP PUSH1 0x0 NOT PUSH1 0x3 DUP4 SWAP1 SHL SHR NOT AND SWAP1 DUP8 SHL OR SWAP1 SSTORE JUMPDEST MLOAD PUSH1 0x4 DUP3 ADD SSTORE ADD SWAP4 MLOAD SWAP1 DUP2 MLOAD SWAP4 DUP5 GT PUSH2 0x12A9 JUMPI POP PUSH2 0x1183 DUP4 PUSH2 0x10D8 DUP7 SLOAD PUSH2 0x24A3 JUMP JUMPDEST DUP5 SWAP1 PUSH1 0x1F DUP5 GT PUSH1 0x1 EQ PUSH2 0x121C JUMPI SWAP3 DUP1 PUSH32 0x8408447970DCF8C9A0DF3798550966E2211FEBE63BA8914A95BA2C05E7FD79B9 SWAP8 SWAP6 SWAP4 DUP2 SWAP4 PUSH2 0x1204 SWAP9 SWAP7 PUSH1 0x0 SWAP5 PUSH2 0x1211 JUMPI JUMPDEST POP POP SHL SWAP2 PUSH1 0x0 NOT SWAP1 PUSH1 0x3 SHL SHR NOT AND OR SWAP1 SSTORE JUMPDEST DUP5 PUSH1 0x0 MSTORE PUSH1 0x8 DUP2 MSTORE PUSH1 0x40 PUSH1 0x0 KECCAK256 PUSH2 0x11EE DUP2 SLOAD PUSH2 0x27F4 JUMP JUMPDEST SWAP1 SSTORE PUSH1 0x40 MLOAD SWAP3 DUP4 SWAP3 PUSH1 0x40 DUP5 MSTORE PUSH1 0x40 DUP5 ADD SWAP1 PUSH2 0x2583 JUMP JUMPDEST SWAP1 PUSH1 0x44 CALLDATALOAD SWAP1 DUP4 ADD MSTORE SUB SWAP1 LOG2 STOP JUMPDEST ADD MLOAD SWAP3 POP DUP11 DUP1 PUSH2 0x11C5 JUMP JUMPDEST SWAP1 PUSH1 0x1F SWAP4 SWAP3 SWAP4 NOT DUP4 AND SWAP2 DUP6 PUSH1 0x0 MSTORE DUP7 PUSH1 0x0 KECCAK256 SWAP3 PUSH1 0x0 JUMPDEST DUP2 DUP2 LT PUSH2 0x1294 JUMPI POP SWAP2 PUSH2 0x1204 SWAP8 SWAP6 SWAP4 SWAP2 DUP6 PUSH32 0x8408447970DCF8C9A0DF3798550966E2211FEBE63BA8914A95BA2C05E7FD79B9 SWAP11 SWAP9 SWAP7 SWAP5 LT PUSH2 0x127B JUMPI JUMPDEST POP POP POP DUP2 SHL ADD SWAP1 SSTORE PUSH2 0x11D7 JUMP JUMPDEST ADD MLOAD PUSH1 0x0 NOT PUSH1 0xF8 DUP5 PUSH1 0x3 SHL AND SHR NOT AND SWAP1 SSTORE DUP9 DUP1 DUP1 PUSH2 0x126E JUMP JUMPDEST DUP3 DUP5 ADD MLOAD DUP6 SSTORE SWAP4 DUP7 ADD SWAP4 SWAP3 DUP9 ADD SWAP3 DUP9 ADD PUSH2 0x1232 JUMP JUMPDEST PUSH4 0x4E487B71 PUSH1 0xE0 SHL PUSH1 0x0 SWAP1 DUP2 MSTORE PUSH1 0x41 PUSH1 0x4 MSTORE REVERT JUMPDEST ADD MLOAD SWAP1 POP DUP14 DUP1 PUSH2 0x114D JUMP JUMPDEST SWAP5 SWAP4 SWAP3 SWAP2 DUP8 SWAP2 DUP4 PUSH1 0x0 MSTORE DUP12 PUSH1 0x0 KECCAK256 SWAP1 DUP13 PUSH1 0x0 PUSH1 0x1F NOT DUP6 AND SWAP2 JUMPDEST DUP3 DUP3 LT PUSH2 0x131B JUMPI POP POP SWAP8 DUP4 PUSH1 0x5 SWAP10 LT PUSH2 0x1302 JUMPI JUMPDEST POP POP POP DUP2 SHL ADD SWAP1 SSTORE PUSH2 0x1161 JUMP JUMPDEST ADD MLOAD PUSH1 0x0 NOT PUSH1 0xF8 DUP5 PUSH1 0x3 SHL AND SHR NOT AND SWAP1 SSTORE DUP14 DUP1 DUP1 PUSH2 0x12F5 JUMP JUMPDEST DUP4 DUP12 ADD MLOAD DUP6 SSTORE DUP13 SWAP7 SWAP1 SWAP5 ADD SWAP4 SWAP3 DUP4 ADD SWAP3 ADD DUP15 PUSH2 0x12E1 JUMP JUMPDEST DUP5 PUSH4 0x4E487B71 PUSH1 0xE0 SHL PUSH1 0x0 MSTORE PUSH1 0x41 PUSH1 0x4 MSTORE PUSH1 0x0 REVERT JUMPDEST ADD MLOAD SWAP1 POP DUP15 DUP1 PUSH2 0x10F3 JUMP JUMPDEST DUP11 SWAP4 POP SWAP1 DUP14 SWAP2 DUP6 PUSH1 0x0 MSTORE DUP3 PUSH1 0x0 KECCAK256 SWAP3 PUSH1 0x0 PUSH1 0x1F NOT DUP7 AND SWAP2 JUMPDEST DUP3 DUP3 LT PUSH2 0x13A0 JUMPI POP POP DUP5 GT PUSH2 0x1387 JUMPI JUMPDEST POP POP POP DUP2 SHL ADD SWAP1 SSTORE PUSH2 0x1107 JUMP JUMPDEST ADD MLOAD PUSH1 0x0 NOT PUSH1 0xF8 DUP5 PUSH1 0x3 SHL AND SHR NOT AND SWAP1 SSTORE DUP15 DUP1 DUP1 PUSH2 0x137A JUMP JUMPDEST SWAP2 SWAP3 SWAP4 SWAP6 SWAP7 DUP3 SWAP2 SWAP6 DUP8 DUP7 ADD MLOAD DUP2 SSTORE ADD SWAP6 ADD SWAP4 ADD SWAP1 DUP16 SWAP2 DUP14 SWAP7 SWAP6 SWAP5 SWAP4 SWAP3 PUSH2 0x136A JUMP JUMPDEST DUP7 PUSH4 0x4E487B71 PUSH1 0xE0 SHL PUSH1 0x0 MSTORE PUSH1 0x41 PUSH1 0x4 MSTORE PUSH1 0x0 REVERT JUMPDEST DUP7 PUSH4 0x4E487B71 PUSH1 0xE0 SHL PUSH1 0x0 MSTORE PUSH1 0x0 PUSH1 0x4 MSTORE PUSH1 0x0 REVERT JUMPDEST PUSH1 0x40 MLOAD PUSH3 0x461BCD PUSH1 0xE5 SHL DUP2 MSTORE PUSH1 0x4 DUP2 ADD DUP8 SWAP1 MSTORE PUSH1 0x2C DUP2 DUP5 ADD MSTORE PUSH32 0x5472757374456E67696E653A20496E76616C696420656E7669726F6E6D656E74 PUSH1 0x44 DUP3 ADD MSTORE PUSH12 0x616C207369676E6174757265 PUSH1 0xA0 SHL PUSH1 0x64 DUP3 ADD MSTORE PUSH1 0x84 SWAP1 REVERT JUMPDEST PUSH1 0x64 DUP3 DUP8 PUSH1 0x40 MLOAD SWAP2 PUSH3 0x461BCD PUSH1 0xE5 SHL DUP4 MSTORE DUP2 PUSH1 0x4 DUP5 ADD MSTORE DUP3 ADD MSTORE PUSH32 0x5472757374456E67696E653A20436F6E666964656E636520746F6F2068696768 PUSH1 0x44 DUP3 ADD MSTORE REVERT JUMPDEST CALLVALUE PUSH2 0x202 JUMPI PUSH1 0x20 CALLDATASIZE PUSH1 0x3 NOT ADD SLT PUSH2 0x202 JUMPI PUSH1 0x1 PUSH1 0x1 PUSH1 0xA0 SHL SUB PUSH2 0x14A7 PUSH2 0x2370 JUMP JUMPDEST AND PUSH1 0x0 MSTORE PUSH1 0x6 PUSH1 0x20 MSTORE PUSH1 0x20 PUSH1 0x40 PUSH1 0x0 KECCAK256 SLOAD PUSH1 0x40 MLOAD SWAP1 DUP2 MSTORE RETURN JUMPDEST CALLVALUE PUSH2 0x202 JUMPI PUSH1 0x40 CALLDATASIZE PUSH1 0x3 NOT ADD SLT PUSH2 0x202 JUMPI PUSH2 0x14D9 PUSH2 0x2370 JUMP JUMPDEST PUSH1 0x24 CALLDATALOAD PUSH2 0x14E4 PUSH2 0x26D1 JUMP JUMPDEST CALLER PUSH1 0x0 MSTORE PUSH1 0x20 SWAP1 PUSH1 0x5 DUP3 MSTORE PUSH1 0x40 PUSH1 0x0 KECCAK256 SLOAD DUP2 LT ISZERO PUSH2 0x163A JUMPI PUSH2 0x1512 SWAP1 CALLER PUSH1 0x0 MSTORE PUSH1 0x5 DUP4 MSTORE PUSH1 0x40 PUSH1 0x0 KECCAK256 PUSH2 0x2386 JUMP JUMPDEST POP PUSH1 0x1 DUP2 ADD SLOAD PUSH1 0x1 PUSH1 0x1 PUSH1 0xA0 SHL SUB SWAP4 DUP5 AND SWAP4 AND DUP4 SWAP1 SUB PUSH2 0x15F5 JUMPI PUSH1 0x4 ADD DUP1 SLOAD PUSH1 0xFF DUP2 AND ISZERO PUSH2 0x159F JUMPI PUSH1 0xFF NOT AND SWAP1 SSTORE DUP2 PUSH1 0x0 MSTORE PUSH1 0x4 DUP2 MSTORE PUSH1 0xFF PUSH1 0x40 PUSH1 0x0 KECCAK256 SLOAD AND PUSH2 0x157F JUMPI JUMPDEST POP CALLER PUSH32 0x5145EB55DDA20F7829838AF8F45D7E416F925A24CCC15AD0C788FB26A84A0E95 PUSH1 0x0 DUP1 LOG3 STOP JUMPDEST PUSH1 0x3 SWAP1 MSTORE PUSH1 0x40 PUSH1 0x0 KECCAK256 PUSH1 0x1 PUSH2 0x1596 PUSH2 0x5AA DUP4 PUSH2 0x277D JUMP JUMPDEST SWAP2 ADD SSTORE DUP2 PUSH2 0x1556 JUMP JUMPDEST PUSH1 0x40 MLOAD PUSH3 0x461BCD PUSH1 0xE5 SHL DUP2 MSTORE PUSH1 0x4 DUP2 ADD DUP5 SWAP1 MSTORE PUSH1 0x28 PUSH1 0x24 DUP3 ADD MSTORE PUSH32 0x5472757374456E67696E653A2044656C65676174696F6E20616C726561647920 PUSH1 0x44 DUP3 ADD MSTORE PUSH8 0x696E616374697665 PUSH1 0xC0 SHL PUSH1 0x64 DUP3 ADD MSTORE PUSH1 0x84 SWAP1 REVERT JUMPDEST PUSH1 0x40 MLOAD PUSH3 0x461BCD PUSH1 0xE5 SHL DUP2 MSTORE PUSH1 0x4 DUP2 ADD DUP4 SWAP1 MSTORE PUSH1 0x1E PUSH1 0x24 DUP3 ADD MSTORE PUSH32 0x5472757374456E67696E653A2044656C6567617465206D69736D617463680000 PUSH1 0x44 DUP3 ADD MSTORE PUSH1 0x64 SWAP1 REVERT JUMPDEST PUSH1 0x40 MLOAD PUSH3 0x461BCD PUSH1 0xE5 SHL DUP2 MSTORE PUSH1 0x4 DUP2 ADD DUP4 SWAP1 MSTORE PUSH1 0x25 PUSH1 0x24 DUP3 ADD MSTORE PUSH32 0x5472757374456E67696E653A20496E76616C69642064656C65676174696F6E20 PUSH1 0x44 DUP3 ADD MSTORE PUSH5 0xD2DCC8CAF PUSH1 0xDB SHL PUSH1 0x64 DUP3 ADD MSTORE PUSH1 0x84 SWAP1 REVERT JUMPDEST CALLVALUE PUSH2 0x202 JUMPI PUSH1 0x60 CALLDATASIZE PUSH1 0x3 NOT ADD SLT PUSH2 0x202 JUMPI PUSH2 0x16A6 PUSH2 0x2370 JUMP JUMPDEST PUSH1 0x24 CALLDATALOAD PUSH2 0x16B1 PUSH2 0x23B8 JUMP JUMPDEST CALLER PUSH1 0x0 MSTORE PUSH1 0x20 SWAP3 PUSH1 0xA DUP5 MSTORE PUSH2 0x16CD PUSH1 0xFF PUSH1 0x40 PUSH1 0x0 KECCAK256 SLOAD AND PUSH2 0x261E JUMP JUMPDEST PUSH2 0x16D5 PUSH2 0x26D1 JUMP JUMPDEST PUSH1 0x1 PUSH1 0x1 PUSH1 0xA0 SHL SUB AND PUSH1 0x0 DUP2 DUP2 MSTORE PUSH1 0x4 DUP6 MSTORE PUSH1 0x40 SWAP1 KECCAK256 SLOAD SWAP1 SWAP5 SWAP1 PUSH1 0xFF AND PUSH2 0x1867 JUMPI SWAP2 PUSH32 0x15DD57E0CDE9AF9083C846EB39C9DA382E907C0036818E4A163ECD167E5F3276 SWAP4 SWAP2 PUSH2 0x17E8 PUSH1 0x8 DUP8 PUSH1 0x40 SWAP7 PUSH2 0x1731 PUSH2 0x3E8 DUP8 GT ISZERO PUSH2 0x2686 JUMP JUMPDEST DUP7 DUP9 MLOAD SWAP5 DUP6 SWAP3 PUSH2 0x1740 DUP5 PUSH2 0x23E3 JUMP JUMPDEST DUP9 DUP5 MSTORE DUP3 DUP5 ADD SWAP1 DUP10 DUP3 MSTORE DUP12 DUP6 ADD PUSH1 0x64 DUP2 MSTORE PUSH1 0x60 DUP7 ADD PUSH1 0x0 DUP2 MSTORE PUSH1 0x80 DUP8 ADD SWAP2 PUSH1 0x0 DUP4 MSTORE PUSH1 0xA0 DUP9 ADD SWAP5 DUP13 ISZERO ISZERO DUP7 MSTORE PUSH1 0x3 PUSH1 0xC0 DUP11 ADD SWAP6 PUSH1 0x0 DUP8 MSTORE DUP11 ADD SWAP9 TIMESTAMP DUP11 MSTORE PUSH2 0x120 PUSH2 0x100 DUP13 ADD SWAP12 PUSH1 0x0 DUP14 MSTORE ADD SWAP12 PUSH1 0x64 DUP14 MSTORE PUSH1 0x0 MSTORE MSTORE DUP16 PUSH1 0x0 KECCAK256 SWAP12 MLOAD DUP13 SSTORE MLOAD PUSH1 0x1 DUP13 ADD SSTORE MLOAD PUSH1 0x2 DUP12 ADD SSTORE MLOAD PUSH1 0x3 DUP11 ADD SSTORE MLOAD PUSH1 0x4 DUP10 ADD SSTORE PUSH2 0x17D1 PUSH1 0x5 DUP10 ADD SWAP3 MLOAD ISZERO ISZERO DUP4 SWAP1 PUSH1 0xFF DUP1 NOT DUP4 SLOAD AND SWAP2 ISZERO ISZERO AND OR SWAP1 SSTORE JUMP JUMPDEST MLOAD DUP2 SLOAD PUSH2 0xFF00 NOT AND SWAP1 ISZERO ISZERO PUSH1 0x8 SHL PUSH2 0xFF00 AND OR SWAP1 SSTORE JUMP JUMPDEST MLOAD PUSH1 0x6 DUP6 ADD SSTORE MLOAD PUSH1 0x7 DUP5 ADD SSTORE MLOAD SWAP2 ADD SSTORE PUSH1 0x4 DUP4 MSTORE DUP4 PUSH1 0x0 KECCAK256 SWAP1 PUSH1 0xFF NOT SWAP2 PUSH1 0x1 DUP4 DUP3 SLOAD AND OR SWAP1 SSTORE PUSH1 0xC DUP5 MSTORE TIMESTAMP DUP6 PUSH1 0x0 KECCAK256 SSTORE PUSH2 0x182A JUMPI JUMPDEST POP DUP3 MLOAD SWAP2 DUP2 DUP4 MSTORE DUP3 ADD MSTORE LOG2 STOP JUMPDEST PUSH1 0xB DUP4 MSTORE PUSH1 0x1 DUP5 PUSH1 0x0 KECCAK256 SWAP2 DUP3 SLOAD AND OR SWAP1 SSTORE DUP5 PUSH32 0x16A1CD0D9E1FEF7E89DE328C38BBF39F5265D55372DECE48A9438F6F5BBB87A2 PUSH1 0x0 DUP1 LOG2 DUP6 PUSH2 0x181D JUMP JUMPDEST PUSH1 0x40 MLOAD PUSH3 0x461BCD PUSH1 0xE5 SHL DUP2 MSTORE PUSH1 0x4 DUP2 ADD DUP6 SWAP1 MSTORE PUSH1 0x27 PUSH1 0x24 DUP3 ADD MSTORE PUSH32 0x5472757374456E67696E653A2054727573742073636F726520616C7265616479 PUSH1 0x44 DUP3 ADD MSTORE PUSH7 0x20657869737473 PUSH1 0xC8 SHL PUSH1 0x64 DUP3 ADD MSTORE PUSH1 0x84 SWAP1 REVERT JUMPDEST CALLVALUE PUSH2 0x202 JUMPI PUSH1 0x20 CALLDATASIZE PUSH1 0x3 NOT ADD SLT PUSH2 0x202 JUMPI PUSH1 0x1 PUSH1 0x1 PUSH1 0xA0 SHL SUB PUSH2 0x18DD PUSH2 0x2370 JUMP JUMPDEST AND PUSH1 0x0 MSTORE PUSH1 0xD PUSH1 0x20 MSTORE PUSH1 0x20 PUSH1 0x40 PUSH1 0x0 KECCAK256 SLOAD PUSH1 0x40 MLOAD SWAP1 DUP2 MSTORE RETURN JUMPDEST CALLVALUE PUSH2 0x202 JUMPI PUSH1 0x80 CALLDATASIZE PUSH1 0x3 NOT ADD SLT PUSH2 0x202 JUMPI PUSH2 0x190F PUSH2 0x2370 JUMP JUMPDEST PUSH1 0x24 CALLDATALOAD PUSH1 0x44 CALLDATALOAD SWAP2 PUSH1 0x64 SWAP4 DUP5 CALLDATALOAD SWAP1 CALLER PUSH1 0x0 MSTORE PUSH1 0x20 SWAP3 PUSH1 0xA DUP5 MSTORE PUSH2 0x1938 PUSH1 0xFF PUSH1 0x40 PUSH1 0x0 KECCAK256 SLOAD AND PUSH2 0x261E JUMP JUMPDEST PUSH2 0x1940 PUSH2 0x26D1 JUMP JUMPDEST PUSH1 0x1 DUP1 PUSH1 0xA0 SHL SUB AND SWAP6 DUP7 PUSH1 0x0 MSTORE PUSH1 0x4 DUP5 MSTORE PUSH2 0x1962 PUSH1 0xFF PUSH1 0x40 PUSH1 0x0 KECCAK256 SLOAD AND PUSH2 0x2715 JUMP JUMPDEST DUP7 PUSH1 0x0 MSTORE PUSH1 0xC DUP5 MSTORE PUSH2 0x1983 PUSH1 0x40 PUSH1 0x0 KECCAK256 SLOAD PUSH1 0xD DUP7 MSTORE PUSH1 0x40 PUSH1 0x0 KECCAK256 SLOAD SWAP1 PUSH2 0x2770 JUMP JUMPDEST TIMESTAMP LT PUSH2 0x1C2C JUMPI PUSH2 0x1997 PUSH2 0x3E8 DUP7 GT ISZERO PUSH2 0x2686 JUMP JUMPDEST DUP1 DUP7 GT PUSH2 0x1BD7 JUMPI DUP1 DUP4 GT PUSH2 0x1B88 JUMPI POP DUP6 PUSH1 0x0 MSTORE PUSH1 0x4 DUP4 MSTORE PUSH1 0xFF PUSH1 0x40 PUSH1 0x0 KECCAK256 SLOAD AND PUSH2 0x1A2C JUMPI JUMPDEST POP PUSH1 0x40 SWAP3 SWAP2 PUSH32 0x15DD57E0CDE9AF9083C846EB39C9DA382E907C0036818E4A163ECD167E5F3276 SWAP5 PUSH1 0x1 SWAP3 DUP8 PUSH1 0x0 MSTORE PUSH1 0x3 DUP4 MSTORE DUP6 PUSH1 0x0 KECCAK256 SWAP2 DUP6 DUP4 SSTORE PUSH1 0x7 DUP4 ADD SSTORE PUSH1 0x8 DUP3 ADD SSTORE TIMESTAMP PUSH1 0x6 DUP3 ADD SSTORE PUSH1 0xC DUP3 MSTORE TIMESTAMP DUP6 PUSH1 0x0 KECCAK256 SSTORE PUSH2 0x1A1C PUSH2 0x5AA DUP3 PUSH2 0x277D JUMP JUMPDEST SWAP3 DUP4 SWAP2 ADD SSTORE DUP4 MLOAD SWAP3 DUP4 MSTORE DUP3 ADD MSTORE LOG2 STOP JUMPDEST SWAP1 SWAP3 SWAP2 PUSH1 0x3 DUP2 MSTORE PUSH2 0x1A40 PUSH1 0x40 PUSH1 0x0 KECCAK256 PUSH2 0x277D JUMP JUMPDEST SWAP5 DUP6 MLOAD SWAP5 DUP6 PUSH1 0x1 SHL SWAP6 DUP1 DUP8 DIV PUSH1 0x2 EQ SWAP1 ISZERO OR ISZERO PUSH2 0x1B72 JUMPI PUSH1 0x3C PUSH2 0x1A93 PUSH1 0x1 SWAP6 PUSH32 0x15DD57E0CDE9AF9083C846EB39C9DA382E907C0036818E4A163ECD167E5F3276 SWAP10 PUSH1 0x40 SWAP10 DUP10 GT PUSH2 0x1B09 JUMPI JUMPDEST ADD MLOAD TIMESTAMP PUSH2 0x2882 JUMP JUMPDEST LT PUSH2 0x1AA4 JUMPI JUMPDEST SWAP3 POP SWAP5 POP SWAP2 SWAP3 PUSH2 0x19BC JUMP JUMPDEST DUP8 PUSH1 0x0 MSTORE PUSH1 0xE DUP4 MSTORE DUP6 PUSH1 0x0 KECCAK256 PUSH2 0x1ABA DUP2 SLOAD PUSH2 0x27F4 JUMP JUMPDEST SWAP1 SSTORE DUP8 PUSH32 0x3FDEEA3275F7D2907F5B589F76BEA42EDE0236C2646B61EAACE386B41C44972D PUSH1 0x60 DUP9 MLOAD DUP7 DUP2 MSTORE PUSH1 0x10 DUP8 DUP3 ADD MSTORE PUSH16 0x4672657175656E742075706461746573 PUSH1 0x80 SHL DUP11 DUP3 ADD MSTORE LOG2 PUSH2 0x1A99 JUMP JUMPDEST DUP12 PUSH1 0x0 MSTORE PUSH1 0xE DUP8 MSTORE DUP10 PUSH1 0x0 KECCAK256 PUSH2 0x1B1F DUP2 SLOAD PUSH2 0x27F4 JUMP JUMPDEST SWAP1 SSTORE DUP12 PUSH32 0x3FDEEA3275F7D2907F5B589F76BEA42EDE0236C2646B61EAACE386B41C44972D PUSH1 0x60 DUP13 MLOAD DUP11 DUP2 MSTORE PUSH1 0x14 DUP12 DUP3 ADD MSTORE PUSH20 0x52617069642073636F726520696E637265617365 PUSH1 0x60 SHL DUP15 DUP3 ADD MSTORE LOG2 PUSH2 0x1A8B JUMP JUMPDEST PUSH4 0x4E487B71 PUSH1 0xE0 SHL PUSH1 0x0 MSTORE PUSH1 0x11 PUSH1 0x4 MSTORE PUSH1 0x24 PUSH1 0x0 REVERT JUMPDEST DUP4 PUSH3 0xD2CED PUSH1 0xEB SHL PUSH1 0x84 SWAP3 PUSH1 0x40 MLOAD SWAP3 PUSH3 0x461BCD PUSH1 0xE5 SHL DUP5 MSTORE PUSH1 0x4 DUP5 ADD MSTORE PUSH1 0x23 PUSH1 0x24 DUP5 ADD MSTORE PUSH32 0x5472757374456E67696E653A20507269766163792073636F726520746F6F2068 PUSH1 0x44 DUP5 ADD MSTORE DUP3 ADD MSTORE REVERT JUMPDEST DUP4 PUSH9 0x40E8DEDE40D0D2CED PUSH1 0xBB SHL PUSH1 0x84 SWAP3 PUSH1 0x40 MLOAD SWAP3 PUSH3 0x461BCD PUSH1 0xE5 SHL DUP5 MSTORE PUSH1 0x4 DUP5 ADD MSTORE PUSH1 0x29 PUSH1 0x24 DUP5 ADD MSTORE PUSH32 0x5472757374456E67696E653A20456E7669726F6E6D656E74616C2073636F7265 PUSH1 0x44 DUP5 ADD MSTORE DUP3 ADD MSTORE REVERT JUMPDEST PUSH1 0x40 MLOAD PUSH3 0x461BCD PUSH1 0xE5 SHL DUP2 MSTORE PUSH1 0x4 DUP2 ADD DUP6 SWAP1 MSTORE PUSH1 0x24 DUP2 ADD DUP6 SWAP1 MSTORE PUSH32 0x5472757374456E67696E653A2055706461746520746F6F206672657175656E74 PUSH1 0x44 DUP3 ADD MSTORE REVERT JUMPDEST CALLVALUE PUSH2 0x202 JUMPI PUSH1 0x20 CALLDATASIZE PUSH1 0x3 NOT ADD SLT PUSH2 0x202 JUMPI PUSH2 0x1C87 PUSH2 0x2370 JUMP JUMPDEST PUSH2 0x1C8F PUSH2 0x25C3 JUMP JUMPDEST PUSH2 0x1C97 PUSH2 0x26D1 JUMP JUMPDEST PUSH1 0x1 PUSH1 0x1 PUSH1 0xA0 SHL SUB AND PUSH1 0x0 DUP2 DUP2 MSTORE PUSH1 0xA PUSH1 0x20 MSTORE PUSH1 0x40 SWAP1 KECCAK256 SLOAD PUSH1 0xFF AND ISZERO PUSH2 0x1D0A JUMPI DUP1 PUSH1 0x0 MSTORE PUSH1 0xA PUSH1 0x20 MSTORE PUSH1 0x40 PUSH1 0x0 KECCAK256 PUSH1 0xFF NOT DUP2 SLOAD AND SWAP1 SSTORE PUSH1 0x3 PUSH1 0x20 MSTORE PUSH1 0x5 PUSH1 0x40 PUSH1 0x0 KECCAK256 ADD PUSH2 0xFF00 NOT DUP2 SLOAD AND SWAP1 SSTORE PUSH32 0xE1434E25D6611E0DB941968FDC97811C982AC1602E951637D206F5FDDA9DD8F1 PUSH1 0x0 DUP1 LOG2 STOP JUMPDEST PUSH1 0x40 MLOAD PUSH3 0x461BCD PUSH1 0xE5 SHL DUP2 MSTORE PUSH1 0x20 PUSH1 0x4 DUP3 ADD MSTORE PUSH1 0x1C PUSH1 0x24 DUP3 ADD MSTORE PUSH32 0x5472757374456E67696E653A204E6F7420612076616C696461746F7200000000 PUSH1 0x44 DUP3 ADD MSTORE PUSH1 0x64 SWAP1 REVERT JUMPDEST CALLVALUE PUSH2 0x202 JUMPI PUSH1 0x20 CALLDATASIZE PUSH1 0x3 NOT ADD SLT PUSH2 0x202 JUMPI PUSH1 0x1 PUSH1 0x1 PUSH1 0xA0 SHL SUB PUSH2 0x1D70 PUSH2 0x2370 JUMP JUMPDEST AND PUSH1 0x0 MSTORE PUSH1 0x8 PUSH1 0x20 MSTORE PUSH1 0x20 PUSH1 0x40 PUSH1 0x0 KECCAK256 SLOAD PUSH1 0x40 MLOAD SWAP1 DUP2 MSTORE RETURN JUMPDEST CALLVALUE PUSH2 0x202 JUMPI PUSH1 0x0 CALLDATASIZE PUSH1 0x3 NOT ADD SLT PUSH2 0x202 JUMPI PUSH2 0x1DA2 PUSH2 0x25C3 JUMP JUMPDEST PUSH1 0x1 SLOAD PUSH1 0xFF DUP2 AND ISZERO PUSH2 0x1DE1 JUMPI PUSH1 0xFF NOT AND PUSH1 0x1 SSTORE PUSH32 0x5DB9EE0A495BF2E6FF9C91A7834C1BA4FDD244A5E8AA4E537BD38AEAE4B073AA PUSH1 0x20 PUSH1 0x40 MLOAD CALLER DUP2 MSTORE LOG1 STOP JUMPDEST PUSH1 0x40 MLOAD PUSH3 0x461BCD PUSH1 0xE5 SHL DUP2 MSTORE PUSH1 0x20 PUSH1 0x4 DUP3 ADD MSTORE PUSH1 0x14 PUSH1 0x24 DUP3 ADD MSTORE PUSH20 0x14185D5CD8589B194E881B9BDD081C185D5CD959 PUSH1 0x62 SHL PUSH1 0x44 DUP3 ADD MSTORE PUSH1 0x64 SWAP1 REVERT JUMPDEST CALLVALUE PUSH2 0x202 JUMPI PUSH1 0x40 CALLDATASIZE PUSH1 0x3 NOT ADD SLT PUSH2 0x202 JUMPI PUSH2 0x1E36 PUSH2 0x2370 JUMP JUMPDEST PUSH2 0x1E3E PUSH2 0x26D1 JUMP JUMPDEST CALLER PUSH1 0x0 MSTORE PUSH1 0x4 PUSH1 0x20 MSTORE PUSH2 0x1E58 PUSH1 0xFF PUSH1 0x40 PUSH1 0x0 KECCAK256 SLOAD AND PUSH2 0x2715 JUMP JUMPDEST PUSH1 0x1 PUSH1 0x1 PUSH1 0xA0 SHL SUB DUP2 AND PUSH1 0x0 SWAP1 DUP2 MSTORE PUSH1 0x4 PUSH1 0x20 MSTORE PUSH1 0x40 SWAP1 KECCAK256 SLOAD PUSH2 0x1E7D SWAP1 PUSH1 0xFF AND PUSH2 0x2715 JUMP JUMPDEST PUSH1 0x1 PUSH1 0x1 PUSH1 0xA0 SHL SUB DUP2 AND CALLER EQ PUSH2 0x214C JUMPI PUSH1 0x24 CALLDATALOAD ISZERO PUSH2 0x20EF JUMPI CALLER PUSH1 0x0 MSTORE PUSH1 0x6 PUSH1 0x20 MSTORE PUSH1 0xA PUSH1 0x40 PUSH1 0x0 KECCAK256 SLOAD LT ISZERO PUSH2 0x20A0 JUMPI PUSH1 0x3 PUSH1 0x20 MSTORE PUSH1 0x1 PUSH1 0x1 PUSH1 0xA0 SHL SUB DUP2 AND PUSH1 0x0 SWAP1 DUP2 MSTORE PUSH1 0x40 SWAP1 KECCAK256 PUSH1 0x4 DUP2 ADD SLOAD PUSH1 0x5 DUP2 LT ISZERO PUSH2 0x2045 JUMPI PUSH1 0x1 DUP2 ADD DUP1 SWAP2 GT PUSH2 0x1B72 JUMPI PUSH1 0x40 MLOAD PUSH2 0x1EE9 DUP2 PUSH2 0x23C7 JUMP JUMPDEST CALLER DUP2 MSTORE PUSH1 0x20 DUP2 ADD SWAP1 PUSH1 0x1 DUP1 PUSH1 0xA0 SHL SUB DUP6 AND DUP3 MSTORE PUSH1 0x40 DUP2 ADD SWAP1 PUSH1 0x24 CALLDATALOAD DUP3 MSTORE PUSH1 0x60 DUP2 ADD SWAP3 TIMESTAMP DUP5 MSTORE PUSH1 0x80 DUP3 ADD SWAP5 PUSH1 0x1 DUP7 MSTORE PUSH1 0xA0 DUP4 ADD MSTORE CALLER PUSH1 0x0 MSTORE PUSH1 0x5 PUSH1 0x20 MSTORE PUSH1 0x40 PUSH1 0x0 KECCAK256 DUP1 SLOAD PUSH1 0x1 PUSH1 0x40 SHL DUP2 LT ISZERO PUSH2 0x202F JUMPI PUSH2 0x1F47 SWAP2 PUSH1 0x1 DUP3 ADD DUP2 SSTORE PUSH2 0x2386 JUMP JUMPDEST SWAP6 SWAP1 SWAP6 PUSH2 0x2019 JUMPI DUP3 MLOAD DUP7 SLOAD PUSH1 0x1 PUSH1 0x1 PUSH1 0xA0 SHL SUB SWAP2 DUP3 AND PUSH1 0x1 PUSH1 0x1 PUSH1 0xA0 SHL SUB NOT SWAP2 DUP3 AND OR DUP9 SSTORE SWAP3 MLOAD PUSH1 0x1 DUP9 ADD DUP1 SLOAD SWAP2 SWAP1 SWAP3 AND SWAP4 AND SWAP3 SWAP1 SWAP3 OR SWAP1 SWAP2 SSTORE SWAP2 MLOAD PUSH1 0x2 DUP6 ADD SSTORE SWAP2 MLOAD PUSH1 0x3 DUP5 ADD SSTORE MLOAD PUSH1 0x4 DUP4 ADD DUP1 SLOAD PUSH1 0xFF NOT AND SWAP2 ISZERO ISZERO PUSH1 0xFF AND SWAP2 SWAP1 SWAP2 OR SWAP1 SSTORE PUSH1 0x5 SWAP1 PUSH1 0xA0 ADD MLOAD SWAP2 ADD SSTORE CALLER PUSH1 0x0 MSTORE PUSH1 0x6 PUSH1 0x20 MSTORE PUSH1 0x40 PUSH1 0x0 KECCAK256 PUSH2 0x1FC8 DUP2 SLOAD PUSH2 0x27F4 JUMP JUMPDEST SWAP1 SSTORE PUSH1 0x1 PUSH2 0x1FD8 PUSH2 0x5AA DUP4 PUSH2 0x277D JUMP JUMPDEST SWAP2 ADD SSTORE PUSH1 0x40 MLOAD PUSH1 0x24 CALLDATALOAD DUP2 MSTORE PUSH1 0x1 PUSH1 0x1 PUSH1 0xA0 SHL SUB SWAP1 SWAP2 AND SWAP1 CALLER SWAP1 PUSH32 0xB58A34790B02732CE9546BED68EF7D135420000706C11F509044F1A0EBDBA83B SWAP1 PUSH1 0x20 SWAP1 LOG3 STOP JUMPDEST PUSH4 0x4E487B71 PUSH1 0xE0 SHL PUSH1 0x0 MSTORE PUSH1 0x0 PUSH1 0x4 MSTORE PUSH1 0x24 PUSH1 0x0 REVERT JUMPDEST PUSH4 0x4E487B71 PUSH1 0xE0 SHL PUSH1 0x0 MSTORE PUSH1 0x41 PUSH1 0x4 MSTORE PUSH1 0x24 PUSH1 0x0 REVERT JUMPDEST PUSH1 0x40 MLOAD PUSH3 0x461BCD PUSH1 0xE5 SHL DUP2 MSTORE PUSH1 0x20 PUSH1 0x4 DUP3 ADD MSTORE PUSH1 0x2D PUSH1 0x24 DUP3 ADD MSTORE PUSH32 0x5472757374456E67696E653A2044656C6567617465206174206D61782064656C PUSH1 0x44 DUP3 ADD MSTORE PUSH13 0xCACEC2E8D2DEDC40C8CAE0E8D PUSH1 0x9B SHL PUSH1 0x64 DUP3 ADD MSTORE PUSH1 0x84 SWAP1 REVERT JUMPDEST PUSH1 0x40 MLOAD PUSH3 0x461BCD PUSH1 0xE5 SHL DUP2 MSTORE PUSH1 0x20 PUSH1 0x4 DUP3 ADD MSTORE PUSH1 0x21 PUSH1 0x24 DUP3 ADD MSTORE PUSH32 0x5472757374456E67696E653A20546F6F206D616E792064656C65676174696F6E PUSH1 0x44 DUP3 ADD MSTORE PUSH1 0x73 PUSH1 0xF8 SHL PUSH1 0x64 DUP3 ADD MSTORE PUSH1 0x84 SWAP1 REVERT JUMPDEST PUSH1 0x40 MLOAD PUSH3 0x461BCD PUSH1 0xE5 SHL DUP2 MSTORE PUSH1 0x20 PUSH1 0x4 DUP3 ADD MSTORE PUSH1 0x2F PUSH1 0x24 DUP3 ADD MSTORE PUSH32 0x5472757374456E67696E653A2044656C65676174696F6E20616D6F756E74206D PUSH1 0x44 DUP3 ADD MSTORE PUSH15 0x75737420626520706F736974697665 PUSH1 0x88 SHL PUSH1 0x64 DUP3 ADD MSTORE PUSH1 0x84 SWAP1 REVERT JUMPDEST PUSH1 0x40 MLOAD PUSH3 0x461BCD PUSH1 0xE5 SHL DUP2 MSTORE PUSH1 0x20 PUSH1 0x4 DUP3 ADD MSTORE PUSH1 0x24 DUP1 DUP3 ADD MSTORE PUSH32 0x5472757374456E67696E653A2043616E6E6F742064656C656761746520746F20 PUSH1 0x44 DUP3 ADD MSTORE PUSH4 0x39B2B633 PUSH1 0xE1 SHL PUSH1 0x64 DUP3 ADD MSTORE PUSH1 0x84 SWAP1 REVERT JUMPDEST CALLVALUE PUSH2 0x202 JUMPI PUSH1 0x20 CALLDATASIZE PUSH1 0x3 NOT ADD SLT PUSH2 0x202 JUMPI PUSH1 0x1 PUSH1 0x1 PUSH1 0xA0 SHL SUB PUSH2 0x21BE PUSH2 0x2370 JUMP JUMPDEST AND PUSH1 0x0 MSTORE PUSH1 0xC PUSH1 0x20 MSTORE PUSH1 0x20 PUSH1 0x40 PUSH1 0x0 KECCAK256 SLOAD PUSH1 0x40 MLOAD SWAP1 DUP2 MSTORE RETURN JUMPDEST CALLVALUE PUSH2 0x202 JUMPI PUSH1 0x20 CALLDATASIZE PUSH1 0x3 NOT ADD SLT PUSH2 0x202 JUMPI PUSH1 0x20 PUSH2 0x21FA PUSH2 0x21F5 PUSH2 0x2370 JUMP JUMPDEST PUSH2 0x294E JUMP JUMPDEST PUSH1 0x40 MLOAD SWAP1 DUP2 MSTORE RETURN JUMPDEST CALLVALUE PUSH2 0x202 JUMPI PUSH1 0x40 CALLDATASIZE PUSH1 0x3 NOT ADD SLT PUSH2 0x202 JUMPI PUSH2 0x221B PUSH2 0x2370 JUMP JUMPDEST PUSH1 0x24 CALLDATALOAD SWAP1 PUSH1 0x1 DUP1 PUSH1 0xA0 SHL SUB DUP1 SWAP2 AND PUSH1 0x0 MSTORE PUSH1 0x5 PUSH1 0x20 MSTORE PUSH1 0x40 PUSH1 0x0 KECCAK256 DUP1 SLOAD DUP4 LT ISZERO PUSH2 0x202 JUMPI PUSH1 0xC0 SWAP3 PUSH2 0x224B SWAP2 PUSH2 0x2386 JUMP JUMPDEST POP DUP2 DUP2 SLOAD AND SWAP2 PUSH1 0x1 DUP3 ADD SLOAD AND SWAP1 PUSH1 0x2 DUP2 ADD SLOAD PUSH1 0x3 DUP3 ADD SLOAD SWAP1 PUSH1 0x5 PUSH1 0xFF PUSH1 0x4 DUP6 ADD SLOAD AND SWAP4 ADD SLOAD SWAP4 PUSH1 0x40 MLOAD SWAP6 DUP7 MSTORE PUSH1 0x20 DUP7 ADD MSTORE PUSH1 0x40 DUP6 ADD MSTORE PUSH1 0x60 DUP5 ADD MSTORE ISZERO ISZERO PUSH1 0x80 DUP4 ADD MSTORE PUSH1 0xA0 DUP3 ADD MSTORE RETURN JUMPDEST CALLVALUE PUSH2 0x202 JUMPI PUSH1 0x0 CALLDATASIZE PUSH1 0x3 NOT ADD SLT PUSH2 0x202 JUMPI PUSH1 0x20 PUSH1 0x40 MLOAD PUSH1 0xA DUP2 MSTORE RETURN JUMPDEST CALLVALUE PUSH2 0x202 JUMPI PUSH1 0x20 CALLDATASIZE PUSH1 0x3 NOT ADD SLT PUSH2 0x202 JUMPI PUSH2 0x140 SWAP1 PUSH1 0x1 PUSH1 0x1 PUSH1 0xA0 SHL SUB PUSH2 0x22D5 PUSH2 0x2370 JUMP JUMPDEST AND PUSH1 0x0 MSTORE PUSH1 0x3 PUSH1 0x20 MSTORE PUSH1 0x40 PUSH1 0x0 KECCAK256 SWAP1 DUP2 SLOAD SWAP2 PUSH1 0x1 DUP2 ADD SLOAD SWAP2 PUSH1 0x2 DUP3 ADD SLOAD SWAP1 PUSH1 0xFF PUSH1 0x3 DUP5 ADD SLOAD PUSH1 0x4 DUP6 ADD SLOAD PUSH1 0x5 DUP7 ADD SLOAD SWAP2 PUSH1 0x6 DUP8 ADD SLOAD SWAP6 PUSH1 0x8 PUSH1 0x7 DUP10 ADD SLOAD SWAP9 ADD SLOAD SWAP9 PUSH1 0x40 MLOAD SWAP11 DUP12 MSTORE PUSH1 0x20 DUP12 ADD MSTORE PUSH1 0x40 DUP11 ADD MSTORE PUSH1 0x60 DUP10 ADD MSTORE PUSH1 0x80 DUP9 ADD MSTORE DUP2 DUP2 AND ISZERO ISZERO PUSH1 0xA0 DUP9 ADD MSTORE PUSH1 0x8 SHR AND ISZERO ISZERO PUSH1 0xC0 DUP7 ADD MSTORE DUP5 ADD MSTORE PUSH2 0x100 DUP4 ADD MSTORE PUSH2 0x120 DUP3 ADD MSTORE RETURN JUMPDEST CALLVALUE PUSH2 0x202 JUMPI PUSH1 0x0 CALLDATASIZE PUSH1 0x3 NOT ADD SLT PUSH2 0x202 JUMPI DUP1 PUSH1 0x0 PUSH1 0x20 SWAP3 MSTORE RETURN JUMPDEST PUSH1 0x4 CALLDATALOAD SWAP1 PUSH1 0x1 PUSH1 0x1 PUSH1 0xA0 SHL SUB DUP3 AND DUP3 SUB PUSH2 0x202 JUMPI JUMP JUMPDEST DUP1 SLOAD DUP3 LT ISZERO PUSH2 0x23A2 JUMPI PUSH1 0x0 MSTORE PUSH1 0x6 PUSH1 0x20 PUSH1 0x0 KECCAK256 SWAP2 MUL ADD SWAP1 PUSH1 0x0 SWAP1 JUMP JUMPDEST PUSH4 0x4E487B71 PUSH1 0xE0 SHL PUSH1 0x0 MSTORE PUSH1 0x32 PUSH1 0x4 MSTORE PUSH1 0x24 PUSH1 0x0 REVERT JUMPDEST PUSH1 0x44 CALLDATALOAD SWAP1 DUP2 ISZERO ISZERO DUP3 SUB PUSH2 0x202 JUMPI JUMP JUMPDEST PUSH1 0xC0 DUP2 ADD SWAP1 DUP2 LT PUSH8 0xFFFFFFFFFFFFFFFF DUP3 GT OR PUSH2 0x202F JUMPI PUSH1 0x40 MSTORE JUMP JUMPDEST PUSH2 0x140 DUP2 ADD SWAP1 DUP2 LT PUSH8 0xFFFFFFFFFFFFFFFF DUP3 GT OR PUSH2 0x202F JUMPI PUSH1 0x40 MSTORE JUMP JUMPDEST PUSH1 0xE0 DUP2 ADD SWAP1 DUP2 LT PUSH8 0xFFFFFFFFFFFFFFFF DUP3 GT OR PUSH2 0x202F JUMPI PUSH1 0x40 MSTORE JUMP JUMPDEST SWAP1 PUSH1 0x1F DUP1 NOT SWAP2 ADD AND DUP2 ADD SWAP1 DUP2 LT PUSH8 0xFFFFFFFFFFFFFFFF DUP3 GT OR PUSH2 0x202F JUMPI PUSH1 0x40 MSTORE JUMP JUMPDEST SWAP3 SWAP2 SWAP3 PUSH8 0xFFFFFFFFFFFFFFFF DUP3 GT PUSH2 0x202F JUMPI PUSH1 0x40 MLOAD SWAP2 PUSH2 0x2468 PUSH1 0x1F DUP3 ADD PUSH1 0x1F NOT AND PUSH1 0x20 ADD DUP5 PUSH2 0x241C JUMP JUMPDEST DUP3 SWAP5 DUP2 DUP5 MSTORE DUP2 DUP4 ADD GT PUSH2 0x202 JUMPI DUP3 DUP2 PUSH1 0x20 SWAP4 DUP5 PUSH1 0x0 SWAP7 ADD CALLDATACOPY ADD ADD MSTORE JUMP JUMPDEST SWAP1 DUP1 PUSH1 0x1F DUP4 ADD SLT ISZERO PUSH2 0x202 JUMPI DUP2 PUSH1 0x20 PUSH2 0x24A0 SWAP4 CALLDATALOAD SWAP2 ADD PUSH2 0x243E JUMP JUMPDEST SWAP1 JUMP JUMPDEST SWAP1 PUSH1 0x1 DUP3 DUP2 SHR SWAP3 AND DUP1 ISZERO PUSH2 0x24D3 JUMPI JUMPDEST PUSH1 0x20 DUP4 LT EQ PUSH2 0x24BD JUMPI JUMP JUMPDEST PUSH4 0x4E487B71 PUSH1 0xE0 SHL PUSH1 0x0 MSTORE PUSH1 0x22 PUSH1 0x4 MSTORE PUSH1 0x24 PUSH1 0x0 REVERT JUMPDEST SWAP2 PUSH1 0x7F AND SWAP2 PUSH2 0x24B2 JUMP JUMPDEST SWAP1 PUSH1 0x40 MLOAD SWAP2 DUP3 PUSH1 0x0 DUP3 SLOAD SWAP3 PUSH2 0x24F1 DUP5 PUSH2 0x24A3 JUMP JUMPDEST SWAP1 DUP2 DUP5 MSTORE PUSH1 0x1 SWAP5 DUP6 DUP2 AND SWAP1 DUP2 PUSH1 0x0 EQ PUSH2 0x2560 JUMPI POP PUSH1 0x1 EQ PUSH2 0x251D JUMPI JUMPDEST POP POP PUSH2 0x251B SWAP3 POP SUB DUP4 PUSH2 0x241C JUMP JUMPDEST JUMP JUMPDEST SWAP1 SWAP4 SWAP2 POP PUSH1 0x0 MSTORE PUSH1 0x20 SWAP1 DUP2 PUSH1 0x0 KECCAK256 SWAP4 PUSH1 0x0 SWAP2 JUMPDEST DUP2 DUP4 LT PUSH2 0x2548 JUMPI POP POP PUSH2 0x251B SWAP4 POP DUP3 ADD ADD CODESIZE DUP1 PUSH2 0x250D JUMP JUMPDEST DUP6 SLOAD DUP9 DUP5 ADD DUP6 ADD MSTORE SWAP5 DUP6 ADD SWAP5 DUP8 SWAP5 POP SWAP2 DUP4 ADD SWAP2 PUSH2 0x2530 JUMP JUMPDEST SWAP2 POP POP PUSH2 0x251B SWAP5 POP PUSH1 0x20 SWAP3 POP PUSH1 0xFF NOT AND DUP3 DUP5 ADD MSTORE ISZERO ISZERO PUSH1 0x5 SHL DUP3 ADD ADD CODESIZE DUP1 PUSH2 0x250D JUMP JUMPDEST SWAP2 SWAP1 DUP3 MLOAD SWAP3 DUP4 DUP3 MSTORE PUSH1 0x0 JUMPDEST DUP5 DUP2 LT PUSH2 0x25AF JUMPI POP POP DUP3 PUSH1 0x0 PUSH1 0x20 DUP1 SWAP5 SWAP6 DUP5 ADD ADD MSTORE PUSH1 0x1F DUP1 NOT SWAP2 ADD AND ADD ADD SWAP1 JUMP JUMPDEST PUSH1 0x20 DUP2 DUP4 ADD DUP2 ADD MLOAD DUP5 DUP4 ADD DUP3 ADD MSTORE ADD PUSH2 0x258E JUMP JUMPDEST PUSH1 0x1 SLOAD PUSH1 0x8 SHR PUSH1 0x1 PUSH1 0x1 PUSH1 0xA0 SHL SUB AND CALLER SUB PUSH2 0x25DA JUMPI JUMP JUMPDEST PUSH1 0x64 PUSH1 0x40 MLOAD PUSH3 0x461BCD PUSH1 0xE5 SHL DUP2 MSTORE PUSH1 0x20 PUSH1 0x4 DUP3 ADD MSTORE PUSH1 0x20 PUSH1 0x24 DUP3 ADD MSTORE PUSH32 0x4F776E61626C653A2063616C6C6572206973206E6F7420746865206F776E6572 PUSH1 0x44 DUP3 ADD MSTORE REVERT JUMPDEST ISZERO PUSH2 0x2625 JUMPI JUMP JUMPDEST PUSH1 0x40 MLOAD PUSH3 0x461BCD PUSH1 0xE5 SHL DUP2 MSTORE PUSH1 0x20 PUSH1 0x4 DUP3 ADD MSTORE PUSH1 0x33 PUSH1 0x24 DUP3 ADD MSTORE PUSH32 0x5472757374456E67696E653A204F6E6C792076616C696461746F72732063616E PUSH1 0x44 DUP3 ADD MSTORE PUSH19 0x1031B0B636103A3434B990333AB731BA34B7B7 PUSH1 0x69 SHL PUSH1 0x64 DUP3 ADD MSTORE PUSH1 0x84 SWAP1 REVERT JUMPDEST ISZERO PUSH2 0x268D JUMPI JUMP JUMPDEST PUSH1 0x64 PUSH1 0x40 MLOAD PUSH3 0x461BCD PUSH1 0xE5 SHL DUP2 MSTORE PUSH1 0x20 PUSH1 0x4 DUP3 ADD MSTORE PUSH1 0x20 PUSH1 0x24 DUP3 ADD MSTORE PUSH32 0x5472757374456E67696E653A20426173652073636F726520746F6F2068696768 PUSH1 0x44 DUP3 ADD MSTORE REVERT JUMPDEST PUSH1 0xFF PUSH1 0x1 SLOAD AND PUSH2 0x26DD JUMPI JUMP JUMPDEST PUSH1 0x40 MLOAD PUSH3 0x461BCD PUSH1 0xE5 SHL DUP2 MSTORE PUSH1 0x20 PUSH1 0x4 DUP3 ADD MSTORE PUSH1 0x10 PUSH1 0x24 DUP3 ADD MSTORE PUSH16 0x14185D5CD8589B194E881C185D5CD959 PUSH1 0x82 SHL PUSH1 0x44 DUP3 ADD MSTORE PUSH1 0x64 SWAP1 REVERT JUMPDEST ISZERO PUSH2 0x271C JUMPI JUMP JUMPDEST PUSH1 0x40 MLOAD PUSH3 0x461BCD PUSH1 0xE5 SHL DUP2 MSTORE PUSH1 0x20 PUSH1 0x4 DUP3 ADD MSTORE PUSH1 0x26 PUSH1 0x24 DUP3 ADD MSTORE PUSH32 0x5472757374456E67696E653A2057616C6C657420686173206E6F207472757374 PUSH1 0x44 DUP3 ADD MSTORE PUSH6 0x2073636F7265 PUSH1 0xD0 SHL PUSH1 0x64 DUP3 ADD MSTORE PUSH1 0x84 SWAP1 REVERT JUMPDEST SWAP2 SWAP1 DUP3 ADD DUP1 SWAP3 GT PUSH2 0x1B72 JUMPI JUMP JUMPDEST SWAP1 PUSH1 0x40 MLOAD PUSH2 0x278A DUP2 PUSH2 0x23E3 JUMP JUMPDEST PUSH2 0x120 PUSH1 0x8 DUP3 SWAP5 DUP1 SLOAD DUP5 MSTORE PUSH1 0x1 DUP2 ADD SLOAD PUSH1 0x20 DUP6 ADD MSTORE PUSH1 0x2 DUP2 ADD SLOAD PUSH1 0x40 DUP6 ADD MSTORE PUSH1 0x3 DUP2 ADD SLOAD PUSH1 0x60 DUP6 ADD MSTORE PUSH1 0x4 DUP2 ADD SLOAD PUSH1 0x80 DUP6 ADD MSTORE PUSH1 0xFF PUSH1 0x5 DUP3 ADD SLOAD DUP2 DUP2 AND ISZERO ISZERO PUSH1 0xA0 DUP8 ADD MSTORE DUP4 SHR AND ISZERO ISZERO PUSH1 0xC0 DUP6 ADD MSTORE PUSH1 0x6 DUP2 ADD SLOAD PUSH1 0xE0 DUP6 ADD MSTORE PUSH1 0x7 DUP2 ADD SLOAD PUSH2 0x100 DUP6 ADD MSTORE ADD SLOAD SWAP2 ADD MSTORE JUMP JUMPDEST PUSH1 0x0 NOT DUP2 EQ PUSH2 0x1B72 JUMPI PUSH1 0x1 ADD SWAP1 JUMP JUMPDEST SWAP1 PUSH1 0x1F DUP2 GT PUSH2 0x2811 JUMPI POP POP POP JUMP JUMPDEST PUSH1 0x0 SWAP2 DUP3 MSTORE PUSH1 0x20 DUP3 KECCAK256 SWAP1 PUSH1 0x20 PUSH1 0x1F DUP6 ADD PUSH1 0x5 SHR DUP4 ADD SWAP5 LT PUSH2 0x284D JUMPI JUMPDEST PUSH1 0x1F ADD PUSH1 0x5 SHR ADD SWAP2 JUMPDEST DUP3 DUP2 LT PUSH2 0x2842 JUMPI POP POP POP JUMP JUMPDEST DUP2 DUP2 SSTORE PUSH1 0x1 ADD PUSH2 0x2836 JUMP JUMPDEST SWAP1 SWAP3 POP DUP3 SWAP1 PUSH2 0x282D JUMP JUMPDEST PUSH8 0xFFFFFFFFFFFFFFFF DUP2 GT PUSH2 0x202F JUMPI PUSH1 0x5 SHL PUSH1 0x20 ADD SWAP1 JUMP JUMPDEST DUP2 DUP2 MUL SWAP3 SWAP2 DUP2 ISZERO SWAP2 DUP5 DIV EQ OR ISZERO PUSH2 0x1B72 JUMPI JUMP JUMPDEST SWAP2 SWAP1 DUP3 SUB SWAP2 DUP3 GT PUSH2 0x1B72 JUMPI JUMP JUMPDEST PUSH1 0x64 PUSH2 0x28A1 DUP3 MLOAD PUSH1 0x40 DUP5 ADD MLOAD SWAP1 PUSH2 0x286F JUMP JUMPDEST DIV PUSH2 0x100 DUP3 ADD MLOAD PUSH1 0x5 DUP2 MUL SWAP1 DUP1 DUP3 DIV PUSH1 0x5 EQ SWAP1 ISZERO OR ISZERO PUSH2 0x1B72 JUMPI PUSH2 0x28C4 SWAP2 PUSH2 0x2770 JUMP JUMPDEST PUSH2 0x120 DUP3 ADD MLOAD SWAP1 DUP2 PUSH1 0x1 SHL SWAP2 DUP1 DUP4 DIV PUSH1 0x2 EQ SWAP1 ISZERO OR ISZERO PUSH2 0x1B72 JUMPI PUSH1 0x80 SWAP2 PUSH2 0x28EA SWAP2 PUSH2 0x2770 JUMP JUMPDEST SWAP2 ADD DUP1 MLOAD PUSH2 0x2907 JUMPI JUMPDEST POP PUSH2 0x3E8 DUP1 DUP3 GT PUSH2 0x2902 JUMPI POP SWAP1 JUMP JUMPDEST SWAP1 POP SWAP1 JUMP JUMPDEST PUSH1 0xA DUP3 MUL SWAP1 DUP3 DUP3 DIV PUSH1 0xA EQ DUP4 ISZERO OR ISZERO PUSH2 0x1B72 JUMPI PUSH2 0x3E8 SWAP2 PUSH2 0x2929 SWAP2 MLOAD SWAP1 PUSH2 0x286F JUMP JUMPDEST DIV PUSH1 0x0 SWAP2 DUP2 DUP2 GT PUSH1 0x0 EQ PUSH2 0x2947 JUMPI PUSH2 0x2941 SWAP3 POP PUSH2 0x2882 JUMP JUMPDEST CODESIZE PUSH2 0x28F3 JUMP JUMPDEST POP POP PUSH2 0x2941 JUMP JUMPDEST PUSH1 0x1 PUSH1 0x1 PUSH1 0xA0 SHL SUB AND PUSH1 0x0 SWAP1 DUP2 MSTORE PUSH1 0x4 PUSH1 0x20 MSTORE PUSH1 0x40 SWAP1 KECCAK256 SLOAD PUSH1 0xFF AND ISZERO PUSH2 0x297F JUMPI PUSH1 0x3 PUSH1 0x20 MSTORE PUSH1 0x1 PUSH1 0x40 PUSH1 0x0 KECCAK256 ADD SLOAD SWAP1 JUMP JUMPDEST PUSH1 0x0 SWAP1 JUMP INVALID LOG2 PUSH5 0x6970667358 0x22 SLT KECCAK256 SWAP1 0xB0 0xD INVALID 0xE5 0xCF 0xD7 0xBA 0xB5 0xD3 0xE8 SWAP1 SWAP15 DUP13 0xE1 AND ISZERO ISZERO 0xC2 0xF7 0xE1 CALLDATASIZE 0xC7 0xCB BALANCE 0xD1 BYTE GASPRICE 0xE1 ADDRESS 0xB8 0xD0 PUSH5 0x736F6C6343 STOP ADDMOD SGT STOP CALLER "},"methodIdentifiers":{"DELEGATION_DECAY_RATE()":"13bb6a91","MAX_DELEGATION_DEPTH()":"7969a713","MAX_TRUST_SCORE()":"74c8d377","MIN_TRUST_SCORE()":"057e709c","addEnvironmentalData(address,string,uint256,string,uint256,bytes)":"5b2ccd7c","delegateTrust(address,uint256)":"32412d82","delegationCount(address)":"58fb5218","delegations(address,uint256)":"223fae09","environmentalData(address,uint256)":"7257d17a","environmentalDataCount(address)":"3fa70f34","getEnvironmentalData(address)":"8ecdf7ea","getPrivacyConfig(address)":"bdea05e9","getTrustDelegations(address)":"c6ee59fc","getTrustScore(address)":"5e09eea1","getTrustScoreValue(address)":"29afd353","hasTrustScore(address)":"6e548f20","initializeTrustScore(address,uint256,bool)":"47937cce","isOriginWallet(address)":"5d793350","isValidator(address)":"facd743b","lastUpdateTime(address)":"2ce9aead","originWallets(address)":"bdf16316","owner()":"8da5cb5b","pause()":"8456cb59","paused()":"5c975abb","privacyConfigs(address)":"f8d00813","registerValidator(address)":"9fca5169","removeValidator(address)":"40a141ff","renounceOwnership()":"715018a6","revokeTrustDelegation(address,uint256)":"56ca0b78","setUpdateFrequency(address,uint256)":"fec43acb","suspiciousActivityCount(address)":"f4310608","transferOwnership(address)":"f2fde38b","trustScores(address)":"12df0fc4","unpause()":"3f4ba83a","updateFrequency(address)":"45e97f80","updatePrivacyConfig(bool,bool,bool,bool,uint256)":"d7774f7d","updateTrustScore(address,uint256,uint256,uint256)":"417914d5","validators(address)":"fa52c7d8"}}}}}