{"contracts/Governance.sol":{"Governance":{"abi":[{"inputs":[{"internalType":"address","name":"_trustEngine","type":"address"}],"stateMutability":"nonpayable","type":"constructor"},{"anonymous":false,"inputs":[{"indexed":true,"internalType":"address","name":"previousOwner","type":"address"},{"indexed":true,"internalType":"address","name":"newOwner","type":"address"}],"name":"OwnershipTransferred","type":"event"},{"anonymous":false,"inputs":[{"indexed":true,"internalType":"uint256","name":"proposalId","type":"uint256"},{"indexed":true,"internalType":"address","name":"proposer","type":"address"},{"indexed":false,"internalType":"string","name":"title","type":"string"}],"name":"ProposalCreated","type":"event"},{"anonymous":false,"inputs":[{"indexed":true,"internalType":"uint256","name":"proposalId","type":"uint256"}],"name":"ProposalExecuted","type":"event"},{"anonymous":false,"inputs":[{"indexed":true,"internalType":"uint256","name":"proposalId","type":"uint256"},{"indexed":true,"internalType":"address","name":"voter","type":"address"},{"indexed":false,"internalType":"bool","name":"support","type":"bool"},{"indexed":false,"internalType":"uint256","name":"weight","type":"uint256"}],"name":"VoteCast","type":"event"},{"inputs":[],"name":"QUORUM","outputs":[{"internalType":"uint256","name":"","type":"uint256"}],"stateMutability":"view","type":"function"},{"inputs":[],"name":"VOTING_PERIOD","outputs":[{"internalType":"uint256","name":"","type":"uint256"}],"stateMutability":"view","type":"function"},{"inputs":[{"internalType":"string","name":"title","type":"string"}],"name":"createProposal","outputs":[],"stateMutability":"nonpayable","type":"function"},{"inputs":[{"internalType":"uint256","name":"proposalId","type":"uint256"}],"name":"executeProposal","outputs":[],"stateMutability":"nonpayable","type":"function"},{"inputs":[{"internalType":"uint256","name":"proposalId","type":"uint256"}],"name":"getProposal","outputs":[{"internalType":"address","name":"proposer","type":"address"},{"internalType":"string","name":"title","type":"string"},{"internalType":"uint256","name":"startTime","type":"uint256"},{"internalType":"uint256","name":"endTime","type":"uint256"},{"internalType":"uint256","name":"forVotes","type":"uint256"},{"internalType":"uint256","name":"againstVotes","type":"uint256"},{"internalType":"bool","name":"executed","type":"bool"},{"internalType":"bool","name":"canceled","type":"bool"}],"stateMutability":"view","type":"function"},{"inputs":[{"internalType":"uint256","name":"proposalId","type":"uint256"},{"internalType":"address","name":"user","type":"address"}],"name":"getUserVote","outputs":[{"internalType":"bool","name":"support","type":"bool"}],"stateMutability":"view","type":"function"},{"inputs":[{"internalType":"uint256","name":"proposalId","type":"uint256"},{"internalType":"address","name":"user","type":"address"}],"name":"hasUserVoted","outputs":[{"internalType":"bool","name":"","type":"bool"}],"stateMutability":"view","type":"function"},{"inputs":[{"internalType":"uint256","name":"","type":"uint256"},{"internalType":"address","name":"","type":"address"}],"name":"hasVoted","outputs":[{"internalType":"bool","name":"","type":"bool"}],"stateMutability":"view","type":"function"},{"inputs":[],"name":"owner","outputs":[{"internalType":"address","name":"","type":"address"}],"stateMutability":"view","type":"function"},{"inputs":[{"internalType":"uint256","name":"","type":"uint256"}],"name":"proposalAgainstVotes","outputs":[{"internalType":"uint256","name":"","type":"uint256"}],"stateMutability":"view","type":"function"},{"inputs":[{"internalType":"uint256","name":"","type":"uint256"}],"name":"proposalCanceled","outputs":[{"internalType":"bool","name":"","type":"bool"}],"stateMutability":"view","type":"function"},{"inputs":[],"name":"proposalCount","outputs":[{"internalType":"uint256","name":"","type":"uint256"}],"stateMutability":"view","type":"function"},{"inputs":[{"internalType":"uint256","name":"","type":"uint256"}],"name":"proposalEndTime","outputs":[{"internalType":"uint256","name":"","type":"uint256"}],"stateMutability":"view","type":"function"},{"inputs":[{"internalType":"uint256","name":"","type":"uint256"}],"name":"proposalExecuted","outputs":[{"internalType":"bool","name":"","type":"bool"}],"stateMutability":"view","type":"function"},{"inputs":[{"internalType":"uint256","name":"","type":"uint256"}],"name":"proposalForVotes","outputs":[{"internalType":"uint256","name":"","type":"uint256"}],"stateMutability":"view","type":"function"},{"inputs":[{"internalType":"uint256","name":"","type":"uint256"}],"name":"proposalProposer","outputs":[{"internalType":"address","name":"","type":"address"}],"stateMutability":"view","type":"function"},{"inputs":[{"internalType":"uint256","name":"","type":"uint256"}],"name":"proposalStartTime","outputs":[{"internalType":"uint256","name":"","type":"uint256"}],"stateMutability":"view","type":"function"},{"inputs":[{"internalType":"uint256","name":"","type":"uint256"}],"name":"proposalTitle","outputs":[{"internalType":"string","name":"","type":"string"}],"stateMutability":"view","type":"function"},{"inputs":[],"name":"renounceOwnership","outputs":[],"stateMutability":"nonpayable","type":"function"},{"inputs":[{"internalType":"address","name":"newOwner","type":"address"}],"name":"transferOwnership","outputs":[],"stateMutability":"nonpayable","type":"function"},{"inputs":[],"name":"trustEngine","outputs":[{"internalType":"contract TrustEngine","name":"","type":"address"}],"stateMutability":"view","type":"function"},{"inputs":[{"internalType":"uint256","name":"proposalId","type":"uint256"},{"internalType":"bool","name":"support","type":"bool"}],"name":"vote","outputs":[],"stateMutability":"nonpayable","type":"function"},{"inputs":[{"internalType":"uint256","name":"","type":"uint256"},{"internalType":"address","name":"","type":"address"}],"name":"voteSupport","outputs":[{"internalType":"bool","name":"","type":"bool"}],"stateMutability":"view","type":"function"}],"evm":{"bytecode":{"linkReferences":{},"object":"6080346100ac57601f61114138819003918201601f19168301916001600160401b038311848410176100b1578084926020946040528339810103126100ac57516001600160a01b0390818116908190036100ac57600160005560015460018060a01b0319903382821617600155604051933391167f8be0079c531659141344cd1fd0a4f28419497f9722a3daafe3b4186f6b6457e0600080a3600254161760025561107990816100c88239f35b600080fd5b634e487b7160e01b600052604160045260246000fdfe608060408181526004908136101561001657600080fd5b600092833560e01c90816303c7881a14610d2d575080630d61b51914610bc2578063103616e814610b955780631328323b14610b4e578063143489d014610b1b5780632e80d9b614610afe57806336bb004714610abe57806343859632146101f657806349c2a1a6146107a45780636e18113c14610777578063715018a61461071a57806377aa980d146106f15780638da5cb5b146106c857806394616451146106a0578063a7e2286014610678578063b1610d7e1461065a578063c7f758a814610587578063c8bb4dd51461055f578063c9d27afe14610288578063d00a9f0614610260578063da35c6641461023d578063dc296ae1146101f65763f2fde38b1461012157600080fd5b346101f25760203660031901126101f2576001600160a01b038235818116939192908490036101ee57610152610f3d565b831561019c575050600154826bffffffffffffffffffffffff60a01b821617600155167f8be0079c531659141344cd1fd0a4f28419497f9722a3daafe3b4186f6b6457e08380a380f35b906020608492519162461bcd60e51b8352820152602660248201527f4f776e61626c653a206e6577206f776e657220697320746865207a65726f206160448201526564647265737360d01b6064820152fd5b8480fd5b8280fd5b5090346101f257816003193601126101f2578160209360ff92610217610dca565b90358252600b86528282206001600160a01b039091168252855220549151911615158152f35b83823461025c578160031936011261025c57602090600d549051908152f35b5080fd5b5090346101f25760203660031901126101f25760209282913581526006845220549051908152f35b50346101f257806003193601126101f25781359060249081358015159485820361044d5784151580610553575b6102be90611004565b8487526020906005825283882054421061051e57858852600682528388205442116104ef578588526009825260ff848920541615806104dd575b1561049257858852600b8252838820338952825260ff84892054166104625760025484516329afd35360e01b815233928101929092529094829186919082906001600160a01b03165afa918215610458578792610405575b7fcbdf6214089cba887ecbf35a0b6a734589959c9763342c756bb2a80ca2bc9f6e94506103806014841015610f95565b858852600b8252838820338952825283882060ff1990600182825416179055868952600c8352848920338a5283528489209081541660ff89161790556000146103e957848752600781528287206103d8838254610fe1565b90555b82519586528501523393a380f35b848752600881528287206103fe838254610fe1565b90556103db565b91508084813d8311610451575b61041c8183610e1f565b8101031261044d577fcbdf6214089cba887ecbf35a0b6a734589959c9763342c756bb2a80ca2bc9f6e935191610350565b8680fd5b503d610412565b83513d89823e3d90fd5b600d8560649386519362461bcd60e51b85528401528201526c105b1c9958591e481d9bdd1959609a1b6044820152fd5b60228560849386519362461bcd60e51b85528401528201527f50726f706f73616c20616c72656164792065786563757465642f63616e63656c604482015261195960f21b6064820152fd5b50600a825260ff8489205416156102f8565b600c8560649386519362461bcd60e51b85528401528201526b159bdd1a5b99c8195b99195960a21b6044820152fd5b60128560649386519362461bcd60e51b855284015282015271159bdd1a5b99c81b9bdd081cdd185c9d195960721b6044820152fd5b50600d548511156102b5565b5090346101f25760203660031901126101f25760209282913581526007845220549051908152f35b50346101f25760209283600319360112610657578235908115158061064b575b6105b090611004565b8181526003855260018060a01b0383822054169385526105d1838220610e57565b918152600585528281205460068652838220546007875284832054906008885285842054926009895261062660ff8881818920541697600a8d522054169688519a8b9a8b5261010080918c01528a0190610efd565b968801526060870152608086015260a0850152151560c0840152151560e08301520390f35b50600d548211156105a7565b80fd5b83823461025c578160031936011261025c57602090516203f4808152f35b5090346101f25760203660031901126101f25760209282913581526008845220549051908152f35b5090346101f25760203660031901126101f25760209282913581526005845220549051908152f35b83823461025c578160031936011261025c5760015490516001600160a01b039091168152602090f35b83823461025c578160031936011261025c5760025490516001600160a01b039091168152602090f35b8334610657578060031936011261065757610733610f3d565b600180546001600160a01b0319811690915581906001600160a01b03167f8be0079c531659141344cd1fd0a4f28419497f9722a3daafe3b4186f6b6457e08280a380f35b5090346101f25760203660031901126101f2578160209360ff92358152600a855220541690519015158152f35b5090346101f25760209182600319360112610aba5781359067ffffffffffffffff92838311610ab65736602384011215610ab65782810135848111610aa35782519387601f19916107fc8984601f8701160188610e1f565b838752602493368582840101116101f25780858b9301838a013787010152845115610a715760025484516329afd35360e01b815233858201529088908290859082906001600160a01b03165afa908115610a67578991610a35575b50601e610865911015610f95565b600d5460001996878214610a235760018092019788600d55888b5260038a52868b20336bffffffffffffffffffffffff60a01b825416179055858a52868b20938851928311610a11576108b88554610de5565b601f81116109c9575b508a90601f84116001146109685750829383918d9461095d575b501b9260031b1c19161790555b8487526005865242838820556203f48042019182421161094c57505083865260068552818620555183815233937f7585f467599d0f008985f231af99293be388626ac16ca59505c2f8f88969cd639282916109469190830190610efd565b0390a380f35b634e487b7160e01b88526011905286fd5b8a01519350386108db565b858d528b8d20929190849081168e8e888e5b8484106109b0575050505010610998575b505050811b0190556108e8565b8901519060f88460031b161c1916905538808061098b565b86015188559096019593840193879350018e888e61097a565b858d528b8d20601f850160051c8101918d8610610a07575b601f0160051c019085908e5b8382106109fc575050506108c1565b81550185908e6109ed565b90915081906109e1565b634e487b7160e01b8c5260418752858cfd5b634e487b7160e01b8a5260118552838afd5b90508781813d8311610a60575b610a4c8183610e1f565b81010312610a5c5751601e610857565b8880fd5b503d610a42565b85513d8b823e3d90fd5b50600e9086606494519362461bcd60e51b85528401528201526d151a5d1b19481c995c5d5a5c995960921b6044820152fd5b634e487b7160e01b875260418252602487fd5b8580fd5b8380fd5b5090346101f25760203660031901126101f25781610afa9382610ae79335825260205220610e57565b9051918291602083526020830190610efd565b0390f35b83823461025c578160031936011261025c57602090516103e88152f35b5090346101f25760203660031901126101f25735825260036020908152918190205490516001600160a01b039091168152f35b5090346101f257816003193601126101f2578160209360ff92610b6f610dca565b90358252600c86528282206001600160a01b039091168252855220549151911615158152f35b5090346101f25760203660031901126101f2578160209360ff923581526009855220541690519015158152f35b50346101f257602080600319360112610aba57823592610be0610f3d565b83151580610d21575b610bf290611004565b8385526006825282852054421115610ced578385526009825260ff8386205416610cac57838552600782526103e8610c3584872054600885528588205490610fe1565b10610c765750828452600990528220805460ff191660011790557f712ae1383f79ac853f8d882153778e0260ef8f03b504e2866e0593e04d2b291f8280a280f35b915162461bcd60e51b8152918201526012602482015271145d5bdc9d5b481b9bdd081c995858da195960721b6044820152606490fd5b915162461bcd60e51b815291820152601960248201527f50726f706f73616c20616c7265616479206578656375746564000000000000006044820152606490fd5b915162461bcd60e51b815291820152601060248201526f159bdd1a5b99c81b9bdd08195b99195960821b6044820152606490fd5b50600d54841115610be9565b8491503461025c578260031936011261025c578335610d4a610dca565b91818452602095600b87528585209360018060a01b031693848652875260ff868620541615610d9557505091839160ff938252600c8652828220908252855220541690519015158152f35b62461bcd60e51b825281018690526012602482015271155cd95c881a185cc81b9bdd081d9bdd195960721b6044820152606490fd5b602435906001600160a01b0382168203610de057565b600080fd5b90600182811c92168015610e15575b6020831014610dff57565b634e487b7160e01b600052602260045260246000fd5b91607f1691610df4565b90601f8019910116810190811067ffffffffffffffff821117610e4157604052565b634e487b7160e01b600052604160045260246000fd5b9060405191826000825492610e6b84610de5565b908184526001948581169081600014610eda5750600114610e97575b5050610e9592500383610e1f565b565b9093915060005260209081600020936000915b818310610ec2575050610e9593508201013880610e87565b85548884018501529485019487945091830191610eaa565b915050610e9594506020925060ff191682840152151560051b8201013880610e87565b919082519283825260005b848110610f29575050826000602080949584010152601f8019910116010190565b602081830181015184830182015201610f08565b6001546001600160a01b03163303610f5157565b606460405162461bcd60e51b815260206004820152602060248201527f4f776e61626c653a2063616c6c6572206973206e6f7420746865206f776e65726044820152fd5b15610f9c57565b60405162461bcd60e51b815260206004820152601860248201527f496e73756666696369656e742074727573742073636f726500000000000000006044820152606490fd5b91908201809211610fee57565b634e487b7160e01b600052601160045260246000fd5b1561100b57565b60405162461bcd60e51b815260206004820152601060248201526f125b9d985b1a59081c1c9bdc1bdcd85b60821b6044820152606490fdfea26469706673582212206814da40dc549faf0e3f6d9dd4f7ab75cce1d450535af69a5078571c19499f4e64736f6c63430008130033","opcodes":"PUSH1 0x80 CALLVALUE PUSH2 0xAC JUMPI PUSH1 0x1F PUSH2 0x1141 CODESIZE DUP2 SWAP1 SUB SWAP2 DUP3 ADD PUSH1 0x1F NOT AND DUP4 ADD SWAP2 PUSH1 0x1 PUSH1 0x1 PUSH1 0x40 SHL SUB DUP4 GT DUP5 DUP5 LT OR PUSH2 0xB1 JUMPI DUP1 DUP5 SWAP3 PUSH1 0x20 SWAP5 PUSH1 0x40 MSTORE DUP4 CODECOPY DUP2 ADD SUB SLT PUSH2 0xAC JUMPI MLOAD PUSH1 0x1 PUSH1 0x1 PUSH1 0xA0 SHL SUB SWAP1 DUP2 DUP2 AND SWAP1 DUP2 SWAP1 SUB PUSH2 0xAC JUMPI PUSH1 0x1 PUSH1 0x0 SSTORE PUSH1 0x1 SLOAD PUSH1 0x1 DUP1 PUSH1 0xA0 SHL SUB NOT SWAP1 CALLER DUP3 DUP3 AND OR PUSH1 0x1 SSTORE PUSH1 0x40 MLOAD SWAP4 CALLER SWAP2 AND PUSH32 0x8BE0079C531659141344CD1FD0A4F28419497F9722A3DAAFE3B4186F6B6457E0 PUSH1 0x0 DUP1 LOG3 PUSH1 0x2 SLOAD AND OR PUSH1 0x2 SSTORE PUSH2 0x1079 SWAP1 DUP2 PUSH2 0xC8 DUP3 CODECOPY RETURN JUMPDEST PUSH1 0x0 DUP1 REVERT JUMPDEST PUSH4 0x4E487B71 PUSH1 0xE0 SHL PUSH1 0x0 MSTORE PUSH1 0x41 PUSH1 0x4 MSTORE PUSH1 0x24 PUSH1 0x0 REVERT INVALID PUSH1 0x80 PUSH1 0x40 DUP2 DUP2 MSTORE PUSH1 0x4 SWAP1 DUP2 CALLDATASIZE LT ISZERO PUSH2 0x16 JUMPI PUSH1 0x0 DUP1 REVERT JUMPDEST PUSH1 0x0 SWAP3 DUP4 CALLDATALOAD PUSH1 0xE0 SHR SWAP1 DUP2 PUSH4 0x3C7881A EQ PUSH2 0xD2D JUMPI POP DUP1 PUSH4 0xD61B519 EQ PUSH2 0xBC2 JUMPI DUP1 PUSH4 0x103616E8 EQ PUSH2 0xB95 JUMPI DUP1 PUSH4 0x1328323B EQ PUSH2 0xB4E JUMPI DUP1 PUSH4 0x143489D0 EQ PUSH2 0xB1B JUMPI DUP1 PUSH4 0x2E80D9B6 EQ PUSH2 0xAFE JUMPI DUP1 PUSH4 0x36BB0047 EQ PUSH2 0xABE JUMPI DUP1 PUSH4 0x43859632 EQ PUSH2 0x1F6 JUMPI DUP1 PUSH4 0x49C2A1A6 EQ PUSH2 0x7A4 JUMPI DUP1 PUSH4 0x6E18113C EQ PUSH2 0x777 JUMPI DUP1 PUSH4 0x715018A6 EQ PUSH2 0x71A JUMPI DUP1 PUSH4 0x77AA980D EQ PUSH2 0x6F1 JUMPI DUP1 PUSH4 0x8DA5CB5B EQ PUSH2 0x6C8 JUMPI DUP1 PUSH4 0x94616451 EQ PUSH2 0x6A0 JUMPI DUP1 PUSH4 0xA7E22860 EQ PUSH2 0x678 JUMPI DUP1 PUSH4 0xB1610D7E EQ PUSH2 0x65A JUMPI DUP1 PUSH4 0xC7F758A8 EQ PUSH2 0x587 JUMPI DUP1 PUSH4 0xC8BB4DD5 EQ PUSH2 0x55F JUMPI DUP1 PUSH4 0xC9D27AFE EQ PUSH2 0x288 JUMPI DUP1 PUSH4 0xD00A9F06 EQ PUSH2 0x260 JUMPI DUP1 PUSH4 0xDA35C664 EQ PUSH2 0x23D JUMPI DUP1 PUSH4 0xDC296AE1 EQ PUSH2 0x1F6 JUMPI PUSH4 0xF2FDE38B EQ PUSH2 0x121 JUMPI PUSH1 0x0 DUP1 REVERT JUMPDEST CALLVALUE PUSH2 0x1F2 JUMPI PUSH1 0x20 CALLDATASIZE PUSH1 0x3 NOT ADD SLT PUSH2 0x1F2 JUMPI PUSH1 0x1 PUSH1 0x1 PUSH1 0xA0 SHL SUB DUP3 CALLDATALOAD DUP2 DUP2 AND SWAP4 SWAP2 SWAP3 SWAP1 DUP5 SWAP1 SUB PUSH2 0x1EE JUMPI PUSH2 0x152 PUSH2 0xF3D JUMP JUMPDEST DUP4 ISZERO PUSH2 0x19C JUMPI POP POP PUSH1 0x1 SLOAD DUP3 PUSH12 0xFFFFFFFFFFFFFFFFFFFFFFFF PUSH1 0xA0 SHL DUP3 AND OR PUSH1 0x1 SSTORE AND PUSH32 0x8BE0079C531659141344CD1FD0A4F28419497F9722A3DAAFE3B4186F6B6457E0 DUP4 DUP1 LOG3 DUP1 RETURN JUMPDEST SWAP1 PUSH1 0x20 PUSH1 0x84 SWAP3 MLOAD SWAP2 PUSH3 0x461BCD PUSH1 0xE5 SHL DUP4 MSTORE DUP3 ADD MSTORE PUSH1 0x26 PUSH1 0x24 DUP3 ADD MSTORE PUSH32 0x4F776E61626C653A206E6577206F776E657220697320746865207A65726F2061 PUSH1 0x44 DUP3 ADD MSTORE PUSH6 0x646472657373 PUSH1 0xD0 SHL PUSH1 0x64 DUP3 ADD MSTORE REVERT JUMPDEST DUP5 DUP1 REVERT JUMPDEST DUP3 DUP1 REVERT JUMPDEST POP SWAP1 CALLVALUE PUSH2 0x1F2 JUMPI DUP2 PUSH1 0x3 NOT CALLDATASIZE ADD SLT PUSH2 0x1F2 JUMPI DUP2 PUSH1 0x20 SWAP4 PUSH1 0xFF SWAP3 PUSH2 0x217 PUSH2 0xDCA JUMP JUMPDEST SWAP1 CALLDATALOAD DUP3 MSTORE PUSH1 0xB DUP7 MSTORE DUP3 DUP3 KECCAK256 PUSH1 0x1 PUSH1 0x1 PUSH1 0xA0 SHL SUB SWAP1 SWAP2 AND DUP3 MSTORE DUP6 MSTORE KECCAK256 SLOAD SWAP2 MLOAD SWAP2 AND ISZERO ISZERO DUP2 MSTORE RETURN JUMPDEST DUP4 DUP3 CALLVALUE PUSH2 0x25C JUMPI DUP2 PUSH1 0x3 NOT CALLDATASIZE ADD SLT PUSH2 0x25C JUMPI PUSH1 0x20 SWAP1 PUSH1 0xD SLOAD SWAP1 MLOAD SWAP1 DUP2 MSTORE RETURN JUMPDEST POP DUP1 REVERT JUMPDEST POP SWAP1 CALLVALUE PUSH2 0x1F2 JUMPI PUSH1 0x20 CALLDATASIZE PUSH1 0x3 NOT ADD SLT PUSH2 0x1F2 JUMPI PUSH1 0x20 SWAP3 DUP3 SWAP2 CALLDATALOAD DUP2 MSTORE PUSH1 0x6 DUP5 MSTORE KECCAK256 SLOAD SWAP1 MLOAD SWAP1 DUP2 MSTORE RETURN JUMPDEST POP CALLVALUE PUSH2 0x1F2 JUMPI DUP1 PUSH1 0x3 NOT CALLDATASIZE ADD SLT PUSH2 0x1F2 JUMPI DUP2 CALLDATALOAD SWAP1 PUSH1 0x24 SWAP1 DUP2 CALLDATALOAD DUP1 ISZERO ISZERO SWAP5 DUP6 DUP3 SUB PUSH2 0x44D JUMPI DUP5 ISZERO ISZERO DUP1 PUSH2 0x553 JUMPI JUMPDEST PUSH2 0x2BE SWAP1 PUSH2 0x1004 JUMP JUMPDEST DUP5 DUP8 MSTORE PUSH1 0x20 SWAP1 PUSH1 0x5 DUP3 MSTORE DUP4 DUP9 KECCAK256 SLOAD TIMESTAMP LT PUSH2 0x51E JUMPI DUP6 DUP9 MSTORE PUSH1 0x6 DUP3 MSTORE DUP4 DUP9 KECCAK256 SLOAD TIMESTAMP GT PUSH2 0x4EF JUMPI DUP6 DUP9 MSTORE PUSH1 0x9 DUP3 MSTORE PUSH1 0xFF DUP5 DUP10 KECCAK256 SLOAD AND ISZERO DUP1 PUSH2 0x4DD JUMPI JUMPDEST ISZERO PUSH2 0x492 JUMPI DUP6 DUP9 MSTORE PUSH1 0xB DUP3 MSTORE DUP4 DUP9 KECCAK256 CALLER DUP10 MSTORE DUP3 MSTORE PUSH1 0xFF DUP5 DUP10 KECCAK256 SLOAD AND PUSH2 0x462 JUMPI PUSH1 0x2 SLOAD DUP5 MLOAD PUSH4 0x29AFD353 PUSH1 0xE0 SHL DUP2 MSTORE CALLER SWAP3 DUP2 ADD SWAP3 SWAP1 SWAP3 MSTORE SWAP1 SWAP5 DUP3 SWAP2 DUP7 SWAP2 SWAP1 DUP3 SWAP1 PUSH1 0x1 PUSH1 0x1 PUSH1 0xA0 SHL SUB AND GAS STATICCALL SWAP2 DUP3 ISZERO PUSH2 0x458 JUMPI DUP8 SWAP3 PUSH2 0x405 JUMPI JUMPDEST PUSH32 0xCBDF6214089CBA887ECBF35A0B6A734589959C9763342C756BB2A80CA2BC9F6E SWAP5 POP PUSH2 0x380 PUSH1 0x14 DUP5 LT ISZERO PUSH2 0xF95 JUMP JUMPDEST DUP6 DUP9 MSTORE PUSH1 0xB DUP3 MSTORE DUP4 DUP9 KECCAK256 CALLER DUP10 MSTORE DUP3 MSTORE DUP4 DUP9 KECCAK256 PUSH1 0xFF NOT SWAP1 PUSH1 0x1 DUP3 DUP3 SLOAD AND OR SWAP1 SSTORE DUP7 DUP10 MSTORE PUSH1 0xC DUP4 MSTORE DUP5 DUP10 KECCAK256 CALLER DUP11 MSTORE DUP4 MSTORE DUP5 DUP10 KECCAK256 SWAP1 DUP2 SLOAD AND PUSH1 0xFF DUP10 AND OR SWAP1 SSTORE PUSH1 0x0 EQ PUSH2 0x3E9 JUMPI DUP5 DUP8 MSTORE PUSH1 0x7 DUP2 MSTORE DUP3 DUP8 KECCAK256 PUSH2 0x3D8 DUP4 DUP3 SLOAD PUSH2 0xFE1 JUMP JUMPDEST SWAP1 SSTORE JUMPDEST DUP3 MLOAD SWAP6 DUP7 MSTORE DUP6 ADD MSTORE CALLER SWAP4 LOG3 DUP1 RETURN JUMPDEST DUP5 DUP8 MSTORE PUSH1 0x8 DUP2 MSTORE DUP3 DUP8 KECCAK256 PUSH2 0x3FE DUP4 DUP3 SLOAD PUSH2 0xFE1 JUMP JUMPDEST SWAP1 SSTORE PUSH2 0x3DB JUMP JUMPDEST SWAP2 POP DUP1 DUP5 DUP2 RETURNDATASIZE DUP4 GT PUSH2 0x451 JUMPI JUMPDEST PUSH2 0x41C DUP2 DUP4 PUSH2 0xE1F JUMP JUMPDEST DUP2 ADD SUB SLT PUSH2 0x44D JUMPI PUSH32 0xCBDF6214089CBA887ECBF35A0B6A734589959C9763342C756BB2A80CA2BC9F6E SWAP4 MLOAD SWAP2 PUSH2 0x350 JUMP JUMPDEST DUP7 DUP1 REVERT JUMPDEST POP RETURNDATASIZE PUSH2 0x412 JUMP JUMPDEST DUP4 MLOAD RETURNDATASIZE DUP10 DUP3 RETURNDATACOPY RETURNDATASIZE SWAP1 REVERT JUMPDEST PUSH1 0xD DUP6 PUSH1 0x64 SWAP4 DUP7 MLOAD SWAP4 PUSH3 0x461BCD PUSH1 0xE5 SHL DUP6 MSTORE DUP5 ADD MSTORE DUP3 ADD MSTORE PUSH13 0x105B1C9958591E481D9BDD1959 PUSH1 0x9A SHL PUSH1 0x44 DUP3 ADD MSTORE REVERT JUMPDEST PUSH1 0x22 DUP6 PUSH1 0x84 SWAP4 DUP7 MLOAD SWAP4 PUSH3 0x461BCD PUSH1 0xE5 SHL DUP6 MSTORE DUP5 ADD MSTORE DUP3 ADD MSTORE PUSH32 0x50726F706F73616C20616C72656164792065786563757465642F63616E63656C PUSH1 0x44 DUP3 ADD MSTORE PUSH2 0x1959 PUSH1 0xF2 SHL PUSH1 0x64 DUP3 ADD MSTORE REVERT JUMPDEST POP PUSH1 0xA DUP3 MSTORE PUSH1 0xFF DUP5 DUP10 KECCAK256 SLOAD AND ISZERO PUSH2 0x2F8 JUMP JUMPDEST PUSH1 0xC DUP6 PUSH1 0x64 SWAP4 DUP7 MLOAD SWAP4 PUSH3 0x461BCD PUSH1 0xE5 SHL DUP6 MSTORE DUP5 ADD MSTORE DUP3 ADD MSTORE PUSH12 0x159BDD1A5B99C8195B991959 PUSH1 0xA2 SHL PUSH1 0x44 DUP3 ADD MSTORE REVERT JUMPDEST PUSH1 0x12 DUP6 PUSH1 0x64 SWAP4 DUP7 MLOAD SWAP4 PUSH3 0x461BCD PUSH1 0xE5 SHL DUP6 MSTORE DUP5 ADD MSTORE DUP3 ADD MSTORE PUSH18 0x159BDD1A5B99C81B9BDD081CDD185C9D1959 PUSH1 0x72 SHL PUSH1 0x44 DUP3 ADD MSTORE REVERT JUMPDEST POP PUSH1 0xD SLOAD DUP6 GT ISZERO PUSH2 0x2B5 JUMP JUMPDEST POP SWAP1 CALLVALUE PUSH2 0x1F2 JUMPI PUSH1 0x20 CALLDATASIZE PUSH1 0x3 NOT ADD SLT PUSH2 0x1F2 JUMPI PUSH1 0x20 SWAP3 DUP3 SWAP2 CALLDATALOAD DUP2 MSTORE PUSH1 0x7 DUP5 MSTORE KECCAK256 SLOAD SWAP1 MLOAD SWAP1 DUP2 MSTORE RETURN JUMPDEST POP CALLVALUE PUSH2 0x1F2 JUMPI PUSH1 0x20 SWAP3 DUP4 PUSH1 0x3 NOT CALLDATASIZE ADD SLT PUSH2 0x657 JUMPI DUP3 CALLDATALOAD SWAP1 DUP2 ISZERO ISZERO DUP1 PUSH2 0x64B JUMPI JUMPDEST PUSH2 0x5B0 SWAP1 PUSH2 0x1004 JUMP JUMPDEST DUP2 DUP2 MSTORE PUSH1 0x3 DUP6 MSTORE PUSH1 0x1 DUP1 PUSH1 0xA0 SHL SUB DUP4 DUP3 KECCAK256 SLOAD AND SWAP4 DUP6 MSTORE PUSH2 0x5D1 DUP4 DUP3 KECCAK256 PUSH2 0xE57 JUMP JUMPDEST SWAP2 DUP2 MSTORE PUSH1 0x5 DUP6 MSTORE DUP3 DUP2 KECCAK256 SLOAD PUSH1 0x6 DUP7 MSTORE DUP4 DUP3 KECCAK256 SLOAD PUSH1 0x7 DUP8 MSTORE DUP5 DUP4 KECCAK256 SLOAD SWAP1 PUSH1 0x8 DUP9 MSTORE DUP6 DUP5 KECCAK256 SLOAD SWAP3 PUSH1 0x9 DUP10 MSTORE PUSH2 0x626 PUSH1 0xFF DUP9 DUP2 DUP2 DUP10 KECCAK256 SLOAD AND SWAP8 PUSH1 0xA DUP14 MSTORE KECCAK256 SLOAD AND SWAP7 DUP9 MLOAD SWAP11 DUP12 SWAP11 DUP12 MSTORE PUSH2 0x100 DUP1 SWAP2 DUP13 ADD MSTORE DUP11 ADD SWAP1 PUSH2 0xEFD JUMP JUMPDEST SWAP7 DUP9 ADD MSTORE PUSH1 0x60 DUP8 ADD MSTORE PUSH1 0x80 DUP7 ADD MSTORE PUSH1 0xA0 DUP6 ADD MSTORE ISZERO ISZERO PUSH1 0xC0 DUP5 ADD MSTORE ISZERO ISZERO PUSH1 0xE0 DUP4 ADD MSTORE SUB SWAP1 RETURN JUMPDEST POP PUSH1 0xD SLOAD DUP3 GT ISZERO PUSH2 0x5A7 JUMP JUMPDEST DUP1 REVERT JUMPDEST DUP4 DUP3 CALLVALUE PUSH2 0x25C JUMPI DUP2 PUSH1 0x3 NOT CALLDATASIZE ADD SLT PUSH2 0x25C JUMPI PUSH1 0x20 SWAP1 MLOAD PUSH3 0x3F480 DUP2 MSTORE RETURN JUMPDEST POP SWAP1 CALLVALUE PUSH2 0x1F2 JUMPI PUSH1 0x20 CALLDATASIZE PUSH1 0x3 NOT ADD SLT PUSH2 0x1F2 JUMPI PUSH1 0x20 SWAP3 DUP3 SWAP2 CALLDATALOAD DUP2 MSTORE PUSH1 0x8 DUP5 MSTORE KECCAK256 SLOAD SWAP1 MLOAD SWAP1 DUP2 MSTORE RETURN JUMPDEST POP SWAP1 CALLVALUE PUSH2 0x1F2 JUMPI PUSH1 0x20 CALLDATASIZE PUSH1 0x3 NOT ADD SLT PUSH2 0x1F2 JUMPI PUSH1 0x20 SWAP3 DUP3 SWAP2 CALLDATALOAD DUP2 MSTORE PUSH1 0x5 DUP5 MSTORE KECCAK256 SLOAD SWAP1 MLOAD SWAP1 DUP2 MSTORE RETURN JUMPDEST DUP4 DUP3 CALLVALUE PUSH2 0x25C JUMPI DUP2 PUSH1 0x3 NOT CALLDATASIZE ADD SLT PUSH2 0x25C JUMPI PUSH1 0x1 SLOAD SWAP1 MLOAD PUSH1 0x1 PUSH1 0x1 PUSH1 0xA0 SHL SUB SWAP1 SWAP2 AND DUP2 MSTORE PUSH1 0x20 SWAP1 RETURN JUMPDEST DUP4 DUP3 CALLVALUE PUSH2 0x25C JUMPI DUP2 PUSH1 0x3 NOT CALLDATASIZE ADD SLT PUSH2 0x25C JUMPI PUSH1 0x2 SLOAD SWAP1 MLOAD PUSH1 0x1 PUSH1 0x1 PUSH1 0xA0 SHL SUB SWAP1 SWAP2 AND DUP2 MSTORE PUSH1 0x20 SWAP1 RETURN JUMPDEST DUP4 CALLVALUE PUSH2 0x657 JUMPI DUP1 PUSH1 0x3 NOT CALLDATASIZE ADD SLT PUSH2 0x657 JUMPI PUSH2 0x733 PUSH2 0xF3D JUMP JUMPDEST PUSH1 0x1 DUP1 SLOAD PUSH1 0x1 PUSH1 0x1 PUSH1 0xA0 SHL SUB NOT DUP2 AND SWAP1 SWAP2 SSTORE DUP2 SWAP1 PUSH1 0x1 PUSH1 0x1 PUSH1 0xA0 SHL SUB AND PUSH32 0x8BE0079C531659141344CD1FD0A4F28419497F9722A3DAAFE3B4186F6B6457E0 DUP3 DUP1 LOG3 DUP1 RETURN JUMPDEST POP SWAP1 CALLVALUE PUSH2 0x1F2 JUMPI PUSH1 0x20 CALLDATASIZE PUSH1 0x3 NOT ADD SLT PUSH2 0x1F2 JUMPI DUP2 PUSH1 0x20 SWAP4 PUSH1 0xFF SWAP3 CALLDATALOAD DUP2 MSTORE PUSH1 0xA DUP6 MSTORE KECCAK256 SLOAD AND SWAP1 MLOAD SWAP1 ISZERO ISZERO DUP2 MSTORE RETURN JUMPDEST POP SWAP1 CALLVALUE PUSH2 0x1F2 JUMPI PUSH1 0x20 SWAP2 DUP3 PUSH1 0x3 NOT CALLDATASIZE ADD SLT PUSH2 0xABA JUMPI DUP2 CALLDATALOAD SWAP1 PUSH8 0xFFFFFFFFFFFFFFFF SWAP3 DUP4 DUP4 GT PUSH2 0xAB6 JUMPI CALLDATASIZE PUSH1 0x23 DUP5 ADD SLT ISZERO PUSH2 0xAB6 JUMPI DUP3 DUP2 ADD CALLDATALOAD DUP5 DUP2 GT PUSH2 0xAA3 JUMPI DUP3 MLOAD SWAP4 DUP8 PUSH1 0x1F NOT SWAP2 PUSH2 0x7FC DUP10 DUP5 PUSH1 0x1F DUP8 ADD AND ADD DUP9 PUSH2 0xE1F JUMP JUMPDEST DUP4 DUP8 MSTORE PUSH1 0x24 SWAP4 CALLDATASIZE DUP6 DUP3 DUP5 ADD ADD GT PUSH2 0x1F2 JUMPI DUP1 DUP6 DUP12 SWAP4 ADD DUP4 DUP11 ADD CALLDATACOPY DUP8 ADD ADD MSTORE DUP5 MLOAD ISZERO PUSH2 0xA71 JUMPI PUSH1 0x2 SLOAD DUP5 MLOAD PUSH4 0x29AFD353 PUSH1 0xE0 SHL DUP2 MSTORE CALLER DUP6 DUP3 ADD MSTORE SWAP1 DUP9 SWAP1 DUP3 SWAP1 DUP6 SWAP1 DUP3 SWAP1 PUSH1 0x1 PUSH1 0x1 PUSH1 0xA0 SHL SUB AND GAS STATICCALL SWAP1 DUP2 ISZERO PUSH2 0xA67 JUMPI DUP10 SWAP2 PUSH2 0xA35 JUMPI JUMPDEST POP PUSH1 0x1E PUSH2 0x865 SWAP2 LT ISZERO PUSH2 0xF95 JUMP JUMPDEST PUSH1 0xD SLOAD PUSH1 0x0 NOT SWAP7 DUP8 DUP3 EQ PUSH2 0xA23 JUMPI PUSH1 0x1 DUP1 SWAP3 ADD SWAP8 DUP9 PUSH1 0xD SSTORE DUP9 DUP12 MSTORE PUSH1 0x3 DUP11 MSTORE DUP7 DUP12 KECCAK256 CALLER PUSH12 0xFFFFFFFFFFFFFFFFFFFFFFFF PUSH1 0xA0 SHL DUP3 SLOAD AND OR SWAP1 SSTORE DUP6 DUP11 MSTORE DUP7 DUP12 KECCAK256 SWAP4 DUP9 MLOAD SWAP3 DUP4 GT PUSH2 0xA11 JUMPI PUSH2 0x8B8 DUP6 SLOAD PUSH2 0xDE5 JUMP JUMPDEST PUSH1 0x1F DUP2 GT PUSH2 0x9C9 JUMPI JUMPDEST POP DUP11 SWAP1 PUSH1 0x1F DUP5 GT PUSH1 0x1 EQ PUSH2 0x968 JUMPI POP DUP3 SWAP4 DUP4 SWAP2 DUP14 SWAP5 PUSH2 0x95D JUMPI JUMPDEST POP SHL SWAP3 PUSH1 0x3 SHL SHR NOT AND OR SWAP1 SSTORE JUMPDEST DUP5 DUP8 MSTORE PUSH1 0x5 DUP7 MSTORE TIMESTAMP DUP4 DUP9 KECCAK256 SSTORE PUSH3 0x3F480 TIMESTAMP ADD SWAP2 DUP3 TIMESTAMP GT PUSH2 0x94C JUMPI POP POP DUP4 DUP7 MSTORE PUSH1 0x6 DUP6 MSTORE DUP2 DUP7 KECCAK256 SSTORE MLOAD DUP4 DUP2 MSTORE CALLER SWAP4 PUSH32 0x7585F467599D0F008985F231AF99293BE388626AC16CA59505C2F8F88969CD63 SWAP3 DUP3 SWAP2 PUSH2 0x946 SWAP2 SWAP1 DUP4 ADD SWAP1 PUSH2 0xEFD JUMP JUMPDEST SUB SWAP1 LOG3 DUP1 RETURN JUMPDEST PUSH4 0x4E487B71 PUSH1 0xE0 SHL DUP9 MSTORE PUSH1 0x11 SWAP1 MSTORE DUP7 REVERT JUMPDEST DUP11 ADD MLOAD SWAP4 POP CODESIZE PUSH2 0x8DB JUMP JUMPDEST DUP6 DUP14 MSTORE DUP12 DUP14 KECCAK256 SWAP3 SWAP2 SWAP1 DUP5 SWAP1 DUP2 AND DUP15 DUP15 DUP9 DUP15 JUMPDEST DUP5 DUP5 LT PUSH2 0x9B0 JUMPI POP POP POP POP LT PUSH2 0x998 JUMPI JUMPDEST POP POP POP DUP2 SHL ADD SWAP1 SSTORE PUSH2 0x8E8 JUMP JUMPDEST DUP10 ADD MLOAD SWAP1 PUSH1 0xF8 DUP5 PUSH1 0x3 SHL AND SHR NOT AND SWAP1 SSTORE CODESIZE DUP1 DUP1 PUSH2 0x98B JUMP JUMPDEST DUP7 ADD MLOAD DUP9 SSTORE SWAP1 SWAP7 ADD SWAP6 SWAP4 DUP5 ADD SWAP4 DUP8 SWAP4 POP ADD DUP15 DUP9 DUP15 PUSH2 0x97A JUMP JUMPDEST DUP6 DUP14 MSTORE DUP12 DUP14 KECCAK256 PUSH1 0x1F DUP6 ADD PUSH1 0x5 SHR DUP2 ADD SWAP2 DUP14 DUP7 LT PUSH2 0xA07 JUMPI JUMPDEST PUSH1 0x1F ADD PUSH1 0x5 SHR ADD SWAP1 DUP6 SWAP1 DUP15 JUMPDEST DUP4 DUP3 LT PUSH2 0x9FC JUMPI POP POP POP PUSH2 0x8C1 JUMP JUMPDEST DUP2 SSTORE ADD DUP6 SWAP1 DUP15 PUSH2 0x9ED JUMP JUMPDEST SWAP1 SWAP2 POP DUP2 SWAP1 PUSH2 0x9E1 JUMP JUMPDEST PUSH4 0x4E487B71 PUSH1 0xE0 SHL DUP13 MSTORE PUSH1 0x41 DUP8 MSTORE DUP6 DUP13 REVERT JUMPDEST PUSH4 0x4E487B71 PUSH1 0xE0 SHL DUP11 MSTORE PUSH1 0x11 DUP6 MSTORE DUP4 DUP11 REVERT JUMPDEST SWAP1 POP DUP8 DUP2 DUP2 RETURNDATASIZE DUP4 GT PUSH2 0xA60 JUMPI JUMPDEST PUSH2 0xA4C DUP2 DUP4 PUSH2 0xE1F JUMP JUMPDEST DUP2 ADD SUB SLT PUSH2 0xA5C JUMPI MLOAD PUSH1 0x1E PUSH2 0x857 JUMP JUMPDEST DUP9 DUP1 REVERT JUMPDEST POP RETURNDATASIZE PUSH2 0xA42 JUMP JUMPDEST DUP6 MLOAD RETURNDATASIZE DUP12 DUP3 RETURNDATACOPY RETURNDATASIZE SWAP1 REVERT JUMPDEST POP PUSH1 0xE SWAP1 DUP7 PUSH1 0x64 SWAP5 MLOAD SWAP4 PUSH3 0x461BCD PUSH1 0xE5 SHL DUP6 MSTORE DUP5 ADD MSTORE DUP3 ADD MSTORE PUSH14 0x151A5D1B19481C995C5D5A5C9959 PUSH1 0x92 SHL PUSH1 0x44 DUP3 ADD MSTORE REVERT JUMPDEST PUSH4 0x4E487B71 PUSH1 0xE0 SHL DUP8 MSTORE PUSH1 0x41 DUP3 MSTORE PUSH1 0x24 DUP8 REVERT JUMPDEST DUP6 DUP1 REVERT JUMPDEST DUP4 DUP1 REVERT JUMPDEST POP SWAP1 CALLVALUE PUSH2 0x1F2 JUMPI PUSH1 0x20 CALLDATASIZE PUSH1 0x3 NOT ADD SLT PUSH2 0x1F2 JUMPI DUP2 PUSH2 0xAFA SWAP4 DUP3 PUSH2 0xAE7 SWAP4 CALLDATALOAD DUP3 MSTORE PUSH1 0x20 MSTORE KECCAK256 PUSH2 0xE57 JUMP JUMPDEST SWAP1 MLOAD SWAP2 DUP3 SWAP2 PUSH1 0x20 DUP4 MSTORE PUSH1 0x20 DUP4 ADD SWAP1 PUSH2 0xEFD JUMP JUMPDEST SUB SWAP1 RETURN JUMPDEST DUP4 DUP3 CALLVALUE PUSH2 0x25C JUMPI DUP2 PUSH1 0x3 NOT CALLDATASIZE ADD SLT PUSH2 0x25C JUMPI PUSH1 0x20 SWAP1 MLOAD PUSH2 0x3E8 DUP2 MSTORE RETURN JUMPDEST POP SWAP1 CALLVALUE PUSH2 0x1F2 JUMPI PUSH1 0x20 CALLDATASIZE PUSH1 0x3 NOT ADD SLT PUSH2 0x1F2 JUMPI CALLDATALOAD DUP3 MSTORE PUSH1 0x3 PUSH1 0x20 SWAP1 DUP2 MSTORE SWAP2 DUP2 SWAP1 KECCAK256 SLOAD SWAP1 MLOAD PUSH1 0x1 PUSH1 0x1 PUSH1 0xA0 SHL SUB SWAP1 SWAP2 AND DUP2 MSTORE RETURN JUMPDEST POP SWAP1 CALLVALUE PUSH2 0x1F2 JUMPI DUP2 PUSH1 0x3 NOT CALLDATASIZE ADD SLT PUSH2 0x1F2 JUMPI DUP2 PUSH1 0x20 SWAP4 PUSH1 0xFF SWAP3 PUSH2 0xB6F PUSH2 0xDCA JUMP JUMPDEST SWAP1 CALLDATALOAD DUP3 MSTORE PUSH1 0xC DUP7 MSTORE DUP3 DUP3 KECCAK256 PUSH1 0x1 PUSH1 0x1 PUSH1 0xA0 SHL SUB SWAP1 SWAP2 AND DUP3 MSTORE DUP6 MSTORE KECCAK256 SLOAD SWAP2 MLOAD SWAP2 AND ISZERO ISZERO DUP2 MSTORE RETURN JUMPDEST POP SWAP1 CALLVALUE PUSH2 0x1F2 JUMPI PUSH1 0x20 CALLDATASIZE PUSH1 0x3 NOT ADD SLT PUSH2 0x1F2 JUMPI DUP2 PUSH1 0x20 SWAP4 PUSH1 0xFF SWAP3 CALLDATALOAD DUP2 MSTORE PUSH1 0x9 DUP6 MSTORE KECCAK256 SLOAD AND SWAP1 MLOAD SWAP1 ISZERO ISZERO DUP2 MSTORE RETURN JUMPDEST POP CALLVALUE PUSH2 0x1F2 JUMPI PUSH1 0x20 DUP1 PUSH1 0x3 NOT CALLDATASIZE ADD SLT PUSH2 0xABA JUMPI DUP3 CALLDATALOAD SWAP3 PUSH2 0xBE0 PUSH2 0xF3D JUMP JUMPDEST DUP4 ISZERO ISZERO DUP1 PUSH2 0xD21 JUMPI JUMPDEST PUSH2 0xBF2 SWAP1 PUSH2 0x1004 JUMP JUMPDEST DUP4 DUP6 MSTORE PUSH1 0x6 DUP3 MSTORE DUP3 DUP6 KECCAK256 SLOAD TIMESTAMP GT ISZERO PUSH2 0xCED JUMPI DUP4 DUP6 MSTORE PUSH1 0x9 DUP3 MSTORE PUSH1 0xFF DUP4 DUP7 KECCAK256 SLOAD AND PUSH2 0xCAC JUMPI DUP4 DUP6 MSTORE PUSH1 0x7 DUP3 MSTORE PUSH2 0x3E8 PUSH2 0xC35 DUP5 DUP8 KECCAK256 SLOAD PUSH1 0x8 DUP6 MSTORE DUP6 DUP9 KECCAK256 SLOAD SWAP1 PUSH2 0xFE1 JUMP JUMPDEST LT PUSH2 0xC76 JUMPI POP DUP3 DUP5 MSTORE PUSH1 0x9 SWAP1 MSTORE DUP3 KECCAK256 DUP1 SLOAD PUSH1 0xFF NOT AND PUSH1 0x1 OR SWAP1 SSTORE PUSH32 0x712AE1383F79AC853F8D882153778E0260EF8F03B504E2866E0593E04D2B291F DUP3 DUP1 LOG2 DUP1 RETURN JUMPDEST SWAP2 MLOAD PUSH3 0x461BCD PUSH1 0xE5 SHL DUP2 MSTORE SWAP2 DUP3 ADD MSTORE PUSH1 0x12 PUSH1 0x24 DUP3 ADD MSTORE PUSH18 0x145D5BDC9D5B481B9BDD081C995858DA1959 PUSH1 0x72 SHL PUSH1 0x44 DUP3 ADD MSTORE PUSH1 0x64 SWAP1 REVERT JUMPDEST SWAP2 MLOAD PUSH3 0x461BCD PUSH1 0xE5 SHL DUP2 MSTORE SWAP2 DUP3 ADD MSTORE PUSH1 0x19 PUSH1 0x24 DUP3 ADD MSTORE PUSH32 0x50726F706F73616C20616C726561647920657865637574656400000000000000 PUSH1 0x44 DUP3 ADD MSTORE PUSH1 0x64 SWAP1 REVERT JUMPDEST SWAP2 MLOAD PUSH3 0x461BCD PUSH1 0xE5 SHL DUP2 MSTORE SWAP2 DUP3 ADD MSTORE PUSH1 0x10 PUSH1 0x24 DUP3 ADD MSTORE PUSH16 0x159BDD1A5B99C81B9BDD08195B991959 PUSH1 0x82 SHL PUSH1 0x44 DUP3 ADD MSTORE PUSH1 0x64 SWAP1 REVERT JUMPDEST POP PUSH1 0xD SLOAD DUP5 GT ISZERO PUSH2 0xBE9 JUMP JUMPDEST DUP5 SWAP2 POP CALLVALUE PUSH2 0x25C JUMPI DUP3 PUSH1 0x3 NOT CALLDATASIZE ADD SLT PUSH2 0x25C JUMPI DUP4 CALLDATALOAD PUSH2 0xD4A PUSH2 0xDCA JUMP JUMPDEST SWAP2 DUP2 DUP5 MSTORE PUSH1 0x20 SWAP6 PUSH1 0xB DUP8 MSTORE DUP6 DUP6 KECCAK256 SWAP4 PUSH1 0x1 DUP1 PUSH1 0xA0 SHL SUB AND SWAP4 DUP5 DUP7 MSTORE DUP8 MSTORE PUSH1 0xFF DUP7 DUP7 KECCAK256 SLOAD AND ISZERO PUSH2 0xD95 JUMPI POP POP SWAP2 DUP4 SWAP2 PUSH1 0xFF SWAP4 DUP3 MSTORE PUSH1 0xC DUP7 MSTORE DUP3 DUP3 KECCAK256 SWAP1 DUP3 MSTORE DUP6 MSTORE KECCAK256 SLOAD AND SWAP1 MLOAD SWAP1 ISZERO ISZERO DUP2 MSTORE RETURN JUMPDEST PUSH3 0x461BCD PUSH1 0xE5 SHL DUP3 MSTORE DUP2 ADD DUP7 SWAP1 MSTORE PUSH1 0x12 PUSH1 0x24 DUP3 ADD MSTORE PUSH18 0x155CD95C881A185CC81B9BDD081D9BDD1959 PUSH1 0x72 SHL PUSH1 0x44 DUP3 ADD MSTORE PUSH1 0x64 SWAP1 REVERT JUMPDEST PUSH1 0x24 CALLDATALOAD SWAP1 PUSH1 0x1 PUSH1 0x1 PUSH1 0xA0 SHL SUB DUP3 AND DUP3 SUB PUSH2 0xDE0 JUMPI JUMP JUMPDEST PUSH1 0x0 DUP1 REVERT JUMPDEST SWAP1 PUSH1 0x1 DUP3 DUP2 SHR SWAP3 AND DUP1 ISZERO PUSH2 0xE15 JUMPI JUMPDEST PUSH1 0x20 DUP4 LT EQ PUSH2 0xDFF JUMPI JUMP JUMPDEST PUSH4 0x4E487B71 PUSH1 0xE0 SHL PUSH1 0x0 MSTORE PUSH1 0x22 PUSH1 0x4 MSTORE PUSH1 0x24 PUSH1 0x0 REVERT JUMPDEST SWAP2 PUSH1 0x7F AND SWAP2 PUSH2 0xDF4 JUMP JUMPDEST SWAP1 PUSH1 0x1F DUP1 NOT SWAP2 ADD AND DUP2 ADD SWAP1 DUP2 LT PUSH8 0xFFFFFFFFFFFFFFFF DUP3 GT OR PUSH2 0xE41 JUMPI PUSH1 0x40 MSTORE JUMP JUMPDEST PUSH4 0x4E487B71 PUSH1 0xE0 SHL PUSH1 0x0 MSTORE PUSH1 0x41 PUSH1 0x4 MSTORE PUSH1 0x24 PUSH1 0x0 REVERT JUMPDEST SWAP1 PUSH1 0x40 MLOAD SWAP2 DUP3 PUSH1 0x0 DUP3 SLOAD SWAP3 PUSH2 0xE6B DUP5 PUSH2 0xDE5 JUMP JUMPDEST SWAP1 DUP2 DUP5 MSTORE PUSH1 0x1 SWAP5 DUP6 DUP2 AND SWAP1 DUP2 PUSH1 0x0 EQ PUSH2 0xEDA JUMPI POP PUSH1 0x1 EQ PUSH2 0xE97 JUMPI JUMPDEST POP POP PUSH2 0xE95 SWAP3 POP SUB DUP4 PUSH2 0xE1F JUMP JUMPDEST JUMP JUMPDEST SWAP1 SWAP4 SWAP2 POP PUSH1 0x0 MSTORE PUSH1 0x20 SWAP1 DUP2 PUSH1 0x0 KECCAK256 SWAP4 PUSH1 0x0 SWAP2 JUMPDEST DUP2 DUP4 LT PUSH2 0xEC2 JUMPI POP POP PUSH2 0xE95 SWAP4 POP DUP3 ADD ADD CODESIZE DUP1 PUSH2 0xE87 JUMP JUMPDEST DUP6 SLOAD DUP9 DUP5 ADD DUP6 ADD MSTORE SWAP5 DUP6 ADD SWAP5 DUP8 SWAP5 POP SWAP2 DUP4 ADD SWAP2 PUSH2 0xEAA JUMP JUMPDEST SWAP2 POP POP PUSH2 0xE95 SWAP5 POP PUSH1 0x20 SWAP3 POP PUSH1 0xFF NOT AND DUP3 DUP5 ADD MSTORE ISZERO ISZERO PUSH1 0x5 SHL DUP3 ADD ADD CODESIZE DUP1 PUSH2 0xE87 JUMP JUMPDEST SWAP2 SWAP1 DUP3 MLOAD SWAP3 DUP4 DUP3 MSTORE PUSH1 0x0 JUMPDEST DUP5 DUP2 LT PUSH2 0xF29 JUMPI POP POP DUP3 PUSH1 0x0 PUSH1 0x20 DUP1 SWAP5 SWAP6 DUP5 ADD ADD MSTORE PUSH1 0x1F DUP1 NOT SWAP2 ADD AND ADD ADD SWAP1 JUMP JUMPDEST PUSH1 0x20 DUP2 DUP4 ADD DUP2 ADD MLOAD DUP5 DUP4 ADD DUP3 ADD MSTORE ADD PUSH2 0xF08 JUMP JUMPDEST PUSH1 0x1 SLOAD PUSH1 0x1 PUSH1 0x1 PUSH1 0xA0 SHL SUB AND CALLER SUB PUSH2 0xF51 JUMPI JUMP JUMPDEST PUSH1 0x64 PUSH1 0x40 MLOAD PUSH3 0x461BCD PUSH1 0xE5 SHL DUP2 MSTORE PUSH1 0x20 PUSH1 0x4 DUP3 ADD MSTORE PUSH1 0x20 PUSH1 0x24 DUP3 ADD MSTORE PUSH32 0x4F776E61626C653A2063616C6C6572206973206E6F7420746865206F776E6572 PUSH1 0x44 DUP3 ADD MSTORE REVERT JUMPDEST ISZERO PUSH2 0xF9C JUMPI JUMP JUMPDEST PUSH1 0x40 MLOAD PUSH3 0x461BCD PUSH1 0xE5 SHL DUP2 MSTORE PUSH1 0x20 PUSH1 0x4 DUP3 ADD MSTORE PUSH1 0x18 PUSH1 0x24 DUP3 ADD MSTORE PUSH32 0x496E73756666696369656E742074727573742073636F72650000000000000000 PUSH1 0x44 DUP3 ADD MSTORE PUSH1 0x64 SWAP1 REVERT JUMPDEST SWAP2 SWAP1 DUP3 ADD DUP1 SWAP3 GT PUSH2 0xFEE JUMPI JUMP JUMPDEST PUSH4 0x4E487B71 PUSH1 0xE0 SHL PUSH1 0x0 MSTORE PUSH1 0x11 PUSH1 0x4 MSTORE PUSH1 0x24 PUSH1 0x0 REVERT JUMPDEST ISZERO PUSH2 0x100B JUMPI JUMP JUMPDEST PUSH1 0x40 MLOAD PUSH3 0x461BCD PUSH1 0xE5 SHL DUP2 MSTORE PUSH1 0x20 PUSH1 0x4 DUP3 ADD MSTORE PUSH1 0x10 PUSH1 0x24 DUP3 ADD MSTORE PUSH16 0x125B9D985B1A59081C1C9BDC1BDCD85B PUSH1 0x82 SHL PUSH1 0x44 DUP3 ADD MSTORE PUSH1 0x64 SWAP1 REVERT INVALID LOG2 PUSH5 0x6970667358 0x22 SLT KECCAK256 PUSH9 0x14DA40DC549FAF0E3F PUSH14 0x9DD4F7AB75CCE1D450535AF69A50 PUSH25 0x571C19499F4E64736F6C634300081300330000000000000000 "},"methodIdentifiers":{"QUORUM()":"2e80d9b6","VOTING_PERIOD()":"b1610d7e","createProposal(string)":"49c2a1a6","executeProposal(uint256)":"0d61b519","getProposal(uint256)":"c7f758a8","getUserVote(uint256,address)":"03c7881a","hasUserVoted(uint256,address)":"dc296ae1","hasVoted(uint256,address)":"43859632","owner()":"8da5cb5b","proposalAgainstVotes(uint256)":"a7e22860","proposalCanceled(uint256)":"6e18113c","proposalCount()":"da35c664","proposalEndTime(uint256)":"d00a9f06","proposalExecuted(uint256)":"103616e8","proposalForVotes(uint256)":"c8bb4dd5","proposalProposer(uint256)":"143489d0","proposalStartTime(uint256)":"94616451","proposalTitle(uint256)":"36bb0047","renounceOwnership()":"715018a6","transferOwnership(address)":"f2fde38b","trustEngine()":"77aa980d","vote(uint256,bool)":"c9d27afe","voteSupport(uint256,address)":"1328323b"}}}}}