{"contracts/ZippyTrustMonitor.sol":{"ZippyTrustMonitor":{"abi":[{"inputs":[{"internalType":"address","name":"_trustEngine","type":"address"}],"stateMutability":"nonpayable","type":"constructor"},{"anonymous":false,"inputs":[{"indexed":false,"internalType":"uint256","name":"totalScore","type":"uint256"},{"indexed":false,"internalType":"uint256","name":"carbonOffset","type":"uint256"}],"name":"EnvironmentalImpactUpdated","type":"event"},{"anonymous":false,"inputs":[{"indexed":false,"internalType":"string","name":"error","type":"string"},{"indexed":false,"internalType":"uint256","name":"timestamp","type":"uint256"}],"name":"ErrorLogged","type":"event"},{"anonymous":false,"inputs":[{"indexed":false,"internalType":"bool","name":"isHealthy","type":"bool"},{"indexed":false,"internalType":"uint256","name":"uptime","type":"uint256"}],"name":"HealthCheckPerformed","type":"event"},{"anonymous":false,"inputs":[{"indexed":false,"internalType":"uint256","name":"timestamp","type":"uint256"}],"name":"MonitoringStarted","type":"event"},{"anonymous":false,"inputs":[{"indexed":false,"internalType":"uint256","name":"timestamp","type":"uint256"}],"name":"MonitoringStopped","type":"event"},{"anonymous":false,"inputs":[{"indexed":false,"internalType":"uint256","name":"validators","type":"uint256"},{"indexed":false,"internalType":"uint256","name":"delegations","type":"uint256"}],"name":"NetworkTopologyUpdated","type":"event"},{"anonymous":false,"inputs":[{"indexed":true,"internalType":"address","name":"previousOwner","type":"address"},{"indexed":true,"internalType":"address","name":"newOwner","type":"address"}],"name":"OwnershipTransferred","type":"event"},{"anonymous":false,"inputs":[{"indexed":false,"internalType":"uint256","name":"totalWallets","type":"uint256"},{"indexed":false,"internalType":"uint256","name":"averageScore","type":"uint256"}],"name":"TrustMetricsUpdated","type":"event"},{"inputs":[],"name":"HEALTH_CHECK_INTERVAL","outputs":[{"internalType":"uint256","name":"","type":"uint256"}],"stateMutability":"view","type":"function"},{"inputs":[],"name":"MONITORING_INTERVAL","outputs":[{"internalType":"uint256","name":"","type":"uint256"}],"stateMutability":"view","type":"function"},{"inputs":[],"name":"ZIPPY_MONITOR_PORT","outputs":[{"internalType":"uint16","name":"","type":"uint16"}],"stateMutability":"view","type":"function"},{"inputs":[],"name":"environmentalImpact","outputs":[{"internalType":"uint256","name":"totalEnvironmentalScore","type":"uint256"},{"internalType":"uint256","name":"renewableEnergyWallets","type":"uint256"},{"internalType":"uint256","name":"carbonOffsetTotal","type":"uint256"},{"internalType":"uint256","name":"dataCenterEfficiency","type":"uint256"},{"internalType":"uint256","name":"lastUpdate","type":"uint256"}],"stateMutability":"view","type":"function"},{"inputs":[],"name":"errorCount","outputs":[{"internalType":"uint256","name":"","type":"uint256"}],"stateMutability":"view","type":"function"},{"inputs":[],"name":"getAllMonitoringData","outputs":[{"components":[{"internalType":"bool","name":"isOperational","type":"bool"},{"internalType":"uint256","name":"uptime","type":"uint256"},{"internalType":"uint256","name":"lastHealthCheck","type":"uint256"},{"internalType":"uint256","name":"errorCount","type":"uint256"},{"internalType":"string","name":"status","type":"string"},{"internalType":"uint256","name":"port","type":"uint256"}],"internalType":"struct ZippyTrustMonitor.HealthStatus","name":"health","type":"tuple"},{"components":[{"internalType":"uint256","name":"totalWallets","type":"uint256"},{"internalType":"uint256","name":"activeWallets","type":"uint256"},{"internalType":"uint256","name":"averageTrustScore","type":"uint256"},{"internalType":"uint256","name":"totalDelegations","type":"uint256"},{"internalType":"uint256","name":"activeDelegations","type":"uint256"},{"internalType":"uint256","name":"environmentalContributions","type":"uint256"},{"internalType":"uint256","name":"privacyCompliance","type":"uint256"},{"internalType":"uint256","name":"suspiciousActivityCount","type":"uint256"},{"internalType":"uint256","name":"lastUpdate","type":"uint256"}],"internalType":"struct ZippyTrustMonitor.TrustMetrics","name":"metrics","type":"tuple"},{"components":[{"internalType":"uint256","name":"totalEnvironmentalScore","type":"uint256"},{"internalType":"uint256","name":"renewableEnergyWallets","type":"uint256"},{"internalType":"uint256","name":"carbonOffsetTotal","type":"uint256"},{"internalType":"uint256","name":"dataCenterEfficiency","type":"uint256"},{"internalType":"uint256","name":"lastUpdate","type":"uint256"}],"internalType":"struct ZippyTrustMonitor.EnvironmentalImpact","name":"environment","type":"tuple"},{"components":[{"internalType":"uint256","name":"totalValidators","type":"uint256"},{"internalType":"uint256","name":"totalOriginWallets","type":"uint256"},{"internalType":"uint256","name":"totalDelegations","type":"uint256"},{"internalType":"uint256","name":"averageDelegationDepth","type":"uint256"},{"internalType":"uint256","name":"networkConnectivity","type":"uint256"},{"internalType":"uint256","name":"lastUpdate","type":"uint256"}],"internalType":"struct ZippyTrustMonitor.NetworkTopology","name":"topology","type":"tuple"}],"stateMutability":"nonpayable","type":"function"},{"inputs":[],"name":"getMonitoringConfig","outputs":[{"internalType":"uint16","name":"port","type":"uint16"},{"internalType":"uint256","name":"monitoringInterval","type":"uint256"},{"internalType":"uint256","name":"healthCheckInterval","type":"uint256"},{"internalType":"bool","name":"isActive","type":"bool"},{"internalType":"uint256","name":"startTimestamp","type":"uint256"}],"stateMutability":"view","type":"function"},{"inputs":[],"name":"getZippyEnvironment","outputs":[{"components":[{"internalType":"uint256","name":"totalEnvironmentalScore","type":"uint256"},{"internalType":"uint256","name":"renewableEnergyWallets","type":"uint256"},{"internalType":"uint256","name":"carbonOffsetTotal","type":"uint256"},{"internalType":"uint256","name":"dataCenterEfficiency","type":"uint256"},{"internalType":"uint256","name":"lastUpdate","type":"uint256"}],"internalType":"struct ZippyTrustMonitor.EnvironmentalImpact","name":"","type":"tuple"}],"stateMutability":"nonpayable","type":"function"},{"inputs":[],"name":"getZippyHealth","outputs":[{"components":[{"internalType":"bool","name":"isOperational","type":"bool"},{"internalType":"uint256","name":"uptime","type":"uint256"},{"internalType":"uint256","name":"lastHealthCheck","type":"uint256"},{"internalType":"uint256","name":"errorCount","type":"uint256"},{"internalType":"string","name":"status","type":"string"},{"internalType":"uint256","name":"port","type":"uint256"}],"internalType":"struct ZippyTrustMonitor.HealthStatus","name":"","type":"tuple"}],"stateMutability":"nonpayable","type":"function"},{"inputs":[],"name":"getZippyMetrics","outputs":[{"internalType":"uint256","name":"uptimeSeconds","type":"uint256"},{"internalType":"uint256","name":"requestsTotal","type":"uint256"},{"internalType":"uint256","name":"errorsTotal","type":"uint256"},{"internalType":"uint256","name":"trustScore","type":"uint256"},{"internalType":"uint256","name":"peerCount","type":"uint256"},{"internalType":"uint256","name":"blockHeight","type":"uint256"}],"stateMutability":"nonpayable","type":"function"},{"inputs":[],"name":"getZippyNetwork","outputs":[{"components":[{"internalType":"uint256","name":"totalValidators","type":"uint256"},{"internalType":"uint256","name":"totalOriginWallets","type":"uint256"},{"internalType":"uint256","name":"totalDelegations","type":"uint256"},{"internalType":"uint256","name":"averageDelegationDepth","type":"uint256"},{"internalType":"uint256","name":"networkConnectivity","type":"uint256"},{"internalType":"uint256","name":"lastUpdate","type":"uint256"}],"internalType":"struct ZippyTrustMonitor.NetworkTopology","name":"","type":"tuple"}],"stateMutability":"nonpayable","type":"function"},{"inputs":[],"name":"getZippyPeers","outputs":[{"internalType":"uint256","name":"total","type":"uint256"},{"internalType":"uint256","name":"active","type":"uint256"},{"internalType":"uint256","name":"trusted","type":"uint256"},{"internalType":"uint256[]","name":"peerList","type":"uint256[]"},{"internalType":"uint16","name":"discoveryPort","type":"uint16"}],"stateMutability":"nonpayable","type":"function"},{"inputs":[],"name":"getZippyStatus","outputs":[{"internalType":"bool","name":"operational","type":"bool"},{"internalType":"string","name":"componentType","type":"string"},{"internalType":"string","name":"componentId","type":"string"},{"internalType":"string","name":"version","type":"string"},{"internalType":"uint256","name":"uptime","type":"uint256"},{"internalType":"uint16","name":"port","type":"uint16"},{"components":[{"internalType":"uint256","name":"totalWallets","type":"uint256"},{"internalType":"uint256","name":"activeWallets","type":"uint256"},{"internalType":"uint256","name":"averageTrustScore","type":"uint256"},{"internalType":"uint256","name":"totalDelegations","type":"uint256"},{"internalType":"uint256","name":"activeDelegations","type":"uint256"},{"internalType":"uint256","name":"environmentalContributions","type":"uint256"},{"internalType":"uint256","name":"privacyCompliance","type":"uint256"},{"internalType":"uint256","name":"suspiciousActivityCount","type":"uint256"},{"internalType":"uint256","name":"lastUpdate","type":"uint256"}],"internalType":"struct ZippyTrustMonitor.TrustMetrics","name":"metrics","type":"tuple"}],"stateMutability":"nonpayable","type":"function"},{"inputs":[],"name":"getZippyTrust","outputs":[{"internalType":"bool","name":"status","type":"bool"},{"internalType":"uint256","name":"currentScore","type":"uint256"},{"internalType":"uint256[]","name":"scoreHistory","type":"uint256[]"},{"internalType":"uint256[]","name":"trustFactors","type":"uint256[]"},{"internalType":"uint256","name":"lastUpdate","type":"uint256"}],"stateMutability":"nonpayable","type":"function"},{"inputs":[],"name":"healthStatus","outputs":[{"internalType":"bool","name":"isOperational","type":"bool"},{"internalType":"uint256","name":"uptime","type":"uint256"},{"internalType":"uint256","name":"lastHealthCheck","type":"uint256"},{"internalType":"uint256","name":"errorCount","type":"uint256"},{"internalType":"string","name":"status","type":"string"},{"internalType":"uint256","name":"port","type":"uint256"}],"stateMutability":"view","type":"function"},{"inputs":[],"name":"isMonitoringActive","outputs":[{"internalType":"bool","name":"","type":"bool"}],"stateMutability":"view","type":"function"},{"inputs":[],"name":"lastMetricsUpdate","outputs":[{"internalType":"uint256","name":"","type":"uint256"}],"stateMutability":"view","type":"function"},{"inputs":[{"internalType":"string","name":"error","type":"string"}],"name":"logError","outputs":[],"stateMutability":"nonpayable","type":"function"},{"inputs":[],"name":"networkTopology","outputs":[{"internalType":"uint256","name":"totalValidators","type":"uint256"},{"internalType":"uint256","name":"totalOriginWallets","type":"uint256"},{"internalType":"uint256","name":"totalDelegations","type":"uint256"},{"internalType":"uint256","name":"averageDelegationDepth","type":"uint256"},{"internalType":"uint256","name":"networkConnectivity","type":"uint256"},{"internalType":"uint256","name":"lastUpdate","type":"uint256"}],"stateMutability":"view","type":"function"},{"inputs":[],"name":"owner","outputs":[{"internalType":"address","name":"","type":"address"}],"stateMutability":"view","type":"function"},{"inputs":[],"name":"performHealthCheck","outputs":[],"stateMutability":"nonpayable","type":"function"},{"inputs":[],"name":"renounceOwnership","outputs":[],"stateMutability":"nonpayable","type":"function"},{"inputs":[],"name":"startMonitoring","outputs":[],"stateMutability":"nonpayable","type":"function"},{"inputs":[],"name":"startTime","outputs":[{"internalType":"uint256","name":"","type":"uint256"}],"stateMutability":"view","type":"function"},{"inputs":[],"name":"stopMonitoring","outputs":[],"stateMutability":"nonpayable","type":"function"},{"inputs":[{"internalType":"address","name":"newOwner","type":"address"}],"name":"transferOwnership","outputs":[],"stateMutability":"nonpayable","type":"function"},{"inputs":[],"name":"trustEngine","outputs":[{"internalType":"contract TrustEngine","name":"","type":"address"}],"stateMutability":"view","type":"function"},{"inputs":[],"name":"trustMetrics","outputs":[{"internalType":"uint256","name":"totalWallets","type":"uint256"},{"internalType":"uint256","name":"activeWallets","type":"uint256"},{"internalType":"uint256","name":"averageTrustScore","type":"uint256"},{"internalType":"uint256","name":"totalDelegations","type":"uint256"},{"internalType":"uint256","name":"activeDelegations","type":"uint256"},{"internalType":"uint256","name":"environmentalContributions","type":"uint256"},{"internalType":"uint256","name":"privacyCompliance","type":"uint256"},{"internalType":"uint256","name":"suspiciousActivityCount","type":"uint256"},{"internalType":"uint256","name":"lastUpdate","type":"uint256"}],"stateMutability":"view","type":"function"},{"inputs":[],"name":"updateEnvironmentalImpact","outputs":[],"stateMutability":"nonpayable","type":"function"},{"inputs":[],"name":"updateNetworkTopology","outputs":[],"stateMutability":"nonpayable","type":"function"},{"inputs":[],"name":"updateTrustMetrics","outputs":[],"stateMutability":"nonpayable","type":"function"}],"evm":{"bytecode":{"linkReferences":{},"object":"608034620002e957601f1990620018a038819003601f81018416830192916001600160401b039183851083861117620002ee5780849260409687528339602093849181010312620002e957516001600160a01b03948582169291839003620002e957600092835460018060a01b031997338983161786553391167f8be0079c531659141344cd1fd0a4f28419497f9722a3daafe3b4186f6b6457e08680a3600196878055600254161760025542601d5560ff19868186541617855585519360c0850185811085821117620002d557875287855285850181815287860142815260608701918383528951948a860186811089821117620002c1578b52600b86526a1bdc195c985d1a5bdb985b60aa1b8a8701528560808a015260ff60a08a01996124ff8b5251151591600c5416911617600c5551600d5551600e5551600f558151938411620002ad576010548881811c91168015620002a2575b878210146200028e57601f811162000242575b508592601f8511600114620001cf57509596600080516020620018808339815191529692849283620001c3575b50501b916000199060031b1c1916176010555b516011558251428152a15161157b9081620003058239f35b01519250388062000198565b8493919298941660108352868320925b8181106200022c575097836000805160206200188083398151915298991062000212575b505050811b01601055620001ab565b015160001960f88460031b161c1916905538808062000203565b89830151845592850192918701918701620001df565b60108252868220601f860160051c81019188871062000283575b601f0160051c019089905b828110620002775750506200016b565b83815501899062000267565b90915081906200025c565b634e487b7160e01b82526022600452602482fd5b90607f169062000158565b634e487b7160e01b81526041600452602490fd5b634e487b7160e01b86526041600452602486fd5b634e487b7160e01b82526041600452602482fd5b600080fd5b634e487b7160e01b600052604160045260246000fdfe60406080815260048036101561001457600080fd5b600091823560e01c806308d7967814610cf9578063118d812614610ca357806317b62ee514610bee57806318bdc58f14610bad578063254cf3e914610b8a578063288c83fc14610b6e578063304b658414610b4d578063304db47f14610b2c5780633ccc273c14610a7d5780633d3d528814610a61578063442017cc146109625780634be611dd146108555780635841e7181461074f5780635ac9457f1461070e5780635e74f851146106ed578063715018a61461069357806377aa980d1461066a57806378e979251461064b5780638da5cb5b1461062357806391eb51d21461060457806393bbec72146105c2578063c3c3e5b8146104aa578063c41ab67b14610455578063cbfe399a14610431578063d34b8df6146103ce578063d38dbee6146103af578063e5d3562a1461034d578063ed150682146102df578063ed533a5414610262578063f103d81a146102415763f2fde38b1461017557600080fd5b3461023d57602036600319011261023d576001600160a01b03823581811693919290849003610239576101a6610f6e565b83156101e757505082546001600160a01b0319811683178455167f8be0079c531659141344cd1fd0a4f28419497f9722a3daafe3b4186f6b6457e08380a380f35b906020608492519162461bcd60e51b8352820152602660248201527f4f776e61626c653a206e6577206f776e657220697320746865207a65726f206160448201526564647265737360d01b6064820152fd5b8480fd5b8280fd5b83823461025e578160031936011261025e57602090516124ff8152f35b5080fd5b5082346102dc57806003193601126102dc5761027c611412565b600554906102d283519161028f83610dfa565b80835284519061029e82610dfa565b81526102c4600b549360a0875197889760018952602089015287015260a0860190610d5b565b908482036060860152610d5b565b9060808301520390f35b80fd5b83823461025e578160031936011261025e5760c0906102fc6111da565b506103056114d3565b61034b61031061120c565b9151809260a0809180518452602081015160208501526040810151604085015260608101516060850152608081015160808501520151910152565bf35b83823461025e578160031936011261025e5760a09061036a61117b565b5061037361148b565b61034b61037e6111a6565b9151809260808091805184526020810151602085015260408101516040850152606081015160608501520151910152565b83823461025e578160031936011261025e57602090601f549051908152f35b503461023d578260031936011261023d5761012092506003549154906005546006546007546008549160095493600a5495600b54978151998a5260208a01528801526060870152608086015260a085015260c084015260e0830152610100820152f35b83346102dc57806003193601126102dc5761044a610f6e565b610452611248565b80f35b5082346102dc57806003193601126102dc5750601754601854601954601a54601b54601c549551948552602085019390935260408401919091526060830152608082015260a081019190915260c090f35b0390f35b83823461025e578160031936011261025e57610542906104c8610fc6565b506104d16110e1565b506104da61117b565b506104e36111da565b506104ec611248565b6104f4611412565b6104fc61148b565b6105046114d3565b61050c610ff8565b906104a6610518611126565b916105826105246111a6565b61054d61052f61120c565b93519788976102a0808a52890190610f24565b956020880190610ece565b80516101408701526020810151610160870152604081015161018087015260608101516101a0870152608001516101c0860152565b80516101e0850152602081015161020085015260408101516102208501526060810151610240850152608081015161026085015260a00151610280840152565b83823461025e578160031936011261025e576104a6906105e0610fc6565b506105e9611248565b6105f1610ff8565b9051918291602083526020830190610f24565b83823461025e578160031936011261025e57602090601e549051908152f35b83823461025e578160031936011261025e57905490516001600160a01b039091168152602090f35b83823461025e578160031936011261025e57602090601d549051908152f35b83823461025e578160031936011261025e5760025490516001600160a01b039091168152602090f35b83346102dc57806003193601126102dc576106ac610f6e565b80546001600160a01b03198116825581906001600160a01b03167f8be0079c531659141344cd1fd0a4f28419497f9722a3daafe3b4186f6b6457e08280a380f35b83346102dc57806003193601126102dc57610706610f6e565b610452611412565b83823461025e578160031936011261025e5760a09060ff60205416601d5490600a8351936124ff8552601e6020860152840152151560608301526080820152f35b5082346102dc57806003193601126102dc575061076a6110e1565b50610773611248565b61077b611412565b60ff600c5416600d546104a683519361079385610e16565b600c85526b74727573742d656e67696e6560a01b602086015261083d8151916107bb83610e16565b60138352723d34b8383c96ba393ab9ba16b6b7b734ba37b960691b602084015261082f8151916107ea83610e16565b60058352640312e302e360dc1b6020840152610804611126565b9461082282519a8b9a15158b526101e08060208d01528b0190610e8e565b91898303908a0152610e8e565b908682036060880152610e8e565b9260808501526124ff60a085015260c0840190610ece565b83823461025e578160031936011261025e5760ff600c5416600d5491600e54600f548251918660105461088781610e54565b8086529160019180831690811561093657506001146108eb575b5050506108b6836108e1959697980384610e32565b601154948051978897151588526020880152860152606085015260c0608085015260c0840190610e8e565b9060a08301520390f35b9850601089526000805160206115268339815191525b828a1061091e57505050958201602001956108b6836108e16108a1565b805460208b8801810191909152909901988101610901565b60ff191660208089019190915293151560051b870190930199506108b692508591506108e190506108a1565b5082903461025e57602036600319011261025e5782359067ffffffffffffffff808311610a5d5736602384011215610a5d5782850135908111610a4a578151926109b6601f8301601f191660200185610e32565b81845236602483830101116102395781859260246020930183870137840101526109de610f6e565b601f546000198114610a37579060017f195550d8d2378f93143be41f857857291b83b08f20b9ab0052c2f6db2b4db91f93920180601f55600f55610a2b8151928284938452830190610e8e565b4260208301520390a180f35b634e487b7160e01b845260118552602484fd5b634e487b7160e01b845260418552602484fd5b8380fd5b83823461025e578160031936011261025e5760209051601e8152f35b50903461023d578260031936011261023d57610a97610f6e565b6020549060ff821615610ad857507f0db9536665dbf9966036c8d894cc6088d16ec653cd5806398495a061223f11959160209160ff1916825551428152a180f35b608490602084519162461bcd60e51b8352820152602860248201527f5a6970707954727573744d6f6e69746f723a204d6f6e69746f72696e67206e6f604482015267742061637469766560c01b6064820152fd5b83346102dc57806003193601126102dc57610b45610f6e565b6104526114d3565b83346102dc57806003193601126102dc57610b66610f6e565b61045261148b565b83823461025e578160031936011261025e5760209051600a8152f35b83823461025e578160031936011261025e5760209060ff82541690519015158152f35b83823461025e578160031936011261025e5760a090601254906013549060145460155491601654938151958652602086015284015260608301526080820152f35b50903461023d578260031936011261023d57610c08610f6e565b6020549060ff8216610c4b57507fec90ca9f94a46ef1b58ef055fd8662056f5d5321ef3477fa6e0e8bf1581af02791600160209260ff191617825551428152a180f35b608490602084519162461bcd60e51b8352820152602c60248201527f5a6970707954727573744d6f6e69746f723a204d6f6e69746f72696e6720616c60448201526b72656164792061637469766560a01b6064820152fd5b5082346102dc57806003193601126102dc5750610cbe611248565b600d54601f546005546006549351928352436020840181905260408401929092526060830152608082019290925260a081019190915260c090f35b5091346102dc57806003193601126102dc57610d4f90610d17611412565b60035492549360065490805192610d2d84610dfa565b835280519586958652602086015284015260a0606084015260a0830190610d5b565b6124ff60808301520390f35b90815180825260208080930193019160005b828110610d7b575050505090565b835185529381019392810192600101610d6d565b60c0810190811067ffffffffffffffff821117610dab57604052565b634e487b7160e01b600052604160045260246000fd5b610120810190811067ffffffffffffffff821117610dab57604052565b60a0810190811067ffffffffffffffff821117610dab57604052565b6020810190811067ffffffffffffffff821117610dab57604052565b6040810190811067ffffffffffffffff821117610dab57604052565b90601f8019910116810190811067ffffffffffffffff821117610dab57604052565b90600182811c92168015610e84575b6020831014610e6e57565b634e487b7160e01b600052602260045260246000fd5b91607f1691610e63565b919082519283825260005b848110610eba575050826000602080949584010152601f8019910116010190565b602081830181015184830182015201610e99565b805182526020810151602083015260408101516040830152606081015160608301526080810151608083015260a081015160a083015260c081015160c083015260e081015160e083015261010080910151910152565b9081511515815260208201516020820152604082015160408201526060820151606082015260a080610f65608085015160c0608086015260c0850190610e8e565b93015191015290565b6000546001600160a01b03163303610f8257565b606460405162461bcd60e51b815260206004820152602060248201527f4f776e61626c653a2063616c6c6572206973206e6f7420746865206f776e65726044820152fd5b60405190610fd382610d8f565b600060a083828152826020820152826040820152826060820152606060808201520152565b6040519061100582610d8f565b8160ff600c541615158152600d5460209081830152600e546040830152600f5460608301526040519081600060105461103d81610e54565b808452906001908181169081156110c15750600114611074575b505061106592500382610e32565b608082015260a0601154910152565b909391506010600052600080516020611526833981519152936000915b8183106110a957505061106593508201013880611057565b85548784018501529485019486945091830191611091565b91505061106594925060ff191682840152151560051b8201013880611057565b604051906110ee82610dc1565b816101006000918281528260208201528260408201528260608201528260808201528260a08201528260c08201528260e08201520152565b6040519061113382610dc1565b6003548252600454602083015260055460408301526006546060830152600754608083015260085460a083015260095460c0830152600a5460e0830152600b54610100830152565b6040519061118882610dde565b60006080838281528260208201528260408201528260608201520152565b604051906111b382610dde565b60125482526013546020830152601454604083015260155460608301526016546080830152565b604051906111e782610d8f565b8160a06000918281528260208201528260408201528260608201528260808201520152565b6040519061121982610d8f565b601754825260185460208301526019546040830152601a546060830152601b546080830152601c5460a0830152565b601d5442034281116113fc57600d5542600e5560209060ff825416806113f0575b60ff8019600c541691151516809117600c556000146113ca5760405161128e81610e16565b600b81526a1bdc195c985d1a5bdb985b60aa1b83820152915b82519067ffffffffffffffff8211610dab576112c4601054610e54565b601f8111611378575b5080601f831160011461130857508192936000926112fd575b50508160011b916000199060031b1c191617601055565b0151905038806112e6565b90601f198316946010600052600080516020611526833981519152926000905b878210611360575050836001959610611347575b505050811b01601055565b015160001960f88460031b161c1916905538808061133c565b80600185968294968601518155019501930190611328565b6010600052600080516020611526833981519152601f840160051c8101918385106113c0575b601f0160051c01905b8181106113b457506112cd565b600081556001016113a7565b909150819061139e565b6040516113d681610e16565b6008815267191959dc9859195960c21b83820152916112a7565b506064601f5410611269565b634e487b7160e01b600052601160045260246000fd5b60405161141e81610dc1565b6103e88082526103528060208401526102ee908160408501526109c49283606086015261089894856080820152605560a0820152605c60c0820152600f60e0820152610100429101526003556004556005556006556007556055600855605c600955600f600a5542600b55565b60405161149781610dde565b62014c0880825261028a908160208401526130d49283604082015260576060820152608042910152601255601355601455605760155542601655565b6040516114df81610d8f565b60328152606460208201526109c490816040820152600260608201526055608082015260a042910152603260175560646018556019556002601a556055601b5542601c5556fe1b6847dc741a1b0cd08d278845f9d819d87b734759afb55fe2de5cb82a9ae672a2646970667358221220e63d22baa5957f1d09b3d49caa5824490278281e6b0691c5e4a3c93e7984847064736f6c63430008130033ec90ca9f94a46ef1b58ef055fd8662056f5d5321ef3477fa6e0e8bf1581af027","opcodes":"PUSH1 0x80 CALLVALUE PUSH3 0x2E9 JUMPI PUSH1 0x1F NOT SWAP1 PUSH3 0x18A0 CODESIZE DUP2 SWAP1 SUB PUSH1 0x1F DUP2 ADD DUP5 AND DUP4 ADD SWAP3 SWAP2 PUSH1 0x1 PUSH1 0x1 PUSH1 0x40 SHL SUB SWAP2 DUP4 DUP6 LT DUP4 DUP7 GT OR PUSH3 0x2EE JUMPI DUP1 DUP5 SWAP3 PUSH1 0x40 SWAP7 DUP8 MSTORE DUP4 CODECOPY PUSH1 0x20 SWAP4 DUP5 SWAP2 DUP2 ADD SUB SLT PUSH3 0x2E9 JUMPI MLOAD PUSH1 0x1 PUSH1 0x1 PUSH1 0xA0 SHL SUB SWAP5 DUP6 DUP3 AND SWAP3 SWAP2 DUP4 SWAP1 SUB PUSH3 0x2E9 JUMPI PUSH1 0x0 SWAP3 DUP4 SLOAD PUSH1 0x1 DUP1 PUSH1 0xA0 SHL SUB NOT SWAP8 CALLER DUP10 DUP4 AND OR DUP7 SSTORE CALLER SWAP2 AND PUSH32 0x8BE0079C531659141344CD1FD0A4F28419497F9722A3DAAFE3B4186F6B6457E0 DUP7 DUP1 LOG3 PUSH1 0x1 SWAP7 DUP8 DUP1 SSTORE PUSH1 0x2 SLOAD AND OR PUSH1 0x2 SSTORE TIMESTAMP PUSH1 0x1D SSTORE PUSH1 0xFF NOT DUP7 DUP2 DUP7 SLOAD AND OR DUP6 SSTORE DUP6 MLOAD SWAP4 PUSH1 0xC0 DUP6 ADD DUP6 DUP2 LT DUP6 DUP3 GT OR PUSH3 0x2D5 JUMPI DUP8 MSTORE DUP8 DUP6 MSTORE DUP6 DUP6 ADD DUP2 DUP2 MSTORE DUP8 DUP7 ADD TIMESTAMP DUP2 MSTORE PUSH1 0x60 DUP8 ADD SWAP2 DUP4 DUP4 MSTORE DUP10 MLOAD SWAP5 DUP11 DUP7 ADD DUP7 DUP2 LT DUP10 DUP3 GT OR PUSH3 0x2C1 JUMPI DUP12 MSTORE PUSH1 0xB DUP7 MSTORE PUSH11 0x1BDC195C985D1A5BDB985B PUSH1 0xAA SHL DUP11 DUP8 ADD MSTORE DUP6 PUSH1 0x80 DUP11 ADD MSTORE PUSH1 0xFF PUSH1 0xA0 DUP11 ADD SWAP10 PUSH2 0x24FF DUP12 MSTORE MLOAD ISZERO ISZERO SWAP2 PUSH1 0xC SLOAD AND SWAP2 AND OR PUSH1 0xC SSTORE MLOAD PUSH1 0xD SSTORE MLOAD PUSH1 0xE SSTORE MLOAD PUSH1 0xF SSTORE DUP2 MLOAD SWAP4 DUP5 GT PUSH3 0x2AD JUMPI PUSH1 0x10 SLOAD DUP9 DUP2 DUP2 SHR SWAP2 AND DUP1 ISZERO PUSH3 0x2A2 JUMPI JUMPDEST DUP8 DUP3 LT EQ PUSH3 0x28E JUMPI PUSH1 0x1F DUP2 GT PUSH3 0x242 JUMPI JUMPDEST POP DUP6 SWAP3 PUSH1 0x1F DUP6 GT PUSH1 0x1 EQ PUSH3 0x1CF JUMPI POP SWAP6 SWAP7 PUSH1 0x0 DUP1 MLOAD PUSH1 0x20 PUSH3 0x1880 DUP4 CODECOPY DUP2 MLOAD SWAP2 MSTORE SWAP7 SWAP3 DUP5 SWAP3 DUP4 PUSH3 0x1C3 JUMPI JUMPDEST POP POP SHL SWAP2 PUSH1 0x0 NOT SWAP1 PUSH1 0x3 SHL SHR NOT AND OR PUSH1 0x10 SSTORE JUMPDEST MLOAD PUSH1 0x11 SSTORE DUP3 MLOAD TIMESTAMP DUP2 MSTORE LOG1 MLOAD PUSH2 0x157B SWAP1 DUP2 PUSH3 0x305 DUP3 CODECOPY RETURN JUMPDEST ADD MLOAD SWAP3 POP CODESIZE DUP1 PUSH3 0x198 JUMP JUMPDEST DUP5 SWAP4 SWAP2 SWAP3 SWAP9 SWAP5 AND PUSH1 0x10 DUP4 MSTORE DUP7 DUP4 KECCAK256 SWAP3 JUMPDEST DUP2 DUP2 LT PUSH3 0x22C JUMPI POP SWAP8 DUP4 PUSH1 0x0 DUP1 MLOAD PUSH1 0x20 PUSH3 0x1880 DUP4 CODECOPY DUP2 MLOAD SWAP2 MSTORE SWAP9 SWAP10 LT PUSH3 0x212 JUMPI JUMPDEST POP POP POP DUP2 SHL ADD PUSH1 0x10 SSTORE PUSH3 0x1AB JUMP JUMPDEST ADD MLOAD PUSH1 0x0 NOT PUSH1 0xF8 DUP5 PUSH1 0x3 SHL AND SHR NOT AND SWAP1 SSTORE CODESIZE DUP1 DUP1 PUSH3 0x203 JUMP JUMPDEST DUP10 DUP4 ADD MLOAD DUP5 SSTORE SWAP3 DUP6 ADD SWAP3 SWAP2 DUP8 ADD SWAP2 DUP8 ADD PUSH3 0x1DF JUMP JUMPDEST PUSH1 0x10 DUP3 MSTORE DUP7 DUP3 KECCAK256 PUSH1 0x1F DUP7 ADD PUSH1 0x5 SHR DUP2 ADD SWAP2 DUP9 DUP8 LT PUSH3 0x283 JUMPI JUMPDEST PUSH1 0x1F ADD PUSH1 0x5 SHR ADD SWAP1 DUP10 SWAP1 JUMPDEST DUP3 DUP2 LT PUSH3 0x277 JUMPI POP POP PUSH3 0x16B JUMP JUMPDEST DUP4 DUP2 SSTORE ADD DUP10 SWAP1 PUSH3 0x267 JUMP JUMPDEST SWAP1 SWAP2 POP DUP2 SWAP1 PUSH3 0x25C JUMP JUMPDEST PUSH4 0x4E487B71 PUSH1 0xE0 SHL DUP3 MSTORE PUSH1 0x22 PUSH1 0x4 MSTORE PUSH1 0x24 DUP3 REVERT JUMPDEST SWAP1 PUSH1 0x7F AND SWAP1 PUSH3 0x158 JUMP JUMPDEST PUSH4 0x4E487B71 PUSH1 0xE0 SHL DUP2 MSTORE PUSH1 0x41 PUSH1 0x4 MSTORE PUSH1 0x24 SWAP1 REVERT JUMPDEST PUSH4 0x4E487B71 PUSH1 0xE0 SHL DUP7 MSTORE PUSH1 0x41 PUSH1 0x4 MSTORE PUSH1 0x24 DUP7 REVERT JUMPDEST PUSH4 0x4E487B71 PUSH1 0xE0 SHL DUP3 MSTORE PUSH1 0x41 PUSH1 0x4 MSTORE PUSH1 0x24 DUP3 REVERT JUMPDEST PUSH1 0x0 DUP1 REVERT JUMPDEST PUSH4 0x4E487B71 PUSH1 0xE0 SHL PUSH1 0x0 MSTORE PUSH1 0x41 PUSH1 0x4 MSTORE PUSH1 0x24 PUSH1 0x0 REVERT INVALID PUSH1 0x40 PUSH1 0x80 DUP2 MSTORE PUSH1 0x4 DUP1 CALLDATASIZE LT ISZERO PUSH2 0x14 JUMPI PUSH1 0x0 DUP1 REVERT JUMPDEST PUSH1 0x0 SWAP2 DUP3 CALLDATALOAD PUSH1 0xE0 SHR DUP1 PUSH4 0x8D79678 EQ PUSH2 0xCF9 JUMPI DUP1 PUSH4 0x118D8126 EQ PUSH2 0xCA3 JUMPI DUP1 PUSH4 0x17B62EE5 EQ PUSH2 0xBEE JUMPI DUP1 PUSH4 0x18BDC58F EQ PUSH2 0xBAD JUMPI DUP1 PUSH4 0x254CF3E9 EQ PUSH2 0xB8A JUMPI DUP1 PUSH4 0x288C83FC EQ PUSH2 0xB6E JUMPI DUP1 PUSH4 0x304B6584 EQ PUSH2 0xB4D JUMPI DUP1 PUSH4 0x304DB47F EQ PUSH2 0xB2C JUMPI DUP1 PUSH4 0x3CCC273C EQ PUSH2 0xA7D JUMPI DUP1 PUSH4 0x3D3D5288 EQ PUSH2 0xA61 JUMPI DUP1 PUSH4 0x442017CC EQ PUSH2 0x962 JUMPI DUP1 PUSH4 0x4BE611DD EQ PUSH2 0x855 JUMPI DUP1 PUSH4 0x5841E718 EQ PUSH2 0x74F JUMPI DUP1 PUSH4 0x5AC9457F EQ PUSH2 0x70E JUMPI DUP1 PUSH4 0x5E74F851 EQ PUSH2 0x6ED JUMPI DUP1 PUSH4 0x715018A6 EQ PUSH2 0x693 JUMPI DUP1 PUSH4 0x77AA980D EQ PUSH2 0x66A JUMPI DUP1 PUSH4 0x78E97925 EQ PUSH2 0x64B JUMPI DUP1 PUSH4 0x8DA5CB5B EQ PUSH2 0x623 JUMPI DUP1 PUSH4 0x91EB51D2 EQ PUSH2 0x604 JUMPI DUP1 PUSH4 0x93BBEC72 EQ PUSH2 0x5C2 JUMPI DUP1 PUSH4 0xC3C3E5B8 EQ PUSH2 0x4AA JUMPI DUP1 PUSH4 0xC41AB67B EQ PUSH2 0x455 JUMPI DUP1 PUSH4 0xCBFE399A EQ PUSH2 0x431 JUMPI DUP1 PUSH4 0xD34B8DF6 EQ PUSH2 0x3CE JUMPI DUP1 PUSH4 0xD38DBEE6 EQ PUSH2 0x3AF JUMPI DUP1 PUSH4 0xE5D3562A EQ PUSH2 0x34D JUMPI DUP1 PUSH4 0xED150682 EQ PUSH2 0x2DF JUMPI DUP1 PUSH4 0xED533A54 EQ PUSH2 0x262 JUMPI DUP1 PUSH4 0xF103D81A EQ PUSH2 0x241 JUMPI PUSH4 0xF2FDE38B EQ PUSH2 0x175 JUMPI PUSH1 0x0 DUP1 REVERT JUMPDEST CALLVALUE PUSH2 0x23D JUMPI PUSH1 0x20 CALLDATASIZE PUSH1 0x3 NOT ADD SLT PUSH2 0x23D JUMPI PUSH1 0x1 PUSH1 0x1 PUSH1 0xA0 SHL SUB DUP3 CALLDATALOAD DUP2 DUP2 AND SWAP4 SWAP2 SWAP3 SWAP1 DUP5 SWAP1 SUB PUSH2 0x239 JUMPI PUSH2 0x1A6 PUSH2 0xF6E JUMP JUMPDEST DUP4 ISZERO PUSH2 0x1E7 JUMPI POP POP DUP3 SLOAD PUSH1 0x1 PUSH1 0x1 PUSH1 0xA0 SHL SUB NOT DUP2 AND DUP4 OR DUP5 SSTORE AND PUSH32 0x8BE0079C531659141344CD1FD0A4F28419497F9722A3DAAFE3B4186F6B6457E0 DUP4 DUP1 LOG3 DUP1 RETURN JUMPDEST SWAP1 PUSH1 0x20 PUSH1 0x84 SWAP3 MLOAD SWAP2 PUSH3 0x461BCD PUSH1 0xE5 SHL DUP4 MSTORE DUP3 ADD MSTORE PUSH1 0x26 PUSH1 0x24 DUP3 ADD MSTORE PUSH32 0x4F776E61626C653A206E6577206F776E657220697320746865207A65726F2061 PUSH1 0x44 DUP3 ADD MSTORE PUSH6 0x646472657373 PUSH1 0xD0 SHL PUSH1 0x64 DUP3 ADD MSTORE REVERT JUMPDEST DUP5 DUP1 REVERT JUMPDEST DUP3 DUP1 REVERT JUMPDEST DUP4 DUP3 CALLVALUE PUSH2 0x25E JUMPI DUP2 PUSH1 0x3 NOT CALLDATASIZE ADD SLT PUSH2 0x25E JUMPI PUSH1 0x20 SWAP1 MLOAD PUSH2 0x24FF DUP2 MSTORE RETURN JUMPDEST POP DUP1 REVERT JUMPDEST POP DUP3 CALLVALUE PUSH2 0x2DC JUMPI DUP1 PUSH1 0x3 NOT CALLDATASIZE ADD SLT PUSH2 0x2DC JUMPI PUSH2 0x27C PUSH2 0x1412 JUMP JUMPDEST PUSH1 0x5 SLOAD SWAP1 PUSH2 0x2D2 DUP4 MLOAD SWAP2 PUSH2 0x28F DUP4 PUSH2 0xDFA JUMP JUMPDEST DUP1 DUP4 MSTORE DUP5 MLOAD SWAP1 PUSH2 0x29E DUP3 PUSH2 0xDFA JUMP JUMPDEST DUP2 MSTORE PUSH2 0x2C4 PUSH1 0xB SLOAD SWAP4 PUSH1 0xA0 DUP8 MLOAD SWAP8 DUP9 SWAP8 PUSH1 0x1 DUP10 MSTORE PUSH1 0x20 DUP10 ADD MSTORE DUP8 ADD MSTORE PUSH1 0xA0 DUP7 ADD SWAP1 PUSH2 0xD5B JUMP JUMPDEST SWAP1 DUP5 DUP3 SUB PUSH1 0x60 DUP7 ADD MSTORE PUSH2 0xD5B JUMP JUMPDEST SWAP1 PUSH1 0x80 DUP4 ADD MSTORE SUB SWAP1 RETURN JUMPDEST DUP1 REVERT JUMPDEST DUP4 DUP3 CALLVALUE PUSH2 0x25E JUMPI DUP2 PUSH1 0x3 NOT CALLDATASIZE ADD SLT PUSH2 0x25E JUMPI PUSH1 0xC0 SWAP1 PUSH2 0x2FC PUSH2 0x11DA JUMP JUMPDEST POP PUSH2 0x305 PUSH2 0x14D3 JUMP JUMPDEST PUSH2 0x34B PUSH2 0x310 PUSH2 0x120C JUMP JUMPDEST SWAP2 MLOAD DUP1 SWAP3 PUSH1 0xA0 DUP1 SWAP2 DUP1 MLOAD DUP5 MSTORE PUSH1 0x20 DUP2 ADD MLOAD PUSH1 0x20 DUP6 ADD MSTORE PUSH1 0x40 DUP2 ADD MLOAD PUSH1 0x40 DUP6 ADD MSTORE PUSH1 0x60 DUP2 ADD MLOAD PUSH1 0x60 DUP6 ADD MSTORE PUSH1 0x80 DUP2 ADD MLOAD PUSH1 0x80 DUP6 ADD MSTORE ADD MLOAD SWAP2 ADD MSTORE JUMP JUMPDEST RETURN JUMPDEST DUP4 DUP3 CALLVALUE PUSH2 0x25E JUMPI DUP2 PUSH1 0x3 NOT CALLDATASIZE ADD SLT PUSH2 0x25E JUMPI PUSH1 0xA0 SWAP1 PUSH2 0x36A PUSH2 0x117B JUMP JUMPDEST POP PUSH2 0x373 PUSH2 0x148B JUMP JUMPDEST PUSH2 0x34B PUSH2 0x37E PUSH2 0x11A6 JUMP JUMPDEST SWAP2 MLOAD DUP1 SWAP3 PUSH1 0x80 DUP1 SWAP2 DUP1 MLOAD DUP5 MSTORE PUSH1 0x20 DUP2 ADD MLOAD PUSH1 0x20 DUP6 ADD MSTORE PUSH1 0x40 DUP2 ADD MLOAD PUSH1 0x40 DUP6 ADD MSTORE PUSH1 0x60 DUP2 ADD MLOAD PUSH1 0x60 DUP6 ADD MSTORE ADD MLOAD SWAP2 ADD MSTORE JUMP JUMPDEST DUP4 DUP3 CALLVALUE PUSH2 0x25E JUMPI DUP2 PUSH1 0x3 NOT CALLDATASIZE ADD SLT PUSH2 0x25E JUMPI PUSH1 0x20 SWAP1 PUSH1 0x1F SLOAD SWAP1 MLOAD SWAP1 DUP2 MSTORE RETURN JUMPDEST POP CALLVALUE PUSH2 0x23D JUMPI DUP3 PUSH1 0x3 NOT CALLDATASIZE ADD SLT PUSH2 0x23D JUMPI PUSH2 0x120 SWAP3 POP PUSH1 0x3 SLOAD SWAP2 SLOAD SWAP1 PUSH1 0x5 SLOAD PUSH1 0x6 SLOAD PUSH1 0x7 SLOAD PUSH1 0x8 SLOAD SWAP2 PUSH1 0x9 SLOAD SWAP4 PUSH1 0xA SLOAD SWAP6 PUSH1 0xB SLOAD SWAP8 DUP2 MLOAD SWAP10 DUP11 MSTORE PUSH1 0x20 DUP11 ADD MSTORE DUP9 ADD MSTORE PUSH1 0x60 DUP8 ADD MSTORE PUSH1 0x80 DUP7 ADD MSTORE PUSH1 0xA0 DUP6 ADD MSTORE PUSH1 0xC0 DUP5 ADD MSTORE PUSH1 0xE0 DUP4 ADD MSTORE PUSH2 0x100 DUP3 ADD MSTORE RETURN JUMPDEST DUP4 CALLVALUE PUSH2 0x2DC JUMPI DUP1 PUSH1 0x3 NOT CALLDATASIZE ADD SLT PUSH2 0x2DC JUMPI PUSH2 0x44A PUSH2 0xF6E JUMP JUMPDEST PUSH2 0x452 PUSH2 0x1248 JUMP JUMPDEST DUP1 RETURN JUMPDEST POP DUP3 CALLVALUE PUSH2 0x2DC JUMPI DUP1 PUSH1 0x3 NOT CALLDATASIZE ADD SLT PUSH2 0x2DC JUMPI POP PUSH1 0x17 SLOAD PUSH1 0x18 SLOAD PUSH1 0x19 SLOAD PUSH1 0x1A SLOAD PUSH1 0x1B SLOAD PUSH1 0x1C SLOAD SWAP6 MLOAD SWAP5 DUP6 MSTORE PUSH1 0x20 DUP6 ADD SWAP4 SWAP1 SWAP4 MSTORE PUSH1 0x40 DUP5 ADD SWAP2 SWAP1 SWAP2 MSTORE PUSH1 0x60 DUP4 ADD MSTORE PUSH1 0x80 DUP3 ADD MSTORE PUSH1 0xA0 DUP2 ADD SWAP2 SWAP1 SWAP2 MSTORE PUSH1 0xC0 SWAP1 RETURN JUMPDEST SUB SWAP1 RETURN JUMPDEST DUP4 DUP3 CALLVALUE PUSH2 0x25E JUMPI DUP2 PUSH1 0x3 NOT CALLDATASIZE ADD SLT PUSH2 0x25E JUMPI PUSH2 0x542 SWAP1 PUSH2 0x4C8 PUSH2 0xFC6 JUMP JUMPDEST POP PUSH2 0x4D1 PUSH2 0x10E1 JUMP JUMPDEST POP PUSH2 0x4DA PUSH2 0x117B JUMP JUMPDEST POP PUSH2 0x4E3 PUSH2 0x11DA JUMP JUMPDEST POP PUSH2 0x4EC PUSH2 0x1248 JUMP JUMPDEST PUSH2 0x4F4 PUSH2 0x1412 JUMP JUMPDEST PUSH2 0x4FC PUSH2 0x148B JUMP JUMPDEST PUSH2 0x504 PUSH2 0x14D3 JUMP JUMPDEST PUSH2 0x50C PUSH2 0xFF8 JUMP JUMPDEST SWAP1 PUSH2 0x4A6 PUSH2 0x518 PUSH2 0x1126 JUMP JUMPDEST SWAP2 PUSH2 0x582 PUSH2 0x524 PUSH2 0x11A6 JUMP JUMPDEST PUSH2 0x54D PUSH2 0x52F PUSH2 0x120C JUMP JUMPDEST SWAP4 MLOAD SWAP8 DUP9 SWAP8 PUSH2 0x2A0 DUP1 DUP11 MSTORE DUP10 ADD SWAP1 PUSH2 0xF24 JUMP JUMPDEST SWAP6 PUSH1 0x20 DUP9 ADD SWAP1 PUSH2 0xECE JUMP JUMPDEST DUP1 MLOAD PUSH2 0x140 DUP8 ADD MSTORE PUSH1 0x20 DUP2 ADD MLOAD PUSH2 0x160 DUP8 ADD MSTORE PUSH1 0x40 DUP2 ADD MLOAD PUSH2 0x180 DUP8 ADD MSTORE PUSH1 0x60 DUP2 ADD MLOAD PUSH2 0x1A0 DUP8 ADD MSTORE PUSH1 0x80 ADD MLOAD PUSH2 0x1C0 DUP7 ADD MSTORE JUMP JUMPDEST DUP1 MLOAD PUSH2 0x1E0 DUP6 ADD MSTORE PUSH1 0x20 DUP2 ADD MLOAD PUSH2 0x200 DUP6 ADD MSTORE PUSH1 0x40 DUP2 ADD MLOAD PUSH2 0x220 DUP6 ADD MSTORE PUSH1 0x60 DUP2 ADD MLOAD PUSH2 0x240 DUP6 ADD MSTORE PUSH1 0x80 DUP2 ADD MLOAD PUSH2 0x260 DUP6 ADD MSTORE PUSH1 0xA0 ADD MLOAD PUSH2 0x280 DUP5 ADD MSTORE JUMP JUMPDEST DUP4 DUP3 CALLVALUE PUSH2 0x25E JUMPI DUP2 PUSH1 0x3 NOT CALLDATASIZE ADD SLT PUSH2 0x25E JUMPI PUSH2 0x4A6 SWAP1 PUSH2 0x5E0 PUSH2 0xFC6 JUMP JUMPDEST POP PUSH2 0x5E9 PUSH2 0x1248 JUMP JUMPDEST PUSH2 0x5F1 PUSH2 0xFF8 JUMP JUMPDEST SWAP1 MLOAD SWAP2 DUP3 SWAP2 PUSH1 0x20 DUP4 MSTORE PUSH1 0x20 DUP4 ADD SWAP1 PUSH2 0xF24 JUMP JUMPDEST DUP4 DUP3 CALLVALUE PUSH2 0x25E JUMPI DUP2 PUSH1 0x3 NOT CALLDATASIZE ADD SLT PUSH2 0x25E JUMPI PUSH1 0x20 SWAP1 PUSH1 0x1E SLOAD SWAP1 MLOAD SWAP1 DUP2 MSTORE RETURN JUMPDEST DUP4 DUP3 CALLVALUE PUSH2 0x25E JUMPI DUP2 PUSH1 0x3 NOT CALLDATASIZE ADD SLT PUSH2 0x25E JUMPI SWAP1 SLOAD SWAP1 MLOAD PUSH1 0x1 PUSH1 0x1 PUSH1 0xA0 SHL SUB SWAP1 SWAP2 AND DUP2 MSTORE PUSH1 0x20 SWAP1 RETURN JUMPDEST DUP4 DUP3 CALLVALUE PUSH2 0x25E JUMPI DUP2 PUSH1 0x3 NOT CALLDATASIZE ADD SLT PUSH2 0x25E JUMPI PUSH1 0x20 SWAP1 PUSH1 0x1D SLOAD SWAP1 MLOAD SWAP1 DUP2 MSTORE RETURN JUMPDEST DUP4 DUP3 CALLVALUE PUSH2 0x25E JUMPI DUP2 PUSH1 0x3 NOT CALLDATASIZE ADD SLT PUSH2 0x25E JUMPI PUSH1 0x2 SLOAD SWAP1 MLOAD PUSH1 0x1 PUSH1 0x1 PUSH1 0xA0 SHL SUB SWAP1 SWAP2 AND DUP2 MSTORE PUSH1 0x20 SWAP1 RETURN JUMPDEST DUP4 CALLVALUE PUSH2 0x2DC JUMPI DUP1 PUSH1 0x3 NOT CALLDATASIZE ADD SLT PUSH2 0x2DC JUMPI PUSH2 0x6AC PUSH2 0xF6E JUMP JUMPDEST DUP1 SLOAD PUSH1 0x1 PUSH1 0x1 PUSH1 0xA0 SHL SUB NOT DUP2 AND DUP3 SSTORE DUP2 SWAP1 PUSH1 0x1 PUSH1 0x1 PUSH1 0xA0 SHL SUB AND PUSH32 0x8BE0079C531659141344CD1FD0A4F28419497F9722A3DAAFE3B4186F6B6457E0 DUP3 DUP1 LOG3 DUP1 RETURN JUMPDEST DUP4 CALLVALUE PUSH2 0x2DC JUMPI DUP1 PUSH1 0x3 NOT CALLDATASIZE ADD SLT PUSH2 0x2DC JUMPI PUSH2 0x706 PUSH2 0xF6E JUMP JUMPDEST PUSH2 0x452 PUSH2 0x1412 JUMP JUMPDEST DUP4 DUP3 CALLVALUE PUSH2 0x25E JUMPI DUP2 PUSH1 0x3 NOT CALLDATASIZE ADD SLT PUSH2 0x25E JUMPI PUSH1 0xA0 SWAP1 PUSH1 0xFF PUSH1 0x20 SLOAD AND PUSH1 0x1D SLOAD SWAP1 PUSH1 0xA DUP4 MLOAD SWAP4 PUSH2 0x24FF DUP6 MSTORE PUSH1 0x1E PUSH1 0x20 DUP7 ADD MSTORE DUP5 ADD MSTORE ISZERO ISZERO PUSH1 0x60 DUP4 ADD MSTORE PUSH1 0x80 DUP3 ADD MSTORE RETURN JUMPDEST POP DUP3 CALLVALUE PUSH2 0x2DC JUMPI DUP1 PUSH1 0x3 NOT CALLDATASIZE ADD SLT PUSH2 0x2DC JUMPI POP PUSH2 0x76A PUSH2 0x10E1 JUMP JUMPDEST POP PUSH2 0x773 PUSH2 0x1248 JUMP JUMPDEST PUSH2 0x77B PUSH2 0x1412 JUMP JUMPDEST PUSH1 0xFF PUSH1 0xC SLOAD AND PUSH1 0xD SLOAD PUSH2 0x4A6 DUP4 MLOAD SWAP4 PUSH2 0x793 DUP6 PUSH2 0xE16 JUMP JUMPDEST PUSH1 0xC DUP6 MSTORE PUSH12 0x74727573742D656E67696E65 PUSH1 0xA0 SHL PUSH1 0x20 DUP7 ADD MSTORE PUSH2 0x83D DUP2 MLOAD SWAP2 PUSH2 0x7BB DUP4 PUSH2 0xE16 JUMP JUMPDEST PUSH1 0x13 DUP4 MSTORE PUSH19 0x3D34B8383C96BA393AB9BA16B6B7B734BA37B9 PUSH1 0x69 SHL PUSH1 0x20 DUP5 ADD MSTORE PUSH2 0x82F DUP2 MLOAD SWAP2 PUSH2 0x7EA DUP4 PUSH2 0xE16 JUMP JUMPDEST PUSH1 0x5 DUP4 MSTORE PUSH5 0x312E302E3 PUSH1 0xDC SHL PUSH1 0x20 DUP5 ADD MSTORE PUSH2 0x804 PUSH2 0x1126 JUMP JUMPDEST SWAP5 PUSH2 0x822 DUP3 MLOAD SWAP11 DUP12 SWAP11 ISZERO ISZERO DUP12 MSTORE PUSH2 0x1E0 DUP1 PUSH1 0x20 DUP14 ADD MSTORE DUP12 ADD SWAP1 PUSH2 0xE8E JUMP JUMPDEST SWAP2 DUP10 DUP4 SUB SWAP1 DUP11 ADD MSTORE PUSH2 0xE8E JUMP JUMPDEST SWAP1 DUP7 DUP3 SUB PUSH1 0x60 DUP9 ADD MSTORE PUSH2 0xE8E JUMP JUMPDEST SWAP3 PUSH1 0x80 DUP6 ADD MSTORE PUSH2 0x24FF PUSH1 0xA0 DUP6 ADD MSTORE PUSH1 0xC0 DUP5 ADD SWAP1 PUSH2 0xECE JUMP JUMPDEST DUP4 DUP3 CALLVALUE PUSH2 0x25E JUMPI DUP2 PUSH1 0x3 NOT CALLDATASIZE ADD SLT PUSH2 0x25E JUMPI PUSH1 0xFF PUSH1 0xC SLOAD AND PUSH1 0xD SLOAD SWAP2 PUSH1 0xE SLOAD PUSH1 0xF SLOAD DUP3 MLOAD SWAP2 DUP7 PUSH1 0x10 SLOAD PUSH2 0x887 DUP2 PUSH2 0xE54 JUMP JUMPDEST DUP1 DUP7 MSTORE SWAP2 PUSH1 0x1 SWAP2 DUP1 DUP4 AND SWAP1 DUP2 ISZERO PUSH2 0x936 JUMPI POP PUSH1 0x1 EQ PUSH2 0x8EB JUMPI JUMPDEST POP POP POP PUSH2 0x8B6 DUP4 PUSH2 0x8E1 SWAP6 SWAP7 SWAP8 SWAP9 SUB DUP5 PUSH2 0xE32 JUMP JUMPDEST PUSH1 0x11 SLOAD SWAP5 DUP1 MLOAD SWAP8 DUP9 SWAP8 ISZERO ISZERO DUP9 MSTORE PUSH1 0x20 DUP9 ADD MSTORE DUP7 ADD MSTORE PUSH1 0x60 DUP6 ADD MSTORE PUSH1 0xC0 PUSH1 0x80 DUP6 ADD MSTORE PUSH1 0xC0 DUP5 ADD SWAP1 PUSH2 0xE8E JUMP JUMPDEST SWAP1 PUSH1 0xA0 DUP4 ADD MSTORE SUB SWAP1 RETURN JUMPDEST SWAP9 POP PUSH1 0x10 DUP10 MSTORE PUSH1 0x0 DUP1 MLOAD PUSH1 0x20 PUSH2 0x1526 DUP4 CODECOPY DUP2 MLOAD SWAP2 MSTORE JUMPDEST DUP3 DUP11 LT PUSH2 0x91E JUMPI POP POP POP SWAP6 DUP3 ADD PUSH1 0x20 ADD SWAP6 PUSH2 0x8B6 DUP4 PUSH2 0x8E1 PUSH2 0x8A1 JUMP JUMPDEST DUP1 SLOAD PUSH1 0x20 DUP12 DUP9 ADD DUP2 ADD SWAP2 SWAP1 SWAP2 MSTORE SWAP1 SWAP10 ADD SWAP9 DUP2 ADD PUSH2 0x901 JUMP JUMPDEST PUSH1 0xFF NOT AND PUSH1 0x20 DUP1 DUP10 ADD SWAP2 SWAP1 SWAP2 MSTORE SWAP4 ISZERO ISZERO PUSH1 0x5 SHL DUP8 ADD SWAP1 SWAP4 ADD SWAP10 POP PUSH2 0x8B6 SWAP3 POP DUP6 SWAP2 POP PUSH2 0x8E1 SWAP1 POP PUSH2 0x8A1 JUMP JUMPDEST POP DUP3 SWAP1 CALLVALUE PUSH2 0x25E JUMPI PUSH1 0x20 CALLDATASIZE PUSH1 0x3 NOT ADD SLT PUSH2 0x25E JUMPI DUP3 CALLDATALOAD SWAP1 PUSH8 0xFFFFFFFFFFFFFFFF DUP1 DUP4 GT PUSH2 0xA5D JUMPI CALLDATASIZE PUSH1 0x23 DUP5 ADD SLT ISZERO PUSH2 0xA5D JUMPI DUP3 DUP6 ADD CALLDATALOAD SWAP1 DUP2 GT PUSH2 0xA4A JUMPI DUP2 MLOAD SWAP3 PUSH2 0x9B6 PUSH1 0x1F DUP4 ADD PUSH1 0x1F NOT AND PUSH1 0x20 ADD DUP6 PUSH2 0xE32 JUMP JUMPDEST DUP2 DUP5 MSTORE CALLDATASIZE PUSH1 0x24 DUP4 DUP4 ADD ADD GT PUSH2 0x239 JUMPI DUP2 DUP6 SWAP3 PUSH1 0x24 PUSH1 0x20 SWAP4 ADD DUP4 DUP8 ADD CALLDATACOPY DUP5 ADD ADD MSTORE PUSH2 0x9DE PUSH2 0xF6E JUMP JUMPDEST PUSH1 0x1F SLOAD PUSH1 0x0 NOT DUP2 EQ PUSH2 0xA37 JUMPI SWAP1 PUSH1 0x1 PUSH32 0x195550D8D2378F93143BE41F857857291B83B08F20B9AB0052C2F6DB2B4DB91F SWAP4 SWAP3 ADD DUP1 PUSH1 0x1F SSTORE PUSH1 0xF SSTORE PUSH2 0xA2B DUP2 MLOAD SWAP3 DUP3 DUP5 SWAP4 DUP5 MSTORE DUP4 ADD SWAP1 PUSH2 0xE8E JUMP JUMPDEST TIMESTAMP PUSH1 0x20 DUP4 ADD MSTORE SUB SWAP1 LOG1 DUP1 RETURN JUMPDEST PUSH4 0x4E487B71 PUSH1 0xE0 SHL DUP5 MSTORE PUSH1 0x11 DUP6 MSTORE PUSH1 0x24 DUP5 REVERT JUMPDEST PUSH4 0x4E487B71 PUSH1 0xE0 SHL DUP5 MSTORE PUSH1 0x41 DUP6 MSTORE PUSH1 0x24 DUP5 REVERT JUMPDEST DUP4 DUP1 REVERT JUMPDEST DUP4 DUP3 CALLVALUE PUSH2 0x25E JUMPI DUP2 PUSH1 0x3 NOT CALLDATASIZE ADD SLT PUSH2 0x25E JUMPI PUSH1 0x20 SWAP1 MLOAD PUSH1 0x1E DUP2 MSTORE RETURN JUMPDEST POP SWAP1 CALLVALUE PUSH2 0x23D JUMPI DUP3 PUSH1 0x3 NOT CALLDATASIZE ADD SLT PUSH2 0x23D JUMPI PUSH2 0xA97 PUSH2 0xF6E JUMP JUMPDEST PUSH1 0x20 SLOAD SWAP1 PUSH1 0xFF DUP3 AND ISZERO PUSH2 0xAD8 JUMPI POP PUSH32 0xDB9536665DBF9966036C8D894CC6088D16EC653CD5806398495A061223F1195 SWAP2 PUSH1 0x20 SWAP2 PUSH1 0xFF NOT AND DUP3 SSTORE MLOAD TIMESTAMP DUP2 MSTORE LOG1 DUP1 RETURN JUMPDEST PUSH1 0x84 SWAP1 PUSH1 0x20 DUP5 MLOAD SWAP2 PUSH3 0x461BCD PUSH1 0xE5 SHL DUP4 MSTORE DUP3 ADD MSTORE PUSH1 0x28 PUSH1 0x24 DUP3 ADD MSTORE PUSH32 0x5A6970707954727573744D6F6E69746F723A204D6F6E69746F72696E67206E6F PUSH1 0x44 DUP3 ADD MSTORE PUSH8 0x7420616374697665 PUSH1 0xC0 SHL PUSH1 0x64 DUP3 ADD MSTORE REVERT JUMPDEST DUP4 CALLVALUE PUSH2 0x2DC JUMPI DUP1 PUSH1 0x3 NOT CALLDATASIZE ADD SLT PUSH2 0x2DC JUMPI PUSH2 0xB45 PUSH2 0xF6E JUMP JUMPDEST PUSH2 0x452 PUSH2 0x14D3 JUMP JUMPDEST DUP4 CALLVALUE PUSH2 0x2DC JUMPI DUP1 PUSH1 0x3 NOT CALLDATASIZE ADD SLT PUSH2 0x2DC JUMPI PUSH2 0xB66 PUSH2 0xF6E JUMP JUMPDEST PUSH2 0x452 PUSH2 0x148B JUMP JUMPDEST DUP4 DUP3 CALLVALUE PUSH2 0x25E JUMPI DUP2 PUSH1 0x3 NOT CALLDATASIZE ADD SLT PUSH2 0x25E JUMPI PUSH1 0x20 SWAP1 MLOAD PUSH1 0xA DUP2 MSTORE RETURN JUMPDEST DUP4 DUP3 CALLVALUE PUSH2 0x25E JUMPI DUP2 PUSH1 0x3 NOT CALLDATASIZE ADD SLT PUSH2 0x25E JUMPI PUSH1 0x20 SWAP1 PUSH1 0xFF DUP3 SLOAD AND SWAP1 MLOAD SWAP1 ISZERO ISZERO DUP2 MSTORE RETURN JUMPDEST DUP4 DUP3 CALLVALUE PUSH2 0x25E JUMPI DUP2 PUSH1 0x3 NOT CALLDATASIZE ADD SLT PUSH2 0x25E JUMPI PUSH1 0xA0 SWAP1 PUSH1 0x12 SLOAD SWAP1 PUSH1 0x13 SLOAD SWAP1 PUSH1 0x14 SLOAD PUSH1 0x15 SLOAD SWAP2 PUSH1 0x16 SLOAD SWAP4 DUP2 MLOAD SWAP6 DUP7 MSTORE PUSH1 0x20 DUP7 ADD MSTORE DUP5 ADD MSTORE PUSH1 0x60 DUP4 ADD MSTORE PUSH1 0x80 DUP3 ADD MSTORE RETURN JUMPDEST POP SWAP1 CALLVALUE PUSH2 0x23D JUMPI DUP3 PUSH1 0x3 NOT CALLDATASIZE ADD SLT PUSH2 0x23D JUMPI PUSH2 0xC08 PUSH2 0xF6E JUMP JUMPDEST PUSH1 0x20 SLOAD SWAP1 PUSH1 0xFF DUP3 AND PUSH2 0xC4B JUMPI POP PUSH32 0xEC90CA9F94A46EF1B58EF055FD8662056F5D5321EF3477FA6E0E8BF1581AF027 SWAP2 PUSH1 0x1 PUSH1 0x20 SWAP3 PUSH1 0xFF NOT AND OR DUP3 SSTORE MLOAD TIMESTAMP DUP2 MSTORE LOG1 DUP1 RETURN JUMPDEST PUSH1 0x84 SWAP1 PUSH1 0x20 DUP5 MLOAD SWAP2 PUSH3 0x461BCD PUSH1 0xE5 SHL DUP4 MSTORE DUP3 ADD MSTORE PUSH1 0x2C PUSH1 0x24 DUP3 ADD MSTORE PUSH32 0x5A6970707954727573744D6F6E69746F723A204D6F6E69746F72696E6720616C PUSH1 0x44 DUP3 ADD MSTORE PUSH12 0x726561647920616374697665 PUSH1 0xA0 SHL PUSH1 0x64 DUP3 ADD MSTORE REVERT JUMPDEST POP DUP3 CALLVALUE PUSH2 0x2DC JUMPI DUP1 PUSH1 0x3 NOT CALLDATASIZE ADD SLT PUSH2 0x2DC JUMPI POP PUSH2 0xCBE PUSH2 0x1248 JUMP JUMPDEST PUSH1 0xD SLOAD PUSH1 0x1F SLOAD PUSH1 0x5 SLOAD PUSH1 0x6 SLOAD SWAP4 MLOAD SWAP3 DUP4 MSTORE NUMBER PUSH1 0x20 DUP5 ADD DUP2 SWAP1 MSTORE PUSH1 0x40 DUP5 ADD SWAP3 SWAP1 SWAP3 MSTORE PUSH1 0x60 DUP4 ADD MSTORE PUSH1 0x80 DUP3 ADD SWAP3 SWAP1 SWAP3 MSTORE PUSH1 0xA0 DUP2 ADD SWAP2 SWAP1 SWAP2 MSTORE PUSH1 0xC0 SWAP1 RETURN JUMPDEST POP SWAP2 CALLVALUE PUSH2 0x2DC JUMPI DUP1 PUSH1 0x3 NOT CALLDATASIZE ADD SLT PUSH2 0x2DC JUMPI PUSH2 0xD4F SWAP1 PUSH2 0xD17 PUSH2 0x1412 JUMP JUMPDEST PUSH1 0x3 SLOAD SWAP3 SLOAD SWAP4 PUSH1 0x6 SLOAD SWAP1 DUP1 MLOAD SWAP3 PUSH2 0xD2D DUP5 PUSH2 0xDFA JUMP JUMPDEST DUP4 MSTORE DUP1 MLOAD SWAP6 DUP7 SWAP6 DUP7 MSTORE PUSH1 0x20 DUP7 ADD MSTORE DUP5 ADD MSTORE PUSH1 0xA0 PUSH1 0x60 DUP5 ADD MSTORE PUSH1 0xA0 DUP4 ADD SWAP1 PUSH2 0xD5B JUMP JUMPDEST PUSH2 0x24FF PUSH1 0x80 DUP4 ADD MSTORE SUB SWAP1 RETURN JUMPDEST SWAP1 DUP2 MLOAD DUP1 DUP3 MSTORE PUSH1 0x20 DUP1 DUP1 SWAP4 ADD SWAP4 ADD SWAP2 PUSH1 0x0 JUMPDEST DUP3 DUP2 LT PUSH2 0xD7B JUMPI POP POP POP POP SWAP1 JUMP JUMPDEST DUP4 MLOAD DUP6 MSTORE SWAP4 DUP2 ADD SWAP4 SWAP3 DUP2 ADD SWAP3 PUSH1 0x1 ADD PUSH2 0xD6D JUMP JUMPDEST PUSH1 0xC0 DUP2 ADD SWAP1 DUP2 LT PUSH8 0xFFFFFFFFFFFFFFFF DUP3 GT OR PUSH2 0xDAB JUMPI PUSH1 0x40 MSTORE JUMP JUMPDEST PUSH4 0x4E487B71 PUSH1 0xE0 SHL PUSH1 0x0 MSTORE PUSH1 0x41 PUSH1 0x4 MSTORE PUSH1 0x24 PUSH1 0x0 REVERT JUMPDEST PUSH2 0x120 DUP2 ADD SWAP1 DUP2 LT PUSH8 0xFFFFFFFFFFFFFFFF DUP3 GT OR PUSH2 0xDAB JUMPI PUSH1 0x40 MSTORE JUMP JUMPDEST PUSH1 0xA0 DUP2 ADD SWAP1 DUP2 LT PUSH8 0xFFFFFFFFFFFFFFFF DUP3 GT OR PUSH2 0xDAB JUMPI PUSH1 0x40 MSTORE JUMP JUMPDEST PUSH1 0x20 DUP2 ADD SWAP1 DUP2 LT PUSH8 0xFFFFFFFFFFFFFFFF DUP3 GT OR PUSH2 0xDAB JUMPI PUSH1 0x40 MSTORE JUMP JUMPDEST PUSH1 0x40 DUP2 ADD SWAP1 DUP2 LT PUSH8 0xFFFFFFFFFFFFFFFF DUP3 GT OR PUSH2 0xDAB JUMPI PUSH1 0x40 MSTORE JUMP JUMPDEST SWAP1 PUSH1 0x1F DUP1 NOT SWAP2 ADD AND DUP2 ADD SWAP1 DUP2 LT PUSH8 0xFFFFFFFFFFFFFFFF DUP3 GT OR PUSH2 0xDAB JUMPI PUSH1 0x40 MSTORE JUMP JUMPDEST SWAP1 PUSH1 0x1 DUP3 DUP2 SHR SWAP3 AND DUP1 ISZERO PUSH2 0xE84 JUMPI JUMPDEST PUSH1 0x20 DUP4 LT EQ PUSH2 0xE6E JUMPI JUMP JUMPDEST PUSH4 0x4E487B71 PUSH1 0xE0 SHL PUSH1 0x0 MSTORE PUSH1 0x22 PUSH1 0x4 MSTORE PUSH1 0x24 PUSH1 0x0 REVERT JUMPDEST SWAP2 PUSH1 0x7F AND SWAP2 PUSH2 0xE63 JUMP JUMPDEST SWAP2 SWAP1 DUP3 MLOAD SWAP3 DUP4 DUP3 MSTORE PUSH1 0x0 JUMPDEST DUP5 DUP2 LT PUSH2 0xEBA JUMPI POP POP DUP3 PUSH1 0x0 PUSH1 0x20 DUP1 SWAP5 SWAP6 DUP5 ADD ADD MSTORE PUSH1 0x1F DUP1 NOT SWAP2 ADD AND ADD ADD SWAP1 JUMP JUMPDEST PUSH1 0x20 DUP2 DUP4 ADD DUP2 ADD MLOAD DUP5 DUP4 ADD DUP3 ADD MSTORE ADD PUSH2 0xE99 JUMP JUMPDEST DUP1 MLOAD DUP3 MSTORE PUSH1 0x20 DUP2 ADD MLOAD PUSH1 0x20 DUP4 ADD MSTORE PUSH1 0x40 DUP2 ADD MLOAD PUSH1 0x40 DUP4 ADD MSTORE PUSH1 0x60 DUP2 ADD MLOAD PUSH1 0x60 DUP4 ADD MSTORE PUSH1 0x80 DUP2 ADD MLOAD PUSH1 0x80 DUP4 ADD MSTORE PUSH1 0xA0 DUP2 ADD MLOAD PUSH1 0xA0 DUP4 ADD MSTORE PUSH1 0xC0 DUP2 ADD MLOAD PUSH1 0xC0 DUP4 ADD MSTORE PUSH1 0xE0 DUP2 ADD MLOAD PUSH1 0xE0 DUP4 ADD MSTORE PUSH2 0x100 DUP1 SWAP2 ADD MLOAD SWAP2 ADD MSTORE JUMP JUMPDEST SWAP1 DUP2 MLOAD ISZERO ISZERO DUP2 MSTORE PUSH1 0x20 DUP3 ADD MLOAD PUSH1 0x20 DUP3 ADD MSTORE PUSH1 0x40 DUP3 ADD MLOAD PUSH1 0x40 DUP3 ADD MSTORE PUSH1 0x60 DUP3 ADD MLOAD PUSH1 0x60 DUP3 ADD MSTORE PUSH1 0xA0 DUP1 PUSH2 0xF65 PUSH1 0x80 DUP6 ADD MLOAD PUSH1 0xC0 PUSH1 0x80 DUP7 ADD MSTORE PUSH1 0xC0 DUP6 ADD SWAP1 PUSH2 0xE8E JUMP JUMPDEST SWAP4 ADD MLOAD SWAP2 ADD MSTORE SWAP1 JUMP JUMPDEST PUSH1 0x0 SLOAD PUSH1 0x1 PUSH1 0x1 PUSH1 0xA0 SHL SUB AND CALLER SUB PUSH2 0xF82 JUMPI JUMP JUMPDEST PUSH1 0x64 PUSH1 0x40 MLOAD PUSH3 0x461BCD PUSH1 0xE5 SHL DUP2 MSTORE PUSH1 0x20 PUSH1 0x4 DUP3 ADD MSTORE PUSH1 0x20 PUSH1 0x24 DUP3 ADD MSTORE PUSH32 0x4F776E61626C653A2063616C6C6572206973206E6F7420746865206F776E6572 PUSH1 0x44 DUP3 ADD MSTORE REVERT JUMPDEST PUSH1 0x40 MLOAD SWAP1 PUSH2 0xFD3 DUP3 PUSH2 0xD8F JUMP JUMPDEST PUSH1 0x0 PUSH1 0xA0 DUP4 DUP3 DUP2 MSTORE DUP3 PUSH1 0x20 DUP3 ADD MSTORE DUP3 PUSH1 0x40 DUP3 ADD MSTORE DUP3 PUSH1 0x60 DUP3 ADD MSTORE PUSH1 0x60 PUSH1 0x80 DUP3 ADD MSTORE ADD MSTORE JUMP JUMPDEST PUSH1 0x40 MLOAD SWAP1 PUSH2 0x1005 DUP3 PUSH2 0xD8F JUMP JUMPDEST DUP2 PUSH1 0xFF PUSH1 0xC SLOAD AND ISZERO ISZERO DUP2 MSTORE PUSH1 0xD SLOAD PUSH1 0x20 SWAP1 DUP2 DUP4 ADD MSTORE PUSH1 0xE SLOAD PUSH1 0x40 DUP4 ADD MSTORE PUSH1 0xF SLOAD PUSH1 0x60 DUP4 ADD MSTORE PUSH1 0x40 MLOAD SWAP1 DUP2 PUSH1 0x0 PUSH1 0x10 SLOAD PUSH2 0x103D DUP2 PUSH2 0xE54 JUMP JUMPDEST DUP1 DUP5 MSTORE SWAP1 PUSH1 0x1 SWAP1 DUP2 DUP2 AND SWAP1 DUP2 ISZERO PUSH2 0x10C1 JUMPI POP PUSH1 0x1 EQ PUSH2 0x1074 JUMPI JUMPDEST POP POP PUSH2 0x1065 SWAP3 POP SUB DUP3 PUSH2 0xE32 JUMP JUMPDEST PUSH1 0x80 DUP3 ADD MSTORE PUSH1 0xA0 PUSH1 0x11 SLOAD SWAP2 ADD MSTORE JUMP JUMPDEST SWAP1 SWAP4 SWAP2 POP PUSH1 0x10 PUSH1 0x0 MSTORE PUSH1 0x0 DUP1 MLOAD PUSH1 0x20 PUSH2 0x1526 DUP4 CODECOPY DUP2 MLOAD SWAP2 MSTORE SWAP4 PUSH1 0x0 SWAP2 JUMPDEST DUP2 DUP4 LT PUSH2 0x10A9 JUMPI POP POP PUSH2 0x1065 SWAP4 POP DUP3 ADD ADD CODESIZE DUP1 PUSH2 0x1057 JUMP JUMPDEST DUP6 SLOAD DUP8 DUP5 ADD DUP6 ADD MSTORE SWAP5 DUP6 ADD SWAP5 DUP7 SWAP5 POP SWAP2 DUP4 ADD SWAP2 PUSH2 0x1091 JUMP JUMPDEST SWAP2 POP POP PUSH2 0x1065 SWAP5 SWAP3 POP PUSH1 0xFF NOT AND DUP3 DUP5 ADD MSTORE ISZERO ISZERO PUSH1 0x5 SHL DUP3 ADD ADD CODESIZE DUP1 PUSH2 0x1057 JUMP JUMPDEST PUSH1 0x40 MLOAD SWAP1 PUSH2 0x10EE DUP3 PUSH2 0xDC1 JUMP JUMPDEST DUP2 PUSH2 0x100 PUSH1 0x0 SWAP2 DUP3 DUP2 MSTORE DUP3 PUSH1 0x20 DUP3 ADD MSTORE DUP3 PUSH1 0x40 DUP3 ADD MSTORE DUP3 PUSH1 0x60 DUP3 ADD MSTORE DUP3 PUSH1 0x80 DUP3 ADD MSTORE DUP3 PUSH1 0xA0 DUP3 ADD MSTORE DUP3 PUSH1 0xC0 DUP3 ADD MSTORE DUP3 PUSH1 0xE0 DUP3 ADD MSTORE ADD MSTORE JUMP JUMPDEST PUSH1 0x40 MLOAD SWAP1 PUSH2 0x1133 DUP3 PUSH2 0xDC1 JUMP JUMPDEST PUSH1 0x3 SLOAD DUP3 MSTORE PUSH1 0x4 SLOAD PUSH1 0x20 DUP4 ADD MSTORE PUSH1 0x5 SLOAD PUSH1 0x40 DUP4 ADD MSTORE PUSH1 0x6 SLOAD PUSH1 0x60 DUP4 ADD MSTORE PUSH1 0x7 SLOAD PUSH1 0x80 DUP4 ADD MSTORE PUSH1 0x8 SLOAD PUSH1 0xA0 DUP4 ADD MSTORE PUSH1 0x9 SLOAD PUSH1 0xC0 DUP4 ADD MSTORE PUSH1 0xA SLOAD PUSH1 0xE0 DUP4 ADD MSTORE PUSH1 0xB SLOAD PUSH2 0x100 DUP4 ADD MSTORE JUMP JUMPDEST PUSH1 0x40 MLOAD SWAP1 PUSH2 0x1188 DUP3 PUSH2 0xDDE JUMP JUMPDEST PUSH1 0x0 PUSH1 0x80 DUP4 DUP3 DUP2 MSTORE DUP3 PUSH1 0x20 DUP3 ADD MSTORE DUP3 PUSH1 0x40 DUP3 ADD MSTORE DUP3 PUSH1 0x60 DUP3 ADD MSTORE ADD MSTORE JUMP JUMPDEST PUSH1 0x40 MLOAD SWAP1 PUSH2 0x11B3 DUP3 PUSH2 0xDDE JUMP JUMPDEST PUSH1 0x12 SLOAD DUP3 MSTORE PUSH1 0x13 SLOAD PUSH1 0x20 DUP4 ADD MSTORE PUSH1 0x14 SLOAD PUSH1 0x40 DUP4 ADD MSTORE PUSH1 0x15 SLOAD PUSH1 0x60 DUP4 ADD MSTORE PUSH1 0x16 SLOAD PUSH1 0x80 DUP4 ADD MSTORE JUMP JUMPDEST PUSH1 0x40 MLOAD SWAP1 PUSH2 0x11E7 DUP3 PUSH2 0xD8F JUMP JUMPDEST DUP2 PUSH1 0xA0 PUSH1 0x0 SWAP2 DUP3 DUP2 MSTORE DUP3 PUSH1 0x20 DUP3 ADD MSTORE DUP3 PUSH1 0x40 DUP3 ADD MSTORE DUP3 PUSH1 0x60 DUP3 ADD MSTORE DUP3 PUSH1 0x80 DUP3 ADD MSTORE ADD MSTORE JUMP JUMPDEST PUSH1 0x40 MLOAD SWAP1 PUSH2 0x1219 DUP3 PUSH2 0xD8F JUMP JUMPDEST PUSH1 0x17 SLOAD DUP3 MSTORE PUSH1 0x18 SLOAD PUSH1 0x20 DUP4 ADD MSTORE PUSH1 0x19 SLOAD PUSH1 0x40 DUP4 ADD MSTORE PUSH1 0x1A SLOAD PUSH1 0x60 DUP4 ADD MSTORE PUSH1 0x1B SLOAD PUSH1 0x80 DUP4 ADD MSTORE PUSH1 0x1C SLOAD PUSH1 0xA0 DUP4 ADD MSTORE JUMP JUMPDEST PUSH1 0x1D SLOAD TIMESTAMP SUB TIMESTAMP DUP2 GT PUSH2 0x13FC JUMPI PUSH1 0xD SSTORE TIMESTAMP PUSH1 0xE SSTORE PUSH1 0x20 SWAP1 PUSH1 0xFF DUP3 SLOAD AND DUP1 PUSH2 0x13F0 JUMPI JUMPDEST PUSH1 0xFF DUP1 NOT PUSH1 0xC SLOAD AND SWAP2 ISZERO ISZERO AND DUP1 SWAP2 OR PUSH1 0xC SSTORE PUSH1 0x0 EQ PUSH2 0x13CA JUMPI PUSH1 0x40 MLOAD PUSH2 0x128E DUP2 PUSH2 0xE16 JUMP JUMPDEST PUSH1 0xB DUP2 MSTORE PUSH11 0x1BDC195C985D1A5BDB985B PUSH1 0xAA SHL DUP4 DUP3 ADD MSTORE SWAP2 JUMPDEST DUP3 MLOAD SWAP1 PUSH8 0xFFFFFFFFFFFFFFFF DUP3 GT PUSH2 0xDAB JUMPI PUSH2 0x12C4 PUSH1 0x10 SLOAD PUSH2 0xE54 JUMP JUMPDEST PUSH1 0x1F DUP2 GT PUSH2 0x1378 JUMPI JUMPDEST POP DUP1 PUSH1 0x1F DUP4 GT PUSH1 0x1 EQ PUSH2 0x1308 JUMPI POP DUP2 SWAP3 SWAP4 PUSH1 0x0 SWAP3 PUSH2 0x12FD JUMPI JUMPDEST POP POP DUP2 PUSH1 0x1 SHL SWAP2 PUSH1 0x0 NOT SWAP1 PUSH1 0x3 SHL SHR NOT AND OR PUSH1 0x10 SSTORE JUMP JUMPDEST ADD MLOAD SWAP1 POP CODESIZE DUP1 PUSH2 0x12E6 JUMP JUMPDEST SWAP1 PUSH1 0x1F NOT DUP4 AND SWAP5 PUSH1 0x10 PUSH1 0x0 MSTORE PUSH1 0x0 DUP1 MLOAD PUSH1 0x20 PUSH2 0x1526 DUP4 CODECOPY DUP2 MLOAD SWAP2 MSTORE SWAP3 PUSH1 0x0 SWAP1 JUMPDEST DUP8 DUP3 LT PUSH2 0x1360 JUMPI POP POP DUP4 PUSH1 0x1 SWAP6 SWAP7 LT PUSH2 0x1347 JUMPI JUMPDEST POP POP POP DUP2 SHL ADD PUSH1 0x10 SSTORE JUMP JUMPDEST ADD MLOAD PUSH1 0x0 NOT PUSH1 0xF8 DUP5 PUSH1 0x3 SHL AND SHR NOT AND SWAP1 SSTORE CODESIZE DUP1 DUP1 PUSH2 0x133C JUMP JUMPDEST DUP1 PUSH1 0x1 DUP6 SWAP7 DUP3 SWAP5 SWAP7 DUP7 ADD MLOAD DUP2 SSTORE ADD SWAP6 ADD SWAP4 ADD SWAP1 PUSH2 0x1328 JUMP JUMPDEST PUSH1 0x10 PUSH1 0x0 MSTORE PUSH1 0x0 DUP1 MLOAD PUSH1 0x20 PUSH2 0x1526 DUP4 CODECOPY DUP2 MLOAD SWAP2 MSTORE PUSH1 0x1F DUP5 ADD PUSH1 0x5 SHR DUP2 ADD SWAP2 DUP4 DUP6 LT PUSH2 0x13C0 JUMPI JUMPDEST PUSH1 0x1F ADD PUSH1 0x5 SHR ADD SWAP1 JUMPDEST DUP2 DUP2 LT PUSH2 0x13B4 JUMPI POP PUSH2 0x12CD JUMP JUMPDEST PUSH1 0x0 DUP2 SSTORE PUSH1 0x1 ADD PUSH2 0x13A7 JUMP JUMPDEST SWAP1 SWAP2 POP DUP2 SWAP1 PUSH2 0x139E JUMP JUMPDEST PUSH1 0x40 MLOAD PUSH2 0x13D6 DUP2 PUSH2 0xE16 JUMP JUMPDEST PUSH1 0x8 DUP2 MSTORE PUSH8 0x191959DC98591959 PUSH1 0xC2 SHL DUP4 DUP3 ADD MSTORE SWAP2 PUSH2 0x12A7 JUMP JUMPDEST POP PUSH1 0x64 PUSH1 0x1F SLOAD LT PUSH2 0x1269 JUMP JUMPDEST PUSH4 0x4E487B71 PUSH1 0xE0 SHL PUSH1 0x0 MSTORE PUSH1 0x11 PUSH1 0x4 MSTORE PUSH1 0x24 PUSH1 0x0 REVERT JUMPDEST PUSH1 0x40 MLOAD PUSH2 0x141E DUP2 PUSH2 0xDC1 JUMP JUMPDEST PUSH2 0x3E8 DUP1 DUP3 MSTORE PUSH2 0x352 DUP1 PUSH1 0x20 DUP5 ADD MSTORE PUSH2 0x2EE SWAP1 DUP2 PUSH1 0x40 DUP6 ADD MSTORE PUSH2 0x9C4 SWAP3 DUP4 PUSH1 0x60 DUP7 ADD MSTORE PUSH2 0x898 SWAP5 DUP6 PUSH1 0x80 DUP3 ADD MSTORE PUSH1 0x55 PUSH1 0xA0 DUP3 ADD MSTORE PUSH1 0x5C PUSH1 0xC0 DUP3 ADD MSTORE PUSH1 0xF PUSH1 0xE0 DUP3 ADD MSTORE PUSH2 0x100 TIMESTAMP SWAP2 ADD MSTORE PUSH1 0x3 SSTORE PUSH1 0x4 SSTORE PUSH1 0x5 SSTORE PUSH1 0x6 SSTORE PUSH1 0x7 SSTORE PUSH1 0x55 PUSH1 0x8 SSTORE PUSH1 0x5C PUSH1 0x9 SSTORE PUSH1 0xF PUSH1 0xA SSTORE TIMESTAMP PUSH1 0xB SSTORE JUMP JUMPDEST PUSH1 0x40 MLOAD PUSH2 0x1497 DUP2 PUSH2 0xDDE JUMP JUMPDEST PUSH3 0x14C08 DUP1 DUP3 MSTORE PUSH2 0x28A SWAP1 DUP2 PUSH1 0x20 DUP5 ADD MSTORE PUSH2 0x30D4 SWAP3 DUP4 PUSH1 0x40 DUP3 ADD MSTORE PUSH1 0x57 PUSH1 0x60 DUP3 ADD MSTORE PUSH1 0x80 TIMESTAMP SWAP2 ADD MSTORE PUSH1 0x12 SSTORE PUSH1 0x13 SSTORE PUSH1 0x14 SSTORE PUSH1 0x57 PUSH1 0x15 SSTORE TIMESTAMP PUSH1 0x16 SSTORE JUMP JUMPDEST PUSH1 0x40 MLOAD PUSH2 0x14DF DUP2 PUSH2 0xD8F JUMP JUMPDEST PUSH1 0x32 DUP2 MSTORE PUSH1 0x64 PUSH1 0x20 DUP3 ADD MSTORE PUSH2 0x9C4 SWAP1 DUP2 PUSH1 0x40 DUP3 ADD MSTORE PUSH1 0x2 PUSH1 0x60 DUP3 ADD MSTORE PUSH1 0x55 PUSH1 0x80 DUP3 ADD MSTORE PUSH1 0xA0 TIMESTAMP SWAP2 ADD MSTORE PUSH1 0x32 PUSH1 0x17 SSTORE PUSH1 0x64 PUSH1 0x18 SSTORE PUSH1 0x19 SSTORE PUSH1 0x2 PUSH1 0x1A SSTORE PUSH1 0x55 PUSH1 0x1B SSTORE TIMESTAMP PUSH1 0x1C SSTORE JUMP INVALID SHL PUSH9 0x47DC741A1B0CD08D27 DUP9 GASLIMIT 0xF9 0xD8 NOT 0xD8 PUSH28 0x734759AFB55FE2DE5CB82A9AE672A2646970667358221220E63D22BA 0xA5 SWAP6 PUSH32 0x1D09B3D49CAA5824490278281E6B0691C5E4A3C93E7984847064736F6C634300 ADDMOD SGT STOP CALLER 0xEC SWAP1 0xCA SWAP16 SWAP5 LOG4 PUSH15 0xF1B58EF055FD8662056F5D5321EF34 PUSH24 0xFA6E0E8BF1581AF027000000000000000000000000000000 "},"methodIdentifiers":{"HEALTH_CHECK_INTERVAL()":"288c83fc","MONITORING_INTERVAL()":"3d3d5288","ZIPPY_MONITOR_PORT()":"f103d81a","environmentalImpact()":"18bdc58f","errorCount()":"d38dbee6","getAllMonitoringData()":"c3c3e5b8","getMonitoringConfig()":"5ac9457f","getZippyEnvironment()":"e5d3562a","getZippyHealth()":"93bbec72","getZippyMetrics()":"118d8126","getZippyNetwork()":"ed150682","getZippyPeers()":"08d79678","getZippyStatus()":"5841e718","getZippyTrust()":"ed533a54","healthStatus()":"4be611dd","isMonitoringActive()":"254cf3e9","lastMetricsUpdate()":"91eb51d2","logError(string)":"442017cc","networkTopology()":"c41ab67b","owner()":"8da5cb5b","performHealthCheck()":"cbfe399a","renounceOwnership()":"715018a6","startMonitoring()":"17b62ee5","startTime()":"78e97925","stopMonitoring()":"3ccc273c","transferOwnership(address)":"f2fde38b","trustEngine()":"77aa980d","trustMetrics()":"d34b8df6","updateEnvironmentalImpact()":"304b6584","updateNetworkTopology()":"304db47f","updateTrustMetrics()":"5e74f851"}}}}}