{
  "_format": "hh-sol-artifact-1",
  "contractName": "NFTCredential",
  "sourceName": "contracts/NFTCredential.sol",
  "abi": [
    {
      "inputs": [
        {
          "internalType": "address",
          "name": "_trustEngine",
          "type": "address"
        }
      ],
      "stateMutability": "nonpayable",
      "type": "constructor"
    },
    {
      "anonymous": false,
      "inputs": [
        {
          "indexed": true,
          "internalType": "address",
          "name": "owner",
          "type": "address"
        },
        {
          "indexed": true,
          "internalType": "address",
          "name": "approved",
          "type": "address"
        },
        {
          "indexed": true,
          "internalType": "uint256",
          "name": "tokenId",
          "type": "uint256"
        }
      ],
      "name": "Approval",
      "type": "event"
    },
    {
      "anonymous": false,
      "inputs": [
        {
          "indexed": true,
          "internalType": "address",
          "name": "owner",
          "type": "address"
        },
        {
          "indexed": true,
          "internalType": "address",
          "name": "operator",
          "type": "address"
        },
        {
          "indexed": false,
          "internalType": "bool",
          "name": "approved",
          "type": "bool"
        }
      ],
      "name": "ApprovalForAll",
      "type": "event"
    },
    {
      "anonymous": false,
      "inputs": [
        {
          "indexed": true,
          "internalType": "uint256",
          "name": "tokenId",
          "type": "uint256"
        },
        {
          "indexed": true,
          "internalType": "address",
          "name": "recipient",
          "type": "address"
        },
        {
          "indexed": false,
          "internalType": "string",
          "name": "credentialType",
          "type": "string"
        },
        {
          "indexed": false,
          "internalType": "uint256",
          "name": "trustScore",
          "type": "uint256"
        },
        {
          "indexed": false,
          "internalType": "uint256",
          "name": "expirationDate",
          "type": "uint256"
        }
      ],
      "name": "CredentialIssued",
      "type": "event"
    },
    {
      "anonymous": false,
      "inputs": [
        {
          "indexed": true,
          "internalType": "uint256",
          "name": "tokenId",
          "type": "uint256"
        },
        {
          "indexed": true,
          "internalType": "address",
          "name": "issuer",
          "type": "address"
        }
      ],
      "name": "CredentialRevoked",
      "type": "event"
    },
    {
      "anonymous": false,
      "inputs": [
        {
          "indexed": true,
          "internalType": "address",
          "name": "issuer",
          "type": "address"
        },
        {
          "indexed": false,
          "internalType": "uint256",
          "name": "trustScore",
          "type": "uint256"
        }
      ],
      "name": "IssuerAuthorized",
      "type": "event"
    },
    {
      "anonymous": false,
      "inputs": [
        {
          "indexed": true,
          "internalType": "address",
          "name": "issuer",
          "type": "address"
        }
      ],
      "name": "IssuerRevoked",
      "type": "event"
    },
    {
      "anonymous": false,
      "inputs": [
        {
          "indexed": true,
          "internalType": "address",
          "name": "previousOwner",
          "type": "address"
        },
        {
          "indexed": true,
          "internalType": "address",
          "name": "newOwner",
          "type": "address"
        }
      ],
      "name": "OwnershipTransferred",
      "type": "event"
    },
    {
      "anonymous": false,
      "inputs": [
        {
          "indexed": true,
          "internalType": "address",
          "name": "from",
          "type": "address"
        },
        {
          "indexed": true,
          "internalType": "address",
          "name": "to",
          "type": "address"
        },
        {
          "indexed": true,
          "internalType": "uint256",
          "name": "tokenId",
          "type": "uint256"
        }
      ],
      "name": "Transfer",
      "type": "event"
    },
    {
      "inputs": [
        {
          "internalType": "address",
          "name": "to",
          "type": "address"
        },
        {
          "internalType": "uint256",
          "name": "tokenId",
          "type": "uint256"
        }
      ],
      "name": "approve",
      "outputs": [],
      "stateMutability": "nonpayable",
      "type": "function"
    },
    {
      "inputs": [
        {
          "internalType": "address",
          "name": "issuer",
          "type": "address"
        }
      ],
      "name": "authorizeIssuer",
      "outputs": [],
      "stateMutability": "nonpayable",
      "type": "function"
    },
    {
      "inputs": [
        {
          "internalType": "address",
          "name": "",
          "type": "address"
        }
      ],
      "name": "authorizedIssuers",
      "outputs": [
        {
          "internalType": "bool",
          "name": "",
          "type": "bool"
        }
      ],
      "stateMutability": "view",
      "type": "function"
    },
    {
      "inputs": [
        {
          "internalType": "address",
          "name": "owner",
          "type": "address"
        }
      ],
      "name": "balanceOf",
      "outputs": [
        {
          "internalType": "uint256",
          "name": "",
          "type": "uint256"
        }
      ],
      "stateMutability": "view",
      "type": "function"
    },
    {
      "inputs": [
        {
          "internalType": "uint256",
          "name": "",
          "type": "uint256"
        }
      ],
      "name": "credentialTypes",
      "outputs": [
        {
          "internalType": "string",
          "name": "",
          "type": "string"
        }
      ],
      "stateMutability": "view",
      "type": "function"
    },
    {
      "inputs": [
        {
          "internalType": "uint256",
          "name": "",
          "type": "uint256"
        }
      ],
      "name": "expirationDates",
      "outputs": [
        {
          "internalType": "uint256",
          "name": "",
          "type": "uint256"
        }
      ],
      "stateMutability": "view",
      "type": "function"
    },
    {
      "inputs": [
        {
          "internalType": "uint256",
          "name": "tokenId",
          "type": "uint256"
        }
      ],
      "name": "getApproved",
      "outputs": [
        {
          "internalType": "address",
          "name": "",
          "type": "address"
        }
      ],
      "stateMutability": "view",
      "type": "function"
    },
    {
      "inputs": [
        {
          "internalType": "uint256",
          "name": "tokenId",
          "type": "uint256"
        }
      ],
      "name": "getCredential",
      "outputs": [
        {
          "internalType": "address",
          "name": "owner",
          "type": "address"
        },
        {
          "internalType": "string",
          "name": "credentialType",
          "type": "string"
        },
        {
          "internalType": "uint256",
          "name": "issuanceDate",
          "type": "uint256"
        },
        {
          "internalType": "uint256",
          "name": "expirationDate",
          "type": "uint256"
        },
        {
          "internalType": "bool",
          "name": "revoked",
          "type": "bool"
        },
        {
          "internalType": "address",
          "name": "issuer",
          "type": "address"
        },
        {
          "internalType": "uint256",
          "name": "trustScore",
          "type": "uint256"
        }
      ],
      "stateMutability": "view",
      "type": "function"
    },
    {
      "inputs": [
        {
          "internalType": "address",
          "name": "issuer",
          "type": "address"
        }
      ],
      "name": "getIssuerTrustScore",
      "outputs": [
        {
          "internalType": "uint256",
          "name": "",
          "type": "uint256"
        }
      ],
      "stateMutability": "view",
      "type": "function"
    },
    {
      "inputs": [
        {
          "internalType": "address",
          "name": "owner",
          "type": "address"
        },
        {
          "internalType": "address",
          "name": "operator",
          "type": "address"
        }
      ],
      "name": "isApprovedForAll",
      "outputs": [
        {
          "internalType": "bool",
          "name": "",
          "type": "bool"
        }
      ],
      "stateMutability": "view",
      "type": "function"
    },
    {
      "inputs": [
        {
          "internalType": "address",
          "name": "issuer",
          "type": "address"
        }
      ],
      "name": "isAuthorizedIssuer",
      "outputs": [
        {
          "internalType": "bool",
          "name": "",
          "type": "bool"
        }
      ],
      "stateMutability": "view",
      "type": "function"
    },
    {
      "inputs": [
        {
          "internalType": "uint256",
          "name": "tokenId",
          "type": "uint256"
        }
      ],
      "name": "isCredentialValid",
      "outputs": [
        {
          "internalType": "bool",
          "name": "",
          "type": "bool"
        }
      ],
      "stateMutability": "view",
      "type": "function"
    },
    {
      "inputs": [
        {
          "internalType": "uint256",
          "name": "",
          "type": "uint256"
        }
      ],
      "name": "isRevoked",
      "outputs": [
        {
          "internalType": "bool",
          "name": "",
          "type": "bool"
        }
      ],
      "stateMutability": "view",
      "type": "function"
    },
    {
      "inputs": [
        {
          "internalType": "uint256",
          "name": "",
          "type": "uint256"
        }
      ],
      "name": "issuanceDates",
      "outputs": [
        {
          "internalType": "uint256",
          "name": "",
          "type": "uint256"
        }
      ],
      "stateMutability": "view",
      "type": "function"
    },
    {
      "inputs": [
        {
          "internalType": "address",
          "name": "recipient",
          "type": "address"
        },
        {
          "internalType": "string",
          "name": "credentialType",
          "type": "string"
        },
        {
          "internalType": "uint256",
          "name": "expirationDate",
          "type": "uint256"
        }
      ],
      "name": "issueCredential",
      "outputs": [],
      "stateMutability": "nonpayable",
      "type": "function"
    },
    {
      "inputs": [
        {
          "internalType": "address",
          "name": "",
          "type": "address"
        }
      ],
      "name": "issuerTrustScores",
      "outputs": [
        {
          "internalType": "uint256",
          "name": "",
          "type": "uint256"
        }
      ],
      "stateMutability": "view",
      "type": "function"
    },
    {
      "inputs": [
        {
          "internalType": "uint256",
          "name": "",
          "type": "uint256"
        }
      ],
      "name": "issuers",
      "outputs": [
        {
          "internalType": "address",
          "name": "",
          "type": "address"
        }
      ],
      "stateMutability": "view",
      "type": "function"
    },
    {
      "inputs": [],
      "name": "name",
      "outputs": [
        {
          "internalType": "string",
          "name": "",
          "type": "string"
        }
      ],
      "stateMutability": "view",
      "type": "function"
    },
    {
      "inputs": [],
      "name": "owner",
      "outputs": [
        {
          "internalType": "address",
          "name": "",
          "type": "address"
        }
      ],
      "stateMutability": "view",
      "type": "function"
    },
    {
      "inputs": [
        {
          "internalType": "uint256",
          "name": "tokenId",
          "type": "uint256"
        }
      ],
      "name": "ownerOf",
      "outputs": [
        {
          "internalType": "address",
          "name": "",
          "type": "address"
        }
      ],
      "stateMutability": "view",
      "type": "function"
    },
    {
      "inputs": [],
      "name": "renounceOwnership",
      "outputs": [],
      "stateMutability": "nonpayable",
      "type": "function"
    },
    {
      "inputs": [
        {
          "internalType": "uint256",
          "name": "tokenId",
          "type": "uint256"
        }
      ],
      "name": "revokeCredential",
      "outputs": [],
      "stateMutability": "nonpayable",
      "type": "function"
    },
    {
      "inputs": [
        {
          "internalType": "address",
          "name": "issuer",
          "type": "address"
        }
      ],
      "name": "revokeIssuer",
      "outputs": [],
      "stateMutability": "nonpayable",
      "type": "function"
    },
    {
      "inputs": [
        {
          "internalType": "address",
          "name": "from",
          "type": "address"
        },
        {
          "internalType": "address",
          "name": "to",
          "type": "address"
        },
        {
          "internalType": "uint256",
          "name": "tokenId",
          "type": "uint256"
        }
      ],
      "name": "safeTransferFrom",
      "outputs": [],
      "stateMutability": "nonpayable",
      "type": "function"
    },
    {
      "inputs": [
        {
          "internalType": "address",
          "name": "from",
          "type": "address"
        },
        {
          "internalType": "address",
          "name": "to",
          "type": "address"
        },
        {
          "internalType": "uint256",
          "name": "tokenId",
          "type": "uint256"
        },
        {
          "internalType": "bytes",
          "name": "data",
          "type": "bytes"
        }
      ],
      "name": "safeTransferFrom",
      "outputs": [],
      "stateMutability": "nonpayable",
      "type": "function"
    },
    {
      "inputs": [
        {
          "internalType": "address",
          "name": "operator",
          "type": "address"
        },
        {
          "internalType": "bool",
          "name": "approved",
          "type": "bool"
        }
      ],
      "name": "setApprovalForAll",
      "outputs": [],
      "stateMutability": "nonpayable",
      "type": "function"
    },
    {
      "inputs": [
        {
          "internalType": "bytes4",
          "name": "interfaceId",
          "type": "bytes4"
        }
      ],
      "name": "supportsInterface",
      "outputs": [
        {
          "internalType": "bool",
          "name": "",
          "type": "bool"
        }
      ],
      "stateMutability": "view",
      "type": "function"
    },
    {
      "inputs": [],
      "name": "symbol",
      "outputs": [
        {
          "internalType": "string",
          "name": "",
          "type": "string"
        }
      ],
      "stateMutability": "view",
      "type": "function"
    },
    {
      "inputs": [
        {
          "internalType": "uint256",
          "name": "tokenId",
          "type": "uint256"
        }
      ],
      "name": "tokenURI",
      "outputs": [
        {
          "internalType": "string",
          "name": "",
          "type": "string"
        }
      ],
      "stateMutability": "view",
      "type": "function"
    },
    {
      "inputs": [],
      "name": "totalCredentials",
      "outputs": [
        {
          "internalType": "uint256",
          "name": "",
          "type": "uint256"
        }
      ],
      "stateMutability": "view",
      "type": "function"
    },
    {
      "inputs": [
        {
          "internalType": "address",
          "name": "from",
          "type": "address"
        },
        {
          "internalType": "address",
          "name": "to",
          "type": "address"
        },
        {
          "internalType": "uint256",
          "name": "tokenId",
          "type": "uint256"
        }
      ],
      "name": "transferFrom",
      "outputs": [],
      "stateMutability": "nonpayable",
      "type": "function"
    },
    {
      "inputs": [
        {
          "internalType": "address",
          "name": "newOwner",
          "type": "address"
        }
      ],
      "name": "transferOwnership",
      "outputs": [],
      "stateMutability": "nonpayable",
      "type": "function"
    },
    {
      "inputs": [],
      "name": "trustEngine",
      "outputs": [
        {
          "internalType": "contract TrustEngine",
          "name": "",
          "type": "address"
        }
      ],
      "stateMutability": "view",
      "type": "function"
    },
    {
      "inputs": [
        {
          "internalType": "uint256",
          "name": "",
          "type": "uint256"
        }
      ],
      "name": "trustScores",
      "outputs": [
        {
          "internalType": "uint256",
          "name": "",
          "type": "uint256"
        }
      ],
      "stateMutability": "view",
      "type": "function"
    }
  ],
  "bytecode": "0x608034620003b757601f906001600160401b0390601f199062001ccf388190038581018416830185811184821017620003a157839282916040528339602092839181010312620003b757516001600160a01b03948582169491859003620003b7576200006a620003bc565b92601584527f5a69707079436f696e2043726564656e7469616c730000000000000000000000818501526200009e620003bc565b906008825267169410cb50d4915160c21b81830152845195848711620003a1576000968754966001978881811c9116801562000396575b8582101462000382579081878493116200032f575b508490878311600114620002ce578a92620002c2575b5050600019600383901b1c191690871b1787555b8251948511620002ae5785548681811c91168015620002a3575b838210146200028f5790818587969594931162000236575b5081938511600114620001d15750508592620001c5575b5050600019600383901b1c191690821b1790555b60065460018060a01b03199133838316176006557f8be0079c531659141344cd1fd0a4f28419497f9722a3daafe3b4186f6b6457e0604051953393169180a360075416176007556118f29081620003dd8239f35b0151905038806200015d565b869593929193168588528388209388905b8282106200021c575050841162000202575b505050811b01905562000171565b015160001960f88460031b161c19169055388080620001f4565b8484015186558897909501949384019390810190620001e2565b9091929394508688528288208580880160051c82019285891062000285575b9188978a9297969594930160051c01915b8281106200027657505062000146565b8a815588975089910162000266565b9250819262000255565b634e487b7160e01b88526022600452602488fd5b90607f16906200012e565b634e487b7160e01b87526041600452602487fd5b01519050388062000100565b90848a9416918b8052868c20928c5b88828210620003185750508411620002fe575b505050811b01875562000114565b015160001960f88460031b161c19169055388080620002f0565b8385015186558d97909501949384019301620002dd565b909150898052848a208780850160051c82019287861062000378575b918b91869594930160051c01915b82811062000369575050620000ea565b8c81558594508b910162000359565b925081926200034b565b634e487b7160e01b8a52602260045260248afd5b90607f1690620000d5565b634e487b7160e01b600052604160045260246000fd5b600080fd5b60408051919082016001600160401b03811183821017620003a15760405256fe6040608081526004908136101561001557600080fd5b600091823560e01c9081626296791461128557816301ffc9a71461121757816306fdde031461116f578163081812fc1461114f578163095ea7b3146111305781631513d62b146111115781631b87278d14610fe157816323b872dd14610fc357816331ba196614610f9857816342842e0e14610f6b578163436693d514610db15781635ccc561e14610d8457816361ec30c414610d515781636352211e14610d2057816368bb9e7d14610cf85781636da48b9a14610ccf57816370a0823114610c39578163715018a614610bdc57816373b23bf314610ba457816374b54e5f14610ba457816377aa980d14610b7b5781638da5cb5b14610b525781638dd18d2d14610a885781638e9841d01461056d57816395d89b411461048a578163a22cb46514610461578163ac00794114610439578163b88d4fde146103ca578163c11cc2a4146103a2578163c87b56dd14610337578163e985e9c5146102e9578163f2fde38b1461021d578163f4b88554146101d8575063f731fa0f1461019857600080fd5b346101d45760203660031901126101d45760209160ff9082906001600160a01b036101c1611350565b168152600f855220541690519015158152f35b5080fd5b905034610219576020366003190112610219578161021593610202923581526009602052206114cb565b9051918291602083526020830190611381565b0390f35b8280fd5b90503461021957602036600319011261021957610238611350565b90610241611571565b6001600160a01b03918216928315610297575050600654826bffffffffffffffffffffffff60a01b821617600655167f8be0079c531659141344cd1fd0a4f28419497f9722a3daafe3b4186f6b6457e08380a380f35b906020608492519162461bcd60e51b8352820152602660248201527f4f776e61626c653a206e6577206f776e657220697320746865207a65726f206160448201526564647265737360d01b6064820152fd5b5050346101d457806003193601126101d45760ff81602093610309611350565b61031161136b565b6001600160a01b0391821683526005875283832091168252855220549151911615158152f35b8383346101d45760203660031901126101d4576103756103706102159435600052600260205260018060a01b0360406000205416151590565b6115c9565b818151610381816113f6565b5280519161038e836113f6565b825251918291602083526020830190611381565b905034610219576020366003190112610219576020928291358152600a845220549051908152f35b8390346101d45760803660031901126101d4576103e5611350565b506103ee61136b565b5060643567ffffffffffffffff811161021957366023820112156102195761041f925060248136930135910161144a565b5061043461042f604435336116db565b611679565b611878565b905034610219576020366003190112610219576020928291358152600e845220549051908152f35b5050346101d4573660031901126104875761047a611350565b5060243580151514611878575b80fd5b5050346101d457816003193601126101d4578051908260018054916104ae83611491565b8086529282811690811561054557506001146104e9575b5050506104d782610215940383611428565b51918291602083526020830190611381565b94508085527fb10e2d527612073b26eecdfd717e6a320cf44b4afac2b0732d9fcbe2b7fa0cf65b82861061052d575050506104d782602061021595820101946104c5565b80546020878701810191909152909501948101610510565b6102159750869350602092506104d794915060ff191682840152151560051b820101946104c5565b90503461021957606036600319011261021957610588611350565b9160249167ffffffffffffffff908335828111610a845736602382011215610a84576105bc9036908681850135910161144a565b926044803592338952602094600f86526105db60ff858c205416611749565b6001600160a01b03988916988915610a4f57875115610a0e57428611156109cd57600754169284516329afd35360e01b90818152338582015288818c81895afa80156109c3578d90610991575b6032915010610950578a8a8992885197889384928352888301525afa938415610946578b94610913575b50601484106108c8575090899160018060085401998a60085561069361068d8c600052600260205260018060a01b0360406000205416151590565b1561178d565b60008b8152600260205260409020546106b6906001600160a01b0316151561068d565b8b8552600389528685208281540190558a8552600289528a8c888720966bffffffffffffffffffffffff60a01b9782898254161790557fddf252ad1be2c89b69c2b068fc378daa952ba7f163c4a11628f55a4df523b3ef8180a460098952868d20938a519384116108b757505061072d8354611491565b601f811161086f575b50878c601f84116001146107e55792807fef11dc2811f178c78ba44b5fa10078d595007e6a3d6c0ba22416becb9656614b9b9997959381936107cd9c9a9896936107da575b501b916000199060031b1c19161790555b888b52600a855242838c2055600b855283838c2055600d8552828b20903390825416179055600e845280828b20558151958695606087526060870190611381565b938501528301520390a380f35b8b015192503861077b565b90601f9392931983168583528a8320925b81811061085a57509183917fef11dc2811f178c78ba44b5fa10078d595007e6a3d6c0ba22416becb9656614b9c9a9896946107cd9c9a98969410610841575b5050811b01905561078c565b8a015160001960f88460031b161c191690553880610835565b8c830151845592850192918b01918b016107f6565b838d52888d20601f840160051c8101918a85106108ad575b601f0160051c019082908e5b8382106108a257505050610736565b81550182908e610893565b9091508190610887565b634e487b7160e01b8e52604190528cfd5b827f496e73756666696369656e7420726563697069656e742074727573742073636f60849260228c8b8a519562461bcd60e51b875286015284015282015261726560f01b6064820152fd5b9093508681813d831161093f575b61092b8183611428565b8101031261093b57519238610652565b8a80fd5b503d610921565b85513d8d823e3d90fd5b855162461bcd60e51b8152808501899052601f818c01527f496e73756666696369656e74206973737565722074727573742073636f72650081840152606490fd5b508881813d83116109bc575b6109a78183611428565b810103126109b85760329051610628565b8c80fd5b503d61099d565b87513d8f823e3d90fd5b845162461bcd60e51b81528084018890526017818b01527f496e76616c69642065787069726174696f6e206461746500000000000000000081860152606490fd5b845162461bcd60e51b81528084018890526017818b01527f496e76616c69642063726564656e7469616c207479706500000000000000000081860152606490fd5b845162461bcd60e51b81528084018890526011818b015270125b9d985b1a59081c9958da5c1a595b9d607a1b81860152606490fd5b8680fd5b8383346101d457602092836003193601126102195735600081815260026020526040902054909390610ac4906001600160a01b031615156117d9565b610acd84611615565b9284815260098252610ae08382206114cb565b948152600a825282812054600b835283822054600c845260ff858420541691600d8552610b3460018060a01b039860e0888b818920541697600e8a5220549789519b8c9b168b528a015260e0890190611381565b9587015260608601521515608085015260a084015260c08301520390f35b5050346101d457816003193601126101d45760065490516001600160a01b039091168152602090f35b5050346101d457816003193601126101d45760075490516001600160a01b039091168152602090f35b5050346101d45760203660031901126101d45760209181906001600160a01b03610bcc611350565b1681526010845220549051908152f35b8334610487578060031936011261048757610bf5611571565b600680546001600160a01b0319811690915581906001600160a01b03167f8be0079c531659141344cd1fd0a4f28419497f9722a3daafe3b4186f6b6457e08280a380f35b839150346101d45760203660031901126101d4576001600160a01b03610c5d611350565b16908115610c7a5760208480858581526003845220549051908152f35b608490602085519162461bcd60e51b8352820152602960248201527f4552433732313a2061646472657373207a65726f206973206e6f7420612076616044820152683634b21037bbb732b960b91b6064820152fd5b8284346104875760203660031901126104875750610cef60209235611825565b90519015158152f35b905034610219576020366003190112610219576020928291358152600b845220549051908152f35b8284346104875760203660031901126104875750610d4060209235611615565b90516001600160a01b039091168152f35b90503461021957602036600319011261021957358252600d6020908152918190205490516001600160a01b039091168152f35b905034610219576020366003190112610219578160209360ff92358152600c855220541690519015158152f35b919050346102195760209081600319360112610f6757610dcf611350565b92610dd8611571565b6001600160a01b03938416938415610f3457848652600f845260ff8387205416610efd57908360249392600754168351948580926329afd35360e01b825289868301525afa928315610ef3578693610ec0575b5060328310610e7f5750838552600f8352808520805460ff1916600117905560108352808520829055519081527fa0d402b55b358dfac53c7d1b3ef26f4e07d706ad2cab4e9540094020ee9a1d999190a280f35b83606492519162461bcd60e51b8352820152601860248201527f496e73756666696369656e742074727573742073636f726500000000000000006044820152fd5b9092508381813d8311610eec575b610ed88183611428565b81010312610ee857519138610e2b565b8580fd5b503d610ece565b82513d88823e3d90fd5b5082606492519162461bcd60e51b83528201526012602482015271105b1c9958591e48185d5d1a1bdc9a5e995960721b6044820152fd5b5082606492519162461bcd60e51b8352820152600e60248201526d24b73b30b634b21034b9b9bab2b960911b6044820152fd5b8380fd5b5050346101d45761042f9061043492610f83366113c1565b9391505051610f91816113f6565b52336116db565b5050346101d45760203660031901126101d45760209160ff9082906001600160a01b036101c1611350565b83346104875761043461042f610fd8366113c1565b915050336116db565b9190503461021957602080600319360112610f6757823592338552600f825261100f60ff8487205416611749565b600084815260026020526040902054611032906001600160a01b031615156117d9565b838552600c825260ff83862054166110d057838552600d825282852054336001600160a01b039091160361109e5750828452600c90528220805460ff1916600117905533907f936526f4a3155895d9f01699716f2e0c548d726a24a1437e5ce92b3dacaad35b8380a380f35b915162461bcd60e51b815291820152600e60248201526d2737ba103a34329034b9b9bab2b960911b6044820152606490fd5b915162461bcd60e51b815291820152601a60248201527f43726564656e7469616c20616c7265616479207265766f6b65640000000000006044820152606490fd5b5050346101d457816003193601126101d4576020906008549051908152f35b5050346101d45736600319011261048757611149611350565b50611878565b8284346104875760203660031901126104875750610d406020923561163b565b5050346101d457816003193601126101d45780519082805461119081611491565b8085529160019180831690811561054557506001146111bb575050506104d782610215940383611428565b80809650527f290decd9548b62a8d60345a988386fc84ba6bc95484008f6362f93160ef3e5635b8286106111ff575050506104d782602061021595820101946104c5565b805460208787018101919091529095019481016111e2565b90503461021957602036600319011261021957359063ffffffff60e01b821680920361021957602092506380ac58cd60e01b8214918215611274575b8215611263575b50519015158152f35b6301ffc9a760e01b1491503861125a565b635b5e139f60e01b81149250611253565b91905034610219576020366003190112610219576112a1611350565b6112a9611571565b6001600160a01b0316808452600f6020528184205490929060ff161561130e57508290828252600f60205280822060ff19815416905560106020528120557f95a4c2ae425bb769549aa1a911911ff57c17ae811ae8c8962d0b9746fcb153978280a280f35b6020606492519162461bcd60e51b8352820152601860248201527f4e6f7420616e20617574686f72697a65642069737375657200000000000000006044820152fd5b600435906001600160a01b038216820361136657565b600080fd5b602435906001600160a01b038216820361136657565b919082519283825260005b8481106113ad575050826000602080949584010152601f8019910116010190565b60208183018101518483018201520161138c565b6060906003190112611366576001600160a01b0390600435828116810361136657916024359081168103611366579060443590565b6020810190811067ffffffffffffffff82111761141257604052565b634e487b7160e01b600052604160045260246000fd5b90601f8019910116810190811067ffffffffffffffff82111761141257604052565b92919267ffffffffffffffff82116114125760405191611474601f8201601f191660200184611428565b829481845281830111611366578281602093846000960137010152565b90600182811c921680156114c1575b60208310146114ab57565b634e487b7160e01b600052602260045260246000fd5b91607f16916114a0565b90604051918260008254926114df84611491565b90818452600194858116908160001461154e575060011461150b575b505061150992500383611428565b565b9093915060005260209081600020936000915b818310611536575050611509935082010138806114fb565b8554888401850152948501948794509183019161151e565b91505061150994506020925060ff191682840152151560051b82010138806114fb565b6006546001600160a01b0316330361158557565b606460405162461bcd60e51b815260206004820152602060248201527f4f776e61626c653a2063616c6c6572206973206e6f7420746865206f776e65726044820152fd5b156115d057565b60405162461bcd60e51b815260206004820152601860248201527f4552433732313a20696e76616c696420746f6b656e20494400000000000000006044820152606490fd5b6000908152600260205260409020546001600160a01b03166116388115156115c9565b90565b60008181526002602052604090205461165e906001600160a01b031615156115c9565b6000908152600460205260409020546001600160a01b031690565b1561168057565b60405162461bcd60e51b815260206004820152602d60248201527f4552433732313a2063616c6c6572206973206e6f7420746f6b656e206f776e6560448201526c1c881bdc88185c1c1c9bdd9959609a1b6064820152608490fd5b906001600160a01b0380806116ef84611615565b16931691838314938415611722575b50831561170c575b50505090565b6117189192935061163b565b1614388080611706565b909350600052600560205260406000208260005260205260ff6040600020541692386116fe565b1561175057565b60405162461bcd60e51b81526020600482015260156024820152742737ba1030baba3437b934bd32b21034b9b9bab2b960591b6044820152606490fd5b1561179457565b60405162461bcd60e51b815260206004820152601c60248201527f4552433732313a20746f6b656e20616c7265616479206d696e746564000000006044820152606490fd5b156117e057565b60405162461bcd60e51b815260206004820152601960248201527f43726564656e7469616c20646f6573206e6f74206578697374000000000000006044820152606490fd5b6000818152600260205260409020546001600160a01b03161561187257600052600c60205260ff6040600020541661186d57600b602052604060002054421161186d57600190565b600090565b50600090565b606460405162461bcd60e51b815260206004820152602060248201527f43726564656e7469616c7320617265206e6f6e2d7472616e7366657261626c656044820152fdfea26469706673582212204a4237bb2a981a54ff63394fecb36628e6a1fe6eac1e4ce4ddbcb44825fa116b64736f6c63430008130033",
  "linkReferences": {},
  "deployedLinkReferences": {}
}